:100000000C9486050C94AE050C94AE050C94AE05CC
:100010000C94AE050C94AE050C94AE050C94AE0594
:100020000C94AE050C94AE050C946E130C94E01376
:100030000C94AE050C94AE050C94AE050C94AE0574
:100040000C94AE050C949C080C94AE050C94AE0573
:100050000C94AE050C94AE050C94AE050C944607BA
:100060000C94AE050C94AE050C94AE050C94AE0544
:100070000C94AE050C94AE050C94AE050C94AE0534
:100080000C943A090C94AE050C94AE050C94AE0594
:100090000C94AE050C94AE050C94AE050C94AE0514
:1000A0000C94AE050C94AE050C94AE050006030648
:1000B000F205F605FA0524062406240607060B06B3
:1000C0000F061506190624061F069B06A006A506A0
:1000D000AF06B906030703070307C306CD06D70615
:1000E000E106EE060307F60680E017686817E08071
:1000F0000107E81616E807010000E01F2BE8080CCE
:100100000C08E82B1FE000000008E41B1BE40800BB
:10011000808000000808000000000000003E5B4FE7
:100120005B3E3E6B4F6B3E1C3E7C3E1C183C7E3C57
:10013000181C577D571C1C5E7F5E1C00183C180065
:10014000FFE7C3E7FF0018241800FFE7DBE7FF30F5
:10015000483A060E2629792926407F050507407F63
:1001600005253F5A3CE73C5A7F3E1C1C08081C1CD6
:100170003E7F14227F22145F5F005F5F06097F01CC
:100180007F006689956A606060606094A2FFA294B7
:1001900008047E040810207E201008082A1C080885
:1001A0001C2A08081E101010100C1E0C1E0C3038D3
:1001B0003E3830060E3E0E06000000000000005FD4
:1001C00000000007000700147F147F14242A7F2AF0
:1001D00012231308646236495620500008070300B2
:1001E000001C2241000041221C002A1C7F1C2A08FE
:1001F000083E080800807030000808080808000061
:1002000060600020100804023E5149453E00427FD4
:10021000400072494949462141494D331814127F23
:100220001027454545393C4A4949314121110907C3
:100230003649494936464949291E00001400000044
:100240004034000000081422411414141414004116
:1002500022140802015909063E415D594E7C1211D3
:10026000127C7F494949363E414141227F4141410B
:100270003E7F494949417F090909013E4141517386
:100280007F0808087F00417F41002040413F017FF7
:10029000081422417F404040407F021C027F7F04BF
:1002A00008107F3E4141413E7F090909063E415108
:1002B000215E7F09192946264949493203017F01F8
:1002C000033F4040403F1F2040201F3F4038403FF9
:1002D000631408146303047804036159494D43000F
:1002E0007F4141410204081020004141417F040246
:1002F00001020440404040400003070800205454DD
:1003000078407F28444438384444442838444428BA
:100310007F385454541800087E090218A4A49C780D
:100320007F0804047800447D40002040403D007F69
:100330001028440000417F40007C047804787C0849
:100340000404783844444438FC182424181824241D
:1003500018FC7C08040408485454542404043F4402
:10036000243C4040207C1C2040201C3C4030403C31
:1003700044281028444C9090907C4464544C440091
:1003800008364100000077000000413608000201F5
:100390000204023C2623263C1EA1A161123A4040E1
:1003A000207A38545455592155557941215454785F
:1003B00041215554784020545579400C1E527212F8
:1003C0003955555559395454545939555454580080
:1003D00000457C410002457D420001457C40F029FA
:1003E0002429F0F0282528F07C5455450020545449
:1003F0007C547C0A097F493249494932324848488D
:1004000032324A4848303A4141217A3A42402078D3
:10041000009DA0A07D39444444393D4040403D3CCE
:1004200024FF2424487E4943662B2FFC2F2BFF09F1
:1004300029F620C0887E09032054547941000044E5
:100440007D413048484A32384040227A007A0A0AD0
:10045000727D0D19317D2629292F28262929292643
:1004600030484D4020380808080808080808382F88
:1004700010C8ACBA2F102834FA00007B0000081412
:100480002A142222142A14089500220095AA005545
:1004900000AAAA55AA55AA000000FF00101010FFDC
:1004A00000141414FF001010FF00FF1010F010F0E3
:1004B000141414FC001414F700FF0000FF00FF14D4
:1004C00014F404FC141417101F10101F101F141420
:1004D000141F00101010F0000000001F101010106A
:1004E0001F10101010F010000000FF10101010105E
:1004F00010101010FF10000000FF140000FF00FF9C
:1005000000001F10170000FC04F414141710171437
:1005100014F404F40000FF00F71414141414141459
:10052000F700F7141414171410101F101F141414CC
:10053000F4141010F010F000001F101F0000001F36
:1005400014000000FC140000F010F01010FF10FF69
:10055000141414FF141010101F00000000F010FFFE
:10056000FFFFFFFFF0F0F0F0F0FFFFFF00000000E2
:1005700000FFFF0F0F0F0F0F38444438447C2A2A26
:100580003E147E02020606027E027E026355494147
:10059000633844443C04407E201E2006027E020252
:1005A00099A5E7A5991C2A492A1C4C7201724C3066
:1005B0004A4D4D303048784830BC625A463D3E493D
:1005C0004949007E0101017E2A2A2A2A2A44445FE1
:1005D000444440514A444040444A51400000FF01D5
:1005E00003E080FF000008086B6B083612362436E3
:1005F000060F090F06000018180000001010003048
:1006000040FF0101001F01011E00191D1712003CCF
:100610003C3C3C00000000000601150126013701AA
:100620004A015D01720188019F01B801D201EE010A
:100630000B022A024B026E029302BA02E40210037A
:100640003F037003A403DC03170455049704DD047F
:1006500027057505C80520067D06E0064907B80789
:100660002D08A9082D09B9094D0AEA0A900B400C7A
:10067000FA0CC00D910E6F0F5A1053115B127213CA
:100680009A14D41520178018F519801B231DDE1E1F
:10069000B420A622B524E4263429A72B402E00310D
:1006A000EA330037453ABC3D68414C456B49C84D7B
:1006B00068524F57805C00621011121315161718FC
:1006C0001A1C1D1F21232527292C2E3134373A3E91
:1006D0004145494E52575C62686E757B838B939C93
:1006E000A5AFB9C4D0DCE9F70000000200090F0093
:1006F00000030401000C00000000000000000000E6
:100700000000000000000000000000240027002A74
:10071000002D003000AED580A83FD300408D1420BE
:1007200002A1C8DA1281CFD9F1DB402EA4A6AF1402
:10073000021302120215020702080204010C01064C
:1007400001000000000000000000000000000000A8
:100750000000000000000000000000000000000099
:100760000000000000000001000100010001000085
:100770000000FFFFFFFFE7F903C0E7F9FFFFFFFFFE
:10078000FFFFFFFF01800180018101810180018065
:10079000FFFFFFFF0182018201824183418041808E
:1007A000FFFFFFFFFFFCFFFCFFE0FFFEFFFEFFFE81
:1007B000FFFFFFFFFFFFFFFCFFE07FFE01FC7FFC70
:1007C000FFFFFFFF7FF47FF441F601F001F401F633
:1007D000FFFFFFFF87EDB7ED0180B7EDB7ED0180BB
:1007E000FFFFFFFFFFFF9FFF1FC01FC6FFFC01FCB5
:1007F000FFFFFFFFFFF91FF91FF01FF9FFF9FFF9D6
:10080000FFFFFFFF098F0989098109890188018F8D
:10081000FFFFFFFFFFFF3FFE3FF83FF9FFF9FFFF3C
:10082000FFFFFFFF19981998818181811998199804
:10083000FFFFFFFFFFF08FF00FF0CFFFCFFFCFFFE5
:10084000FFFFFFFFF183F193FB93018011921F9251
:10085000FFFFFFFF638C238CA381B7B107B06786CE
:10086000FFFFFFFF07E057F507E057F507E007E058
:10087000FFFFFFFFFFFF1F891F80E3C903C8E3FFDE
:10088000FFFFFFFF11FC51F811F05BE103C3F3C759
:10089000FFFFFFFF01C0F1E099B10D9B0180199BA3
:1008A000FFFFFFFF91FF81F111F09FF9FF81FF9999
:1008B000FFFF0180C199019589950995C99901802A
:1008C000018000000E7748444C66484448470000C9
:1008D0000000FFFF418841884188418801800180F4
:1008E000FFFFFFFFF1E3F1E3F180FB8001EC01E6A4
:1008F000FFFFFFFFF1F90188F981FFF9FFF9FFFF21
:10090000FFFFFFFF49924992419209924D90618009
:10091000FFFFFFFF01FC85CD158CD5801D8CFDFFF1
:10092000FFFFFFFF0181018D3B81B18931F831FF6C
:10093000FFFF0184026564015401830254530243A2
:10094000440163017302727304627353640274534B
:100950000262640432223424028364023334036268
:100960005253025453036522940444626442033494
:100970002373035482720295520225530236640196
:1009800035058262738464043244526403625364A2
:1009900004B2B3B4530233340332235301A402A488
:1009A000A501A401B302A3A402B3B4017601D50248
:1009B000D4B4044365E66102E6D602A2A404E1D100
:1009C000E2D202829302E1D103B2A2B302E1D303E5
:1009D000D1D2D304C2C4A2A403D4C4B403E1E2E3D9
:1009E00002E1E202D2C302C1C2019105C2A2B3C4B4
:1009F000A404E1E2D1D203D1E2C204E1E2D1D20205
:100A0000C3C403E6D6C64443445344333333436339
:100A10007343235313A6C161335352252651253303
:100A2000D46383E643AA01800180018055FFC3A5FA
:100A30009999A5C3FF04080201104080401020408E
:100A400080408008020401804020100201108010C4
:100A50002040402000000000250028002B002E0030
:100A60003100040404040403040502020202040326
:100A70000202020206060606060604040202020438
:100A8000040301080B000202020100090400000136
:100A900002020000052400100105240101010424C4
:100AA0000206052406000107058103100040090421
:100AB0000100020A000000070502024000000705CD
:100AC00083024000000403090441726475696E6F7B
:100AD000204C4C430041726475696E6F204C656F09
:100AE0006E6172646F001201000200000040412339
:100AF000368000010102030112010002EF020140F1
:100B0000412336800001010203013F1A11241FBE58
:100B1000CFEFDAE0DEBFCDBF26E0A0E0B2E001C05B
:100B20001D92A33EB207E1F712E0A0E0B1E0ECE8CD
:100B3000FBE302C005900D92A030B107D9F715E094
:100B4000C6E8D5E004C02197FE010E94721AC5389C
:100B5000D107C9F70E941D160C94C41D0C94000007
:100B60003FB7F8948091110290911202A091130264
:100B7000B091140226B5A89B05C02F3F19F001962D
:100B8000A11DB11D3FBFBA2FA92F982F8827820F13
:100B9000911DA11DB11DBC01CD0142E0660F771F63
:100BA000881F991F4A95D1F70895362F90E0FC01D0
:100BB000E851F94F4491FC01EB5CF54F2491FC01A5
:100BC000EE59F54F8491882309F451C04423E1F193
:100BD00050E0FA013197EF30F105B0F5EA5AFF4FD6
:100BE0000C94721A909180009F7707C090918000BA
:100BF0009F7D03C090918000977F9093800024C0D8
:100C000094B59F7702C094B59F7D94BD1DC090910F
:100C100090009F7707C0909190009F7D03C09091B6
:100C20009000977F909390000FC09091C0009F77A5
:100C300003C09091C0009F7D9093C00005C090912B
:100C4000C200977F9093C200E82FF0E0EE0FFF1FE5
:100C5000EC5AF54FA591B4918FB7F894EC913111FE
:100C600003C020952E2301C02E2B2C938FBF0895F7
:100C7000CF93DF9390E0FC01EB5CF54F2491FC01F6
:100C8000EE59F54F8491882361F190E0880F991F08
:100C9000FC01E95FF84FC591D491FC01EC5AF54F86
:100CA000A591B491611109C09FB7F89488812095EE
:100CB00082238883EC912E230BC0623061F49FB7AE
:100CC000F8943881822F809583238883EC912E2B92
:100CD0002C939FBF06C08FB7F894E8812E2B2883F2
:100CE0008FBFDF91CF9108951F93CF93DF93182F7C
:100CF000EB0161E00E943806209711F460E004C027
:100D0000CF3FD10539F461E0812FDF91CF911F9161
:100D10000C94D505E12FF0E0E851F94FE4914E2F06
:100D200050E0FA013197EF30F10508F06CC0EB5953
:100D3000FF4F0C94721A84B5806884BDC7BD68C02B
:100D400084B5806284BDC8BD63C080918000806826
:100D500080938000D0938900C093880059C080910F
:100D60008000806280938000D0938B00C0938A00C3
:100D70004FC080918000886080938000D0938D0068
:100D8000C0938C0045C08091900080688093900053
:100D9000D0939900C09398003BC0809190008062EE
:100DA00080939000D0939B00C0939A0031C08091B3
:100DB0009000886080939000D0939D00C0939C0029
:100DC00027C08091C00080688093C0008091C000DF
:100DD0008F7B8093C000C093CF001AC08091C00069
:100DE00080628093C000C093D00012C08091C20086
:100DF00088608093C2008091C2008B7F8093C20084
:100E0000C093D20005C0C038D1050CF07CCF76CF9E
:100E1000DF91CF911F9108958F929F92AF92BF92D1
:100E2000CF92DF92EF92FF926B017C010E94B0059E
:100E30004B015C01C114D104E104F104F1F00E9402
:100E4000B005DC01CB0188199909AA09BB09883EC4
:100E50009340A105B10570F321E0C21AD108E10861
:100E6000F10888EE880E83E0981EA11CB11CC11405
:100E7000D104E104F10419F7DDCFFF90EF90DF908A
:100E8000CF90BF90AF909F908F9008951F920F9238
:100E90000FB60F9211242F933F938F939F93AF938D
:100EA000BF938091600290916102A0916202B09123
:100EB00063023091100223E0230F2D3720F40196B6
:100EC000A11DB11D05C026E8230F0296A11DB11D6D
:100ED000209310028093600290936102A0936202BB
:100EE000B09363028091110290911202A0911302BB
:100EF000B09114020196A11DB11D8093110290932F
:100F00001202A0931302B0931402BF91AF919F916C
:100F10008F913F912F910F900FBE0F901F901895BA
:100F20008FB12CB193B130E02095309520743327E8
:100F3000A90123E0559547952A95E1F7292F30E03F
:100F40002095309520713327359527953595279530
:100F5000242B8095807F822B0895E0911A02F091D6
:100F60001B02908180911902892B8083E0911702E6
:100F7000F0911802908180911602809589238083D8
:100F8000E0911A02F0911B029081809119028095E4
:100F9000892380830895E0911702F09118029081CF
:100FA00080911602892B8083E0911A02F0911B0236
:100FB00090818091190280958923808308958EBD48
:100FC00000000DB407FEFDCF8EB50895CF92DF92DD
:100FD000EF92FF920F931F93CF936C0100E810E004
:100FE000C0E0E12CF12C0E94AD0780E10E94DF07F8
:100FF00082E00E94DF078C2F806B0E94DF070E9437
:10100000CB07F601EE0DFF1D80818EBD97012F5F8E
:101010003F4F7901201731074CF4F601E20FF31F1F
:1010200080810DB407FEFDCF8EBDF1CF0DB407FE5C
:10103000FDCFCF5F00581F4FC830A9F6CF911F9149
:101040000F91FF90EF90DF90CF900895CF92DF92B5
:10105000EF92FF920F931F93CF93E82FF0E0EF579B
:10106000F54FC491E62FF0E0603330F4E854F94FC7
:10107000E4910E2F10E006C0EE0FFF1FE854FA4F68
:10108000059114916801E12CF12C60E074E284EF89
:1010900090E0A70196010E943D1DBA01A9014150AF
:1010A0005109610971094115510581E06807710510
:1010B00080F060E970ED83E090E0A70196010E9466
:1010C0003D1DBA01A901415051096109710983E02F
:1010D00001C081E0C130C9F0C33031F59091910079
:1010E000987F892B809391005093990040939800AA
:1010F00010930F0200930E0281E080930D02809105
:1011000071008260809371000FC090918100987F80
:10111000892B8093810050938900409388008091AF
:101120006F00826080936F00CF911F910F91FF90AD
:10113000EF90DF90CF9008951F920F920FB60F920D
:1011400011242F933F938F939F93AF93BF93EF936C
:10115000FF9380910602882309F44DC0809102021A
:1011600090910302A0910402B0910502892B8A2B71
:101170008B2B51F180915C02E0915D02F0915E0257
:101180009081892780838091020290910302A0912F
:101190000402B0910502181619061A061B06A4F5DA
:1011A0008091020290910302A0910402B091050285
:1011B0000197A109B1098093020290930302A093C1
:1011C0000402B093050220C01092060280916F00C5
:1011D0008D7F80936F0090915C02E0915D02F091B1
:1011E0005E028081282F30E0892F90E080959095D5
:1011F0008223932308C080915C02E0915D02F0910C
:101200005E02908189278083FF91EF91BF91AF911A
:101210009F918F913F912F910F900FBE0F901F9034
:101220001895E82FF0E0EF57F54FE491E13019F011
:10123000E33069F0089580916F008D7F80936F0097
:1012400090915C02E0915D02F0915E0208C0109204
:101250000D0290915902E0915A02F0915B02808157
:10126000282F30E0892F90E080959095822393235A
:10127000808308951F920F920FB60F9211242F931F
:101280003F934F935F936F937F938F939F93AF930E
:10129000BF93EF93FF9380910D02882349F08091D3
:1012A0005902E0915A02F0915B0290818927808374
:1012B00080911502882309F493C0809109029091CE
:1012C0000A02A0910B02B0910C02892B8A2B8B2B66
:1012D00009F486C08091090290910A02A0910B0244
:1012E000B0910C020197A109B10980930902909372
:1012F0000A02A0930B02B0930C02892B8A2B8B2B32
:1013000009F06EC0E0910702F0910802BF016F5F23
:101310007F4F70930802609307024491942F907F4F
:10132000842F8F70903819F40E941109EBCF9039F7
:1013300081F43296F0930802E0930702FB01649176
:1013400090915F028917F0F667FDDCCF0E942608B6
:10135000D9CF903E29F41092080210920702D2CF02
:10136000903F19F4109215023BC097FDCBCF3296F7
:10137000F0930802E0930702FB01249130E0342B44
:10138000A0910E02B0910F020E947E1D6C507E4F04
:101390008F4F9F4F28EE33E040E050E00E945C1DED
:1013A0002093090230930A0240930B0250930C02DF
:1013B0008091090290910A02A0910B02B0910C0257
:1013C000892B8A2B8B2B61F481E090E0A0E0B0E0C8
:1013D0008093090290930A02A0930B02B0930C022F
:1013E000FF91EF91BF91AF919F918F917F916F91FD
:1013F0005F914F913F912F910F900FBE0F901F90D3
:1014000018956038710518F54034510500F5A42F82
:10141000A695A695A695B0E047705527B695BA2F24
:10142000AA27B795A7956A0F7B1FFC01E60FF71F48
:1014300081E090E001C0880F4A95EAF7222319F075
:101440009489892B03C0809594898923848B08957E
:101450002F923F924F925F926F927F928F929F92C4
:10146000AF92BF92CF92DF92EF92FF920F931F93B2
:10147000CF93DF93CDB7DEB72A970FB6F894DEBFD0
:101480000FBECDBF6A3091F4FC01E85EFB4F408196
:1014900032972081318158E0459F200D311D112464
:1014A00031832083329711821082C1C06D3009F4DC
:1014B000BEC09A878987885E9B4F9C838B83DC01A3
:1014C0002C90E985FA85EA5EFB4F60807180E985A2
:1014D000FA85EC5EFB4FFA83E983008111810038C5
:1014E0001105D4F0AB81BC812C91422F50E0E981F1
:1014F000FA8180819181F6E02F9F800D911D11244A
:10150000A981BA818D939C93E985FA85E75EFB4FAB
:10151000208121115EC08BC0B0E46B16710414F7FA
:10152000C801E5E02E9E800D911D112418161906A4
:10153000CCF6422C512CC301F8E02F9E800D911D5A
:1015400011241816190674F655E0659F90011124B0
:101550003F832E83E12CF12C85E0E816F10441F065
:10156000EE81FF81EE0DFF1DE85EFE4F349001C05D
:10157000312C630138E0932D91709D834801882DB3
:10158000801B8215B0F456018A2D8C19821568F4DF
:101590002D81A501B40189859A8538870E94010AA9
:1015A000AFEFAA1ABA0A3885EFCFBFEF8B1A9B0AA2
:1015B000E6CF36943150C40CD51C3111DCCFEFEF9F
:1015C000EE1AFE0A040D151DF6E0EF16F10421F6E1
:1015D00089CF6AEF64039001659F300D1124205874
:1015E0003F4F281739071CF5A985BA85ED91FC9165
:1015F00011970190F081E02D6AE0CD012A960FB697
:10160000F894DEBF0FBECDBFDF91CF911F910F9138
:10161000FF90EF90DF90CF90BF90AF909F908F9012
:101620007F906F905F904F903F902F9009942A96F3
:101630000FB6F894DEBF0FBECDBFDF91CF911F91E3
:101640000F91FF90EF90DF90CF90BF90AF909F9061
:101650008F907F906F905F904F903F902F90089564
:10166000CF93DA01FB01882341F0249130E02F5F12
:101670003F4F620F731F8150F5CFC4914C2F50E044
:101680006F5F7F4FCD010E941E1D8C2FCF9108955B
:10169000082E000C990B4FE050E0481B590B21E03D
:1016A00030E002C0220F331F4A95E2F7E62FEE0F1B
:1016B000FF0BE15CFD4F4081518124233523232B17
:1016C000A9F424E0880F991F2A95E1F7682B9091DF
:1016D0002E022FE232E0F9018E2F821B891720F4AF
:1016E00041916413F9CF03C08FEF08958EEF0895F1
:1016F0002F923F924F925F926F927F928F929F9222
:10170000AF92BF92CF92DF92EF92FF920F931F930F
:10171000CF93DF930E9403104FE3C42E42E0D42EF8
:101720007601C0E0D0E0AA24A394B12CF701819007
:1017300091907F0100E010E03FE0632E712CC50125
:10174000062C02C0880F991F0A94E2F7882199217C
:10175000892B31F040E151E0BE01C8010E94121016
:10176000F1E06F1A7108085F1F4F0038110539F753
:101770002896C034D105D1F600913F021091400265
:1017800021E4822E22E0922EC7E0D0E0F401A19065
:10179000B1904F011E01FFEF2F1A3F0A612C712CEF
:1017A0009FE0E92EF12C25014026512681E090E0B2
:1017B0000E2C02C0880F991F0A94E2F79C01242185
:1017C0003521232B61F08023912321E048E0892BF0
:1017D00011F0BE0101C0B101C3010E94E01081E01F
:1017E000E81AF108E8E06E0E711CF0E86F1671045B
:1017F000E9F628968501CF33D10541F6C0E0D0E067
:10180000F601A190B1906F0107E010E08EE0E82EA4
:10181000F12CC5010E2C02C0969587950A94E2F72B
:10182000837099278230910529F421E048E0BE01B8
:10183000C80107C0019739F421E048E0BE01C801A2
:1018400001960E94B410F1E0EF1AF108085F1F4FF3
:101850000F371105F1F62896C034D10589F6DF91CE
:10186000CF911F910F91FF90EF90DF90CF90BF909D
:10187000AF909F908F907F906F905F904F903F9030
:101880002F9008956F927F928F929F92AF92BF9206
:10189000CF92DF92EF92FF920F931F93CF93DF933C
:1018A000CFE3CC2EC2E0DC2E00E010E0AA24A3940B
:1018B000B12CF601819091906F01C0E0D0E0BFE0C3
:1018C000EB2EF12CC5010E2C02C0880F991F0A9433
:1018D000E2F7882199219E01285F3F4F3901892B2A
:1018E00041F031E0E31AF108E301C038D10551F7C6
:1018F0000BC0C615D705A9F320E048E0B801CE011A
:101900000E94B4102196F5CF085F1F4F00341105D7
:1019100081F6C0E080912E02C817E0F4EC2FF0E0D1
:10192000E15DFD4F8081682F6F7098E0699FB00185
:10193000112490E0F4E095958795FA95E1F74DE252
:101940005AE0A3E0880F991FAA95E1F70E941210B0
:10195000CF5FE0CFC0E080912E02C817E0F4EC2FFB
:10196000F0E0E25EFD4F8081682F6F70E8E06E9FCF
:10197000B001112490E054E0959587955A95E1F7D0
:1019800045E25AE0E3E0880F991FEA95E1F70E94EB
:101990001210CF5FE0CF60911D02862F90E044E0EF
:1019A000959587954A95E1F76F70E0911C02E1509B
:1019B000E43040F4F0E0EE0FFF1FE05FFE4F4081A7
:1019C000518102C048E051E0F8E06F9FB00111245E
:1019D00023E0880F991F2A95E1F7DF91CF911F919E
:1019E0000F91FF90EF90DF90CF90BF90AF909F90BE
:1019F0008F907F906F900C941210EF92FF920F9344
:101A00001F93CF93DF930E94031008E716E08CE149
:101A100090E0F80191838083CAE7D6E019821882AA
:101A20008CE7E82E86E0F82E82E0F701808387E3DA
:101A300091E00E941D0F81E0F70180838EE090E02D
:101A4000F8019183808384E290E0998388838FE317
:101A500091E00E941D0F68E270E085E590E00E9431
:101A60002F0F8EE190E0F8019183808388E190E070
:101A7000998388838AE491E00E941D0F6CE170E0F5
:101A800089E690E00E942F0F87E090E0F8019183B3
:101A9000808388E390E09983888386E591E00E94C3
:101AA0001D0F88E792E0DF91CF911F910F91FF907A
:101AB000EF900C94E60720910102282329F49091DD
:101AC0000002982381E009F480E0089580910002EB
:101AD000809301020E9490078093000208950F9363
:101AE0001F93CF93DF93EC010CE010E020E04EE178
:101AF00066E170E0C8010E94B4100F5F1F4F043709
:101B00001105A1F78EE10E94661181E080937C06A9
:101B1000FE0101900020E9F73197EC1BFD0B26E058
:101B20002E9FC0012F9F900D112420E830E0281B2C
:101B3000390B3695279530937906209378068AE1FC
:101B400090E090937B0680937A06CE010E941D0F51
:101B50008DE190E09093790680937806C4E2D0E01E
:101B6000D0937B06C0937A068AE691E00E941D0F0F
:101B700084E590E09093790680937806D0937B0675
:101B8000C0937A068EE691E00E941D0F20E041E1AD
:101B90006DE270E08DE190E00E94E01021E04BE00A
:101BA0006DE270E084E590E00E94E01088E792E04A
:101BB0000E94E607C0E0D1E00E940C118823E1F307
:101BC0000E94660D88E00E945B0D811105C084E0D3
:101BD0000E945B0D882359F0C11130C00E94780B20
:101BE0000E94420C88E792E00E94E60727C080E24C
:101BF0000E945B0D882321F0C11102C0C1E008C022
:101C000080E40E945B0D8823B9F2CC23A9F2C0E0E6
:101C10002C2F41E16DE270E08DE190E00E94E01038
:101C20002C2F2D274BE06DE270E084E590E00E94C0
:101C3000E01088E792E00E94E607BECF8C2FDF918C
:101C4000CF911F910F9108950F931F93CF93DF931F
:101C50008C01C0E0D0E0C017D1077CF46FE070E0E9
:101C600080E090E00E940C070E94660D88E00E94D0
:101C70005B0D811103C02196EECF80E0DF91CF9103
:101C80001F910F910895CF92DF92EF92FF920F93E1
:101C90001F93CF93DF936C017A018B01C0E0D0E0FA
:101CA000CE15DF0589F0D8016D918D01D601ED913A
:101CB000FC910190F081E02DC6010995892B11F46A
:101CC0007E0102C02196ECCFC701DF91CF911F9119
:101CD0000F91FF90EF90DF90CF9008950E94781AB7
:101CE000CF93DF931F92CDB7DEB76983DC01ED910F
:101CF000FC910280F381E02D41E050E0BE016F5F76
:101D00007F4F09950F90DF91CF91089583E08093E5
:101D1000E9008091F200882319F08AE38093E800BB
:101D200008958F929F92AF92BF92CF92DF92EF92DF
:101D3000FF920F931F93CF93DF935C016B018A0196
:101D400080910701882309F45EC08091580288239E
:101D500009F459C08091560280FF05C08091E000CF
:101D600082608093E000E8018AEFF82E93E0E92E8C
:101D70002FE3822E3AE3932E209709F43DC08FB7CC
:101D8000F894E092E9009091E80095FF06C09091E8
:101D9000F200282D291B922F01C090E08FBF9111D6
:101DA0000AC0FA94FF2079F161E070E080E090E0F1
:101DB0000E940C07E1CF292F30E0C217D3070CF4A3
:101DC0009C2F8FB7F894E092E9002091E80025FF5E
:101DD00011C0292F30E0C21BD30BF601915020F027
:101DE00041914093F100FACFC20ED31E9091E800CA
:101DF00095FF13C08FBFC0CF5D9884E680935502D6
:101E00001016110644F081E090E0F501938382837F
:101E100080E090E005C0C80103C09092E800EACFDE
:101E2000DF91CF911F910F91FF90EF90DF90CF90B6
:101E3000BF90AF909F908F900895009769F0FC013C
:101E400001900020E9F73197AF01481B590BBC0105
:101E500084E692E00C94430E80E090E008952F9287
:101E60003F924F925F926F927F928F929F92AF922A
:101E7000BF92CF92DF92EF92FF920F931F93CF9377
:101E8000DF9300D000D0CDB7DEB78C017C836B83AD
:101E9000AB014A5F5F4F26E0BC0184E692E00E94FE
:101EA000010A4B815C814650510926E0B80184E665
:101EB00092E00E94010AB8016A5F7F4F26E04B81E1
:101EC0005C8184E692E00E94010AB80166507109C3
:101ED00026E04B815C8184E692E00E94010A81E069
:101EE00090E09A838983C12CD12C86E0E82EF12CD6
:101EF00094EF292E33243A942BEFA22EBB24BA94CC
:101F0000FFEFCF1ADF0A89819A8102969A8389832B
:101F1000A80EB91E38016C0C7D1C26E08B809C80BD
:101F20008E0C9F1CA401B30184E692E00E94010A7A
:101F300028014C185D0826E0A401B20184E692E075
:101F40000E94010A26E08B809C808E189F08A401C5
:101F5000B30184E692E00E94010A26E0A401B201E6
:101F600084E692E00E94010A8B809C808C0C9D1C70
:101F700026E0A40138016E0C7F1CB30184E692E0D8
:101F80000E94010A26E0A40128014E185F08B20150
:101F900084E692E00E94010A8B809C808C189D0848
:101FA00026E0A401B30184E692E00E94010A26E043
:101FB000A401B20184E692E00E94010ACE14DF047B
:101FC0005CF4B7FC9DCF91E0E91AF108E2E02E0E37
:101FD000311CA20CB31C94CF0F900F900F900F9058
:101FE000DF91CF911F910F91FF90EF90DF90CF90F5
:101FF000BF90AF909F908F907F906F905F904F9029
:102000003F902F90089520E088E792E0B22FB11121
:10201000BFEFFC010024B193B193B193B19303944A
:10202000D1F708956F927F929F92AF92BF92CF9215
:10203000DF92EF92FF920F931F93CF93DF938C0168
:102040009C01285F3F4F2838310508F07FC09B0175
:10205000285F3F4F2834310508F078C0DB0177FF57
:1020600004C0AA27BB27A61BB70BA770BB279B01E1
:1020700077FF02C0295F3F4FD3E035952795DA956A
:10208000E1F777FF0DC02150310968E070E0EB0106
:10209000CA1BDB0BDE012E3FDFEF3D0709F456C004
:1020A000B9017695762F662777956795680F791F22
:1020B000F9013196F695FE2FEE27F795E7958E0FED
:1020C0009F1FFA01AC0148585D4F3A017F0158E06B
:1020D000E50EF11C48E050E05A01AA1ABB0A00388C
:1020E0001105A1F117FF0AC00F5F1F4F3196CFEF07
:1020F0006C1A7C0AEE15FF0591F728C02F3FDFEF21
:102100003D0709F144916301C81AD90AC60ED71ECA
:102110000A2E01C0440F0A94EAF7E6019880492983
:102120004883109709F327303105F1F2449150E0CC
:102130000A2C02C0559547950A94E2F7E301D8802E
:102140004D294883D1CF109789F7CECFDF91CF911A
:102150001F910F91FF90EF90DF90CF90BF90AF90C5
:102160009F907F906F900895DF92EF92FF920F9370
:102170001F93CF93DF937C01D22E8B01040F111D8F
:10218000EB0177FF0EC0C0E0D0E00BC0C417D5074D
:102190007CF42D2DAE01B70184E692E00E94010A85
:1021A0002196A801013411058CF340E450E0EECFF4
:1021B000DF91CF911F910F91FF90EF90DF900895E5
:1021C000DF92EF92FF920F931F93CF93DF937B01E8
:1021D000D22E8C01040F111DEC0197FF0EC0C0E040
:1021E000D0E00BC0C817D9077CF42D2DA701BE0184
:1021F00084E692E00E94010A2196C8010138110587
:102200008CF380E890E0EECFDF91CF911F910F919A
:10221000FF90EF90DF9008952FB7F89480916002BF
:1022200090916102A0916202B09163022FBF209150
:102230007602222391F020916E02382F321B3093C8
:10224000770220916B0230916C022F5F3F4F3093E9
:102250006C0220936B0210927602409172025091B0
:102260007302609174027091750284179507A60736
:10227000B70774F4481B423038F183B7817F83BFBE
:1022800083B7816083BF889583B78E7F83BF1CC06F
:1022900020916D02AC01BD01420F511D611D711DE8
:1022A00040937202509373026093740270937502AC
:1022B00080936E0290936F02A0937002B0937102AC
:1022C00081E080937602089580E00895CF93C82F2F
:1022D00021E048E666E170E08CE090E00E94E010CA
:1022E0006C2F70E06B5E7F4F21E048E68CE090E061
:1022F0000E94E01021E04C2F66E170E08CE090E05D
:102300000E94B41021E04C2F66E170E083E790E07A
:10231000CF910C94B410CF93DF9390915F029230E1
:1023200009F46EC0C82F292F30E0F901EF57F54F9F
:10233000D491F901E657F94F80839F5F90935F0234
:1023400061E00E943806D13019F0D33039F158C01D
:1023500010928000109281008091810088608093AB
:102360008100809181008160809381008C2F90E0BA
:10237000FC01EE59F54FE491F0E0EE0FFF1FEC5A2F
:10238000F54F2591349130935E0220935D02FC015C
:10239000EB5CF54F849180935C0232C01092900008
:1023A00010929100809191008860809391008091BB
:1023B00091008160809391008C2F90E0FC01EE5998
:1023C000F54FE491F0E0EE0FFF1FEC5AF54F259129
:1023D000349130935B0220935A02FC01EB5CF54F81
:1023E00084918093590280915F02882321F06CE3ED
:1023F00080E00E94260880E0DF91CF910C941109C3
:10240000DF91CF910895FC0180915802811103C0A2
:102410008FEF9FEF08959FB7F89482E08093E900D3
:102420002091F20030E01216130614F421E030E09F
:102430002115310559F0289884E680935702809140
:10244000F10080838091F200882319F09FBFC901B9
:1024500008958BE68093E800F9CF80918206811180
:102460000DC082E080937E0684E080937F06109208
:1024700081061092800681E0809382068EE796E0C6
:102480000895FC018485958597FD0BC09FB7F8944E
:1024900082E08093E9008091F2009FBF90E0019676
:1024A00008959FB7F89482E08093E9008091F2004C
:1024B0009FBF90E008954091E1065091E20620917F
:1024C000DF063091E00642175307B4F49091E8001C
:1024D0009570E1F39091E80092FD19C08093F100AE
:1024E0008091E1069091E20601968F739927892BDE
:1024F00019F48EEF8093E8008091E1069091E20656
:1025000001969093E2068093E10681E0089580E0D1
:102510000895CF92DF92EF92FF920F931F93CF9384
:10252000DF931F92CDB7DEB7182F062FE42E862F2C
:10253000880F8E5F99830E945B1283E00E945B127A
:10254000F12EC12E9981D92E8C2D8F19801798F4D8
:10255000F601E7FE02C0849101C080810E945B12F7
:10256000182F80E00E945B128123FFEFCF1ADF0A51
:102570008111EACF01C081E00F90DF91CF911F91CF
:102580000F91FF90EF90DF90CF900895DF92EF9240
:10259000FF920F931F93CF93DF93D82E8A017B0175
:1025A000E40EF51EEB01CE15DF0571F0D7FE03C07A
:1025B000FE01849101C088810E945B1221968111E5
:1025C000F2CF8FEF9FEF01C0C801DF91CF911F9134
:1025D0000F91FF90EF90DF900895615030F02091BF
:1025E000F100FC0120830196F8CF289884E68093BF
:1025F00057020895CF93DF931F92CDB7DEB7FC014A
:102600008485958597FD05C02FEF3FEF358724879B
:102610000BC0CE0101960E940312019719F4898123
:1026200090E002C08FEF9FEF0F90DF91CF91089560
:102630000F931F93CF93DF931F92CDB7DEB78C011B
:10264000FC018485958597FF0EC0CE0101960E94FE
:102650000312019719F4298130E002C02FEF3FEFF8
:10266000F80135872487F801848595850F90DF91DF
:10267000CF911F910F9108950F931F93CF93DF93E5
:102680001F92CDB7DEB782E0898342E450E063E871
:102690007AE080E80E94C6120E942D12DC01129698
:1026A0000D911C9113970115110569F0D801ED9159
:1026B000FC910280F381E02DBE016F5F7F4FC80166
:1026C000099597FF07C089810F90DF91CF911F91E6
:1026D0000F910895F80100851185E5CF1F920F92A3
:1026E0000FB60F9211248F939F938091E1009091E8
:1026F000E100937F9093E10083FF0FC01092E90007
:1027000091E09093EB001092EC0092E39093ED0037
:102710001092580298E09093F00082FF20C093E05E
:102720009093E9009091F200992319F09AE3909325
:10273000E80090915502992339F0909155029150FB
:1027400090935502992389F190915702992339F07A
:1027500090915702915090935702992341F184FF31
:1027600010C08091E2008E7E81608093E2008091B3
:10277000E1008F7E8093E100809156028E7E806121
:1027800011C080FF16C08091E2008E7E8061809330
:10279000E2008091E1008E7E8093E10080915602FC
:1027A0008E7E81608093560204C05D9ACDCF289AB8
:1027B000D6CF9F918F910F900FBE0F901F901895BD
:1027C0001F920F920FB60F921124CF92DF92EF92C9
:1027D000FF920F931F932F933F934F935F936F93AA
:1027E0007F938F939F93AF93BF93EF93FF93CF9379
:1027F000DF93CDB7DEB76C97DEBFCDBF1092E90097
:102800008091E80083FFFAC168E0CE0145960E94FE
:10281000ED1282EF8093E8008D8987FF05C09091CB
:10282000E80090FFFCCF03C09EEF9093E800982F44
:10283000907609F0C6C09E892F89188D91110CC021
:10284000803829F48091DD068093F10002C0109257
:10285000F1001092F10047C1422F50E0512B91300E
:1028600051F4811140C14130510509F03CC18091C2
:10287000DD068D7F0BC0933061F4811134C141308E
:10288000510509F030C18091DD0682608093DD063C
:102890002AC1953041F48091E80080FFFCCF206888
:1028A0002093E30020C1963009F05FC0EB8CFC8CD4
:1028B0001092E9001092E2061092E106123091F5B2
:1028C0001092E0061092DF060E943C1399E0BE01D0
:1028D0006F5F7F4FDB01E92F1D92EA95E9F799833E
:1028E0001A8391E09E8390EA98879AEF99872091C6
:1028F000E1063091E206275F3F4F3C832B838D83B7
:102900001092E9001092E2061092E106F092E006C1
:10291000E092DF0649E050E080E00E94C6120E948B
:102920003C13E1C0F092E006E092DF060E942D1217
:10293000DC011296ED90FC901397E114F10409F478
:10294000C0C0D701ED91FC910480F581E02DBE015E
:102950006B5E7F4FC7010995009719F00CF0C3C05B
:10296000C6C0F701E084F184E8CF973009F4BFC016
:10297000983021F481E08093F100B5C0993009F0DE
:10298000B2C0837009F0B3C0E1E3F1E081E021E07F
:1029900036E39081992361F08093E9002093EB0066
:1029A00091919093EC003093ED008F5F873089F721
:1029B0008EE78093EA001092EA008F898093580294
:1029C00092C08B8D9C8D1092E9001092E2061092BD
:1029D000E1069093E0068093DF06898D811156C051
:1029E0008E899D89913A59F4813209F080C047E07F
:1029F00050E060E071E080E00E94C61274C0913245
:102A000009F075C0833289F4888D90E0982F88276B
:102A10002F89822BA0E0B0E08093080190930901F8
:102A2000A0930A01B0930B015EC0803269F48091DB
:102A3000E80082FFFCCF67E080E091E00E94ED12A9
:102A40008BEF8093E80006C0823209F04CC08F897A
:102A5000809307018091DC06882319F0EEEFFAE0FD
:102A600002C0E0E0F8E08091000190910101A091A6
:102A70000201B0910301803B9440A105B10509F02A
:102A800088C08091070180FFA0C083C00E942D12E2
:102A9000DC0112960D911C9113970115110539F166
:102AA000D801ED91FC910190F081E02DBE016B5EAB
:102AB0007F4FC8010995811116C0F8010085118565
:102AC000ECCF1130C1F0133091F48F89882309F4D1
:102AD00055C08230E9F440E860E185ED9AE00E945B
:102AE0008912882321F08EEF8093E80087C081E26D
:102AF0008093EB0083C08B8D9C8D089711F410930D
:102B0000DE068091DE06811136C066EE7AE038C0BE
:102B1000813029F440E86BE089EC9AE0E0CF833023
:102B200031F70E942D12DC011296ED90FC90139764
:102B30008E010F5F1F4F6801E114F10479F0D70196
:102B4000ED91FC910680F781E02DB801C701099550
:102B5000080F111DF701E084F184EECFD8011C921B
:102B6000F60101900020E9F73197BF016C197D094A
:102B700040E0C601B4CF68EF7AE002C065EC7AE0CD
:102B80006115710509F4B3CFFB01449150E080E871
:102B900033CF0FB6F894A895809160008861809338
:102BA0006000109260000FBEA895EE3F2AE0F20789
:102BB00039F08091FE0A9091FF0A9183808393CF30
:102BC0001092FF0A1092FE0A8ECFEE3F8AE0F807BD
:102BD00031F0808191819093FF0A8093FE0A87E70C
:102BE00097E7918380839BE088E10FB6F894A895DE
:102BF000809360000FBE9093600075CF6C960FB607
:102C0000F894DEBF0FBECDBFDF91CF91FF91EF9162
:102C1000BF91AF919F918F917F916F915F914F91F4
:102C20003F912F911F910F91FF90EF90DF90CF90E8
:102C30000F900FBE0F901F901895CF93DF93CDB7D5
:102C4000DEB72E970FB6F894DEBF0FBECDBF7894D7
:102C500084B5826084BD84B5816084BD85B58260A1
:102C600085BD85B5816085BD80916E008160809352
:102C70006E001092810080918100826080938100BB
:102C800080918100816080938100809180008160CB
:102C90008093800080919100826080939100809168
:102CA0009100816080939100809190008160809379
:102CB00090008091C10084608093C1008091C10028
:102CC00082608093C1008091C10081608093C100C7
:102CD0008091C30081608093C3008091C0008260B6
:102CE0008093C0008091C20081608093C200809177
:102CF0007A00846080937A0080917A008260809369
:102D00007A0080917A00816080937A0080917A00C5
:102D1000806880937A00109258021092DD0610921B
:102D200056028091D70081608093D70080EA80931B
:102D3000D80089B5806189BD89B5826089BD09B433
:102D400000FEFDCF61E070E080E090E00E940C07A3
:102D50008091D8008F7C80618093D8008091E000C2
:102D6000807F8093E0008091E1008E7E8093E1007F
:102D70008DE08093E200559A209AEEEFFFE785916F
:102D800094918B3F9C4D19F481E08093DC0680E1A7
:102D900090E00E94271D81508F3118F0109254024C
:102DA00005C08093530282E0809354021FB7F894C9
:102DB00080915002811127C0E3E7FAE08491E6E4B4
:102DC000FAE09491E82FF0E0EE0FFF1FE95FF84F73
:102DD000A591B491EC91E92321F461E081E10E9495
:102DE000D50561E081E10E9438068CB580618CBD1B
:102DF0008CB580648CBD61E08FE00E94380661E094
:102E000080E10E943806809150028F5F80935002CB
:102E10001FBF0FE217E0F80184910E5F1F4F31963C
:102E20006491882319F00E943806F5CF61E086E0AE
:102E30000E94D50561E070E080E090E00E940C0700
:102E400060E086E00E94D5056AE070E080E090E0F6
:102E50000E940C0761E086E00E94D505EEE6FAE0EC
:102E6000E491F0E0EE0FFF1FEC5AF54F859194913D
:102E700090931B0280931A02E1E4FAE0E491E0935C
:102E80001902E6E6FAE0E491F0E0EE0FFF1FEC5ADB
:102E9000F54F859194919093180280931702E9E37E
:102EA000FAE0E491E09316028CB58C7F8CBD8DB571
:102EB00081608DBD0E94AD0705E117E0F7E00F329C
:102EC0001F0739F0F80184910E94DF070F5F1F4F41
:102ED000F5CF0E94CB0780916400816080936400ED
:102EE00080916400826080936400809164008068B7
:102EF000809364008091640080648093640080917A
:102F000065008160809365000E94900787FF22C062
:102F10000E94AD0780E10E94DF0782E00E94DF0788
:102F20000E94CB0700E014E080E00E94DF07015020
:102F30001109D1F760E070E089E00E94740660E05A
:102F400070E08AE00E94740660E070E08BE00E940E
:102F50007406FFCF85E00E948B1183E00E948B11E5
:102F60001092150282E090E00E94271D882369F0EC
:102F700080916400877F8093640080916500877FE3
:102F80008093650081E080934F028CE380936A0216
:102F900080E180936D020E94031088E792E00E9416
:102FA000E6076AEC462E61E0562E8E010F5F1F4F3A
:102FB00074E0C72ED12CE0E26E2E712CFAE0EF2ED9
:102FC000F12C52E3252E312C0E940C11882309F498
:102FD0004EC280915402823009F488C040F48823A4
:102FE00081F0813009F043C2109253027FC08330D8
:102FF00009F4FBC0843009F03AC29CE0A92EB12C40
:10300000D1C10E94FD0C3FE0832E912C49E1A42EFA
:10301000B12C0E940C118823E1F30E94660D88E018
:103020000E945B0D882311F081E0EEC084E00E94D5
:103030005B0D882371F30E940310109279061092A1
:10304000780610927B0610927A0681E791E00E9442
:103050001D0FF0927906E092780690927B0680929E
:103060007A068EE791E00E941D0F4DE25AE06FE074
:1030700070E083E690E00E941210F0927906E092F0
:103080007806B0927B06A0927A068DE891E00E94C5
:103090001D0F45E25AE069E170E085E790E00E948B
:1030A0001210109279061092780628E230E03093E0
:1030B0007B0620937A068FE991E00E941D0F109203
:1030C00079061092780630927B0620927A0685EB7C
:1030D00091E00E941D0F88E792E00E94E60788EECB
:1030E00093E00E94240E0E94FD0C93CF6091530246
:1030F0006F5F80E190E00E942F1D6091530230E1EC
:10310000639FB00111246E5B784F40E150E08FE384
:1031100092E00E941E1D4FE252E062E379E080914E
:1031200053020E94300B80932E024EE152E06CE974
:1031300079E0809153020E94300BA0905302B12C91
:10314000F501EA5FF54FE491E0931D0210921C0235
:103150000E94780B0E94420C4FEFA41AB40ABF924F
:10316000AF925F924F921F930F930E947D1A0F9020
:103170000F900F900F900F900F902CE0A22EB12C7B
:1031800020E044E166E170E0C5010E94B4108FEFD9
:10319000A81AB80A94E7A916B10491F784E10E942D
:1031A000661180E190E0909379068093780688E13B
:1031B00090E090937B0680937A0682E080937C0671
:1031C000C8010E941D0F88E792E00E94E60784E68E
:1031D00090E00E94240E0E94780B0E94420C88E727
:1031E00092E00E94E60783E00FC00E94660D84E033
:1031F0000E945B0D882359F085ED91E00E946F0DD0
:10320000882309F434C182E08093540230C188E0FD
:103210000E945B0D882369F082EE91E00E946F0DA1
:10322000882309F424C160E080E190E00E942F1D12
:103230000EC180E20E945B0D882349F01092520279
:103240001092510231E0912CAA24AA943BC080E450
:103250000E945B0D882349F0109252021092510295
:1032600032E0912CAA24A3942DC080E80E945B0D2B
:10327000882341F0109252021092510233E09924B7
:103280009A940CC080E10E945B0D882349F0109253
:1032900052021092510234E099249394A12C12C04E
:1032A00080915102909152028837910508F0DFC059
:1032B000019690935202809351028837910509F04C
:1032C000D6C028C020911D02822F82958F70B82E03
:1032D000BA0CEFE0EB1508F4CAC02F70290D2F3F90
:1032E00009F4C5C028300CF0C2C0622F8B2D2D8789
:1032F0003E870E94480B982F2D853E858E3F09F40E
:10330000B6C08F3F51F4F0E1BF9EC0011124822B63
:1033100080931D0210921C023EC030931C028B2D24
:103320008A0D8031C0F5622F690D6830A0F59D8748
:103330000E94480B9D858F3F71F5E92FF0E0E15D1C
:10334000FD4F8081282F2F70920E282F22952F70ED
:10335000922F9A0D40E19402900111242929208393
:1033600080931D0240912E028FE292E0FC012EE13B
:1033700032E05E2F581B541758F46191AEE1B2E071
:103380005A2F521B541738F45D916513F9CFF1CFC2
:1033900084E0809354020E94420C88E792E00E94ED
:1033A000E60765C020E044E166E170E0C5010E94E7
:1033B000B4108FEFA81AB80A94E7A916B10491F7D0
:1033C00084E10E94661180E190E0909379068093F9
:1033D000780688E190E090937B0680937A0682E0FD
:1033E00080937C068CEE91E00E941D0F88E792E0AE
:1033F0000E94E60784E690E00E94240E809153022A
:103400008F5F809353028F3108F4FDCE60E080E13E
:1034100090E00E942F1D82E0B82E0E940310D092EF
:103420007906C092780670927B0660927A06B09216
:103430007C0685EF91E00E941D0F88E792E00E94D4
:10344000E60789E190E00E94240E882319F010928B
:1034500054020DC00E94031088E792E00E94E60724
:103460008FE090E00E94240E8823B9F2F0CF80E034
:1034700090E0892B09F4A8CD0E940000A2CDECE8D1
:10348000F6E01382128288EE93E0A0E0B0E084833D
:103490009583A683B7838CE191E0918380838FEF3E
:1034A0009FEF95878487E4E6F2E0138212828CE234
:1034B00091E0918380838CE3868380E1818710860D
:1034C000178216861786108A118A128A1092790638
:1034D0001092780610927B0610927A0681E0809313
:1034E0007C060895EE0FFF1F0590F491E02D0994DE
:1034F00081E090E0F8940C94C41DAEE0B0E0E3E805
:10350000FAE10C949B1D0D891E8986E08C831A8339
:1035100009838FEF9FE79E838D83AE01475E5F4FE8
:103520006F89788DCE0101960E94A01A2F8138856F
:10353000F801E20FF31F10822E96E4E00C94B71D01
:10354000ACE0B0E0E6EAFAE10C948D1D7C016B0181
:103550008A01FC0117821682838181FFBDC1CE01E1
:1035600001964C01F7019381F60193FD859193FF3C
:1035700081916F01882309F4ABC1853239F493FD41
:10358000859193FF81916F01853229F4B70190E015
:103590000E94881CE7CF512C312C20E02032A0F46F
:1035A0008B3269F030F4803259F0833269F4206153
:1035B0002CC08D3239F0803339F4216026C022606E
:1035C000246023C0286021C027FD27C030ED380FBC
:1035D0003A3078F426FF06C0FAE05F9E300D1124E1
:1035E000532E13C08AE0389E300D1124332E2062F2
:1035F0000CC08E3221F426FD6BC1206406C08C36CF
:1036000011F4206802C0883641F4F60193FD8591DB
:1036100093FF81916F018111C1CF982F9F7D9554A8
:10362000933028F40C5F1F4FFFE3F9830DC08336FE
:1036300031F0833771F0833509F05BC022C0F801A7
:10364000808189830E5F1F4F44244394512C540181
:1036500015C03801F2E06F0E711CF801A080B18036
:1036600026FF03C0652D70E002C06FEF7FEFC5013C
:103670002C870E947D1C2C0183012C852F77222E04
:1036800017C03801F2E06F0E711CF801A080B18004
:1036900026FF03C0652D70E002C06FEF7FEFC5010C
:1036A0002C870E94721C2C012C852068222E8301FD
:1036B00023FC1BC0832D90E048165906B0F4B701D7
:1036C00080E290E00E94881C3A94F4CFF50127FC38
:1036D000859127FE81915F01B70190E00E94881CCF
:1036E00031103A94F1E04F1A51084114510471F726
:1036F000E5C0843611F0893639F5F80127FF07C097
:1037000060817181828193810C5F1F4F08C060814D
:103710007181072E000C880B990B0E5F1F4F2F76BF
:10372000722E97FF09C090958095709561957F4F97
:103730008F4F9F4F2068722E2AE030E0A4010E9434
:10374000C01CA82EA81844C0853729F42F7EB22E9D
:103750002AE030E025C0F22FF97FBF2E8F36C1F06E
:1037600018F4883579F0B4C0803719F0883721F023
:10377000AFC02F2F2061B22EB4FE0DC08B2D846000
:10378000B82E09C024FF0AC09F2F9660B92E06C02C
:1037900028E030E005C020E130E002C020E132E066
:1037A000F801B7FE07C060817181828193810C5F4F
:1037B0001F4F06C06081718180E090E00E5F1F4F57
:1037C000A4010E94C01CA82EA818FB2DFF777F2EF5
:1037D00076FE0BC0372D3E7FA51450F474FE0AC050
:1037E00072FC08C0372D3E7E05C0BA2C372D03C0B1
:1037F000BA2C01C0B52C34FF0DC0FE01EA0DF11D3D
:103800008081803311F4397E09C032FF06C0B39441
:10381000B39404C0832F867809F0B39433FD13C0AA
:1038200030FF06C05A2CB31418F4530C5B18B32C99
:10383000B31468F4B70180E290E03C870E94881CD2
:10384000B3943C85F5CFB31410F43B1801C0312C70
:1038500034FF12C0B70180E390E03C870E94881CCF
:103860003C8532FF17C031FD03C088E790E002C0FD
:1038700088E590E0B7010CC0832F867859F031FFBE
:1038800002C08BE201C080E237FD8DE2B70190E01B
:103890000E94881CA51438F4B70180E390E00E94D0
:1038A000881C5A94F7CFAA94F401EA0DF11D808187
:1038B000B70190E00E94881CA110F5CF332009F4D5
:1038C00051CEB70180E290E00E94881C3A94F6CF76
:1038D000F7018681978102C08FEF9FEF2C96E2E17E
:1038E0000C94A91DFC010590615070400110D8F79F
:1038F000809590958E0F9F1F0895FC016150704038
:1039000001900110D8F7809590958E0F9F1F089514
:103910000F931F93CF93DF93FB01238121FD03C0FE
:103920008FEF9FEF28C022FF16C046815781248168
:1039300035814217530744F4A081B1819D012F5F67
:103940003F4F318320838C93268137812F5F3F4FF8
:103950003783268310C0EB01092F182F0084F185CF
:10396000E02D0995892BE1F68E819F8101969F8339
:103970008E83812F902FDF91CF911F910F9108950A
:10398000FA01AA27283051F1203181F1E8946F9390
:103990006E7F6E5F7F4F8F4F9F4FAF4FB1E03ED036
:1039A000B4E03CD0670F781F891F9A1FA11D680FD4
:1039B000791F8A1F911DA11D6A0F711D811D911D07
:1039C000A11D20D009F468943F912AE0269F11247C
:1039D0003019305D3193DEF6CF010895462F4770E0
:1039E000405D4193B3E00FD0C9F7F6CF462F4F703B
:1039F000405D4A3318F0495D31FD4052419302D099
:103A0000A9F7EACFB4E0A69597958795779567953E
:103A1000BA95C9F700976105710508959B01AC013E
:103A20000A2E06945795479537952795BA95C9F765
:103A3000620F731F841F951FA01D0895FB01DC01F9
:103A400002C005900D9241505040D8F70895F99961
:103A5000FECF92BD81BDF89A992780B50895262F93
:103A6000F999FECF1FBA92BD81BD20BD0FB6F89463
:103A7000FA9AF99A0FBE01960895052E97FB1EF447
:103A800000940E94541D57FD07D00E945C1D07FC46
:103A900003D04EF40C94541D5095409530952195CB
:103AA0003F4F4F4F5F4F089590958095709561956A
:103AB0007F4F8F4F9F4F0895A1E21A2EAA1BBB1B69
:103AC000FD010DC0AA1FBB1FEE1FFF1FA217B307EA
:103AD000E407F50720F0A21BB30BE40BF50B661F00
:103AE000771F881F991F1A9469F7609570958095C4
:103AF00090959B01AC01BD01CF010895A29FB0013B
:103B0000B39FC001A39F700D811D1124911DB29F11
:103B1000700D811D1124911D08952F923F924F9297
:103B20005F926F927F928F929F92AF92BF92CF924D
:103B3000DF92EF92FF920F931F93CF93DF93CDB756
:103B4000DEB7CA1BDB0B0FB6F894DEBF0FBECDBFCE
:103B500009942A88398848885F846E847D848C849F
:103B60009B84AA84B984C884DF80EE80FD800C81A8
:103B70001B81AA81B981CE0FD11D0FB6F894DEBF8B
:0C3B80000FBECDBFED010895F894FFCFFB
:103B8C0000E1000000000000FFFFFFFF010000004B
:103B9C000001F800F000E80000000000700E910E2B
:103BAC004112FA121813860E00000000280A430E68
:103BBC0000C18081000000424C4F434B5321005305
:103BCC00746172742047616D6500486F7720746F63
:103BDC0020706C6179002843292032303136204224
:103BEC00696C6C20576F6F647900596573004E6F68
:103BFC0000486F7720746F20706C61793A005075B3
:103C0C0073682074686520626F7865730057686507
:103C1C00726520746865792062656C6F6E67004907
:103C2C006620796F752067657420737475636B2CCF
:103C3C0020796F750063616E2072657365742074F2
:103C4C006865206C6576656C2E004C4556454C209D
:103C5C0025303264005265736574206C6576656C32
:103C6C003F00456E642067616D653F0053554343CB
:103C7C00455353210047414D45204F564552210095
:00000001FF
