:100000000C9436110C945E110C945E110C945E11DC
:100010000C945E110C945E110C945E110C945E11A4
:100020000C945E110C945E110C94C3220C94352335
:100030000C945E110C945E110C945E110C945E1184
:100040000C945E110C945E110C945E110C945E1174
:100050000C945E110C945E110C945E110C94FF1BB9
:100060000C945E110C945E110C945E110C945E1154
:100070000C945E110C945E110C945E110C945E1144
:100080000C94491C0C945E110C945E110C945E113E
:100090000C945E110C945E110C945E110C945E1124
:1000A0000C945E110C945E110C945E11381B3B1B7A
:1000B0002A1B2E1B321B5C1B5C1B5C1B3F1B431B48
:1000C000471B4D1B511B5C1B571B080800FF00FF03
:1000D00000FF00FF00FF00FF00FF00FFAAFF00FF7E
:1000E000AAFF00FF00FF00FF00FF00FFAAFF00FFC4
:1000F000AAFF00FFAAFF00FF00FF00FFAAFF00FF0A
:10010000AAFF00FFAAFF00FFAAFF00FF00FF00FFF9
:1001100000FF00FFA8FF00FFAAFF00FF00FF00FF95
:1001200000FF00FFAAFF00FFAAFF00FFA8FF00FFDB
:1001300000FF00FFAAFF00FFAAFF00FFAAFF00FFC9
:1001400000FF00FF00FF00FF00FF00FFAAFF00FF0D
:10015000AAFF00FFA8FF00FFA0FF00FFAAFF00FF0B
:10016000A8FF00FFA8FF00FFA8FF00FFA0FF00FFFF
:10017000A0FF00FF00FF00FF00FF00FFAAFF00FF3D
:10018000AAFF00FFA0FF00FFA0FF00FF80FF00FF0D
:10019000AAFF00FFA8FF00FFAAFF00FF00FF00FF6B
:1001A000AAFF00FF00FF00FF00FF00FFA0FF00FF0D
:1001B000A8FF00FFAAFF00FFAAFF00FFA8FF00FFA3
:1001C000A0FF00FF00FF00FF00FF00FF0000000095
:1001D0000000000000000000000E03080000000006
:1001E0000000070307000000000E0F0000030303D8
:1001F0000000000D00040803090A0A0D0003010DA8
:100200000003030300070002010503030301010CBF
:100210000B0303020A0303030502000202060303A1
:10022000030B0103030303020B03030303030B028A
:10023000030303030303030303030303030303038E
:10024000030303030007000700000000000809087B
:10025000000000000101010100040404040000008A
:10026000070007000000000008080000007E62FF91
:10027000ABFF63FFABFF62FF007E387E7EFFA3FF14
:100280006BFF63FFEAFF30FE1038387E7EFF63FFAE
:10029000ABFFE3FF6AFF30FE1038387E7EFFE3FFDE
:1002A0006BFF23FFEAFF30FE1038103830FEEAFF04
:1002B00063FF6BFFA3FF7EFF387E1038307E6AFF3E
:1002C000E3FFABFF63FF7EFF387E103830FEEAFFAE
:1002D00023FF6BFFE3FF7EFF387E0000007E62FF9E
:1002E000A3FF63FFA3FF62FF007E0000007E42FFCA
:1002F000EBFF63FFEBFF42FF007E0000107E62FF1A
:10030000EBFF63FFEBFF62FF107E010203020405B7
:1003100006051008040400040000000000000000AE
:100320000000000008000814000008002200080077
:100330000014004104020406000000000000000058
:100340000000000006060600060000000000000095
:1003500000000000081611120C0000000000000050
:100360000000000004040400000000000000000081
:100370000000000004000404000000000000000071
:1003800000000000410014000008002200080000E6
:100390001408000806040204000000000000000029
:1003A0000000000006000606060000000000000035
:1003B000000000000C1211160800000000000000F0
:1003C0000000000004040400000000000000000021
:1003D000000000001010000030301010000000007D
:1003E00000000000E0E0C0C080800000C0C080804D
:1003F00000003030606000007878FEFEFFFFCEFE27
:10040000E4FCF2FEFDFFF8FFF7FFCFFFF3FFF7FF7D
:10041000CFFF7E7E3C3C000010100000808000007A
:1004200000000000F0F06060C0C08080E0E0C0C06C
:100430008080101020203C3C7E7EFFFFFFFF66E6A0
:10044000F0F0F9F9FEFEDCFCBBFFF7FFF8FFFDFF63
:10045000FBFFE7FF7E7E000000008080C0C0000040
:10046000000000003030606080800000E0E040402C
:100470000000000010101C1C3F3F7F7FFFFFB3F304
:100480007CFCFCFCBFFFCEFEDDFDB8F8FFFFFEFEEE
:10049000FDFD72723C3C00000000808020200000C6
:1004A000000000009090202000000000E0E000002C
:1004B000000000000000000018183E3EFFFF8EFE06
:1004C000DCFCBCFCCFFFF3FFEEFEDCFC9FFFFFFF7C
:1004D0007E7E38380000000000006060B0B0000090
:1004E00000000000C0C0000000000000C0C000000C
:1004F00000000000000000003030FCFC8FFFDEFE3A
:10050000ECFCF6FEFBFFF9FFF6FEEFFF8FFFFFFFAF
:10051000787800000000000000003030909000006B
:100520008080C0C0F0F000008080E0E0C0C080802B
:1005300000000000000000007C7CFFFFCFFFB3FF45
:10054000FBFFFDFFF8FFFBFFFDFFFBFF77FF83FFD6
:10055000FFFF60600000000000009090C0C000003D
:100560000000808060E080808080C0C080800000CB
:100570000000000000007E7ECFFFB7FFF9FFFBFF09
:10058000FDFFFEFFFCFFFDFFFEFFF9FFFBFFB7FFD6
:10059000C2FE7F7F3C3C000080808080C0C06060E5
:1005A00000008080C0C000008080E0E0C0C080808B
:1005B00000008080000027277B7BFDFDFEFEFCFC09
:1005C000BFFFDFFFEFFFBFFFBEFEFCFCFBFB7C7C41
:1005D000393907073F3F8080C0C040402020D0D03D
:1005E00000000000808000004040F0F020204040EB
:1005F0008080C0C0808003033C3CFEFEFFFF3FFFC5
:10060000DFFFEEFEC7FFDFFFDEFEBDFDFEFEFFFFEC
:100610007E7E3B3B0707808060602020101080803A
:1006200000000000C0C0808000003030C0C080806A
:100630004040E0E0C0C0000018187E7EFFFF9FFF32
:10064000EEFEF7FFE3FFEFFFE7FFEEFE9FFFFFFF8A
:100650007F7F3C3C030300002020101000000000BE
:10066000000000008080000000000000000000008A
:10067000303060600000000000007878FCFCCEFEA6
:10068000F6FEFBFFF1FFFEFEF6FEEFFFFEFEFCFCBA
:10069000787800000000000010100000000000004A
:1006A000000000000000000000000000000000004A
:1006B0001010202000000000000030307878E4FCAA
:1006C000FAFEFCFC7FFFB8F8FAFAF4FCFCFC787840
:1006D00030300000000000000000000000000000BA
:1006E000000000000000000000000000000000000A
:1006F000000010100000000000007878FCFCFCFCFA
:10070000FEFEBEFEC7FFECFCDEFEFCFCFCFCF8F8C7
:1007100070700000000000000000000000000000F9
:1007200000000000808000000000000000000000C9
:1007300000000000000000007A7AFDFDFCFCFEFED7
:10074000FEFE9FFFE3FFF6FECEFEEFFFDEFEFCFCAB
:10075000FCFC7B7B0E0E0000C0C06060000000004F
:1007600000008080C0C00000000000008080000009
:100770000000E0E0C0C0000000007878FEFEFCFC55
:100780009EFEEFFFF1FFFBFFF6FEEFFFF7FFCFFF4F
:10079000FEFE7C7C01010C10C0C0A0E050F090F087
:1007A00050F090F050F010F010F010F020E0C0C0C9
:1007B0007F7FEAFFD5FFAAFFD5FF82FF417F333F4E
:1007C000617FB4FFA4FF7F7FC0C060E090F050F075
:1007D00090F050F010F010F010F010F020E0C0C0D9
:1007E0007F7FD5FFAAFFD5FF82FF417F333F213FA7
:1007F000343F647FB1FFFFFFC0C0A0E050F090F035
:1008000050F010F010F010F010F010F020E0C0C028
:100810007F7FEAFFD5FF82FF417F333F213F343F97
:10082000243F717F83FF7F7FC0C060E090F050F075
:1008300090F050F010F010F010F010F020E0C0C078
:100840007F7FD5FFAAFFD5FF82FF417F333F213F46
:10085000343F647FB1FFFFFFC0C020E010F010F014
:1008600010F050F090F050F090F050F0A0E0C0C0C8
:100870007F7FA4FFB4FF617F333F417F82FFD5FFBD
:10088000AAFFD5FFEAFF7F7FC0C020E010F010F084
:1008900010F010F050F090F050F090F060E0C0C018
:1008A000FFFFB1FF647F343F213F333F417F82FF31
:1008B000D5FFAAFFD5FF7F7FC0C020E010F010F069
:1008C00010F010F010F050F090F050F0A0E0C0C028
:1008D0007F7F83FF717F243F343F213F333F417F40
:1008E00082FFD5FFEAFF7F7FC0C020E010F010F04C
:1008F00010F010F050F090F050F090F060E0C0C0B8
:10090000FFFFB1FF647F343F213F333F417F82FFD0
:10091000D5FFAAFFD5FF7F7F081000000080008070
:10092000008000800080008000003E7F43FFC9FF00
:1009300081FFD1FF81FFCBFF7EFF000000000000A0
:10094000000000000000000000003C7E46FFD2FFD7
:1009500082FFE2FF82FFD6FF7CFE008080C080C065
:1009600080C080C080C080C000801F3F217F647F26
:10097000407F687F407F657F3F7F80C0C0E040E070
:1009800040E040E040E0C0E080C00F1F103F327FF9
:10099000207F347F207F327F1F3F00000080008057
:1009A000008000800080008000007EFFCBFF81FF80
:1009B000D1FF81FFC9FF43FF3E7F00000000000020
:1009C000000000000000000000007CFED6FF82FF57
:1009D000E2FF82FFD2FF46FF3C7E008080C080C0E5
:1009E00080C080C080C080C000803F7F657F407F26
:1009F000687F407F647F217F1F3F80C0C0E040E070
:100A000040E040E040E0C0E080C01F3F327F207FF8
:100A1000347F207F327F103F0F1F0608383844FC98
:100A2000D4FC64FCD4FC3838383844FCD4FCE4FCF6
:100A300054FC3838383844FC14FCE4FC54FC383896
:100A4000383844FCD4FC24FC54FC38383838D4FC06
:100A500064FCD4FC44FC3838383854FCE4FCD4FC46
:100A600044FC3838383854FCE4FC14FC44FC383876
:100A7000383854FC24FCD4FC44FC3838080877FF90
:100A8000FFFF77FF75FF75FF77FFFFFF77FF080810
:100A90000000000000000000000000000000000056
:100AA000FFFFAAFF53FF02FF53FF02FFFFFFFEFFFE
:100AB0000303F2F313F31EFF13F312F313F312F312
:100AC00013F312F313F312F313F312F313F312F3FA
:100AD00013F312F313F31EFF13F3F2F303030203F2
:100AE00003030203030302030303020303030203DA
:100AF00003030203FFFF02030303020303030203D2
:100B0000030302030303020303030203FFFF0203C1
:100B1000F3F312F31FFF12F313F312F313F312F3B1
:100B200013F312F313F312F31FFF12F3F3F30203A1
:100B3000FFFFAAFF00FF00FF00FF00FFFFFFFFFF16
:100B4000FFFFAAFF94FF80FF94FF80FFFFFFFFFFDE
:100B50000000FFFF80FF80FF80FF80FF80FF80FF9D
:100B600080FF80FF80FF80FF80FF80FF80FF80FF8D
:100B700080FF80FF80FF80FF80FFFFFF00000000FC
:100B80001F1F101F101F101F101F101F101F101FDE
:100B9000101F101F101F101F101F101F101F101FDD
:100BA000101F101F101F101F101F101F1F1F0000ED
:100BB0000000000000000000808080808080808035
:100BC0008080C0C0FFFFC0C0808080808080808027
:100BD0008080808080808080808080808080808015
:100BE00080808080808080808080C0C0FFFFC0C007
:100BF00080808080808080808080000000000000F5
:100C0000030302030303FEFF0BFFFEFF03030203C4
:100C1000808080808080FFFFA0FFFFFF8080808039
:100C20000102030405050600000705050803090184
:100C30000A0C0D0E00141314141514000F10110AD1
:100C40000A00000000050605050705000000000A6F
:100C50000B14141414141300001514141414140B8E
:100C60000105050505050500000505050505050146
:100C70000A00000000141414141414000000000AE8
:100C80000A00000000051705051705000000000A0E
:100C90000B14141414141800001814141414140B46
:100CA0001008000000007A7C2C1C0C0C0C0C0000BE
:100CB000000078783A3C1C1C2C2C1C0C0C1C1C1CB6
:100CC0001C0C00E0F07A1C2E1A1A0E060606060608
:100CD000070006CFFF3E2E1E0E0E1E7EE68606067F
:100CE0000702627A1E060A060202FAFEFA020707E5
:100CF00007070C0C0C1C2C7C7A00007A7C2C1C0C3A
:100D00000C0C0000000200090F0000030401000C9D
:100D100000000000000000000000000000000000D3
:100D200000F0F89C8E8783878E9CF8F00000FEFF11
:100D30000303030303070EFCF80000FEFF03030395
:100D40000303070EFCF80000FFFF00000000000096
:100D500000FFFF0000FEFF8383838383C7EE7C38A0
:100D60000000F8FC0E07030303070EFCF800003F29
:100D70007FE0C08080C0E07F3FFFFF0101010101F3
:100D80000101FFFF0000FFFF0C0C0C0C1C3E77E381
:100D9000C100007FFFC0C0C0C0C0E0703F1F0000A6
:100DA0001F3F70E0C0C0C0E0703F1F00007FFFC168
:100DB000C1C1C1C1E3773E1C00001F3F70E0C0C04D
:100DC000C0E0703F1F000000000001FFFF010000B5
:100DD0000000000000240027002A002D003000AE93
:100DE000D580A83FD300408D142002A1C8DA12811B
:100DF000CFD9F1DB402EA4A6AF0408020110408039
:100E000040102040804080080204018040201002F1
:100E10000110801020404020000000002500280024
:100E20002B002E0031000404040404030405020214
:100E30000202040302020202060606060606040473
:100E4000020202040414021302120215020702082D
:100E500002090209010A020A010B020B0104010C3A
:100E6000010601007625B625A22572258E25F225DC
:100E7000B1266011D127E027080B00020202010011
:100E800009040000010202000005240010010524ED
:100E9000010101042402060524060001070581035F
:100EA00010004009040100020A00000007050202C8
:100EB000400000070583024000000403090441725A
:100EC0006475696E6F204C4C430041726475696EA5
:100ED0006F204C656F6E6172646F0012010002003A
:100EE000000040412336800001010203011201008D
:100EF00002EF020140412336800001010203013C60
:100F000038000000000080F8FE0FE3FB1B0B0B8B8A
:100F1000FBF3F7F6F6F60606ECECECECECECECEC9E
:100F2000ECECECECECECEEE6F6F6F6F7F3FBFBCBD8
:100F3000CBFBE30FFEF8801E332121339E0000001F
:100F400080F8FF0FE0F8F9F9F9F9F9F9F9F1F3F39D
:100F5000F3F3F0F0FFFFFFFFFFFFFFFFFFFFFFFFD7
:100F6000FFFFFFFFFFFFFFFFFFFFFFFFFF7F7FFE92
:100F7000E00FFFF880060600000000000F3FF0C6FB
:100F8000070404070707070707070707070707FFFF
:100F9000FFFFFFFFFFFFFFFFFFFFFFFFFFFFFF0759
:100FA00007070707078787070726860707C6F03F53
:100FB0001F00808000000000000000030784C4E4DC
:100FC000E4E4E4E4E4E4E4C49C000FE7E7E7E7E7F3
:100FD000E7E7E7E7E7C7870F1F0FC7E7E0ECE4E4C1
:100FE000E4E5E5E4C4040404070300C040C30311BE
:100FF000000000000000000000FFFFFFFFFF393984
:1010000039FFFFFF0FE0E0EFEF0FFFFF183879FF28
:10101000FFF703E0E0EFEF0FFFF9F0F0FCFDFDFD5F
:101020000DECE0E0E0000001210100000000008084
:10103000C0602060C080000000000C0C007EFE80BC
:101040003C3E1C1C1C1C1C0C0C0E0C0C0C0C0E1E18
:101050001C1C1C1C3C3E80FE7E00000000C0E0E02A
:10106000C000000000030300000E1B3166C680D0E4
:1010700060311B0E00003828380001471E38202040
:101080002020301010D0D0101090103020202020C0
:10109000381E0701000006060000010100000000E4
:1010A00000000000005A087F417777417F41555585
:1010B0005D7F415F50507F417515111F000000009A
:1010C0003E0A0A0E003E202020003E12123E000E74
:1010D00008380E00000000003E003E04083E003EBE
:1010E0000A0A02003E22223E00000000003E2222A8
:1010F00022003E22223E003E04083E003E0A0A0232
:1011000000003E08083E003E2A2A22003E20202001
:10111000003E0A0A0E000000007F417515117F4154
:101120005F50507F416D6D417F117747711F000007
:1011300000003E003E04083E003E0A0A02003E2235
:10114000223E00000000003E222222003E22223EDB
:10115000003E04083E003E0A0A0200003E08083E27
:10116000003E2A2A22003E202020003E0A0A0E00CD
:10117000000000003E0A0A0E003E202020003E1221
:10118000123E000E08380E000000007F417F417BB8
:1011900077417F4175151D7F415D5D417F000000F6
:1011A000003E222222003E22223E003E04083E0053
:1011B0003E0A0A0200003E08083E003E2A2A22009B
:1011C0003E202020003E0A0A0E00000000003E0AD9
:1011D0000A0E003E202020003E12123E000E08386B
:1011E0000E00000000003E003E04083E003E0A0AD9
:1011F00002003E22223E000000007F415D55577FE5
:10120000415D5D417F417B77417F4175151D073F02
:101210003FA9A5926ABBFDD4A73EF5A94F7D6ABB45
:10122000954A523AE7DCA73EB5DD3AE75895544A6D
:101230002AA9D3A9ED4CE994738E753BA754526D3E
:10124000B79FFAD4A73EF5A94F6DB752497CF1E993
:10125000B4DD6EB7DBEDE93421A554D65D6EABA4E9
:10126000CA39E7744C5249B9DD49C5A4A4FDD43B41
:10127000A964DB9994547C7C3A6DB7DBED767B3ABC
:101280004D88AFFEFFFFFFFFFF753AE79CFBFFFFB6
:10129000FFD369ABA473977BBB4D6D576D973ABD78
:1012A000BBDC4E2ABBAB9D4F3BA9ACCE6F976ABB54
:1012B0006ABBDD6EFFFFED76BB7D57BBDA2EF1A575
:1012C000A492FDFFFFFF29E75C72BBDBEEFE7F27E8
:1012D00095DD2EDBD52E9D7E573B2795CC39A7F883
:1012E000DA2E7BD53B9DDFD5CE6DF74ABA5DEDDEBC
:1012F000EEB73B9DCE6E7797DB6EAFED126DE9FFDB
:10130000FFDDE5769FFA77B52BBBFDFFAFEDD66E1F
:10131000AD924AA77FD55BA9AC734EB55DAAED4CE3
:1013200069BB3D2595E44BC724956C57BBA4926ED1
:10133000BB6C573BBBDD6EAFED125FFDFFFFFFE9FE
:10134000B4DD9E4E6FB7FFFFB59D697B4A2AA93E6B
:10135000F5EF6AE7A492ED6AE7B6ABB64BE59CB34E
:101360004AAAB64B9DAEED32E79CFDD49773CE4AA8
:10137000259573CE6E77DB55CE39852F429D6EBB9A
:10138000DD6EB75B9DE623DCD5AE5EF54A2AE95EED
:10139000F5562A99BBDCE9F4CE3995DD96DDD67693
:1013A000ABE3DA9EFAD4FFAAB7CEB9F8FAFF19DD9B
:1013B000E5DE39A7F02595B4DB55AF7AD5AB5EF500
:1013C000AAB7DB955492522AA99454522AE9B64BF3
:1013D0002595EC55AFA4922A9D77CEA9744CDB5588
:1013E0003A2D95544A2AEB9C73DBA554D26D274DB8
:1013F000A77BD55303573F30A75C39756A25EDAA03
:101400007156A7B729B9EEAAAFCEC5EC94EB743AE2
:10141000BD55553156B6D45649558A3625D3DBD4F9
:10142000B9C8F4F65529BB1D4D3B55B54DBFDD9EE2
:10143000DA2A279369575BE76CB6DA266DAEC2717C
:10144000155FD5399B4B5E358292554529235AA5A8
:10145000F86C4C955413C554578ED239B22657A404
:10146000EA8F90F7E854A72F5C25EF8EB06DDA462F
:10147000942DBEE457D98A9134EC85A64B2EF331D6
:10148000E5945C56321DDD36A2EC769B555249251B
:10149000E3DD6E278B28A9A4D2C9FC763B96D6D96A
:1014A0006DB4CA66B7DBED484A2BA9A4B25B25B779
:1014B000DBD0B4DD8EDD25E5EA5CB9194F27EF8A74
:1014C00051B9AE5C4595AB2293CA459DAF4AD176E2
:1014D0001DA54D775D97738A57554747282B9D4A21
:1014E000F1F1A5D124958B3A5F9562FC3A9B4D555D
:1014F000956BA5EA5C5A395D75A4AB56B7924A71F3
:10150000A652291B9173A5942AA62C674EE52A2F73
:10151000552B5D49E988B24F14539D55DB88B6645D
:101520005F6A1B91EAE52AC5E8A29411A5DD6D0961
:10153000952B3E19A3DD6E27CA3E514C75566D237F
:10154000DAF2292595BA4F7D2B46AA6A5E29EBA2CD
:10155000EB955E5656C9ED76D6ED76BB54763BD903
:1015600056D9ED76BBCECEBE5D2AA9A4B2DBED6C1A
:10157000F9ECB44965475B769D5D479BDDA6B7DB1B
:10158000ED3AD67552D96D3EB6ED76BB5476ABE8E2
:10159000D2D9EC76BDAA52B9BC2CA25CD9883AC784
:1015A000572E5936A62C553A577C691B8A52753EE0
:1015B000AA53DB4B1165ABBC52652BEF545C2A3C44
:1015C000AA8AA8927C3EAA1C57371BAF8C69D52AE1
:1015D000F5DF517D8EAF5CB26C4C59C6AAA3727B0D
:1015E000595955E955AD7CE57457B54EBFABEA96F0
:1015F000B55437B35DF552A592E9582BA77ABB9540
:10160000EAD497DBAA4BA5E2FA2EA5AC923873CAAE
:10161000955C3A556FBF557CB5B29FB2E99553566C
:10162000C669BFCA5672BB8EA9AA75FA5D55B7AC1A
:10163000A5BAC972AA9454A76C0A54087F5155558B
:10164000457F415D5D417F415F5F417F417B7741E8
:101650007F415D5D633E007F415D5D417F4175156A
:101660001D7F4175151D07000000002E2A2A3A0033
:101670003E22223E003E20203E003E04083E003E28
:1016800022221C0000003E22223E003E04083E00B2
:10169000002E2A2A3A003E22223E003E20203E0012
:1016A0003E04083E003E22221C0000003E22223E54
:1016B000003E0A0A02003E0A0A02000000007F51B2
:1016C0005555457F415D5D417F415F5F417F417B76
:1016D00077417F415D5D633E007F415D5D417F41BC
:1016E0007B77417F7F3F295529A9A4524E59E7F2C4
:1016F000933B27D5525965B7CE3939ED4AAA5BDD00
:101700006AABA492524957D96873E5B65B25A5A286
:10171000CFB9EDE5B6CA512B69B7DB5DADE45A6EC2
:101720009574E36BBB4E07792959C96DE52A79B9E0
:101730004A3A59D9753A746697CA39259573A5946A
:101740002396EBFCEAD456C9CAC5152161F6AA88CE
:10175000E34F958DA92A4558B9A64B1E7B57B1EF8B
:10176000955494BB28552A7E621F9D8C304FBF55DF
:10177000B29297BB9C2AA5CAA952AA9C2AA5CAA91B
:1017800052AA9C734E2AA9EC88D36D4F57F7AEEC42
:101790004EE9A4B22955D7B52BCDA4D76B4925B7AF
:1017A000916593A96E55D96CE8D29FEA2BA9A4B292
:1017B00059652756A5545FCEAE774E6E678AAF94B3
:1017C000B2D94FE9F4F6743A55F4F9B6DB5DB96471
:1017D0005A2AE7E2EA53DB65E128A752E964492582
:1017E000972ED7E964D9309FCF56927FE994DD6E6A
:1017F00097CA29E575BADCD575AEAB3EF5559FFAAB
:1018000056F74A2A49659D74D2B794CA6E95AA259F
:1018100034E9DCE52A7939252FA764ED2A59BB4A3A
:10182000762A954AA552A9743A9D4E77AE94EADC81
:101830007E4954555555555555555555555555553C
:1018400055555555555555555555551551D5AA6AA2
:1018500055CA9572D2D9F19A0E7D59259D22CC395F
:10186000E79C73CE39E79C535249256D9C2BA9EC1C
:101870003A9D4E67D3E9743A9D4E87A6ED76BBDD5F
:101880002E95545249E59C73CE39E79C73CE39E7C7
:101890009C73CE3925957CAB6A55A5AEAAABEAAA56
:1018A000BAAAAEAAABEAAABAAAAEAAABEAAABAAADE
:1018B000BAAAAB7295ABAAAB54B72AD925EDE752B9
:1018C000C94A55A5AA5255A9AA5455AA2A5595AA56
:1018D0004A55A5AA52155157E5AAABB25557D99604
:1018E000BE56A5B2E9743A9D4DA552A9542A954A0F
:1018F000A552A954A752A954EA53A9542A554C7683
:10190000BBF5E5D3F6542AB54AA5524C5249259960
:1019100054AF7AD52BA94AA952AA94924A5EEE7284
:10192000DBCB5DEE72DBCBE92C5755AA2A5595AA85
:101930004A55A5AA5255A9AA5455AA2A5595AA4A64
:1019400055A5AA5255A9AA5455B252D9AAAEAAEA87
:10195000AAABAAAB5257A9CB55FDD59FBAFAEEE474
:1019600065ABBAB2B58A48A9BC3B6DCFEA93E752E2
:1019700052A72463CB54555555555555A5AA5255D4
:10198000A9AA5455AA2A5595AA4A55A5AA62AACA2F
:1019900055E52A5BD97C44E9B24C3A3A4F4BA4D383
:1019A0006922BBCD9EB6DB747BBB65B24C96B2AAF6
:1019B000AAAAAAAAAAAAAAAAAAAAAAAAAAAAAAAA87
:1019C000AAAAAAAAAAAAAAAAAAAAAAAAAAAAAAAA77
:1019D00052559DABAAAEAA7C369FAD5CADAA72757E
:1019E0005555B9ABAAAAAAAAAAAAAAAAAAAAAAAAF1
:1019F000AAAAAAAAAAAAAAAAAAAAAAAA4A5655B644
:101A0000AAABAAABBAAABAAAABAAABBA2A57B9640C
:101A1000AE52EA56A5D4AD6A77B9DA5DAE96955462
:101A20007DD52B592FAB7BD5AB5EA5D3E9743A9D01
:101A30004EA7D3E97474B9AA54E7BE552975B97A8B
:101A4000BBEAAFCA75AA7295ECD4E53E75B96F557D
:101A5000CAD5CEB94A2A5949252BA9ECA74E7DEA09
:101A60004F6D9D93CECE964EA7D3A9542A954AA5E5
:101A70005255C9AA4A55555555555555555555555B
:101A800055555555555555555555555555B22E5BCA
:101A90005557D55575555D5557D55575555D55D91E
:101AA000AA4A55555555555555555555555555559C
:101AB000555560B8AAAAAA2A5955C9AAAAAAAAAA73
:101AC000AAAAAAAAAAAAAAAAAAAAAAAAAAAAAAAA76
:101AD000AAAAAAAA0A7F3F292BEBD4ED9C724E49F1
:101AE000259D7352C99AAE4B39A9E456C9CB39A783
:101AF00024AE9C734A92679D73CED9E992CA392568
:101B00005529A5A492CA3AE7A4A2945BE79CBB948A
:101B10005376AB64589257B54EA7D3DBED76ABA4A2
:101B2000924A2AA9A473CE39E79C73524925955449
:101B300076BBDD6ED7E9743A1D7C577DA7224CDB5E
:101B4000552959C5759F3A22558EDB69C795CBDA61
:101B500058FB88A2D29175A58A304998DE4A25950E
:101B60002BE9A473A79C73CA4628E7554A7E4A9579
:101B70000C534A2A59D9CAD5B272B5BB5C55EA563C
:101B8000AAD4AD547FD5AA77B5EA5DA7AA729DAC59
:101B90005C74F1A7D7E9ED3A3CA5D36925753A1DE8
:101BA000DC945291B64B6FD39F8AB69254319E52B9
:101BB0004A66E74B978BAE5CA73BB96A95CA5E73E2
:101BC00066B99D93CA3969D72B6EC27233F5574AED
:101BD0002ABBDD0E7F3155455455515545559D5411
:101BE0009753CEA9A2CB55B642957252D96D259D79
:101BF0002B9B929754B2764E5ECEC94A3A1DDED2E6
:101C0000F96565C35E3A9D4E479FDD6ED3E9AC72C0
:101C1000B55355D55B57CA39B954769B4E2A59C925
:101C200098D2F96CBA92958C7E9B4EA7D3E9743EFC
:101C3000084BBE934E25EF6FB5A48B4D4BE59473C7
:101C40005C69656B55A57295AD10B7D4E1CF790786
:101C5000957D2A455455F9B9D6F34657915555FE09
:101C6000CA8D30A9AA5252492595545249259554F6
:101C70005249259574CE39E79C73CE39E79C73CED3
:101C800039E79C73CE39A9F0E8F9764E75CEA9B440
:101C9000BC73F2AE9657A5AA5A9E4EA7D34CD2B9A2
:101CA0004B2AA9A492CA6EB7DBD099B73E3466D34B
:101CB000BB4A3A9B8F2E7CC5D55655E594BA5CAF8E
:101CC0002E77ABCB497539ABAADAAA70B7DE2AA951
:101CD000A492CA39554A49556AAB4A392795735275
:101CE00049E7E456A97297BBDCAD5C27635D3AE730
:101CF0003A97EA9D934A2AA9A472CE71D1D9ABDA58
:101D0000AE6AB95472A9E4365FB9AAEAAABAAAAE11
:101D1000AAABEAAACA55B6B221309D4EA7D3DBEDD5
:101D200076ABA4E2928A3445545511C5B58E38BAC3
:101D30008AACAA22AA92C1639F4A1155557EAEF57C
:101D4000BCD155645595BF72632DBF2CA5A452A577
:101D5000A452A5A44AF7AADCA5D359E5D35BE7A40E
:101D6000924EC9ED36E6EC5249259D5355B9AAAEBF
:101D7000AAAEAAABEAAABAAABA2A5711259573CE77
:101D800039A7A4924A6EB7E974E84BDBAB2AA75691
:101D9000A57E7529D5AB5276554A5755A5AB547AD1
:101DA000F82CAEB6AA2AA7D4E57A75B95B5D4EAA1F
:101DB000CB5955D556A5D2435069259DB3EBF4B602
:101DC0005E5572BB0DCDE9743A680A122040E09866
:101DD000FCFCF41C1C14147CF4FEF5D80800000074
:101DE000F8BFFFFFEF0000000271EBFFFFFE8E80E7
:101DF000000219FEFFFFFF000000006FDFFFFFFF82
:101E000000000000287F5F7F1F7868707161F5BF58
:101E10007F2718000000000000101CFEFEFEEE7878
:101E2000E0900000000000000000004020FFFFFFE5
:101E3000FFEF00180000000000000000000020FF7D
:101E4000FFFFFBF30C8800000000000000000020F2
:101E5000833F7F7F7F3F2506440000000000F8F4A9
:101E6000FCFEFF1E1C1F1BF8F8FEFC980000200063
:101E7000010B0303090580C0E9EAFFFFFF3F2000D3
:101E80000000000080C0F8FDFB7F3F1F37130301F7
:101E900000000000789E7D7FFF7D7B39787878F8A0
:101EA000B8380000000078F87C7CFE1A302E0B1D3C
:101EB000FBFCE4F84000000000010303E3C0E0E0A5
:101EC000E4F9FFFFBFBF000000102870F0F4F90034
:101ED0000303012BF7FFFFFF6000000018073F3FDF
:101EE0003F7C1830283C3F3F3F3F0000000000800F
:101EF0008000C2FCF0FEFE3C0200000000000080FA
:101F0000008878ECE3FF6F0D0320E0E0E0A0000024
:101F100000E4FCFFFFFFCDE2F0F0A0FEFBFFFFFCC2
:101F2000C03800000101010001010101017F7F1F94
:101F30003FDC090000000020F6FEFCFC1C1C1C1C01
:101F40001CBC2C1C0000000000657FFFFF7F706040
:101F5000F0F0F0F070B0A0000000008060E0E0E081
:101F600003030000FF7FFFFEFF02000000053E3F6D
:101F70007F3F785858787B7F3F7FBD1000000080FE
:101F8000FCFCFAFC1C0E0C161A1E1E1C00000000A5
:101F90000030DFFFFFFF72797878F8F8F8F0F00092
:101FA000000088EEFFFFCDCF00020041BF7FFFFFA2
:101FB000FB000000030F7F9F3F9FBC8C58383F7F82
:101FC0005F3F2F00000000003E1E3E5C3D3C3CFC9D
:101FD000FCFCFC7C3C00000000000000008040B0E5
:101FE000FF7FFFCF15234000000000000050D0FD10
:101FF000FDFDFF1F03010000000000000027493F16
:10200000FFFF7F3F07000000000000000000A4FE6B
:10201000F2FEFE3C3C3C1C34FCFCD4F4000000000E
:102020000837BFFFDF6440C0F0C0FFFFFFBFA09BC9
:102030000000D1ECFEFFFFBF411111297FFFBFFF60
:102040000E000000041B7FBF3FB372A1A2F3FF7F0D
:102050007F3F5F20006000B7FDF2FE7EA61E0A1ED5
:10206000FEFEFC58C080002080FDF7CFF935080047
:1020700028B5FCFFE7BF1009070031171F2B1D17FC
:102080000E16AA7DFFFFFFFF0800000000387878D9
:10209000786C78787B3C7F5F5F2E28000003081FF8
:1020A000111F121F101D151711151F07041F1715DB
:1020B0001D1F151D01011F1F151F17151F7F1FD87D
:1020C000766EABE476E79C5356D54A2A3BA6526E11
:1020D00059DB6D25B79554A5B65787A9CEA9DE6EF5
:1020E0009554A55C85A79CDBA6D7D5FDAAA3934AEA
:1020F000552595544A95729754F272A3B172552999
:10210000A9E44A2AA9A4934A3AF52BE93A46572B5F
:102110002B955C5AA563CCA594B3CA39452A95AAD8
:102120004A2AA9942AE52EA9E4E5664AA952CE498D
:102130002595545229E99C7276BB55B7533ADDC7B1
:102140001A15692D9DB33BE75CC7EE5475B15F521C
:1021500072E5B2CEE9F8553E1455F2AA9D9B34F6CD
:102160006AD292F12E9D935B2515FE56AA3C533EF2
:10217000D7CF16D5CED5555CA914BF9276A6A4AB01
:102180005D5E45DA39E692F12E9D935B2515B1CE61
:10219000466C77A5EE7B59D15D1F6177AB78BB2884
:1021A000F34FBC948AAF762ED9155F6AE7B61892C2
:1021B0004A45974F21483BA7634BA572F61A41CC7D
:1021C000552B1757D53563785D1E574C9572E98BA3
:1021D0002955672FB22459CC9D3C159FABA72D34B0
:1021E00055AD5C5C55D78CA12AC595AAEDDAC9EE30
:1021F00038CB293B6156C9CB29299DB2EBECD239AA
:10220000A7A472EE439173CA2AA7F45CE9F4E59C93
:1022100073CEB998E274CE39E71C773E5AE56AA7C7
:10222000A4734EC62A955495ACA5724E2A59496599
:10223000C75D6D93B5535249574A955B2A79A9CB2F
:1022400039E77097AEA473CE3957C9D02595549508
:10225000ACA5724E2A594965E74CE59473CE3955C1
:1022600094B573CE39259D545C005D2C11241FBE9E
:10227000CFEFDAE0DEBFCDBF26E0A0E3B1E001C0E2
:102280001D92AD3DB207E1F711E0A0E0B1E0E0E35F
:10229000FDE502C005900D92A033B107D9F711E119
:1022A000C6E3D1E104C02197FE010E94812DC53310
:1022B000D107C9F70E9424290C94962E0C94000093
:1022C0002F923F924F925F926F927F928F929F9246
:1022D000AF92BF92CF92DF92EF92FF920F931F9334
:1022E000CF93DF93CDB7DEB76B970FB6F894DEBF11
:1022F0000FBECDBF80E80E94CF1F882319F088E071
:10230000809362010E94C51C86FD05C00E94C51C09
:1023100085FF4DC030C010925A01109230011092CA
:102320004F0180915B0690915C0666E070E00E9430
:102330006D2D892B51F4809150018F5F843018F4FA
:102340008093500102C01092500110E0212F30E024
:1023500080915301082E000C990B28173907B4F609
:102360000E948527811105C0809151018F5F809364
:1023700051011F5FEBCF81E080935A011092300131
:1023800010924F0180915B0690915C0666E070E0D0
:102390000E946D2D892B81F010E0212F30E080917B
:1023A0005301082E000C990B2817390784F00E945E
:1023B000C51C80FD42C016C0809150018F5F8430E3
:1023C00018F480935001E8CF10925001E5CF0E949D
:1023D0008527811105C08091510181508093510161
:1023E0001F5FDBCF20915B0630915C06C9016CE377
:1023F00070E00E946D2D892B29F4909130019F5F30
:1024000090933001809130018630B8F082E0809363
:102410005A0186E080933001C9016FE070E00E94AC
:102420006D2D892B51F480914F018F5F843218F408
:1024300080934F0102C010924F010E94C51C83FF80
:10244000D8C0109230010E94C51C83FF06C0809145
:10245000560190915701039781F00E94C51C83FF9C
:1024600006C08091560190915701049731F088E0A1
:102470000E94CF1F882309F4BCC0809118068111E7
:10248000B8C0809119068F5F863009F4D3C6809357
:102490001906E090190619E01E9DC00111249C0147
:1024A0002F5E394F790181E0D90159968C93599764
:1024B0008091130655968C936091200670E06F5FB3
:1024C0007F4F072E000C880B990B0E94E91AF70129
:1024D000678B62E070E080E090E00E94E91A613072
:1024E00051F4E09119061E9FF0011124EF5EF94F9F
:1024F00087898195878B8091160680931806809135
:102500005601909157018230910509F4A0C60CF450
:1025100094C68430910509F4A4C60CF49DC60597B1
:1025200009F4A2C610911E0662E070E080E090E01F
:102530000E94E91A613009F41195E091190629E029
:10254000E29FF0011124EF5EF94F809152018E5FFE
:10255000180F128B80911D0690E00196AC01092E98
:10256000000C660B770B019709F485C6CB01BA0105
:1025700061507109810991090E94E91AAB01BC01FE
:102580004F5F5F4F6F4F7F4FE091190680915A0167
:1025900039E0E39FF0011124EF5EF94F9091510172
:1025A000985FA0EF8A9F900D1124918B282F30E027
:1025B000319521953109220F331FD901A095B0958E
:1025C00090911C06929F900D11244A9F900D11240A
:1025D000968B8195182F110F00E080911706081730
:1025E00008F44EC68091560190915701059709F461
:1025F00053C684E00E94CF1F8823B1F08091580118
:10260000882391F080915201853018F08150809399
:10261000520186E0809359011092580164E670E0FF
:102620008CE390E00E94A91C8091590181110AC09D
:10263000809100018150D0905101823098F08093B8
:10264000000157C081508093590115E00E948527F1
:10265000811105C080915201833008F078C6115075
:10266000A9F7E6CF84E0809300018D2C912CEFEF49
:102670008E1A9E0A83E0582E96E0492E3324339416
:1026800027E3222E9092320180923101C0905201B4
:102690006C2C712CC301019690933401809333010B
:1026A00040923501F8E0F0933601A12CB12C4A9C00
:1026B000F0014B9CF00D1124E95CFE4FE080F180AD
:1026C0000281138124813581409131015091320181
:1026D0006091330170913401809135019091360100
:1026E0000E942B21882371F1309258015A94511085
:1026F000C9CF8D2D90E04D2D9A8389838091520111
:1027000090E0682F9C838B8388E08D838E8320915B
:10271000F90530E0E22E3C872B872091FA0530E066
:10272000022F3E872D878F87888BFC841E8528E0AB
:1027300038E05A817C8198E00E942B21882309F49B
:10274000E3C115C027E3621671042CF030925801E2
:1027500020925201CBCF3FEFA31AB30A54E0A51643
:10276000B10409F0A4CFC394C0925201BFCF8091AD
:10277000DA069091DB068C599F4F9093DB0680938D
:10278000DA0664E670E08CE291E00E94A91C809178
:10279000F805823009F4AAC0F0F48823E9F1813009
:1027A00009F0AEC181E090E090935701809356010B
:1027B00088E592E0909312068093110640911A06E4
:1027C00030911B0620911C0690911F0680912106D6
:1027D000EAE2F6E05BC0843009F418C108F4CEC028
:1027E000853009F08DC185E090E09093570180938A
:1027F000560188E592E0909312068093110640916D
:102800001A0630911B0620911C0690911F0680919C
:102810002106EAE2F6E044C11092570110925601F7
:1028200088E592E0909312068093110640911A0673
:1028300030911B0620911C0690911F068091210665
:10284000EAE2F6E0DF0116974C9311963C9312965C
:102850002C9311969C9311968C9310823996A6E036
:10286000E036FA0779F781E0809315069EE19093B0
:1028700013061092140693E0909316061092170612
:102880001092180624E020931A062CC1DF01169737
:102890004C9311963C9312962C9311969C931196FF
:1028A0008C9310823996B6E0E036FB0779F781E029
:1028B0008093150690E1909313061092140628E277
:1028C0002093160628E0209317061092180690937E
:1028D0001A0697E090931B0680931C0610921F0621
:1028E00010921E061092200685E008C182E090E05A
:1028F000909357018093560188E592E090931206D9
:102900008093110640911A0630911B0620911C06F7
:1029100090911F0680912106EAE2F6E0DF0116970A
:102920004C9311963C9312962C9311969C9311966E
:102930008C931082399656E0E036F50779F781E0FE
:102940008093150683E2809313061092140684E1A7
:102950008093160684E080931706109218068093E1
:102960001A0682E080931B0693E090931C06109257
:102970001D0610921F0610921E06BEC083E090E056
:10298000909357018093560188E592E09093120648
:102990008093110640911A0630911B0620911C0667
:1029A00090911F0680912106EAE2F6E0DF0116977A
:1029B0004C9311963C9312962C9311969C931196DE
:1029C0008C9310823996A6E0E036FA0779F781E019
:1029D000809315069EE1909313061092140698E0DA
:1029E0009093160695E09093170610921806909310
:1029F0001A0692E090931B0694E090931C061092A6
:102A00001D0610921F0680931E0676C084E090E09B
:102A1000909357018093560188E592E090931206B7
:102A20008093110640911A0630911B0620911C06D6
:102A300090911F0680912106EAE2F6E0DF011697E9
:102A40004C9311963C9312962C9311969C9311964D
:102A50008C9310823996B6E0E036FB0779F783E075
:102A60008093150696E0909313061092140694E056
:102A700090931606109218061092170695E0909300
:102A80001A0690931B0680931C0682E080931D0615
:102A900010921F0691E090931E06909320062EC080
:102AA000DF0116974C9311963C9312962C93119636
:102AB0009C9311968C931082399656E0E036F50778
:102AC00079F781E0809315069EE1909313061092AA
:102AD000140693E0909316061092170610921806AB
:102AE00090931A0680931B0690931C0610921D0665
:102AF00010921E0610921F06109220068093210647
:102B000088EF95E00E947C2680915201833340F04B
:102B10008091510185538F3018F489E080936201D0
:102B20008BE995E0998F888F03EA802E05E0902E3F
:102B30006C01D6018C91803488F0F4018081811180
:102B400007C021E02083F601329780818150808385
:102B5000F601319730E43083D6011C92F4013197AD
:102B60008081882309F4DBC0F6013197B081BF8BE7
:102B70006B2E712C7A8A698AF6013080F4013697BF
:102B80005080852D90E09C01230D311D3B8F2A8FB5
:102B90003C8B2B8B319740804D8A31E03E8BA12CB2
:102BA000B12C212C56E05A9DF0015B9DF00D1124B3
:102BB000E95CFE4FE080F180028113812481358140
:102BC00049895A896B897C898D899E890E942B212C
:102BD000882311F0222423948FEFA81AB80A94E0D6
:102BE000A916B104F9F621100FC0AA8DBB8DDF978D
:102BF00024F43394F601308207C08F8986538F30D6
:102C000018F43394D6013C92C3010196E82E9A8BB6
:102C1000898BF601A080B12CC5010196082F9C8BF1
:102C20008B8B8091510190E00296482F9C878B8777
:102C30008091520190E00296682F9E878D87F4E084
:102C4000FF87F88BFA881C892FEF240D3FEF350D95
:102C50005C857E8584E094E00E942B21882319F016
:102C600029E0209362017A8A698ABC8AAB8A4D8AFC
:102C70005E8A1AE2A12E16E0B12E360133E0631A05
:102C80007108D5018C91882309F440C0F50138976B
:102C9000808190E0E82E9A8389833196808190E04C
:102CA000082F9C838B83319620812D833196308130
:102CB0003E83FA801C8149895A896B897C898D8978
:102CC0009E890E942B21882309F1F50131972081EB
:102CD000F60184819581821B91099583848318165E
:102CE000190664F08091DA069091DB0601969093C4
:102CF000DB068093DA06C3010E943B2680915601D1
:102D000090915701019711F0D5011C92B9E0AB0EDB
:102D1000B11CE0E6AE16E6E0BE0609F0B2CFFCE07C
:102D2000CF0ED11C2CE0820E911C33E0831636E0CE
:102D3000930609F0FECEA0905B06B0905C060EE90B
:102D400015E0AAE9EA2EA5E0FA2E9701F801C12CB8
:102D5000D12CB8E78B2E912C41E0DF0115976C91B7
:102D600070E0C5010E946D2D892B69F5B60168568A
:102D70007A4FDB0119968C911997882321F08150A5
:102D800019968C930AC0D9018C918F5F9081990F0D
:102D9000891B8C93DB011A964C93D9018C9190E09E
:102DA000DF0112975C91B401651B710968177907FF
:102DB0001CF4808184278083D9018C91883018F499
:102DC000808184278083BCE0CB0ED11C3C96245F9D
:102DD0003F4F50E6C516D10409F0BFCFC50166E0EC
:102DE00070E00E946D2D892B29F4809155018F5F31
:102DF0008093550180915501843010F01092550157
:102E00006091150670E0C5010E946D2D892B09F0B7
:102E10008DC0209111063091120621503109309356
:102E200012062093110680911806882319F081500C
:102E300080931806FAE2CF2EF6E0DF2EF6018081AD
:102E4000882311F1AF0144505109DA018C9181506E
:102E50008C93811101C01082BF0168507109DB01A0
:102E60009C91AF0143505109DA018C91890FDB012C
:102E70008C936F5F7F4FDB019C914F5F5F4FDA0157
:102E80008C91890FDB018C933996B6E0E036FB0715
:102E9000B1F6121613060CF449C0109257011092A5
:102EA000560188E592E090931206809311064091B6
:102EB0001A0630911B0620911C0690911F068091E6
:102EC0002106F6013697408331963083329620836F
:102ED0003196908331968083F6011082F9E0CF0E0F
:102EE000D11C50E6C51656E0D50659F781E080930F
:102EF00015069EE1909313061092140693E09093AA
:102F00001606109217061092180624E020931A064F
:102F100080931B0690931C0610921D0610921E06AD
:102F200010921F061092200680932106ECEC4E2E84
:102F3000E1E05E2EA12CB12C350180E1680E711C00
:102F4000420178E0C72ED12CF40124913090510138
:102F5000832D869586954AEC50E0B301D601A81BD7
:102F6000B109CD010E949E20BFEF8B1A9B0AE8E0B9
:102F7000CE0ED11CF8EACF16D10431F724E1420E6F
:102F8000511C38E0A30EB11C50E3A516B104A1F604
:102F900097E0931518F088E08093510180915101DA
:102FA000813718F080E780935101D0905A018091C9
:102FB000510160915201A2E0DA1206C0E0914F0186
:102FC000F0E0EC5BFD4F0AC090915001B4E0DB9E55
:102FD000F0011124E90FF11DE65FFC4F249170E030
:102FE00048E652E090E00E949E208D2D880FD80E7A
:102FF000DD0CA12CB12CF501EF5EF94F818D8823FA
:1030000059F0209156012D0D628970E0818942E1CD
:1030100053E090E00E94921FE9E0AE0EB11CF6E38F
:10302000AF16B10441F780915B0680FD05C0809129
:103030005B018F5F80935B0180915B018F3010F0AB
:1030400010925B0120915B0144ED53E060E370E07E
:1030500088E390E00E949E20D80114968C918823EA
:1030600009F440C0F801369780818130A9F030F131
:103070008230C1F5F8012081220F220F8091550185
:10308000280FA88DB98D6C9170E062507109F7011D
:1030900080814AE15AE023C0D8012C91220F220FEF
:1030A00080915501280FE88DF98D608170E067509F
:1030B0007109D7018C9148E159E011C0F8012081D4
:1030C000220F220F80915501280FA88DB98D6C9188
:1030D00070E064507109F701808146E957E090E0A3
:1030E0000E949E20045F1F4F288D398D245F3F4F23
:1030F000398F288F3CE0E30EF11C55E00E3F150799
:1031000009F0AACF6091FA0570E08091F90520E0FE
:103110004CE75AE090E00E949E2060E2A62E6CE010
:10312000B62EE12CF12C650100E010E0F6012491AF
:103130004EE85AE0B701C8010E949E20FFEFCF1A67
:10314000DF0A085F1F4F0038110581F720E1A20E4A
:10315000B11C38E0E30EF11C50E4E516F10419F758
:103160004AE0CE0101967C01BC018091DA06909183
:10317000DB060E94E82DF70101900020E9F7319766
:10318000EE19FF09CE2E05E00E1BD12C002E000CEF
:10319000110B8D2D90E0801791077CF4880F991FFB
:1031A000880F991F20E04DE950E266E070E08E59EB
:1031B0009F4F0E94921FD394ECCF000F111F000F5E
:1031C000111F0E591F4FB12C0C2C000CDD088B2D3C
:1031D00090E08C159D05C4F4F701E80FF91F2081DC
:1031E00021331CF020532A3008F020E0880F991F6B
:1031F000880F991F4DE950E266E070E0800F911F43
:103200000E94921FB394E3CF2091560140EA5CE004
:1032100066E070E08BE090E00E94921F8091620176
:10322000893009F098C064EF71E080E090E00E947E
:10323000C51B91C0109219062CC90097A9F00197DF
:1032400009F070C96CE271E08CE890E011C06CE2AA
:1032500071E08EEB90E00CC064E670E088E790E0EF
:1032600007C060E570E002C064E670E084E690E0CC
:103270000E94A91C57C941E050E060E070E084C999
:103280000E948527811106C0809151018150811BC8
:10329000809351010F5FA1C9809119068F5F8093C0
:1032A0001906863011F410921906E090190619E0FB
:1032B0001E9DC0011124FC01EF5EF94F7F0181E0EA
:1032C000818F80911306858B6091200670E06F5F7F
:1032D0007F4F072E000C880B990B0E94E91AD7012B
:1032E00057966C9362E070E080E090E00E94E91AEB
:1032F00080911906613041F4189FF0011124EF5EAE
:10330000F94F97899195978BB9E08B9FF001112424
:10331000EF5EF94F809152018D5F828B80915A014F
:1033200020911A0690915101829F900D1124918B4A
:10333000282F2195220F2F5F90E0880F991F01976A
:1033400090911C06989F200D1124268B52C9815004
:103350008093520184C96B960FB6F894DEBF0FBEFE
:10336000CDBFDF91CF911F910F91FF90EF90DF9034
:10337000CF90BF90AF909F908F907F906F905F9015
:103380004F903F902F900895CF92DF92EF92FF924F
:103390000F931F93CF93DF936C017A018B01C0E0F1
:1033A000D0E0CE15DF0589F0D8016D918D01D601F1
:1033B000ED91FC910190F081E02DC6010995892BDA
:1033C00011F47E0102C02196ECCFC701DF91CF91AD
:1033D0001F910F91FF90EF90DF90CF9008953FB72E
:1033E000F8948091720190917301A0917401B09151
:1033F000750126B5A89B05C02F3F19F00196A11DA8
:10340000B11D3FBFBA2FA92F982F8827820F911D7A
:10341000A11DB11DBC01CD0142E0660F771F881FC1
:10342000991F4A95D1F7089580916A01E09168014A
:10343000F0916901882349F0CF01029690936901C8
:1034400080936801859194910895CF01029690939D
:10345000690180936801808191810895CF92DF9204
:10346000EF92FF920F931F93CF93DF930E94141A52
:10347000811520E8920761F4809171008D7F80931F
:1034800071001092910046984798109267018BC086
:1034900021E020936701813020E8920751F4809168
:1034A00065019091660190936901809368010E9483
:1034B000141A97FD05C020916401222309F43FC02E
:1034C0002091630121113BC021E020936B01EC01AD
:1034D000DF77209769F481E080936C0146983FE99B
:1034E000C32E3FE0D32EE12CF12CCAEFD0E014C064
:1034F0008E0120E030E060E472E48FE090E0A9010A
:1035000098010E94332E69017A0181E0C81AD1081E
:10351000E108F10810926C01E0919605F091970591
:103520000995811103C081E080936C0180916B014A
:103530008823B9F180916C01811133C003C01092CE
:103540006B01C5CF46992DC0479A0E94141A009767
:1035500071F09C01DE010E94872EDC01CB0129E085
:10356000B595A795979587952A95D1F703C08FEFC5
:103570009FEFDC01109290002AE020939100D092FE
:103580009900C092980080936D0190936E01A09372
:103590006F01B0937001809171008260809371001F
:1035A00002C04798D2CFDF91CF911F910F91FF902A
:1035B000EF90DF90CF90089583B7817F83BF83B76B
:1035C000816083BF889583B78E7F83BF08950E94F3
:1035D000872DCF93DF9300D000D0CDB7DEB7611534
:1035E00071058105910579F09B01AC0169833A83EE
:1035F0004B835C830E94DA2D29813A814B815C8167
:103600000E94332E03C060E070E0CB010F900F905A
:103610000F900F90DF91CF910895362F90E0FC012D
:10362000EE5FF24F4491FC01E750F24F2491FC0110
:10363000EA5DF14F8491882309F451C04423E1F1FC
:1036400050E0FA013197EF30F105B0F5EA5AFF4F3B
:103650000C94812D909180009F7707C090918000FD
:103660009F7D03C090918000977F9093800024C03D
:1036700094B59F7702C094B59F7D94BD1DC0909175
:1036800090009F7707C0909190009F7D03C090911C
:103690009000977F909390000FC09091C0009F770B
:1036A00003C09091C0009F7D9093C00005C0909191
:1036B000C200977F9093C200E82FF0E0EE0FFF1F4B
:1036C000E85EF14FA591B4918FB7F894EC91311168
:1036D00003C020952E2301C02E2B2C938FBF08955D
:1036E0001F93CF93DF931F92CDB7DEB7162F682FAE
:1036F00089E049830E940D1B612F8AE00E940D1B07
:103700004981642F8BE00F90DF91CF911F910C9432
:103710000D1BCF93DF9390E0FC01E750F24F249113
:10372000FC01EA5DF14F8491882361F190E0880FFC
:10373000991FFC01EF52F24FC591D491FC01E85E54
:10374000F14FA591B491611109C09FB7F894888198
:10375000209582238883EC912E230BC0623061F484
:103760009FB7F8943881822F809583238883EC91CA
:103770002E2B2C939FBF06C08FB7F894E8812E2B79
:1037800028838FBFDF91CF9108958F929F92AF9240
:10379000BF92CF92DF92EF92FF926B017C010E9469
:1037A000EF194B015C01C114D104E104F104F1F003
:1037B0000E94EF19DC01CB0188199909AA09BB09FC
:1037C000883E9340A105B10570F321E0C21AD108EB
:1037D000E108F10888EE880E83E0981EA11CB11C58
:1037E000C114D104E104F10419F7DDCFFF90EF908B
:1037F000DF90CF90BF90AF909F908F9008951F92D1
:103800000F920FB60F9211242F933F938F939F9394
:10381000AF93BF938091770190917801A091790146
:10382000B0917A013091710123E0230F2D3720F4FC
:103830000196A11DB11D05C026E8230F0296A11D0A
:10384000B11D209371018093770190937801A0932B
:103850007901B0937A018091720190917301A091E6
:103860007401B09175010196A11DB11D8093720183
:1038700090937301A0937401B0937501BF91AF91C0
:103880009F918F913F912F910F900FBE0F901F909E
:1038900018951F920F920FB60F9211242F933F93FA
:1038A0004F935F936F937F938F939F93AF93BF9348
:1038B000EF93FF9380916D0190916E01A0916F0144
:1038C000B0917001892B8A2B8B2B81F180916C0137
:1038D00081110BC098B180E4892788B980916B0170
:1038E000882319F088B1805888B980916D01909132
:1038F0006E01A0916F01B0917001181619061A0699
:103900001B06B4F480916D0190916E01A0916F013E
:10391000B09170010197A109B10980936D01909355
:103920006E01A0936F01B093700102C00E942E1A25
:10393000FF91EF91BF91AF919F918F917F916F9187
:103940005F914F913F912F910F900FBE0F901F905D
:1039500018959C01E1E7F0E090819D7F90831092A3
:103960006A01E8E8F5E0F0936901E0936801F093FB
:103970006601E0936501318320837383628380E075
:1039800090E8958384830C942E1A8FB12CB193B157
:1039900030E02095309520743327A90123E0559518
:1039A00047952A95E1F7292F30E020953095207131
:1039B00033273595279535952795242B8095807F3E
:1039C000822B0895E0916001F091610190818091D6
:1039D0005F01892B8083E0915D01F0915E01908110
:1039E00080915C01809589238083E0916001F09152
:1039F0006101908180915F01809589238083089582
:103A00002F923F924F925F926F927F928F929F92EE
:103A1000AF92BF92CF92DF92EF92FF920F931F93DC
:103A2000CF93DF9300D000D0CDB7DEB74A01390184
:103A3000F02E4C2DA02E000FBB088C010A0D1B1D73
:103A4000101611060CF0CBC1803891050CF0C7C1DF
:103A50009B012E0D311DE7FC3A95121613060CF052
:103A6000BEC1603471050CF0BAC18114910409F42F
:103A7000B6C19B0177FF04C022273327261B370BD3
:103A80002770FB0177FD379653E0F595E7955A953A
:103A9000E1F73E2F77FF07C0222329F03FEF3E0FCB
:103AA00058E0521B252F97FF05C0EE27FF27E81B84
:103AB000F90B02C0E0E0F0E0003811051CF050E81E
:103AC000581B01C05F2D5E1B632F032E000C770B6C
:103AD0003F3F1CF4062F009501C000E01E2D177813
:103AE00017FF03C01150186F1F5FDD24D394111608
:103AF0000CF0D12C1E2DE7FC195FE12EE594E59426
:103B0000E594ED0C6E0D711D693071051CF068E0D7
:103B1000E62EE31AE01A300F632F70E83703800DAA
:103B2000911D11248E0F9F1F7F2D70038001112482
:103B30000E0F1F1F800E911E6114710419F0D30126
:103B4000A00FB11FE1E0F0E03F01022E02C0660CC1
:103B5000771C0A94E2F7433009F4FAC090F441303C
:103B6000C9F0423009F03BC14FEF469DD001479D5F
:103B7000B00D1124A095B095BC83AB837C813E0D24
:103B80002BC04A3F29F04B3F09F029C13E0D87C0A9
:103B90003E0D52C03E0DC6C0F401EC0DFD1DE4917A
:103BA000E69D2001E79D500C11245A82498267FD51
:103BB00005C0F80140814A23442A4082211115C0E2
:103BC000FFEFCF1ADF0A0F5F1F4FC51628F36F5F95
:103BD0008A0C9B1C80589F4F631709F400C18C010D
:103BE00008571E4FC12CD12CF0CF67304CF7F8018D
:103BF000E058FF4F40814723FA804F294083E0CFB0
:103C0000F401E00FF11FE491E69D6001E79DD00C07
:103C10001124DA82C98267FD03C04C91C42ACC9278
:103C2000211113C00F5F1F4F1196051748F36F5FE7
:103C30008A0C9B1C80589F4F631709F4D0C0DC018D
:103C4000A857BE4F00E010E0F0CF67305CF7FD01F1
:103C5000E058FF4F70814A81472B4083E3CFF40146
:103C6000EC0DFD1DE491E69DD001E79DB00D112402
:103C7000BA83A98367FD05C0A095F8014081A423FC
:103C8000A083211115C0FFEFCF1ADF0A0F5F1F4F6E
:103C9000C51628F36F5F8A0C9B1C80589F4F6317D3
:103CA00009F49DC08C0108571E4FC12CD12CF0CFB8
:103CB00067304CF7F801E058FF4F4A81409570811A
:103CC00047234083E0CFFD01E00FF11FE491E69D23
:103CD0002001E79D500C1124409450945C824B824B
:103CE000F401E00FF11FE491E69D1001E79D300C17
:103CF00011243A82298267FD05C0F60140814422E1
:103D000024282082211118C00F5F1F4FFFEFCF1A08
:103D1000DF0A0517C0F26F5F8A0C9B1CAA0DBB1D42
:103D200080589F4F631709F45AC0FC01E857FE4FB3
:103D30006F0100E010E0EDCF673034F7F601E05896
:103D4000FF4F70814C8147237A81472B4083DCCF22
:103D5000652F70E0800E911EDC01A857BE4F885F72
:103D60009D4F00E810E0061B170BA61AB70AAA0C15
:103D7000BB1C6B817C81E981FA81F52ED12CAF01CE
:103D80005F2CCE2CF401CF93DF93C82FD92F459110
:103D90006591222361F0469D402D512D669D602D39
:103DA00037302CF4D8801094D120D52AD992DC90C9
:103DB00033231AF06095D622D42ADD92FA9439F78B
:103DC000EA9451F0F52C33951124EA0DF11DA00F62
:103DD000B11DC00FD11DDBCFDF91CF9111240F900A
:103DE0000F900F900F90DF91CF911F910F91FF9047
:103DF000EF90DF90CF90BF90AF909F908F907F908B
:103E00006F905F904F903F902F9008958F929F9268
:103E1000AF92BF92CF92DF92EF92FF920F931F93D8
:103E2000CF93DF935C016B018A01809108018823A5
:103E300009F45EC080917E01882309F459C0809105
:103E40007C0180FF05C08091E00082608093E000EB
:103E5000E8018AEFF82E93E0E92E2FE3822E3AE371
:103E6000932E209709F43DC08FB7F894E092E900B3
:103E70009091E80095FF06C09091F200282D291B33
:103E8000922F01C090E08FBF91110AC0FA94FF20D9
:103E900079F161E070E080E090E00E94C51BE1CF25
:103EA000292F30E0C217D3070CF49C2F8FB7F8945A
:103EB000E092E9002091E80025FF11C0292F30E0B1
:103EC000C21BD30BF601915020F041914093F100B9
:103ED000FACFC20ED31E9091E80095FF13C08FBF9A
:103EE000C0CF5D9884E680937B011016110644F0E4
:103EF00081E090E0F5019383828380E090E005C04B
:103F0000C80103C09092E800EACFDF91CF911F91E2
:103F10000F91FF90EF90DF90CF90BF90AF909F9068
:103F20008F900895CF92DF92EF920F93CF93DF930C
:103F30004115510569F1FA0104913196E4904E5F03
:103F40005F4F2223F9F0C02FD0E0AE2DA695A695A5
:103F5000A695EA2FF0E0A1E0B0E03E2D377011F415
:103F6000A0E0B0E0AE0FBF1FCA9F6001CB9FD00C96
:103F7000DA9FD00C11242C9DF0012D9DF00D112401
:103F80004E0F5F1F2AEFC22E20E030E00E94001D7E
:103F9000DF91CF910F91EF90DF90CF900895209116
:103FA0005E06282329F490915D06982381E009F4A8
:103FB00080E008952F923F924F925F926F927F928E
:103FC0008F929F92AF92BF92CF92DF92EF92FF9229
:103FD0000F931F93CF93DF935C01709384016093E1
:103FE000830180E091E0909382018093810110929F
:103FF000800110927F01109286011092850188E065
:1040000090E00E94CD2801961C0188E090E00E947B
:10401000CD28EC0181E090E00E94CD283C01C50153
:10402000820D931D97FD77C040E8A416B1040CF0F3
:1040300072C0CE01019697FD6EC04C0173E095945D
:1040400087947A95E1F787709927892B19F08FEF7C
:10405000881A980AC1E0D0E0C12CD12C00E010E011
:10406000E12CF12CE814F9040CF055C044244394DD
:10407000512C81E090E00E94CD28892B21F492E020
:10408000490E511CF6CFC2010E94CD2820E030E03D
:1040900082179307D4F16114710411F0CC2ADD2A40
:1040A000CC0FDD1FC11541E0D40761F548E0E416EF
:1040B000F104ACF4A8014A0D5B1D4038510578F4B9
:1040C000F701F695FE2FEE27F795E795EA0DFB1D14
:1040D000E00FF11FE857FE4F4081C42AC0820F5FF6
:1040E0001F4F0215130554F04FEFE41AF40AC1E014
:1040F000D0E0C12CD12C00E010E004C0C1E0D0E041
:10410000C12CD12C2F5F3F4FC3CF81E090E08619A7
:1041100097093C01A7CFDF91CF911F910F91FF909D
:10412000EF90DF90CF90BF90AF909F908F907F9057
:104130006F905F904F903F902F900895CF92DF92B5
:10414000EF920F931F93CF93DF934115510591F198
:10415000FA0104913196E4904E5F5F4F222321F1E2
:1041600030E0220F331FC02FD0E0AE2DA695A695CC
:10417000A695EA2FF0E0A1E0B0E01E2D177011F433
:10418000A0E0B0E0AE0FBF1FCA9F6001CB9FD00C74
:10419000DA9FD00C11242C9DF0012D9DF00D3C9D3B
:1041A000F00D11244E0F5F1F23E0C22E20E030E0FF
:1041B0000E94001DDF91CF911F910F91EF90DF9032
:1041C000CF90089520E088E891E0B22FB111BFEFC1
:1041D000FC010024B193B193B193B1930394D1F74F
:1041E0000895EF92FF920F931F93CF9300E810E092
:1041F000C0E0E12CF12C0E94E21C80E10E948128A9
:1042000082E00E9481288C2F806B0E9481280E946E
:104210006D28F701E857FE4F80818EBDC7010196DA
:104220007C01801791074CF4FC01E857FE4F208178
:104230000DB407FEFDCF2EBDF2CF0DB407FEFDCFAE
:10424000CF5F00581F4FC830B1F6CF911F910F912B
:10425000FF90EF900895EF92FF920F931F93CF93EB
:10426000DF93CDB7DEB72C970FB6F894DEBF0FBE45
:10427000CDBF49835A836B837C839E83EF82F8860C
:1042800009871A872B873C87E981FA816B817C81BA
:104290004F81588529853A85DF01A80FB11D4A173E
:1042A0005B07A4F48B85480F511DE417F50774F4E0
:1042B0008E81AB01480F511D241735073CF48C85C6
:1042C000280F311D81E0621773070CF080E02C96F7
:1042D0000FB6F894DEBF0FBECDBFDF91CF911F9117
:1042E0000F91FF90EF900895FC0180917E01811164
:1042F00003C08FEF9FEF08959FB7F89482E08093FB
:10430000E9002091F20030E01216130614F421E0C7
:1043100030E02115310559F0289884E680937D011D
:104320008091F10080838091F200882319F09FBF73
:10433000C90108958BE68093E800F9CF80916E065D
:1043400081110DC082E080936A0684E080936B0641
:1043500010926D0610926C0681E080936E068AE6DC
:1043600096E00895CF93DF931F92CDB7DEB76983B0
:10437000DC01ED91FC910280F381E02D41E050E001
:10438000BE016F5F7F4F09950F90DF91CF91089528
:1043900083E08093E9008091F200882319F08AE39A
:1043A0008093E8000895FC018485958597FD0BC0F6
:1043B0009FB7F89482E08093E9008091F2009FBF5C
:1043C00090E0019608959FB7F89482E08093E90009
:1043D0008091F2009FBF90E008954091CB065091EC
:1043E000CC062091C9063091CA0642175307B4F48F
:1043F0009091E8009570E1F39091E80092FD19C06A
:104400008093F1008091CB069091CC0601968F733A
:104410009927892B19F48EEF8093E8008091CB06C1
:104420009091CC0601969093CC068093CB0681E0C8
:10443000089580E00895DF92EF92FF920F931F930B
:10444000CF93DF93D82E8A017B01E40EF51EEB019A
:10445000CE15DF0571F0D7FE03C0FE01849101C0C7
:1044600088810E94ED2121968111F2CF8FEF9FEF7D
:1044700001C0C801DF91CF911F910F91FF90EF9084
:10448000DF900895615030F02091F100FC0120830D
:104490000196F8CF289884E680937D010895CF9304
:1044A000DF931F92CDB7DEB7FC018485958597FD1C
:1044B00005C02FEF3FEF358724870BC0CE01019653
:1044C0000E947421019719F4898190E002C08FEF56
:1044D0009FEF0F90DF91CF9108950F931F93CF938C
:1044E000DF931F92CDB7DEB78C01FC0184859585E3
:1044F00097FF0EC0CE0101960E947421019719F416
:10450000298130E002C02FEF3FEFF8013587248783
:10451000F801848595850F90DF91CF911F910F91C0
:1045200008950F931F93CF93DF931F92CDB7DEB7FC
:1045300082E0898342E450E068E77EE080E80E9400
:104540001B220E949E21DC0112960D911C91139753
:104550000115110569F0D801ED91FC910280F381FC
:10456000E02DBE016F5F7F4FC801099597FF07C01F
:1045700089810F90DF91CF911F910F910895F801DC
:1045800000851185E5CF1F920F920FB60F9211246F
:104590008F939F938091E1009091E100937F90939E
:1045A000E10083FF0FC01092E90091E09093EB00CF
:1045B0001092EC0092E39093ED0010927E0198E04F
:1045C0009093F00082FF20C093E09093E9009091D7
:1045D000F200992319F09AE39093E80090917B01FF
:1045E000992339F090917B01915090937B0199230D
:1045F00089F190917D01992339F090917D0191503D
:1046000090937D01992341F184FF10C08091E200D5
:104610008E7E81608093E2008091E1008F7E8093A6
:10462000E10080917C018E7E806111C080FF16C008
:104630008091E2008E7E80618093E2008091E100B3
:104640008E7E8093E10080917C018E7E81608093DC
:104650007C0104C05D9ACDCF289AD6CF9F918F91CF
:104660000F900FBE0F901F9018951F920F920FB6CC
:104670000F921124CF92DF92EF92FF920F931F932C
:104680002F933F934F935F936F937F938F939F935A
:10469000AF93BF93EF93FF93CF93DF93CDB7DEB785
:1046A0006C97DEBFCDBF1092E9008091E80083FFD8
:1046B000FAC168E0CE0145960E94422282EF8093C3
:1046C000E8008D8987FF05C09091E80090FFFCCF3E
:1046D00003C09EEF9093E800982F907609F0C6C033
:1046E0009E892F89188D91110CC0803829F48091F2
:1046F000C7068093F10002C01092F1001092F10001
:1047000047C1422F50E0512B913051F4811140C1EB
:104710004130510509F03CC18091C7068D7F0BC027
:10472000933061F4811134C14130510509F030C139
:104730008091C70682608093C7062AC1953041F4F4
:104740008091E80080FFFCCF20682093E30020C127
:10475000963009F05FC0EB8CFC8C1092E90010924F
:10476000CC061092CB06123091F51092CA06109228
:10477000C9060E94912299E0BE016F5F7F4FDB0165
:10478000E92F1D92EA95E9F799831A8391E09E83B8
:1047900090EA98879AEF99872091CB063091CC06C2
:1047A000275F3F4F3C832B838D831092E90010924B
:1047B000CC061092CB06F092CA06E092C90649E0F8
:1047C00050E080E00E941B220E949122E1C0F09202
:1047D000CA06E092C9060E949E21DC011296ED9065
:1047E000FC901397E114F10409F4C0C0D701ED91D6
:1047F000FC910480F581E02DBE016B5E7F4FC70107
:104800000995009719F00CF0C3C0C6C0F701E08409
:10481000F184E8CF973009F4BFC0983021F481E0EB
:104820008093F100B5C0993009F0B2C0837009F0EF
:10483000B3C0E9E2F1E081E021E036E39081992321
:1048400061F08093E9002093EB0091919093EC004C
:104850003093ED008F5F873089F78EE78093EA0011
:104860001092EA008F8980937E0192C08B8D9C8D7F
:104870001092E9001092CC061092CB069093CA06D3
:104880008093C906898D811156C08E899D89913A80
:1048900059F4813209F080C047E050E061E071E0F6
:1048A00080E00E941B2274C0913209F075C08332EF
:1048B00089F4888D90E0982F88272F89822BA0E09B
:1048C000B0E08093090190930A01A0930B01B0938B
:1048D0000C015EC0803269F48091E80082FFFCCF59
:1048E00067E081E091E00E9442228BEF8093E80034
:1048F00006C0823209F04CC08F89809308018091F4
:10490000C606882319F0EEEFFAE002C0E0E0F8E016
:104910008091010190910201A0910301B0910401E5
:10492000803B9440A105B10509F088C08091080141
:1049300080FFA0C083C00E949E21DC0112960D91D1
:104940001C9113970115110539F1D801ED91FC91D6
:104950000190F081E02DBE016B5E7F4FC80109958B
:10496000811116C0F80100851185ECCF1130C1F01E
:10497000133091F48F89882309F455C08230E9F40B
:1049800040E860E18AEC9EE00E94302D882321F00F
:104990008EEF8093E80087C081E28093EB0083C0B4
:1049A0008B8D9C8D089711F41093C8068091C806D2
:1049B000811136C06BED7EE038C0813029F440E8CB
:1049C0006BE08EEB9EE0E0CF833031F70E949E21BA
:1049D000DC011296ED90FC9013978E010F5F1F4F34
:1049E0006801E114F10479F0D701ED91FC910680A2
:1049F000F781E02DB801C7010995080F111DF701D6
:104A0000E084F184EECFD8011C92F60101900020E1
:104A1000E9F73197BF016C197D0940E0C601B4CFB9
:104A20006DEE7EE002C06AEB7EE06115710509F46F
:104A3000B3CFFB01449150E080E833CF0FB6F89438
:104A4000A89580916000886180936000109260005A
:104A50000FBEA895EE3F2AE0F20739F08091FE0ADA
:104A60009091FF0A9183808393CF1092FF0A109256
:104A7000FE0A8ECFEE3F8AE0F80731F08081918107
:104A80009093FF0A8093FE0A87E797E791838083DC
:104A90009BE088E10FB6F894A895809360000FBE64
:104AA0009093600075CF6C960FB6F894DEBF0FBE82
:104AB000CDBFDF91CF91FF91EF91BF91AF919F91CA
:104AC0008F917F916F915F914F913F912F911F91A6
:104AD0000F91FF90EF90DF90CF900F900FBE0F904F
:104AE0001F90189586E0809362010895CF93C0913E
:104AF000CD06CF5FC093CD0620E04FEF5EE064E0CF
:104B000070E082E290E00E94921FC53B28F0109274
:104B1000CD0681E080936201CF91089565EF73E146
:104B200084E190E00E94DA1F88E00E94CF1F81118B
:104B300005C084E00E94CF1F882319F081E0809394
:104B4000620108956FE072E180E290E00E94DA1F56
:104B500088E00E94CF1F811105C084E00E94CF1F12
:104B6000882319F081E0809362010895CF9364EE69
:104B700076E180E090E00E94DA1FC0910D012EEFF7
:104B80002C0F45EA50E168E370E084E190E00E9478
:104B9000921F80E40E94CF1F882311F0C530A0F03F
:104BA00080E20E94CF1F882321F080910D01833085
:104BB00078F488E00E94CF1F81110EC084E00E942B
:104BC000CF1F811109C00CC0CF5FC0930D01E8CF8A
:104BD000815080930D01EDCF80910D018093620192
:104BE000CF910895CF93DF931F92CDB7DEB764EED8
:104BF00076E180E090E00E94DA1F2091DC064AE333
:104C000056E168E370E086E190E00E94921F80E444
:104C10000E94CF1F81110E94882880E20E94CF1F2E
:104C2000882351F01092DC0660E085E00E94891B29
:104C300060E083E00E94891B88E00E94CF1F811101
:104C400005C084E00E94CF1F882389F06091DC06B4
:104C500082E090E069830E941D2E6981681721F02F
:104C600082E090E00E94252E81E0809362010F9007
:104C7000DF91CF910895CF93DF93EC016CE370E067
:104C800080E090E00E94E91ADC01CB01CC96A11DE6
:104C9000B11D89878881813049F080F08230A9F484
:104CA00082E090E098878F8386E00DC083E090E0FB
:104CB00098878F8388E08C8389E006C085E090E048
:104CC00098878F838CE08C838D831B861A8683E084
:104CD000898380E48A831B8262E070E080E090E058
:104CE0000E94E91A21E0672B682B692B09F420E068
:104CF0002E83DF91CF9108950F931F93CF93DF936E
:104D0000EC0118818881811308C066E070E080E0C2
:104D100090E00E94E91A6883F5CF09811A818981A0
:104D200080131AC08A81811317C068E070E080E0A8
:104D300090E00E94E91A70E0FB01EE0FFF1FEC0FFC
:104D4000FD1F83818983FB013296EE0FFF1FEC0F5D
:104D5000FD1F80818A83E3CFDF91CF911F910F9157
:104D60000895CF93DF931092DB061092DA0610922B
:104D700057011092560188E592E0909312068093B5
:104D8000110640911A0630911B0620911C06909145
:104D90001F0680912106EAE2F6E0DF0116974C93A8
:104DA00011963C9312962C9311969C9311968C938A
:104DB0001082399656E0E036F50779F7C1E0C093E6
:104DC00015068EE18093130610921406D3E0D0935B
:104DD0001606109217061092180684E080931A06A1
:104DE000C0931B06D0931C0610921D0610921E063F
:104DF00010921F0610922006C093210688EF95E0BE
:104E00000E947C26C0935301D093540188E1809383
:104E1000510186E28093520110929805C093A40537
:104E2000C093B005C8E9D5E0CE010E943B261092A0
:104E300055012C9685E0C83FD807B1F730E1309393
:104E4000D80624E02093D90688E390E09093D50615
:104E50008093D4061092D7061092D6063093D206CD
:104E60002093D3069093CF068093CE068FE390E0F5
:104E70009093D1068093D00610923801109237019A
:104E80002FE130E030933A012093390197E390937A
:104E90003B0182E080933C0148E450E050933E01A6
:104EA00040933D013093400120933F019093410195
:104EB0008093420128E230E0309344012093430183
:104EC0004FE050E050934601409345019FE290939C
:104ED00047018093480130934A01209349012FE212
:104EE00030E030934C0120934B0190934D0180931F
:104EF0004E011092500110924F011092300187E044
:104F000080936201DF91CF910895DF92EF92FF923B
:104F10000F931F93CF93DF938091510190E0909373
:104F20003201809331018091520190E0019790937A
:104F300034018093330188E08093350180933601FA
:104F4000C0E0D0E086E0D82EDC9EF001DD9EF00DC2
:104F50001124E95CFE4FE080F180028113812481FD
:104F6000358140913101509132016091330170914E
:104F7000340180913501909136010E942B218111DD
:104F800004C02196C430D105F9F6DF91CF911F916D
:104F90000F91FF90EF90DF9008958091DC060895C7
:104FA000089565ED7AE180E090E00E94DA1F80E8E4
:104FB0000E94CF1F882319F087E080936201089533
:104FC000AF92BF92CF92DF92EF92FF920F931F9317
:104FD000CF93DF93CDB7DEB72A970FB6F894DEBF35
:104FE0000FBECDBF6DEB70E280E090E00E94DA1F53
:104FF0004AE09E012F5F3F4F7901B9018091DA06A7
:105000009091DB060E94E82DF70101900020E9F75E
:105010003197EE19FF09AE2E05E00E1BD12C002EA4
:10502000000C110B8D2D90E08017910774F434E182
:10503000D39EC001112420E04BEC5DE160E270E002
:105040000E960E94921FD394EDCF84E1809F600161
:10505000819FD00C11248EE0C80ED11CB12C0A2DDA
:10506000AA0C110B8B2D90E080179107C4F4F70167
:10507000E80FF91F208121331CF020532A3008F05B
:1050800020E04BEC5DE160E270E0C60134E1B39EEC
:10509000800D911D11240E94921FB394E3CF88E0EC
:1050A0000E94CF1F811105C084E00E94CF1F88237A
:1050B00019F081E0809362012A960FB6F894DEBF62
:1050C0000FBECDBFDF91CF911F910F91FF90EF9059
:1050D000DF90CF90BF90AF900895E0915D01F09187
:1050E0005E01908180915C01892B8083E091600159
:1050F000F0916101908180915F0180958923808387
:1051000008958EBD00000DB407FEFDCF8EB5089545
:1051100061E085E00E94891B61E083E00E94891BB9
:1051200081E08093DC0608950F931F93CF93DF9364
:105130001F92CDB7DEB7182F062F61E08BE04983B1
:105140000E940D1B68EC70E080E090E00E94C51B9F
:1051500060E0802F0E940D1B82E090E00E941D2ED7
:105160004981481729F0642F82E090E00E94252EA3
:1051700064EF71E080E090E00E94C51B61E0802F49
:105180000E940D1B0E94C51C81238117D9F30F902B
:10519000DF91CF911F910F910895CF92DF92EF92FF
:1051A000FF920F931F93CF93DF93DC01C090830195
:1051B000D09084014091850150918601E0917F015A
:1051C000F0918001209181013091820160E070E0D6
:1051D00080E090E001E010E06A177B0704F52115FC
:1051E000C1E03C0749F4F601E40FF51FE491F0E05B
:1051F0004F5F5F4F21E030E07F01E222F322EF2892
:1052000049F07801062E02C0EE0CFF1C0A94E2F76A
:105210008E0D9F1D220F331F6F5F7F4FDDCF3093A9
:105220008201209381015093860140938501F09380
:105230008001E0937F01DF91CF911F910F91FF904B
:10524000EF90DF90CF900895789484B5826084BD0C
:1052500084B5816084BD85B5826085BD85B581607A
:1052600085BD80916E00816080936E0010928100F8
:1052700080918100826080938100809181008160B3
:105280008093810080918000816080938000809174
:105290009100826080939100809191008160809361
:1052A0009100809190008160809390008091C10076
:1052B00084608093C1008091C10082608093C100AE
:1052C0008091C10081608093C1008091C3008160A2
:1052D0008093C3008091C00082608093C000809161
:1052E000C20081608093C20080917A0084608093C4
:1052F0007A0080917A00826080937A0080917A00AF
:10530000816080937A0080917A00806880937A002F
:1053100010927E011092C70610927C018091D700F6
:1053200081608093D70080EA8093D80089B580613E
:1053300089BD89B5826089BD09B400FEFDCF61E0F9
:1053400070E080E090E00E94C51B8091D8008F7CC7
:1053500080618093D8008091E000807F8093E0009E
:105360008091E1008E7E8093E1008DE08093E200E9
:10537000559A209AEEEFFFE7859194918B3F9C4DD3
:1053800019F481E08093C606CFB7F8948091760136
:10539000811127C0E7E3FEE08491EAE0FEE094910A
:1053A000E82FF0E0EE0FFF1FEF52F24FA591B491FE
:1053B000EC91E92321F461E081E10E940D1B61E0A1
:1053C00081E10E94891B8CB580618CBD8CB58064A5
:1053D0008CBD61E08FE00E94891B61E080E10E944A
:1053E000891B809176018F5F80937601CFBFC5E4E2
:1053F000DEE0FE018491229631966491882319F0B3
:105400000E94891BF6CF61E086E00E940D1B61E0DF
:1054100070E080E090E00E94C51B60E086E00E94A2
:105420000D1B6AE070E080E090E00E94C51B61E027
:1054300086E00E940D1BE2E3FEE0E491F0E0EE0F57
:10544000FF1FE85EF14F85919491909361018093E5
:105450006001E5E0FEE0E491E0935F01EAE2FEE056
:10546000E491F0E0EE0FFF1FE85EF14F859194911B
:1054700090935E0180935D01EDEFFDE0E491E09398
:105480005C018CB58C7F8CBD8DB581608DBD0E941B
:10549000E21CCFEDDDE01C2F165EFE0184910E9420
:1054A000812821961C13F9CF0E946D2880916400F9
:1054B00081608093640080916400826080936400C6
:1054C00080916400806880936400809164008064AF
:1054D00080936400809165008160809365000E94E4
:1054E000E21C80E10E94812882E00E9481280E94C3
:1054F0006D28C0E0D4E080E00E9481282197D9F790
:105500000E94C51C87FF3CC00E94E21C85EA0E94E5
:1055100081280E946D2840E060E080E00E94701BBE
:105520000E94C51C84FD03C00E94DC1AF9CF41E033
:1055300061E081E00E94701B0E94E21C84EA0E94EC
:1055400081280E946D281CC060E08BE00E940D1B2A
:105550000E94C51C8478843821F44FEF6AE00E94D1
:1055600094280E94C51C8471843121F440E069E0D4
:105570000E94942868EC70E080E090E00E94C51BD7
:105580000E94C51C82FDE0CF61E08BE00E940D1BF4
:1055900082E090E00E941D2E81110E94882860E028
:1055A00089E00E940D1BCEEEDFEF08E010E00E94C4
:1055B000C51C86FF06C041E061E081E00E94701BCF
:1055C00089C09C2E2CEFC21303C041E060E005C0EF
:1055D00038E1C31305C040E061E081E00E94701B28
:1055E0000E94E22040EF941694F40E94F1206BE1B7
:1055F00070E080E090E00E94C51B50EF95125BC008
:105600006AEF70E080E090E00E94C51B54C09E01EC
:10561000D7FF04C0222733272C1B3D0B27703327CD
:10562000CE01D7FD079653E0959587955A95E1F7FA
:10563000D7FF05C00197B801621B730B9B017C016A
:10564000F694FE2CEE24F794E79440E050E0380105
:10565000621A730AF701E058FF4F5F018F3FFFEFB7
:105660009F0744F40196485A5F4F7501403B51052E
:1056700089F7BBCFD701A45EBD4F60E070E08F3FDC
:10568000EFEF9E0709F4FEC0FB01E40FF51FEF5D8D
:10569000F24FE4916D01CA18DB08CE0CDF1CF0E07C
:1056A0002F01022E01C0440C0A94EAF7F601808013
:1056B00048284082E7C02196C931D10509F077CF4B
:1056C0006EEE72E080E090E00E94C51B61E08BE02E
:1056D0000E940D1B62E370E080E090E00E94C51B19
:1056E0000E94C51C8111F6CF80E180935F068091F6
:1056F00064008E7F8093640087EC80937C0080E25E
:1057000080937B0062E070E080E090E00E94C51B27
:1057100080917A00806480937A0080917A0086FD7F
:10572000FCCFC0917800D0917900C095D0958EE5DE
:1057300080937C0062E070E080E090E00E94C51BF6
:1057400080917A00806480937A0080917A0086FD4F
:10575000FCCF00917800109179000E94EF199B0115
:10576000AC012095309540955095009510950C9F73
:10577000D0010D9FB00D1C9FB00D11240E94522E20
:105780006B017C010E94EF196C0D7D1D8E1D9F1D0C
:10579000611571058105910511F00E94DF2D809141
:1057A0006400816080936400C0E0D0E011E02FB716
:1057B000F8948091770190917801A0917901B0914E
:1057C0007A012FBF20916806222391F02091600674
:1057D000F82FF21BF093690620915B0630915C066E
:1057E0002F5F3F4F30935C0620935B061092680654
:1057F0004091640650916506609166067091670657
:1058000084179507A607B70730F4481B4230A0F16C
:105810000E94DC1A31C020915F06AC01BD01420F2D
:10582000511D611D711D4093640650936506609380
:105830006606709367068093600690936106A09356
:105840006206B09363061093680680915D068093AC
:105850005E060E94C51C80935D060E94E220E091D6
:105860006201F0E0EE0FFF1FEC59F14F859194912A
:10587000FC0109950E94F120209709F498CF0E941D
:10588000000095CF2115310581F0FB01E40FF51FD4
:10589000EF5DF24FE491F0E0062C02C0F595E7953C
:1058A0000A94E2F7DC90ED29EC936F5F7F4F11963D
:1058B0006835710509F0E3CED5CE109279061092C5
:1058C000780688EE93E0A0E0B0E080937A069093AB
:1058D0007B06A0937C06B0937D0686E191E09093D1
:1058E0007706809376068FEF9FEF909383068093E1
:1058F000820686E291E090935906809358061092B2
:105900005D0610925E0680E180935F0610925C0651
:1059100010925B061092640610926506109266065D
:1059200010926706109268068DEC97E290939705A7
:105930008093960580E090E8909395058093940578
:1059400046983E9A47983F9A88E592E090931206CF
:105950008093110687E1809313061092140681E06C
:105960008093150693E090931606109217061092F6
:1059700018061092190624E020931A0680931B063D
:1059800090931C0610921D0610921E0610921F0680
:105990001092200680932106EAE2F6E0DF011697D6
:1059A0002C9311968C9311961C9211969C931196A0
:1059B0001C9211968C931082399636E0E036F307EC
:1059C00069F78FE28093FB0587E08093FC059AE4FA
:1059D0009093FD058093FE052AE02093FF0587E163
:1059E0008093000637E2309301068093020692E529
:1059F00090930306809304069EE690930506809399
:105A000006068CE380930706309308062093090668
:105A100087E380930A0629E220930B0680930C0605
:105A200020E520930D0680930E0690930F06809339
:105A3000100688EF95E00E947C2680E090E042E02E
:105A400033E026E0FC01E856FA4F4083318324839B
:105A50002583128613860C968036910599F7089552
:105A6000CF92DF92EF92FF920F931F93CF93DF932A
:105A70001F92CDB7DEB7182F062FE42E862F880F82
:105A80008E5F99830E94ED2183E00E94ED21F12E2B
:105A9000C12E9981D92E8C2D8F19801798F4F6017B
:105AA000E7FE02C0849101C080810E94ED21182F81
:105AB00080E00E94ED218123FFEFCF1ADF0A8111E0
:105AC000EACF01C081E00F90DF91CF911F910F913C
:105AD000FF90EF90DF90CF900895AA1BBB1B51E180
