:100000000C94DF110C9407120C9407120C94071235
:100010000C9407120C9407120C9407120C940712FC
:100020000C9407120C9407120C94C9280C943B29C9
:100030000C9407120C9407120C9407120C940712DC
:100040000C9407120C9407120C9407120C940712CC
:100050000C9407120C9407120C9407120C94FB31A9
:100060000C9407120C9407120C9407120C940712AC
:100070000C9407120C9407120C9407120C9407129C
:100080000C9407120C9407120C9407120C9407128C
:100090000C9407120C9407120C9407120C9407127C
:1000A0000C9407120C9407120C940712CF183518F1
:1000B0004F19C819381AEE19651A6D1A28312B31E3
:1000C0001A311E3122314C314C314C312F31333108
:1000D00037313D3141314C314731101022004280DF
:1000E00061008100A100C100E10001811E813A810F
:1000F000588175819481B381D281F081387CE43854
:1001000000E010289428142854A850A000000003F0
:100110000C10536479A4B4445962450A00C0CCE37E
:1001200091FCE603058A858A850A020001F065C014
:10013000A13247BB0A859CA750A150E0F090E00097
:10014000E010289428142854A850A00001030408A3
:1001500010536479A4B4445962450A0E7F9F0E80FF
:1001600060305828582850A0408000000001060B3D
:10017000142B70B00B98A872050A0000387CE43884
:10018000E010289428142854A850A0000000030C64
:1001900010536479A4B4445962450A2C42082410CF
:1001A000E234281428142854A850A0000204080897
:1001B00010536479A5B4445962450A18428100007D
:1001C000E0916A1C28142854A850A0000010202098
:1001D00040436479A5B4445962450AD050FE04C036
:1001E0009281428142854A850A000D046C0A43646B
:1001F00059A5B4445962450AD050FE04C0928942C0
:100200008142854A850A0D060C0A43645885B44428
:100210005962450AD050C0B7088944A940A14AA5EF
:100220004A850005F0200C0A41625C829A425C61BA
:100230004205D050C0BE090289428142854A850AE2
:100240000004710C0A43645885B4445962450AD0CD
:1002500050C0B7088944A940A14AA54A85006F54F7
:10026000F8100C0A41625C829A425C614205D050EF
:10027000C0BE090289428142854A850A006FA8F8FA
:10028000210C0A43645885B4445962450AD050C0D1
:10029000B7088944A940A14AA54A85006F88F8217A
:1002A0000C0A41625C829A425C614205D050FE04B5
:1002B000C09289428142854A850A000F90700C0ADB
:1002C00043645885B4445962450AD050C0B7088188
:1002D00044A940A14AA54A850006000C0A41625C77
:1002E000829A425C6142050E1012802A8042805B35
:1002F0008073808D80A780C1800888C05F0A828358
:100300008F0888D050C09F811127AFE7F7EFC780D3
:10031000000622C05E0507070E0228D0405C0930A7
:10032000D3157CFC7FFC78700000488C05F0A82871
:1003300038F08220009C063018117A7EFE3F7CF750
:1003400080000822C05E0507070E0222D0405C092B
:1003500030D3157CFC7FFC787000D050C03C224527
:1003600085C031CB8F08D050F7E4C0679FE7E7DF47
:10037000C781F02000060C0361922C7C048E5C780F
:1003800090D040BF1C5F3C3C043F3EFE3C010090CF
:100390000C0361922C7C048E5C7890D040BF0C7F63
:1003A0003C3C043F3EFE3C0100060C03C224585C6A
:1003B000031CB8F08D040AF185C0679FE7E7DFC72B
:1003C00081F02020201A807180C1801A816781BD50
:1003D000810A826082B28203835283A183D05069F2
:1003E000E04E096D0409C07E060B050B878F09D00E
:1003F000B01C0B31F575713FBF9FDFCEACA04C0B2D
:10040000130F3EFDEAD5AAD56F7C30D060557C0A2B
:100410000C1E3E7BF17CBE9ECCE13F1FD04011D034
:10042000D099C05F0FCFE0F0FAF0FC060F3F3F30ED
:10043000F0F0D0C0D060C0930B83CFCFCFCF8F0E62
:1004400009C09985CAC5EBE7FFEFCF09D0B066C1F7
:100450004C65E4FAFE7D7932BE9F534E3C71A35247
:10046000B171F0F0F7D08011BAC070F0E0FE7F3FBC
:100470009FC3C037BFCCFAD1509933C047FC7FDF50
:10048000E3BD0D00D05069E04E096D0409C07E0641
:100490000B050B878F09D0B01C0B31F575713FBF71
:1004A0009F5F4EACA04C0B130F3EFDEAD5AAD56F53
:1004B0007C30D060557C0A0C1E3E79793E9FCFE699
:1004C000F03F1FD04011D0D099FF0C04F03E0F0F29
:1004D000AF0FC070F3F3F3C30F0F0D0B00D060C06C
:1004E000930B8BCBC3CFCF8F0E06C0930F8F8ECDC8
:1004F0004AE5CB8606D0C0C1586CEDECEAE67379CC
:100500003DBDB9434E30F3F7F7D3A351B1E5D06009
:10051000F02F0211101BAC08EFEEEFE7F3F9FCCF60
:10052000D1609933F83333ABD0D0D060C0970F8F00
:10053000CFCFCFCF8F0E0960C0A187CEC56AA57A75
:10054000B5EB8E06D08066C0DC75F4FAFE7D79329C
:10055000BE935E4C2021AC081E353A151A0D0F06CD
:10056000D040F02F0211BAC0A0F0EEFE7F3F9FCF27
:10057000BFC0FBD1609FC333F7FFC333FFED0E0055
:10058000D0B09C08E0707878787870E0D1306C0C4E
:10059000E0F0F777E7ECCDDDDCFDDC8F6D120BAA28
:1005A000AC0C06F3F5F5EBEB97D3273F7E786C05A3
:1005B000E0F0F0E0E0996D09099FFE33BBF0F33FF6
:1005C000F890C08060F0F1F1F3F3F1FA10D0A06977
:1005D000E04E096D1008D044800BF3F3F7FF7FF372
:1005E000F3FDFC03DF6EEC9D0A0C0F84C2C2E1E157
:1005F000F1F1E28264783E2FF7F833F3F33F0CAB6E
:10060000D040600061AC081F3F3F1F1F0F0F06095D
:10061000FFE33BF02BF0F3FFEFF0955C0324221196
:1006200045F061D0A069E04E096D10062F48F482B4
:10063000600BF3F3F7FF7FF3F3FDFC03DF6EEC9D3C
:100640000A0699FE0C04E0F0F0E06C0660783E2F9C
:10065000F7F833F3F33F0CABD0901AC081F3F3F10A
:10066000F1F0F0F0609FFE33BF02BF0F3FFEFF09C5
:100670005088440000D060C08E0F0F8F8F8F8F0E78
:10068000096C09185CAC5EBE7FFEFCF09D0B066C2D
:100690000CCF7F5FBFEFDF972FEB37E4C3AC071AB8
:1006A000352B171F0F0F7D060F02F0211BAC0A0F11
:1006B0000EEFE7F3F9FC3BFC0FBD1609FC333F7F5F
:1006C000FC233FFED0E0D060C09F038BC3CBCBC3E5
:1006D0008F0E060C09187CFCF6EAD7AE5CB09D0BB9
:1006E0000C0D878EDE4E2EA6D6D38B2BF424C21A89
:1006F000C071F3F3E1D1A0D0F7D070110BAC090FAA
:10070000EEEFE7F3F93CFB0CBD1609FC333F7FFC31
:10071000233FFED0E0D060C08E0707878787870E13
:100720000900C09187CFCF6EAD7AE5CB09D0B0C0BC
:10073000D8F9CFD5C3DADDCD7AF2FF424C21AC0730
:100740001F3F3E1D1A0D0F7D070110BAC090FEEE2F
:10075000FE7F3F93CFB0CBD1609FC333F7FFC2334F
:10076000FFED0E00D060C09F038BC3CBCBC38F0EB9
:10077000060C09187CFCF6EAD7AE5CB09D0B0C0D9C
:10078000878EDE4E2EA6D6D3AB2BF424C21AC071B0
:10079000F3F3E1D1A0D0F7D070110BAC090FEEEF5D
:1007A000E7F3F93CFB0CBD1609FC333F7FFC233F0C
:1007B000FED0E010101A80328049806180798090EC
:1007C00080A980C380DC80F5800F812A81D040C061
:1007D00071C225DC94972DC26D090AC05ACDB1FBB8
:1007E0000D64F0F000000C071C225D49C972DC2288
:1007F00026D080AC050CBBDF280B5A00D040C0735C
:10080000844BA9292E4B866D090C06062956BFD0AC
:10081000164F0F00D050C071C22DD49C9B25C26DC5
:10082000080C0787EC1B1F282B68A000D050C0794C
:10083000CA2DDC9C9321CD080C070F1690CE3D9E4F
:10084000EFD050000C073844BA92926438D080C080
:1008500091E2D211E83ED1D1EAC9D040000C077034
:1008600088742424C870D060C0A7884B484780583B
:100870003CF3EBC9D050D070C077088742424C8718
:100880000D0505C0750A0A0B088F5FB3F7C000D0CD
:1008900060C077088742424C870D0605C0950A0A5A
:1008A0008A889F5FBFE7C000D060FE04C05E84847A
:1008B000890E20500054F609C07E0D18AF6FEFD797
:1008C000C000000500C08027088742424C870D0405
:1008D000054F609C04E0D088F533F7C000D070C0AD
:1008E00077088742424C871D0505C0750A0A0B0828
:1008F0008F5FB3F7C0000E1022803C8054806C8064
:1009000086809D80B380CD80E68000811981318111
:10091000488160817881908100057C0805E9521C3E
:10092000F10C5228000F06F0F5C05C43E1F7F81D0A
:100930000400057C0806E9521DF00D522800080449
:10094000F608C045BBF1D3826000D0407C0705E8C3
:10095000521DF04D325001C071C1888443EBF5F156
:10096000D0400802455C07D4A438E214A85000F037
:10097000FF0E7C0688483D1E3EC3000000057C0833
:1009800005E9521CF10C1228D0605C0588E53F9FF8
:10099000FE0000D050C070C06EA521CF12E45D05EE
:1009A00007C0548A43F1FFD000D040C0806E95014B
:1009B000EF10C1228D040F18F240C063225251F192
:1009C000EFC000D04077C04E8531CF15F26404F4FB
:1009D00040F8200C05C4251F1FFE00000066F90525
:1009E0005C07D4A438E214A850001BF05C0605C8CC
:1009F0003D1E3EC300000009C0AD0C888D2A438E09
:100A000001CA250D040B7C05C83D1E3EC30000D065
:100A100040455C07D2A438E01CA250000C07060E2B
:100A200009C83D1EFEB000000577C07E9521CF00AD
:100A3000E5128D040F0EF1C45FFDF1F3D040D040FC
:100A400057C0805E9521CE10C12286FA005040C06A
:100A5000496FB1FFE000D04057C0805E9521CE10B5
:100A6000C122862F900500C0496FB1FFE000D04041
:100A700045C080AD2A438C218245060FA00040C0AE
:100A80004ADF61EFD000D04045C080AD2A438C21C1
:100A9000824500068000C04ADF61EFD0000E1022C0
:100AA000803C8053806D8084809D80B580CF80E8BD
:100AB00080FF8016812D8143815B8173818B810052
:100AC0000F887C0805E9521CF10C5228D0401F0603
:100AD000F185C04C5271F1E822D050C070CD0A634C
:100AE0008E698644D050C070F30110A4EBFFC000A3
:100AF000000F905C080AD2A438E2182450D0401CA1
:100B0000070E18090ACE3F7C6000D0409C0706E81B
:100B1000531CF34C325D060F0F7C0545A71F1E606A
:100B200060000FC87C0805E9521CF10C1228D05057
:100B3000AC060C84E53F9FFE0000D04075C07D2AC6
:100B4000438E2182450D040F0275C0589E63E9FF54
:100B5000C000D050C082448F21C12EC5228048F4ED
:100B60008C0848241482FE1F1FFE600062882C0837
:100B70008850E43824D8A45000011F02C060284FD8
:100B8000D1E1EFD60000045C080AD2A438E21824B0
:100B900050D0604C0589E63E9FFC000000057C08B3
:100BA00005E9521CF10C1228D0605C0588E53F9FD6
:100BB000FE000000057C0805E9521CF10C1228D04B
:100BC000607C0588E53F9FFE000000045C080AD2B7
:100BD000A438E2182450D070C0591EA3E9FFC00009
:100BE000D04057C0805E9521CE10C12286FA0050B9
:100BF00040C0496FB1FFE000D04057C0805E9521F2
:100C0000CE10C122862F900500C0496FB1FFE000D1
:100C1000D04045C080AD2A438C218245060FA000FC
:100C200040C04ADF61EFD000D04045C080AD2A43CC
:100C30008C21824500068000C04ADF61EFD00010A1
:100C40001022803E80578073808B80A780C080DA1E
:100C500080F4800E81278141815A8174818D81A722
:100C60008100F18000C09E0D068D4E8D4A850A02DE
:100C7000D070BC05065B4B3B221F02F050000F06F4
:100C80000069C05A050A050A026D070B7C074F5719
:100C9000A6350A050A0000F60000C09E0D068D4E1E
:100CA0008D4A850A02D070BC05065B4B3B221F02B1
:100CB000F050D05069C05A0D0A0D0A026D070B7C26
:100CC000080F4FF4675705020500000F1800C09E7B
:100CD0000D068D4E8D4A850A02D070BC05065B4B11
:100CE0003B221F02F050D0609C08D0E8D4E8D4A882
:100CF00050A02D070BC05065A4B3B221F02F05D032
:100D000060C096090E0D4E8D4A850A02D070BC0552
:100D1000065A4B3B221F02F050D060C09E0D0E8D34
:100D20004E8D4A850A02D070BC05265A4B3B221FC5
:100D300002F050D060C09E0D068D4E8D4A850A028D
:100D4000D070BC05277A4B3B221F02F050D060C008
:100D5000A7068B46AF4EA54A850A0D0701C052373C
:100D6000D653D2101F02D060C0960D068D4E8D4A0C
:100D7000850A02D070BC05277A4B3B221F02F05037
:100D8000D060C0A7068B46AF4EA54A850A0D070165
:100D9000C05237D653D2101F02D060C0960D068DB8
:100DA0004E8D4A850A02D070BC05277A4B3B221F24
:100DB00002F050D060C0A7068B46AF4EA54A850A08
:100DC0000D0701C05237D653D2101F02D060C09E0B
:100DD0000D068D4E8D4A850A02D070BC05277A4BD0
:100DE0003B221F02F050D060C0A70E8B46AF4EA52D
:100DF0004A850A0D0701C05237D653D2101F020E82
:100E00001012801D80288033803E804B8055805F8B
:100E100080D050F50FD09D0B0111D060D050FA0654
:100E20006D0B0F02BBD060D060F50FD09D0B011190
:100E3000D050D050FA066D0B0F02BBD060D0609C32
:100E400003A0F0E02D0A011D0500D060C0460D0F83
:100E50008708D110D060C0460D0F8708D110D06030
:100E60009C03A0F0E02D0A011D050020201A8042FD
:100E7000806E809680C380EB800781178127814B2D
:100E8000817B81AB81D13062FA026D0E0C040E0AB7
:100E90008A8E92F608F30D0501C0502152A552A486
:100EA000D0D017C060E834161331ED3000D070296F
:100EB000D0808F50FA026D11011F304C0518286C3C
:100EC000D4165900C03050A145D130C03180C06B1C
:100ED0000F84BD1D0F021D0F00D13062FA026D0E8E
:100EE0000C040E0A8A8E92C0360A0B0D0501C05002
:100EF0002152A552A4D0D0106C05C16030190FD377
:100F000000D06092229D0804C032850A026D0D0156
:100F100011C08311198C86C2424609D040C03020CE
:100F200050A7D1104F114C03180C06BD2E00D14014
:100F30004C05A854A854A02D0E0C07305018286C4E
:100F4000D4169D0501C050A050A0502D0E04C031F4
:100F500080C06B7BD2F0D0D0D066D1805C071813F4
:100F60003222230223D190C070C0A0A1414682CD7D
:100F70002D00D2D0669088F90D1905A009D1E01D89
:100F80000F00D2D0669088F90D1905A009D1E01D97
:100F90000F00D1108F50FA026D1308248C0368D013
:100FA000149000C03050A145D1204C03180C06BF4E
:100FB000C4BD1D01D110D070929229D0705C041470
:100FC0002850A02D0D011C0731D159292C74D409AA
:100FD000D0501C03020502D0F0F114C04180C06C57
:100FE00037BD1C01D110D070D066D0705C041428BD
:100FF00050A02D0D0BC080223C252232850D009D76
:101000000501C03020502D0F0F114C04180C06C3E1
:101010007BD1C01D1100D070929229D0705C041455
:101020002850A02D0D011C0731D159292C54D40969
:10103000D0501C03020502D0F0F114C04180C06CF6
:1010400037BD1C01D11010101A802D803E805280B7
:101050006280748088809980A780B580C480D180A8
:10106000D050C051C2236B68C06D0B0B70C030F004
:1010700090F000D040C051C2236368C0666D0A0B77
:1010800070A7A000D050C0538446C6C18D0D0F0676
:10109000F090C030F090F000D060C051C22B63647B
:1010A000C66D0A0B70A7A000D060C051C223636058
:1010B000CD0A0F09F0F1F021D060D040C053844632
:1010C000C6C18D0A0F12F1E00F02F02D0700D040CB
:1010D000C057088D8D830D080C03784878D0C0D098
:1010E00080C057088D8D830D0C057D0500D070C024
:1010F00057088D8D830D0D057D0500D070FE04FB16
:101100000FB0F60D0C01F091D050D080C057088D73
:101110008D830D0C05D060D080C057088D8D830D58
:101120000C057D05000E1022802980308037803F1D
:101130008046804D8054805B8063806B8073807AB2
:101140008084808E809880D070FA0FE0D130D050AB
:10115000FA0FE0D150D070FA0FE0D130D08029D012
:10116000C011D040D070FA0FE0D130D080FA0FE03B
:10117000D120D060FA0FE0D140D070FA0FE0D1302A
:10118000D08029D0C011D040D08029D0C011D0400B
:10119000D08029D0C011D040D070FA0FE0D130D02B
:1011A00080FA0FE0D0B057D050D080FA0FE0D0B026
:1011B00057D050D08029D0B04F091D0400D08029CD
:1011C000D0B04F091D04000E1022802980318039D3
:1011D00080408047804F8056805E8066806D80743E
:1011E000807C80868090809A80D070FA0FE0D13029
:1011F000D07029D0C011D050D07029D0C011D0509B
:10120000D070FA0FE0D130D070FA0FE0D130D0704A
:1012100029D0C011D050D080FE0FE0D120D08099CD
:10122000D0C011D040D07029D0C011D050D070FAA9
:101230000FE0D130D070FA0FE0D130D07029D0C09B
:1012400011D050D080FA0FE0D0B057D050D080FAF3
:101250000FE0D0B057D050D08029D0B04F091D0436
:1012600000D08029D0B04F091D0400201B0480D27B
:10127000406C0AF0F8FCFEFEFEFEFEFEFE33E03F90
:10128000CE03FEFFCC04FCF8F0E09D0409FE0FFC49
:10129000D193FFEFE0001D1DA0201B12806780BED0
:1012A0008026817C81DB8138829482D090606600C8
:1012B000666D1106C0370180C7AC0483F9390FBED3
:1012C0000381C038F8C87AC060F3B226244CC4F752
:1012D00009009F70F1DAB111F81C0381E0304F1161
:1012E000F1188FE001C0483C2F01855C050B0EC34F
:1012F000CD3E9BF06D060AD0901AD070F02B00A066
:10130000D0406992D0706F608296D0E0C04E3B951D
:1013100081C7C060C063272E28311C0D212E2C26CA
:101320006646C202020C38E2025F1809F70F1CA1E0
:101330000069F4CC054C48C8898848FE00F18F0C40
:101340007C060602C2381A06AF0CF389BF06007B82
:1013500011D0601B7D0E0A02C03603030800600234
:10136000F608C03B090906D05066D0809F6089C04E
:10137000BB80C0B0FDF3C62821B0D0C7C0505143D8
:10138000C28784C0511B0E3468460009C0371180E3
:10139000CA000669F60F60229C07880C060202024A
:1013A000067C0360390EAB7F1CFF0BF06D040A1145
:1013B000D060F02A7000777C03060202000A00D099
:1013C00060F1CF1CFC8D12066D06066FF85C0518E7
:1013D000191F063ABAC08416322263636060C7F8E8
:1013E00085C0530E07B73C2006C03E03E1AB0C039B
:1013F00060380C77F46F867F0C4668C04703213154
:10140000140F38BF026F83FFE9AB00B01D0501B0B8
:10141000001D0B01AB000BB5F18800066692D046AB
:10142000D080F30F30D050C03F0780C77C0787863D
:101430001399988912BBF02C0B028787028E88982B
:10144000D030C283D040C03F0780F007F06BF81F58
:101450008199F41FC16007A1C0381C1608F622202C
:10146000F87FFC9A1F02AD0407A1D04011AF067DA2
:10147000090A1F06F30470F0274200066996966D6C
:10148000080202D060C07F0486C1D141A1AB1C0814
:1014900081E16021303133167F0C5C033C24E10094
:1014A0000BBC0638E83B1F81E086FE0F30444F310D
:1014B0008F602900F70F1855C03180C05AF0EFFE39
:1014C00020F06A00100AD0A01BF067D070F05AF02C
:1014D00060006D0B0D046D0E0F60F420092C12706E
:1014E000180C0606474263213021E0C18F1A3EF8EE
:1014F000A08FE060F02F9060C04E0A01806B06C0A4
:1015000068C86020202020C1190F03C2C0D05060DD
:101510006068589302306CCF8C10F06A007A1B1B05
:10152000F02F0600AD050A11D050BF0600D080662E
:10153000066D05066D0F0C0570588E02051C0B819B
:10154000F9390F028381818F8D87AC080E0A1A1436
:101550007CD830606009F7CF1FAB1C0461D139091A
:10156000555F0DF1D7F0C5C0678C18382F0185C0C5
:10157000688CBCEC70D389BAD040A117F027D0801A
:10158000BF060001D050A010080600160060B88EFB
:10159000534181A5814141419581613D0760B88EEC
:1015A00043458191814149418193613D0706030291
:1015B000011E0202002D030201370302024603024C
:1015C000030708040042DB341C34DB420C0D1C0012
:1015D00034004C0064007C009400AC00C400DC804B
:1015E000F3800A8121813501183CF6329A1E9E9EB5
:1015F0003EFCF8001010030C11141509041311100F
:10160000183CF6329A1E9E9E3EFCF8001008130C01
:1016100011141509140B09100C1EFB19CD0FCFCF97
:101620001FFEFC0010081106080A0A04120908101F
:101630000C1EFB19CD0FCFCF1FFEFC0010100106B2
:10164000080A0A040211101000F8FC3E9E9E1E9A21
:1016500032F63C1810111304091514110C03101064
:1016600000F8FC3E9E9E1E9A32F63C1810090B14A0
:10167000091514110C13081000FCFE1FCFCF0FCD5D
:1016800019FB1E0C10080912040A0A08061108109A
:1016900000FCFE1FCFCF0FCD19FB1E0C1010110246
:1016A000040A0A080601101000C09F83C969212995
:1016B000A9E3CF8044A5C0511151415115F17400E7
:1016C000C09F83C9692129A9E3CF8044A5C04111E6
:1016D0005141445F174000C09F83C9692129A9E394
:1016E000CF8044A5C0511191819115F17400C09F24
:1016F00083C9692129A9E3CF8044A54E031445F18C
:1017000074183CF6329A1E9E9E3EFCF80010081398
:101710000C11141509140B091008081A002280274F
:101720008029802E8032803480368038803F80440B
:10173000804680001C3C78783C1C00000F7CD04028
:10174000D080D040F7C00000505000D080D080D072
:1017500080D040C0302061C0D040F0C000D08000B8
:101760000F0CD04008081A0022002A8030003800F0
:10177000408047804B8052005A80618065801C22E7
:1017800042848442221C00007C82FE3C0000000F48
:10179000FEFFE00000003CFE827C000042DB341CC7
:1017A00034DB420000C035A3CDB0000003D04000C0
:1017B000C03DB3C5A0003C7EFFFFFDF9623C00F3D5
:1017C000C3FF3F3C000003300000F3CFF33F3C0079
:1017D00004050A800D001180140000F0C0000C0CFC
:1017E000000F0C00000C0C0004050A000E00120093
:1017F0001600000D120C0D12120C0C130C000C1222
:10180000120D08060A80118016801D80178F09F2BC
:1018100040F0A0174F2A85470F1178F2A0F09000F2
:1018200085F24400071804800FFED05103D050FF0A
:1018300003FF0D04001A0D0A80358065809580FF36
:10184000E1C033D093D1C0335252D1C033D253D13F
:101850001C0681C121314989D041FFEF0FD0E4C07E
:101860006131716141413D044F0FFFE1C033D151FE
:10187000D1C031D253D1C031D253D11C088183851C
:10188000D541E9C18111FFEF0FD0C4C0B121716111
:101890005151517161616134F0F0FFE1C031D253B7
:1018A000D1F3D1F3DF211C0DC12121519129C9159B
:1018B00065850911E11FFEF0FD0B4C0C1314141586
:1018C00014141514121212114F0FFFE1C033D093EC
:1018D000D1C033D21211C03053D051C0A81412124B
:1018E0001E111190D05051FFEF0FD0B4C0612151A3
:1018F0008141211D074F0F802E0480D081F0277F6A
:1019000002D091F06D045D05457F06BD0A1F02F10E
:10191000C84557F06BD141F02F067F0CF18444F19C
:101920008F0C777F0C5F0CF06B1F81F7DAD0B1BFA3
:1019300002F0277F02D0B1F02777D5B045AD240C57
:1019400004E0A060E0888C052C2AEA2A2CD048FE0E
:101950000D0E0C04F050B0F0D064FF04C053050B22
:10196000050F0D0F0C04F050B0F0D064FF04C0530D
:10197000050B050F0D0D0C04F050B0F0D0C4FF0D99
:101980001203FAAF553D05038F60D0403D0E0C1198
:101990007F556A5F5050505050515F5050505051D9
:1019A0003FD0F0C117F556A5F5050505050515F558
:1019B0000505050513FD0D0C117F556A5F5050504C
:1019C0005050505050505050503FD10022C117F647
:1019D000A554F48484848484F4848484848487FD7A
:1019E000222C0770505050505070D392C07705058C
:1019F000050505070D042D070D068D080D068D083C
:101A00000D068D080D068D080D068D080D068D0836
:101A10000D068D080D068D080D068000796F757214
:101A2000206E65696768626F72686F6F64206973A2
:101A30002073616665206E6F770A796F7520686123
:101A400076652062656174656E20616C6C207468D7
:101A500065207363756D0A6772616E6E7920616EC1
:101A60006420746865206C6974746C6520676972A1
:101A70006C0A66696E616C6C7920636F6D652074A9
:101A80006F2072657374006E65772068696768738C
:101A9000636F726500796F7520776F6E00080804B8
:101AA000003C7EC3F5F5C37E3C7061757365000331
:101AB000044A004D0050005300560059005C005F7E
:101AC000006200650068006B006E007100740077B2
:101AD000007A007D0080008300860089008C008FE2
:101AE000009200950098009B009E00A100A400A712
:101AF00080A900AC00AF00B2000F090F00020F0D6B
:101B00000D0B090D0F03020F0B090D0F0A0E010536
:101B10000F0F0D0F0B0B0F0E050E0F0B0C06090907
:101B20000F09060F0B090F05010F090D0F040F0018
:101B30000D000509070F020D0F08080F020F0F0116
:101B40000E07090F0F05070F09070F050A0B090DEF
:101B5000010F010F080FA5A00F040F090609030CC0
:101B6000030D0B0907081A801D80218026802B8019
:101B7000318037803D80428046804A804E80D060F0
:101B8000B0D060F3E0D04022F38000D042F30000F8
:101B9000F0FF0E000000F3FF1E000000F71F6400BE
:101BA0000000FC890000660066006D040600080263
:101BB0000000002D04007A340480D1209D112C04F3
:101BC000584848C85C20A8E8A8C8E8E8C8A8E8C8F9
:101BD000EAEAEAEACA0AFA02BA72F2EAFAF26A72BD
:101BE000BAFAB25A02FE0E03D0F90C0790D0D0D048
:101BF0009050904FF00229D0409D0729D130FFC767
:101C0000C14A454E4D4F4E464F474B464D4F4F4EA6
:101C10004F554A405FC1C0EFE1DDE5F5E5C5EDD1C7
:101C2000FFEFEBF7BD5030F0BFFBBF6BFF733F6FB3
:101C3000FD7BC07FB0A6969EBE8AF2C0DBAF2EAF02
:101C40002FAF2F27AFAFAEA720230C0D15131717FB
:101C500017171513D51796D0DF930F7FD042F7F0E3
:101C6000FE7FFD3FEFFD6030FF4C0DF4E4D4F4F453
:101C7000E4F4F4F4F4F4D4A47FFC0030FD5FBE334C
:101C8000C1BF7EAC15C95D4559415F405F505B4F98
:101C90004F7B07F38DB7ABAFA3A7BB87F33FAFF77E
:101CA0003030030F7DFFA33FDFF9C030C12325ABE8
:101CB000AF26AF2FA7A7ABA7AEAF270FE7FBD56027
:101CC00030C0D5090D0D0D0D0D090D790D317F7A3F
:101CD000C0A7F1EDE5F5F4F57CE1D7E333FEA030E4
:101CE000C0BE7E0F475F5F5E5C505FD0577F057A56
:101CF0000030C0354BB7F3C0857AB05F31517131D8
:101D000014F1F0F7F2C054B575F5D5A2C067E02024
:101D1000202027E2C054B5F4F574B2F7F00F0F5C41
:101D200006090A090B0B0A5F0F0E0C02C081A121E4
:101D3000212121212134E0417C0915131717575324
:101D400051505F2F5D2F7FD040F7F2C054D5E5F49E
:101D5000F462F7F03C0DF174E575F5F5E474F7F411
:101D6000F4E4C47FFC00A7F057F057F0577AD1F0A5
:101D7000C033C2C300C030C380C000F1C8F1C0C0CE
:101D800033C2C240C033C14280F3407F3C70C03395
:101D9000814380C03342C240C03342C24D120A77F1
:101DA0007E05057E05057E030577AD1E0FF05E03FB
:101DB000685FF85FF8000FF05E03685C07F888B0B2
:101DC00030B088F8D0D0FF05F782F705FF85F68C94
:101DD0000468E828F85FF8000FF05E03685FF8D346
:101DE000B0A5F0F111A5C050B0A0A0A0F5F0F1A5EC
:101DF000F0F0A5F0FD0F0A5F0F1A5F0F5E030BF006
:101E0000AF0F5C050B0A0A0A0F5F0FD041D1E070DB
:101E100061757365006C6F776572206C616E65002B
:101E20007570706572206C616E6500776561706FAA
:101E30006E2073656C006D6F766520706C617965DE
:101E4000720080400480D040692996D070699296D3
:101E5000D360FF87C03F424F47C03D494B47C03F1B
:101E6000494F4D047C0484C42424D047FF800C03D4
:101E7000F090600FA000FF060C037090F00FF02FA1
:101E8000F0D090C030F19308F39C0339190FD05073
:101E9000C040F1939398C0330190FD068D2F0F3F02
:101EA000D0E2C064E5F5850514ED042F3F00C03392
:101EB000C2C240F2800F3C7F380C031C243C0F3C14
:101EC0007F380C033C2C24D040C0878ECE60202E5F
:101ED0006EC78D050C0878DC9E02029EDC78D3501C
:101EE000FF87C03F454747C037494F47C037494F35
:101EF0004777C030C14547FA4D047FF800C03F091D
:101F00000600FA000FF08FF00FD00C03F090D00F06
:101F1000F08FF0D0609C06E031515131E09D070D0B
:101F200004100D061D2F0F3FD0C2C0B485C5A56596
:101F30006575D5B5B5A4C2F3F00C033C2C240F286D
:101F400000F3C7F380C031C243C0F3C7F380C0338E
:101F5000C2C24D040BAC048C8F8F8CABD135D2F048
:101F6000C1AFC023A4A7A027A027A4202824242AE7
:101F700022252922ACA0A1222C202FC00C037848B6
:101F8000300F5000F7820C033848780F788F78D0E4
:101F900090C081E3F606A6A753F1ED132D2F0F1F76
:101FA000D0A8C0D212628282B28292A282524242EF
:101FB00038F1F00C031E16120F1400C0316121A07D
:101FC000F1E440C030E121E0F1E5F1ED040C08F06E
:101FD000F80CD4D40CF8F002FE020C03F0D8CC7745
:101FE000C03CCD8F0D350C1AFC027A127A027A426F
:101FF00042020A7A0A0202824242C222321A0A0AC1
:1020000002FC00C037848300F5000F784F780F681A
:102010000C037848680F784F78D0701D04B1D070E9
:102020001BF02F02B10E0602D2F0F1FD0B8C07243B
:102030002A3128242221D068F1F00C031E16120F39
:102040001400C031E16120C03120C120C031E0A0C6
:10205000E0F1E4400F000F002C013C000A000F00EB
:1020600096002C010305160019001C001F00220019
:10207000250028002B002E0031001F111F021F0019
:102080001D151711151F07041E17151D1F141C0100
:10209000051F1F151F17151F0403090441726475DE
:1020A000696E6F204C4C430041726475696E6F20FD
:1020B0004C656F6E6172646F0012010002000000D7
:1020C000404123368000010102030112010002EFAA
:1020D000020140412336800001010203010D10205E
:1020E000003A0054806C8085809C80B580CC80DD77
:1020F00080F1800581148126813B015581FCFEFF22
:10210000FFFF0F8FCFCFDFDFDE8C3F7FFFFFFFF0C2
:10211000F1F3F3FFFF7F3FF0F8FCFEFF3F3F3FFF8F
:10212000FEFCF8F07FFFFFFF7F0F0F0F7FFFFFFF29
:102130007FFFE333FFEFF89FF8FFE333FFEF7F33D9
:102140003F7FAF0FAF7F333F7FFFED043E03CFC034
:1021500068F0F0F0F067FD043E03F3C05F1F0F0F5F
:102160000600FFCFFE333E031F333C04FEFC3F7FDF
:10217000333E03F8333F7FF3F0FFE333FFEFE00F2D
:10218000E0FFE333FFE0AC031F3F7F333C037F3FBF
:102190001FA0FFE333E05CF333FFEF7F333C057FA9
:1021A0000F1F3F7F3C03FBF361FFE333E05EF3333C
:1021B000F7EF7F333E05F7333F7FFFE333E08CFCDF
:1021C0000A8661F3F3F3F3F3F3F3F3333F7FC04095
:1021D000E1F1F1FD053E031FF0ED040F7F333F7F7A
:1021E000D040D040FFE333FFED080F7F333F7FD077
:1021F00040C0560F0F8FCFE333FFED080F7F333F03
:102200007FD040C0986CFCFCFCFCFCFCFCF333FF72
:10221000EF7F333E08F3F610060F0F8FCFCFCFCFEF
:10222000CFFFFFFFFE60F0F0F1F3F3F3F3F3FFFFF6
:10223000FF7FFFE33FFE99C04E0F0F0E09961D056D
:10224000BF7F33F7FBB108FD04FE02FF0100581009
:102250000480C0BF0F89C8E8783878E9CF8F000FB5
:10226000FE3D05BAC030EFCF800FFE3D05BAC0304D
:10227000EFCF80033D0703300FFE3E0583C04C7E49
:10228000E7C3800C03F8FC0EABBBAC030EFCF800FC
:10229000C033F7FE09669C03E07F3F33D071330003
:1022A00033E040CC051C3E77E3C100F7F3D059C0C2
:1022B0004E0703F1F00C041F3F70E0999C04E0709E
:1022C0003F1F00F7F3E05C1C04E3773E1C00C041B5
:1022D000F3F70E0999C04E0703F1FD050133100015
:1022E00000000000240027002A002D003000D5F057
:1022F0008D14A1C881CFD9F1AF20000408020110CC
:10230000408040102040804080080204018040202E
:102310001002011080102040402000000000250025
:1023200028002B002E0031000404040404030405DB
:102330000202020204030202020206060606060662
:10234000040402020204041402130212021502071A
:1023500002080204010C01060100080B000202023F
:102360000100090400000102020000052400100120
:1023700005240101010424020605240600010705C5
:10238000810310004009040100020A000000070553
:102390000202400000070583024000000000000226
:1023A00000090F0000030401000C00000000000001
:1023B0000000000000000000000000004532112471
:1023C0001FBECFEFDAE0DEBFCDBF28E0A6E0B2E06F
:1023D00001C01D92A73FB207E1F712E0A0E0B1E013
:1023E000E0E0FDE602C005900D92A630B107D9F7F6
:1023F00011E1CFEDD1E104C02197FE010E948135AA
:10240000CE3DD107C9F70E946F320C947E360C94F2
:1024100000002F923F924F925F926F927F928F9225
:102420009F92AF92BF92CF92DF92EF92FF920F9363
:102430001F93CF93DF93CDB7DEB7A2970FB6F89473
:10244000DEBF0FBECDBF8091E3089091E4088230DB
:10245000910509F426C134F4009771F0019709F44D
:10246000FCC0A2C28430910509F49FC10CF441C1A3
:10247000059709F42CC298C282E4E6E0F2E0DF019D
:102480001D928A95E9F70E944E268BE0E8E3F7E07B
:10249000DF011D928A95E9F780E091E0909339077A
:1024A0008093380784E180933A078BED92E2909312
:1024B000DB068093DA068091D806817091E09093D4
:1024C000D9068C6281608093D80686E6EFE5F8E055
:1024D000DF011D928A95E9F744E050E06DEA75E16D
:1024E0008DE698E00E94FC3510925B0810925C0823
:1024F00010925D0810925E0888E191E0E3E4F7E055
:10250000DF019C011D9221503040E1F787E390E20A
:102510009093DF068093DE068091DC068170109236
:10252000DD06846B81608093DC068EE1E5ECF8E0EB
:10253000DF011D928A95E9F70AE31FE11093E30694
:102540000093E2060E94EE35A8E0CA2ED12CE12CC1
:10255000F12CA70196010E941B36BEE16B9FB001D2
:102560001124665A7F4F962F990F8091E006817053
:10257000272F220F661F6627661F622B6093E106D6
:10258000892B81608093E0061093E7060093E606AE
:102590000E94EE35A70196010E941B36EEE16E9F68
:1025A000B0011124665A7F4F962F990F8091E4064F
:1025B0008170272F220F661F6627661F622B60938C
:1025C000E506892B81608093E40644E050E061EBEE
:1025D00075E181E397E00E94FC350E947C2380E056
:1025E00099E1909362028093610280E190E00E9401
:1025F0000536182F81E190E00E940536082F82E110
:1026000090E00E940536C82ED12CE12CF12C7601E9
:10261000DD24CC24D02AC12A83E190E00E94053633
:10262000F82AC092E508D092E608E092E708F09216
:10263000E808109252028FE09FE19093EB0680939E
:10264000EA068091E80681701092E9068E61816049
:102650008093E80681E090E09DC1809138079091D9
:102660003907181619060CF47CC10E944E261092E8
:1026700052028FE09FE19093EB068093EA068091EF
:10268000E80681701092E9068C6381608093E80609
:1026900084E090E09093E4088093E3080E94B023E4
:1026A0007DC121E04EE160E089EA9AE10E94F822D2
:1026B0008091520281FF0EC0A0E1EA2EF12C00E0D1
:1026C00020E030E04DE95AE167E370E086E790E012
:1026D0000E945C2F0E94F023882309F465C11092A8
:1026E000E90881E090E09093E4088093E3080C947B
:1026F0007A1E21E04AE060E085E99AE10E94F82232
:1027000040913F0750914007609141077091420707
:102710008091E5089091E608A091E708B091E8085B
:1027200084179507A607B7073CF420E044E16AE068
:102730008BE89AE10E94F82220913F0730914007F0
:102740004091410750914207CC24C39410E4E12EFC
:1027500012E4F12E0FE010E064E182E30E94FA231C
:1027600021E04EE16AE08CE19AE10E94F82280913A
:10277000520280FF0EC0E0E1EE2EF12C00E020E0DE
:1027800030E04DE95AE167E370E086E790E00E94AF
:102790005C2F0E94F023882309F406C185E090E0B5
:1027A0009093E4088093E308FFC060E08CEE96E02D
:1027B0000E94B82F182F61E084EF96E00E94B82F96
:1027C000E82EF12CE10EF11C62E08CEF96E00E9405
:1027D000B82F082F10E00E0D111D63E084E097E084
:1027E0000E94B82FE82EF12CE00EF11C64E08CE082
:1027F00097E00E94B82F082F10E00E0D111D65E024
:1028000084E197E00E94B82FE82EF12CE00EF11C35
:1028100063E08CE197E00E94B82F082F10E00E0DC6
:10282000111D66E084E297E00E94B82F800F883087
:1028300009F0BAC040913F075091400760914107AD
:10284000709142078091E5089091E608A091E70811
:10285000B091E80884179507A607B70744F421E06C
:102860004DE260E087E89AE10E94F8221BC020E078
:102870004DE26AE08BE89AE10E94F8222091E50897
:102880003091E6084091E7085091E808CC24C394C1
:1028900010E4E12E12E4F12E0FE010E06DE282E38D
:1028A0000E94FA2320913F07309140074091410751
:1028B00050914207CC24C39410E4E12E12E4F12E8F
:1028C0000FE010E064E382E30E94FA2350CF0E94FD
:1028D0004E26C0903F07D0904007E0904107F0900F
:1028E00042078091E5089091E608A091E708B09131
:1028F000E8088C159D05AE05BF0504F56C2D80E13B
:1029000090E00E940D369927F7FC9A958F2D7E2D29
:102910006D2D81E190E00E940D36B701992777FD7A
:102920009095892F82E190E00E940D366F2D7727D8
:102930008827992783E190E00E940D368EEF91E081
:10294000ECEEF6E0DF019C011D9221503040E1F7F2
:1029500064EF71E080E090E00E94C13180E00C946F
:102960007A1E80913007843011F50E944E26109215
:1029700052028FE09FE19093EB068093EA068091EC
:10298000E80681701092E9068C6381608093E80606
:1029900083E090E09093E4088093E30864EF71E0B3
:1029A00080E090E00E94C13181E00C947A1E80E8C2
:1029B0000E94512F882339F00E94F02381110C943A
:1029C000661E8FEF06C080E10E94512F882329F0F8
:1029D00081E00E949F211B8E0BC08091710285FDBA
:1029E00005C0F1E0FB8F86FFF6CF02C02FEF2B8FE3
:1029F0008091710283FF07C06091670881E00E94A7
:102A00001D2288A301C018A28091710282FF06C016
:102A10006091670882E00E941D2288A3EFE5F8E03C
:102A200080819181009719F001979183808332967C
:102A300038E0E736F307A1F740916A08A5E7B8E068
:102A400084E798E09A8F898F20E030E057E0E9EE44
:102A5000EE2EE7E1FE2EF3E0BF2E529FB001539F12
:102A6000700D1124FB01EF58F74F0281102F1370E6
:102A700009F477C0F701949000FF26C011966D917C
:102A80007C91129761157105C1F4133009F441501E
:102A9000529FF001539FF00D1124ED58F74F6081C4
:102AA0006C7F6083E62FE695E695E370F0E0E359EE
:102AB000F74F60816F5F60832AC061507109129681
:102AC0007C936E93119723C08D0103501109F80177
:102AD000A080CA2CD12CFB01ED58F74F3F0160813B
:102AE0006295637070E069587E4FFB01608170E011
:102AF00069197109C616D70639F4FC011082F30171
:102B00006081636060834F5FA394F801A0826C9141
:102B1000611125C0BC92FC0110811F5F1083529F80
:102B2000B001539F700D1124FB01EF58F74FE28164
:102B3000E370E33081F4FB01ED58F74FE081E69557
:102B4000E695E370F0E0E05EFE4F6081161309C089
:102B5000FC01108206C01370FC01108302C061509A
:102B60006C932F5F3F4F179607962C30310509F075
:102B700074CF40936A08D12C3FE0C32E44E0642E0A
:102B800058E0852E912CA12CB12C6EE1762E212CB3
:102B9000332433944D2C512CC49CB001C59C700D32
:102BA00011248B010451194F7801F7E2EF1AFEEF5F
:102BB000FF0AD7018C91882309F4D0C0F801EA51AB
:102BC000FE4F80819181019791838083892B31F51C
:102BD0001C920E94EE3502E00D0DB4E00B9F8001C7
:102BE00011240852194FA50194010E941B3670E070
:102BF0006C5F7F4F769EC001779E900D1124282F29
:102C0000220FF80130813170990F881F8827881FA3
:102C1000892B8183832F822B81609FC06953774FDB
:102C2000F801ED51FE4F80810E94CD21882309F4E7
:102C30007EC0D7011C920E94EE3522E0E22EED0C00
:102C4000B4E0EB9E90011124F901E852F94F7F01A5
:102C5000A50194010E941B3670E06C5F7F4F769E49
:102C6000C001779E900D1124282F220FD7013C918F
:102C70003170990F881F8827881F892B11968C9394
:102C80001197832F822B81608C93F801E652FE4FBF
:102C9000808181111FC08091380790913907805C35
:102CA0009F4F9093390780933807D801A352BE4FA6
:102CB000319640E46C9180810E94DE228091380739
:102CC000909139078130914094F1309239072092E8
:102CD00038072DC0813061F480913C078064809377
:102CE0003C07E8E5F2E0F0933E07E0933D071FC0A4
:102CF00080913F0790914007A0914107B091420712
:102D000088539F4FAF4FBF4F80933F07909340072B
:102D1000A0934107B0934207D801A352BE4FF801D8
:102D2000E552FE4F44E66C9180810E94DE22C49CF5
:102D3000F001C59CF00D1124E451F94FDF01AB51B6
:102D4000BE4F8C91882319F081508C9307C06C92F0
:102D5000EC51FE4F80818F5F83708083D11003C060
:102D6000DD24D39417CF28E437E03E872D8778E51C
:102D7000672E77E0772E29E437E03C872B872DE418
:102D800037E0388B2F872BE437E0388F2F8B2FE4F9
:102D900037E03C8B2B8B22E537E03F8F2E8F23E5EE
:102DA00037E03E8B2D8BE5E44E2EE7E05E2EF3E41C
:102DB000EF2EF7E0FF2E27E437E03A87298704E576
:102DC00017E0ACE42A2EA7E03A2E2CE537E03A8B48
:102DD000298B7D8E6C8E812C912CBCE1DB2E82E0C8
:102DE000C82ED89CC001D99C900D1124AC014D5B1C
:102DF000584F5AA349A3DA011D962C9120FFFFC317
:102E0000F70120813181121613060CF0B1C0D201F6
:102E10004C91042E000C550B5A834983E985FA85A1
:102E2000208130E03C832B83E989FA8931976081E6
:102E3000460F511D5E834D83A989BA894C91240F99
:102E4000311D38872F83FC01E05BF84F5F018081E3
:102E50008695BE016F5F7F4F83700E94CD21A9A12F
:102E6000BAA11D969C91907E71F0F80133979081E4
:102E7000992311F0915006C08E5F9CE39083F50179
:102E8000908190529083882309F472C090913C07FE
:102E900096FF0BC0D89CF001D99CF00D1124E05B8B
:102EA000F84F90819F7190689083D7012D913C914C
:102EB0001197F901E81BF109CF01ED93FC93AD8562
:102EC000BE852C91213021F03EE1EC8DFD8D3083CB
:102ED000181619060CF43FC080915D0890915E08A9
:102EE0008E159F0531F410925E0810925D081092C5
:102EF0005B08EEE1AF89B88DEC93AB85BC85EC91B6
:102F0000F0E0E55BFE4F8081082E000C990BAA0BC8
:102F1000BB0B40913F075091400760914107709172
:102F20004207840F951FA61FB71FB7FD09C08093E6
:102F30003F0790934007A0934107B093420708C012
:102F400010923F07109240071092410710924207DB
:102F500040E066E00AC0ED89FE89808184508230BD
:102F600038F0213029F441E064E0C7010E940720D5
:102F700080916A08882309F46AC0D89CF001D99C22
:102F8000F00D1124E05BF84FE081E695E370A1E7D6
:102F9000B8E040E050E0F0E09F012C5D3E4F3AA3E6
:102FA00029A3A988BA8831E0A31AB108E7E0E49F11
:102FB000C001E59F900D11249C012F58374FF90156
:102FC0002281322F3C703830D9F523702330C1F57F
:102FD0008D58974FFC0180818295837090E0E9A124
:102FE000FAA1208130E08217930751F5F80185811D
:102FF0009681892B61F58C916AEF680F90E00696B7
:10300000F2017081272F072E000C330B76171CF06E
:10301000821793076CF4F5017081270F311D062E7E
:10302000000C770B261737075CF08217930744F0E4
:10303000ECE2F1E0D8011696FC93EE93159707C0E9
:103040004F5F5F4F17964C30510509F0AFCFAD89F8
:10305000BE89EC918E2F90E08830910508F064C213
:10306000FC01EA5AFF4F0C948135F8018185928565
:103070008D7F92878187AF85B8898C91811154C2E9
:10308000ED85FE858081D2018230E1F1833011F03F
:10309000811168C08C91082E000C990BD89CF0010E
:1030A000D99CF00D1124E05BF84FE081E695E370C8
:1030B000F0E0E958FE4F208130E02E5231098217AE
:1030C000930729F441E060E0C7010E940720ED85E5
:1030D000FE85808181115FC0F8013A97208130E040
:1030E000D2018C91082E000C990B2817390709F092
:1030F00052C02AE5F101208341E065E0C7010E944A
:10310000072049C02C91022E000C330BF8013E978A
:10311000808190E028173907F1F540E065E0C701AC
:103120000E94072041E064E0C7010E940720EB8570
:10313000FC85808190E0FC01EE0FFF1FE15CFE4FFB
:10314000AD89BE892C910190F081E02DE20FF11D37
:10315000DC01A75CBE4F20818C91289F802D11241B
:10316000F10118C02C91022E000C330BE989FA8969
:103170003197808190E091958195910928173907C1
:1031800051F4D89CF001D99CF00D1124E05BF84F6C
:1031900080818E7F8083F20180818150F7C0A09072
:1031A0005D08B0905E0880915B088823F1F0AE1452
:1031B000BF04D9F0AD85BE858C91833081F4F501D3
:1031C000118AC5010E94BB1F40E061E0C5010E9459
:1031D000072041E062E0C5010E94072006C0C70148
:1031E0000E94BB1F40E062E0CBC0F1E0F0935B08BF
:1031F000F0925E08E0925D08D89CD001D99CB00D99
:103200001124A05BB84FEC91E77EEC93D2018C9136
:10321000D8011E97E695E370F0E0E958FE4F208153
:1032200030E02453310937FF03C03195219531092E
:10323000982F921B9C93E989FA89908124E3291B9A
:10324000A985BA859C9192130DC0D89CF001D99C98
:10325000F00D1124E05BF84F8081897F808340E08E
:1032600063E08EC0EF85F889308131115DC1AD8991
:10327000BE893C91323021F48F5FF201808303C01C
:103280008150D2018C93291728F49150E985FA8551
:1032900090834AC19F5FA985BA859C9345C1F80177
:1032A00081859285826092878187AF85B8898C916C
:1032B00081113AC1D89CF001D99CF00D1124E05B3A
:1032C000F84F3081932F9695969596959370A92FE8
:1032D000B0E0A958BE4F2C91A989BA898C91281BBE
:1032E000A985BA858C9182131AC0990F832F897F83
:1032F000892B8083F8013A97208130E0F2018081A8
:10330000082E000C990B28173907B9F426E9F101AA
:10331000208341E065E0C7010E9407200EC0D20172
:103320009C919F5F9C93281720F48150E985FA8532
:103330002DC08F5FA985BA85C6C0D2018C91482F58
:10334000082E000C550BF8013E97208130E0421703
:103350005307D4F0F8018081811101C0C082D801E7
:103360008C9181508C93D89CF001D99CF00D112444
:10337000E451F94FE80FF11DE759FF4F40E060813C
:10338000C7010E940720D0C08F5FF2018083CCC0AC
:10339000AB89BC892C9130E0EE8DFF8D808190E06F
:1033A00001972817390709F0BFC0AF89B88D8C91F4
:1033B0008111BAC0AB85BC85EC91F0E0ED5CFE4FAD
:1033C00020818091380790913907821B9109909351
:1033D00039078093380741E064E0D2CFED85FE8560
:1033E0008081882319F0823041F09EC0D1018C91F8
:1033F000882309F475C4815066C0F1018081811170
:1034000060C0AB85BC85EC91F0E0E35DFE4F808150
:10341000F101808380913F0790914007A09141077F
:10342000B09142070897A109B10980933F07909393
:103430004007A0934107B093420748EFA985BA859A
:103440006C91F20180810E94DE2280913F07909171
:103450004007A0914107B0914207B7FF65C01092A5
:103460003F071092400710924107109242075CC03C
:10347000ED85FE858081813069F4AB89BC892C9112
:1034800030E0EE8DFF8D808190E00197281739079D
:103490000CF44AC0D1018C91811113C0AB85BC855D
:1034A000EC91F0E0E35DFE4F8081F1018083D80173
:1034B0008C91811101C0CC92F80180818150808370
:1034C00052CF8150D1018C932FC0EC8DFD8D808126
:1034D00081112AC040E067E053CFD89CF001D99C0D
:1034E000F00D1124E05BF84F80818E7F8083AD85E5
:1034F000BE858C91833009F4F9C380915C088111F9
:1035000005C080913107815080933107AB85BC8520
:10351000EC91F0E0E55BFE4F4081E985FA85608142
:10352000D2018C910E94DE22EF89F88D8081811179
:1035300016C0AB85BC85EC91F0E0E75CFE4F808166
:10354000EF89F88D8083AB89BC898C918F5F8C93D8
:10355000EE8DFF8D9081891306C01C9204C08150AE
:10356000AF89B88D8C93EF85F889808181111FC058
:10357000AD89BE898C918630B0F4AB85BC85EC9169
:10358000F0E0E95DFE4F8081EF85F8898083D80106
:1035900015962D913C911697232B69F0880F880F73
:1035A000880F808308C0EF85F889108204C081509D
:1035B000AF85B8898C93EC8DFD8D8081882311F0C7
:1035C00081508083D89CF001D99CF00D1124ED5BD3
:1035D000F84F858580FD0BC0AD85BE85EC91E3304D
:1035E00031F0F0E0EB5CF84F808181508083F8018E
:1035F00085819681009719F0019796838583FFEF67
:103600008F1A9F0A2D853E85245E3F4F3E872D876A
:103610002C8D3D8D245E3F4F3D8F2C8F2B853C851F
:10362000245E3F4F3C872B872F853889245E3F4F90
:10363000388B2F872F89388D245E3F4F388F2F8B03
:103640002B893C89245E3F4F3C8B2B8B2E8D3F8DED
:10365000245E3F4F3F8F2E8F2D893E89245E3F4F42
:103660003E8B2D8B3CE1430E511C4CE1E40EF11CD2
:1036700029853A85245E3F4F3A872987045E1F4F8C
:103680003CE1230E311C29893A89245E3F4F3A8B55
:10369000298B3AE08316910409F0A3CB9091670837
:1036A00080916808981721F12091690880916C0831
:1036B000222399F0E5E3F8E1E49120E830E02E1BC5
:1036C0003109482F082E000C550B4217530739F0CB
:1036D0009EE190936B08825009C0811103C09093C2
:1036E000680806C09EE190936B088E5F80936C081B
:1036F0008091520280FF0AC00E94EE3522E030E045
:1037000040E050E00E941B366093480280912E07F3
:10371000882309F449C067E08CEE96E00E94B82F38
:10372000182F64E084EF96E00E94B82FE82EF12C69
:10373000E10EF11C68E08CEF96E00E94B82F082F94
:1037400010E00E0D111D68E084E097E00E94B82F94
:10375000E82EF12CE00EF11C69E08CE097E00E946D
:10376000B82F082F10E00E0D111D6AE084E197E0DC
:103770000E94B82FE82EF12CE00EF11C62E08CE1E3
:1037800097E00E94B82F082F10E00E0D111D63E086
:1037900084E297E00E94B82F800F883029F480914E
:1037A0002E07815080932E0780912F078823C9F11F
:1037B00068E08CEE96E00E94B82F182F69E084EF45
:1037C00096E00E94B82FE82EF12CE10EF11C61E08A
:1037D0008CEF96E00E94B82F082F10E00E0D111DFF
:1037E00060E084E097E00E94B82FE82EF12CE00E14
:1037F000F11C63E08CE097E00E94B82F082F10E0E6
:103800000E0D111D60913007655F84E197E00E9405
:10381000B82F800F863029F480912F078150809334
:103820002F074B8D4F3F49F480E00E94AC228091DE
:103830003A07882379F081500BC05B8D513051F4E9
:1038400081E00E94AC2280913A07843718F48F5FA0
:1038500080933A0788A18823A9F080913C07982F8C
:103860009C70983029F4829583700E94AC220AC023
:103870008091D806817091E09093D9068C62816026
:103880008093D80680913B07811114C080913C073A
:10389000E82FE695E695E370F0E0EF5AFE4F908151
:1038A00090933B0791E0980F93708C7F892B8093C6
:1038B0003C0703C0815080933B0780913C0786FF03
:1038C0000FC020913D0730913E07215031093093C0
:1038D0003E0720933D07232B19F48F7B80933C07F1
:1038E00080913107181664F080915C08811108C03E
:1038F0000E94B0238EE180932E0783E080935C08C2
:1039000080915C088130C9F4809130078430A8F43C
:103910000E947C2310925C08609130076F5F609377
:10392000300794E0699FB00111246F547A4E44E04F
:1039300050E081E397E00E94FC35E6E0F2E0808110
:10394000882311F0815080833396A2E0E834FA078F
:10395000B1F750E1E52EF12C00E020E030E047EF38
:1039600058E16DE070E080E090E00E945C2F0091F3
:103970003C07E02FE695E695E370F0E0EC5AFE4F49
:1039800003708081080F80913A0720E030E04CEC12
:1039900055E160E070E090E00E945C2F80913C0770
:1039A00086FF11C0ECECF5E18491E0913A0790E0DC
:1039B00000E020E030E041EC55E160E070E08E0F87
:1039C000911D0E945C2F10E04FE0D42ED19EC001CB
:1039D00011248451994FFC01E752FE4F208122238C
:1039E000B1F031960081000F000F3A962081020F4E
:1039F000379760817181329730E1E32EF12C29E114
:103A000037E144E657E1808191810E945C2F1111DA
:103A100002C011E0DBCFC12CD12C1CE11C9DF001B8
:103A20001D9DF00D1124ED5BF84F858580FF28C0AA
:103A3000F301808180FD24C03F97808190E0D30115
:103A40001596ED90FC9016973E9600813897208150
:103A5000020F880F991FFC01ED59FE4F2081318123
:103A6000FC01E95AFE4F40815181F3017197608159
:103A700070E032978081082E000C990B0E945C2F19
:103A8000BFEFCB1ADB0AECE16E0E711CFAE0CF1629
:103A9000D10421F611E7C12E18E0D12EA12CB12CB2
:103AA00017E01A9DC0011B9D900D1124FC01EF58D9
:103AB000F74F2281322F33703330C1F5FC01ED58BE
:103AC000F74FA0818A2F86958695837090E0880FA6
:103AD000991FFC01E658FE4F40815181FA01349153
:103AE000A295A370B0E0A958BE4F6C912C702830FD
:103AF00011F4645004C0FA013196E4916E1BFC018C
:103B0000E159FE4F0190F081E02D70E0D6018C91DB
:103B100090E0932E9694A0E1EA2EFF24F394A98DD1
:103B2000BA8D0C919F018919910928C0313091F407
:103B3000E98DFA8D3297608170E0F6018081F0E1C5
:103B4000EF2EF12CA98DBA8D0C9120E030E042E0EF
:103B500058E113C03230A1F4E98DFA8D32976081BB
:103B600070E0F6018081E0E1EE2EF12CA98DBA8D96
:103B70000C9120ED37E148EE57E190E00E945C2F78
:103B8000BFEFAB1ABB0AE98DFA8D3796FA8FE98F32
:103B9000F7E0CF0ED11C2CE0A216B10409F081CFC2
:103BA000A12CB12CF501EA5FFD4F6081662381F005
:103BB0002281022E000C330B440B550B92E0C92ED0
:103BC00014E6E12EF12C00E010E081810E94FA233E
:103BD00033E0A30EB11C42E4A416B10419F72091FE
:103BE0003F07309140074091410750914207CC2454
:103BF000C39410E4E12E12E4F12E0FE010E06BE329
:103C000084E60E94FA23609138077091390721E019
:103C100040E051E080E00E947B2880915B0888238F
:103C2000A1F0A0915D08B0915E081696EC911697F0
:103C3000F0E0EE57FE4F4081042E000C550B6D91C5
:103C40007C9120E084E10E947B2880916B0888238E
:103C5000B9F080916C0800E1E02EF12C009167082A
:103C600020E030E045E358E160E070E0082E000C11
:103C7000990B0E945C2F80916B08815080936B0898
:103C8000B5E2CB2EB8E1DB2EF601849160E470E062
:103C9000681B710910E1E12EF12C00E020E030E01A
:103CA00044E258E188E390E00E945C2F8091480252
:103CB000882311F40C94D414F601C49061E46C19B7
:103CC00043E08BE30E94F3230C94D41482E090E051
:103CD0009093E4088093E30881E08093E9080AC0A8
:103CE000D8018C9181113BCBF80138CBB1E0B09376
:103CF0005C080CCCA2960FB6F894DEBF0FBECDBF09
:103D0000DF91CF911F910F91FF90EF90DF90CF90B7
:103D1000BF90AF909F908F907F906F905F904F90EB
:103D20003F902F900895DC0112969C911297892F55
:103D300083708330B9F5292F26952695237030E0BE
:103D4000F901EE0FFF1FEC5AFF4D45915491159666
:103D5000ED91FC911697E417F50721F59C709830CA
:103D600009F09FE08C91492F50E0480F511DDB0175
:103D7000ED91FC91891B082E000C990BE817F907AF
:103D80001CF04E175F074CF4FB01648175816817C6
:103D9000790744F0461757072CF0F901EE53FE4F10
:103DA0008081089580E00895DC01FB018C9190E012
:103DB000248135818217930784F503962081318110
:103DC0008217930754F111968C91119790E02681F8
:103DD0003781821793070CF503962281338182176E
:103DE0009307DCF012968C9112978370823031F435
:103DF00087E090E016969C938E9315971296EC911F
:103E00001297EC7FE1601296EC93E695E695E370ED
:103E1000F0E0EE53FE4F8081089580E00895809198
:103E200052028F5F80935202E8EEF6E0808181704B
:103E300011828E61816080830895DC016C931196FC
:103E40001C92119712964C931297E6E4F2E2E491D9
:103E500013961C9213971496EC93149716963C9312
:103E60002E93159717968C911797807880681796E0
:103E70008C930895EF92FF920F931F93CF93DF934C
:103E8000E4E6F7E1F490E5E6F7E1E4908091C50817
:103E9000882339F08091D408811166C001E010E0D8
:103EA00002C000E010E08FE0809FE001819FD00D14
:103EB0001124C451D94FFE01E752FE4F81E08083A7
:103EC0003C9684E0808331971082329688E691E0B8
:103ED000918380830E94EE35CD51DE4F22E030E0A9
:103EE00040E050E00E941B366F5F688320E8C22FDD
:103EF000CF1949F00E94EE352C2F30E040E050E021
:103F00000E941B3601C060E070E08FE0809FE001FE
:103F1000819FD00D1124C451D94FFE01E552FE4FAF
:103F2000718360833896E081F0E0E958FE4F80812C
:103F300090E0FE01E352FE4F9C012E1931093183BE
:103F4000208332966F0D711D718360833296918349
:103F500080830E94EE35C652DE4F23E030E040E021
:103F600050E00E941B366883DF91CF911F910F9123
:103F7000FF90EF9008950F931F93CF93DF93EC0181
:103F80000E94EE3522E030E040E050E00E941B3617
:103F90006F5FE62FE3709E2F990F990F990FED85B4
:103FA000E77EE92BED87888D21E0280FE695E37009
:103FB000F0E0E958FE4F9081892F90E0E62FF0E085
:103FC000E958FE4F3081831B910997FF03C09195FB
:103FD00081959109820F9A81182F190F20E430E002
:103FE000281B3109220F022F091B49F00E94EE35D0
:103FF000202F30E040E050E00E941B3601C060E01E
:10400000610F6B83DF91CF911F910F910895CF9333
:10401000DF93FC01868190E0880F991FDC01A25399
:10402000BE4F0D90BC91A02D442361F0218930E05A
:10403000EF01C20FD31F40894A8B2F5F3F4F217082
:104040003327218B262F30E0A20FB31F4C91448BD6
:10405000608BDC01A15CBE4F8D919C91DC01A20FB5
:10406000B31F8C9187871486DF91CF910895AF920B
:10407000BF92CF92DF92EF92FF920F931F93CF9355
:10408000DF93E12CF12C8CE18E9D80018F9D100D32
:104090001124F801ED5BF84F958590FD65C08F0107
:1040A0008CE1DF011D928A95E9F70E94EE3520919F
:1040B0005C08233029F482E080935C08E3E03DC093
:1040C00024E630E040E050E00E941B36693038F4CE
:1040D0009091360780913307981720F102C0623122
:1040E00038F490913607809133079817F0F002C0AA
:1040F0006E3138F490913507809132079817C0F0EF
:1041000002C06C3330F490913707809134079817D0
:1041100090F09091350780913207981768F5E0E0AC
:1041200020E00BC0E1E024E008C0E1E025E005C0AC
:10413000E0E021E002C0E2E022E03CE13E9DC0017F
:104140003F9D900D11248451994FDC01A35ABF4F1C
:104150002C931197EC93E33019F1F0E0EB5CF84FFE
:1041600080818F5F80831CC0FFEFEF1AFF0A9AE007
:10417000E916F10409F088CF8091DC068170109275
:10418000DD06846B81608093DC06DF91CF911F9107
:104190000F91FF90EF90DF90CF90BF90AF90089578
:1041A0008CE18E9DE0018F9DD00D1124DE01A05B7E
:1041B000B84F6D018C9181608C93C451D94FFE0131
:1041C000E35AFF4FE081F0E0EE0FFF1FE95AFE4F88
:1041D0000190F081E02D84915E01BFE6AB0EB11C31
:1041E000D5018C933196E4911196EC930E94EE35B3
:1041F00022E030E040E050E00E941B366F5F6370C9
:10420000862F880FF6016081697F682B6083FE012D
:10421000E45AFF4F8081811115C0F501208180E4AF
:1042200090E0821B9109D82EDD0C0E94EE35C25A17
:10423000DF4F20E430E040E050E00E941B368D2D3F
:10424000861B88832CE12E9DC0012F9D900D11248B
:104250008451994FFC01E45AFF4F20812230C9F468
:104260007396808120E8C22FC81B49F00E94EE356A
:104270002C2F30E040E050E00E941B3601C060E08F
:104280008CE18E9DF0018F9DF00D1124EA5BF84FBB
:1042900060832CE12E9DC0012F9D900D1124EC0117
:1042A000C451D94FDE01A55ABF4FFC01E05BF84F66
:1042B000E081E695E370F0E0E958FE4F9E01205959
:1042C0003F4F8081F9019081891B8C93779780E81B
:1042D00080833496808190E03496DC01A95DBE4FE6
:1042E0002C9120833197DC01A35DBE4F2C9120835C
:1042F0003197DC01A75CBE4F2C9120833897DC01FD
:10430000AE57BE4F2C91022E000C330B318320830D
:104310003B96DC01AD5CBE4F8C91808340E061E058
:10432000C8010E94072041E061E0C8010E94072007
:10433000CF58DF4F80E190E0998388831DCF909123
:10434000670890936808ECECF5E1E49140913A0736
:1043500050E0E69520E430E02E1B31094217530768
:104360003CF421E02093690820E820936C0808C001
:1043700010926908E5E3F8E1E491E195E0936C08B7
:10438000181614F49F5F01C09150909367088091B4
:1043900067088370809367080895AF92BF92CF92A9
:1043A000DF92EF92FF920F931F93CF93DF937B01E6
:1043B00091E7C92E98E0D92E00E010E0B12C27E05B
:1043C000A22EC82FD0E0CC5DDE4FA09EF001A19EB2
:1043D000F00D1124ED58F74FE0818E2F837082305D
:1043E000C0F02E2F2295237030E0888190E02817AE
:1043F000390779F4E695E695E370F0E0EE0FFF1FDC
:10440000EA53FE4F0190F081E02DB701C6010995F6
:10441000B80E0F5F1F4F87E0C80ED11C0C3011057E
:10442000A1F68B2DDF91CF911F910F91FF90EF900F
:10443000DF90CF90BF90AF900895DF92EF92FF9200
:104440000F931F93CF93DF93262F30E0D901A45110
:10445000B94FFD01EF57FE4F7081772309F473C008
:10446000220F331FE901C15AD74F08811981011565
:10447000110509F067C0F901E45AFF4D45915491C7
:104480005983488390913C07492F4C70483019F06C
:104490009695969502C092959F709370D0903A072A
:1044A000913051F4ECECF5E19491E8EEF7E1E49110
:1044B000CD2DCE1BDC2ED90EC7E0C09FA001C19F21
:1044C000500D1124FA01EF58F74F9281937091F536
:1044D000FA01ED58F74F1081107F6370962F990FF6
:1044E000990F612F6260692B4451594F8A010B5714
:1044F0001E4FE801D882219695E0988383708295BB
:10450000807F6F7C682B6083FA01E757FE4F83E062
:104510008083F901EC5AFF4D85919491FA01E65799
:10452000FE4F9183808332971082AF57BE4F7150F8
:104530007C9306C00F5F1F4F0C30110509F0BDCFF3
:1045400071E001C070E0872FDF91CF911F910F9133
:10455000FF90EF90DF90089520913C07922F969561
:1045600096959370891751F02C7F20933C07E82F84
:10457000F0E0EF5AFE4F208120933B07823051F04C
:104580002091D806217031E03093D9062C62216049
:104590002093D8069370292F2295207F30913C07D5
:1045A000337C8370982F990F990F832F822B892B3F
:1045B00080933C07089582E00C94AC22E6E0F2E0A0
:1045C00020E030E0908191110CC0F901EE0FFF1F47
:1045D0002E0F3F1FF901EA5FFD4F81836083428305
:1045E00008952F5F3F4F33962631310559F70895CF
:1045F0007F928F929F92AF92BF92CF92DF92EF9273
:10460000FF920F931F93CF93DF936C01C62F942ECD
:10461000822F8170882E20FF11C02C2DF6018E2F45
:10462000821B9491992319F031969A30C1F7782E14
:10463000C0E2D0E0C81BD109CC0F01C0712C1C2FE7
:1046400090E2A92EB12C711002C0811047C08FEFEB
:10465000C81AD80AF60131970491002309F43EC024
:104660000032F9F00A30A9F4882071F0F6018E2F9B
:104670008C199491992319F031969A30C1F7782EBC
:10468000E501C81BD109CC0F85E0980E1C2FD3E0A3
:104690000BC00A3314F4005306C00B3724F407553B
:1046A00002C0D1E001C0D0E0D0FD0DC0692D70E0A6
:1046B00080E1E82EF12C20E030E04FEA5AE1812F32
:1046C00090E00E945C2FD27009F0BDCF1C5F1C37B8
:1046D00008F4B9CF85E0980E1C2FB5CFDF91CF91AC
:1046E0001F910F91FF90EF90DF90CF90BF90AF9010
:1046F0009F908F907F90089520E830E040E064E143
:104700008CEE96E00E941D1F24E630E04CEE62E243
:1047100084EF96E00E941D1F20E430E046EF60E346
:104720008CEF96E00E941D1F20E530E04BEF6EE31A
:1047300084E097E00E941D1F26E430E049EF6CE41E
:104740008CE097E00E941D1F2EE630E042EE6FE500
:1047500084E197E00E941D1F8EE180932F0708954A
:1047600020E830E040E065E08CEE96E00E941D1FFE
:1047700024E630E04CEE63E184EF96E00E941D1FDA
:1047800020E430E046EF61E28CEF96E00E941D1FCE
:1047900020E530E04BEF6FE284E097E00E941D1FC0
:1047A00026E430E049EF62E48CE097E00E941D1FB0
:1047B0002EE630E042EE60E584E197E00E941D1FA6
:1047C0002AE530E041EF6EE58CE197E00E941D1F85
:1047D00028E730E044EF6CE684E297E00C941D1F7C
:1047E00088E00C94512F603420F470E090E00C9439
:1047F000AD2E08952F923F924F925F926F927F92CB
:104800008F929F92AF92BF92CF92DF92EF92FF92E0
:104810000F931F93CF93DF9300D000D000D0CDB77C
:10482000DEB78E8329013A01470158018C2D0C2DEA
:1048300001708270E82EDA01C90157FF07C088278E
:104840009927DC01821B930BA40BB50B182FD92ED3
:10485000CA2E3B2E862F90E09A83898392E0960F92
:104860009B836F5FE62FF0E0FD83EC83811491045E
:10487000A104B10409F45EC0612F7D2D8C2D932D10
:10488000A50194010E944D36222EF22E211103C063
:1048900001114AC02FC0EE20C1F0FE81F7FD15C006
:1048A000141415041604170444F443E06C817D814C
:1048B0008E818F5F90E00E94DE2E43E06B818E81BF
:1048C0000E94F3238E818C5F8E8399E09F1580F088
:1048D00080E1E82EF12C022D20E030E044E650E2A9
:1048E00069817A81EE818E2FEE0F990B0E945C2FE9
:1048F000E12C01E0612F7D2D8C2D932DA5019401DC
:104900000E944D36162FD72EC82E392EC501B40160
:104910002AE030E040E050E00E944D3649015A0163
:10492000FE81FC5FFE83A2CFEE2091F28E8187FF95
:10493000B7CFCECF26960FB6F894DEBF0FBECDBF51
:10494000DF91CF911F910F91FF90EF90DF90CF906B
:10495000BF90AF909F908F907F906F905F904F909F
:104960003F902F9008952F923F924F925F926F92B7
:104970007F928F929F92AF92BF92CF92DF92EF92EF
:10498000FF920F931F93CF93DF9380E20E94512FEA
:10499000C091ED06882311F0C15006C080E40E944A
:1049A000512F882319F0CF5FC093ED068091ED065B
:1049B00081708093ED068091EC0681113AC00EEE75
:1049C00016E0C5EFD6E0F12CBAE08B2E912CA12C8D
:1049D000B12C86E0E82ED801FC920E94EE35A501AC
:1049E00094010E941B36BEE16B9FB0011124F801B7
:1049F00072836183FE013497E08231961082319692
:104A00001082D8018C9190E03196DC01AD54BE4FFC
:104A10002C912083FC01E455FE4F80818883F39420
:104A2000085F1F4F2896B7E0FB12D5CF81E0809337
:104A3000EC06C090ED06D12C8091710283FF07C077
:104A4000F601EE0FFF1FE254FE4F708001C0712C83
:104A5000F0E1EF2EF12C00E020E030E046EB5BE1EE
:104A60006AE070E083E090E00E945C2F20E440E880
:104A700060E070E080E090E00E94152FC5EFD6E086
:104A80005E01F501369780819181892B21F533965E
:104A9000E081D5016C911197E230A9F0F0E0E65485
:104AA000FE4F0081F50132978081080F70E08C91F4
:104AB000E0E1EE2EF12C20E030E044E65BE190E016
:104AC0000E945C2F08C06C5F70E08C9122E042E095
:104AD00090E00E94152FB8E0AB0EB11CEDE2AE16CF
:104AE000E7E0BE0671F6F601EE0FFF1FE254FE4F3F
:104AF00011814AE163E3812F0E94F3238FEF810F3D
:104B000049E064E370E090E00E94DE2E91EF892E90
:104B100096E0992E02EF16E023EFE22E26E0F22E29
:104B20003EEEC32E36E0D32E44EFA42E46E0B42E44
:104B30005AE0252E312C412C512C63E0662ED601F3
:104B400011968D919C911297009731F001971296D2
:104B50009C938E9311977AC0F4018081882319F079
:104B60008150808373C0D7018C91833039F4F80170
:104B70008081823019F01C928F5F8083D8018C91E4
:104B8000823031F48881873318F0F70110826C92FB
:104B9000D8018C91843011F50E94EE35A20191016B
:104BA0000E941B36BEE16B9FB0011124F601728397
:104BB0006183E6E0D401EC93D8011C92F7011082E6
:104BC000D6018C9190E0FC01ED54FE4F2081F5015F
:104BD0002083FC01E455FE4F80818883D8018C91AD
:104BE000D601EC9181110DC02E2F30E0F901ED546A
:104BF000FE4F8081F5018083F901E455FE4F8081ED
:104C000007C0F0E0813031F4E455FE4F8081895FC8
:104C1000888310C0ED54FE4F823039F480818E5F5E
:104C2000D5018C9388818D5FF3CF8081F5018083DE
:104C3000F7E3F883D801EC91F0E0E855FE4F80816E
:104C4000F4018083D7018C918F5F8C93B8E08B0E39
:104C5000911C085F1F4FE8E0EE0EF11CF8E0CF0E4C
:104C6000D11C88E0A80EB11C2896A7E0CD32DA0747
:104C700009F065CF872DDF91CF911F910F91FF90A4
:104C8000EF90DF90CF90BF90AF909F908F907F90EC
:104C90006F905F904F903F902F90089584E1E8EDE2
:104CA000F6E0DF011D928A95E9F70895EF92FF92F1
:104CB0000F938091E3089091E4080097E1F40E943B
:104CC0004E26109252028FE09FE19093EB06809364
:104CD000EA068091E80681701092E9068C63816093
:104CE0008093E80664EF71E080E090E00E94C131BB
:104CF00081E090E049C08130910509F04BC080E12E
:104D0000E82EF12C00E020E030E042E45EE160E0DB
:104D100070E080E090E00E945C2F20E049E060E2DB
:104D200086E39EE10E94F82220E044E160E28BE20B
:104D30009EE10E94F82220E04FE160E280E29EE1E5
:104D40000E94F82220E04AE260E285E19EE10E94B2
:104D5000F82220E045E360E28FE09EE10E94F82225
:104D60008091520280FF0AC020E030E04DE95AE114
:104D700067E370E080E490E00E945C2F0E94F023E3
:104D8000882331F085E090E09093E4088093E30875
:104D900082E015C00597E1F70E944E268EEF91E064
:104DA000ECEEF6E0DF019C011D9221503040E1F76E
:104DB00064EF71E080E090E00E94C13180E00F91EB
:104DC000FF90EF9008958FB12CB193B130E0209512
:104DD000309520743327A90123E0559547952A95EE
:104DE000E1F7292F30E02095309520713327359554
:104DF000279535952795242B8095807F822B0895C4
:104E0000FC0121912EBD9C5F21910DB407FEFDCFC9
:104E10002EBDE817F907C1F70DB407FEFDCF0895C1
:104E200083B7817F83BF83B7816083BF889583B752
:104E30008E7F83BF0895FC0180915102811103C0D0
:104E40008FEF9FEF08959FB7F89482E08093E90079
:104E50002091F20030E01216130614F421E030E045
:104E60002115310559F0289884E6809350028091ED
:104E7000F10080838091F200882319F09FBFC9015F
:104E800008958BE68093E800F9CFCF92DF92EF92FE
:104E9000FF920F931F93CF93DF936C017A018B01E5
:104EA000C0E0D0E0CE15DF0589F0D8016D918D010D
:104EB000D601ED91FC910190F081E02DC60109959C
:104EC000892B11F47E0102C02196ECCFC701DF913E
:104ED000CF911F910F91FF90EF90DF90CF900895A9
:104EE000CF93DF931F92CDB7DEB76983DC01ED91DD
:104EF000FC910280F381E02D41E050E0BE016F5F44
:104F00007F4F09950F90DF91CF91089583E08093B3
:104F1000E9008091F200882319F08AE38093E80089
:104F20000895CF93DF931F92CDB7DEB7FC01848540
:104F3000958597FD05C02FEF3FEF358724870BC080
:104F4000CE0101960E941B27019719F4898190E0F8
:104F500002C08FEF9FEF0F90DF91CF9108950F93D5
:104F60001F93CF93DF931F92CDB7DEB78C01FC0167
:104F70008485958597FF0EC0CE0101960E941B2760
:104F8000019719F4298130E002C02FEF3FEFF801BB
:104F900035872487F801848595850F90DF91CF911F
:104FA0001F910F910895FC018485958597FD0BC095
:104FB0009FB7F89482E08093E9008091F2009FBF50
:104FC00090E0019608959FB7F89482E08093E900FD
:104FD0008091F2009FBF90E008950E949B358F92D0
:104FE0009F92AF92BF92CF92DF92EF92FF920F9378
:104FF0001F93CF93DF935C016B018A0180910B01BA
:10500000882309F45EC080915102882309F459C0B5
:1050100080914F0280FF05C08091E0008260809304
:10502000E000E8018AEFF82E93E0E92E2FE3822ECC
:105030003AE3932E209709F43DC08FB7F894E0929D
:10504000E9009091E80095FF06C09091F200282DAC
:10505000291B922F01C090E08FBF91110AC0FA94D2
:10506000FF2079F161E070E080E090E00E94C131C2
:10507000E1CF292F30E0C217D3070CF49C2F8FB754
:10508000F894E092E9002091E80025FF11C0292F53
:1050900030E0C21BD30BF601915020F041914093B8
:1050A000F100FACFC20ED31E9091E80095FF13C015
:1050B0008FBFC0CF5D9884E680935402101611060E
:1050C00044F081E090E0F5019383828380E090E0FA
:1050D00005C0C80103C09092E800EACFDF91CF91EC
:1050E0001F910F91FF90EF90DF90CF90BF90AF9006
:1050F0009F908F9008951F93CF93DF93182FFB01FC
:10510000EE0FFF1FEE0FFF1FE40FF51FCF010197FA
:10511000BA010E946D35EB016330710514F4211161
:1051200009C025E04FE06BE370E0812F90E00E9422
:10513000152F04C08091520280FDF3CF21971E5F8E
:10514000CF3F8FEFD80769F09C2F990F9C0F812FCD
:10515000890F42E06DE370E090E00E94AD2E219750
:10516000EFCFDF91CF911F91089580915902811166
:105170000DC082E08093550284E080935602109225
:1051800058021092570281E08093590285E592E01F
:1051900008951F920F920FB60F9211248F939F9331
:1051A0008091E1009091E100937F9093E10083FF73
:1051B0000FC01092E90091E09093EB001092EC0088
:1051C00092E39093ED001092510298E09093F000DA
:1051D00082FF20C093E09093E9009091F200992320
:1051E00019F09AE39093E80090915402992339F0D2
:1051F00090915402915090935402992389F1909187
:105200005002992339F0909150029150909350029E
:10521000992341F184FF10C08091E2008E7E81606D
:105220008093E2008091E1008F7E8093E100809185
:105230004F028E7E806111C080FF16C08091E20017
:105240008E7E80618093E2008091E1008E7E80936B
:10525000E10080914F028E7E816080934F0204C0F6
:105260005D9ACDCF289AD6CF9F918F910F900FBE88
:105270000F901F9018951F920F920FB60F92112446
:10528000CF92DF92EF92FF920F931F932F933F9352
:105290004F935F936F937F938F939F93AF93BF933E
:1052A000EF93FF93CF93DF93CDB7DEB76C97DEBF5D
:1052B000CDBF1092E9008091E80083FFFAC168E059
:1052C000CE0145960E94F03082EF8093E8008D89F0
:1052D00087FF05C09091E80090FFFCCF03C09EEFD0
:1052E0009093E800982F907609F0C6C09E892F8988
:1052F000188D91110CC0803829F480914E02809352
:10530000F10002C01092F1001092F10047C1422F4B
:1053100050E0512B913051F4811140C14130510581
:1053200009F03CC180914E028D7F0BC0933061F437
:10533000811134C14130510509F030C180914E02D4
:10534000826080934E022AC1953041F48091E8003A
:1053500080FFFCCF20682093E30020C1963009F045
:105360005FC0EB8CFC8C1092E90010924C02109202
:105370004B02123091F510924A02109249020E949B
:10538000BE3099E0BE016F5F7F4FDB01E92F1D92B8
:10539000EA95E9F799831A8391E09E8390EA9887CA
:1053A0009AEF998720914B0230914C02275F3F4F33
:1053B0003C832B838D831092E90010924C02109253
:1053C0004B02F0924A02E092490249E050E080E04C
:1053D0000E9497300E94BE30E1C0F0924A02E092F3
:1053E00049020E94B528DC011296ED90FC901397BB
:1053F000E114F10409F4C0C0D701ED91FC910480DF
:10540000F581E02DBE016B5E7F4FC70109950097C6
:1054100019F00CF0C3C0C6C0F701E084F184E8CFF6
:10542000973009F4BFC0983021F481E08093F100F7
:10543000B5C0993009F0B2C0837009F0B3C0EBED8C
:10544000F1E081E021E036E39081992361F08093DF
:10545000E9002093EB0091919093EC003093ED00E4
:105460008F5F873089F78EE78093EA001092EA0019
:105470008F898093510292C08B8D9C8D1092E90090
:1054800010924C0210924B0290934A028093490270
:10549000898D811156C08E899D89913A59F4813246
:1054A00009F080C047E050E064E071E080E00E94D5
:1054B000973074C0913209F075C0833289F4888DB9
:1054C00090E0982F88272F89822BA0E0B0E080936E
:1054D000000190930101A0930201B09303015EC00B
:1054E000803269F48091E80082FFFCCF67E084E0BD
:1054F00091E00E94F0308BEF8093E80006C082328A
:1055000009F04CC08F8980930B0180914D02882354
:1055100019F0EEEFFAE002C0E0E0F8E0809104015B
:1055200090910501A0910601B0910701803B944044
:10553000A105B10509F088C080910B0180FFA0C0D2
:1055400083C00E94B528DC0112960D911C9113971F
:105550000115110539F1D801ED91FC910190F0810F
:10556000E02DBE016B5E7F4FC8010995811116C009
:10557000F80100851185ECCF1130C1F0133091F4A2
:105580008F89882309F455C08230E9F440E860E14E
:1055900088EA90E20E945A30882321F08EEF8093AF
:1055A000E80087C081E28093EB0083C08B8D9C8DE7
:1055B000089711F41093530280915302811136C061
:1055C00069EB70E238C0813029F440E86BE08CE987
:1055D00090E2E0CF833031F70E94B528DC011296CB
:1055E000ED90FC9013978E010F5F1F4F6801E1143F
:1055F000F10479F0D701ED91FC910680F781E02D5F
:10560000B801C7010995080F111DF701E084F18465
:10561000EECFD8011C92F60101900020E9F73197F6
:10562000BF016C197D0940E0C601B4CF6BEC70E29C
:1056300002C068E970E26115710509F4B3CFFB019E
:10564000449150E080E833CF0FB6F894A89580914C
:105650006000886180936000109260000FBEA89582
:10566000EE3F2AE0F20739F08091FE0A9091FF0A9E
:105670009183808393CF1092FF0A1092FE0A8ECFFF
:10568000EE3F8AE0F80731F0808191819093FF0A24
:105690008093FE0A87E797E7918380839BE088E108
:1056A0000FB6F894A895809360000FBE90936000A9
:1056B00075CF6C960FB6F894DEBF0FBECDBFDF91ED
:1056C000CF91FF91EF91BF91AF919F918F917F917A
:1056D0006F915F914F913F912F911F910F91FF908B
:1056E000EF90DF90CF900F900FBE0F901F90189506
:1056F0002091790630917A06820F931F9C0136958E
:105700002795E0917C06F0917D06E20FF31FE4916E
:10571000F0E081709927DC01AF51BE4FCF010C90B2
:1057200002C0959587950A94E2F78F700895CF93FC
:1057300080E090E00E94782B80937B068D3009F406
:105740006BC050F58C3009F084C081E090E00E947D
:10575000782BC82F82E090E00E94782B90E1C99FBF
:1057600090011124822B8093800683E090E00E94B8
:10577000782BC82F84E090E00E94782B90E1C99F9D
:1057800090011124822B809381068091800690E005
:10579000880F991F039658C08E30D9F08F3009F0CA
:1057A00058C081E090E00E94782BC82F82E090E002
:1057B0000E94782B90E1C99F90011124822B809345
:1057C000810683E090E0909383068093820681E0D7
:1057D00046C081E090E00E94782BC82F82E090E0E4
:1057E0000E94782B90E1C99F90011124822B809315
:1057F000800683E090E00E94782BC82F84E090E040
:105800000E94782B90E1C99F90011124822B8093F4
:10581000810685E090E018C081E090E00E94782B3E
:10582000C82F82E090E00E94782B90E1C99F900100
:105830001124822B8093800683E090E00E94782BD5
:105840008093810684E090E09093830680938206A3
:1058500008C081E090E09093830680938206809355
:105860008006CF9108952F923F924F925F926F9250
:105870007F928F929F92AF92BF92CF92DF92EF92E0
:10588000FF920F931F93CF93DF93CDB7DEB7689747
:105890000FB6F894DEBF0FBECDBF5C013A01170111
:1058A0004DB75EB75E834D83822F90E0A501480F10
:1058B000591F141615060CF029C2E0E8AE16B10403
:1058C0000CF024C2FB01E00FF11D1E161F060CF0A8
:1058D0001DC2603471050CF019C24B0177FF04C082
:1058E00088249924861A970AF7E08F2299242B019D
:1058F00077FF03C037E0430E511CE3E05594479413
:10590000EA95E1F7413851051CF04F77552702C061
:1059100040E050E0FC01E41BF50BFC87EB8777FFD0
:1059200009C0F1E04F1A510848E050E0BA01681987
:1059300079094B01B7FE07C0EE27FF27EA19FB09DB
:10594000FA83E98302C01A8219824DB75EB7481BF9
:10595000590B0FB6F8945EBF0FBE4DBF6DB77EB743
:105960006F5F7F4F6B01C101807899279D8B8C8B76
:1059700027FE3DC010927A061092790670927D063D
:1059800060927C06288F0E94972B80918006288D3C
:1059900081110FC04091790650917A06809182065C
:1059A00090918306840F951F90937A0680937906D1
:1059B000E9CF80917B068C30D1F41092830610924F
:1059C000820683E090E0288F0E94782B182F84E0D5
:1059D00090E00E94782B90E1199FA0011124842B64
:1059E000809381061092830610928206288D402FA4
:1059F00046954695469550E0077011F04F5F5F4F12
:105A00008201C2019695982F8827979587957C01EA
:105A1000EA0CFB1CB501605F7F4F860F971FE98181
:105A2000FA818E0F9F1FBC016D597D4F7C836B8364
:105A3000442455244E185F08CA01800F911F9F8B84
:105A40008E8BE22FF0E0F887EF83A101427055279B
:105A50005E874D8721502F87910120713327398B25
:105A6000288B9101287033273B8B2A8B88E090E0AC
:105A70001C01281839083A8629862E883F88021585
:105A8000130509F443C12C893D89232B09F464C013
:105A9000160180917B068D3081F140F58C3079F5CF
:105AA00080918106F10180838091790690917A0638
:105AB000029690937A068093790683E090E00E94A4
:105AC000782B282F84E090E0288F0E94782B288D57
:105AD000F0E12F9F90011124822B8093810683E0B7
