:100000000C947B060C94A3060C94A3060C94A306F4
:100010000C94A3060C94A3060C94A3060C94A306BC
:100020000C94A3060C94A3060C9479110C94EB1178
:100030000C94A3060C94A3060C94A3060C94A3069C
:100040000C94A3060C94A3060C94A3060C94A3068C
:100050000C94A3060C94A3060C94A3060C94EE0730
:100060000C94A3060C94A3060C94A3060C94A3066C
:100070000C94A3060C94A3060C94A3060C94A3065C
:100080000C94F0080C94A3060C94A3060C94A306FD
:100090000C94A3060C94A3060C94A3060C94A3063C
:1000A0000C94A3060C94A3060C94A3061B071E072E
:1000B0000D07110715073F073F073F0722072607D0
:1000C0002A07300734073F073A07F0F89C8E8783EA
:1000D000878E9CF8F00000FEFF0303030303070E66
:1000E000FCF80000FEFF0303030303070EFCF80007
:1000F00000FFFF00000000000000FFFF0000FEFF07
:100100008383838383C7EE7C380000F8FC0E0703EB
:100110000303070EFCF800003F7FE0C08080C0E0D2
:100120007F3FFFFF01010101010101FFFF0000FF0F
:10013000FF0C0C0C0C1C3E77E3C100007FFFC0C01D
:10014000C0C0C0E0703F1F00001F3F70E0C0C0C0D3
:10015000E0703F1F00007FFFC1C1C1C1C1E3773E16
:100160001C00001F3F70E0C0C0C0E0703F1F0000D7
:1001700000000001FFFF010000000000000024005B
:1001800027002A002D003000AED580A83FD30040C4
:100190008D142002A1C8DA1281CFD9F1DB402EA440
:1001A000A6AF04080201104080401020408040802B
:1001B00008020401804020100201108010204040FD
:1001C0002000000000250028002B002E0031000434
:1001D00004040404030405020202020403020202EE
:1001E00002060606060606040402020204041402BD
:1001F00013021202150207020802090209010A028B
:100200000A010B020B0104010C01060100000000B1
:1002100000000000000000000000000000000000DE
:10022000000000000000000000000000000180004D
:1002300001FFFFFFFFFFFFFFFF8000018001400083
:10024000010000000000000000800002800120008A
:100250000100000000000000008000048001980000
:1002600001003FFFFFFC0000008000198000CE006D
:1002700001003FFFFC000000008000730000F380DD
:1002800001003FF800000000008001CF00013CE0C9
:1002900001003800000000000080073C80018E3023
:1002A00001003839F9B9B98300800C718000C3109E
:1002B0000100383BFDFDFDC7008008C30000F05081
:1002C00001003F39FDFDFCC600800A0F0000789850
:1002D00001003F381DDDDCEE0080191E00004CC817
:1002E00001003F381DDDDC7E00801332000063CC4E
:1002F00001003839FDFDFC3C008033C6000030664B
:100300000100383BFDFDFC3C0080660C00003CEB2E
:100310008100383BFDF9F8380081D73C00002FB848
:10032000E100383B9DC1C03800871DF40000333A1E
:100330001900383BFDC1C03800985CCC00001E6C31
:100340000F00383BFDC1C07000F03678000017C4C4
:1003500089003839EDC1C1F0009123E80000198F00
:1003600027003838018183C000E4F19800000F397C
:10037000DB003839FFFFFF8000DB9CF0000007F353
:1003800037000000007FFE0000ECCFE0000000C35B
:100390006B0000000000000000D6C300000000FE5B
:1003A000CF0000000000000000F37F000000007B91
:1003B0009300003FC001DC0000C9DE000000000324
:1003C0001700003FE001DC0000E8C0000000000072
:1003D0002F00003FF001DC0000F4000000000000EE
:1003E000790000387801DC00009E00000000000069
:1003F000310000383801DC00008C000000000000F3
:10040000010000383801DC0000800000000000001E
:100410000100003831F9DC0000800000000000001D
:100420000100003FF3FDDC00008000000000000040
:100430000100003FE1FDDC00008000000000000042
:100440000100003FF01DDC00008000000000000003
:1004500001000038381DDC000080000000000000B2
:100460000100003839FDDC000080000000000000C1
:10047000010000383BFDDC000080000000000000AF
:10048000010000383BFDDC0000800000000000009F
:10049000010000387B9DDC000080000000000000AF
:1004A0000100003FFBFDDC000080000000000000B8
:1004B0000100003FF3FDDC000080000000000000B0
:1004C0000100003FE1EDDC000080000000000000C2
:1004D000010000000000000000800000000000009B
:1004E000010000000000000000800000000000008B
:1004F000010000000000000000800000000000007B
:1005000001FFFFFFFFFFFFFFFF8000000000000072
:1005100000000000000000000000000000000000DB
:1005200000000000000000000000000000000000CB
:1005300000000000000000000000000000000000BB
:1005400000000000000000000000000000000000AB
:10055000000000000000000000000000000000009B
:10056000000000000000000000000000000000008B
:10057000000000000000000000000000000000007B
:10058000000000000000000000000000000000006B
:10059000000000000000000000000000000000005B
:1005A000000000000000000000000000000000004B
:1005B000000000000000000000000000000000003B
:1005C000000000000000000000000000000000002B
:1005D000000000000000000000000000000000001B
:1005E000000000000000000000000000000000000B
:1005F00000000000000000000000000000000000FB
:10060000000000000000000000000000000B02F4E9
:10061000010601F4014A01F401B801F4018801F472
:10062000010601F4010B02F4010601F4014A01F490
:1006300001B801F4018801F4010601F401B801F4E4
:1006400001DC00F4010601F4015D01F4012601F46E
:1006500001DC00F401B801F401DC00F4010601F44E
:10066000018801F4012601F4015D01F4010B02D0BF
:10067000070080FF80003FC3FC07F80080FFFFE019
:100680004207FC0FF08083002042044C0810808356
:10069000002442044C88108FF3002442644C8810DC
:1006A0008903232042644C09908903232042644C2F
:1006B00009908903232042644C09F089132321C245
:1006C000644C390089132327C2040CF900810323E9
:1006D0002042040C09008103232042060C0900FF7C
:1006E000FFFFFFC3FDF7FF00000000000000000057
:1006F0000006012C019300960000009600830096EE
:1007000000C400EE0226018403F7002500C4002582
:1007100000A5002500830025006E00250057002558
:1007200000490025003E00F401008006011F00156D
:10073000011F0026011F000080DC034B002705E19C
:100740000000802E006B000601F401008000000014
:1007500000003E5B4F5B3E3E6B4F6B3E1C3E7C3E63
:100760001C183C7E3C181C577D571C1C5E7F5E1C71
:1007700000183C1800FFE7C3E7FF0018241800FF2B
:10078000E7DBE7FF30483A060E2629792926407F25
:10079000050507407F05253F5A3CE73C5A7F3E1C34
:1007A0001C08081C1C3E7F14227F22145F5F005F20
:1007B0005F06097F017F006689956A6060606060FE
:1007C00094A2FFA29408047E040810207E20100842
:1007D000082A1C08081C2A08081E101010100C1EDD
:1007E0000C1E0C30383E3830060E3E0E060000005F
:1007F000000000005F00000007000700147F147F66
:1008000014242A7F2A122313086462364956205082
:100810000008070300001C2241000041221C002A9E
:100820001C7F1C2A08083E08080080703000080859
:10083000080808000060600020100804023E5149CA
:10084000453E00427F400072494949462141494D99
:10085000331814127F1027454545393C4A49493120
:1008600041211109073649494936464949291E009F
:100870000014000000403400000008142241141449
:10088000141414004122140802015909063E415D66
:10089000594E7C1211127C7F494949363E414141F3
:1008A000227F4141413E7F494949417F0909090170
:1008B0003E414151737F0808087F00417F4100207D
:1008C00040413F017F081422417F404040407F0269
:1008D0001C027F7F0408107F3E4141413E7F090991
:1008E00009063E4151215E7F091929462649494999
:1008F0003203017F01033F4040403F1F2040201F43
:100900003F4038403F6314081463030478040361D4
:1009100059494D43007F41414102040810200041E4
:1009200041417F040201020440404040400003076F
:10093000080020545478407F2844443838444444C4
:1009400028384444287F385454541800087E09023B
:1009500018A4A49C787F0804047800447D400020FB
:1009600040403D007F1028440000417F40007C044F
:100970007804787C080404783844444438FC18240B
:10098000241818242418FC7C0804040848545454DF
:100990002404043F44243C4040207C1C2040201C74
:1009A0003C4030403C44281028444C9090907C447B
:1009B00064544C44000836410000007700000041B8
:1009C00036080002010204023C2623263C1EA1A197
:1009D00061123A4040207A3854545559215555797E
:1009E0004121545478412155547840205455794040
:1009F0000C1E52721239555555593954545459399F
:100A0000555454580000457C410002457D42000188
:100A1000457C40F0292429F0F0282528F07C545505
:100A200045002054547C547C0A097F493249494985
:100A3000323248484832324A4848303A4141217AB5
:100A40003A42402078009DA0A07D39444444393D7D
:100A50004040403D3C24FF2424487E4943662B2FE0
:100A6000FC2F2BFF0929F620C0887E09032054544F
:100A700079410000447D413048484A3238404022A4
:100A80007A007A0A0A727D0D19317D2629292F28CC
:100A9000262929292630484D40203808080808080A
:100AA000080808382F10C8ACBA2F102834FA0000F4
:100AB0007B000008142A142222142A14089500220C
:100AC0000095AA005500AAAA55AA55AA000000FF41
:100AD00000101010FF00141414FF001010FF00FF8E
:100AE0001010F010F0141414FC001414F700FF00A0
:100AF00000FF00FF1414F404FC141417101F10104E
:100B00001F101F1414141F00101010F0000000001C
:100B10001F101010101F10101010F010000000FF18
:100B2000101010101010101010FF10000000FF1413
:100B30000000FF00FF00001F10170000FC04F41469
:100B4000141710171414F404F40000FF00F7141421
:100B50001414141414F700F7141414171410101F9D
:100B6000101F141414F4141010F010F000001F10D3
:100B70001F0000001F14000000FC140000F010F023
:100B80001010FF10FF141414FF141010101F000099
:100B90000000F010FFFFFFFFFFF0F0F0F0F0FFFFAC
:100BA000FF0000000000FFFF0F0F0F0F0F3844443D
:100BB00038447C2A2A3E147E02020606027E027E09
:100BC0000263554941633844443C04407E201E2062
:100BD00006027E020299A5E7A5991C2A492A1C4C07
:100BE0007201724C304A4D4D303048784830BC620A
:100BF0005A463D3E494949007E0101017E2A2A2A82
:100C00002A2A44445F444440514A444040444A51A3
:100C1000400000FF0103E080FF000008086B6B0844
:100C20003612362436060F090F0600001818000089
:100C3000001010003040FF0101001F01011E0019CB
:100C40001D1712003C3C3C3C00000000000000006E
:100C50000200090F0000030401000C000000000066
:100C6000000000000000000000000000080B00026F
:100C70000202010009040000010202000005240034
:100C800010010524010101042402060524060001C7
:100C90000705810310004009040100020A0000005A
:100CA000070502024000000705830240000004031C
:100CB000090441726475696E6F204C4C43004172A7
:100CC0006475696E6F204C656F6E6172646F00129F
:100CD00001000200000040412336800001010203B0
:100CE0000112010002EF02014041233680000101A0
:100CF00002030100881A11241FBECFEFDAE0DEBF25
:100D0000CDBF26E0AEE7B1E001C01D92A534B20729
:100D1000E1F711E0A0E0B1E0EEE5F7E302C00590F5
:100D20000D92AE37B107D9F716E0CBE7D6E004C095
:100D30002197FE010E94CD1ACA37D107C9F70E9438
:100D400028140C94AD1B0C940000CF92DF92EF920C
:100D5000FF920F931F93CF93DF936C017A018B0166
:100D6000C0E0D0E0CE15DF0589F0D8016D918D018E
:100D7000D601ED91FC910190F081E02DC60109951D
:100D8000892B11F47E0102C02196ECCFC701DF91BF
:100D9000CF911F910F91FF90EF90DF90CF9008952A
:100DA0008091A001E0919E01F0919F01882349F07C
:100DB000CF01029690939F0180939E01859194911B
:100DC0000895CF01029690939F0180939E018081A8
:100DD0009181089580918701089508950E94D31A02
:100DE000362F90E0FC01E35BF34F4491FC01EE559C
:100DF000FE4F2491FC01E153FE4F8491882309F4B6
:100E000051C04423E1F150E0FA013197EF30F10590
:100E1000B0F5EA5AFF4F0C94CD1A909180009F775D
:100E200007C0909180009F7D03C090918000977FC4
:100E30009093800024C094B59F7702C094B59F7DA5
:100E400094BD1DC0909190009F7707C09091900035
:100E50009F7D03C090919000977F909390000FC06A
:100E60009091C0009F7703C09091C0009F7D9093A8
:100E7000C00005C09091C200977F9093C200E82FF8
:100E8000F0E0EE0FFF1FEF53FE4FA591B4918FB727
:100E9000F894EC91311103C020952E2301C02E2B24
:100EA0002C938FBF0895CF93DF9390E0FC01EE5514
:100EB000FE4F2491FC01E153FE4F8491882361F1A0
:100EC00090E0880F991FFC01E658FE4FC591D49120
:100ED000FC01EF53FE4FA591B491611109C09FB77A
:100EE000F8948881209582238883EC912E230BC06F
:100EF000623061F49FB7F8943881822F8095832304
:100F00008883EC912E2B2C939FBF06C08FB7F8944B
:100F1000E8812E2B28838FBFDF91CF9108953FB7B3
:100F2000F8948091A8019091A901A091AA01B09193
:100F3000AB0126B5A89B05C02F3F19F00196A11D56
:100F4000B11D3FBFBA2FA92F982F8827820F911D5F
:100F5000A11DB11DBC01CD0142E0660F771F881FA6
:100F6000991F4A95D1F708958F929F92AF92BF92A1
:100F7000CF92DF92EF92FF926B017C010E948F076C
:100F80004B015C01C114D104E104F104F1F00E94B1
:100F90008F07DC01CB0188199909AA09BB09883E92
:100FA0009340A105B10570F321E0C21AD108E10810
:100FB000F10888EE880E83E0981EA11CB11CC114B4
:100FC000D104E104F10419F7DDCFFF90EF90DF9039
:100FD000CF90BF90AF909F908F9008951F920F92E7
:100FE0000FB60F9211242F933F938F939F93AF933C
:100FF000BF938091B0019091B101A091B201B091E5
:10100000B3013091A70123E0230F2D3720F401967F
:10101000A11DB11D05C026E8230F0296A11DB11D1B
:101020002093A7018093B0019093B101A093B201E6
:10103000B093B3018091A8019091A901A091AA0158
:10104000B091AB010196A11DB11D8093A8019093B1
:10105000A901A093AA01B093AB01BF91AF919F9159
:101060008F913F912F910F900FBE0F901F90189569
:10107000E1E7F0E080818D7F8083109291004698B7
:10108000479810929D010895CF92DF92EF92FF92C0
:101090000F931F93CF93DF930E94D006811520E812
:1010A000920751F4DF91CF911F910F91FF90EF9034
:1010B000DF90CF900C94380821E020939D0181307F
:1010C00020E8920751F480919B0190919C019093AC
:1010D0009F0180939E010E94D00697FD05C020913C
:1010E0009A01222309F440C02091990121113CC0AA
:1010F00021E02093A101EC01DF77209769F481E0E2
:101100008093A20146983FE9C32E3FE0D32EE12C05
:10111000F12CCAEFD0E014C08E0120E030E060E492
:1011200072E48FE090E0A90198010E944A1B6901D6
:101130007A0181E0C81AD108E108F1081092A201F1
:10114000E091C205F091C3050995811103C081E0CA
:101150008093A2018091A101882309F43FC080916E
:10116000A20181113BC003C01092A101C4CF4699D6
:1011700035C0479A0E94D006009771F09C01DE01AD
:101180000E949E1BDC01CB0129E0B595A7959795A0
:1011900087952A95D1F703C08FEF9FEFDC0110925E
:1011A00090002AE020939100D0929900C09298007C
:1011B0008093A3019093A401A093A501B093A601ED
:1011C00080917100826080937100DF91CF911F91B7
:1011D0000F91FF90EF90DF90CF9008954798CACF7E
:1011E0001F920F920FB60F9211242F933F934F939C
:1011F0005F936F937F938F939F93AF93BF93EF937F
:10120000FF938091A3019091A401A091A501B091B9
:10121000A601892B8A2B8B2B81F18091A201811150
:101220000BC098B180E4892788B98091A1018823F7
:1012300019F088B1805888B98091A3019091A401D8
:10124000A091A501B091A601181619061A061B0651
:10125000B4F48091A3019091A401A091A501B09153
:10126000A6010197A109B1098093A3019093A4015C
:10127000A093A501B093A60102C00E944408FF916B
:10128000EF91BF91AF919F918F917F916F915F91FE
:101290004F913F912F910F900FBE0F901F90189577
:1012A0009C01E1E7F0E090819D7F908381E0809355
:1012B000A00130939F0120939E0130939C012093C5
:1012C0009B010C9444088FB12CB193B130E0209570
:1012D000309520743327A90123E0559547952A9529
:1012E000E1F7292F30E0209530952071332735958F
:1012F000279535952795242B8095807F822B0895FF
:101300001F93CF93DF931F92CDB7DEB7162F682FB1
:1013100089E049830E94F006612F8AE00E94F0066E
:101320004981642F8BE00F90DF91CF911F910C9436
:10133000F00683B7817F83BF83B7816083BF8895C1
:1013400083B78E7F83BF0895E0918201F09183017E
:10135000908180918101892B8083E0917F01F091C0
:101360008001908180917E01809589238083E09126
:101370008201F09183019081809181018095892380
:1013800080830895E0917F01F091800190818091A8
:101390007E01892B8083E0918201F091830190810D
:1013A0008091810180958923808308958EBD0000FE
:1013B0000DB407FEFDCF8EB5089561E085E00E9473
:1013C000530761E083E00E94530781E08093870127
:1013D00008950F931F93CF93DF931F92CDB7DEB77E
:1013E000182F062F61E08BE049830E94F00668EC1D
:1013F00070E080E090E00E94B40760E0802F0E94DF
:10140000F00682E090E00E94341B4981481729F0E1
:10141000642F82E090E00E943C1B64EF71E080E06A
:1014200090E00E94B40761E0802F0E94F0060E94C5
:10143000630981238117D9F30F90DF91CF911F9119
:101440000F9108956038710518F54034510500F585
:10145000E42FE695E695E695F0E047705527F6957A
:10146000FE2FEE27F795E7956E0F7F1FFB01EC54DB
:10147000FE4F81E090E001C0880F4A95EAF72223F1
:1014800019F09081892B03C08095908189238083F6
:1014900008952F923F924F925F926F927F928F9218
:1014A0009F92AF92BF92CF92DF92EF92FF920F93F3
:1014B0001F93CF93DF93CDB7DEB72A970FB6F8947B
:1014C000DEBF0FBECDBFFC016A3069F4248D808D74
:1014D000918D38E0239F800D911D1124918F808F75
:1014E000178A168AB0C06D3009F4ADC09A87898713
:1014F000E48C338D828D8983208C318C0689178909
:1015000000381105C4F0A985BA855C962C915C97CA
:10151000422F50E056968D919C915797B6E02B9FA5
:10152000800D911D1124E985FA85978B868B258D79
:10153000211173C088C0F0E42F16310424F7C801CC
:1015400025E0E29E800D911D112418161906DCF687
:101550008E2D90E09B838A83C101A8E0EA9E800DD6
:10156000911D11241816190674F625E0629FF001EA
:101570001124FD83EC83C12CD12C89859A85049696
:101580009F838E8395E0C916D10441F0EC81FD81E3
:10159000EC0DFD1DE35BF84FF49001C0F12C31011F
:1015A00088E0482EF0FC02C0532E01C05980511033
:1015B0000CC0A9813A1309C0F6944A94EA81FB81D0
:1015C0006E0E7F1E4110EECF1BC058018A2D801B6E
:1015D0008E1590F74301882D86198E1568F4252DF8
:1015E000A401B5018E819F8138870E94220AFFEFF6
:1015F0008F1A9F0A3885EFCF2FEFA21AB20AE6CFD3
:101600008FEFC81AD80AAA81BB810A0F1B1FB6E048
:10161000CB16D10409F0B6CF76CF6AEF6403900100
:10162000659F300D112420583F4F281739075CF46F
:10163000A985BA85ED91FC9111970190F081E02D7B
:101640006AE0CD01099581E090E02A960FB6F89402
:10165000DEBF0FBECDBFDF91CF911F910F91FF90E5
:10166000EF90DF90CF90BF90AF909F908F907F9042
:101670006F905F904F903F902F90089564E670E0D8
:1016800080E090E00E94B4070E9463098111FCCFC2
:1016900064E670E080E090E00C94B4078091030170
:1016A00080930401909186019F5F90938601409101
:1016B000840150918501485F5F4F509385014093AD
:1016C00084018091000160EC680F949F9001959FC8
:1016D000300D1124C901805E9F4E26E095958795B7
:1016E0002A95E1F7860F80930301089580919D016B
:1016F000811125C0809171008D7F809371001092BF
:10170000A00184EB95E090939F0180939E019093BC
:101710009C0180939B0181E290E09093B5058093BA
:10172000B4058DE790E09093B7058093B60580E00F
:1017300090E89093B9058093B8050E94440880E72B
:101740009FEF909385018093840110928601809190
:101750000301809300010895EF92FF920F931F936E
:10176000CF93DF930CE811E0C8E8D1E080E4E82EE5
:10177000FC2E84E0F80E8881882309F465C0F80106
:1017800020814CE06FEF7FEF082E000C990B0E9438
:10179000D20EF8018081609101012E2D261B281B9D
:1017A00070E0680F711D87FD7A9588814CE0082EE6
:1017B000000C990B0E94D20EF8016081062E000CDD
:1017C000770B635071098881082E000C990B23E078
:1017D00040E102970E94D20EF801808160910101E0
:1017E00070E0680F711D87FD7A958881082E000CC6
:1017F000990B23E040E102970E94D20E8881082EC7
:10180000000C990B0296F8012081022E000C330B7C
:1018100025503109AC0160E070E00E94770D8881AD
:10182000082E000C990B0296F801208160910101AD
:1018300070E0620F711D27FD7A956B5F7F4F2DE37E
:1018400030E0AC010E94770D21960F5F1F4FFC1214
:1018500092CFDF91CF911F910F91FF90EF9008955C
:10186000CF93DF9380910501815087FD84E08093C1
:1018700005018091030160E0082E000C990B0E9485
:10188000FC0D8091030161E0082E000C990B0E9471
:10189000FC0D60910301062E000C770BC091050131
:1018A0000C2E000CDD0B9B012C1B3D0B4BE150E083
:1018B00080E290E00E94770D40910301042E000C1D
:1018C000550B4C1B5D0B4F5F5F4F21E06BE170E0F0
:1018D00088EC95E00E94220A40910301042E000C3E
:1018E000550B4250510921E061E270E088EC95E02F
:1018F000DF91CF910C94220A40E86FE370E080E022
:1019000090E00C94300DCF93DF931F92CDB7DEB7EC
:101910006983DC01ED91FC910280F381E02D41E0CF
:1019200050E0BE016F5F7F4F09950F90DF91CF911F
:10193000089583E08093E9008091F200882319F0F4
:101940008AE38093E80008958F929F92AF92BF92AE
:10195000CF92DF92EF92FF920F931F93CF93DF937B
:101960005C016B018A0180910D01882309F45EC03E
:101970008091AF01882309F459C08091AD0180FFA7
:1019800005C08091E00082608093E000E8018AEF6A
:10199000F82E93E0E92E2FE3822E3AE3932E209740
:1019A00009F43DC08FB7F894E092E9009091E80007
:1019B00095FF06C09091F200282D291B922F01C09F
:1019C00090E08FBF91110AC0FA94FF2079F161E095
:1019D00070E080E090E00E94B407E1CF292F30E072
:1019E000C217D3070CF49C2F8FB7F894E092E9004C
:1019F0002091E80025FF11C0292F30E0C21BD30B36
:101A0000F601915020F041914093F100FACFC20EBF
:101A1000D31E9091E80095FF13C08FBFC0CF5D9893
:101A200084E68093AC011016110644F081E090E04A
:101A3000F5019383828380E090E005C0C80103C074
:101A40009092E800EACFDF91CF911F910F91FF9024
:101A5000EF90DF90CF90BF90AF909F908F900895C0
:101A60009C01240F311D1216130674F58038910560
:101A70005CF5FC0197FF02C0E0E0F0E021383105A1
:101A800014F020E830E02E1BAB014770552781E0B1
:101A900001C0880F4A95EAF777FF02C0695F7F4F60
:101AA00093E0759567959A95E1F77695762F662779
:101AB00077956795E60FF71FEC54FE4F215020F005
:101AC0009081982B9193FACF0895009769F0FC01CB
:101AD00001900020E9F73197AF01481B590BBC0179
:101AE00084EC95E00C94A50680E090E008955F9268
:101AF0006F927F928F929F92AF92BF92CF92DF921E
:101B0000EF92FF920F931F93CF93DF93EC018B0122
:101B10007A01A901461B570B57FF03C05195419508
:101B20005109C7018C1B9D0B97FF03C091958195AF
:101B30009109552453948417950714F0512C0AC029
:101B40009E2D8F2D7901292F382F9C2F8D2FE80165
:101B5000092F182FEC16FD0654F4902F812F8901C0
:101B6000292F382F9C2F8D2FE701E92EF82E3701D2
:101B70006C1A7D0A5901A01AB10AB7FE03C0B194CC
:101B8000A194B108630177FE03C08FEFC81AD80A89
:101B9000D594C7940217130714F08FEF01C081E0AA
:101BA000882E880F9908EC16FD06B4F021E0552028
:101BB00019F0AE01B80102C0A801BE0188EC95E0A1
:101BC0000E94220ACA18DB08D7FE04C0080D191D9E
:101BD000C60CD71C2196E7CFDF91CF911F910F91B3
:101BE000FF90EF90DF90CF90BF90AF909F908F903D
:101BF0007F906F905F9008952F923F925F926F92C7
:101C00007F928F929F92AF92BF92CF92DF92EF928C
:101C1000FF920F931F93CF93DF9300D000D0CDB7E7
:101C2000DEB79C838B83562EAC014C5F5F4F262F13
:101C300060E270E088EC95E00E94220A4B815C81B2
:101C400044505109252D60E270E088EC95E00E9437
:101C5000220A252D4B815C8164E270E088EC95E0DE
:101C60000E94220A252D4B815C816CE170E088EC9A
:101C700095E00E94220A81E090E09A838983E12C1A
:101C8000F12C04E010E028EF222E33243A943DEFAB
:101C9000C32EDD24DA94EFEFEE1AFE0A89819A81D1
:101CA00002969A838983C80ED91E470190E2890E55
:101CB000911C252DAB80BC80A00EB11EA501B401E6
:101CC00088EC95E00E94220A80E2682E712C6E1842
:101CD0007F08252DA501B30188EC95E00E94220A1A
:101CE000252DAB80BC80A01AB10AA501B40188ECF7
:101CF00095E00E94220A252DA501B30188EC95E00C
:101D00000E94220A8B809C808E0C9F1C252DA40192
:101D10005801E0E2AE0EB11CB50188EC95E00E94DE
:101D2000220A252DA40190E2692E712C601A710AF5
:101D3000B30188EC95E00E94220A8B809C808E186B
:101D40009F08252DA401B50188EC95E00E94220A88
:101D5000252DA401B30188EC95E00E94220AE0162B
:101D6000F10654F4D7FC97CF0150110992E0290EE7
:101D7000311CC20CD31C8FCF0F900F900F900F907F
:101D8000DF91CF911F910F91FF90EF90DF90CF9057
:101D9000BF90AF909F908F907F906F905F903F909B
:101DA0002F9008956F927F929F92AF92BF92CF92A1
:101DB000DF92EF92FF920F931F93CF93DF931F92C7
:101DC000CDB7DEB78C013B01942E6034710528F449
:101DD000C80129830E94300D29815301A20EB11C34
:101DE000B501615071096034710520F4492DC801B5
:101DF0000E94300D77FE02C0612C712C73016501C9
:101E000081E4A816B1041CF080E4C82ED12CEC1497
:101E1000FD045CF421E0A701B80188EC95E00E9484
:101E2000220A8FEFE81AF80AEACF090D111D0150B6
:101E300011096C147D045CF421E0A301B80188EC65
:101E400095E00E94220A8FEF681A780AF2CF0F906D
:101E5000DF91CF911F910F91FF90EF90DF90CF9086
:101E6000BF90AF909F907F906F900895EF92FF92F8
:101E70000F931F93CF9300E810E0C0E0E12CF12C0A
:101E80000E94A40980E10E94D60982E00E94D6093E
:101E90008C2F806B0E94D6090E94C209F701EC5476
:101EA000FE4F80818EBDC70101967C01801791078E
:101EB0004CF4FC01EC54FE4F20810DB407FEFDCF25
:101EC0002EBDF2CF0DB407FEFDCFCF5F00581F4FE0
:101ED000C830B1F6CF911F910F91FF90EF90089508
:101EE00020E084EB91E0B22FB111BFEFFC010024A0
:101EF000B193B193B193B1930394D1F70895CF9275
:101F0000DF92EF92FF920F931F93CF93DF93CDB7A2
:101F1000DEB7A1970FB6F894DEBF0FBECDBF9C0110
:101F200040E050E019A28E010F5D1F4F8AE0C82EDD
:101F3000D12CE12CF12CCA01B901A70196010E9414
:101F40007C1B605DF80162938F012115310541050D
:101F5000510589F7CF010E94650DA1960FB6F8943F
:101F6000DEBF0FBECDBFDF91CF911F910F91FF90CC
:101F7000EF90DF90CF9008952FB7F8948091B00143
:101F80009091B101A091B201B091B3012FBF209106
:101F9000D805222391F02091D005382F321B3093A1
:101FA000D9052091CB053091CC052F5F3F4F309361
:101FB000CC052093CB051092D8054091D4055091C3
:101FC000D5056091D6057091D70584179507A607AA
:101FD000B70730F4481B4230F8F00E9499091CC042
:101FE0002091CF05AC01BD01420F511D611D711D36
:101FF0004093D4055093D5056093D6057093D705CB
:102000008093D0059093D105A093D205B093D305CA
:1020100081E08093D805089580E00895FC018091C7
:10202000AF01811103C08FEF9FEF08959FB7F89420
:1020300082E08093E9002091F20030E0121613064E
:1020400014F421E030E02115310559F0289884E698
:102050008093AE018091F10080838091F20088230B
:1020600019F09FBFC90108958BE68093E800F9CF6E
:10207000CF93DF931F92CDB7DEB7FC0184859585A2
:1020800097FD05C02FEF3FEF358724870BC0CE01AA
:1020900001960E940E10019719F4898190E002C008
:1020A0008FEF9FEF0F90DF91CF9108958091E6051C
:1020B00081110DC082E08093E20584E08093E30506
:1020C0001092E5051092E40581E08093E60582EE2A
:1020D00095E00895FC018485958597FD0BC09FB719
:1020E000F89482E08093E9008091F2009FBF90E035
:1020F000019608959FB7F89482E08093E90080915B
:10210000F2009FBF90E0089540914306509144062D
:10211000209141063091420642175307B4F4909142
:10212000E8009570E1F39091E80092FD19C080936A
:10213000F100809143069091440601968F73992790
:10214000892B19F48EEF8093E800809143069091DB
:1021500044060196909344068093430681E00895D7
:1021600080E00895CF92DF92EF92FF920F931F933A
:10217000CF93DF931F92CDB7DEB7182F062FE42E33
:10218000862F880F8E5F99830E94841083E00E94BF
:102190008410F12EC12E9981D92E8C2D8F19801784
:1021A00098F4F601E7FE02C0849101C080810E948C
:1021B0008410182F80E00E9484108123FFEFCF1A33
:1021C000DF0A8111EACF01C081E00F90DF91CF914A
:1021D0001F910F91FF90EF90DF90CF900895DF92C5
:1021E000EF92FF920F931F93CF93DF93D82E8A0124
:1021F0007B01E40EF51EEB01CE15DF0571F0D7FE75
:1022000003C0FE01849101C088810E948410219640
:102210008111F2CF8FEF9FEF01C0C801DF91CF9105
:102220001F910F91FF90EF90DF900895615030F073
:102230002091F100FC0120830196F8CF289884E6D4
:102240008093AE0108950F931F93CF93DF931F9256
:10225000CDB7DEB78C01FC018485958597FF0EC054
:10226000CE0101960E940E10019719F4298130E0E9
:1022700002C02FEF3FEFF80135872487F8018485EE
:1022800095850F90DF91CF911F910F9108950F9336
:102290001F93CF93DF931F92CDB7DEB782E0898380
:1022A00042E450E06CE67CE080E80E94EF100E947F
:1022B0005610DC0112960D911C9113970115110512
:1022C00069F0D801ED91FC910280F381E02DBE010F
:1022D0006F5F7F4FC801099597FF07C089810F90F5
:1022E000DF91CF911F910F910895F801008511851D
:1022F000E5CF1F920F920FB60F9211248F939F93E9
:102300008091E1009091E100937F9093E10083FF41
:102310000FC01092E90091E09093EB001092EC0056
:1023200092E39093ED001092AF0198E09093F0004B
:1023300082FF20C093E09093E9009091F2009923EE
:1023400019F09AE39093E8009091AC01992339F049
:102350009091AC0191509093AC01992389F19091A7
:10236000AE01992339F09091AE0191509093AE0156
:10237000992341F184FF10C08091E2008E7E81603C
:102380008093E2008091E1008F7E8093E100809154
:10239000AD018E7E806111C080FF16C08091E20089
:1023A0008E7E80618093E2008091E1008E7E80933A
:1023B000E1008091AD018E7E81608093AD0104C00B
:1023C0005D9ACDCF289AD6CF9F918F910F900FBE57
:1023D0000F901F9018951F920F920FB60F92112415
:1023E000CF92DF92EF92FF920F931F932F933F9321
:1023F0004F935F936F937F938F939F93AF93BF930D
:10240000EF93FF93CF93DF93CDB7DEB76C97DEBF2B
:10241000CDBF1092E9008091E80083FFFAC168E027
:10242000CE0145960E94161182EF8093E8008D89B7
:1024300087FF05C09091E80090FFFCCF03C09EEF9E
:102440009093E800982F907609F0C6C09E892F8956
:10245000188D91110CC0803829F480913F0680932B
:10246000F10002C01092F1001092F10047C1422F1A
:1024700050E0512B913051F4811140C14130510550
:1024800009F03CC180913F068D7F0BC0933061F411
:10249000811134C14130510509F030C180913F06AE
:1024A000826080933F062AC1953041F48091E80014
:1024B00080FFFCCF20682093E30020C1963009F014
:1024C0005FC0EB8CFC8C1092E900109244061092D5
:1024D0004306123091F510924206109241060E9476
:1024E000471199E0BE016F5F7F4FDB01E92F1D921D
:1024F000EA95E9F799831A8391E09E8390EA988799
:102500009AEF99872091430630914406275F3F4F09
:102510003C832B838D831092E90010924406109225
:102520004306F0924206E092410649E050E080E026
:102530000E94EF100E944711E1C0F0924206E09223
:1025400041060E945610DC011296ED90FC90139704
:10255000E114F10409F4C0C0D701ED91FC910480AD
:10256000F581E02DBE016B5E7F4FC7010995009795
:1025700019F00CF0C3C0C6C0F701E084F184E8CFC5
:10258000973009F4BFC0983021F481E08093F100C6
:10259000B5C0993009F0B2C0837009F0B3C0E7E369
:1025A000F1E081E021E036E39081992361F08093AE
:1025B000E9002093EB0091919093EC003093ED00B3
:1025C0008F5F873089F78EE78093EA001092EA00E8
:1025D0008F898093AF0192C08B8D9C8D1092E90002
:1025E000109244061092430690934206809341064F
:1025F000898D811156C08E899D89913A59F4813215
:1026000009F080C047E050E066E071E080E00E94A1
:10261000EF1074C0913209F075C0833289F4888D4F
:1026200090E0982F88272F89822BA0E0B0E080933C
:102630000E0190930F01A0931001B09311015EC0A1
:10264000803269F48091E80082FFFCCF67E086E089
:1026500091E00E9416118BEF8093E80006C0823251
:1026600009F04CC08F8980930D0180913E0688232C
:1026700019F0EEEFFAE002C0E0E0F8E08091060128
:1026800090910701A0910801B0910901803B94400D
:10269000A105B10509F088C080910D0180FFA0C09F
:1026A00083C00E945610DC0112960D911C91139765
:1026B0000115110539F1D801ED91FC910190F081DE
:1026C000E02DBE016B5E7F4FC8010995811116C0D8
:1026D000F80100851185ECCF1130C1F0133091F471
:1026E0008F89882309F455C08230E9F440E860E11D
:1026F0008EEB9CE00E94B210882321F08EEF809335
:10270000E80087C081E28093EB0083C08B8D9C8DB5
:10271000089711F41093400680914006811136C04D
:102720006FEC7CE038C0813029F440E86BE082EB4C
:102730009CE0E0CF833031F70E945610DC01129606
:10274000ED90FC9013978E010F5F1F4F6801E1140D
:10275000F10479F0D701ED91FC910680F781E02D2D
:10276000B801C7010995080F111DF701E084F18434
:10277000EECFD8011C92F60101900020E9F73197C5
:10278000BF016C197D0940E0C601B4CF61EE7CE069
:1027900002C06EEA7CE06115710509F4B3CFFB015C
:1027A000449150E080E833CF0FB6F894A89580911B
:1027B0006000886180936000109260000FBEA89551
:1027C000EE3F2AE0F20739F08091FE0A9091FF0A6D
:1027D0009183808393CF1092FF0A1092FE0A8ECFCE
:1027E000EE3F8AE0F80731F0808191819093FF0AF3
:1027F0008093FE0A87E797E7918380839BE088E1D7
:102800000FB6F894A895809360000FBE9093600077
:1028100075CF6C960FB6F894DEBF0FBECDBFDF91BB
:10282000CF91FF91EF91BF91AF919F918F917F9148
:102830006F915F914F913F912F911F910F91FF9059
:10284000EF90DF90CF900F900FBE0F901F901895D4
:10285000789484B5826084BD84B5816084BD85B57B
:10286000826085BD85B5816085BD80916E00816087
:1028700080936E001092810080918100826080932D
:10288000810080918100816080938100809180002F
:10289000816080938000809191008260809391009C
:1028A000809191008160809391008091900081607F
:1028B000809390008091C10084608093C1008091DA
:1028C000C10082608093C1008091C10081608093CB
:1028D000C1008091C30081608093C3008091C000DB
:1028E00082608093C0008091C20081608093C200AA
:1028F00080917A00846080937A0080917A0082606F
:1029000080937A0080917A00816080937A00809130
:102910007A00806880937A001092AF0110923F068F
:102920001092AD018091D70081608093D70080EA3A
:102930008093D80089B5806189BD89B5826089BDE1
:1029400009B400FEFDCF61E070E080E090E00E94FD
:10295000B4078091D8008F7C80618093D8008091EB
:10296000E000807F8093E0008091E1008E7E809384
:10297000E1008DE08093E200559A209AEEEFFFE7A8
:10298000859194918B3F9C4D19F481E080933E0694
:10299000CFB7F89480919001811127C0E0EEF1E06B
:1029A0008491E3EBF1E09491E82FF0E0EE0FFF1F4C
:1029B000E658FE4FA591B491EC91E92321F461E032
:1029C00081E10E94F00661E081E10E9453078CB52D
:1029D00080618CBD8CB580648CBD61E08FE00E940D
:1029E000530761E080E10E945307809190018F5F5F
:1029F00080939001CFBFCEEED1E0FE01849122966C
:102A000031966491882319F00E945307F6CF61E054
:102A100086E00E94F00661E070E080E090E00E94B5
:102A2000B40760E086E00E94F0066AE070E080E0B3
:102A300090E00E94B40761E086E00E94F006EBEDB2
:102A4000F1E0E491F0E0EE0FFF1FEF53FE4F8591B0
:102A500094919093830180938201EEEAF1E0E491F6
:102A6000E0938101E3EDF1E0E491F0E0EE0FFF1F70
:102A7000EF53FE4F859194919093800180937F0155
:102A8000E6EAF1E0E491E0937E018CB58C7F8CBDA9
:102A90008DB581608DBD0E94A409C8E8D1E01C2FCE
:102AA000165EFE0184910E94D60921961C13F9CF6F
:102AB0000E94C209809164008160809364008091CB
:102AC00064008260809364008091640080688093D9
:102AD000640080916400806480936400809165004C
:102AE0008160809365000E94A40980E10E94D6095C
:102AF00082E00E94D6090E94C209C0E0D4E080E0D2
:102B00000E94D6092197D9F70E94630987FF3CC02C
:102B10000E94A40985EA0E94D6090E94C20940E0E9
:102B200060E080E00E9480090E94630984FD03C088
:102B30000E949909F9CF41E061E081E00E9480099B
:102B40000E94A40984EA0E94D6090E94C2091CC0FE
:102B500060E08BE00E94F0060E946309847884386C
:102B600021F44FEF6AE00E94E9090E946309847131
:102B7000843121F440E069E00E94E90968EC70E0EA
:102B800080E090E00E94B4070E94630982FDE0CFDC
:102B900061E08BE00E94F00682E090E00E94341B2E
:102BA00081110E94DD0960E089E00E94F006CEEE0E
:102BB000DFEF08E010E00E94630986FF06C041E0F5
:102BC00061E081E00E94800993C09C2E2CEFC2132B
:102BD00003C041E060E005C048E1C41305C040E027
:102BE00061E081E00E9480090E94700F50EF95160D
:102BF00094F40E94360F6BE170E080E090E00E9458
:102C0000B40760EF96125BC06AEF70E080E090E07E
:102C10000E94B40754C09E01D7FF04C02227332767
:102C20002C1B3D0B27703327CE01D7FD0796F3E011
:102C300095958795FA95E1F7D7FF05C00197F801BB
:102C4000E21BF30B9F017C01F694FE2CEE24F7941B
:102C5000E79440E050E03801621A730AB701605807
:102C60007F4F5B018F3F7FEF970744F40196485AEF
:102C70005F4F7501403B510589F7BBCFD701A85B7A
:102C8000BD4F60E070E08F3FEFEF9E0709F4E2C3B5
:102C9000FB01E40FF51FE653FF4FE4916D01CA18E5
:102CA000DB08CE0CDF1CF0E02F01022E01C0440C2B
:102CB0000A94EAF7F601808048284082CBC3219627
:102CC000C931D10509F077CF6EEE72E080E090E077
:102CD0000E94B40761E08BE00E94F006E091C80515
:102CE000F091C9050190F081E02D88EC95E00995FF
:102CF00062E370E080E090E00E94B4070E94630904
:102D00008111F6CF81E28093CF050E94700F10925F
:102D1000DD051092DC051092DB051092DA05E12C3E
:102D2000F12C00E010E070E8C72ED12CC0E0D0E01C
:102D3000FE0163E0F595E7956A95E1F7EE0DFF1D5D
:102D4000E35FFD4F84919E0127703327A60102C0E7
:102D5000559547952A95E2F7E82FF0E0E423F5230F
:102D6000EF2B39F021E0A801BE0188EC95E00E942C
:102D7000220A2196C038D105D9F60F5F1F4F50E1C6
:102D8000E50EF11C0034110589F60E94360F8DE026
:102D900096E00E94500964EF71E080E090E00E94AC
:102DA000B40782E190E09093DB058093DA0587E336
:102DB00090E09093DD058093DC058DE391E00E9427
:102DC000650D0E94360F0E9463098823E1F30E947B
:102DD0003E0B809164008E7F8093640087EC80932B
:102DE0007C0080E280937B0062E070E080E090E015
:102DF0000E94B40780917A00806480937A00809169
:102E00007A0086FDFCCFC0917800D0917900C09502
:102E1000D0958EE580937C0062E070E080E090E0E9
:102E20000E94B40780917A00806480937A00809138
:102E30007A0086FDFCCF00917800109179000E9405
:102E40008F079B01AC0120953095409550950095DA
:102E500010950C9FD0010D9FB00D1C9FB00D11243B
:102E60000E94691B6B017C010E948F076C0D7D1D08
:102E70008E1D9F1D611571058105910511F00E9440
:102E80002B1B809164008160809364001092880104
:102E90001092890110928A0110928B0140E8C42E91
:102EA000D12C88E891E054E0B52EB80E0E94BC0FFA
:102EB000882309F4C7C20E94630985FF19C0809165
:102EC0008701882369F00E9438081092870160E02A
:102ED00085E00E94530760E083E00E94530706C02C
:102EE0000E94DD0983E497E00E9450090E943E0B96
:102EF0000E94700F1092DD051092DC051092DB0528
:102F00001092DA0580919801811143C00E947C0CD7
:102F10000E94300CC6E0D0E0D093DB05C093DA0508
:102F200083E090E09093DD058093DC058EE491E0F2
:102F30000E94650DD093DB05C093DA0583E390E032
:102F40009093DD058093DC0580E691E00E94650D9D
:102F500080918701811103C011E1C0E602C01BE02E
:102F6000CEE4D0E0412F6BE370E0CE010E94300D43
:102F7000412F6CE370E0CE010E94300D0E94630986
:102F80008C7939F081E0809398010E9438080E9482
:102F9000760B80919801813009F016C1909104015F
:102FA0008091030189172CF00E9463098C7909F044
:102FB0006CC20E944E0B8091030184305CF484E06B
:102FC0008093030110928601809300011092850185
:102FD000109284018091CB059091CC058F71992737
:102FE000009769F5E8E8F1E02191211130C0EC018A
:102FF000C857DE4F80E88883809101012AE330E0E2
:103000008901081B110907301105A4F00E94261B35
:10301000012E000C220B330BA90198012650310917
:10302000410951090E944A1BDC01CB010696A11DF2
:10303000B11D04C086E090E0A0E0B0E08C83C8E859
:10304000D1E08E0120E2F22E3FE0E32E2CC001966B
:103050008430910549F6F3CF8250843F4CF1808350
:10306000F80180818031D9F4809196019091970187
:10307000019690939701809396018091020181506F
:1030800080930201F0929501809103018C5080930E
:103090009401E092930189E397E00E9450090F5F49
:1030A0001F4FB01641F0F80180818823C1F3D4CFBF
:1030B000F8011082D5CF80919301882351F180913E
:1030C000940181508093940187FD21C02091950146
:1030D000022E000C330B3093DB052093DA05082E0B
:1030E000000C990B9093DD058093DC05809196018F
:1030F000909197010E947F0F80919501825080935B
:1031000095018091930181508093930102C01092A8
:103110009301809103018C3334F08BE3809303019E
:1031200082E080939801909103014DEF490F9D5FDC
:10313000E0910101309198012991222369F17CE00D
:10314000720F8B817E3130F0233220F4481710F457
:10315000911121C05EEF520F6EE0620F6E3140F0B0
:10316000533230F4481720F4FDEFF80FF91798F0B8
:103170008E0F7E3130F0233220F44F3310F4891754
:1031800050F06E3148F0533238F423E0280F4217E4
:1031900018F4891708F432E0BC12CECF30939801AE
:1031A0000E94AC0B0E947C0C0E94300C80910101AB
:1031B000833150F090910201911106C081508093AB
:1031C000010185E08093020180919801823009F02D
:1031D00037C1809196019091970120919101309192
:1031E00092012817390720F490939201809391015E
:1031F0000E94360F8BE297E00E94500964E670E06F
:1032000080E090E00E94B407109286018091030153
:103210008093000110928501109284018091030136
:103220008B33CCF40E944E0B0E94700F1092DD0580
:103230001092DC051092DB051092DA050E94AC0BAF
:103240000E947C0C0E94300C0E94360F0E94BC0F22
:103250008823E1F3E3CF81EF96E00E94500920E359
:1032600040E668E070E080E190E00E94D20E01E16B
:1032700010E0C9E0D0E020E0AE01B80188EC95E0B4
:103280000E94220A2196C733D105A9F70F5F1F4F6D
:103290000F36110571F700E010E08CE0E82EF12CFC
:1032A000C0E0D0E0FE0193E0F595E7959A95E1F74F
:1032B000E00FF11FED58F94F84919E0127703327DD
:1032C000A60102C0559547952A95E2F7E82FF0E050
:1032D000E423F523EF2B49F021E0A701BE01625E54
:1032E0007F4F88EC95E00E94220A2196C834D105D0
:1032F000C9F6075F1F4F5FEFE51AF50A0E37110594
:1033000079F68091960190919701803167E2960756
:1033100060F4883E73E0970750F48436910548F4D2
:103320008A30910540F420E007C028E105C022E181
:1033300003C02CE001C026E042E350E0FA01E21BAA
:10334000F109F093DB05E093DA05CEE1D0E0D0930C
:10335000DD05C093DC050E947F0F8EE390E0909323
:10336000DB058093DA05D093DD05C093DC0583E7A8
:1033700091E00E94650D80919101909192018031C0
:10338000F7E29F0760F4883E23E0920750F484360A
:10339000910548F48A30910540F420E007C028E107
:1033A00005C022E103C02CE001C026E042E350E06A
:1033B000BA01621B71097093DB056093DA05CAE2FA
:1033C000D0E0D093DD05C093DC050E947F0F8EE333
:1033D00090E09093DB058093DA05D093DD05C093F0
:1033E000DC0589E791E00E94650D0E94360F68EECA
:1033F00073E080E090E00E94B4070E9463098C793A
:10340000E1F30E943E0B109298018DE096E00E943D
:103410005009109297011092960110929301109208
:1034200088011092890110928A0110928B018FE11C
:10343000809303018EE18093010185E08093020176
:103440000E94360F80E090E0892B09F42FCD0E9476
:1034500000002CCD2115310581F0FB01E40FF51F93
:10346000E653FF4FE491F0E0062C02C0F595E79596
:103470000A94E2F7DC90ED29EC936F5F7F4F119691
:103480006835710509F0FFCBF1CB0E94760B91CD29
:103490000F931F93CF93DF938C018AE090E00E94FB
:1034A000341B9FEF980F9E3F58F522E330E0D80180
:1034B00057963C932E93569728E330E059963C93C9
:1034C0002E935897CBE0D0E0D801ED91FC9101907C
:1034D000F081E02D682FC8010995CE010E94341BB0
:1034E0002196C131D10581F70E94360F6CED75E050
:1034F00080E090E0DF91CF911F910F910C94B40781
:10350000DF91CF911F910F91089504970C94481A61
:10351000EEEEF5E01382128288EE93E0A0E0B0E0D8
:1035200084839583A683B7838AE191E09183808326
:103530008FEF9FEF95878487E4ECF5E0138212828A
:103540001186128680E1838710861782108A118A7D
:10355000128A138A148A8AE291E09183808384E339
:1035600091E095838483178A168A118E108E81E0EC
:10357000828F138E848F158E8AEE96E09093C3050A
:103580008093C20580E090E89093C1058093C005C8
:1035900046983E9A47983F9A0895EE0FFF1F059070
:1035A000F491E02D099481E090E0F8940C94AD1B27
:1035B0008F929F92AF92BF92CF92DF92EF92FF9243
:1035C000CF93DF93EC01688179818A819B816115BA
:1035D00071058105910521F464E279ED8BE597E0B1
:1035E0002DE133EF41E050E00E944A1B49015A01AE
:1035F0009B01AC01A7EAB1E40E94691B6B017C014D
:10360000ACEEB4EFA50194010E94771BDC01CB0165
:103610008C0D9D1DAE1DBF1DB7FF03C00197A109F5
:10362000B04888839983AA83BB83BC01CD019F776F
:10363000DF91CF91FF90EF90DF90CF90BF90AF9050
:103640009F908F9008950E94D81A089582E191E08A
:103650000E94D81A08956093120170931301809309
:103660001401909315010895F999FECF92BD81BD83
:10367000F89A992780B50895262FF999FECF1FBA99
:1036800092BD81BD20BD0FB6F894FA9AF99A0FBE8B
:1036900001960895052E97FB1EF400940E94611B6D
:1036A00057FD07D00E947C1B07FC03D04EF40C94FE
:1036B000611B50954095309521953F4F4F4F5F4F7F
:1036C000089590958095709561957F4F8F4F9F4F8E
:1036D00008950E949E1BA59F900DB49F900DA49FDE
:1036E000800D911D11240895B7FF0C94691B0E9451
:1036F000691B821B930B0895A1E21A2EAA1BBB1B08
:10370000FD010DC0AA1FBB1FEE1FFF1FA217B307AD
:10371000E407F50720F0A21BB30BE40BF50B661FC3
:10372000771F881F991F1A9469F760957095809587
:1037300090959B01AC01BD01CF010895A29FB001FE
:10374000B39FC001A39F700D811D1124911DB29FD5
:0E375000700D811D1124911D0895F894FFCF76
:10375E001F1E051F1F0400E1000000000000FFFFF8
:10376E00FFFF0100000000000000830CA40C6A1093
:10377E0038102311990C00000000490AA506481ABA
:10378E00FCFF0000851A00C18081000000507265A8
:10379E00737320416E7920427574746F6E00412CE4
:1037AE00422C55702C446F776E3A204A756D70001E
:1037BE004C6566743A20536F756E64204F6E2F4FB2
:0E37CE0066660053636F7265004869676800A5
:00000001FF
