:100000000C9465060C948D060C948D060C948D064C
:100010000C948D060C948D060C948D060C948D0614
:100020000C948D060C948D060C94F0070C946208C9
:100030000C948D060C948D060C948D060C948D06F4
:100040000C948D060C94E3140C948D060C948D0680
:100050000C948D060C948D060C948D060C94B30CA8
:100060000C948D060C948D060C948D060C948D06C4
:100070000C948D060C948D060C948D060C948D06B4
:100080000C9481150C948D060C948D060C948D06A1
:100090000C948D060C948D060C948D060C948D0694
:1000A0000C948D060C948D060C948D06E10AE40ADE
:1000B000D30AD70ADB0A050B050B050BE80AEC0A85
:1000C000F00AF60AFA0A050B000B7C0B810B860B73
:1000D000900B9A0BE40BE40BE40BA40BAE0BB80BE8
:1000E000C20BCF0BE40BD70B05A84CCDB2D44EB945
:1000F0003836A9020C50B9918688083CA6AAAA2ACB
:10010000BE000000803F0000000200090F00000355
:100110000401000C000000000000000000000000CE
:100120000000000000080B000202020100090400A8
:100130000001020200000524001001052401010154
:10014000042402060524060001070581031000406F
:1001500009040100020A0000000705020240000035
:1001600007058302400000040309044172647569B5
:100170006E6F204C4C430041726475696E6F204C69
:10018000656F6E6172646F00120100020000004032
:100190004123368000010102030112010002EF0237
:1001A00001404123368000010102030104080201DD
:1001B00010408040102040804080080204018040B0
:1001C0002010020110801020404020000000002577
:1001D0000028002B002E0031000404040404030452
:1001E00005020202020403020202020606060606D5
:1001F000060404020202040403010C0D254D5F767F
:10020000565A0C0E264E5F755559F0F89C8E878312
:10021000878E9CF8F00000FEFF0303030303070E24
:10022000FCF80000FEFF0303030303070EFCF800C5
:1002300000FFFF00000000000000FFFF0000FEFFC5
:100240008383838383C7EE7C380000F8FC0E0703AA
:100250000303070EFCF800003F7FE0C08080C0E091
:100260007F3FFFFF01010101010101FFFF0000FFCE
:10027000FF0C0C0C0C1C3E77E3C100007FFFC0C0DC
:10028000C0C0C0E0703F1F00001F3F70E0C0C0C092
:10029000E0703F1F00007FFFC1C1C1C1C1E3773ED5
:1002A0001C00001F3F70E0C0C0C0E0703F1F000096
:1002B00000000001FFFF010000000000000024001A
:1002C00027002A002D003000AED580A83FD3004083
:1002D0008D142002A1C8DA1281CFD9F1DB402EA4FF
:1002E000A6AF14021302120215020702080204014B
:1002F0000C01060100FFFFFFFFFFFFFFFFFFFFFFF5
:10030000FFFFFFFFFFFFFFFFFFFFFFFFFFFFFFFFFD
:10031000FFFFFFFFFFFFFFFFFFFFFFFFFFFFFFFFED
:10032000FFFFFFFFFFFFFFFFFFFFFFFFFFFFFFFFDD
:10033000FFFFFFFFFFFFFFFFFF7F7F7F3FFFFFFF0D
:10034000FFFF7F3F3F3F1FFFFF1F0F0F0F0F0F0FDD
:100350000F07070707070703030103030F01000047
:10036000000000000000000000000000000000008D
:100370000000000000FFFFFFFFFFFFFFFFFFFFFF88
:10038000FFFFFFFFFFFFFFFFFFFFFFFFFFFFFFFF7D
:10039000FFFFFFFFFFFFFFFFFFFFFFFFFFFF7F7F6D
:1003A0003F3F1F1F1F0F0F1F1F3F3F3F1F1F0F0309
:1003B00001010101010101000000008000000107AE
:1003C000FFFD0000000100030F000000000004001A
:1003D000800000008080800000206060606040C07D
:1003E000C0C0C0C0C0C0808080808080000000008D
:1003F00000000000007F7F3F3F3F3F3F3F1F1F0F38
:100400000707070F0F1F1F1F1F7FFFFF07030101B4
:1004100001010303030303030303030101000000BD
:1004200000000000000000010000000000000000CB
:1004300008000000000000000000000000000000B4
:1004400003000000000000000000000000000000A9
:100450000800060F1F1F0F070E0E1E1E3E7EFEFE1B
:10046000FEFEFEFFC7C6CDFDF9E10101010101005D
:10047000000000000000000000000000000000007C
:100480000000000000000000000003030000000066
:10049000000000000000000000000000000000005C
:1004A000000000000000000000000000000000004C
:1004B000000000000101000000000000000000003A
:1004C000000000000000000000000000000000002C
:1004D0000000000000000000000008181818191F94
:1004E0001F3F3F3F3F3F3F3F2D0C2D0000000000CE
:1004F0000000000000000000000000FFFFFFFFFF01
:10050000FF000000000000FFFFFFFFFF00000000F1
:10051000008080C0E0E0E0E0E0E0E0C0C0800000FB
:100520000000000000FFFFFFFFFF0000CEDFDFDF65
:10053000CE0000CEDFDFDFCE0000000000000000B4
:1005400000000000000000000000000000000000AB
:10055000000000000000000000000000000000009B
:10056000000000000000000000000000000000008B
:100570000000000000000000000000FFFFFFFFFF80
:10058000FFFCFCFCFCFCFCFFFFFFFFFF0000F8FE93
:10059000FFFFFFCFC7C7C3C3C3C3C7C7DFFFFFFF8B
:1005A000FEF8E00000FFFFFFFFFF0000FFFFFFFF7E
:1005B000FF0000FFFFFFFFFF000000000000000041
:1005C000000000000000000000000000000000002B
:1005D000000000000000000000000000000000001B
:1005E00000000000000000000000000000E000002B
:1005F0000000000000000000000000FFFFFFFFFF00
:10060000FF000000000000FFFFFFFFFF00000F3FA2
:100610007FFFFFFBF3F3E3E3E3E3F3F3FBF3E343F6
:100620000303030000FFFFFFFFFF0000FFFFFFFFCA
:10063000FF0000FFFFFFFFFF0000000000000000C0
:10064000000000000000F8C0800000000000000072
:100650000000000000000000E0E0000000000000DA
:100660000000808080808080C0FCF0F8F8FFFFFCF4
:10067000F8F8F8F8F8000000000000030303030393
:100680000300000000000003030303030000000058
:100690000000000101030303030303030101000041
:1006A00000000000808383C3C3C3C0C0C3C3C3832F
:1006B000838080F3C3C3E3F3F0F8F8F8F0F0F0F8C8
:1006C000F8FCFCFCFCFEFFFFFFFCF0F0F0F8F8F893
:1006D000F8F8F8F8FCFCFCFFFFFFFCFCFCFCFEFE5D
:1006E000FFFFFFFFFFFFFFFFFFFFFFFFFFFFFFFF1A
:1006F000FFFFFFFFFF00000000003E5B4F5B3E3E40
:100700006B4F6B3E1C3E7C3E1C183C7E3C181C57BD
:100710007D571C1C5E7F5E1C00183C1800FFE7C361
:10072000E7FF0018241800FFE7DBE7FF30483A0630
:100730000E2629792926407F050507407F05253F9C
:100740005A3CE73C5A7F3E1C1C08081C1C3E7F1488
:10075000227F22145F5F005F5F06097F017F0066D2
:1007600089956A606060606094A2FFA29408047E2C
:10077000040810207E201008082A1C08081C2A08DB
:10078000081E101010100C1E0C1E0C30383E383095
:10079000060E3E0E06000000000000005F00000094
:1007A00007000700147F147F14242A7F2A122313C2
:1007B00008646236495620500008070300001C22D6
:1007C00041000041221C002A1C7F1C2A08083E0808
:1007D0000800807030000808080808000060600009
:1007E00020100804023E5149453E00427F400072FD
:1007F000494949462141494D331814127F10274574
:100800004545393C4A494931412111090736494991
:100810004936464949291E000014000000403400B2
:100820000000081422411414141414004122140866
:1008300002015909063E415D594E7C1211127C7F1E
:10084000494949363E414141227F4141413E7F492C
:100850004949417F090909013E414151737F080817
:10086000087F00417F41002040413F017F08142262
:10087000417F404040407F021C027F7F0408107F80
:100880003E4141413E7F090909063E4151215E7FBB
:1008900009192946264949493203017F01033F408E
:1008A00040403F1F2040201F3F4038403F63140816
:1008B000146303047804036159494D43007F4141A7
:1008C000410204081020004141417F04020102045A
:1008D0004040404040000307080020545478407FC7
:1008E000284444383844444428384444287F385401
:1008F00054541800087E090218A4A49C787F0804A8
:10090000047800447D40002040403D007F10284492
:100910000000417F40007C047804787C080404785F
:100920003844444438FC1824241818242418FC7C27
:1009300008040408485454542404043F44243C400C
:1009400040207C1C2040201C3C4030403C4428106F
:1009500028444C9090907C4464544C4400083641A8
:100960000000007700000041360800020102040286
:100970003C2623263C1EA1A161123A4040207A3831
:100980005454555921555579412154547841215594
:1009900054784020545579400C1E527212395555E6
:1009A0005559395454545939555454580000457CBC
:1009B000410002457D420001457C40F0292429F098
:1009C000F0282528F07C545545002054547C547C54
:1009D0000A097F4932494949323248484832324A45
:1009E0004848303A4141217A3A42402078009DA05F
:1009F000A07D39444444393D4040403D3C24FF24DF
:100A000024487E4943662B2FFC2F2BFF0929F62013
:100A1000C0887E090320545479410000447D413050
:100A200048484A32384040227A007A0A0A727D0DDC
:100A300019317D2629292F28262929292630484D94
:100A40004020380808080808080808382F10C8ACE3
:100A5000BA2F102834FA00007B000008142A142250
:100A600022142A14089500220095AA005500AAAA6B
:100A700055AA55AA000000FF00101010FF00141422
:100A800014FF001010FF00FF1010F010F0141414E9
:100A9000FC001414F700FF0000FF00FF1414F4041E
:100AA000FC141417101F10101F101F1414141F0013
:100AB000101010F0000000001F101010101F101078
:100AC0001010F010000000FF101010101010101087
:100AD00010FF10000000FF140000FF00FF00001FC7
:100AE00010170000FC04F414141710171414F40465
:100AF000F40000FF00F714141414141414F700F792
:100B0000141414171410101F101F141414F41410BC
:100B100010F010F000001F101F0000001F14000054
:100B200000FC140000F010F01010FF10FF1414145B
:100B3000FF141010101F00000000F010FFFFFFFF57
:100B4000FFF0F0F0F0F0FFFFFF0000000000FFFFFB
:100B50000F0F0F0F0F38444438447C2A2A3E147E6E
:100B600002020606027E027E026355494163384452
:100B7000443C04407E201E2006027E020299A5E726
:100B8000A5991C2A492A1C4C7201724C304A4D4DC1
:100B9000303048784830BC625A463D3E49494900A9
:100BA0007E0101017E2A2A2A2A2A44445F444440C5
:100BB000514A444040444A51400000FF0103E08054
:100BC000FF000008086B6B083612362436060F0942
:100BD0000F06000018180000001010003040FF0140
:100BE00001001F01011E00191D1712003C3C3C3C76
:100BF000000000000006011501260137014A015DD1
:100C000001720188019F01B801D201EE010B022A95
:100C1000024B026E029302BA02E40210033F037019
:100C200003A403DC03170455049704DD04270575AA
:100C300005C80520067D06E0064907B8072D08A966
:100C4000082D09B9094D0AEA0A900B400CFA0CC0AC
:100C50000D910E6F0F5A1053115B1272139A14D428
:100C60001520178018F519801B231DDE1EB420A641
:100C700022B524E4263429A72B402E0031EA330084
:100C800037453ABC3D68414C456B49C84D68524FA9
:100C900057805C006210111213151617181A1C1DCC
:100CA0001F21232527292C2E3134373A3E4145492F
:100CB0004E52575C62686E757B838B939CA5AFB96F
:100CC000C4D0DCE9F7007718B21D11241FBECFEFA6
:100CD000DAE0DEBFCDBF29E0AEE0B2E001C01D9298
:100CE000AF3FB207E1F712E0A0E0B1E0E2EFF7E4D6
:100CF00002C005900D92AE30B107D9F716E0C4E6F8
:100D0000D6E004C02197FE010E94E61DC336D1073C
:100D1000C9F70E9461190C94EC230C9400004091D7
:100D200016025091170220911402309115024217B9
:100D30005307B4F49091E8009570E1F39091E800C6
:100D400092FD19C08093F1008091160290911702D4
:100D500001968F739927892B19F48EEF8093E80001
:100D6000809116029091170201969093170280933A
:100D7000160281E0089580E00895DF92EF92FF92DD
:100D80000F931F93CF93DF93D82E8A017B01E40E3C
:100D9000F51EEB01CE15DF0571F0D7FE03C0FE0195
:100DA000849101C088810E948F0621968111F2CF23
:100DB0008FEF9FEF01C0C801DF91CF911F910F917D
:100DC000FF90EF90DF900895615030F02091F10096
:100DD000FC0120830196F8CF289884E680931902BD
:100DE0000895CF92DF92EF92FF920F931F93CF93CC
:100DF000DF936C017A018B01C0E0D0E0CE15DF05F6
:100E000089F0D8016D918D01D601ED91FC91019091
:100E1000F081E02DC6010995892B11F47E0102C0F5
:100E20002196ECCFC701DF91CF911F910F91FF90D9
:100E3000EF90DF90CF900895CF93DF931F92CDB7BF
:100E4000DEB76983DC01ED91FC910280F381E02D36
:100E500041E050E0BE016F5F7F4F09950F90DF9139
:100E6000CF91089583E08093E9008091F200882378
:100E700019F08AE38093E8000895FC018485958544
:100E800097FD0BC09FB7F89482E08093E9008091B2
:100E9000F2009FBF90E0019608959FB7F89482E01A
:100EA0008093E9008091F2009FBF90E008953FB7E2
:100EB000F89480910F0290911002A0911102B091CC
:100EC000120226B5A89B05C02F3F19F00196A11D5F
:100ED000B11D3FBFBA2FA92F982F8827820F911DD0
:100EE000A11DB11DBC01CD0142E0660F771F881F17
:100EF000991F4A95D1F708950F931F93CF93DF93CE
:100F00001F92CDB7DEB782E0898342E450E065E20C
:100F100071E080E80E94BD060E94AD12DC011296CD
:100F20000D911C9113970115110569F0D801ED91F0
:100F3000FC910280F381E02DBE016F5F7F4FC801FD
:100F4000099597FF07C089810F90DF91CF911F917D
:100F50000F910895F80100851185E5CF0F931F9338
:100F6000CF93DF931F92CDB7DEB78C01FC01848550
:100F7000958597FF0EC0CE0101960E9483120197BE
:100F800019F4298130E002C02FEF3FEFF8013587D7
:100F90002487F801848595850F90DF91CF911F916B
:100FA0000F910895CF93DF931F92CDB7DEB7FC0169
:100FB0008485958597FD05C02FEF3FEF3587248702
:100FC0000BC0CE0101960E948312019719F489810A
:100FD00090E002C08FEF9FEF0F90DF91CF910895C7
:100FE0001F920F920FB60F9211248F939F938091AF
:100FF000E1009091E100937F9093E10083FF0FC0A7
:101000001092E90091E09093EB001092EC0092E3D3
:101010009093ED0010921A0298E09093F00082FFF6
:1010200020C093E09093E9009091F200992319F089
:101030009AE39093E80090911802992339F09091E7
:101040001802915090931802992389F190911902F6
:10105000992339F090911902915090931902992394
:1010600041F184FF10C08091E2008E7E8160809308
:10107000E2008091E1008F7E8093E1008091D309AE
:101080008E7E806111C080FF16C08091E2008E7E4E
:1010900080618093E2008091E1008E7E8093E10088
:1010A0008091D3098E7E81608093D30904C05D9ABC
:1010B000CDCF289AD6CF9F918F910F900FBE0F90D2
:1010C0001F9018951F920F920FB60F921124CF9276
:1010D000DF92EF92FF920F931F932F933F934F93C3
:1010E0005F936F937F938F939F93AF93BF93EF9390
:1010F000FF93CF93DF93CDB7DEB76C97DEBFCDBF45
:101100001092E9008091E80083FFFAC168E0CE0107
:1011100045960E94E40682EF8093E8008D8987FF60
:1011200005C09091E80090FFFCCF03C09EEF909324
:10113000E800982F907609F0C6C09E892F89188DF7
:1011400091110CC0803829F48091D4098093F1006A
:1011500002C01092F1001092F10047C1422F50E0FE
:10116000512B913051F4811140C14130510509F0AA
:101170003CC18091D4098D7F0BC0933061F4811103
:1011800034C14130510509F030C18091D4098260E9
:101190008093D4092AC1953041F48091E80080FF02
:1011A000FCCF20682093E30020C1963009F05FC097
:1011B000EB8CFC8C1092E900109217021092160230
:1011C000123091F510921502109214020E947C07C1
:1011D00099E0BE016F5F7F4FDB01E92F1D92EA9519
:1011E000E9F799831A8391E09E8390EA98879AEFB2
:1011F00099872091160230911702275F3F4F3C8359
:101200002B838D831092E900109217021092160220
:10121000F0921502E092140249E050E080E00E9452
:10122000BD060E947C07E1C0F0921502E092140214
:101230000E94AD12DC011296ED90FC901397E11420
:10124000F10409F4C0C0D701ED91FC910480F5814F
:10125000E02DBE016B5E7F4FC7010995009719F025
:101260000CF0C3C0C6C0F701E084F184E8CF97302A
:1012700009F4BFC0983021F481E08093F100B5C03B
:10128000993009F0B2C0837009F0B3C0E1E1F1E038
:1012900081E021E036E39081992361F08093E900B9
:1012A0002093EB0091919093EC003093ED008F5FD1
:1012B000873089F78EE78093EA001092EA008F89E1
:1012C00080931A0292C08B8D9C8D1092E90010922F
:1012D0001702109216029093150280931402898DC2
:1012E000811156C08E899D89913A59F4813209F055
:1012F00080C047E050E064E071E080E00E94BD06FD
:1013000074C0913209F075C0833289F4888D90E001
:10131000982F88272F89822BA0E0B0E080930001CE
:1013200090930101A0930201B09303015EC080324B
:1013300069F48091E80082FFFCCF67E084E091E0EF
:101340000E94E4068BEF8093E80006C0823209F029
:101350004CC08F8980930B018091D209882319F0AA
:10136000EEEFFAE002C0E0E0F8E080910401909135
:101370000501A0910601B0910701803B9440A105B1
:10138000B10509F088C080910B0180FFA0C083C027
:101390000E94AD12DC0112960D911C91139701155C
:1013A000110539F1D801ED91FC910190F081E02D0A
:1013B000BE016B5E7F4FC8010995811116C0F8010F
:1013C00000851185ECCF1130C1F0133091F48F8975
:1013D000882309F455C08230E9F440E860E187E7EA
:1013E00091E00E943A18882321F08EEF8093E80064
:1013F00087C081E28093EB0083C08B8D9C8D089722
:1014000011F41093130280911302811136C068E821
:1014100071E038C0813029F440E86BE08BE691E060
:10142000E0CF833031F70E94AD12DC011296ED90CF
:10143000FC9013978E010F5F1F4F6801E114F104B8
:1014400079F0D701ED91FC910680F781E02DB8018C
:10145000C7010995080F111DF701E084F184EECF53
:10146000D8011C92F60101900020E9F73197BF01E5
:101470006C197D0940E0C601B4CF6AE971E002C091
:1014800067E671E06115710509F4B3CFFB01449182
:1014900050E080E833CF0FB6F894A89580916000B3
:1014A000886180936000109260000FBEA895EE3FA7
:1014B0002AE0F20739F08091FE0A9091FF0A9183A9
:1014C000808393CF1092FF0A1092FE0A8ECFEE3FD8
:1014D0008AE0F80731F0808191819093FF0A809330
:1014E000FE0A87E797E7918380839BE088E10FB648
:1014F000F894A895809360000FBE9093600075CF1C
:101500006C960FB6F894DEBF0FBECDBFDF91CF91C2
:10151000FF91EF91BF91AF919F918F917F916F91CB
:101520005F914F913F912F911F910F91FF90EF90FD
:10153000DF90CF900F900FBE0F901F901895611500
:10154000710579F0FB0101900020E9F73197AF01B7
:10155000461B570BDC01ED91FC910280F381E02DDD
:10156000099480E090E008950C949F0A362F90E053
:10157000FC01EA5FFE4F4491FC01E455FE4F2491CB
:10158000FC01E752FE4F8491882309F451C04423A3
:10159000E1F150E0FA013197EF30F105B0F5EA5A88
:1015A000FF4F0C94E61D909180009F7707C09091AB
:1015B00080009F7D03C090918000977F9093800072
:1015C00024C094B59F7702C094B59F7D94BD1DC083
:1015D000909190009F7707C0909190009F7D03C0ED
:1015E00090919000977F909390000FC09091C000D1
:1015F0009F7703C09091C0009F7D9093C00005C06D
:101600009091C200977F9093C200E82FF0E0EE0F18
:10161000FF1FE553FE4FA591B4918FB7F894EC915D
:10162000311103C020952E2301C02E2B2C938FBF88
:101630000895CF93DF9390E0FC01E455FE4F249191
:10164000FC01E752FE4F8491882361F190E0880FFE
:10165000991FFC01E654FD4FC591D491FC01E5535F
:10166000FE4FA591B491611109C09FB7F89488818C
:10167000209582238883EC912E230BC0623061F485
:101680009FB7F8943881822F809583238883EC91CB
:101690002E2B2C939FBF06C08FB7F894E8812E2B7A
:1016A00028838FBFDF91CF9108951F93CF93DF934E
:1016B000182FEB0161E00E94190B209711F460E0F4
:1016C00004C0CF3FD10539F461E0812FDF91CF9184
:1016D0001F910C94B60AE12FF0E0EA5FFE4FE4910F
:1016E0004E2F50E0FA013197EF30F10508F06CC051
:1016F000EB59FF4F0C94E61D84B5806884BDC7BDCF
:1017000068C084B5806284BDC8BD63C0809180001C
:10171000806880938000D0938900C093880059C06E
:1017200080918000806280938000D0938B00C09372
:101730008A004FC080918000886080938000D093A1
:101740008D00C0938C0045C080919000806880938C
:101750009000D0939900C09398003BC08091900076
:10176000806280939000D0939B00C0939A0031C018
:1017700080919000886080939000D0939D00C093EA
:101780009C0027C08091C00080688093C000809139
:10179000C0008F7B8093C000C093CF001AC080919F
:1017A000C00080628093C000C093D00012C08091BE
:1017B000C20088608093C2008091C2008B7F8093BA
:1017C000C200C093D20005C0C038D1050CF07CCF58
:1017D00076CFDF91CF911F9108958F929F92AF9214
:1017E000BF92CF92DF92EF92FF926B017C010E9439
:1017F00057074B015C01C114D104E104F104F1F07D
:101800000E945707DC01CB0188199909AA09BB0975
:10181000883E9340A105B10570F321E0C21AD108BA
:10182000E108F10888EE880E83E0981EA11CB11C27
:10183000C114D104E104F10419F7DDCFFF90EF905A
:10184000DF90CF90BF90AF909F908F9008958F9230
:101850009F92AF92BF92CF92DF92EF92FF920F933F
:101860001F93CF93DF935C016B018A0180910B0181
:10187000882309F45EC080911A02882309F459C0B4
:101880008091D30980FF05C08091E0008260809341
:10189000E000E8018AEFF82E93E0E92E2FE3822E94
:1018A0003AE3932E209709F43DC08FB7F894E09265
:1018B000E9009091E80095FF06C09091F200282D74
:1018C000291B922F01C090E08FBF91110AC0FA949A
:1018D000FF2079F161E070E080E090E00E94ED0B84
:1018E000E1CF292F30E0C217D3070CF49C2F8FB71C
:1018F000F894E092E9002091E80025FF11C0292F1B
:1019000030E0C21BD30BF601915020F0419140937F
:10191000F100FACFC20ED31E9091E80095FF13C0DC
:101920008FBFC0CF5D9884E6809318021016110611
:1019300044F081E090E0F5019383828380E090E0C1
:1019400005C0C80103C09092E800EACFDF91CF91B3
:101950001F910F91FF90EF90DF90CF90BF90AF90CD
:101960009F908F9008951F920F920FB60F9211249F
:101970002F933F938F939F93AF93BF938091DC09F5
:101980009091DD09A091DE09B091DF0930910E023E
:1019900023E0230F2D3720F40196A11DB11D05C0B2
:1019A00026E8230F0296A11DB11D20930E028093FD
:1019B000DC099093DD09A093DE09B093DF098091E3
:1019C0000F0290911002A0911102B09112020196A3
:1019D000A11DB11D80930F0290931002A0931102DC
:1019E000B0931202BF91AF919F918F913F912F9130
:1019F0000F900FBE0F901F9018958FB12CB193B11F
:101A000030E02095309520743327A90123E05595C7
:101A100047952A95E1F7292F30E0209530952071E0
:101A200033273595279535952795242B8095807FED
:101A3000822B08958F929F92AF92BF920F931F9324
:101A4000CF93DF93CDB7DEB7A1970FB6F894DEBF83
:101A50000FBECDBF19A2423008F44AE08E010F5DDF
:101A60001F4F842E912CA12CB12CA50194010E9412
:101A70008423E62FB901CA0101501109EA3014F498
:101A8000E05D01C0E95CD801EC93232B242B252BCE
:101A900061F7B80184E292E00E949F0AA1960FB616
:101AA000F894DEBF0FBECDBFDF91CF911F910F9194
:101AB000BF90AF909F908F9008954F925F926F92DA
:101AC0007F928F929F92AF92BF92CF92DF92EF92CE
:101AD000FF926B017C01B42E9B01AC010E946E2031
:101AE000882319F06FE271E027C026013701E894DE
:101AF00077F82FEF3FEF4FE75FE7C301B2010E9496
:101B00006E2081110DC02FEF3FEF4FE75FE7C3015C
:101B1000B2010E94591E18161CF463E371E00CC058
:101B20002FEF3FEF4FE75FE4C701B6010E94FC1FB4
:101B3000181694F467E371E084E292E0FF90EF906E
:101B4000DF90CF90BF90AF909F908F907F906F90DD
:101B50005F904F900C949F0A2FEF3FEF4FE75FECA1
:101B6000C701B6010E94591E87FDE4CF20E030E096
:101B7000A901C701B6010E94591E87FF11C0E0915B
:101B80002402F09125020190F081E02D6DE284E2C3
:101B900092E009954C01F7FAF094F7F8F09402C03E
:101BA000812C912CA12C60E070E080E09FE3AB14CD
:101BB00041F020E030E040E251E40E94631EA39433
:101BC000F6CF9B01AC01C701B6010E94ED1D2B01B0
:101BD0003C010E94DC1E6B017C010E940B1F9B01DB
:101BE000AC01C301B2010E94EC1D2B013C014AE093
:101BF000C701B6010E941A0D7C01E80CF91CBB203C
:101C000041F06BE371E084E292E00E949F0AE80EEB
:101C1000F91EDB2CDD2021F120E030E040E251E430
:101C2000C301B2010E9401202B013C010E94DC1E75
:101C30004B01A12CB12C4AE0C501B4010E941A0D40
:101C4000E80EF91EC501B4010E940B1F9B01AC01F7
:101C5000C301B2010E94EC1D2B013C01DA94DACFE2
:101C6000C701FF90EF90DF90CF90BF90AF909F9013
:101C70008F907F906F905F904F900895CF93DF93F8
:101C8000BC0184E292E00E949F0AEC016DE371E0E6
:101C900084E292E00E949F0A8C0F9D1FDF91CF91FA
:101CA00008952F923F924F925F926F927F928F9200
:101CB0009F92AF92BF92CF92DF92EF92FF920F93DB
:101CC0001F93CF93DF9300D000D0CDB7DEB784E76A
:101CD00092E09C838B8394EA292E93E0392E812C09
:101CE000912C5401A1E0B0E0BA83A98320E030E058
:101CF00040E450E4EB81FC816081718182819381B9
:101D00000E94EC1D6B017C01AB81BC816D937D93C6
:101D10008D939C93139720E030E040E450E4F10170
:101D200060817181828193810E94EC1DD1016D934C
:101D30007D938D939C93139720E030E048E851EC1D
:101D4000C701B6010E94591E18160CF40EC160E4BA
:101D500071E084E292E00E94B40AEB81FC81608130
:101D600071818281938142E00E945D0D63E771E0A1
:101D700084E292E00E94B40A4AE0C501B4010E94E4
:101D80001A0D6DE371E084E292E00E949F0A609177
:101D9000220270912302769567957695679580E08B
:101DA00090E00E940B1F0E945E1E20E030E040E8A1
:101DB00050E40E9401200E94D51ECB0162E070E039
:101DC0000E94D21DBC01990F880B990B0E940D1F18
:101DD0002091D4043091D5044091D6045091D70479
:101DE0000E94ED1D2B013C016093D4047093D50437
:101DF0008093D6049093D70420E030E040E850E48C
:101E00000E94591EC090D804D090D904E090DA0402
:101E1000F090DB0487FF0DC080E090E0A0E8B0E424
:101E20008093D4049093D504A093D604B093D704A0
:101E300026C0A7019601C301B2010E94ED1D20E05A
:101E400030E040E752E40E94FC1F1816C4F420E082
:101E500030E040E850E4C701B6010E94ED1D9B014F
:101E6000AC0160E070E080E892E40E94EC1D6093B9
:101E7000D4047093D5048093D6049093D70420E0C3
:101E800030E040EA51E4C701B6010E94FC1F181679
:101E90008CF42DEC3CEC4CEC5DE3C701B6010E94E8
:101EA000EC1D6093D8047093D9048093DA04909366
:101EB000DB040CC080E090E0A0E4B2E48093D8049E
:101EC0009093D904A093DA04B093DB0420E030E0CF
:101ED00040E253E4AB81BC816D917D918D919C91E9
:101EE0000E94ED1D6B017C018FE791E00E943E0E88
:101EF0006091D4047091D5048091D6049091D70458
:101F00000E94D51E8B01A701960160E08B819C8108
:101F10000E94FB162091D8043091D9044091DA0434
:101F20005091DB046091D4047091D5048091D60463
:101F30009091D7040E94ED1D9B01AC0160E070E020
:101F400080E892E40E94EC1D0E94D51E8B01A7013F
:101F5000960161E0C1010E94FB1689819A818F7010
:101F600099279093DD048093DC04E981FA8131960E
:101F7000FA83E9838B819C8143969C838B8393E1D5
:101F8000290E311CAFEF8A1A9A0AAA0ABA0A719767
:101F900009F0ACCE0F900F900F900F90DF91CF9182
:101FA0001F910F91FF90EF90DF90CF90BF90AF9077
:101FB0009F908F907F906F905F904F903F902F9069
:101FC0000895CF93DF93C4E7D2E0CE010E947F163D
:101FD000CE01805D9E4F0E947F16639683E0C43AD7
:101FE000D80799F7DF91CF910895CF92DF92EF92C2
:101FF000FF92CF93DF932DEC3CEC4CE45EE36091D9
:10200000E0047091E1048091E2049091E3040E9465
:10201000ED1D6B017C0120E030E040EA50E40E94BD
:10202000FC1F18162CF480E090E0A0EAB0E417C082
:1020300020E030E040EA50ECC701B6010E94591E92
:1020400087FD09C0C092E004D092E104E092E2046E
:10205000F092E3040CC080E090E0A0EAB0EC809342
:10206000E0049093E104A093E204B093E304609150
:10207000DE047091DF04072E000C880B990B0E9480
:102080000D1F2091E0043091E1044091E204509151
:10209000E3040E94ED1D0E94D51E6B017C0170932C
:1020A000DF046093DE04CFE2D5E0FE017397808108
:1020B0009181039791838083688170E080E090E054
:1020C0000E940D1F23E333E343E75FE30E940120F7
:1020D0000E94DC1E68836C9625E0CB3BD20729F773
:1020E0008091A8059091A9052CE1289FF001299FD6
:1020F000F00D1124E252FB4F26AD37AD203F3F4F8C
:1021000004F522E830E037AF26AFDF0112962AE06F
:10211000C20ED11CDF96DC92CE92DE971E9621E095
:1021200030E0DF963C932E93DE9773962FEF26AF29
:10213000019665E070E00E94BE1D9093A905809312
:10214000A805DF91CF91FF90EF90DF90CF90089599
:10215000EF92FF920F931F93CF93DF93CCE1D5E0E3
:1021600000E010E080EFE82EF12CB801012E000C09
:10217000880B990B0E940D1F2AE939E949ED51E4BA
:102180000E94012020E030E040E851E40E94EC1D74
:102190000E94D51E79836883FB82EA82198A188A95
:1021A0000F5F1F4F6C9605301105F9F61092A905C7
:1021B0001092A805DF91CF911F910F91FF90EF90A2
:1021C000089520E08EEB95E0B22FB111BFEFFC0136
:1021D0000024B193B193B193B1930394D1F70895CF
:1021E0002F923F924F925F926F927F928F929F9227
:1021F000AF92BF92CF92DF92EF92FF920F931F9315
:10220000CF93DF93CDB7DEB727970FB6F894DEBF35
:102210000FBECDBFA22EB12C9C012A0D3B1D37FD58
:10222000C1C0803891050CF0BDC09B01200F311D4D
:1022300037FDB8C0603471050CF0B4C0DB0177FF26
:1022400004C0AA27BB27A61BB70BA770BB279B01FF
:1022500077FF02C0295F3F4FF3E035952795FA9548
:10226000E1F777FF08C02150310968E070E04B01C9
:102270008A1A9B0AD401402E469446944694512CC7
:10228000077019F00FEF401A500AB9017695762FB2
:10229000662777956795680F791F420E531EE12CCC
:1022A000F12CE8E0F0E04F018A1A9B0A9F828E82AF
:1022B0002415350509F476C02830310509F472C0BB
:1022C0002F3F0FEF30070CF463C03B0110E8610EA5
:1022D000711C8B01025C194F6C011B821A828A806F
:1022E0009B808A149B040CF053C0E0E8CE16D10406
:1022F00009F44EC0D7FC41C02F3FFFEF3F0709F460
:102300004EC0EA81FB81EE0DFF1DE40FF51FE49145
:10231000480186189708860E971E2E2E312CF10143
:102320000A2E02C0EE0FFF1F0A94E2F7FD83EC8332
:10233000F4012080EC81FD81E229FD83EC833C8067
:10234000F40130821097C9F027303105B1F0EA81ED
:10235000FB81EE0DFF1DE40FF51FE491F0E01F017E
:102360000E8002C0359427940A94E2F7F801908019
:10237000F101E9294F01F8018082EA81FB81319660
:10238000FB83EA830F5F1F4FFFEFCF1ADF0AA7CF50
:102390002F5F3F4FEA0CFB1C60587F4F89CF10978F
:1023A000B1F6EBCF27960FB6F894DEBF0FBECDBFC8
:1023B000DF91CF911F910F91FF90EF90DF90CF9021
:1023C000BF90AF909F908F907F906F905F904F9055
:1023D0003F902F9008950F936091DE047091DF0479
:1023E0007093E7046093E6048091220290912302A7
:1023F00083709927029718F04AEF51E002C042E03B
:1024000052E008E028E08091E4049091E5040E9405
:10241000F0100F910895CF93DF93909121029230A5
:1024200009F46EC0C82F292F30E0F901E850FE4FA3
:10243000D491F901E053F64F80839F5F909321027E
:1024400061E00E94190BD13019F0D33039F158C036
:1024500010928000109281008091810088608093AA
:102460008100809181008160809381008C2F90E0B9
:10247000FC01E752FE4FE491F0E0EE0FFF1FE55341
:10248000FE4F259134913093200220931F02FC01CE
:10249000E455FE4F849180931E0232C0109290004A
:1024A00010929100809191008860809391008091BA
:1024B00091008160809391008C2F90E0FC01E752A5
:1024C000FE4FE491F0E0EE0FFF1FE553FE4F259124
:1024D000349130931D0220931C02FC01E455FE4F01
:1024E000849180931B0280912102882321F06CE368
:1024F00080E00E946D1480E0DF91CF910C9458151C
:10250000DF91CF910895FC0180911A02811103C0DF
:102510008FEF9FEF08959FB7F89482E08093E900D2
:102520002091F20030E01216130614F421E030E09E
:102530002115310559F0289884E68093190280917D
:10254000F10080838091F200882319F09FBFC901B8
:1025500008958BE68093E800F9CF8091C809811136
:102560000DC082E08093C40984E08093C509109275
:10257000C7091092C60981E08093C80984EC99E0EC
:102580000895A42FA695A695A695B0E07727477045
:102590005527B695BA2FAA27B795A7956A0F7B1F1F
:1025A000FC01E60FF71F81E090E001C0880F4A951B
:1025B000EAF7222319F09489892B03C08095948926
:1025C0008923848B08952F923F924F925F926F924E
:1025D0007F928F929F92AF92BF92CF92DF92EF92B3
:1025E000FF920F931F93CF93DF93CDB7DEB72A9758
:1025F0000FB6F894DEBF0FBECDBF6A3091F4FC0178
:10260000E85EFB4F408132972081318158E0459F41
:10261000200D311D112431832083329711821082C5
:10262000CAC06D3009F4C7C09A878987885E9B4FFE
:102630009C838B83DC012C90E985FA85EA5EFB4F55
:1026400060807180E985FA85EC5EFB4FFA83E9834F
:102650000081118100381105D4F0AB81BC812C912F
:10266000422F50E0E981FA8180819181F6E02F9F2D
:10267000800D911D1124A981BA818D939C93E985C8
:10268000FA85E75EFB4F2081211167C094C0B0E45A
:102690006B16710414F7C801E5E02E9E800D911DA4
:1026A000112418161906CCF6422C512CC301F8E05F
:1026B0002F9E800D911D11241816190674F655E0F1
:1026C000659F900111243F832E83E12CF12C85E03E
:1026D000E816F10441F0EE81FF81EE0DFF1DEB5095
:1026E000F94F349001C0312C430138E0932D9170A3
:1026F0009D8358018A2D801B8215F0F464018C2D76
:1027000088198215A8F4A0E8AA16B10468F4B0E408
:10271000CB16D10448F42D81A601B50189859A858F
:1027200038870E94C1123885EFEFCE1ADE0AE7CF54
:10273000FFEFAF1ABF0ADECF36943150840C951CE0
:102740003111D4CF2FEFE21AF20A040D151D36E035
:10275000E316F10409F0BBCF80CF6AEF6403900168
:10276000659F300D112420583F4F281739071CF55D
:10277000A985BA85ED91FC9111970190F081E02D2A
:102780006AE0CD012A960FB6F894DEBF0FBECDBF2A
:10279000DF91CF911F910F91FF90EF90DF90CF903D
:1027A000BF90AF909F908F907F906F905F904F9071
:1027B0003F902F9009942A960FB6F894DEBF0FBE73
:1027C000CDBFDF91CF911F910F91FF90EF90DF90E0
:1027D000CF90BF90AF909F908F907F906F905F90C1
:1027E0004F903F902F900895E091DA09F091DB0926
:1027F00090818091D909892B8083E091D709F0914C
:10280000D80990818091D609809589238083E091B1
:10281000DA09F091DB0990818091D90980958923AB
:1028200080830895E091D709F091D8099081809133
:10283000D609892B8083E091DA09F091DB09908138
:102840008091D90980958923808308958EBD0000E9
:102850000DB407FEFDCF8EB50895CF92DF92EF92B3
:10286000FF920F931F93CF936C0100E810E0C0E03C
:10287000E12CF12C0E94F41380E10E94261482E0E6
:102880000E9426148C2F806B0E9426140E94121422
:10289000F601EE0DFF1D80818EBD97012F5F3F4F2A
:1028A0007901201731074CF4F601E20FF31F808104
:1028B0000DB407FEFDCF8EBDF1CF0DB407FEFDCFE9
:1028C000CF5F00581F4FC830A9F6CF911F910F91CD
:1028D000FF90EF90DF90CF900895CF92DF92EF922C
:1028E000FF920F931F93CF93E82FF0E0E850FE4F35
:1028F000C491E62FF0E0603330F4EB56F34FE491EF
:102900000E2F10E006C0EE0FFF1FEB56F44F05919F
:1029100014916801E12CF12C60E074E284EF90E006
:10292000A70196010E946523BA01A90141505109EE
:10293000610971094115510581E06807710580F051
:1029400060E970ED83E090E0A70196010E946523A5
:10295000BA01A901415051096109710983E001C01F
:1029600081E0C130C9F0C33031F590919100987F7A
:10297000892B809391005093990040939800109375
:10298000FE090093FD0981E08093FC0980917100AC
:102990008260809371000FC090918100987F892B95
:1029A00080938100509389004093880080916F004C
:1029B000826080936F00CF911F910F91FF90EF90F5
:1029C000DF90CF9008951F920F920FB60F921124AF
:1029D0002F933F938F939F93AF93BF93EF93FF9367
:1029E0008091E409882309F44DC08091E009909119
:1029F000E109A091E209B091E309892B8A2B8B2B85
:102A000051F180911E02E0911F02F091200290810D
:102A1000892780838091E0099091E109A091E209E2
:102A2000B091E309181619061A061B06A4F5809141
:102A3000E0099091E109A091E209B091E3090197C1
:102A4000A109B1098093E0099093E109A093E209FB
:102A5000B093E30920C01092E40980916F008D7F4C
:102A600080936F0090911E02E0911F02F09120026E
:102A70008081282F30E0892F90E0809590958223E7
:102A8000932308C080911E02E0911F02F091200262
:102A9000908189278083FF91EF91BF91AF919F91A2
:102AA0008F913F912F910F900FBE0F901F9018950F
:102AB000E82FF0E0E850FE4FE491E13019F0E33008
:102AC00069F0089580916F008D7F80936F009091E1
:102AD0001E02E0911F02F091200208C01092FC0932
:102AE00090911B02E0911C02F0911D028081282F21
:102AF00030E0892F90E08095909582239323808306
:102B000008951F920F920FB60F9211242F933F93A7
:102B10004F935F936F937F938F939F93AF93BF93E5
:102B2000EF93FF938091FC09882349F080911B0269
:102B3000E0911C02F0911D02908189278083809191
:102B4000D509882309F493C08091F8099091F90977
:102B5000A091FA09B091FB09892B8A2B8B2B09F4E0
:102B600086C08091F8099091F909A091FA09B09175
:102B7000FB090197A109B1098093F8099093F9091C
:102B8000A093FA09B093FB09892B8A2B8B2B09F0B0
:102B90006EC0E091F609F091F709BF016F5F7F4FBA
:102BA0007093F7096093F6094491942F907F842FD6
:102BB0008F70903819F40E945815EBCF903981F43A
:102BC0003296F093F709E093F609FB016491909136
:102BD00021028917F0F667FDDCCF0E946D14D9CF72
:102BE000903E29F41092F7091092F609D2CF903F47
:102BF00019F41092D5093BC097FDCBCF3296F093D4
:102C0000F709E093F609FB01249130E0342BA09101
:102C1000FD09B091FE090E94A6236C507E4F8F4F94
:102C20009F4F28EE33E040E050E00E948423209341
:102C3000F8093093F9094093FA095093FB09809100
:102C4000F8099091F909A091FA09B091FB09892B33
:102C50008A2B8B2B61F481E090E0A0E0B0E08093C0
:102C6000F8099093F909A093FA09B093FB09FF9131
:102C7000EF91BF91AF919F918F917F916F915F91F4
:102C80004F913F912F910F900FBE0F901F9018956D
:102C90001092BF091092BE091092C1091092C0098A
:102CA000882369F0809122029091230264E170E010
:102CB0000E94BE1D0A9718F469EB71E01CC0809158
:102CC000E7099091E8096AE070E00E94BE1D7F93D9
:102CD0006F938EEB91E09F938F9382EF99E09F9398
:102CE0008F930E94BC200F900F900F900F900F9029
:102CF0000F9062EF79E08AEA95E00C94B40A7F9233
:102D00008F929F92AF92BF92CF92DF92EF92FF92FB
:102D10000F931F93CF93DF9300D000D01F92CDB7B6
:102D2000DEB78C01FC0160817181828193810E94F8
:102D3000D51E4B015C01F801718760876481758144
:102D4000868197810E94D51EF801628785E03896BA
:102D5000DE01119601900D928A95E1F785E0FE0162
:102D60003196D8011D9601900D928A95E1F7F801F0
:102D7000728881899089E62E660FFF088401890E8A
:102D8000911C5701A80EB11C081519050CF5670117
:102D9000F7FE13C0C12CD12C10C0C816D906ACF454
:102DA0000038110538F4272DA601B8018AEA95E00C
:102DB0000E94C112FFEFCF1ADF0AC50121E4A2165B
:102DC000B1045CF380E490E0E8CF0F5F1F4FDCCFED
:102DD0000F900F900F900F900F90DF91CF911F9158
:102DE0000F91FF90EF90DF90CF90BF90AF909F90AA
:102DF0008F907F9008950F931F93CF93DF93EC01F3
:102E0000288339834A835B830C87662379F060E4E7
:102E100070E0601B7109072E000C880B990B0E9453
:102E20000D1F6C837D838E839F8304C01C821D8253
:102E30001E821F8263EC71E084E292E00E94B40A79
:102E4000688179818A819B8142E00E945D0D67EDF6
:102E500071E084E292E00E94B40A6C817D818E81EF
:102E60009F8142E00E945D0D6AED71E084E292E094
:102E70000E94B40A6B8570E080E090E04AE00E9416
:102E80001A0D6CEE71E084E292E00E94B40A6C8547
:102E900070E080E090E04AE00E941A0D6DE371E07E
:102EA00084E292E0DF91CF911F910F910C949F0AE1
:102EB0008F929F92AF92BF92EF92FF920F931F93C8
:102EC000CF93DF939093EA098093E9091092E60982
:102ED0001092E5098230910509F49CC08330910578
:102EE00009F49DC0019709F0BAC00E94A8108EE1B4
:102EF00090E09093DF048093DE0480E090E0A0E80F
:102F0000BFEB8093E0049093E104A093E204B093BC
:102F1000E30480E090E0A0E0B1E48093D4049093D7
:102F2000D504A093D604B093D70480E090E0A0E449
:102F3000B2E48093D8049093D904A093DA04B093B8
:102F4000DB048EEE91E00E943E0E84E7E82E82E0E4
:102F5000F82EC0E0D0E0BE010D2E000C880B990BBE
:102F60000E940D1F20E030E040E851E40E94EC1D7B
:102F70004B015C016091D4047091D5048091D6041A
:102F80009091D7040E94D51E8B01A501940160E0A9
:102F9000C7010E94FB162091D8043091D9044091BA
:102FA000DA045091DB046091D4047091D5048091CF
:102FB000D6049091D7040E94ED1D9B01AC0160E006
:102FC00070E080E892E40E94EC1D0E94D51E8B0107
:102FD000A501940161E0C701805D9E4F0E94FB1630
:102FE0002A9683E1E80EF11CC03AD10509F0B3CF6F
:102FF0001092DD041092DC040E94510EDF91CF91FB
:103000001F910F91FF90EF90BF90AF909F908F9086
:103010000C94F50F1092E8091092E70920C081E0A6
:103020008093E40980918100887F81608093810092
:103030008DEC94E6909389008093880086E391E07C
:10304000A0E0B0E08093E0099093E109A093E20949
:10305000B093E30980916F00826080936F00DF91ED
:10306000CF911F910F91FF90EF90BF90AF909F90E5
:103070008F900895CF92DF92EF92FF920F931F935C
:10308000CF93DF931F92CDB7DEB7182F062FE42E14
:10309000862F880F8E5F99830E948F0683E00E949F
:1030A0008F06F12EC12E9981D92E8C2D8F19801764
:1030B00098F4F601E7FE02C0849101C080810E946D
:1030C0008F06182F80E00E948F068123FFEFCF1A12
:1030D000DF0A8111EACF01C081E00F90DF91CF912B
:1030E0001F910F91FF90EF90DF90CF900895109275
:1030F00027021092260288EE93E0A0E0B0E08093D1
:10310000280290932902A0932A02B0932B028BE10C
:1031100091E090932502809324028FEF9FEF90938C
:103120003102809330021092AD051092AC058BE213
:1031300091E09093AB058093AA058CE38093B00552
:1031400080E18093B3051092B2051092B105109200
:10315000B8051092B9051092BA051092BB051092ED
:10316000BC051092BF091092BE091092C1091092BD
:10317000C00991E09093C2091092EC041092ED0402
:103180001092EE041092EF041092E8041092E904F9
:103190001092EA041092EB041092E7041092E604F5
:1031A0001092E5041092E4049093F6048FEF80935C
:1031B000FD048093FE048093FF048093F70421E0D4
:1031C00030E03093F5042093F40410920805109237
:1031D000090510920A0510920B0510920405109231
:1031E000050510920605109207051092030510922E
:1031F000020510920105109200059093120580932C
:10320000190580931A0580931B058093130530934D
:10321000110520931005ECE1F5E020E030E051E0ED
:103220004FEF61E070E010861186128613861482DB
:103230001582168217821382128211821082C901AE
:1032400082529B4FDC01A05BBF4F5C9317964C935F
:1032500011964C9311964C9318974C93718B608BED
:10326000245E3F4F7C962C383105E9F680E090E0F3
:1032700041E03BE02AE0FC01EC58FD4F428B3387F4
:1032800024874396803351E09507A9F720E030E08A
:1032900061E05BE04AE0C9018C589D4FFC01EE5BA8
:1032A000FE4F608337975083319640832D5E3F4FAA
:1032B000203381E0380779F71092DD041092DC04A6
:1032C0000895CF93DF93CDB7DEB72A970FB6F89462
:1032D000DEBF0FBECDBF789484B5826084BD84B557
:1032E000816084BD85B5826085BD85B5816085BD01
:1032F00080916E00816080936E00109281008091B9
:103300008100826080938100809181008160809340
:103310008100809180008160809380008091910085
:1033200082608093910080919100816080939100F0
:10333000809190008160809390008091C1008460B2
:103340008093C1008091C10082608093C100809110
:10335000C10081608093C1008091C300816080932F
:10336000C3008091C00082608093C0008091C20041
:1033700081608093C20080917A00846080937A009B
:1033800080917A00826080937A0080917A008160D7
:1033900080937A0080917A00806880937A001092FE
:1033A0001A021092D4091092D3098091D70081603B
:1033B0008093D70080EA8093D80089B5806189BD69
:1033C00089B5826089BD09B400FEFDCF61E070E07F
:1033D00080E090E00E94ED0B8091D8008F7C8061AE
:1033E0008093D8008091E000807F8093E0008091FE
:1033F000E1008E7E8093E1008DE08093E200559A9B
:10340000209AEEEFFFE7859194918B3F9C4D19F444
:1034100081E08093D2098FEF9FEF909331028093E8
:1034200030021FB7F8948091EC09811127C0EAEEB1
:10343000F1E08491EDEBF1E09491E82FF0E0EE0FF4
:10344000FF1FE654FD4FA591B491EC91E92321F4BF
:1034500061E081E10E94B60A61E081E10E94190BFE
:103460008CB580618CBD8CB580648CBD61E08FE0D3
:103470000E94190B61E080E10E94190B8091EC0918
:103480008F5F8093EC091FBF02EE12E0F801849178
:103490000E5F1F4F31966491882319F00E94190B1B
:1034A000F5CF61E086E00E94B60A61E070E080E05E
:1034B00090E00E94ED0B60E086E00E94B60A6AE0B0
:1034C00070E080E090E00E94ED0B61E086E00E94F9
:1034D000B60AE5EEF1E0E491F0E0EE0FFF1FE553F0
:1034E000FE4F859194919093DB098093DA09E8EB84
:1034F000F1E0E491E093D909EDEDF1E0E491F0E041
:10350000EE0FFF1FE553FE4F859194919093D809DC
:103510008093D709E0EBF1E0E491E093D6098CB514
:103520008C7F8CBD8DB581608DBD0E94F41308EC3D
:1035300012E0F2E0023E1F0739F0F80184910E9488
:1035400026140F5F1F4FF5CF0E9412148091640064
:103550008160809364008091640082608093640045
:10356000809164008068809364008091640080642E
:1035700080936400809165008160809365000E9463
:10358000FD0C87FF22C00E94F41380E10E942614E4
:1035900082E00E9426140E94121400E014E080E0F1
:1035A0000E94261401501109D1F760E070E089E013
:1035B0000E94550B60E070E08AE00E94550B60E0CD
:1035C00070E08BE00E94550BFFCF6EEEE62EFF24DD
:1035D000FA9418E1CC24CA94D12C812F8E19B6010B
:1035E000681B710989E00E94550B6FEF70E08AE05B
:1035F0000E94550B6FEF70E08BE00E94550B0E940C
:10360000E11000E128E54AE052E0B70184E190E0F2
:103610000E94F0108EEB95E00E942D146BE170E09B
:1036200080E090E00E94ED0B50EF252EE21006C0E6
:103630006AEF70E080E090E00E94ED0B2FEFE21A5D
:10364000F20A39E1E316F10441F66EEE72E080E031
:1036500090E00E94ED0B6FEF70E089E00E94550B47
:103660006FEF70E08AE00E94550B6FEF70E08BE027
:103670000E94550B85E00E940B1283E00E940B1202
:103680001092D50982E090E00E945D23882369F0C2
:1036900080916400877F8093640080916500877FBC
:1036A0008093650081E08093EB098EE18093B00503
:1036B00081E28093B30580E290E09093E5048093EB
:1036C000E4041092F9041092F8041092FA0488E0CD
:1036D0008093FB0486E08093FC0480E090E0A0EA05
:1036E000B0E48093E8049093E904A093EA04B093D3
:1036F000EB048093EC049093ED04A093EE04B0935C
:10370000EF0400E215E0E12CF12C812C912C40EA31
:10371000A42E41E4B42EB7010F2C000C880B990B9A
:103720000E940D1F20E030E040E152E40E940120A1
:1037300025E33AEF4EE85CE30E940120D801189699
:103740006D937D938D939C931B97F801808291825A
:10375000A282B38214968D929D92AD92BC921797DD
:10376000BFEFEB1AFB0A045E1F4FE5E0EE16F10413
:1037700091F61092A9051092A8050E94A8108EE15A
:1037800090E09093DF048093DE0480E090E0A0E876
:10379000BFEB8093E0049093E104A093E204B09324
:1037A000E30480E090E00E94581794E0692E97E4CB
:1037B000792E20E0822E20E0922E3CE2C32ED12CE6
:1037C000E12CF12CBB24B39485E0A82E2FB7F894FC
:1037D0008091DC099091DD09A091DE09B091DF09AB
:1037E0002FBF2091BC05222391F02091B405F82F22
:1037F000F21BF093BD052091B1053091B2052F5F0A
:103800003F4F3093B2052093B1051092BC05409113
:10381000B8055091B9056091BA057091BB05841740
:103820009507A607B7077CF4481B423008F419C176
:1038300083B7817F83BF83B7816083BF889583B758
:103840008E7F83BF0EC12091B305AC01BD01420F35
:10385000511D611D711D4093B8055093B9056093CA
:10386000BA057093BB058093B4059093B505A093FA
:10387000B605B093B705B092BC058091F1098111EE
:1038800004C00E94FD0C01E083FF00E00093F009FA
:103890008091EF09811104C00E94FD0C11E082FFAC
:1038A00010E01093EE090E94FD0C91E083FF90E080
:1038B0009093F1090E94FD0C91E082FF90E09093BB
:1038C000EF090E94E1108091E9099091EA098130A5
:1038D0009105F1F01CF4892B41F0ADC082309105C7
:1038E00039F1039709F49AC0A6C0111102C0002350
:1038F00021F081E090E00E94581700E420E845EFB5
:1039000052E060E070E080E090E00E94F01093C030
:10391000112341F080EA91E00E943E0E82E090E0A7
:103920000E9458170E94E10F0E94EB1180E081C0B5
:103930000E94FD0C82FF05C08091ED09882309F4E7
:1039400097C01123C9F0B092E40980918100887F6B
:103950008160809381007092890060928800C0929B
:10396000E009D092E109E092E209F092E309809146
:103970006F00826080936F008091F009882329F0A6
:103980008091ED098B258093ED0940E050E0BA016C
:103990006C587D4FFB013896DE0116968A2D0190FA
:1039A0000D928A95E1F7EE81FF81888599855A8489
:1039B000A091E404B091E5042091F8043091F90459
:1039C0002A0F3B1FA091FB0489010A0F111DE0176C
:1039D000F1070CF064C0E90FF11D2E173F070CF042
:1039E0005EC0082E000C990BA091FA04E091E60449
:1039F000F091E704EA0FF11DA7FDFA95A091FC04F0
:103A00001F012A0E311C821593050CF048C0850D4C
:103A1000911DE817F9070CF042C09FC0112321F057
:103A200081E090E00E9458170E94E10F0E94EB1184
:103A300081E00E9448168091220290912302019613
:103A400090932302809322028091E5099091E609E8
:103A500001969093E6098093E5098EEB95E00E942C
:103A60002D148114910409F4B1CE0E940000AACE55
:103A700020E030E040E05FE36091E0047091E10419
:103A80008091E2049091E3040E94EC1D6093E004B5
:103A90007093E1048093E2049093E30452CFFB011E
:103AA000E85CFE4FDE0111968A2D01900D928A95F9
:103AB000E1F769817A818B819C81ED8160177107C3
:103AC000FCF4690F711D26173707D4F4082E000C7B
:103AD000990B6091FA042091E6043091E704260FD7
:103AE000311D67FD3A956091FC04D901A60FB11D07
:103AF0008A179B072CF48E0F911D281739076CF13C
:103B00004D5E5F4F4033E1E05E0709F040CF8091AA
:103B1000DE049091DF04409681319140C8F4809199
:103B2000ED09811104C00E94510E0E94F50F0E9400
:103B3000E10F0E94EB1180E00E9448168091E70996
:103B40009091E80901969093E8098093E70973CF73
:103B500083E090E00E945817E2CF83E090E00E945B
:103B60005817D5CF84EA93E0892B39F080E090E0B4
:103B70004397803D2EEF9207D9F70895AA1BBB1BF0
:103B800051E107C0AA1FBB1FA617B70710F0A61B5D
:103B9000B70B881F991F5A95A9F780959095BC017E
:103BA000CD01089597FB072E16F4009407D077FDFA
:103BB00009D00E94BE1D07FC05D03EF4909581956A
:103BC0009F4F0895709561957F4F0895EE0FFF1FE9
:103BD0000590F491E02D09945058BB27AA270E9424
:103BE000041E0C94AE1F0E94751F38F00E947C1FAB
:103BF00020F039F49F3F19F426F40C94721F0EF450
:103C0000E095E7FB0C946C1FE92F0E94D31F58F33B
:103C1000BA17620773078407950720F079F4A6F5B1
:103C20000C94F51F0EF4E0950B2EBA2FA02D0B016E
:103C3000B90190010C01CA01A0011124FF27591BF1
:103C400099F0593F50F4503E68F11A16F040A22FF7
:103C5000232F342F4427585FF3CF46953795279568
:103C6000A795F0405395C9F77EF41F16BA0B620B67
:103C7000730B840BBAF09150A1F0FF0FBB1F661FAE
:103C8000771F881FC2F70EC0BA0F621F731F841FF1
:103C900048F4879577956795B795F7959E3F08F017
:103CA000B0CF9395880F08F09927EE0F97958795D9
:103CB00008950E94481F08F481E008950E94851F1E
:103CC000E3950C94BF1F0E94771E0C94AE1F0E94B8
:103CD0007C1F58F00E94751F40F029F45F3F29F0C7
:103CE0000C946C1F51110C94F61F0C94721F0E94BF
:103CF000D31F68F39923B1F3552391F3951B550B0B
:103D0000BB27AA2762177307840738F09F5F5F4FAE
:103D1000220F331F441FAA1FA9F335D00E2E3AF0ED
:103D2000E0E832D091505040E695001CCAF72BD005
:103D3000FE2F29D0660F771F881FBB1F2617370756
:103D40004807AB07B0E809F0BB0B802DBF01FF2788
:103D500093585F4F3AF09E3F510578F00C946C1FDA
:103D60000C94F61F5F3FE4F3983ED4F38695779565
:103D70006795B795F7959F5FC9F7880F911D969541
:103D8000879597F90895E1E0660F771F881FBB1F9D
:103D9000621773078407BA0720F0621B730B840B4A
:103DA000BA0BEE1F88F7E09508950E94DC1E689418
:103DB000B1110C94F61F08950E94DB1F88F09F57E5
:103DC00098F0B92F9927B751B0F0E1F0660F771F3F
:103DD000881F991F1AF0BA95C9F714C0B13091F035
:103DE0000E94F51FB1E008950C94F51F672F782FFE
:103DF0008827B85F39F0B93FCCF3869577956795FA
:103E0000B395D9F73EF490958095709561957F4F65
:103E10008F4F9F4F0895E89409C097FB3EF490950B
:103E20008095709561957F4F8F4F9F4F9923A9F093
:103E3000F92F96E9BB279395F69587957795679522
:103E4000B795F111F8CFFAF4BB0F11F460FF1BC066
:103E50006F5F7F4F8F4F9F4F16C0882311F096E9F9
:103E600011C0772321F09EE8872F762F05C06623A7
:103E700071F096E8862F70E060E02AF09A95660F60
:103E8000771F881FDAF7880F9695879597F9089519
:103E9000990F0008550FAA0BE0E8FEEF161617065B
:103EA000E807F907C0F012161306E407F50798F0C3
:103EB000621B730B840B950B39F40A2661F0232BDC
:103EC000242B252B21F408950A2609F4A140A69558
:103ED0008FEF811D811D089597F99F6780E870E03D
:103EE00060E008959FEF80EC089500240A94161670
:103EF000170618060906089500240A9412161306D8
:103F00001406050608950C94721F0E94DB1FD8F357
:103F1000E894E0E0BB279F57F0F02AED3FE049EC42
:103F200006C0EE0FBB0F661F771F881F28F0B23A3E
:103F300062077307840728F0B25A620B730B840B75
:103F4000E3959A9572F7803830F49A95BB0F661F07
:103F5000771F881FD2F790480C947520092E039480
:103F6000000C11F4882352F0BB0F40F4BF2B11F466
:103F700060FF04C06F5F7F4F8F4F9F4F0895EF9397
:103F8000E0FF07C0A2EA2AED3FE049EC5FEB0E94A8
:103F9000041E0E94AE1F0F90039401FC9058E8EE9F
:103FA000F0E00C94812057FD9058440F551F59F0B4
:103FB0005F3F71F04795880F97FB991F61F09F3F16
:103FC00079F087950895121613061406551FF2CF3F
:103FD0004695F1DF08C0161617061806991FF1CF8F
:103FE00086957105610508940895E894BB276627B6
:103FF0007727CB0197F908950E94481F08F48FEFA7
:1040000008950E9414200C94AE1F0E94751F38F072
:104010000E947C1F20F0952311F00C946C1F0C94CF
:10402000721F11240C94F61F0E94D31F70F3959FEA
:10403000C1F3950F50E0551F629FF001729FBB279F
:10404000F00DB11D639FAA27F00DB11DAA1F649F3B
:104050006627B00DA11D661F829F2227B00DA11DEE
:10406000621F739FB00DA11D621F839FA00D611D74
:10407000221F749F3327A00D611D231F849F600D95
:10408000211D822F762F6A2F11249F5750409AF0BE
:10409000F1F088234AF0EE0FFF1FBB1F661F771F4A
:1040A000881F91505040A9F79E3F510580F00C9415
:1040B0006C1F0C94F61F5F3FE4F3983ED4F3869593
:1040C00077956795B795F795E7959F5FC1F7FE2BB5
:1040D000880F911D9695879597F908950E94481F1E
:1040E000880B990B08959F3F31F0915020F48795EC
:1040F00077956795B795880F911D9695879597F950
:1041000008959F938F937F936F93FF93EF939B01FA
:10411000AC010E940120EF91FF910E9495202F9108
:104120003F914F915F910C940120DF93CF931F93A8
:104130000F93FF92EF92DF927B018C01689406C08F
:10414000DA2EEF010E941420FE01E894A59125913A
:10415000359145915591A6F3EF010E94041EFE0191
:104160009701A801DA9469F7DF90EF90FF900F9123
:104170001F91CF91DF910895AEE0B0E0E2ECF0E264
:104180000C94C3230D891E8986E08C831A830983CE
:104190008FEF9FE79E838D83AE01475E5F4F6F89F0
:1041A000788DCE0101960E94DF202F813885F8019D
:1041B000E20FF31F10822E96E4E00C94DF23ACE0B4
:1041C000B0E0E5EEF0E20C94B5237C016B018A01CE
:1041D000FC0117821682838181FFBDC1CE01019649
:1041E0004C01F7019381F60193FD859193FF819135
:1041F0006F01882309F4ABC1853239F493FD8591B1
:1042000093FF81916F01853229F4B70190E00E94FC
:10421000C722E7CF512C312C20E02032A0F48B3282
:1042200069F030F4803259F0833269F420612CC097
:104230008D3239F0803339F4216026C02260246049
:1042400023C0286021C027FD27C030ED380F3A3049
:1042500078F426FF06C0FAE05F9E300D1124532E3D
:1042600013C08AE0389E300D1124332E20620CC01A
:104270008E3221F426FD6BC1206406C08C3611F409
:10428000206802C0883641F4F60193FD859193FFC2
:1042900081916F018111C1CF982F9F7D95549330EB
:1042A00028F40C5F1F4FFFE3F9830DC0833631F014
:1042B000833771F0833509F05BC022C0F80180813B
:1042C00089830E5F1F4F44244394512C540115C021
:1042D0003801F2E06F0E711CF801A080B18026FF5A
:1042E00003C0652D70E002C06FEF7FEFC5012C8722
:1042F0000E94BC222C0183012C852F77222E17C00F
:104300003801F2E06F0E711CF801A080B18026FF29
:1043100003C0652D70E002C06FEF7FEFC5012C87F1
:104320000E94B1222C012C852068222E830123FCBF
:104330001BC0832D90E048165906B0F4B70180E207
:1043400090E00E94C7223A94F4CFF50127FC8591B2
:1043500027FE81915F01B70190E00E94C7223110D2
:104360003A94F1E04F1A51084114510471F7E5C035
:10437000843611F0893639F5F80127FF07C06081CE
:104380007181828193810C5F1F4F08C060817181B0
:10439000072E000C880B990B0E5F1F4F2F76722E85
:1043A00097FF09C090958095709561957F4F8F4FCD
:1043B0009F4F2068722E2AE030E0A4010E94FF2265
:1043C000A82EA81844C0853729F42F7EB22E2AE0E3
:1043D00030E025C0F22FF97FBF2E8F36C1F018F4E0
:1043E000883579F0B4C0803719F0883721F0AFC034
:1043F0002F2F2061B22EB4FE0DC08B2D8460B82EFD
:1044000009C024FF0AC09F2F9660B92E06C028E07D
:1044100030E005C020E130E002C020E132E0F801E8
:10442000B7FE07C060817181828193810C5F1F4F4D
:1044300006C06081718180E090E00E5F1F4FA40193
:104440000E94FF22A82EA818FB2DFF777F2E76FE54
:104450000BC0372D3E7FA51450F474FE0AC072FCC9
:1044600008C0372D3E7E05C0BA2C372D03C0BA2CAC
:1044700001C0B52C34FF0DC0FE01EA0DF11D808195
:10448000803311F4397E09C032FF06C0B394B3946F
:1044900004C0832F867809F0B39433FD13C030FF36
:1044A00006C05A2CB31418F4530C5B18B32CB31475
:1044B00068F4B70180E290E03C870E94C722B39481
:1044C0003C85F5CFB31410F43B1801C0312C34FFF8
:1044D00012C0B70180E390E03C870E94C7223C8570
:1044E00032FF17C031FD03C088E790E002C088E5C5
:1044F00090E0B7010CC0832F867859F031FF02C0DD
:104500008BE201C080E237FD8DE2B70190E00E94AE
:10451000C722A51438F4B70180E390E00E94C722B7
:104520005A94F7CFAA94F401EA0DF11D8081B701E6
:1045300090E00E94C722A110F5CF332009F451CE9C
:10454000B70180E290E00E94C7223A94F6CFF701CB
:104550008681978102C08FEF9FEF2C96E2E10C9449
:10456000D123FC010590615070400110D8F780956F
:1045700090958E0F9F1F0895FC016150704001902F
:104580000110D8F7809590958E0F9F1F08950F9377
:104590001F93CF93DF93FB01238121FD03C08FEF96
:1045A0009FEF28C022FF16C04681578124813581A4
:1045B0004217530744F4A081B1819D012F5F3F4F03
:1045C000318320838C93268137812F5F3F4F378340
:1045D000268310C0EB01092F182F0084F185E02DF0
:1045E0000995892BE1F68E819F8101969F838E83A9
:1045F000812F902FDF91CF911F910F910895FA0194
:10460000AA27283051F1203181F1E8946F936E7F11
:104610006E5F7F4F8F4F9F4FAF4FB1E03ED0B4E002
:104620003CD0670F781F891F9A1FA11D680F791F43
:104630008A1F911DA11D6A0F711D811D911DA11D54
:1046400020D009F468943F912AE0269F1124301964
:10465000305D3193DEF6CF010895462F4770405DFF
:104660004193B3E00FD0C9F7F6CF462F4F70405DAE
:104670004A3318F0495D31FD4052419302D0A9F709
:10468000EACFB4E0A6959795879577956795BA9503
:10469000C9F700976105710508959B01AC010A2EC9
:1046A00006945795479537952795BA95C9F7620FA0
:1046B000731F841F951FA01D0895F999FECF92BD09
:1046C00081BDF89A992780B50895052E97FB1EF4B1
:1046D00000940E947C2357FD07D00E94842307FC8E
:1046E00003D04EF40C947C23509540953095219541
:1046F0003F4F4F4F5F4F089590958095709561950E
:104700007F4F8F4F9F4F0895A1E21A2EAA1BBB1B0C
:10471000FD010DC0AA1FBB1FEE1FFF1FA217B3078D
:10472000E407F50720F0A21BB30BE40BF50B661FA3
:10473000771F881F991F1A9469F760957095809567
:1047400090959B01AC01BD01CF010895A29FB001DE
:10475000B39FC001A39F700D811D1124911DB29FB5
:10476000700D811D1124911D08952F923F924F923B
:104770005F926F927F928F929F92AF92BF92CF92F1
:10478000DF92EF92FF920F931F93CF93DF93CDB7FA
:10479000DEB7CA1BDB0B0FB6F894DEBF0FBECDBF72
:1047A00009942A88398848885F846E847D848C8443
:1047B0009B84AA84B984C884DF80EE80FD800C814C
:1047C0001B81AA81B981CE0FD11D0FB6F894DEBF2F
:1047D0000FBECDBFED01089516E0C4E6D6E004C0DB
:1047E000FE010E94E61D2196C536D107C9F7F8944F
:0247F000FFCFF9
:1047F200FFFFFFFF00E100000000000001000000D9
:1048020000C18081000000000000001C07270C3D51
:1048120007D207AE07320700000000E312F1066E6E
:10482200616E00696E66006F7666002E000D0A00EA
:1048320041626F757420746F207265737061776E58
:1048420020636F6C756D6E7320626563617573654D
:104852002058706F732068617320726561636865A8
:1048620064200020666F7220696E646578200052B1
:1048720065737061776E696E6720636F6C756D6EBC
:10488200207061697220696E2075706461746500C0
:104892004368616E67696E6720746F20666C796920
:1048A2006E6720737461746500202020200025301B
:1048B200346400537061776E696E6720636F6C7544
:1048C2006D6E20617420002C2000207769746820AE
:1048D20064696D656E73696F6E732000780052654E
:1048E200737061776E696E6720636F6C756D6E733E
:0E48F20020696E207265736574416C6C000065
:00000001FF
