:100000000C9455080C947D080C947D080C947D0884
:100010000C947D080C947D080C947D080C947D084C
:100020000C947D080C947D080C943C210C94AE211A
:100030000C947D080C947D080C947D080C947D082C
:100040000C947D080C9420160C947D080C947D086B
:100050000C947D080C947D080C947D080C9460151C
:100060000C947D080C947D080C947D080C947D08FC
:100070000C947D080C947D080C947D080C947D08EC
:100080000C9408170C947D080C947D080C947D0842
:100090000C947D080C947D080C947D080C947D08CC
:1000A0000C947D080C947D080C947D086A136D13E4
:1000B0005C13601364138E138E138E1371137513F8
:1000C00079137F1383138E138913901495149A1444
:1000D000A414AE14F814F814F814B814C214CC1400
:1000E000D614E314F814EB1405A84CCDB2D44EB9D1
:1000F0003836A9020C50B9918688083CA6AAAA2ACB
:10010000BE000000803F0000000000700100C00041
:100110000C00CAA77C0A42F55508534248195EF5FF
:100120005112003000000027450040941C0014F3D9
:10013000190504F111042004000004411004000416
:100140000000104208015E14450F40F001005955AF
:10015000551351555D0D8C927C085755550D5E55C4
:10016000550D51520C015E55550F5655550F00A0B7
:10017000000000A4000000C2280080A228008062C5
:10018000080040500D0000E318009C92241F5F55AA
:100190005D0D9C1445115F1425075F5555115F5186
:1001A00014015E54551D1F41101F40F445001004FA
:1001B00021071F41181D1F0441105EF0041F9C10F1
:1001C000041F5E54450F5F9214035ED4451F5F9277
:1001D000341B5655550D41F005011F0421071F42E0
:1001E00008011FE4410F1743181D07C109015156AB
:1001F0004D1100F0450000F0010040F401008010B6
:100200000C001004411090480064800019904A00CE
:1002100064800019904C0064800019904D00648047
:100220000019904F00C880F09037007880000A9045
:1002300036008C800014903500A080001E903400A1
:10024000B4800028903300C8800032903200DC80F7
:10025000003C903100F08000469030000480F09027
:1002600043000A904F000A904C000A80F0901491CD
:100270001301F48081F01083AC696DAD821000131E
:100280006C69EDAD022000232CE9ED2D0220200643
:10029000D8D25A5AC4101082AD6D69AC83102002B6
:1002A000ADED696C130020022DEDE92C230010C484
:1002B0005A5AD2D806204E4557205245434F5244F1
:1002C0000053434F524500594F5552000000E0F093
:1002D000F83C9C9C9C9C9C800000C060606060E03E
:1002E000C08000E0E0E0406060E0E0C06060E0E02E
:1002F000C00080C0E0E06060E0C08000E0F0F83C5A
:100300001C1C1C3CF8F0E00060E0E0E00000E0E0D5
:10031000E06080C0E0E06060E0C08000E0E0E0C05D
:10032000E0E000000000070F1F3C3B3B3B3F3F1F4E
:10033000001C3E3F3333133F3F3F003F3F3F000031
:10034000003F3F3F00003F3F3F000F1F3F36363624
:1003500037370700070F1F3C3838383C1F0F07009E
:1003600000031F3F3E3E3F1F03000F1F3F36363640
:10037000373707003F3F3F00000000000000FCFC53
:10038000FC8C8CCCFCF8780080C0E0E06060E0C0C1
:10039000800000C060606060E0C0800080C0E0E07D
:1003A000E0E0C0FEFEFE0020E0E0E00000E0E0E073
:1003B000600000381C1C9CFCFC78000000003F3FE3
:1003C0003F03071F3E3E38200F1F3F363636373774
:1003D00007001C3E3F3333133F3F3F000F1F3F31A9
:1003E0003030183F3F3F000000C3CFFFFC7F1F03AA
:1003F00000000000383B3B390000000090064EE44E
:10040000C0881899E0F8FC1C1CFCF8F00F1F3F385E
:10041000383F1F07383838FCFCFC00000000003F64
:100420003F3F000000381C1C9CFCF878383C3E3BE9
:100430003B393838001CDCDCDCFC783800383939D2
:10044000393F1F0E00C0F07CFCFCFC000F0F0D0CB0
:100450003F3F3F0CFCFCFCFCDCDC9C0039383838AE
:10046000383F1F0FE0F0F8BCDCDCDC800F1F3F39A9
:10047000393F1F0F1C1C1C9CDCFC7C1C00303E3FC9
:100480003F03000070F8FC8C8CFCF8700E1F3F31AD
:10049000313F1F0EF0F8FC9C9CFCF8E00039393924
:1004A0003D1F1F074F424E2D5930312056455220D7
:1004B000302E333100C0C6CFDFFFFB73037CFEFF5D
:1004C000C7E3FF7F3E00FFFFFF1B1B1B030003036F
:1004D000FFFFFF0303000000000000000080808099
:1004E0008000000000000000000000000080E0F03C
:1004F00058AC56AB55AB5500FF0101010202040890
:1005000010608000003FFFAA55AA55AA55AA55A819
:100510005FAC5CAC5CAC5CAC5C0CCF3C0000000144
:1005200003060D1A152A252A252A25221512090443
:100530000201000000FFFF57AB57AB57AB57AB03AF
:10054000FF808080000000000000000000FFFF55D9
:10055000AA55AA55AA55AA00FF00000001010204ED
:100560000830C000001F7FD5AA55AA55AA55AA5425
:10057000AF56AE56AE56AE562E86671E0000000031
:100580000103060D0A151215121512110A090402AB
:1005900001000000000000000000008080C0C0C01A
:1005A000C0808080000000000000000000C0F078E3
:1005B000AC56AB55AA55AA00FF0000000101020489
:1005C0000830C00000FFFF55AA55AA55AA55AA0039
:1005D000FFFEAE56AE56AE56AE5607FE001F1715BE
:1005E00012151215121512101F17121512151215C9
:1005F0001215101F0006011501260137014A015D81
:1006000001720188019F01B801D201EE010B022A9B
:10061000024B026E029302BA02E40210033F03701F
:1006200003A403DC03170455049704DD04270575B0
:1006300005C80520067D06E0064907B8072D08A96C
:10064000082D09B9094D0AEA0A900B400CFA0CC0B2
:100650000D910E6F0F5A1053115B1272139A14D42E
:100660001520178018F519801B231DDE1EB420A647
:1006700022B524E4263429A72B402E0031EA33008A
:1006800037453ABC3D68414C456B49C84D68524FAF
:1006900057805C006210111213151617181A1C1DD2
:1006A0001F21232527292C2E3134373A3E41454935
:1006B0004E52575C62686E757B838B939CA5AFB975
:1006C000C4D0DCE9F70000000200090F00000304B9
:1006D00001000C000000000000000000000000000D
:1006E0000000000000000000240027002A002D0068
:1006F0003000AED580A83FD300408D142002A1C8A1
:10070000DA1281CFD9F1DB402EA4A6AF1402130276
:10071000120215020702080204010C01060100542E
:100720004845204D4954204C4943454E53452E00E1
:1007300052454C454153454420554E444552005482
:100740004849532050524F4752414D204953005081
:10075000524F4752454D4D4544204259204F424F3C
:100760004E4F00444543454D4245522032303136CC
:10077000002D20484F4C4C4F57205345454B455278
:10078000202D00435245444954005245434F5244A2
:100790000053544152542047414D45003C7EFFFFD9
:1007A000FF7E3CFD8181FDFDFDFEC0C0FEFD8D8D07
:1007B000FDFDFDFEC6C6FEDDDDDDDDFDFDEEEEEE82
:1007C000EE7107000063074F0700003F0730071F67
:1007D00007504C41592054494D45202000504C4170
:1007E0005920434F554E5420005D20005B00424588
:1007F00053542031302053434F524553004F464607
:10080000004F4E00534F554E442000910704088A74
:1008100007830753434F5245004C41535400000097
:10082000000000000080C0E0F070787800F8FC065E
:10083000F3F9FDFDFDF9F204F800604080000000CE
:10084000000000000000000000E0D8D6CBD4EAE4AD
:10085000EAF5F2F5F2F9F7F6ECEDEBEBEBE9F4FA89
:10086000F9F8FA797A7B7C60000000000000000053
:10087000000707073FC70703AB53FBFBFBFDFD81E9
:1008800081FDFDFDFEC0C0FEFEFEFEFF1F0000005C
:1008900000000000000000C0201028488404A55675
:1008A000AC59AA5DB757B76FAF69A828E86EAF57C4
:1008B000B757AB54AA56EA42E2160C0408F00003FC
:1008C000040404050203010FF920202522252A35FE
:1008D0002A35EA203FF52A352A25222520F03F0037
:1008E000000101010100F0F8FCFEFE9E1E1E1E1E0E
:1008F0003C00000000008080C0C0C0C0C0C08000BC
:10090000000000008080C0C0C0C0C0C080000000E7
:10091000FFFFFFFFFF000080C0C0C0C0C0C00000DC
:100920008080C0C0C0C0C0C080000000C0C0C0C0C7
:10093000C080C0C0C000E1C3C7878F8F9FFFFEFE8D
:10094000FCF800007CFFFFFFFFBB39393F3F3FBF92
:100950003E007CFFFFFFFFBB39393F3F3FBF3E00FA
:10096000FFFFFFFFFF187EFFFFFFFFE783007CFF15
:10097000FFFFFFBB39393F3F3FBF3E00FFFFFFFF97
:10098000FF0703030300030707070707070703031E
:10099000010000000001030307070707070707031B
:1009A000000000010303070707070707070300000C
:1009B00007070707070000010707070707070401E4
:1009C00003030707070707070703000007070707D1
:1009D000070000000000FEFEFEFEFE80808080809A
:1009E0008080FEFEFEFEFE000000008080C0C0C0D1
:1009F000C0C0C08080000000FFFFFFFFFF0000FFBD
:100A0000FFFFFFFF000000008080C0C0C0C0C0C06A
:100A100080800000C0C0C0C0C0C0000000C0C0C016
:100A2000C0C0800000C0C0C0C0C0FFFFFFFFFF0FFC
:100A30000F0F0F0F0F0FFFFFFFFFFF00007CFFFFE7
:100A4000FFFFC78383C7FFFFFFFF7C00FFFFFFFFA0
:100A5000FF0000FFFFFFFFFF00007CFFFFFFFFC75D
:100A60008383C7FFFFFFFF7C000F7FFFFFFFF0F0D6
:100A7000FFFF1F1FFFFFFFF0F0FFFF7F07000707CB
:100A8000070707000000000000000707070707002E
:100A9000000001030307070707070703030100001E
:100AA00007070707070000070707070700000001FF
:100AB00003030707070707070303010000000007F8
:100AC00007070707070300000707070707070300D3
:100AD000000000000000003E5B4F5B3E3E6B4F6B32
:100AE0003E1C3E7C3E1C183C7E3C181C577D571C0F
:100AF0001C5E7F5E1C00183C1800FFE7C3E7FF0088
:100B000018241800FFE7DBE7FF30483A060E2629D5
:100B1000792926407F050507407F05253F5A3CE798
:100B20003C5A7F3E1C1C08081C1C3E7F14227F225E
:100B3000145F5F005F5F06097F017F006689956A29
:100B4000606060606094A2FFA29408047E040810B4
:100B5000207E201008082A1C08081C2A08081E10DD
:100B60001010100C1E0C1E0C30383E3830060E3E95
:100B70000E06000000000000005F000000070007F4
:100B800000147F147F14242A7F2A1223130864621E
:100B900036495620500008070300001C224100007F
:100BA00041221C002A1C7F1C2A08083E08080080DD
:100BB0007030000808080808000060600020100875
:100BC00004023E5149453E00427F40007249494976
:100BD000462141494D331814127F102745454539A8
:100BE0003C4A4949314121110907364949493646AC
:100BF0004949291E0000140000004034000000088C
:100C0000142241141414141400412214080201592E
:100C100009063E415D594E7C1211127C7F494949BB
:100C2000363E414141227F4141413E7F4949494150
:100C30007F090909013E414151737F0808087F007F
:100C4000417F41002040413F017F081422417F4005
:100C50004040407F021C027F7F0408107F3E4141DC
:100C6000413E7F090909063E4151215E7F0919294C
:100C700046264949493203017F01033F4040403F36
:100C80001F2040201F3F4038403F63140814630377
:100C9000047804036159494D43007F4141410204F6
:100CA000081020004141417F0402010204404040FD
:100CB0004040000307080020545478407F284444F3
:100CC000383844444428384444287F38545454180D
:100CD00000087E090218A4A49C787F080404780008
:100CE000447D40002040403D007F102844000041EA
:100CF0007F40007C047804787C08040478384444FD
:100D00004438FC1824241818242418FC7C080404F3
:100D100008485454542404043F44243C4040207C5C
:100D20001C2040201C3C4030403C44281028444CAF
:100D30009090907C4464544C44000836410000007C
:100D4000770000004136080002010204023C26231D
:100D5000263C1EA1A161123A4040207A38545455D5
:100D600059215555794121545478412155547840A1
:100D700020545579400C1E52721239555555593927
:100D80005454545939555454580000457C4100027C
:100D9000457D420001457C40F0292429F0F02825BA
:100DA00028F07C545545002054547C547C0A097F1B
:100DB0004932494949323248484832324A48483033
:100DC0003A4141217A3A42402078009DA0A07D39E5
:100DD000444444393D4040403D3C24FF2424487E67
:100DE0004943662B2FFC2F2BFF0929F620C0887E54
:100DF000090320545479410000447D413048484A59
:100E000032384040227A007A0A0A727D0D19317D0B
:100E10002629292F28262929292630484D402038DF
:100E20000808080808080808382F10C8ACBA2F109E
:100E30002834FA00007B000008142A142222142A05
:100E400014089500220095AA005500AAAA55AA5593
:100E5000AA000000FF00101010FF00141414FF007F
:100E60001010FF00FF1010F010F0141414FC001408
:100E700014F700FF0000FF00FF1414F404FC141426
:100E800017101F10101F101F1414141F0010101023
:100E9000F0000000001F101010101F10101010F0B4
:100EA00010000000FF101010101010101010FF1094
:100EB000000000FF140000FF00FF00001F101700DB
:100EC00000FC04F414141710171414F404F40000B4
:100ED000FF00F714141414141414F700F714141466
:100EE000171410101F101F141414F4141010F01005
:100EF000F000001F101F0000001F14000000FC1471
:100F00000000F010F01010FF10FF141414FF141064
:100F100010101F00000000F010FFFFFFFFFFF0F0B7
:100F2000F0F0F0FFFFFF0000000000FFFF0F0F0FC9
:100F30000F0F38444438447C2A2A3E147E020206AD
:100F400006027E027E0263554941633844443C04F4
:100F5000407E201E2006027E020299A5E7A5991C6C
:100F60002A492A1C4C7201724C304A4D4D3030488F
:100F7000784830BC625A463D3E494949007E0101ED
:100F8000017E2A2A2A2A2A44445F444440514A4482
:100F90004040444A51400000FF0103E080FF000050
:100FA00008086B6B083612362436060F090F060048
:100FB0000018180000001010003040FF0101001F51
:100FC00001011E00191D1712003C3C3C3C000000B2
:100FD0000000040802011040804010204080408042
:100FE00008020401804020100201108010204040BF
:100FF0002000000000250028002B002E00310004F6
:1010000004040404030405020202020403020202AF
:101010000206060606060604040202020404030190
:10102000080B000202020100090400000102020094
:101030000005240010010524010101042402060515
:101040002406000107058103100040090401000285
:101050000A00000007050202400000070583024065
:1010600000000403090441726475696E6F204C4CE2
:10107000430041726475696E6F204C656F6E6172DA
:10108000646F00120100020000004041233680001E
:10109000010102030112010002EF02014041233667
:1010A00080000101020301004E2611241FBECFEF74
:1010B000DAE0DEBFCDBF27E0A0E5B1E001C01D92C0
:1010C000AA38B207E1F711E0A0E0B1E0E8E0FAE504
:1010D00002C005900D92A035B107D9F718E0C5E51B
:1010E000D8E004C02197FE010E949F26C435D10795
:1010F000C9F70E94EB230C94022D0C94000088E7A2
:101100008093B8020895AF92BF92CF92DF92EF9290
:10111000FF920F931F93CF93DF938C01B62E6A013A
:10112000FA01C181D0E08081C81BD1090E94CB2B7C
:1011300063E070E00E948B267C01BB2031F088E0E8
:1011400090E09C012E193F097901F601818190E020
:10115000829765E070E00E948B265B010E94CB2B9A
:10116000F701EC1BFD0B9F01F7FF04C0222733277B
:101170002E1B3F0B61E170E0621B730B9501B7FE04
:1011800004C0222733272A193B09621B730B0E94D4
:101190008B269C0128503109CE15DF0514F42E0F43
:1011A0003F1FB7FE02C02A193B09F6018181280FB3
:1011B000311D2833310534F4203131052CF420E180
:1011C00030E002C028E330E0822F8E19F8018083DE
:1011D0002183DF91CF911F910F91FF90EF90DF90CE
:1011E000CF90BF90AF9008958091AD029FEF980F80
:1011F0009093AD0287FF1EC00E94CB2B092E000CDE
:10120000AA0BBB0B9C01AD0130584F4F5F4FA09113
:10121000AB02B091AC020E94872CDC01CB0126E12D
:10122000B595A795979587952A95D1F78093AD02A7
:1012300081E0089580E008950F931F93CF938091EC
:10124000F1028111A8C08091D2029FEF980F909374
:10125000D202811109C00E94CB2B64E670E00E948B
:101260008B268A568093D2023091B1029091B002BF
:10127000332341F090FF06C08091D10221E0281B6A
:101280002093D1028FEF890F8093B00291110DC08E
:1012900081E083278093B1020E94CB2B64EB70E046
:1012A0000E948B26845C8093B00280912107807815
:1012B000282F30E090912007892F90E0809590951D
:1012C00082239323892B71F08091EE02882311F001
:1012D000815001C083E08093EE020E945E1B81E09A
:1012E0008093F202809121078071282F30E0909145
:1012F0002007892F90E08095909582239323892B56
:1013000079F08091EE02833021F08F5F8093EE02BE
:1013100002C01092EE020E945E1B81E08093F202F6
:10132000809121078C70282F30E090912007892F21
:1013300090E08095909582239323892B09F441C0F6
:101340008091EE02813089F054F481111FC06091C8
:10135000030382E090E00E945A2CC1E018C0823062
:1013600081F0833099F482E00DC0C091ED02C8276E
:1013700019F00E94001A02C00E94F319C093ED02F6
:1013800003C081E08093F1020E943D1BC0E081E038
:101390008093F20217C0809121078C70282F30E0D3
:1013A00090912007892F90E0809590958223932338
:1013B000892B39F01092F1020E943D1B81E080934D
:1013C000F202C0E00E94CB2B8C010E940115012E7D
:1013D000000C220B330B602771278227932761159E
:1013E00071058105910511F00E942E2C8C2FCF9153
:1013F0001F910F9108950F931F93CF93DF93109236
:10140000F10281E08093F202C0910303CC2319F032
:101410000E94001A02C00E94F319C093ED021092BC
:10142000EE028091AF0281117EC080E093E0909344
:101430002407809323070E94241DEC010E94241D91
:10144000A0E0B0E0DC0199278827AE0160E070E001
:10145000842B952BA62BB72B8F349244AE44B140EE
:1014600019F0E9EDF2E04AC0C3E0D0E00BEE14E47D
:101470000E94241D9C01C29FC001C39F900DD29F5A
:10148000900D1124080F191F2196C031D10581F745
:101490000E94241D8017910721F784E093E0909328
:1014A000240780932307C9EDD2E00E94241D89936D
:1014B000999332E0CD3ED307C1F70E94241D90934B
:1014C000D8028093D7020E94241DEC010E94241DA3
:1014D000A0E0B0E0DC0199278827AE0160E070E071
:1014E000842B952BA62BB72B8093D3029093D402F9
:1014F000A093D502B093D60282E013C0119211924C
:1015000082E0ED3EF807D1F71092D8021092D70290
:101510001092D3021092D4021092D5021092D602E9
:1015200081E08093AF020E94CB2B64E670E00E94C2
:101530008B268A568093D20281E08093D10210924A
:10154000B1020E94CB2B64EB70E00E948B26845C7E
:101550008093B002DF91CF911F910F910895AF92C8
:10156000BF92CF92DF92EF920F93CF93DF936C01F4
:101570005B01EA014A3051055CF0CA016AE070E0A3
:101580000E948B26AB01B501C6010A970E94AF0AE3
:10159000CE016AE070E00E948B26AC0184E0440F2B
:1015A000551F8A95E1F74C5F5B4FEE24E39400E111
:1015B00028E0B501C6010E947C1DDF91CF910F91FB
:1015C000EF90DF90CF90BF90AF9008958F929F9251
:1015D000AF92BF92CF92DF92EF920F93CF93DF93B0
:1015E0000E94291F2091B80288E790E0821B910990
:1015F00068E270E00E948B264B0185EDC82E84E0E6
:10160000D82E9CE1A92EB12CC0E0D0E081E090E082
:10161000C815D90511F080E090E02091AE02289F16
:10162000B001299F700D1124645F7F4FEE24E39475
:1016300000E228E1A601C5010E947C1D219688E1F7
:10164000A80EB11C80E6C80ED11CC330D105F1F63E
:1016500008E020E245EB54E06CE270E084E490E0C6
:101660000E947C1D80E190E09093190780931807F9
:101670008AE390E090931B0780931A0764EA74E072
:1016800084E093E0DF91CF910F91EF90DF90CF90C6
:10169000BF90AF909F908F900C94F413CF92DF92F5
:1016A000EF92FF928091B80281508093B80290E04F
:1016B0000F9763E070E00E948B268AE3C82E8AEAC7
:1016C000D82E83EEE82E8EEEF82E04C0F694E79422
:1016D000D794C7946A95D2F781E0C822DD24EE241E
:1016E000FF248C2D81708093AE026FEF70E089E053
:1016F0000E9469146FEF70E08AE00E9469148FE71E
:10170000C89EC02C11246FEF70E06C1971098BE03A
:101710000E94691481E09091B802911180E0FF90DD
:10172000EF90DF90CF9008952F923F924F925F926B
:101730006F927F928F929F92AF92BF92CF92DF92E1
:10174000EF92FF920F931F93CF93DF93CDB7DEB746
:1017500062970FB6F894DEBF0FBECDBF6A3091F42A
:10176000FC01E85EFB4F408132972081318156E0D9
:10177000459F200D311D1124318320833297118222
:101780001082FFC020EE260F203408F0FAC09A8B9A
:10179000898B885E9B4F99878887DC018C91E989CA
:1017A000FA89E55EFB4F30813A83E989FA89E65E82
:1017B000FB4F30813B83E989FA89EA5EFB4F408029
:1017C000518049895A894C5E5B4F5E834D83DA01B3
:1017D0000D911C91003811050CF0A4C0B0E44B161B
:1017E00051040CF09FC0282E312C9801E5E08E9F0B
:1017F000200D311D112437FD95C09201F6E08F9F19
:10180000200D311D112437FD8DC031E039833A811F
:101810004B81341301C0198254E0659FF0011124FB
:10182000EA57FF4FC590D590E590F490813039F09C
:10183000380136E0A82FB0E0BF87AE8738C036E069
:10184000832E520196E0992EC0FC05C039813323C6
:1018500049F02A8101C02B81A501B80189899A89A3
:101860000E940E1AF694E794D794C7949A944FEF77
:10187000A41AB40A9110E8CF8A940F5F1F4F811009
:10188000E0CF50C0C0FC1CC0598151111CC0F6945F
:10189000E794D794C7948C8181508C83020D131DDB
:1018A0008111F0CF3150620C731C3323D9F18201C6
:1018B00056E05C83C301820D931D9D878C87E2CF28
:1018C0009B819F8302C0AA81AF834301EE85FF8580
:1018D000E00FF11FFB87EA874C855D85841695062E
:1018E000B4F6580117FF12C0A12CB12C0FC0A816D6
:1018F000B906A4F42F81A501B40189899A89388B8E
:101900000E940E1AFFEFAF1ABF0A38898A859B859D
:101910008134910564F380E490E0E9CF2FEF821ADF
:10192000920ADACFA885B9852C91422F50E0ED813B
:10193000FE8180819181F6E02F9F800D911D112401
:10194000AD81BE818D939C93E989FA89E75EFB4F57
:1019500020812223B1F06AEF64039001659F300D6E
:10196000112420583F4F281739075CF4A989BA89F8
:10197000ED91FC9111970190F081E02D6AE0CD018D
:10198000099581E090E062960FB6F894DEBF0FBE35
:10199000CDBFDF91CF911F910F91FF90EF90DF901E
:1019A000CF90BF90AF909F908F907F906F905F90FF
:1019B0004F903F902F9008952F923F924F925F92B9
:1019C0006F927F928F929F92AF92BF92CF92DF924F
:1019D000EF92FF920F931F93CF93DF93CDB7DEB7B4
:1019E0002D970FB6F894DEBF0FBECDBF0E94291F02
:1019F0008091A9029091AA02813D23E092072CF0E8
:101A000081FB222420F8312C02C0212C312C609142
:101A1000A7027091A802C101860F971F9B838A833A
:101A20006091A5027091A6023101660E771EE12C2D
:101A3000F12C42E1442E512C877099279D838C8391
:101A4000919581959109DC01A770BB27B987A8877B
:101A50008827992786199709FC01E770FF27FF83DC
:101A6000EE83CF019195819591099C0127703327D1
:101A70003B872A878091A402F701E80FF11DCF016F
:101A8000089660E970E00E948B265C016C0123E0FF
:101A9000D594C7942A95E1F74C0137E08322992425
:101AA000E770FF27E450FC4F249129838601000F43
:101AB000111FF801E058FD4F208130E0811491049E
:101AC00019F4C601419606C087E08816910489F48E
:101AD000C6014396B2010E948B26FC01EE0FFF1F48
:101AE000E058FD4F8081A901481B51094F5F5F4FAE
:101AF00002C041E050E0AA81BB812A0F3B1F37FFA3
:101B00000CC0F801E058FD4F218130E081149104B0
:101B100009F04CC0C60141964FC01416150614F0CA
:101B200041E050E0241735070CF4A901F901E41B4A
:101B3000F50BFD87EC87BF01C7010E944D1C498151
:101B4000088401C046950A94EAF789810C8001C097
:101B5000880F0A94EAF7482BF701E85EFC4F28E06B
:101B600030E08C859D85281B390BAC85BD851A1608
:101B70001B063CF6AC85BD8518974CF48FEF90E0C2
:101B8000022E02C0959587950A94E2F701C08FEF67
:101B900084239081892B8083E058FF4F8C859D851D
:101BA00008979D878C87285F3F4FDFCFB7E08B1664
:101BB000910491F4C6014396B2010E948B26FC0168
:101BC000EE0FFF1FE058FD4F818190E0821B930BC9
:101BD000AC014F5F5F4F02C041E050E080E490E015
:101BE0006C01C21AD30AC618D708D7FE1FC0F50168
:101BF000EE0FFF1FE05AFE4F4081442309F457C007
:101C00008181449FA001112416E0559547951A95AE
:101C1000E1F7480F511D87FD5A95420D531D21E0F4
:101C2000B70184E093E00E940E1A41C01416150615
:101C300014F041E050E08A01C416D5060CF4860188
:101C400060E470E06C197D09402FC7010E944D1CB3
:101C5000C01AD10A89810E8001C086950A94EAF7DC
:101C600019810A8401C0110F0A94EAF7182BD701D1
:101C7000A856B94F88E090E08C199D091C141D04EA
:101C80000CF0B5CF2FEFE8E0CE16D1042CF4082EDF
:101C900001C0220F0A94EAF721233C91232B2C93B5
:101CA000A058B109F8E0CF1AD1080896E7CF2FEF76
:101CB000E21AF20A30E8E316F10409F0DBCEE09113
:101CC0005F01F0E0EE0FFF1FE058FD4F8181209192
:101CD0005E0140915D01608170E090915C01911125
:101CE0001FC0E82FF0E02403C001112497FD0796E0
:101CF000A3E095958795AA95E1F78E0F9F1F08970A
:101D0000860D971DAA81BB816A0F7B1F6817790713
:101D10000CF4BC01693371052CF068E370E002C07B
:101D2000660D771D80915B01469550E0B4E08B9F76
:101D3000400D511D1124E3E0440F551FEA95E1F7D2
:101D40004A585D4F80915A01EE24E39408E028E060
:101D500090E00E947C1D809159018823C9F08695EE
:101D6000863018F490E0069702C080E090E0109270
:101D700019071092180790931B0780931A07609118
:101D8000AB027091AC0280E090E04AE00E94E61E57
:101D900080915801882319F1C0905601D0905701C5
:101DA000E8E1CE16D10424F4F0E1CF1AD10803C043
:101DB00058E0C52ED12C00E020E140E4B60180E2DD
:101DC00090E00E94A81CEE24E39400E120E44CE79C
:101DD00053E0B60180E290E00E947C1DAFC080918C
:101DE0005C01882309F4AAC0A0905601B090570165
:101DF00080ED91E06C01CA18DB081C141D0414F47A
:101E0000C12CD12C00E020E148E5B60184E190E04E
:101E10000E94A81CEE24E39400E128E54CEC52E07B
:101E2000B60184E190E00E947C1D21ECA21621E025
:101E3000B20634F0750130E9E31A31E0F30A03C069
:101E400040E3E42EF12C8091550190E09C012E5F3F
:101E50003F4F220F220F220F33E0880F991F3A9530
:101E6000E1F7B701681B790B00E048E48CE190E0F2
:101E70000E94A81C4091AB025091AC02B7018AE5C8
:101E800090E00E94AF0A0EE110E010931907009352
:101E90001807C701039690931B0780931A0767ECF6
:101EA00072E084E093E00E94F4131093190700930A
:101EB0001807C701099690931B0780931A0761ECD6
:101EC00072E084E093E00E94F4138091550188232E
:101ED000A9F18091A9029091AA0268E070E00E94A5
:101EE0008B2604975CF582E290E09093190780932B
:101EF000180786E0E81AF108F0921B07E0921A072B
:101F000066EB72E084E093E02D960FB6F894DEBFA6
:101F10000FBECDBFDF91CF911F910F91FF90EF903A
:101F2000DF90CF90BF90AF909F908F907F906F90F9
:101F30005F904F903F902F900C94F4132D960FB616
:101F4000F894DEBF0FBECDBFDF91CF911F910F91EF
:101F5000FF90EF90DF90CF90BF90AF909F908F90C9
:101F60007F906F905F904F903F902F900895CF9308
:101F7000DF9381E08093580110925C0188E790E044
:101F800090935701809356011092AC021092AB02CD
:101F9000109259011092A4021092AA021092A90262
:101FA0001092AD02109251011092500180E2809384
:101FB000540180E090E030E228E2FC01E058FD4F5F
:101FC00030832183029682319105B9F7C0E0D0E0D9
:101FD0000E94F408AE0140575D4F682FCE018E5627
:101FE0009D4F0E9483082296C231D10589F7E0E611
:101FF000F1E01082329682E0E038F807D1F71092D3
:102000005A0181E080935F0180935B0110925D0132
:1020100010925E0160E086E092E0DF91CF910C9437
:102020001B1CCF92DF92EF92FF920F931F93CF93DF
:10203000DF9380915801811104C080915C01882355
:1020400069F0809156019091570101979093570143
:1020500080935601892B11F4109258011091580168
:10206000111111C08091A9029091AA0202962091AB
:102070005C01821B910960E074E00E948B269093C2
:10208000AA028093A902E090A902F090AA0280ED32
:10209000E81683E0F80629F462E08DE692E00E94FB
:1020A0001B1CB701FF0C880B990B0E9463272BEDBB
:1020B0003FE049E450E40E942E2820E030E040E078
:1020C0005BE30E942E280E94262720E030E040E0BB
:1020D0005FE30E942E289B01AC0160E070E080E08D
:1020E0009FE30E94B9266B017C0180915401682F07
:1020F00070E080E090E00E9463279B01AC01C70183
:10210000B6010E942E280E942B276B017C019B01A7
:102110007093530160935201CB018095909597FD88
:102120000196959587959093A8028093A702C60182
:1021300037FD0196959587959093A6028093A50209
:1021400080915C01882399F0809121078C70282F61
:1021500030E090912007892F90E080959095822320
:102160009323892B09F48EC00E94B70F8BC08091F6
:102170005D01811187C0111109C09091210795FB64
:10218000882780F996FF08C081117CC081E0809388
:102190005B0101E010E00CC0882309F473C01092C9
:1021A0005B0180915A01882309F46CC00FEF1FEF87
:1021B00020915F0130E0C901800F911F429662E1DA
:1021C00070E00E948B26AC01DC01AA0FBB1FA05857
:1021D000BD4F11968C911197220F331FF901E058D2
:1021E000FD4F9181692F70E0AC91282F30E0E081A4
:1021F0002E1B31096A1B7109261737070CF4B90128
:102200006C0D7D1D68307105ECF1981B90935E019B
:1022100040935F0188E080935D0180915A01080F2F
:10222000111D093311052CF10091A40206950695A4
:10223000069510E00E94F408282FC801419662E13B
:1022400070E00E948B26AC01440F551F40585D4F33
:10225000C801880F991F622F80589D4F0E948308E4
:102260008091AB029091AC0201969093AC02809366
:10227000AB0280915801811105C063E08FE592E0C7
:102280000E941B1C80915D018823E9F0815080939E
:102290005D0180915B01880F90915A01890F9FEF3A
:1022A000980F993318F490935A010DC0825080937F
:1022B0005A018091A40290E0019660E970E00E94CA
:1022C0008B268093A4022091A5023091A602E0E61D
:1022D000F1E000E010E0C80187709927892B79F4BC
:1022E000D80173E0B595A7957A95E1F7AA0FBB1FC2
:1022F000A058BD4F11968C91E901C80FD11D808166
:10230000882399F08F5F80834181889FC0011124C9
:1023100066E0959587956A95E1F7840F911D47FDD5
:102320009A95C817D9070CF410820F5F1F4F329689
:102330000039110581F680915801811132C00E9447
:10234000CB2B6091A9027091AA0256E07595679512
:102350005A95E1F76F5F7F4F0E948B26892B09F515
:102360000E94CB2BB8010E948B26DC01AA0FBB1F59
:10237000A05ABE4F2C91211114C021E02C9397FD3F
:102380000796FC0133E0F595E7953A95E1F7EE0FF6
:10239000FF1FE058FD4F9091A7028081890F119691
:1023A0008C93809158018111A8C08091A9029091CD
:1023B000AA02892B09F0A1C080915001909151018E
:1023C00001969093510180935001209154012F3F29
:1023D00019F02F5F20935401E0915F01F0E0EE0FC0
:1023E000FF1FE058FD4F218130E04081241B31095F
:1023F000243031050CF081C021E020935C01982F3E
:102400008827990F092E000CAA0BBB0B2091AB0259
:102410003091AC023093F0022093EF02EDEEF2E047
:10242000CAE0D0E0AE014150510972916291621749
:10243000730708F486C090C08091D7029091D802AB
:102440000E94511D6091D3027091D4028091D502F7
:102450009091D6020E94601DE9EDF2E04BEE54E44B
:1024600020E030E061917191D9011396A69FC001DF
:10247000A79F900DB69F900D1124480F591F2F5FF5
:102480003F4F2A30310571F7C090D302D090D4026B
:10249000E090D502F090D6022EE02C9DC0012D9D3B
:1024A000900D11246091D7027091D802EDE0E69F63
:1024B0009001E79F300D1124820F931F6FE06E9DF6
:1024C00090016F9D300D1124820F931F840F951F73
:1024D0000E94511D82E08093AF0281E0C11180E033
:1024E0008093550180EE91E09093570180935601BF
:1024F00061E088E292E00E941B1C20915A018091C9
:102500005C0190915901203330F020915801211144
:1025100002C0882321F0992339F0915003C09032F2
:1025200018F49F5F90935901882309F474C081E0E7
:102530002091560130915701232B09F46CC080E0A3
:102540006AC04930510531F07383628341155105EA
:1025500009F45EC0EA0166CFCA30D10539F0FE0148
:10256000EE0FFF1FE752FD4F318320832091D702EA
:102570003091D8022F5F3F4F3093D8022093D7027B
:102580004091D3025091D4026091D5027091D6024D
:10259000840F951FA61FB71F8093D3029093D40278
:1025A000A093D502B093D6028091AF02813061F43E
:1025B00080E093E090932407809323076FE472E414
:1025C0008EE491E00E94601DCE018E579E4F880FD1
:1025D000991F90932407809323078C010450134084
:1025E0007E01C12CD12C9AE0E916F10409F424CF24
:1025F000F601E00FF11FE752FD4F808191810E94AB
:10260000511D9FEFE91AF90A82E0C80ED11CEBCFE9
:10261000C0E0D0E0A4CFDF91CF911F910F91FF9048
:10262000EF90DF90CF900895CF92DF92EF92FF92DC
:102630000F931F93CF93DF936C017A018B01C0E05E
:10264000D0E0CE15DF0589F0D8016D918D01D6015E
:10265000ED91FC910190F081E02DC6010995892B47
:1026600011F47E0102C02196ECCFC701DF91CF911A
:102670001F910F91FF90EF90DF90CF900895362F2C
:1026800090E0FC01EB53F94F4491FC01EE52F04F06
:102690002491FC01E150F04F8491882309F451C04A
:1026A0004423E1F150E0FA013197EF30F105B0F544
:1026B000EA5AFF4F0C949F26909180009F7707C0A5
:1026C000909180009F7D03C090918000977F9093B0
:1026D000800024C094B59F7702C094B59F7D94BDBF
:1026E0001DC0909190009F7707C0909190009F7DB2
:1026F00003C090919000977F909390000FC09091AD
:10270000C0009F7703C09091C0009F7D9093C00050
:1027100005C09091C200977F9093C200E82FF0E02F
:10272000EE0FFF1FEF50F04FA591B4918FB7F894C3
:10273000EC91311103C020952E2301C02E2B2C9338
:102740008FBF08958FB12CB193B130E020953095B3
:1027500020743327A90123E0559547952A95E1F781
:10276000292F30E020953095207133273595279516
:1027700035952795242B8095807F822B0895E091B5
:10278000C902F091CA0290818091C802982B90836F
:10279000A091C602B091C7022C919091C50290956C
:1027A00092239C9390818095892380830895E09162
:1027B000C602F091C70290818091C502892B808367
:1027C000E091C902F091CA0290818091C80280957F
:1027D0008923808308958EBD00000DB407FEFDCFD0
:1027E0008EB508950E94E428EF92FF920F931F93F5
:1027F000CF93DF938C017B01C0E0D0E0F701EC0FB9
:10280000FD1F6491662361F0D801ED91FC91019068
:10281000F081E02DC8010995892B11F02196EECFAA
:10282000CE01DF91CF911F910F91FF90EF9008950E
:102830006115710579F0FB0101900020E9F73197EE
:10284000AF01461B570BDC01ED91FC910280F38137
:10285000E02D099480E090E00895CF93DF9390E01D
:10286000FC01EE52F04F2491FC01E150F04F8491B5
:10287000882361F190E0880F991FFC01EC51F94F1A
:10288000C591D491FC01EF50F04FA591B491611125
:1028900009C09FB7F8948881209582238883EC91A2
:1028A0002E230BC0623061F49FB7F8943881822FD9
:1028B000809583238883EC912E2B2C939FBF06C099
:1028C0008FB7F894E8812E2B28838FBFDF91CF91AB
:1028D00008951F93CF93DF93182FEB0161E00E94BF
:1028E0002D14209711F460E004C0CF3FD10539F4D6
:1028F00061E0812FDF91CF911F910C943F13E12F65
:10290000F0E0EB53F94FE4914E2F50E0FA0131978C
:10291000EF30F10508F06CC0EB59FF4F0C949F2687
:1029200084B5806884BDC7BD68C084B5806284BD3D
:10293000C8BD63C080918000806880938000D09380
:102940008900C093880059C0809180008062809384
:102950008000D0938B00C0938A004FC0809180008C
:10296000886080938000D0938D00C0938C0045C018
:1029700080919000806880939000D0939900C093DC
:1029800098003BC080919000806280939000D0932B
:102990009B00C0939A0031C0809190008860809322
:1029A0009000D0939D00C0939C0027C08091C000F0
:1029B00080688093C0008091C0008F7B8093C000AE
:1029C000C093CF001AC08091C00080628093C00085
:1029D000C093D00012C08091C20088608093C20072
:1029E0008091C2008B7F8093C200C093D20005C04B
:1029F000C038D1050CF07CCF76CFDF91CF911F91FD
:102A000008953FB7F8948091C0029091C102A091BF
:102A1000C202B091C30226B5A89B05C02F3F19F092
:102A20000196A11DB11D3FBFBA2FA92F982F88274E
:102A3000820F911DA11DB11DBC01CD0142E0660FA9
:102A4000771F881F991F4A95D1F708958F929F92FB
:102A5000AF92BF92CF92DF92EF92FF926B017C0117
:102A60000E9401154B015C01C114D104E104F10481
:102A7000F1F00E940115DC01CB0188199909AA091E
:102A8000BB09883E9340A105B10570F321E0C21A4D
:102A9000D108E108F10888EE880E83E0981EA11C99
:102AA000B11CC114D104E104F10419F7DDCFFF908A
:102AB000EF90DF90CF90BF90AF909F908F90089550
:102AC0001F920F920FB60F9211242F933F938F9363
:102AD0009F93AF93BF938091CB029091CC02A09132
:102AE000CD02B091CE023091BF0223E0230F2D37EB
:102AF00020F40196A11DB11D05C026E8230F029602
:102B0000A11DB11D2093BF028093CB029093CC02F4
:102B1000A093CD02B093CE028091C0029091C102E9
:102B2000A091C202B091C3020196A11DB11D809374
:102B3000C0029093C102A093C202B093C302BF919E
:102B4000AF919F918F913F912F910F900FBE0F905A
:102B50001F901895CF92DF92EF92FF920F931F93E1
:102B6000CF93E82FF0E0E25EFF4EC491E62FF0E055
:102B7000603330F4EB56F94FE4910E2F10E006C0AD
:102B8000EE0FFF1FEB56FA4F059114916801E12CEF
:102B9000F12C60E074E284EF90E0A70196010E94BE
:102BA000682CBA01A9014150510961097109411507
:102BB000510581E06807710580F060E970ED83E000
:102BC00090E0A70196010E94682CBA01A90141502A
:102BD00051096109710983E001C081E0C130C9F088
:102BE000C33031F590919100987F892B80939100AB
:102BF00050939900409398001093BE020093BD0239
:102C000081E08093B70280917100826080937100AF
:102C10000FC090918100987F892B80938100509301
:102C200089004093880080916F00826080936F00DC
:102C3000CF911F910F91FF90EF90DF90CF9008956B
:102C40001F920F920FB60F9211242F933F938F93E1
:102C50009F93AF93BF93EF93FF938091B602882326
:102C600009F44DC08091B2029091B302A091B402D8
:102C7000B091B502892B8A2B8B2B51F18091FA02EE
:102C8000E091FB02F091FC02908189278083809182
:102C9000B2029091B302A091B402B091B50218169D
:102CA00019061A061B06A4F58091B2029091B30290
:102CB000A091B402B091B5020197A109B109809326
:102CC000B2029093B302A093B402B093B50220C0B5
:102CD0001092B60280916F008D7F80936F0090916B
:102CE000FA02E091FB02F091FC028081282F30E093
:102CF000892F90E0809590958223932308C080913E
:102D0000FA02E091FB02F091FC0290818927808316
:102D1000FF91EF91BF91AF919F918F913F912F9133
:102D20000F900FBE0F901F901895E091FF02F09149
:102D30000003BF016F5F7F4F709300036093FF023A
:102D40004491942F907F842F8F70903819F40E94B3
:102D5000CA19EBCF903981F43296F0930003E093D7
:102D6000FF02FB0164919091FD028917F0F667FD67
:102D7000DCCF0E94AA15D9CF903E49F4809101037F
:102D800090910203909300038093FF02CECF903F77
:102D900019F41092FE02089597FDC7CF3296F09372
:102DA0000003E093FF02FB01249130E0342BA0915B
:102DB000BD02B091BE020E94BC2C6C507E4F8F4F62
:102DC0009F4F28EE33E040E050E00E949A2C209381
:102DD000B9023093BA024093BB025093BC02809177
:102DE000B9029091BA02A091BB02B091BC02892BAA
:102DF0008A2B8B2B61F481E090E0A0E0B0E080931F
:102E0000B9029093BA02A093BB02B093BC0208959A
:102E10001F920F920FB60F9211242F933F934F934F
:102E20005F936F937F938F939F93AF93BF93EF9332
:102E3000FF938091B702882349F08091F702E091D7
:102E4000F802F091F9029081892780838091FE0237
:102E5000882329F18091B9029091BA02A091BB0216
:102E6000B091BC02892B8A2B8B2BC9F08091B902BF
:102E70009091BA02A091BB02B091BC020197A10946
:102E8000B1098093B9029093BA02A093BB02B093A8
:102E9000BC02892B8A2B8B2B11F40E949516FF9173
:102EA000EF91BF91AF919F918F917F916F915F91C2
:102EB0004F913F912F910F900FBE0F901F9018953B
:102EC0002F923F924F925F926F927F928F929F923A
:102ED000AF92BF92CF92DF92EF92FF920F931F9328
:102EE000CF93DF93CDB7DEB768970FB6F894DEBF08
:102EF0000FBECDBF8091F202882309F406C20E9462
:102F0000291F8091F102813009F4D2C060F0823033
:102F100009F0F9C181ECE82E87E0F82E08E010E016
:102F20009DEFD92EC9C1EE24E39404E124E546EDDA
:102F300059E060E070E083E090E00E947C1D20E5B5
:102F400046EE58E063E170E08DE290E00E947C1D67
:102F500008E228E24EE158E068E170E084E090E0A9
:102F60000E947C1D8091EF029091F0029E012F5FE4
:102F70003F4F7901892B09F443C002E610E010931A
:102F800019070093180710921B0710921A0769E19E
:102F900078E084E093E00E94F41310931907009303
:102FA000180786E090E090931B0780931A0763E16F
:102FB00078E084E093E00E94F4138091F0028F9314
:102FC0008091EF028F9385E491E09F938F93FF921E
:102FD000EF920E94E92810931907009318078EE0DA
:102FE00090E090931B0780931A07B70184E093E069
:102FF0000E9418140F900F900F900F900F900F9049
:10300000EBE0AE2EE8E0BE2EF8E2CF2ED12C00E0B1
:1030100010E0F50185909490B401C7010E94402C06
:103020008091EE02082E000C990B0817190719F071
:1030300080E490E002C08CE390E0909319078093C5
:103040001807D0921B07C0921A07B70184E093E0DB
:103050000E94181434E0831638E0930669F48091D6
:10306000ED02811103C06DEF77E002C061E078E00E
:1030700084E093E00E94F4130F5F1F4F42E0A40E20
:10308000B11C56E0C50ED11C0430110509F0C1CFAA
:103090006091EE0286E06802B0011124685D7F4F06
:1030A00001E025E045E084E390E00E94A81C2BC1EC
:1030B00086E190E0909319078093180784E090E0F0
:1030C00090931B0780931A076EEE77E084E093E0FD
:1030D0000E94F413E8E9F3E09FE79E0F808180618E
:1030E00081939E13FBCF59ED252E52E0352E812C76
:1030F000912C5401839474E0E72EF12C24013501C6
:103100003EE0C32ED12C00E010E0940121503109A3
:10311000C801820F931F099719F486E090E002C05E
:1031200080E090E0A701481B590B5093190740938A
:103130001807D0921B07C0921A076CEE77E084E064
:1031400093E02F8B388F0E94F4134AE0C301B20141
:103150000E94E61E69EE77E084E093E00E94F4139B
:10316000F801EE0FFF1FE20DF31D6081718180E019
:1031700090E04AE00E94E61E0F5F1F4F56E0C50E2A
:10318000D11C8FEF481A580A680A780A2F89388D9F
:103190000530110509F0BCCF9CE3E90EF11C2AE0D3
:1031A000220E311C35E0830E911CA11CB11C4CE792
:1031B000E416F10409F0A2CFE8E9F5E09FE79E0FDD
:1031C0008081806181939E13FBCF00E110E010931A
:1031D00019070093180780E390E090931B078093F2
:1031E0001A076DED77E084E093E00E94F41360919C
:1031F000D7027091D80280E090E04AE00E94E61E7B
:10320000109319070093180786E390E090931B072B
:1032100080931A0761ED77E084E093E00E94F41355
:103220006091D3027091D4028091D5029091D60220
:1032300020E13EE040E050E00E949A2CCA01B90132
:103240004AE00E94E61E6091D3027091D402809100
:10325000D5029091D6022CE3C22ED12CE12CF12C78
:10326000A70196010E949A2CCA01B901A7019601F3
:103270000E949A2C9F938F937F936F9389E491E0A0
:103280009F938F938E010F5F1F4F1F930F930E9489
:10329000E928B80184E093E00E9418140FB6F8946E
:1032A000DEBF0FBECDBF2FC042E0E40EF11C0A5FAF
:1032B0001F4F0833110539F1F701659174916115BC
:1032C000710591F3CE0101960E94402C66E170E0F9
:1032D000CE0101960E94472C282F3D2D3203C001BC
:1032E0001124805C9F4F90931907809318071093C7
:1032F0001B0700931A07BE016F5F7F4F84E093E0C6
:103300000E941814D1CF1092F2028091F102811123
:1033100028C08091D2028695869563E070E0681B94
:10332000710977FF02C060E070E06330710509F455
:1033300061E05AE0659FB00111246D55784F4AE075
:1033400050E08CEA95E00E94372CE090D10208E032
:1033500027E04CE957E06AE170E086E190E00E94E6
:103360007C1D68960FB6F894DEBF0FBECDBFDF910F
:10337000CF911F910F91FF90EF90DF90CF90BF9072
:10338000AF909F908F907F906F905F904F903F9005
:103390002F900895E82FF0E0E25EFF4EE491E130D7
:1033A00019F0E33069F0089580916F008D7F80936C
:1033B0006F009091FA02E091FB02F091FC0208C0CC
:1033C0001092B7029091F702E091F802F091F902A1
:1033D0008081282F30E0892F90E08095909582237E
:1033E00093238083089510920303E4E6F0E0808144
:1033F00088608083E5E6F0E08081886080830895BE
:10340000E4E6F0E08081877F8083E5E6F0E080817C
:10341000877F808381E0809303030895603871057E
:1034200018F54034510500F5A42FA695A695A6954C
:10343000B0E047705527B695BA2FAA27B795A7953C
:103440006A0F7B1FFC01E60FF71F81E090E001C0CF
:10345000880F4A95EAF7222319F09489892B03C033
:10346000809594898923848B08952F923F924F925F
:103470005F926F927F928F929F92AF92BF92CF9204
:10348000DF92EF92FF920F931F93CF93DF93CDB70D
:10349000DEB72A970FB6F894DEBF0FBECDBF6A30F5
:1034A00091F4FC01E85EFB4F40813297208131812D
:1034B00058E0459F200D311D112431832083329720
:1034C00011821082C1C06D3009F4BEC09A8789870D
:1034D000885E9B4F9C838B83DC012C90E985FA8569
:1034E000EA5EFB4F60807180E985FA85EC5EFB4FF8
:1034F000FA83E9830081118100381105D4F0AB8192
:10350000BC812C91422F50E0E981FA818081918128
:10351000F6E02F9F800D911D1124A981BA818D9312
:103520009C93E985FA85E75EFB4F208121115EC0FF
:103530008BC0B0E46B16710414F7C801E5E02E9E51
:10354000800D911D112418161906CCF6422C512C11
:10355000C301F8E02F9E800D911D11241816190645
:1035600074F655E0659F900111243F832E83E12C72
:10357000F12C85E0E816F10441F0EE81FF81EE0DBB
:10358000FF1DEE52F54F349001C0312C630138E03D
:10359000932D91709D834801882D801B8215B0F476
:1035A00056018A2D8C19821568F42D81A501B4016C
:1035B00089859A8538870E940E1AAFEFAA1ABA0A2F
:1035C0003885EFCFBFEF8B1A9B0AE6CF3694315088
:1035D000C40CD51C3111DCCFEFEFEE1AFE0A040D3E
:1035E000151DF6E0EF16F10421F689CF6AEF6403AA
:1035F0009001659F300D112420583F4F281739073F
:103600001CF5A985BA85ED91FC9111970190F08187
:10361000E02D6AE0CD012A960FB6F894DEBF0FBE0A
:10362000CDBFDF91CF911F910F91FF90EF90DF9071
:10363000CF90BF90AF909F908F907F906F905F9052
:103640004F903F902F9009942A960FB6F894DEBFC2
:103650000FBECDBFDF91CF911F910F91FF90EF90E3
:10366000DF90CF90BF90AF909F908F907F906F90A2
:103670005F904F903F902F90089581E08093B60225
:10368000E1E8F0E08081887F816080838BE395E3CF
:10369000909389008093880087E190E0A0E0B0E0FB
:1036A0008093B2029093B302A093B402B093B50298
:1036B000EFE6F0E0808182608083089581E080936E
:1036C000B602E1E8F0E08081887F8160808384E059
:1036D00097E4909389008093880088E090E0A0E0D0
:1036E000B0E08093B2029093B302A093B402B0937F
:1036F000B502EFE6F0E08081826080830895682F54
:10370000F999FECF80912307909124079C012F5FA8
:103710003F4F30932407209323070C945A2C8F9209
:103720009F92AF92BF92CF92DF92EF92FF920F9350
:103730001F93CF93DF935C016B018A018091070196
:10374000882309F45EC08091F602882309F459C0E9
:103750008091F40280FF05C08091E0008260809338
:10376000E000E8018AEFF82E93E0E92E2FE3822EA5
:103770003AE3932E209709F43DC08FB7F894E09276
:10378000E9009091E80095FF06C09091F200282D85
:10379000291B922F01C090E08FBF91110AC0FA94AB
:1037A000FF2079F161E070E080E090E00E94261552
:1037B000E1CF292F30E0C217D3070CF49C2F8FB72D
:1037C000F894E092E9002091E80025FF11C0292F2C
:1037D00030E0C21BD30BF601915020F04191409391
:1037E000F100FACFC20ED31E9091E80095FF13C0EE
:1037F0008FBFC0CF5D9884E68093F3021016110648
:1038000044F081E090E0F5019383828380E090E0D2
:1038100005C0C80103C09092E800EACFDF91CF91C4
:103820001F910F91FF90EF90DF90CF90BF90AF90DE
:103830009F908F9008950F931F93CF93DF932091C4
:103840000303222329F1162FEC018091FE02882325
:1038500081F0809122078617D8F000E08091FD0268
:10386000081728F4802F0E94CA190F5FF7CF109213
:10387000FE0210932207D0930203C0930103D0935A
:103880000003C093FF020E94951681E08093FE0220
:10389000DF91CF911F910F910895CF93DF9377FF21
:1038A00006C0460F47FD51C060E070E006C047FD0E
:1038B0004CC0603471050CF048C08038910508F0A8
:1038C00044C09B01240F311D47FD3A952134310539
:1038D00014F040E4461B362F37702FEF032E01C043
:1038E000220F0A94EAF7430F631B710977FF02C0A6
:1038F000695F7F4F33E0759567953A95E1F7769567
:10390000762F662777956795680F791FFB01E85E2C
:10391000FC4F88E090E06FEF70E01416B4F448308C
:1039200064F4DC01A41BB10947FDB395EB0102C0AF
:10393000D595C795AA95E2F72C233081232B2083B8
:103940004850E058FF4F2FEFE8CFDF91CF91089517
:103950000F93CF93DF9397FF06C0480F80E090E06E
:1039600077FD03C009C077FF03C0260F60E070E059
:10397000803891050CF064C027FD62C06034710589
:103980000CF05EC0FC01E40FF11DE138F10514F00C
:1039900040E8481BFB01E20FF11D27FDFA95E134D9
:1039A000F10514F020E4261B562F57703FEF052E2B
:1039B00001C0330F0A94EAF7250F651B710977FFE1
:1039C00002C0695F7F4F53E0759567955A95E1F79F
:1039D0007695762F662777956795680F791F685ECD
:1039E0007C4FA8E0B0E0CFEFD0E012164CF52830C5
:1039F00064F4CD01821B910927FD9395FE0102C05D
:103A0000F595E7958A95E2F73E23002319F0FB012F
:103A1000842F0AC03095FB01842F882361F09081A8
:103A2000932391938150F9CF882329F09081932B90
:103A300091938150F9CF285060587F4F3FEFD5CFF9
:103A4000DF91CF910F910895EF92FF920F931F9303
:103A5000CF93DF93F999FECFC0912307D09124072C
:103A60007E012FEFE21AF20AF0922407E092230778
:103A7000CE010E94522C082F10E0F999FECF229619
:103A8000D0932407C0932307C7010E94522C9801AA
:103A9000382BC901DF91CF911F910F91FF90EF90CB
:103AA0000895CF93DF931F92CDB7DEB799830E941D
:103AB0007F1B9981892F0F90DF91CF910C947F1BF1
:103AC0001F93CF93DF9300D0CDB7DEB7182F862F8B
:103AD00079839A830E947F1B7981872F0E947F1BA5
:103AE000812F0E947F1B9A81892F0F900F90DF9169
:103AF000CF911F910C947F1B2F923F924F925F9218
:103B00006F927F928F929F92AF92BF92CF92DF92ED
:103B1000EF92FF920F931F93CF93DF93CDB7DEB752
:103B200028970FB6F894DEBF0FBECDBF222E312CE2
:103B30009C01220D331D37FD30C1803891050CF0FA
:103B40002CC19B01200F311D37FD27C16034710549
:103B50000CF023C1DB0177FF04C0AA27BB27A61BFB
:103B6000B70BA770BB279B0177FF02C0295F3F4FB0
:103B700013E0359527951A95E1F777FF08C0215096
:103B8000310968E070E05B01AA1ABB0AD501E02F99
:103B9000E695E695E695CE2ED12C077019F00FEF3D
:103BA000C01AD00AB9017695762F66277795679562
:103BB000680F791F5601A20EB31EBC82AB82412C46
:103BC000512CF8E0CF2ED12C86010A1B1B0B1A8337
:103BD0000983AB80BC802A153B0509F4DEC0283080
:103BE000310509F4DAC02F3F1FEF31070CF4CAC0CA
:103BF0003B01E0E86E0E711C8B0108561C4F1E83C2
:103C00000D834C0100E010E0021513050CF0BAC062
:103C1000E0E88E16910409F4B5C097FCA8C02F3FC8
:103C2000FFEF3F0709F4B5C0F801E40DF51DCD80A5
:103C3000DE80C618D708AA24A394E40FF51FEA1063
:103C400013C0E491C60ED71EF0E05F010A2E02C039
:103C5000AA0CBB1C0A94E2F7B886AF82F601B080CA
:103C6000EF81F885EB292BC0E11017C0E491C60E57
:103C7000D71EF0E00A2E02C0EE0FFF1F0A94E2F7F3
:103C80005F01A094B094B886AF82F601A080B12CF9
:103C9000EF81F885AE22BF2213C0E491C60ED71E75
:103CA000F0E05F010A2E02C0AA0CBB1C0A94E2F7E6
:103CB000B886AF82F601B080EF81F885EB255F0111
:103CC000F601A082109709F452C02730310509F49B
:103CD0004EC0F801E40DF51DAA24A394EA1011C00A
:103CE000E40FF51FE491CE2ED12C5601098002C0BD
:103CF000B594A7940A94E2F7ED81FE81D080AD28B7
:103D000035C0CD80DE80C618D708E40FF51FE1105E
:103D100018C0E491C60CD71CAE2EB12C098002C08D
:103D2000B594A7940A94E2F7F501E095F095F88729
:103D3000EF83F601A080B12CEF81F885AE22BF227F
:103D400014C0E491C60CD71CAE2EB12CF50109802D
:103D500002C0F595E7950A94E2F7F887EF83F6013C
:103D6000B080EF81F885EB255F01F601A0820F5F3F
:103D70001F4FED81FE813196FE83ED83FFEF8F1A99
:103D80009F0A42CF2F5F3F4F420C531C60587F4F1A
:103D900020CF109709F09DCFEACF28960FB6F89460
:103DA000DEBF0FBECDBFDF91CF911F910F91FF906E
:103DB000EF90DF90CF90BF90AF909F908F907F90CB
:103DC0006F905F904F903F902F9008958F929F92A9
:103DD000AF92BF920F931F93CF93DF93CDB7DEB710
:103DE000A1970FB6F894DEBF0FBECDBF19A2423027
:103DF00008F44AE08E010F5D1F4F842E912CA12CF8
:103E0000B12CA50194010E949A2CE62FB901CA0198
:103E100001501109EA3014F4E05D01C0E95CD801F9
:103E2000EC93232B242B252B61F7B80184E093E03E
:103E30000E941814A1960FB6F894DEBF0FBECDBF36
:103E4000DF91CF911F910F91BF90AF909F908F9076
:103E5000089520E088E193E0B22FB111BFEFFC019B
:103E60000024B193B193B193B1930394D1F7089522
:103E7000CF93DF939091FD02923009F46EC0C82F6A
:103E8000292F30E0F901E25EFF4ED491F901EF5C99
:103E9000F84F80839F5F9093FD0261E00E942D1494
:103EA000D13019F0D33039F158C0109280001092FF
:103EB00081008091810088608093810080918100E1
:103EC0008160809381008C2F90E0FC01E150F04FE5
:103ED000E491F0E0EE0FFF1FEF50F04F2591349189
:103EE0003093FC022093FB02FC01EE52F04F8491D0
:103EF0008093FA0232C0109290001092910080914B
:103F000091008860809391008091910081608093FE
:103F100091008C2F90E0FC01E150F04FE491F0E033
:103F2000EE0FFF1FEF50F04F259134913093F902BF
:103F30002093F802FC01EE52F04F84918093F70237
:103F40008091FD02882321F06CE380E00E94AA1595
:103F500080E0DF91CF910C94CA19DF91CF91089541
:103F6000FC018091F602811103C08FEF9FEF08954D
:103F70009FB7F89482E08093E9002091F20030E04E
:103F80001216130614F421E030E02115310559F022
:103F9000289884E68093F5028091F10080838091D7
:103FA000F200882319F09FBFC90108958BE6809322
:103FB000E800F9CF8091290781110DC082E080933C
:103FC000250784E080932607109228071092270780
:103FD00081E08093290785E297E00895CF93DF93EE
:103FE0001F92CDB7DEB76983DC01ED91FC910280B1
:103FF000F381E02D41E050E0BE016F5F7F4F0995F6
:104000000F90DF91CF91089583E08093E900809134
:10401000F200882319F08AE38093E8000895FC01F8
:104020008485958597FD0BC09FB7F89482E08093B7
:10403000E9008091F2009FBF90E0019608959FB73C
:10404000F89482E08093E9008091F2009FBF90E0B5
:1040500008954091880750918907209186073091F3
:10406000870742175307B4F49091E8009570E1F385
:104070009091E80092FD19C08093F100809188072B
:104080009091890701968F739927892B19F48EEFE8
:104090008093E8008091880790918907019690931A
:1040A00089078093880781E0089580E00895CF9282
:1040B000DF92EF92FF920F931F93CF93DF931F92A4
:1040C000CDB7DEB7182F062FE42E862F880F8E5F10
:1040D00099830E94292083E00E942920F12EC12E7D
:1040E0009981D92E8C2D8F19801798F4F601E7FE4F
:1040F00002C0849101C080810E942920182F80E095
:104100000E9429208123FFEFCF1ADF0A8111EACF15
:1041100001C081E00F90DF91CF911F910F91FF902F
:10412000EF90DF90CF900895DF92EF92FF920F9380
:104130001F93CF93DF93D82E8A017B01E40EF51EE7
:10414000EB01CE15DF0571F0D7FE03C0FE018491AF
:1041500001C088810E94292021968111F2CF8FEF22
:104160009FEF01C0C801DF91CF911F910F91FF9088
:10417000EF90DF900895615030F02091F100FC0144
:1041800020830196F8CF289884E68093F50208955D
:10419000CF93DF931F92CDB7DEB7FC018485958561
:1041A00097FD05C02FEF3FEF358724870BC0CE0169
:1041B00001960E94B01F019719F4898190E002C016
:1041C0008FEF9FEF0F90DF91CF9108950F931F9383
:1041D000CF93DF931F92CDB7DEB78C01FC018485AE
:1041E000958597FF0EC0CE0101960E94B01F0197E2
:1041F00019F4298130E002C02FEF3FEFF801358735
:104200002487F801848595850F90DF91CF911F91C8
:104210000F9108950F931F93CF93DF931F92CDB704
:10422000DEB782E0898342E450E060E270E180E83A
:104230000E9494200E94DA1FDC0112960D911C91BD
:1042400013970115110569F0D801ED91FC910280D9
:10425000F381E02DBE016F5F7F4FC801099597FF85
:1042600007C089810F90DF91CF911F910F91089521
:10427000F80100851185E5CF1F920F920FB60F92BE
:1042800011248F939F938091E1009091E100937F9F
:104290009093E10083FF0FC01092E90091E09093AA
:1042A000EB001092EC0092E39093ED001092F60276
:1042B00098E09093F00082FF20C093E09093E90093
:1042C0009091F200992319F09AE39093E80090916D
:1042D000F302992339F09091F30291509093F302F5
:1042E000992389F19091F502992339F09091F50283
:1042F00091509093F502992341F184FF10C0809171
:10430000E2008E7E81608093E2008091E1008F7EEA
:104310008093E1008091F4028E7E806111C080FF65
:1043200016C08091E2008E7E80618093E2008091D1
:10433000E1008E7E8093E1008091F4028E7E8160A8
:104340008093F40204C05D9ACDCF289AD6CF9F9176
:104350008F910F900FBE0F901F9018951F920F9284
:104360000FB60F921124CF92DF92EF92FF920F932C
:104370001F932F933F934F935F936F937F938F93ED
:104380009F93AF93BF93EF93FF93CF93DF93CDB7FB
:10439000DEB76C97DEBFCDBF1092E9008091E800D8
:1043A00083FFFAC168E0CE0145960E94BB2082EFF0
:1043B0008093E8008D8987FF05C09091E80090FF09
:1043C000FCCF03C09EEF9093E800982F907609F001
:1043D000C6C09E892F89188D91110CC0803829F490
:1043E000809184078093F10002C01092F100109236
:1043F000F10047C1422F50E0512B913051F481110F
:1044000040C14130510509F03CC1809184078D7F46
:104410000BC0933061F4811134C14130510509F072
:1044200030C1809184078260809384072AC19530CF
:1044300041F48091E80080FFFCCF20682093E300E6
:1044400020C1963009F05FC0EB8CFC8C1092E90023
:104450001092890710928807123091F51092870701
:10446000109286070E940A2199E0BE016F5F7F4F7C
:10447000DB01E92F1D92EA95E9F799831A8391E010
:104480009E8390EA98879AEF9987209188073091C8
:104490008907275F3F4F3C832B838D831092E90070
:1044A0001092890710928807F0928707E09286079A
:1044B00049E050E080E00E9494200E940A21E1C07F
:1044C000F0928707E09286070E94DA1FDC011296BD
:1044D000ED90FC901397E114F10409F4C0C0D701EA
:1044E000ED91FC910480F581E02DBE016B5E7F4F64
:1044F000C7010995009719F00CF0C3C0C6C0F701B9
:10450000E084F184E8CF973009F4BFC0983021F4FB
:1045100081E08093F100B5C0993009F0B2C083709A
:1045200009F0B3C0EFE3F1E081E021E036E39081F0
:10453000992361F08093E9002093EB00919190938F
:10454000EC003093ED008F5F873089F78EE7809322
:10455000EA001092EA008F898093F60292C08B8D58
:104560009C8D1092E9001092890710928807909311
:10457000870780938607898D811156C08E899D8912
:10458000913A59F4813209F080C047E050E060E090
:1045900071E080E00E94942074C0913209F075C0EF
:1045A000833289F4888D90E0982F88272F89822B79
:1045B000A0E0B0E08093080190930901A0930A0164
:1045C000B0930B015EC0803269F48091E80082FFF5
:1045D000FCCF67E080E091E00E94BB208BEF8093EE
:1045E000E80006C0823209F04CC08F898093070131
:1045F00080918307882319F0EEEFFAE002C0E0E033
:10460000F8E08091000190910101A0910201B09128
:104610000301803B9440A105B10509F088C0809159
:10462000070180FFA0C083C00E94DA1FDC01129640
:104630000D911C9113970115110539F1D801ED91D8
:10464000FC910190F081E02DBE016B5E7F4FC801AF
:104650000995811116C0F80100851185ECCF113044
:10466000C1F0133091F48F89882309F455C082304A
:10467000E9F440E860E182E790E10E945720882356
:1046800021F08EEF8093E80087C081E28093EB00F9
:1046900083C08B8D9C8D089711F4109385078091B2
:1046A0008507811136C063E870E138C0813029F494
:1046B00040E86BE086E690E1E0CF833031F70E947E
:1046C000DA1FDC011296ED90FC9013978E010F5FBC
:1046D0001F4F6801E114F10479F0D701ED91FC91CD
:1046E0000680F781E02DB801C7010995080F111D5B
:1046F000F701E084F184EECFD8011C92F60101901D
:104700000020E9F73197BF016C197D0940E0C6012F
:10471000B4CF65E970E102C062E670E16115710530
:1047200009F4B3CFFB01449150E080E833CF0FB6DA
:10473000F894A89580916000886180936000109241
:1047400060000FBEA895EE3F2AE0F20739F0809195
:10475000FE0A9091FF0A9183808393CF1092FF0A03
:104760001092FE0A8ECFEE3F8AE0F80731F080818A
:1047700091819093FF0A8093FE0A87E797E79183E0
:1047800080839BE088E10FB6F894A8958093600041
:104790000FBE9093600075CF6C960FB6F894DEBF95
:1047A0000FBECDBFDF91CF91FF91EF91BF91AF9140
:1047B0009F918F917F916F915F914F913F912F9139
:1047C0001F910F91FF90EF90DF90CF900F900FBE51
:1047D0000F901F901895789484B5826084BD84B53D
:1047E000816084BD85B5826085BD85B5816085BDEC
:1047F00080916E00816080936E00109281008091A4
:10480000810082608093810080918100816080932B
:104810008100809180008160809380008091910070
:1048200082608093910080919100816080939100DB
:10483000809190008160809390008091C10084609D
:104840008093C1008091C10082608093C1008091FB
:10485000C10081608093C1008091C300816080931A
:10486000C3008091C00082608093C0008091C2002C
:1048700081608093C20080917A00846080937A0086
:1048800080917A00826080937A0080917A008160C2
:1048900080937A0080917A00806880937A001092E9
:1048A000F602109284071092F4028091D700816082
:1048B0008093D70080EA8093D80089B5806189BD54
:1048C00089B5826089BD09B400FEFDCF61E070E06A
:1048D00080E090E00E9426158091D8008F7C806156
:1048E0008093D8008091E000807F8093E0008091E9
:1048F000E1008E7E8093E1008DE08093E200559A86
:10490000209AEEEFFFE7859194918B3F9C4D19F42F
:1049100081E080938307CFB7F8948091C40281111E
:1049200027C0E0E1F0E18491E3EEFFE09491E82F0D
:10493000F0E0EE0FFF1FEC51F94FA591B491EC910F
:10494000E92321F461E081E10E943F1361E081E10C
:104950000E942D148CB580618CBD8CB580648CBD9B
:1049600061E08FE00E942D1461E080E10E942D142F
:104970008091C4028F5F8093C402CFBF0CE017E028
:10498000F80184910E5F1F4F31966491882319F0CE
:104990000E942D14F5CF61E086E00E943F1361E094
:1049A00070E080E090E00E94261560E086E00E94C2
:1049B0003F136AE070E080E090E00E94261561E01D
:1049C00086E00E943F13EBE0F0E1E491F0E0EE0FAF
:1049D000FF1FEF50F04F859194919093CA028093FE
:1049E000C902EEEDFFE0E491E093C802E3E0F0E1FC
:1049F000E491F0E0EE0FFF1FEF50F04F859194919E
:104A00009093C7028093C602E6EDFFE0E491E09345
:104A1000C5028CB58C7F8CBD8DB581608DBD0E942B
:104A2000BF1302EF16E0F7E00C301F0739F0F80172
:104A300084910E94EB130F5F1F4FF5CF0E94D71395
:104A40008091640081608093640080916400826042
:104A500080936400809164008068809364008091FA
:104A6000640080648093640080916500816080931D
:104A700065000E94A21387FF21C00E94BF1380E13E
:104A80000E94EB1382E00E94EB130E94D713C0E058
:104A9000D4E080E00E94EB132197D9F760E070E04A
:104AA00089E00E94691460E070E08AE00E94691465
:104AB00060E070E08BE00E946914FFCF85E00E9407
:104AC000381F83E00E94381F1092FE0282E090E0BF
:104AD0000E94522C81110E94001A8CE380930A03D9
:104AE00080E180930D0388E78093B802D6E000E070
:104AF00010E0FF24F3942FB7F8948091CB029091AB
:104B0000CC02A091CD02B091CE022FBF209116030E
:104B1000222391F020910E03382F321B309317037C
:104B200020910B0330910C032F5F3F4F30930C0308
:104B300020930B031092160340911203509113031C
:104B4000609114037091150384179507A607B707A2
:104B50007CF4481B423008F49AC083B7817F83BF3E
:104B600083B7816083BF889583B78E7F83BF8FC0F3
:104B700020910D03AC01BD01420F511D611D711D3E
:104B8000409312035093130360931403709315031F
:104B900080930E0390930F03A0931003B09311031F
:104BA000F092160380912107809320070E94A213A0
:104BB000809321078091CF029091D002D89FF0017D
:104BC000D99FF00D1124EC5EFE4F0280F381E02DA1
:104BD0000995E82E8091CF029091D002D89FF001E4
:104BE000D99FF00D1124EC5EFE4F0480F581E02D7D
:104BF000099580E8C82ED12CC0E0A12CB12C0E94D0
:104C0000BF1380E10E94EB1382E00E94EB138C2F14
:104C1000806B0E94EB130E94D713F501E85EFC4FF6
:104C200080818EBD95012F5F3F4F59012C153D05A9
:104C30004CF4F901E85EFC4F80810DB407FEFDCF16
:104C40008EBDF1CF0DB407FEFDCFCF5F80E8C80E5B
:104C5000D11CC830A1F6EE20D1F08091CF02909106
:104C6000D002019719F081E090E002C082E090E06C
:104C70009093D0028093CF02D89FF001D99FF00D7E
:104C80001124EC5EFE4F0190F081E02D0995011595
:104C9000110509F430CF0E9400002DCFE3E3F7E0C7
:104CA0001382128288EE93E0A0E0B0E084839583C3
:104CB000A683B7838AE291E0918380838FEF9FEF91
:104CC00095878487E4E0F3E0138212828CE3868385
:104CD00080E181871086178216861786108A118ACE
:104CE000128A109219071092180710921B0710923F
:104CF0001A0781E080931C072AE331E03183208387
:104D000080931E0710921F0780E190E09093240784
:104D100080932307089597FB072E16F4009407D07D
:104D200077FD09D00E94A52607FC05D03EF490959A
:104D300081959F4F0895709561957F4F0895EE0F6F
:104D4000FF1F0590F491E02D0994AA1BBB1B51E1B4
:104D500007C0AA1FBB1FA617B70710F0A61BB70BEB
:104D6000881F991F5A95A9F780959095BC01CD0190
:104D700008955058BB27AA270E94D1260C94E027FB
:104D80000E94A72738F00E94AE2720F039F49F3FF9
:104D900019F426F40C94A4270EF4E095E7FB0C9488
:104DA0009E27E92F0E94052858F3BA176207730758
:104DB0008407950720F079F4A6F50C9427280EF4C3
:104DC000E0950B2EBA2FA02D0B01B90190010C011B
:104DD000CA01A0011124FF27591B99F0593F50F433
:104DE000503E68F11A16F040A22F232F342F44278B
:104DF000585FF3CF469537952795A795F040539583
:104E0000C9F77EF41F16BA0B620B730B840BBAF052
:104E10009150A1F0FF0FBB1F661F771F881FC2F7BD
:104E20000EC0BA0F621F731F841F48F487957795D1
:104E30006795B795F7959E3F08F0B0CF9395880F8B
:104E400008F09927EE0F9795879508950E94B72748
:104E5000E3950C94F1270E9432276894B1110C94C9
:104E6000282808950E940D2888F09F5798F0B92FA0
:104E70009927B751B0F0E1F0660F771F881F991F8F
:104E80001AF0BA95C9F714C0B13091F00E942728E2
:104E9000B1E008950C942728672F782F8827B85FF2
:104EA00039F0B93FCCF3869577956795B395D9F7E7
:104EB0003EF490958095709561957F4F8F4F9F4FF1
:104EC0000895E89409C097FB3EF4909580957095FD
:104ED00061957F4F8F4F9F4F9923A9F0F92F96E946
:104EE000BB279395F695879577956795B795F111BB
:104EF000F8CFFAF4BB0F11F460FF1BC06F5F7F4F58
:104F00008F4F9F4F16C0882311F096E911C0772369
:104F100021F09EE8872F762F05C0662371F096E872
:104F2000862F70E060E02AF09A95660F771F881F41
:104F3000DAF7880F9695879597F9089597F99F67FF
:104F400080E870E060E008959FEF80EC0895002411
:104F50000A941616170618060906089500240A94DE
:104F6000121613061406050608950C94A4270E9431
:104F70000D28D8F3E894E0E0BB279F57F0F02AED26
:104F80003FE049EC06C0EE0FBB0F661F771F881F7E
:104F900028F0B23A62077307840728F0B25A620B0E
:104FA000730B840BE3959A9572F7803830F49A95D9
:104FB000BB0F661F771F881FD2F790480C949D285F
:104FC000092E0394000C11F4882352F0BB0F40F417
:104FD000BF2B11F460FF04C06F5F7F4F8F4F9F4F57
:104FE0000895EF93E0FF07C0A2EA2AED3FE049EC05
:104FF0005FEB0E94D1260E94E0270F90039401FCF2
:105000009058E8EEF0E00C94A92857FD9058440F12
:10501000551F59F05F3F71F04795880F97FB991F17
:1050200061F09F3F79F087950895121613061406D4
:10503000551FF2CF4695F1DF08C016161706180661
:10504000991FF1CF86957105610508940895E8943C
:10505000BB2766277727CB0197F908950E9441283F
:105060000C94E0270E94A72738F00E94AE2720F07A
:10507000952311F00C949E270C94A42711240C94D2
:1050800028280E94052870F3959FC1F3950F50E0E2
:10509000551F629FF001729FBB27F00DB11D639FEA
:1050A000AA27F00DB11DAA1F649F6627B00DA11D90
:1050B000661F829F2227B00DA11D621F739FB00D36
:1050C000A11D621F839FA00D611D221F749F3327A6
:1050D000A00D611D231F849F600D211D822F762F3F
:1050E0006A2F11249F5750409AF0F1F088234AF01C
:1050F000EE0FFF1FBB1F661F771F881F9150504088
:10510000A9F79E3F510580F00C949E270C94282807
:105110005F3FE4F3983ED4F3869577956795B7950E
:10512000F795E7959F5FC1F7FE2B880F911D969528
:10513000879597F908959F3F31F0915020F4879516
:1051400077956795B795880F911D9695879597F9EF
:1051500008959F938F937F936F93FF93EF939B019A
:10516000AC010E942E28EF91FF910E94BD282F9143
:105170003F914F915F910C942E28DF93CF931F9313
:105180000F93FF92EF92DF927B018C01689406C02F
:10519000DA2EEF010E944128FE01E894A5912591A5
:1051A000359145915591A6F3EF010E94D126FE015C
:1051B0009701A801DA9469F7DF90EF90FF900F91C3
:1051C0001F91CF91DF91089581E090E0F8940C94C5
:1051D000022DAEE0B0E0EFEEF8E20C94D92C0D8990
:1051E0001E8986E08C831A8309838FEF9FE79E8355
:1051F0008D83AE01475E5F4F6F89788DCE0101963A
:105200000E940C292F813885F801E20FF31F1082CC
:105210002E96E4E00C94F52CACE0B0E0E2E1F9E28B
:105220000C94CB2C7C016B018A01FC011782168245
:10523000838181FFBDC1CE0101964C01F7019381AD
:10524000F60193FD859193FF81916F01882309F405
:10525000ABC1853239F493FD859193FF81916F0144
:10526000853229F4B70190E00E94E92AE7CF512C5A
:10527000312C20E02032A0F48B3269F030F48032FF
:1052800059F0833269F420612CC08D3239F08033BB
:1052900039F4216026C02260246023C0286021C028
:1052A00027FD27C030ED380F3A3078F426FF06C0CE
:1052B000FAE05F9E300D1124532E13C08AE0389E11
:1052C000300D1124332E20620CC08E3221F426FDC5
:1052D0006BC1206406C08C3611F4206802C0883689
:1052E00041F4F60193FD859193FF81916F01811146
:1052F000C1CF982F9F7D9554933028F40C5F1F4F9A
:10530000FFE3F9830DC0833631F0833771F08335C5
:1053100009F05BC022C0F801808189830E5F1F4FB6
:1053200044244394512C540115C03801F2E06F0E0F
:10533000711CF801A080B18026FF03C0652D70E0CC
:1053400002C06FEF7FEFC5012C870E94472C2C0114
:1053500083012C852F77222E17C03801F2E06F0EC3
:10536000711CF801A080B18026FF03C0652D70E09C
:1053700002C06FEF7FEFC5012C870E94DE2A2C014F
:105380002C852068222E830123FC1BC0832D90E0F6
:1053900048165906B0F4B70180E290E00E94E92A6D
:1053A0003A94F4CFF50127FC859127FE81915F01A6
:1053B000B70190E00E94E92A31103A94F1E04F1AC7
:1053C00051084114510471F7E5C0843611F0893653
:1053D00039F5F80127FF07C06081718182819381CF
:1053E0000C5F1F4F08C060817181072E000C880B75
:1053F000990B0E5F1F4F2F76722E97FF09C0909565
:105400008095709561957F4F8F4F9F4F2068722ECA
:105410002AE030E0A4010E94212BA82EA81844C045
:10542000853729F42F7EB22E2AE030E025C0F22FF6
:10543000F97FBF2E8F36C1F018F4883579F0B4C0EB
:10544000803719F0883721F0AFC02F2F2061B22E9E
:10545000B4FE0DC08B2D8460B82E09C024FF0AC095
:105460009F2F9660B92E06C028E030E005C020E1ED
:1054700030E002C020E132E0F801B7FE07C06081F1
:105480007181828193810C5F1F4F06C060817181A1
:1054900080E090E00E5F1F4FA4010E94212BA82EF8
:1054A000A818FB2DFF777F2E76FE0BC0372D3E7F91
:1054B000A51450F474FE0AC072FC08C0372D3E7E5D
:1054C00005C0BA2C372D03C0BA2C01C0B52C34FF4F
:1054D0000DC0FE01EA0DF11D8081803311F4397E8B
:1054E00009C032FF06C0B394B39404C0832F8678FA
:1054F00009F0B39433FD13C030FF06C05A2CB31427
:1055000018F4530C5B18B32CB31468F4B70180E2A1
:1055100090E03C870E94E92AB3943C85F5CFB31410
:1055200010F43B1801C0312C34FF12C0B70180E3E6
:1055300090E03C870E94E92A3C8532FF17C031FD8C
:1055400003C088E790E002C088E590E0B7010CC096
:10555000832F867859F031FF02C08BE201C080E2D0
:1055600037FD8DE2B70190E00E94E92AA51438F4D6
:10557000B70180E390E00E94E92A5A94F7CFAA94F9
:10558000F401EA0DF11D8081B70190E00E94E92A43
:10559000A110F5CF332009F451CEB70180E290E09D
:1055A0000E94E92A3A94F6CFF7018681978102C0DA
:1055B0008FEF9FEF2C96E2E10C94E72CFC01059015
:1055C000615070400110D8F7809590958E0F9F1F05
:1055D00008950F931F93CF93DF93FB01238121FD48
:1055E00003C08FEF9FEF28C022FF16C0468157816E
:1055F000248135814217530744F4A081B1819D0174
:105600002F5F3F4F318320838C93268137812F5F1B
:105610003F4F3783268310C0EB01092F182F0084DA
:10562000F185E02D0995892BE1F68E819F81019608
:105630009F838E83812F902FDF91CF911F910F91A8
:105640000895FA01AA27283051F1203181F1E89418
:105650006F936E7F6E5F7F4F8F4F9F4FAF4FB1E065
:105660003ED0B4E03CD0670F781F891F9A1FA11D60
:10567000680F791F8A1F911DA11D6A0F711D811D61
:10568000911DA11D20D009F468943F912AE0269F26
:1056900011243019305D3193DEF6CF010895462F85
:1056A0004770405D4193B3E00FD0C9F7F6CF462F66
:1056B0004F70405D4A3318F0495D31FD40524193CF
:1056C00002D0A9F7EACFB4E0A6959795879577958C
:1056D0006795BA95C9F700976105710508959B0113
:1056E000AC010A2E06945795479537952795BA959C
:1056F000C9F7620F731F841F951FA01D08958F9215
:105700009F92AF92BF92CF92DF92EF92FF92CF9390
:10571000DF93EC01688179818A819B816115710534
:105720008105910521F464E279ED8BE597E02DE1A7
:1057300033EF41E050E00E94682C49015A019B017F
:10574000AC01A7EAB1E40E94872C6B017C01ACEEAE
:10575000B4EFA50194010E94952CDC01CB018C0DC6
:105760009D1DAE1DBF1DB7FF03C00197A109B04825
:1057700088839983AA83BB839F77DF91CF91FF9022
:10578000EF90DF90CF90BF90AF909F908F90089553
:105790000E947F2B08958CE091E00E947F2B08955A
:1057A000A0E0B0E080930C0190930D01A0930E0156
:1057B000B0930F0108958F929F92AF92BF92CF92B4
:1057C000DF92EF92FF92CF93DF93EC0168817981B2
:1057D0008A819B81611571058105910521F464E23F
:1057E00079ED8BE597E02DE133EF41E050E00E9449
:1057F000682C49015A019B01AC01A7EAB1E40E945F
:10580000872C6B017C01ACEEB4EFA50194010E94E2
:10581000952CDC01CB018C0D9D1DAE1DBF1DB7FF6E
:1058200003C00197A109B04888839983AA83BB83E9
:10583000BC01CD019F77DF91CF91FF90EF90DF907A
:10584000CF90BF90AF909F908F9008950E94DB2BD8
:10585000089580E191E00E94DB2B08956093100190
:105860007093110180931201909313010895FB012D
:10587000DC0102C005900D9241505040D8F70895C8
:10588000FB01DC0105900D920020E1F70895FC0179
:105890006150704001900110D8F7809590958E0F5F
:1058A0009F1F0895F999FECF92BD81BDF89A99275F
:1058B00080B50895262FF999FECF1FBA92BD81BDFC
:1058C00020BD0FB6F894FA9AF99A0FBE0196089582
:1058D000052E97FB1EF400940E947F2C57FD07D0E5
:1058E0000E949A2C07FC03D04EF40C947F2C509508
:1058F0004095309521953F4F4F4F5F4F08959095BC
:105900008095709561957F4F8F4F9F4F08950E94AE
:10591000BC2CA59F900DB49F900DA49F800D911D50
:1059200011240895B7FF0C94872C0E94872C821BAA
:10593000930B0895A1E21A2EAA1BBB1BFD010DC0FB
:10594000AA1FBB1FEE1FFF1FA217B307E407F5072F
:1059500020F0A21BB30BE40BF50B661F771F881F0B
:10596000991F1A9469F760957095809590959B01A1
:10597000AC01BD01CF010895A29FB001B39FC0014A
:10598000A39F700D811D1124911DB29F700D811D6B
:105990001124911D08952F923F924F925F926F9222
:1059A0007F928F929F92AF92BF92CF92DF92EF92AF
:1059B000FF920F931F93CF93DF93CDB7DEB7CA1B30
:1059C000DB0B0FB6F894DEBF0FBECDBF09942A885B
:1059D000398848885F846E847D848C849B84AA8403
:1059E000B984C884DF80EE80FD800C811B81AA8190
:1059F000B981CE0FD11D0FB6F894DEBF0FBECDBF5B
:085A0000ED010895F894FFCFB9
:105A080000E1000000000000FFFFFFFF01000000B0
:105A1800010000007F084E0BE60AFB091C0960170D
:105A2800B70F1110DC0C00000000EE1F8F1B0F20B9
:105A3800C820E620042000000000940B141300C1C5
:105A4800808100000025356400272530326422005B
:00000001FF
