:100000000C9421070C9449070C9449070C94490758
:100010000C9449070C9449070C9449070C94490720
:100020000C9449070C9449070C94D4190C94461A63
:100030000C9449070C9449070C9449070C94490700
:100040000C9449070C9449070C9449070C944907F0
:100050000C9449070C9449070C9449070C943715E4
:100060000C9449070C9449070C9449070C944907D0
:100070000C9449070C9449070C9449070C944907C0
:100080000C942F160C9449070C9449070C944907BB
:100090000C9449070C9449070C9449070C944907A0
:1000A0000C9449070C9449070C944907E8291D2A28
:1000B000DE2B4C2A812AC52ADE2B672B9E2B4D1462
:1000C00050143F14431447147114711471145414D0
:1000D00058145C146214661471146C140800000047
:1000E000BE922449123EABAAAA2ABECDCCCC4C3E2D
:1000F00000000080BEABAAAAAA3E00000000BF001C
:100100000000803F0000000000084178D3BB438717
:10011000D1133D190E3CC3BD4282AD2B3E68EC822B
:1001200076BED98FE1A93E4C80EFFFBE01C4FF7FB0
:100130003F000000000000000000240027002A000B
:100140002D003000AED580A83FD300408D14200292
:10015000A1C8DA1281CFD9F1DB402EA4A6AF0408E2
:1001600002011040804010204080408008020401BD
:10017000804020100201108010204040200000002C
:1001800000250028002B002E003100040404040484
:10019000030405020202020403020202020606062A
:1001A00006060604040202020404140213021202E8
:1001B000150207020802090209010A020A010B02DC
:1001C0000B0104010C01060100F0F89C8E87838767
:1001D0008E9CF8F00000FEFF0303030303070EFCF0
:1001E000F80000FEFF0303030303070EFCF8000002
:1001F000FFFF00000000000000FFFF0000FEFF8383
:1002000083838383C7EE7C380000F8FC0E0703036A
:1002100003070EFCF800003F7FE0C08080C0E07F55
:100220003FFFFF01010101010101FFFF0000FFFF8E
:100230000C0C0C0C1C3E77E3C100007FFFC0C0C05B
:10024000C0C0E0703F1F00001F3F70E0C0C0C0E0B2
:10025000703F1F00007FFFC1C1C1C1C1E3773E1CD9
:1002600000001F3F70E0C0C0C0E0703F1F000000F2
:10027000000001FFFF01000000000000000000007E
:100280000000000000000000000007FFFFFFFFFF6C
:10029000FFFFFFFFFFFFFFF0000007FFFFFFFFFF73
:1002A000FFFFFFFFFFFFFFF0000007C00B4017003C
:1002B00007C007F801780170000007400FC01F80D9
:1002C0000BA007F401F80370100007400FC017805F
:1002D0000BA005F801F803F0000007400FC03F80B5
:1002E0000BA007E801E806F0000007400FC03F80C0
:1002F0000BA007F001E807F00000071863C00F101B
:1003000043A007C001E821F0800007FFFF7FF3EF63
:100310009F9FFDDFFF6FDFF0800007E85F4007E091
:100320003FC001C001781FF0000007EFDF7FF7CF6B
:100330009F9FFDBFFF6FDFF0000087E85F4007E091
:100340003FC00D8001781FF0040007F87FC3F3D091
:100350005FA07B0081E83FF0000007407FC03FD0F6
:100360005FA0BE81E1E805F0000007407FC00FD02C
:100370005FA0BF02E1E803F0000007407FC01FD08C
:100380005FA0BD03E1E802F0000007407FC017D086
:100390005FA0BE07E1E801F00000073FDFBFFFDF1D
:1003A000DFBFB9F5DEFFFE70200007007F0003C04D
:1003B0001F80380380780070000807FFFFFFFFFFF1
:1003C000FFFFFFFFFFFFFFF0000007FFFFFFFFFF42
:1003D000FFFFFFFFFFFFFFF0000000000000000034
:1003E0000000000000000000040000000000000009
:1003F00000000000000000004000000000000000BD
:1004000000200000000000000000000000080008BC
:1004100000000002000100000000000000100000C9
:100420000000000000400000000040020010040036
:10043000C000030070000103000000000408000079
:10044000C0020700D801E005000000000A0000011A
:10045000608007809800700D80000000040001C3D8
:1004600060001B813407B40984000080000003424F
:1004700060003AE22C077431800001C0000005CC16
:10048000D000D9F42A077461400003E0000209D8C3
:10049000B81F35E82B83E603C00806E0300015E0FE
:1004A000BFE0257427C00603A00005D0580025E052
:1004B000AE0044F42781EA03600009B09C00E5F037
:1004C0009F0044B4228B2E02F0001159160385F0D0
:1004D0009700846A218B2A03F8FF9FFF9FF9FFCFC3
:1004E000FE7F9F9F9F9C2E0058FF9FFF9FF9FFCF8D
:1004F000FE7F9F9F9F83DA002C00425C0B8005EEFD
:100500002686043C0001DE007C00824E0DC004F70C
:1005100015C0083B081FBC087601822F07E0047F46
:1005200083E0082F041F9408DD01042F83F0043FAB
:1005300041F0102D84182A08FF02083781F8021FA5
:10054000C1DC102EC2003E09D7061817C0FE021FDC
:10055000E0BF0017C33800001704101BA07F010B79
:10056000E04EC00BE1382A040B08210FD03FC187B1
:10057000F037F00DD00044041F084109F81FB08384
:10058000F8197807F80014041F104105F80FFC4013
:10059000FC069602F800280434106102FC07EE20E5
:1005A0007F01FD817400028462202101BA027BA0D8
:1005B0007F80FE40BA00140441602100DD01FEE0AE
:1005C0007FC03FB07E1C0004004021105FC07FF858
:1005D0002BE01DD83D010004208041102DE01FE4D8
:1005E00026F01EFC0FC08004208081082EF007BE7C
:1005F0001F680F7E077040082001020816F8076E7A
:100600000FBC06B300982308400204080B7C13B308
:1006100003940148C0660180440400000BEE09DF2A
:10062000006600CFF03180408400000000F70C2B02
:1006300080330067181FC0B0840000000012061C41
:10064000400DC01300046008840000000008020C84
:100650000000000D00003C0600000000000001004A
:100660000000000680000003000000000000000001
:100670000000000000000000000C3A56BC5AAC36E6
:100680000C147EA876DCB65A14FF1F407F7F401FF3
:10069000FFE38E39FFFF388CE3C0B04CFFFF0C3016
:1006A000C0CFF0DF3A3FDFFFCFFA0DFAADFAFDFA27
:1006B000FF80F088F7FFF8F080FC423F1C0F7FF0CE
:1006C0000F0000FF24DBFF00FF0000F8D6FFFF0251
:1006D000FCFF1F647B7B641FFFE0F00FFFFF0FF048
:1006E000E000006E6F6F6E0000426F7E0DAD46B889
:1006F0005F426F7E0D4DA6589F426F7E0D2D46982E
:100700005F5FB846AD0D7E6F429F58A64D0D7E6F60
:10071000425F98462D0D7E6F4282C3E23D3DB6D8C2
:100720009F0283C2FDBDE6D81F020382DDDD0618ED
:100730001F00800ADADE8C70F89FD8B63D3DE2C318
:10074000821FD8E6BDFDC283021F1806DDDD8203CD
:1007500002F8708CDEDA0A80000204030705020B3F
:1007600003030000C0410000C041000070420000CF
:1007700000420000984200005C4206030F0F07038E
:100780000F06E0E0EE0EEEE0E00060D0F66D7FD602
:10079000F06080E098869EF8E08070C8E4F4F4F49D
:1007A000F870000000000000000018346EEEEE6EDD
:1007B00034187EFFC1F5F5FDFF7E6CFEB97B7FB975
:1007C000FA6C2070D8FCDCF850202050F8DCFCD803
:1007D000702024243C7E6666BD9999BD66667E3C89
:1007E000242410287CAA7C28100020B0A8F8F8B88F
:1007F000BC1E1EBCB8F8F8A8B0201C32797D7F7FE3
:100800003E1C3C72F9FDFFFF7E3C1C766AF776EBDE
:10081000763C3C76EB76F76A361C1C267B5D773E91
:100820002A551C267B5D773E552A552A3E775D7BEF
:10083000261C2A553E775D7B261C004062186C18EA
:100840001408340A54AC60B100000200451A3D049B
:10085000AA041029142A160D4210000030D868ECA2
:10086000F85CDCE87CD8F020000000000B143F2985
:1008700036173B1F2F121E0B0000306C74BA6A7EB5
:100880004C300101010101010101010101010000E0
:1008900000001088FE7D7DFE881000000000003EF4
:1008A0005B4F5B3E3E6B4F6B3E1C3E7C3E1C183CE0
:1008B0007E3C181C577D571C1C5E7F5E1C00183C3C
:1008C0001800FFE7C3E7FF0018241800FFE7DBE785
:1008D000FF30483A060E2629792926407F0505076C
:1008E000407F05253F5A3CE73C5A7F3E1C1C0808C8
:1008F0001C1C3E7F14227F22145F5F005F5F06098D
:100900007F017F006689956A606060606094A2FFE5
:10091000A29408047E040810207E201008082A1CD7
:1009200008081C2A08081E101010100C1E0C1E0CA3
:1009300030383E3830060E3E0E0600000000000043
:10094000005F00000007000700147F147F14242AB2
:100950007F2A122313086462364956205000080784
:100960000300001C2241000041221C002A1C7F1CA5
:100970002A08083E080800807030000808080808A7
:10098000000060600020100804023E5149453E000E
:10099000427F400072494949462141494D3318146C
:1009A000127F1027454545393C4A494931412111BB
:1009B00009073649494936464949291E00001400AD
:1009C00000004034000000081422411414141414D0
:1009D000004122140802015909063E415D594E7C2E
:1009E0001211127C7F494949363E414141227F41E3
:1009F00041413E7F494949417F090909013E414141
:100A000051737F0808087F00417F41002040413F2B
:100A1000017F081422417F404040407F021C027F3A
:100A20007F0408107F3E4141413E7F090909063E8F
:100A30004151215E7F09192946264949493203015E
:100A40007F01033F4040403F1F2040201F3F403870
:100A5000403F631408146303047804036159494D4B
:100A600043007F4141410204081020004141417F81
:100A700004020102044040404040000307080020F7
:100A8000545478407F2844443838444444283844F7
:100A900044287F385454541800087E090218A4A42E
:100AA0009C787F0804047800447D40002040403D4D
:100AB000007F1028440000417F40007C04780478C7
:100AC0007C080404783844444438FC18242418185A
:100AD000242418FC7C0804040848545454240404B6
:100AE0003F44243C4040207C1C2040201C3C4030A3
:100AF000403C44281028444C9090907C4464544CD2
:100B0000440008364100000077000000413608002C
:100B100002010204023C2623263C1EA1A161123AD6
:100B20004040207A38545455592155557941215423
:100B3000547841215554784020545579400C1E5228
:100B400072123955555559395454545939555454CC
:100B5000580000457C410002457D420001457C4033
:100B6000F0292429F0F0282528F07C545545002050
:100B700054547C547C0A097F4932494949323248ED
:100B8000484832324A4848303A4141217A3A424054
:100B90002078009DA0A07D39444444393D40404028
:100BA0003D3C24FF2424487E4943662B2FFC2F2BF9
:100BB000FF0929F620C0887E09032054547941009A
:100BC00000447D413048484A32384040227A007A19
:100BD0000A0A727D0D19317D2629292F28262929F7
:100BE000292630484D402038080808080808080819
:100BF000382F10C8ACBA2F102834FA00007B000040
:100C000008142A142222142A14089500220095AAF6
:100C1000005500AAAA55AA55AA000000FF0010100E
:100C200010FF00141414FF001010FF00FF1010F04C
:100C300010F0141414FC001414F700FF0000FF005F
:100C4000FF1414F404FC141417101F10101F101FAD
:100C50001414141F00101010F0000000001F1010DA
:100C600010101F10101010F010000000FF101010D6
:100C7000101010101010FF10000000FF140000FFF3
:100C800000FF00001F10170000FC04F414141710DC
:100C9000171414F404F40000FF00F71414141414CF
:100CA0001414F700F7141414171410101F101F1445
:100CB0001414F4141010F010F000001F101F0000A6
:100CC000001F14000000FC140000F010F01010FFD2
:100CD00010FF141414FF141010101F00000000F077
:100CE00010FFFFFFFFFFF0F0F0F0F0FFFFFF00004C
:100CF000000000FFFF0F0F0F0F0F38444438447CF3
:100D00002A2A3E147E02020606027E027E026355F5
:100D10004941633844443C04407E201E2006027E44
:100D2000020299A5E7A5991C2A492A1C4C72017256
:100D30004C304A4D4D303048784830BC625A463DC0
:100D40003E494949007E0101017E2A2A2A2A2A4475
:100D5000445F444440514A444040444A51400000AA
:100D6000FF0103E080FF000008086B6B08361236B5
:100D70002436060F090F0600001818000000101096
:100D8000003040FF0101001F01011E00191D171254
:100D9000003C3C3C3C000000000000000002000958
:100DA0000F0000030401000C000000000000000020
:100DB000000000000000000000080B000202020119
:100DC00000090400000102020000052400100105D2
:100DD00024010101042402060524060001070581FF
:100DE0000310004009040100020A00000007050288
:100DF000024000000705830240000004030904418B
:100E0000726475696E6F204C4C4300417264756961
:100E10006E6F204C656F6E6172646F00120100028C
:100E2000000000404123368000010102030112014D
:100E30000002EF020140412336800001010203015C
:100E4000B43011241FBECFEFDAE0DEBFCDBF28E003
:100E5000A6EAB1E001C01D92A732B207E1F711E0A6
:100E6000A0E0B1E0ECE7F9E602C005900D92A63AE9
:100E7000B107D9F717E0C1E2D7E004C02197FE011E
:100E80000E943931C032D107C9F70E94831C0C94EB
:100E9000BC340C940000CF92DF92EF92FF92CF937C
:100EA000DF93C9E1D0E084E6C82ED12CE12CF12CEF
:100EB00061E082E00E94221460E085E00E9422143A
:100EC0000E943534A70196010E945934CB010E943B
:100ED000C11460E082E00E94221461E085E00E947B
:100EE00022140E943534A70196010E945934CB0187
:100EF0000E94C1142197E1F6DF91CF91FF90EF900E
:100F0000DF90CF900895CF92DF92EF92FF920F93F0
:100F10001F93CF93DF93CDE6D2E08FE6C82E82E019
:100F2000D82E9EE6E92E92E0F92E8881882309F4D6
:100F30004BC0823079F08330D1F0813039F5F60141
:100F4000608170E0F701808108E028E04AE758E01E
:100F500090E01AC0F601608170E064507109F701F9
:100F6000808190E000E120E14AE558E00CC0F60104
:100F7000608170E064507109F701808190E000E1C8
:100F800020E14AE358E004970E94A3110E942B1528
:100F90000B811C812D813E81DC01CB01801B910BDB
:100FA000A20BB30B85369105A105B10568F08881C8
:100FB0008F5F843010F4888301C018820E942B1543
:100FC0006B837C838D839E832796F7E0CF0ED11CA5
:100FD00087E0E80EF11CE2E0CC3ADE0709F0A5CF8D
:100FE000DF91CF911F910F91FF90EF90DF90CF9005
:100FF00008953F924F925F926F927F928F929F924D
:10100000AF92BF92CF92DF92EF92FF920F931F9316
:10101000CF93DF9300D000D000D0CDB7DEB710E083
:10102000412C512C20EA622E21EC722E80910F016E
:10103000181708F015C381E1189FF0011124EB5433
:10104000FD4FC080D180E280F38084809580A680AF
:10105000B78030888091B40281112BC080916603E3
:10106000332041F080FF03C04AE258E00AC042E367
:1010700058E007C080FF03C04AE158E002C042E2E6
:1010800058E0C501B4014D835E830E94B13169838C
:101090007A838B839C83C701B6010E94B131DC0146
:1010A000CB0108E028E04D815E8169817A810E9450
:1010B000A3118091B402813009F58091660380FF0D
:1010C00003C04AE058E002C042E158E0C501B40163
:1010D0004D835E830E94B13169837A838B839C83C5
:1010E000C701B6010E94B131DC01CB0108E028E064
:1010F0004D815E8169817A810E94A3118091B40241
:10110000823009F58091660380FF03C04AEF57E003
:1011100002C042E058E0C501B4014D835E830E94E5
:10112000B13169837A838B839C83C701B6010E94A6
:10113000B131DC01CB0108E028E04D815E8169819D
:101140007A810E94A3118091B402833049F5C501D0
:10115000B401332089F00E94B13169837A838B8393
:101160009C83C701B6010E94B131DC01CB0108E0CC
:1011700028E042EF57E010C00E94B13169837A83C2
:101180008B839C83C701B6010E94B131DC01CB0186
:1011900008E028E04AEE57E069817A810E94A311B5
:1011A0008091B4028430B1F4C501B4010E94B13120
:1011B00069837A838B839C83C701B6010E94B13116
:1011C000DC01CB0108E028E042EE57E069817A813A
:1011D0000E94A3118091B402853049F5C501B40184
:1011E000332089F00E94B13169837A838B839C8399
:1011F000C701B6010E94B131DC01CB0108E028E053
:101200004AED57E010C00E94B13169837A838B8325
:101210009C83C701B6010E94B131DC01CB0108E01B
:1012200028E042ED57E069817A810E94A311809104
:10123000B402863009F58091660380FF03C042EC5A
:1012400057E002C04AEC57E0C501B4014D835E830C
:101250000E94B13169837A838B839C83C701B60175
:101260000E94B131DC01CB0108E028E04D815E81B4
:1012700069817A810E94A3118091B402873099F428
:10128000C501B4010E94B1314B015C01C701B60137
:101290000E94B131DC01CB0108E028E04AEB57E0C5
:1012A000B4010E94A3116091030170910401809127
:1012B0000501909106010E94B1316B017C016091A2
:1012C0005E0270915F0280916002909161020E94C3
:1012D000B131DC01CB0108E028E042EB57E0B60178
:1012E0000E94A3118091AD01813009F475C0E8F12D
:1012F000823009F4A8C0833009F0DFC06091620237
:101300007091630280916402909165020E94B131F4
:101310003091660208E028E049E956E0832F90E02A
:101320000E94A311609168027091690280916A0223
:1013300090916B020E94B13130916C0228E041E93A
:1013400056E0832F90E00E94A3116091AE0170914E
:10135000AF018091B0019091B1010E94B131309103
:10136000670228E049E856E0A4C0609162027091EB
:10137000630280916402909165020E94B1313091C4
:10138000660208E028E041EE56E0832F90E00E94DC
:10139000A311609168027091690280916A02909134
:1013A0006B020E94B13130916C0228E049ED56E0A9
:1013B000832F90E00E94A3116091AE017091AF0164
:1013C0008091B0019091B1010E94B13130916702DA
:1013D00028E041ED56E06DC06091620270916302B9
:1013E00080916402909165020E94B1313091660251
:1013F00008E028E049EC56E0832F90E00E94A3111A
:10140000609168027091690280916A0290916B020A
:101410000E94B13130916C0228E041EC56E0832FFC
:1014200090E00E94A3116091AE017091AF01809194
:10143000B0019091B1010E94B1313091670228E072
:1014400049EB56E036C06091620270916302809170
:101450006402909165020E94B1313091660208E009
:1014600028E041EB56E0832F90E00E94A3116091A9
:1014700068027091690280916A0290916B020E94E9
:10148000B13130916C0228E049EA56E0832F90E0B8
:101490000E94A3116091AE017091AF018091B001E3
:1014A0009091B1010E94B1313091670228E041EA88
:1014B00056E0832F90E00E94A311809167038B3048
:1014C00009F07DC08091660380FF05C099E7E92E91
:1014D00096E0F92E04C081E8E82E86E0F82E20E0A0
:1014E00030E040E051E46091AE017091AF01809135
:1014F000B0019091B1010E9440310E94B131309110
:10150000670208E028E0A701832F90E00E94A31162
:101510002DEC3CEC4CE45EE360916202709163025E
:1015200080916402909165020E943F316093620253
:101530007093630280936402909365022DEC3CECFF
:101540004CE45EE3609168027091690280916A02E6
:1015500090916B020E943F31609368027093690220
:1015600080936A0290936B022DEC3CEC4CE45EE3BA
:101570006091AE017091AF018091B0019091B10185
:101580000E943F316093AE017093AF018093B00130
:101590009093B101409207015092080160920901B5
:1015A00070920A0120E030E040E051EC0E94AC3142
:1015B00087FF03C083E0809310010E944B07809156
:1015C0006503882309F44AC080915F038230C9F023
:1015D00028F4882341F0813069F040C08330C1F0A5
:1015E0008430E9F03BC08091660380FD1CC04AEA6C
:1015F00057E01EC08091660380FD15C04AE957E0A0
:1016000017C08091660380FD0EC042E957E010C00C
:101610008091660380FD07C04AE857E009C08091C9
:10162000660380FF03C042EA57E002C042E857E089
:1016300060916003709161038091620390916303F4
:101640004D835E830E94B1313091640308E028E04D
:101650004D815E81832F90E00E94A3111F5FE6CC35
:1016600026960FB6F894DEBF0FBECDBFDF91CF91A7
:101670001F910F91FF90EF90DF90CF90BF90AF90B0
:101680009F908F907F906F905F904F903F900895C4
:10169000CF92DF92EF92FF920F931F93CF93DF933E
:1016A000C9E5D7E0FE0132961491E12CF12C6E01D0
:1016B0002FEFC21AD20AE116D0F4FE0184919701ED
:1016C000280F311DC901F6016491660F660F660F80
:1016D00070E0880F880F880F08E028E04AE757E09D
:1016E00090E00E94A311FFEFEF1AFF0AE4CF2396C8
:1016F00027E0C236D207B1F6DF91CF911F910F914B
:10170000FF90EF90DF90CF900895E2E6F7E06591CB
:101710007591859194910E94B83160936602E6E6D6
:10172000F7E085919591A591B49180936202909391
:101730006302A0936402B0936502EAE6F7E0659164
:101740007591859194910E94B83160936C02EEE698
:10175000F7E085919591A591B4918093680290935B
:101760006902A0936A02B0936B02E2E7F7E0659129
:101770007591859194910E94B83160936702E6E774
:10178000F7E085919591A591B4918093AE019093E6
:10179000AF01A093B001B093B101089581E08093AF
:1017A000100140E050E060E772E440930B01509379
:1017B0000C0160930D0170930E0140E050E06CE36A
:1017C00072E44093070150930801609309017093FC
:1017D0000A018093020110925A0210925B02109249
:1017E0005C0210925D021092560210925702109203
:1017F00058021092590280E090E027E0289FF00103
:10180000299FF00D1124E359FD4FDF01322F1D9266
:101810003A95E9F701968930910581F780E090E0EB
:1018200028E0FC0133E0EE0FFF1F3A95E1F7EA54A0
:10183000FE4FDF01322F1D923A95E9F70196833171
:10184000910579F708950E94353422E030E040E0B8
:1018500050E00E945934672B682B692B69F00E9475
:10186000353420E330E040E050E00E945934605FBE
:101870007F4F8F4F9F4F0CC00E94353420E130E0E6
:1018800040E050E00E945934685A7F4F8F4F9F4F7D
:101890000E94E93108950E9435346DEC7CEC8CE4B3
:1018A0009EEB0895CF93C0910F010E94353445E01F
:1018B000C49F90011124265A3F4F032E000C440B65
:1018C000550B0E94593424E630E040E050E00E947D
:1018D0005934CA01B9010E94E9312AE939E949E1DB
:1018E0005EE30E944031CF9108950E94353420E399
:1018F00030E040E050E00E945934685F7F4F8F4FE6
:101900009F4F0E94E93108950E94353420E430E071
:1019100040E050E00E94593460587F4F8F4F9F4FF6
:101920000E94E93108950E94353420E430E040E01F
:1019300050E00E94593490958095709561957F4F45
:101940008F4F9F4F0E94E93108952F923F924F92FF
:101950005F926F927F928F929F92AF92BF92CF923F
:10196000DF92EF92FF920F931F93CF93DF93CDB748
:10197000DEB763970FB6F894DEBF0FBECDBF88EB1E
:10198000C82E81E0D82E26EB31E03B8B2A8B99EBD9
:10199000292E91E0392E47EB51E05A834983F60115
:1019A000E080EE2009F45AC1EB82FE2DF93010F0F0
:1019B00028E02B83612C712C10E0F60180818530AA
:1019C000F8F01430E8F4E981FA81608170E0EA8986
:1019D000FB89808190E0F1012081211103C02FEF6C
:1019E0003FEF02C021E030E0629EF001639EF00D07
:1019F000729EF00D112408E028E04AE858E01CC06F
:101A0000E981FA81608170E0EA89FB89808190E058
:101A1000F1012081211103C02FEF3FEF02C021E02F
:101A200030E0629EF001639EF00D729EF00D112475
:101A300008E028E042E858E08E0F9F1F0E94A311A3
:101A4000E981FA81E080EA89FB899081F101808156
:101A5000811102C08FEF01C081E0869D900D11249D
:101A60009C8300E04E2C512C292F30E0388B2F879F
:101A700080910F01081708F0B8C0402F50E05E8336
:101A80004D8381E1849FF001859FF00D1124EB547B
:101A9000FD4F80809180A280B380648175818681B2
:101AA00097810E94B831F62EE61608F49CC0862F66
:101AB00090E00796841595050CF495C0C501B40116
:101AC0000E94B8319C81961708F48DC0862F90E053
:101AD0000796EF85F8898E179F070CF484C0E09174
:101AE000B30287E08E9FF0011124E359FD4F91E08E
:101AF0009083698B0E944B070E944B07A090B30212
:101B0000E7E0EA9DC00111249C0123593D4F590192
:101B10006989F9016183F2820E942B15F5016383C3
:101B20007483858396838091B3028F5F8A3008F433
:101B3000C9C01092B3028091B2019091B301A091FB
:101B4000B401B091B5014996A11DB11D8093B201B8
:101B50009093B301A093B401B093B5010E943534C2
:101B600022E030E040E050E00E945934FF24F3943A
:101B7000672B682B692B09F0A2C0F12C0E94930CF3
:101B80004B015C010E94750C6F83788789879A8767
:101B90000E94520C6B877C878D879E870E944B0C1E
:101BA00041E12D813E81429FF001439FF00D1124C0
:101BB000EB54FD4F80829182A282B3822F813885BF
:101BC00049855A8524833583468357832B853C85F5
:101BD0004D855E8520873187428753876487758767
:101BE00086879787F08A0F5F43CF1F5F38E0630EC9
:101BF000711C4B811413E1CE0E942B15EA89FB89DD
:101C00000481158126813781DC01CB01801B910B7A
:101C1000A20BB30B4597A105B10500F1F601808138
:101C20008F5F8083893090F0EA89FB899081F10190
:101C30002081211102C028EF01C028E0920FEA891B
:101C4000FB899083813110F0F60110820E942B15E0
:101C5000EA89FB896483758386839783F8E0CF0ED6
:101C6000D11C2A893B89285F3F4F3B8B2A8B38E068
:101C7000230E311C49815A81485F5F4F5A83498343
:101C800058E5C51652E0D50609F089CE63960FB621
:101C9000F894DEBF0FBECDBFDF91CF911F910F91A2
:101CA000FF90EF90DF90CF90BF90AF909F908F907C
:101CB0007F906F905F904F903F902F9008950E947B
:101CC000840C5ECF8093B30236CF2F923F924F9217
:101CD0005F926F927F928F929F92AF92BF92CF92BC
:101CE000DF92EF92FF921F93CF93DF9300D000D04B
:101CF000CDB7DEB785EB282E82E0382E92E0492E54
:101D0000512C612C712C0E943534A30192010E9448
:101D1000593411E0672B682B692B21F410E00E94E5
:101D2000930C02C00E94840C6B017C010E94750C14
:101D30004B015C010E94520C69837A838B839C83E4
:101D40000E944B0CF101C082D182E282F382848234
:101D50009582A682B78229813A814B815C81208756
:101D60003187428753876487758786879787108B6B
:101D7000F1E12F0E311C2EE4221623E0320619F673
:101D80000F900F900F900F90DF91CF911F91FF90C8
:101D9000EF90DF90CF90BF90AF909F908F907F900B
:101DA0006F905F904F903F902F900895CF92DF9269
:101DB000EF92FF920F931F93CF93DF930E9498109F
:101DC0000E949A1181E08093AB07C1E0D0E0D093EC
:101DD000A607C093A507D093A807C093A70786E9D5
:101DE00091E00E940A1306E410E01093A607009306
:101DF000A507D093A807C093A7076091B20170917F
:101E0000B3018091B4019091B5014AE00E94C912DA
:101E1000D093A607C093A507CEE0D0E0D093A80743
:101E2000C093A70781E991E00E940A131093A607C7
:101E30000093A507D093A807C093A707C090B2014D
:101E4000D090B301E090B401F090B50160917B07B0
:101E500070917C0780917D0790917E074AE06C1518
:101E60007D058E059F0510F4C701B6010E94C912B9
:101E700008E028E042E958E06BE170E081E090E0A2
:101E80000E94A3118CE090E09093A6078093A50791
:101E90008BE190E09093A8078093A707C090010181
:101EA0000C2C000CDD08EE08FF08F7FE14C0E091D2
:101EB0008F07F09190070190F081E02D6DE28FE89F
:101EC00097E0099566277727CB016C197D098E0964
:101ED0009F094AE003C04AE0C701B6010E94C91247
:101EE00082E08093AB078CE090E09093A60780930C
:101EF000A5078EE290E09093A8078093A7078EE94C
:101F000091E00E940A136091000170E080E090E08F
:101F10004AE00E94C9120E94E3100E94B71683FF94
:101F20003BC0809171008D7F8093710010920D08ED
:101F30008FE797E090930C0880930B0890930A0822
:101F40008093090888EE93E09093800780937F0741
:101F500088EC90E0909382078093810780E090E87E
:101F600090938407809383070E94811564EF71E04A
:101F700080E090E00E94F1140E94650E81E0809361
:101F8000100110926503DF91CF911F910F91FF9087
:101F9000EF90DF90CF9008950E94B71682FFBDCFDB
:101FA000C0CF8F929F92AF92BF92CF92DF92EF926B
:101FB000FF920F931F93CF93DF935C016B018A0114
:101FC00080911801882309F45EC080917A038823E8
:101FD00009F459C08091780380FF05C08091E0002A
:101FE00082608093E000E8018AEFF82E93E0E92E0A
:101FF0002FE3822E3AE3932E209709F43DC08FB74A
:10200000F894E092E9009091E80095FF06C0909165
:10201000F200282D291B922F01C090E08FBF911153
:102020000AC0FA94FF2079F161E070E080E090E06E
:102030000E94F114E1CF292F30E0C217D3070CF42E
:102040009C2F8FB7F894E092E9002091E80025FFDB
:1020500011C0292F30E0C21BD30BF601915020F0A4
:1020600041914093F100FACFC20ED31E9091E80047
:1020700095FF13C08FBFC0CF5D9884E68093770330
:102080001016110644F081E090E0F50193838283FD
:1020900080E090E005C0C80103C09092E800EACF5C
:1020A000DF91CF911F910F91FF90EF90DF90CF9034
:1020B000BF90AF909F908F900895009769F0FC01BA
:1020C00001900020E9F73197AF01481B590BBC0183
:1020D0008FE897E00C94D71380E090E00895EF929A
:1020E000FF920F931F93CF93DF937C018B01040F1B
:1020F000111DEB0177FF0EC0C0E0D0E00BC0C2178E
:10210000D3077CF421E0AE01B70183E997E00E9498
:102110006A1721969801013411058CF320E430E010
:10212000EECFDF91CF911F910F91FF90EF90089527
:102130000F931F93CF93DF930BE717E0C0E1D2E03B
:10214000CE010E944334F80181938F012196C4315E
:10215000F2E0DF07A9F78BE797E0DF91CF911F91BE
:102160000F910895CF92DF92EF92FF920F931F93FA
:10217000CF93DF931F92CDB7DEB77C018C0180E156
:10218000C82E82E0D82EF80161918F01C6016983C3
:102190000E9443346981681719F0C6010E944B34CC
:1021A000FFEFCF1ADF0A84E1C81682E0D80659F79C
:1021B000C7010F90DF91CF911F910F91FF90EF908A
:1021C000DF90CF900895EF92FF920F931F93CF93DC
:1021D00000E810E0C0E0E12CF12C0E94F81680E14C
:1021E0000E942A1782E00E942A178C2F806B0E947F
:1021F0002A170E941617F701E558FC4F80818EBD03
:10220000C70101967C01801791074CF4FC01E55849
:10221000FC4F20810DB407FEFDCF2EBDF2CF0DB4D3
:1022200007FEFDCFCF5F00581F4FC830B1F6CF91EA
:102230001F910F91FF90EF900895CF92DF92EF9250
:10224000FF920F931F93CF93DF93809164008E7F53
:102250008093640087EC80937C0080E280937B0015
:1022600062E070E080E090E00E94F11480917A00DA
:10227000806480937A0080917A0086FDFCCFC091C3
:102280007800D0917900C095D0958EE580937C0040
:1022900062E070E080E090E00E94F11480917A00AA
:1022A000806480937A0080917A0086FDFCCF009153
:1022B0007800109179000E94CC149B01AC0120950C
:1022C000309540955095009510950C9FD0010D9F2D
:1022D000B00D1C9FB00D11240E9478346B017C015D
:1022E0000E94CC146C0D7D1D8E1D9F1D6115710506
:1022F0008105910511F00E943A348091640081605B
:1023000080936400DF91CF911F910F91FF90EF9028
:10231000DF90CF90089520E08BE793E0B22FB111CA
:10232000BFEFFC010024B193B193B193B193039437
:10233000D1F708950E948B11EFE8F7E0118E108E0F
:10234000178A168A08952F923F924F925F926F924A
:102350007F928F929F92AF92BF92CF92DF92EF9235
:10236000FF920F931F93CF93DF93CDB7DEB72897DC
:102370000FB6F894DEBF0FBECDBF5A01822E912C4E
:102380009C01280D391D37FDC4C0803891050CF023
:10239000C0C09B01200F311D37FDBBC060347105EB
:1023A0000CF0B7C0AB0177FF04C044275527461B8C
:1023B000570B477055279B0177FF02C0295F3F4F9E
:1023C000E3E035952795EA95E1F777FF08C02150BE
:1023D000310968E070E0DB01A41BB50BAD01602F93
:1023E00066956695669570E0077011F06F5F7F4F98
:1023F000DB01A20FB31FBA83A98339017694762C2F
:10240000662477946794680E791EE12CF12C00E025
:1024100010E02301B0E84B0E511C68E070E0DB01D6
:10242000A41BB50BBC83AB8369817A812617370760
:1024300009F46FC02830310509F46BC02F3FBFEF9E
:102440003B070CF45BC0B201600F711FDB01A558A4
:10245000BC4FBE83AD83D801A60DB71DA558BC4F98
:102460006C0160E070E0681579050CF047C0E0E8A9
:10247000CE16D10409F442C0D7FC34C02F3FFFEF81
:102480003F0709F442C0FB01EE0DFF1DEA0DFB1DE5
:10249000E491042E01C0EE0F0A94EAF73C90E32980
:1024A000EC9341155105F1F027303105D9F0FB01CE
:1024B000EE0DFF1DEA0DFB1DE4912E2E312CF101D6
:1024C0000B8002C0F595E7950A94E2F7F887EF8351
:1024D000ED81FE813080EF81F885E3291F01ED81D8
:1024E000FE8120826F5F7F4FED81FE813196FE83FA
:1024F000ED83FFEFCF1ADF0A1196B5CF2F5F3F4F65
:1025000000581F4FE80CF91C8FCF4115510579F683
:10251000E9CF28960FB6F894DEBF0FBECDBFDF918E
:10252000CF911F910F91FF90EF90DF90CF90BF90D0
:10253000AF909F908F907F906F905F904F903F9063
:102540002F90089570E06115710511F161387105E2
:1025500014F060E870E0AC014770552721E001C03D
:10256000220F4A95EAF797FD0796FC0183E0F5955F
:10257000E7958A95E1F7F695FE2FEE27F795E79513
:10258000E558FC4F615020F08081822B8193FACF77
:1025900008958F929F92AF92BF920F931F93CF9304
:1025A000DF93CDB7DEB7A1970FB6F894DEBF0FBEAD
:1025B000CDBF19A2423008F44AE08E010F5D1F4FD3
:1025C000842E912CA12CB12CA50194010E948B3456
:1025D000E62FB901CA0101501109EA3014F4E05D97
:1025E00001C0E95CD801EC93232B242B252B61F748
:1025F000C8010E945D10A1960FB6F894DEBF0FBE11
:10260000CDBFDF91CF911F910F91BF90AF909F9061
:102610008F9008950C945D102F923F924F925F928D
:102620006F927F928F929F92AF92BF92CF92DF92E2
:10263000EF92FF920F931F93CF93DF9300D01F92DF
:10264000CDB7DEB74C01BC016350710947E08DE0A6
:1026500090E00E946F10EE24E394F12C00E010E073
:1026600023E030E03B832A839AEF492E55245A9485
:102670002EEFC22EDD24DA943DE0232E312C0F5FA5
:102680001F4F82E0E80EF11CCE0CDF1C2A81220FC6
:102690002F5F422F54018A819B81A81AB90AB50184
:1026A000C8010D9629830E946F103401601A710AC7
:1026B0004E2DB3018A819B810D960E946F10298156
:1026C000422FB501C101801B910B0E946F104E2D4E
:1026D000B301C1012A813B81821B930B0E946F10C1
:1026E0002A813B810217130774F4D7FCC8CF2A81D3
:1026F0003B81215031093B832A8332E0430E511C38
:10270000C40CD51CBCCF0F900F900F90DF91CF91D0
:102710001F910F91FF90EF90DF90CF90BF90AF90FF
:102720009F908F907F906F905F904F903F902F90F1
:102730000895FC0180917A03811103C08FEF9FEF10
:1027400008959FB7F89482E08093E9002091F20009
:1027500030E01216130614F421E030E021153105A3
:1027600059F0289884E6809379038091F100808362
:102770008091F200882319F09FBFC90108958BE66C
:102780008093E800F9CF8091B10781110DC082E0FC
:102790008093AD0784E08093AE071092B00710924B
:1027A000AF0781E08093B1078DEA97E00895CF925B
:1027B000DF92EF92FF920F931F93CF93DF936C0101
:1027C0007A018B01C0E0D0E0CE15DF0589F0D80199
:1027D0006D918D01D601ED91FC910190F081E02D7C
:1027E000C6010995892B11F47E0102C02196ECCF18
:1027F000C701DF91CF911F910F91FF90EF90DF9074
:10280000CF90089580910D08E0910B08F0910C088D
:10281000882349F0CF01029690930C0880930B080F
:10282000859194910895CF01029690930C0880931E
:102830000B088081918108958091AC0108950895DD
:102840000E94E233362F90E0FC01E656F24F4491AD
:10285000FC01E25AFE4F2491FC01E557FE4F8491A2
:10286000882309F451C04423E1F150E0FA01319783
:10287000EF30F105B0F5E15AFF4F0C9439319091EA
:1028800080009F7707C0909180009F7D03C090914A
:102890008000977F9093800024C094B59F7702C0FA
:1028A00094B59F7D94BD1DC0909190009F7707C007
:1028B000909190009F7D03C090919000977F90939E
:1028C00090000FC09091C0009F7703C09091C0000E
:1028D0009F7D9093C00005C09091C200977F909318
:1028E000C200E82FF0E0EE0FFF1FE358FE4FA59166
:1028F000B4918FB7F894EC91311103C020952E2339
:1029000001C02E2B2C938FBF0895CF93DF9390E0BF
:10291000FC01E25AFE4F2491FC01E557FE4F8491E1
:10292000882361F190E0880F991FFC01EA5CFE4F5B
:10293000C591D491FC01E358FE4FA591B49161116A
:1029400009C09FB7F8948881209582238883EC91F1
:102950002E230BC0623061F49FB7F8943881822F28
:10296000809583238883EC912E2B2C939FBF06C0E8
:102970008FB7F894E8812E2B28838FBFDF91CF91FA
:1029800008958230910538F0880F991F880F991F9C
:1029900005970197F1F708953FB7F89480911C08C7
:1029A00090911D08A0911E08B0911F0826B5A89B04
:1029B00005C02F3F19F00196A11DB11D3FBFBA2FD1
:1029C000A92F982F8827820F911DA11DB11DBC0131
:1029D000CD0142E0660F771F881F991F4A95D1F7F6
:1029E00008958F929F92AF92BF92CF92DF92EF9213
:1029F000FF926B017C010E94CC144B015C01C1145D
:102A0000D104E104F104F1F00E94CC14DC01CB010B
:102A100088199909AA09BB09883E9340A105B10507
:102A200070F321E0C21AD108E108F10888EE880E9F
:102A300083E0981EA11CB11CC114D104E104F1046F
:102A400019F7DDCFFF90EF90DF90CF90BF90AF9060
:102A50009F908F9008952FB7F89460911808709107
:102A6000190880911A0890911B082FBF08951F9292
:102A70000F920FB60F9211242F933F938F939F9332
:102A8000AF93BF938091180890911908A0911A08EC
:102A9000B0911B083091170823E0230F2D3720F445
:102AA0000196A11DB11D05C026E8230F0296A11DA8
:102AB000B11D209317088093180890931908A093CC
:102AC0001A08B0931B0880911C0890911D08A091D2
:102AD0001E08B0911F080196A11DB11D80931C080E
:102AE00090931D08A0931E08B0931F08BF91AF914B
:102AF0009F918F913F912F910F900FBE0F901F903C
:102B00001895CF92DF92EF92FF920F931F93CF937E
:102B1000DF930E940214811520E8920761F48091EE
:102B200071008D7F809371001092910046984798B4
:102B3000109210088BC021E020931008813020E80B
:102B4000920751F48091090890910A0890930C081B
:102B500080930B080E94021497FD05C020910F0876
:102B6000222309F43FC020910E0821113BC021E02F
:102B700020931108EC01DF77209769F481E08093BE
:102B8000120846983FE9C32E3FE0D32EE12CF12CEA
:102B9000CAEFD0E014C08E0120E030E060E472E4BF
:102BA0008FE090E0A90198010E94593469017A01EF
:102BB00081E0C81AD108E108F10810921208E091EA
:102BC0008D07F0918E070995811103C081E08093F4
:102BD0001208809111088823B9F18091120881119F
:102BE00033C003C010921108C5CF46992DC0479A33
:102BF0000E940214009771F09C01DE010E94AD3426
:102C0000DC01CB0129E0B595A795979587952A9585
:102C1000D1F703C08FEF9FEFDC01109290002AE004
:102C200020939100D0929900C0929800809313084D
:102C300090931408A0931508B09316088091710022
:102C400082608093710002C04798D2CFDF91CF910C
:102C50001F910F91FF90EF90DF90CF9008951F92FA
:102C60000F920FB60F9211242F933F934F935F93C0
:102C70006F937F938F939F93AF93BF93EF93FF9344
:102C80008091130890911408A0911508B09116082E
:102C9000892B8A2B8B2B81F18091120881110BC01B
:102CA00098B180E4892788B980911108882319F0A8
:102CB00088B1805888B98091130890911408A09128
:102CC0001508B0911608181619061A061B06B4F452
:102CD0008091130890911408A0911508B0911608DE
:102CE0000197A109B1098093130890931408A09348
:102CF0001508B093160802C00E948115FF91EF914C
:102D0000BF91AF919F918F917F916F915F914F9103
:102D10003F912F910F900FBE0F901F901895EF923B
:102D2000FF920F931F93DC01E1E7F0E090819D7F1C
:102D3000908310920D08EFE7F7E0F0930C08E09312
:102D40000B08F0930A08E0930908B183A08373830A
:102D50006283558344833783268311870087F386F4
:102D6000E2861F910F91FF90EF900C9481158FB127
:102D70002CB193B130E02095309520743327A90110
:102D800023E0559547952A95E1F7292F30E02095C6
:102D90003095207133273595279535952795242B28
:102DA0008095807F822B08951F93CF93DF931F928E
:102DB000CDB7DEB7162F682F89E049830E94221411
:102DC000612F8AE00E9422144981642F8BE00F90CA
:102DD000DF91CF911F910C94221483B7817F83BF21
:102DE00083B7816083BF889583B78E7F83BF089543
:102DF000E091AA01F091AB0190818091A901892B0A
:102E00008083E091A701F091A80190818091A601B3
:102E1000809589238083E091AA01F091AB01908194
:102E20008091A9018095892380830895E091A7016D
:102E3000F091A80190818091A601892B8083E09177
:102E4000AA01F091AB0190818091A901809589231D
:102E5000808308958EBD00000DB407FEFDCF8EB5B2
:102E600008950F931F93CF93DF931F92CDB7DEB7D3
:102E7000182F062F61E08BE049830E94221468EC32
:102E800070E080E090E00E94F11460E0802F0E94EA
:102E9000221482E090E00E9443344981481729F0CF
:102EA000642F82E090E00E944B3464EF71E080E098
:102EB00090E00E94F11461E0802F0E9422140E9491
:102EC000B71681238117D9F30F90DF91CF911F910E
:102ED0000F9108956038710518F54034510500F5DB
:102EE000E42FE695E695E695F0E047705527F695D0
:102EF000FE2FEE27F795E7956E0F7F1FFB01E55834
:102F0000FC4F81E090E001C0880F4A95EAF7222348
:102F100019F09081892B03C080959081892380834B
:102F200008952F923F924F925F926F927F928F926D
:102F30009F92AF92BF92CF92DF92EF92FF920F9348
:102F40001F93CF93DF93CDB7DEB72A970FB6F894D0
:102F5000DEBF0FBECDBFFC016A3069F4248D808DC9
:102F6000918D38E0239F800D911D1124918F808FCA
:102F7000178A168AB0C06D3009F4ADC09A87898768
:102F8000E48C338D828D8983208C318C068917895E
:102F900000381105C4F0A985BA855C962C915C9720
:102FA000422F50E056968D919C915797B6E02B9FFB
:102FB000800D911D1124E985FA85978B868B258DCF
:102FC000211173C088C0F0E42F16310424F7C80122
:102FD00025E0E29E800D911D112418161906DCF6DD
:102FE0008E2D90E09B838A83C101A8E0EA9E800D2C
:102FF000911D11241816190674F625E0629FF00140
:103000001124FD83EC83C12CD12C89859A850496EB
:103010009F838E8395E0C916D10441F0EC81FD8138
:10302000EC0DFD1DE656F74FF49001C0F12C310177
:1030300088E0482EF0FC02C0532E01C05980511088
:103040000CC0A9813A1309C0F6944A94EA81FB8125
:103050006E0E7F1E4110EECF1BC058018A2D801BC3
:103060008E1590F74301882D86198E1568F4252D4D
:10307000A401B5018E819F8138870E946A17FFEFF6
:103080008F1A9F0A3885EFCF2FEFA21AB20AE6CF28
:103090008FEFC81AD80AAA81BB810A0F1B1FB6E09E
:1030A000CB16D10409F0B6CF76CF6AEF6403900156
:1030B000659F300D112420583F4F281739075CF4C5
:1030C000A985BA85ED91FC9111970190F081E02DD1
:1030D0006AE0CD01099581E090E02A960FB6F89458
:1030E000DEBF0FBECDBFDF91CF911F910F91FF903B
:1030F000EF90DF90CF90BF90AF909F908F907F9098
:103100006F905F904F903F902F900895CF93DF93F3
:103110001F92CDB7DEB76983DC01ED91FC9102808F
:10312000F381E02D41E050E0BE016F5F7F4F0995D4
:103130000F90DF91CF91089583E08093E900809113
:10314000F200882319F08AE38093E8000895FC01D7
:103150008485958597FD0BC09FB7F89482E0809396
:10316000E9008091F2009FBF90E0019608959FB71B
:10317000F89482E08093E9008091F2009FBF90E094
:1031800008954091250850912608209123083091F8
:10319000240842175307B4F49091E8009570E1F3C6
:1031A0009091E80092FD19C08093F100809125086C
:1031B0009091260801968F739927892B19F48EEF29
:1031C0008093E800809125089091260801969093BD
:1031D00026088093250881E0089580E00895CF9225
:1031E000DF92EF92FF920F931F93CF93DF931F9283
:1031F000CDB7DEB7182F062FE42E862F880F8E5FEF
:1032000099830E94C11883E00E94C118F12EC12E3B
:103210009981D92E8C2D8F19801798F4F601E7FE2D
:1032200002C0849101C080810E94C118182F80E0E3
:103230000E94C1188123FFEFCF1ADF0A8111EACF64
:1032400001C081E00F90DF91CF911F910F91FF900E
:10325000EF90DF90CF900895DF92EF92FF920F935F
:103260001F93CF93DF93D82E8A017B01E40EF51EC6
:10327000EB01CE15DF0571F0D7FE03C0FE0184918E
:1032800001C088810E94C11821968111F2CF8FEF71
:103290009FEF01C0C801DF91CF911F910F91FF9067
:1032A000EF90DF900895615030F02091F100FC0123
:1032B00020830196F8CF289884E6809379030895B7
:1032C000CF93DF931F92CDB7DEB7FC018485958540
:1032D00097FD05C02FEF3FEF358724870BC0CE0148
:1032E00001960E949913019719F4898190E002C018
:1032F0008FEF9FEF0F90DF91CF9108950F931F9362
:10330000CF93DF931F92CDB7DEB78C01FC0184858C
:10331000958597FF0EC0CE0101960E9499130197E3
:1033200019F4298130E002C02FEF3FEFF801358713
:103330002487F801848595850F90DF91CF911F91A7
:103340000F9108950F931F93CF93DF931F92CDB7E3
:10335000DEB782E0898342E450E069EB7DE080E8FB
:103360000E942C190E94C313DC0112960D911C912E
:1033700013970115110569F0D801ED91FC910280B8
:10338000F381E02DBE016F5F7F4FC801099597FF64
:1033900007C089810F90DF91CF911F910F91089500
:1033A000F80100851185E5CF1F920F920FB60F929D
:1033B00011248F939F938091E1009091E100937F7E
:1033C0009093E10083FF0FC01092E90091E0909389
:1033D000EB001092EC0092E39093ED0010927A03D0
:1033E00098E09093F00082FF20C093E09093E90072
:1033F0009091F200992319F09AE39093E80090914C
:103400007703992339F09091770391509093770344
:10341000992389F190917903992339F09091790357
:10342000915090937903992341F184FF10C08091CA
:10343000E2008E7E81608093E2008091E1008F7EC9
:103440008093E100809178038E7E806111C080FFBF
:1034500016C08091E2008E7E80618093E2008091B0
:10346000E1008E7E8093E100809178038E7E816002
:103470008093780304C05D9ACDCF289AD6CF9F91D0
:103480008F910F900FBE0F901F9018951F920F9263
:103490000FB60F921124CF92DF92EF92FF920F930B
:1034A0001F932F933F934F935F936F937F938F93CC
:1034B0009F93AF93BF93EF93FF93CF93DF93CDB7DA
:1034C000DEB76C97DEBFCDBF1092E9008091E800B7
:1034D00083FFFAC168E0CE0145960E94531982EF3E
:1034E0008093E8008D8987FF05C09091E80090FFE8
:1034F000FCCF03C09EEF9093E800982F907609F0E0
:10350000C6C09E892F89188D91110CC0803829F46E
:10351000809121088093F10002C01092F100109276
:10352000F10047C1422F50E0512B913051F48111ED
:1035300040C14130510509F03CC1809121088D7F87
:103540000BC0933061F4811134C14130510509F051
:1035500030C1809121088260809321082AC1953072
:1035600041F48091E80080FFFCCF20682093E300C5
:1035700020C1963009F05FC0EB8CFC8C1092E90002
:103580001092260810922508123091F51092240806
:10359000109223080E94A21999E0BE016F5F7F4F2D
:1035A000DB01E92F1D92EA95E9F799831A8391E0EF
:1035B0009E8390EA98879AEF998720912508309109
:1035C0002608275F3F4F3C832B838D831092E900B1
:1035D0001092260810922508F0922408E092230801
:1035E00049E050E080E00E942C190E94A219E1C03D
:1035F000F0922408E09223080E94C313DC01129683
:10360000ED90FC901397E114F10409F4C0C0D701C8
:10361000ED91FC910480F581E02DBE016B5E7F4F42
:10362000C7010995009719F00CF0C3C0C6C0F70197
:10363000E084F184E8CF973009F4BFC0983021F4DA
:1036400081E08093F100B5C0993009F0B2C0837079
:1036500009F0B3C0E2E4F1E081E021E036E39081DB
:10366000992361F08093E9002093EB00919190936E
:10367000EC003093ED008F5F873089F78EE7809301
:10368000EA001092EA008F8980937A0392C08B8DB2
:103690009C8D1092E90010922608109225089093B4
:1036A000240880932308898D811156C08E899D89B5
:1036B000913A59F4813209F080C047E050E061E16D
:1036C00071E080E00E942C1974C0913209F075C03D
:1036D000833289F4888D90E0982F88272F89822B58
:1036E000A0E0B0E08093190190931A01A0931B0110
:1036F000B0931C015EC0803269F48091E80082FFC3
:10370000FCCF67E081E191E00E9453198BEF809339
:10371000E80006C0823209F04CC08F8980931801FE
:1037200080912008882319F0EEEFFAE002C0E0E073
:10373000F8E08091110190911201A0911301B091D4
:103740001401803B9440A105B10509F088C0809127
:10375000180180FFA0C083C00E94C313DC01129631
:103760000D911C9113970115110539F1D801ED91B7
:10377000FC910190F081E02DBE016B5E7F4FC8018E
:103780000995811116C0F80100851185ECCF113023
:10379000C1F0133091F48F89882309F455C0823029
:1037A000E9F440E860E18BE09EE00E94EF18882396
:1037B00021F08EEF8093E80087C081E28093EB00D8
:1037C00083C08B8D9C8D089711F4109322088091F3
:1037D0002208811136C06CE17EE038C0813029F4C6
:1037E00040E86BE08FEF9DE0E0CF833031F70E943F
:1037F000C313DC011296ED90FC9013978E010F5FBE
:103800001F4F6801E114F10479F0D701ED91FC91AB
:103810000680F781E02DB801C7010995080F111D39
:10382000F701E084F184EECFD8011C92F6010190FB
:103830000020E9F73197BF016C197D0940E0C6010E
:10384000B4CF6EE27EE002C06BEF7DE061157105E2
:1038500009F4B3CFFB01449150E080E833CF0FB6B9
:10386000F894A89580916000886180936000109220
:1038700060000FBEA895EE3F2AE0F20739F0809174
:10388000FE0A9091FF0A9183808393CF1092FF0AE2
:103890001092FE0A8ECFEE3F8AE0F80731F0808169
:1038A00091819093FF0A8093FE0A87E797E79183BF
:1038B00080839BE088E10FB6F894A8958093600020
:1038C0000FBE9093600075CF6C960FB6F894DEBF74
:1038D0000FBECDBFDF91CF91FF91EF91BF91AF911F
:1038E0009F918F917F916F915F914F913F912F9118
:1038F0001F910F91FF90EF90DF90CF900F900FBE30
:103900000F901F901895CF93DF93CDB7DEB76E97CA
:103910000FB6F894DEBF0FBECDBF789484B5826039
:1039200084BD84B5816084BD85B5826085BD85B563
:10393000816085BD80916E00816080936E001092E1
:10394000810080918100826080938100809181005C
:1039500081608093810080918000816080938000ED
:1039600080919100826080939100809191008160AC
:10397000809391008091900081608093900080916D
:10398000C10084608093C1008091C10082608093F7
:10399000C1008091C10081608093C1008091C3000B
:1039A00081608093C3008091C00082608093C000DA
:1039B0008091C20081608093C20080917A0084600F
:1039C00080937A0080917A00826080937A0080915F
:1039D0007A00816080937A0080917A008068809379
:1039E0007A0010927A031092210810927803809145
:1039F000D70081608093D70080EA8093D80089B592
:103A0000806189BD89B5826089BD09B400FEFDCFA2
:103A100061E070E080E090E00E94F1148091D800B5
:103A20008F7C80618093D8008091E000807F8093BC
:103A3000E0008091E1008E7E8093E1008DE0809334
:103A4000E200559A209AEEEFFFE7859194918B3F23
:103A50009C4D19F481E0809320081FB7F894809161
:103A60006803811127C0ECE9F1E08491EFE6F1E011
:103A70009491E82FF0E0EE0FFF1FEA5CFE4FA59156
:103A8000B491EC91E92321F461E081E10E942214D8
:103A900061E081E10E9485148CB580618CBD8CB59C
:103AA00080648CBD61E08FE00E94851461E080E15C
:103AB0000E948514809168038F5F809368031FBF05
:103AC0000AEA11E0F80184910E5F1F4F319664916C
:103AD000882319F00E948514F5CF61E086E00E94EA
:103AE000221461E070E080E090E00E94F11460E058
:103AF00086E00E9422146AE070E080E090E00E947C
:103B0000F11461E086E00E942214E7E9F1E0E4911B
:103B1000F0E0EE0FFF1FE358FE4F859194919093D4
:103B2000AB018093AA01EAE6F1E0E491E093A901F8
:103B3000EFE8F1E0E491F0E0EE0FFF1FE358FE4FF5
:103B4000859194919093A8018093A701E2E6F1E01A
:103B5000E491E093A6018CB58C7F8CBD8DB581601E
:103B60008DBD0E94F81624E4E22E21E0F22E1AE127
:103B70001E0DF70184910E942A17FFEFEF1AFF0A2A
:103B80001E11F7CF0E941617809164008160809308
:103B9000640080916400826080936400809164007E
:103BA00080688093640080916400806480936400E6
:103BB000809165008160809365000E94F81680E125
:103BC0000E942A1782E00E942A170E941617E12CF1
:103BD00004E0F02E80E00E942A1721E0E21AF108AA
:103BE000C9F70E94B71687FF3CC00E94F81685EA05
:103BF0000E942A170E94161740E060E080E00E94B1
:103C0000D4160E94B71684FD03C00E94ED16F9CFAA
:103C100041E061E081E00E94D4160E94F81684EA37
:103C20000E942A170E9416171CC060E08BE00E94B9
:103C300022140E94B7168478843821F44FEF6AE08A
:103C40000E9431170E94B7168471843121F440E03C
:103C500069E00E94311768EC70E080E090E00E941B
:103C6000F1140E94B71682FDE0CF61E08BE00E9464
:103C7000221460E089E00E9422141EEEC12EDD2491
:103C8000DA940E94B71686FF06C041E061E081E049
:103C90000E94D41643C01C2D1C3F19F441E060E083
:103CA00004C0183129F440E061E081E00E94D4169C
:103CB0000E948B1100E128E549EC51E0B60184E156
:103CC00090E00E94A3110E94E3106BE170E080E09D
:103CD00090E00E94F114103F31F46AEF70E080E050
:103CE00090E00E94F1143FEFC31AD30A49E1C416D1
:103CF000D10439F66EEE72E080E090E00E94F1149B
:103D000061E08BE00E942214E0919307F091940708
:103D10000190F081E02D83E997E0099561E085E06D
:103D20000E94851461E083E00E94851481E0809305
:103D3000AC010E949A110E941D1180E180939A07A4
:103D40000E942B1560937203709373038093740326
:103D5000909375030E942B1560936D0370936E030F
:103D600080936F03909370030E94850B00E010E036
:103D7000B0E8CB2ED12CA12CB12CF501A3E0F59508
:103D8000E795AA95E1F7EE0DFF1DE758FD4F8491E9
:103D9000950127703327D60102C0B595A7952A95BE
:103DA000E2F7E82FF0E0EA23FB23EF2B39F021E0E4
:103DB000A801B50183E997E00E946A17BFEFAB1A2B
:103DC000BB0AE0E8AE16B104C1F60F5F1F4FF0E189
:103DD000EF0EF11C0034110571F60E94E31068E843
:103DE00073E180E090E00E94F1140E9498100E941C
:103DF0002B152091A307222391F020919B07C62E1B
:103E0000C21AC092A40720919607309197072F5F9E
:103E10003F4F30939707209396071092A307009186
:103E20009F071091A0072091A1073091A20760176A
:103E300071078207930748F4061B023010F40C94B4
:103E40004F300E94ED160C944F3020919A076B0171
:103E50007C01C20ED11CE11CF11CC0929F07D092C4
:103E6000A007E092A107F092A20760939B077093CE
:103E70009C0780939D0790939E0781E08093A30702
:103E80000E949A1180911001823011F40C941E2C22
:103E900040F4882311F40C94192D813099F00C947E
:103EA0004D30833011F40C941C2D843011F00C949F
:103EB0004D30FF24F39454E1C52ED12C08E210E0DC
:103EC0000C94C92F60E88FE390E00E94A2126091E9
:103ED00076036623F9F0809167038B30D8F48091E4
:103EE000660380FD04C0643611F460E80FC06436D8
:103EF00088F470E080E090E00E94E9312AE037ED3C
:103F000043EA5FE30E944E330E94B83180E090E0C4
:103F10000E94A2120E94480B0E94F9078091670339
:103F20008B3008F43FC00E9483070E94A50C80904C
:103F3000070190900801A0900901B0900A0120E0CB
:103F400030E040E051E4C501B4010E9440310E94DC
:103F5000B831C62E20E030E040E751E4C501B4019D
:103F60000E9440310E94B831D62E80900B01909073
:103F70000C01A0900D01B0900E01C501B4010E948A
:103F8000B831262E20E030E040EE50E4C501B40107
:103F90000E9440310E94B831362E80916503811114
:103FA000D1C217C3109171031111DFC080910201BA
:103FB000C0900701D0900801E0900901F0900A013B
:103FC000882309F468C060910B0170910C01809105
:103FD0000D0190910E010E94B1314B015C01C701AE
:103FE000B6010E94B13108E028E041E557E0C40184
:103FF0000E94A31120E030E0A90160915A02709163
:104000005B0280915C0290915D020E94AC31811153
:104010000BC020E030E040E051E4C701B6010E944F
:1040200040310E94B13115C080916603813021F189
:1040300028F0823091F08330F9F097C020E030E032
:1040400040E051E4C701B6010E9440310E94B13105
:1040500008E028E049E457E085C020E030E040E097
:1040600051E4C701B6010E9440310E94B13108E01D
:1040700028E049E357E076C020E030E040E051E43A
:10408000C701B6010E9440310E94B13108E028E02A
:1040900041E457E067C060910B0170910C01809181
:1040A0000D0190910E010E94B1314B015C01C701DD
:1040B000B6010E94B13108E028E041E357E0C401B5
:1040C0000E94A31120E030E0A90160915A02709192
:1040D0005B0280915C0290915D020E94AC31811183
:1040E0000BC020E030E040E051E4C701B6010E947F
:1040F00040310E94B13115C080916603813021F1B9
:1041000028F0823091F08330F9F02FC020E030E0C9
:1041100040E051E4C701B6010E9440310E94B13134
:1041200008E028E049E257E01DC020E030E040E030
:1041300051E4C701B6010E9440310E94B13108E04C
:1041400028E049E157E00EC020E030E040E051E4D3
:10415000C701B6010E9440310E94B13108E028E059
:1041600041E257E0C4010E94A3111150123008F03F
:10417000ABC080910201C0900701D0900801E0908F
:104180000901F0900A01882309F44EC060910B01E7
:1041900070910C0180910D0190910E010E94B1313E
:1041A0004B015C01C701B6010E94B13108E028E073
:1041B00041E557E0C4010E94A3118091660381305C
:1041C00021F128F0823091F08330F9F07DC020E0B9
:1041D00030E040E051E4C701B6010E9440310E9446
:1041E000B13108E028E041E157E06BC020E030E069
:1041F00040E051E4C701B6010E9440310E94B13154
:1042000008E028E041E057E05CC020E030E040E01A
:1042100051E4C701B6010E9440310E94B13108E06B
:1042200028E049E057E04DC060910B0170910C010E
:1042300080910D0190910E010E94B1314B015C0102
:10424000C701B6010E94B13108E028E041E357E020
:10425000C4010E94A31180916603813021F128F0EE
:10426000823091F08330F9F02FC020E030E040E060
:1042700051E4C701B6010E9440310E94B13108E00B
:1042800028E049EF56E01DC020E030E040E051E476
:10429000C701B6010E9440310E94B13108E028E018
:1042A00049EE56E00EC020E030E040E051E4C701A6
:1042B000B6010E9440310E94B13108E028E041EF90
:1042C00056E0C4010E94A3111D8257E0C52EDD24D3
:1042D000D394212C312C60E7462E62E4562E812C9B
:1042E000912C7CE3A72E72E4B72E80910F01FD8103
:1042F000F81708F018CE41E1E42EFD80EF9C800114
:1043000011240B541D4FD80114966D917D918D9100
:104310009C9117970E94B831662E60910B017091A5
:104320000C0180910D0190910E010E94B8316983BA
:1043300060910701709108018091090190910A0133
:104340000E94B831762E2981E22EF12CD8016D9190
:104350007D918D919C910E94B831862F90E0E81656
:10436000F90694F497012A5F3F4F2817390764F044
:10437000272D30E0462D50E0241735072CF4225F1E
:104380003F4F24173507E4F49C012A5F3F4F2E1559
:104390003F050CF4D3C08E159F050CF0CFC0862DC1
:1043A00090E0272D30E0AC014A5F5F4F4217530782
:1043B0000CF4C4C0295F3F4F281739070CF4BEC066
:1043C00080916703883019F4B6E0B09367030E94C8
:1043D0004B070E944B070E944B070E944B07F0902F
:1043E000B302CF9C8001112403591D4FF801D082E4
:1043F000E980E18284E0870D82830E942B15D80139
:1044000013966D937D938D939C93169781E08F0DFA
:104410008A3010F00C9459308093B302F090B302BC
:10442000CF9C8001112403591D4FF801D08289814E
:104430008450818372820E942B15D80113966D934C
:104440007D938D939C93169781E08F0D8A3010F0A9
:104450000C945D308093B302F090B302CF9C800146
:10446000112403591D4FF801D08289818C5F81830B
:1044700072820E942B15D80113966D937D938D93B4
:104480009C93169781E08F0D8A3010F00C94613068
:104490008093B3021092100120920B0130920C0114
:1044A00040920D0150920E018092070190920801F6
:1044B000A0920901B0920A01D092020110925A0210
:1044C00010925B0210925C0210925D0210925602F2
:1044D00010925702109258021092590280910101D5
:1044E00081508093010187FF03C0B2E0B0931001B7
:1044F00030E9E32EFF24F39408EC10E028EC30E0E0
:1045000048E552E068EC70E080E293E00E948F168C
:104510000CE211E00E949A1160E88FE390E00E94A3
:10452000A2120E94480B0E94F9070E9483070E9472
:10453000A50C0E94E3100150110961F7ED81EF5FB6
:10454000ED83D3CE8090600390906103A0906203CE
:10455000B09063031091640320E030E040EE50E43B
:10456000C501B4010E9440310E94B8316C1588F138
:10457000C501B4010E94B831D61658F187E0810F09
:10458000821538F1311628F1109265038091B2013D
:104590009091B301A091B401B091B50186509F4FA5
:1045A000AF4FBF4F8093B2019093B301A093B4017A
:1045B000B093B50124E6E22EF12C00EC1DE022E3DD
:1045C00030E040EE56E062E370E080E793E00E9466
:1045D0008F1680916703811148C080906802909087
:1045E0006902A0906A02B0906B0210916C0220E008
:1045F00030E040EE50E4C501B4010E9440310E9419
:10460000B8316C1590F1C501B4010E94B831D616CD
:1046100060F187E0810F821540F1311630F181E0C1
:10462000809367038091B2019091B301A091B4018E
:10463000B091B5018C599F4FAF4FBF4F8093B201DE
:104640009093B301A093B401B093B50194E6E92E21
:10465000F12C00EE16E022E330E040E753E062E3A5
:1046600070E088EB91E00E948F16809167038330A1
:1046700009F048C08090620290906302A0906402AA
:10468000B09065021091660220E030E040EE50E408
:10469000C501B4010E9440310E94B8316C1590F1FF
:1046A000C501B4010E94B831D61660F187E0810FD0
:1046B000821540F1311630F184E0809367038091D8
:1046C000B2019091B301A091B401B091B5018C59A0
:1046D0009F4FAF4FBF4F8093B2019093B301A09310
:1046E000B401B093B50184E6E82EF12C00EE16E09B
:1046F00022E330E040E753E062E370E088EB91E0D2
:104700000E948F16809167038650823008F05AC04D
:1047100040900301509004016090050170900601E3
:1047200080905E0290905F02A0906002B090610263
:1047300020E030E040EE50E4C301B2010E9440317D
:104740000E94B8316C15F0F1C301B2010E94B8317A
:10475000D616C0F120E030E040EE50E4C501B401CF
:104760000E9440310E94B831621560F1C501B40168
:104770000E94B831361630F188E08093670380914B
:10478000B2019091B301A091B401B091B5018C59DF
:104790009F4FAF4FBF4F8093B2019093B301A0934F
:1047A000B401B093B50104E6E02EF12C00EE16E062
:1047B00022E330E040E753E062E370E088EB91E011
:1047C0000E948F16809167038A3009F0BDC08090E7
:1047D000AE019090AF01A090B001B090B1011091E6
:1047E000670220E030E040EE50E4C501B4010E94D1
:1047F00040310E94B8316C1508F4A6C0C501B4015F
:104800000E94B831062FD61608F49EC087E0810FAB
:10481000821508F499C0311608F496C08BE0809395
:104820006703F090B30247E0F49E90011124C901A0
:1048300083599D4F6C0181E0D6018C9311961C9396
:1048400020E030E040E850E4C501B4010E9440316E
:104850000E94B831F60162830E942B15D60113968F
:104860006D937D938D939C93169781E08F0D8A3085
:1048700018F48093B30202C01092B302F090B30216
:10488000B7E0FB9E90011124F901E359FD4F6F0140
:1048900081E080838CEF810F818302830E942B153E
:1048A000D60113966D937D938D939C93169781E01B
:1048B0008F0D8A3018F48093B30202C01092B302B5
:1048C000F090B302B7E0FB9E90011124F901E35987
:1048D000FD4F6F0181E080831C5F118302830E9482
:1048E0002B15D60113966D937D938D939C931697FC
:1048F00081E08F0D8A3018F48093B30202C01092C9
:10490000B30214E6E12EF12C00EE16E022E330E0D3
:1049100040E753E062E370E088EB91E00E948F167D
:104920008091B2019091B301A091B401B091B50111
:104930008C509E4FAF4FBF4F8093B2019093B30105
:10494000A093B401B093B5010E94B71683FD04C0D3
:104950000E94B71687FF50C081E08093710340E04A
:1049600050E060E87FEB409356025093570260930B
:1049700058027093590290916B0391113AC01091B3
:10498000B302B7E01B9F90011124F901E359FD4FD9
:104990007F01808360910B0170910C0180910D016A
:1049A00090910E010E94B831D70111966C9320E0CE
:1049B00030E040E051E4609107017091080180917E
:1049C000090190910A010E9440310E94B831F7011B
:1049D00062830E942B15D70113966D937D938D935F
:1049E0009C9316971F5F1A3010F00C94653010934B
:1049F000B30281E080936B030E94B71683FD1AC057
:104A00000E94B71687FD16C080917103813081F432
:104A100082E080937103C12CD12CE12CBFE3FB2EEB
:104A2000C0925602D0925702E0925802F092590278
:104A300010926B030E94B71686FD08C010925A02AE
:104A400010925B0210925C0210925D020E94B716F7
:104A500085FD08C010925A0210925B0210925C020F
:104A600010925D020E94B71686FF0FC080E090E0B2
:104A7000A0E8BFE380935A0290935B02A0935C028C
:104A8000B0935D0281E0809302010E94B71685FF1A
:104A90000EC080E090E0A0E8BFE380935A029093BC
:104AA0005B02A0935C02B0935D02109202018091C0
:104AB00067038B3008F091C00E94B71682FF16C0C2
:104AC0000E942B1500916D0310916E0320916F03CE
:104AD00030917003DC01CB01801B910BA20BB30B57
:104AE00085369105A105B10530F477C00E94B7164F
:104AF00084FDE6CF72C010916C03E12FF0E060916D
:104B00000B0170910C0180910D0190910E010091AB
:104B10000201002311F40C946D3020E030E040E2FB
:104B200051E4A3E0EE0FFF1FAA95E1F7DF01AA54BD
:104B3000BE4F7D010E9440310E94B831F701608371
:104B400081E0828320E030E040E151E460910701A0
:104B5000709108018091090190910A010E944031F1
:104B60000E94B831D70111966C93119713960C934C
:104B70000E942B15F70164837583868397831F5FDB
:104B8000143110F00C94693010936C0302E310E0C0
:104B900061E082E00E94221460E085E00E9422141D
:104BA000C8010E94C11460E082E00E94221461E00A
:104BB00085E00E942214C8010E94C1140F5F1F4F9C
:104BC0000D37110529F70E942B1560936D03709323
:104BD0006E0380936F039093700360910B0170914B
:104BE0000C0180910D0190910E01E0910201009164
:104BF0005A0210915B0220915C0230915D02A90182
:104C00009801E11101C050580E9440314B015C01F4
:104C100060930B0170930C0180930D0190930E0132
:104C200020915602309157024091580250915902FA
:104C300060910701709108018091090190910A012A
:104C40000E9440316B017C01609307017093080161
:104C50008093090190930A0120E030E04EEE52E487
:104C6000C501B4010E94F1321816A4F410925A0240
:104C700010925B0210925C0210925D0280E090E064
:104C8000AEEEB2E480930B0190930C01A0930D0162
:104C9000B0930E0120E030E0A90160910B0170910A
:104CA0000C0180910D0190910E010E94AC3187FFA3
:104CB00010C010925A0210925B0210925C02109285
:104CC0005D0210920B0110920C0110920D011092D6
:104CD0000E0120E030E0A901C701B6010E94AC310D
:104CE00087FF10C01092560210925702109258027D
:104CF00010925902109207011092080110920901B6
:104D000010920A0120E030E04CE352E46091070188
:104D1000709108018091090190910A010E94F1327D
:104D200087FD16C010925602109257021092580238
:104D30001092590280E090E0ACE3B2E48093070166
:104D400090930801A0930901B0930A011092710396
:104D500020907103C0900701D0900801E0900901F4
:104D6000F0900A01C982DA82EB82FC8280900B010A
:104D700090900C01A0900D01B0900E01C0905602D1
:104D8000D0905702E0905802F090590220E030E0B5
:104D900040EC50E4C501B4010E9440316F83788734
:104DA00089879A8729E537E03E832D838901F801B9
:104DB00032968491F8017490770C770C770C3196C9
:104DC0003490272DF8E08F9F200D11242B87211080
:104DD00032C020E030E04CE352E469817A818B817B
:104DE0009C810E94AC3187FF26C0672D70E080E077
:104DF00090E00E94E9319B01AC016F817885898543
:104E00009A850E94AC3187FD0FC03B85632F70E00F
:104E100080E090E00E94E9319B01AC01C501B40142
:104E20000E94F13218163CF4C12CD12CE12C3FE346
:104E3000F32E42E0242E672D70E080E090E00E9487
:104E4000E9319B01AC016F81788589859A850E9443
:104E5000F13287FD4EC020E030E040E850E4C5016B
:104E6000B4010E9440312B013C014B85642F70E05E
:104E700080E090E00E94E9319B01AC01C301B201E6
:104E80000E94AC311816ACF1330C330C330C632D8B
:104E900070E0FB017097BF01FF0F880B990B0E9418
:104EA000E9312B013C019B01AC0169817A818B8145
:104EB0009C810E94AC3181111CC010927103409200
:104EC0000701509208016092090170920A01109244
:104ED0005A0210925B0210925C0210925D021092D4
:104EE00056021092570210925802109259021E8ECA
:104EF00007C10D5F1F4F57E00236150709F057CF66
:104F000020927103C0925602D0925702E09258024A
:104F1000F0925902ECCFCE8C2C2C312C21E1D22EE8
:104F2000D29CF001D39CF00D1124EB54FD4FE0888E
:104F3000ED860085118522853385448455846684F9
:104F400077846081718182819381A9019801E11048
:104F500001C050580E9440316B017C0121E1229D2B
:104F60008001239D100D11240B541D4FD8016D930A
:104F70007D938D939D93BA83A983F8012481358114
:104F800046815781C301B2010E9440314B015C014F
:104F9000D80114966D937D938D939C9317970E94DF
:104FA000B8316F8320E030E040EE50E4C501B40139
:104FB0000E9440310E94B831A62EC701B6010E945E
:104FC000B831B62E20E030E040EE50E4C701B60123
:104FD0000E9440310E94B831F62E99E5C92E97E023
:104FE000D92E4801F8013C96FF87EE87A301920174
:104FF0005058288F398F4A8F5B8FA801405F5F4FD1
:105000005C874B87C80108969D8F8C8FF60132967E
:105010009491F60184913196E491EE0FEE0FEE0F2C
:1050200023E02E0FEF802E1508F071C0B3E0CB0EF9
:10503000D11CE2E6CE16E7E0DE0641F781E1C82E9C
:10504000C29CF001C39CF00D1124EB54FD4FC080B5
:10505000D180E280F38020E030E04EEF52E4C701DF
:10506000B6010E94F13218160CF4EFC020E030E0D7
:1050700040EE50ECC701B6010E94AC3187FDE5C09F
:10508000B1E1B29DF001B39DF00D1124EB54FD4F41
:10509000C480D580E680F78020E030E044E652E42A
:1050A000C701B6010E94F13218160CF4F2C020E0DC
:1050B00030E040EE50E4C701B6010E94AC3187FDFC
:1050C000E8C00E94353428EB3BE040E050E00E940D
:1050D00059346C3D75408105910509F4EDC00E947D
:1050E000353428EE33E040E050E00E945934643F0C
:1050F00071408105910509F4E4C04E8D4F5F4E8FDC
:1051000080910F01CE8CC81608F405CFDFC0AE1613
:1051100008F48CCF880F880F880F482F38E0939FB2
:10512000400D11244B1508F481CFF81608F47ECFFA
:105130003091B40231116BC0E090B30257E05E9D34
:105140008001112403591D4FE1E0D801EC93119621
:10515000BC921197FF811296FC930E942B15D801E7
:1051600013966D937D938D939C93169781E08E0D8E
:105170008A3018F48093B30202C01092B3020E94E6
:10518000353422E030E040E050E00E94593411E034
:10519000672B682B692B21F410E00E94930C02C04E
:1051A0000E94840C2B013C010E94750C688B798B4A
:1051B0008A8B9B8B0E94520C6C8B7D8B8E8B9F8B72
:1051C0000E944B0CF40140825182628273822889D2
:1051D00039894A895B89A981BA812D933D934D9381
:1051E0005C9313972C893D894E895F89AC8DBD8D69
:1051F0002D933D934D935C931397EE85FF856083CC
:10520000718382839383AB85BC851C930FCFB816C3
:1052100010F04F1540F4AB85BC858C91B1E08B2725
:10522000AB85BC858C932A1520F0EF80EE1608F034
:10523000FDCE288D398D4A8D5B8DAE85BF852D9332
:105240003D934D935C931397F1CEDD84D11005C04F
:1052500080E090E0AEEFB2E404C080E090E0A0EE29
:10526000B0EC01E1E02EE29C8001E39C100D1124E2
:105270000B541D4FF80180839183A283B3830E9456
:10528000520CD80118966D937D938D939C931B9728
:10529000F7CE11E1C12EC29CF001C39CF00D112488
:1052A000EB54FD4F84859585A685B785B0588487D6
:1052B0009587A687B78705CF8091B402811113C760
:1052C0000ECF8091B40281111EC717CF8091650364
:1052D00081110EC010916703812F90E0FC0131977E
:1052E000E930F10508F06AC2EA5AFF4F0C943931EF
:1052F0000091640310E0780126E0E20EF11C0F5FDC
:105300001F4F8090600390906103A0906203B09063
:105310006303B9E54B2EB7E05B2EF2013296C490E1
:10532000F201D49031967490C501B4010E94B83155
:1053300070E0E72DEE0FEE0FEE0F8E2F90E0089746
:1053400068177907C1F4DD0CDD0CDD0C2D2D30E084
:10535000E216F30684F0F8E0CF9ED00C11248D2DD8
:1053600090E0081719073CF4072E000C880B990BE6
:105370000E94E93108C02DEC3CEC4CEC5DE3C5012A
:10538000B4010E9440314B015C0120E030E04CE56B
:1053900052E40E94F132181634F4812C912CACE5C1
:1053A000AA2EA2E4BA2E23E0420E511C32E6431686
:1053B00037E0530609F0B1CF809260039092610309
:1053C000A0926203B092630381E08093650382CF71
:1053D000C0900B01D0900C01E0900D01F0900E01F7
:1053E000C701B6010E94B83160936C0220E030E042
:1053F00040E051E46091070170910801809109013A
:1054000090910A010E944031609368027093690292
:1054100080936A0290936B026091670270E080E073
:1054200090E00E94E9319B01AC01C701B6010E94E6
:10543000AC318111C3C182E0BFC12DEC3CEC4CE426
:105440005EE3609168027091690280916A029091B6
:105450006B020E9440316B017C0120E030E04CE3A4
:1054600052E40E94F13287FF09C0C0926802D092D4
:105470006902E0926A02F0926B02A0C180E090E0C3
:10548000ACE3B2E48093680290936902A0936A024D
:10549000B0936B0283E090C1C0900B01D0900C01DF
:1054A000E0900D01F0900E01C701B6010E94B831E5
:1054B0006093660220E030E040E051E46091070133
:1054C000709108018091090190910A010E94403178
:1054D000609362027093630280936402909365020A
:1054E0006091670270E080E090E00E94E9319B01EA
:1054F000AC01C701B6010E94AC3181115FC185E0EA
:105500005BC12DEC3CEC4CE45EE360916202709177
:10551000630280916402909165020E9440316B01A8
:105520007C0120E030E04CE152E40E94F13287FF40
:1055300009C0C0926202D0926302E0926402F092CB
:1055400065023CC180E090E0ACE1B2E4809362028D
:1055500090936302A0936402B09365020E94230CAF
:1055600060935E0270935F02809360029093610289
:1055700080E090E0A0E0B1EC8093030190930401FF
:10558000A0930501B093060114C140905E025090B3
:105590005F026090600270906102809003019090C1
:1055A0000401A0900501B0900601ED81FE813296C4
:1055B000E490ED81FE81F49031960491C501B4012F
:1055C0000E94B831C62ED12C000F000F000FE02F23
:1055D000F0E03897CE16DF0609F049C0FF0CFF0C4B
:1055E000FF0C20E030E040EC50E4C301B2010E9427
:1055F000403169837A838B839C836F2D70E080E0D8
:1056000090E00E94E9319B01AC0169817A818B8134
:105610009C810E94F13287FD2AC020E030E040E00A
:1056200050E4C301B2010E94403169837A838B83C5
:105630009C836F2DF8E0EF9E600D112470E080E0F8
:1056400090E00E94E9319B01AC0169817A818B81F4
:105650009C810E94AC31181654F0B601DD0C880B09
:10566000990B0E94E9314B015C0117E00AC02DEC57
:105670003CEC4CEC5DE3C501B4010E9440314B01B0
:105680005C0120E030E04CE552E4C501B4010E9429
:10569000F13218163CF417E0812C912CFCE5AF2E6A
:1056A000F2E4BF2E2D813E812D5F3F4F3E832D833F
:1056B0002256374009F079CF80920301909204017D
:1056C000A0920501B09206011093670377C0C090C5
:1056D0000B01D0900C01E0900D01F0900E01C092F2
:1056E0005E02D0925F02E0926002F092610220E0DE
:1056F00030E040E051E46091070170910801809131
:10570000090190910A010E94403160930301709356
:10571000040180930501909306016091670270E097
:1057200080E090E00E94E9319B01AC01C701B60125
:105730000E94AC31811142C089E03EC02DEC3CECAE
:105740004CE45EE3609103017091040180910501D6
:10575000909106010E94403160930301709304010F
:10576000809305019093060120E030E04CE552E47F
:105770000E94F13287FD22C00E94230C60935E02DA
:1057800070935F02809360029093610280E090E0EA
:10579000A0E0B1EC8093030190930401A093050174
:1057A000B093060180917603875E809376038436FA
:1057B00010F486E001C08AE080936703809167035C
:1057C000873090F08091650381110EC00E943534BE
:1057D00024EF31E040E050E00E9459346A3F710507
:1057E0008105910509F4A0C40E942B150091720354
:1057F000109173032091740330917503DC01CB0188
:10580000801B910BA20BB30BC397A105B10508F444
:1058100044C4809166038F5F843018F480936603DC
:1058200002C0109266030E942B156093720370935E
:10583000730380937403909375032FC44091B20156
:105840005091B3016091B4017091B50180917B07D3
:1058500090917C07A0917D07B0917E0784179507F2
:10586000A607B70720F482EB91E00E94B21064E62D
:1058700070E080E090E00E94F1140E949A1182E0B2
:105880008093AB0788E090E09093A6078093A507EC
:1058900088E290E09093A8078093A70788E491E0BE
:1058A0000E940A1381E08093AB0786E190E0909319
:1058B000A6078093A50782E090E09093A8078093C5
:1058C000A7074091B2015091B3016091B40170916A
:1058D000B50180917B0790917C07A0917D07B091E5
:1058E0007E0784179507A607B70718F483E591E0AC
:1058F00008C080E390E09093A6078093A5078BE80B
:1059000091E00E940A13C090B201D090B301E090E0
:10591000B401F090B501C701B6010E94E7310E94C1
:10592000F6320E94243220E030E040E85FE30E943B
:1059300040310E94B8318EE190E0861B9109880FBA
:10594000991F9093A6078093A50782E190E090931A
:10595000A8078093A7074AE0C701B6010E94C912B1
:105960000E94E31068E873E180E090E00E94F11487
:1059700081E08093000192E090930F0110926A03FE
:105980001092AD011092B4021092100110926703B0
:1059900094E0909301011092B2011092B301109221
:1059A000B4011092B50140E050E060E071EC40932A
:1059B0000301509304016093050170930601109256
:1059C000760340E050E060E772E440930B015093AF
:1059D0000C0160930D0170930E0140E050E06CE308
:1059E00072E440930701509308016093090170939A
:1059F0000A0110925A0210925B0210925C021092FD
:105A00005D021092560210925702109258021092A4
:105A1000590280930201109271031092B302109206
:105A20006B03109269030E94CE0B0E94850B0E94AB
:105A3000650E0E94D60E31C30E94CE0B10926703F2
:105A4000809100018F5F809300018091B4028F5F8D
:105A5000883019F08093B4020AC01092B402809189
:105A60000F018F5F8B3008F08AE080930F010E9456
:105A7000D60E80916A038F5F80936A03853009F4A4
:105A80004FC20E949A118091AD01813009F475C016
:105A9000E8F1823009F4A8C0833009F0DFC06091DA
:105AA00062027091630280916402909165020E948B
:105AB000B1313091660208E028E049E956E0832FD1
:105AC00090E00E94A3116091680270916902809138
:105AD0006A0290916B020E94B13130916C0228E011
