:100000000C94E6090C940E0A0C940E0A0C940E0A39
:100010000C940E0A0C940E0A0C940E0A0C940E0A00
:100020000C940E0A0C940E0A0C94BA1A0C94FD1B34
:100030000C940E0A0C940E0A0C940E0A0C940E0AE0
:100040000C940E0A0C940E0A0C940E0A0C940E0AD0
:100050000C940E0A0C940E0A0C940E0A0C94410B8C
:100060000C940E0A0C940E0A0C940E0A0C940E0AB0
:100070000C940E0A0C940E0A0C940E0A0C940E0AA0
:100080000C940E0A0C940E0A0C940E0A0C940E0A90
:100090000C940E0A0C940E0A0C940E0A0C940E0A80
:1000A0000C940E0A0C940E0A0C940E0A280A2B0AC1
:1000B0001A0A1E0A240A4C0A4C0A4C0A2F0A330A4E
:1000C000370A3D0A410A4C0A470A00000000240092
:1000D00027002A002D003000040802011040804053
:1000E000102040804080080204018040201002015E
:1000F0001080102040402000000000250028002B28
:10010000002E00310004040404040304050202026A
:1001100002040302020202060606060606040402A0
:1001200002020404FFFFFFFFFFFFFFFFF0F0F0F00B
:10013000FFFFFFFFFFFFFFFFF0F0F0F0F0F0F0F047
:10014000F0F0F0F00F0F0F0FFFFFFFFF00000000B7
:10015000FFFFFFFF0F0F0F0FF0F0F0F000000000A7
:10016000F0F0F0F0AA55AA55AA55AA55AF5FAF5FB7
:10017000AF5FAF5FFAF5FAF5FAF5FAF5FFFFF9FFB1
:10018000FFF9FFFFFFB783B5B5BDBBFFFFFFA3AB13
:1001900001AB8BFFFFFFFFB7FFFFFFFFFFFBFDFD85
:1001A000ADF5FBFFFFFFFFFFC3BDFFFFFFFFBDC3BB
:1001B000FFFFFFFFFFFFFFBBD7EFFFFFFFFFFFEFDB
:1001C000D7BBFFFFFFFFD7D7D7D7D7FFFFFFEFEF93
:1001D00083EFEFFFFFFFEFEFEFEFEFFFFFFFEFAB7F
:1001E000C7ABEFFFFFFFBFDFEFF7FBFFFFFF7F9B1B
:1001F000FFFFFFFFFFFFFF7F9FFFFFFFFFFFFF9F4F
:100200009FFFFFFFFFC39DADB5B9C3FFFFFFBBBDA0
:1002100081BFBFFFFF9BADADADADB3FFFFDBBDBD8C
:10022000B5B5CBFFFFCFD7DB81DFDFFFFFD1B5B5A2
:10023000B5B5CDFFFFC3B5B5B5B5CFFFFFFDFD9D8E
:10024000EDF5F9FFFFCBB5B5B5B5CBFFFFF3ADAD20
:10025000ADADC3FFFF83EDEDEDED83FFFF81B5B5E0
:10026000B5B5CBFFFFC3BDBDBDBDDBFFFF81BDBDD0
:10027000BDDBE7FFFF81B5B5B5B5BDFFFF81F5F586
:10028000F5F5FDFFFFC3BDBDADADCBFFFF81F7F7BA
:10029000F7F781FFFFFFBDBD81BDBDFFFFCFBFBF32
:1002A000BFBFC1FFFF81F7F7EBDDBFFFFF81BFBF1E
:1002B000BFBFBFFFFF81FBF7F7FB81FFFF81FBF7AC
:1002C000EFDF81FFFFC3BDBDBDBDC3FFFF81EDED0E
:1002D000EDEDF3FFFFC3BDAD9DBDC3FFFF81EDEDB0
:1002E000EDCDB3FFFFDBB5B5B5B5CFFFFDFDFD81AE
:1002F000FDFDFDFFFFC1BFBFBFBFC1FFFFE1DFBF0E
:10030000BFDFE1FFFFC1BFDFDFBFC1FFFFBDDBE735
:10031000E7DBBDFFFDFBF78FF7FBFDFFFFBD9DADED
:10032000B5B9BDFF0000180A0A000E0FF0F0F0E0AA
:10033000E0E0C1C1F0F0F1F1E1E1C0C0E0F1E0E1E5
:10034000F1E1D0E001000010011000000060206029
:10035000200060100002021236E2101901000010A5
:1003600011100002F0E0E0F1F1F1C0C00020000047
:10037000C04140214261000088DA057A0000100087
:1003800010030000F0E0E1E1F1F1C0C00021000144
:10039000C140412042210000089A65FA45E0002052
:1003A00000075DCC151F000020F5051E0010100190
:1003B000100000000F0E0F0F0F1E0D0C00000000AC
:1003C000000000000F0F0F0F0F0F0F0F0F0F0F0F79
:1003D0000F0F0F0F000000000000001000000000D1
:1003E00000000011000001000101011000010000E7
:1003F00001000011000100010001001100010100D5
:1004000010110100020000001817001073F0F071C5
:10041000E9F7E2D203000000091500120300010011
:100420000914120003010000190410020101000167
:10043000110010100000001100100010000000005A
:1004400000001010030100020A0412020000011152
:100450000010000000000011001010110301001135
:100460000805021203010010090512020000001025
:100470000100101070F0F070F1F0F0E073F0F07126
:10048000F9F5F2F270F0F070E0E0E0E10300000056
:10049000080402020000000000000000000000004C
:1004A000000000000000000000000000000000004C
:1004B000000000000000000000000000000000003C
:1004C00000000000030100030A05020020100000E4
:1004D0009060100022111001996611003201010193
:1004E000996611000300000109060100008E7010DA
:1004F00050829E8E0003FC52A5F3A1060000FFFD72
:10050000008184100070EF13086011210007FE5471
:10051000A1F4A00200801F0D1283809600E31C84CA
:1005200054E067A3007E021E027E007E127E0072EF
:100530004A46007E427E007E4272004E4A7A0000A9
:1005400000000000FFFFFFFFFFFFFFFFFFFFFFFFB7
:10055000FFFFFFFFFFFFFFFFFFFFFFFFFFFFFFFFAB
:10056000FFFFFFFFFFFFFFFFFFFFFFFFFFFFFFFF9B
:10057000FFFFFFFF0000005488540000548854001F
:1005800000548854000054885400000000000015F6
:1005900008150000150815000015081500001508BD
:1005A00015000000FFFFFFFFFFFFFFFFFFFFFFFF42
:1005B000FFFFFFFFFFFFFFFFFFFFFFFFFFFFFFFF4B
:1005C000FFFFFFFFFFFFFFFFFFFFFFFFFFFFFFFF3B
:1005D000FFFFFFFFC0E0F0787C7C7C7E7E7F7F7F2A
:1005E0007F7F7F7E1E1C7C7C78F0E0C003070F1E9F
:1005F0003E3E3E7E7EFEFEFEFEFEFE7E78383E3EA7
:100600001E0F0703800080000000000005020502A5
:1006100005000000000000000050A0500A050A0577
:10062000000000000001000000000100A050A050E8
:10063000A0010001FFFF838393939C9C1F0F07077A
:1006400007070F1F9C9C93938383FFFFFFFFFFFF10
:1006500087879999F8F2E0C0C0E0F2F89999878706
:10066000FFFFFFFF00001000040040804480408036
:1006700044804080448040000400100000001100CD
:1006800000002102010221020102210201022100D7
:1006900000001100FFFFFFFFFFFFFF7FFFFFFFFFD5
:1006A000FFFFFF7FFFFFFFFFFFFFFFFFFFFFFFFFDA
:1006B000FFFFFFFFFFFFFFFFFFFFFFFFFFFFFFFF4A
:1006C000FFFFFFFFFFFFFFFFFB83FBFF83EF83FFC6
:1006D000BB83BBFFA3AB8BFFFFFFFFFFFFFFFFFF52
:1006E000FFFFF0EFF0EFF0FFE0FAE0FFF8E3F8FFD4
:1006F000FFFFFFFFFFFF1F5F5FDFFFDFBF7FBFDF8A
:10070000FFFF1FFFFFDFDF1FDFDFFFFFFFFFFCFD3E
:10071000FDFDFFFDFEFFFEFDFFFFFCFFFFFFFFFCF9
:10072000FFFFFFFF800080000000000005020502BF
:1007300005000000000000000050A0500A050A0556
:10074000000000000000000000000000A050A050C9
:10075000A0010001FFFFFFFFE1E199991F0F0707CB
:1007600007070F1F9999E1E1FFFFFFFFFFFF81815D
:1007700099993939F8F0E0C0C0E0F0F83939999921
:100780008181FFFF000044000000844080408440DD
:100790008040844080408400000044000000040049
:1007A00020000201220102012201020122010200B5
:1007B00020000400FFFFFFFFFFFF1F1F9F9F01019D
:1007C00001019F9F1F1FFFFFFFFFFFFFFFFFFFFFB5
:1007D000FFFF3C3C0303F0F0F0F003033C3CFFFF61
:1007E000FFFFFFFFFFFFFFFFFFFF1F1F9F9F010195
:1007F00001019F9F1F1FFFFFFFFFFFFFFFFFFFFF85
:10080000FFFF3C3C0303F0F0F0F003033C3CFFFF30
:10081000FFFFFFFFFFFFFF01017F7F3F1F9F0101E0
:1008200001019F9F1F1FFFFFFFFFFFFFFFFFFFFC57
:10083000FCFE3E3E0303F0F0F0F003033C3CFFFF00
:10084000FFFFFFFFFFFFFF01017F7F3F1F9F0101B0
:1008500001019F9F1F1FFFFFFFFFFFFFFFFFFFFC27
:10086000FCFE3E3E0303F0F0F0F003033C3CFFFFD0
:10087000FFFFFFFFFFFFFFFF1F1F9F1F9F1F810144
:1008800081019F1F9F1F1F1FFFFFFFFFFFFFFFFF34
:10089000FCFC3E3D0201F2F1F2F102013E3DFCFCA6
:1008A000FFFFFFFFFFFFFFFF1F1F9F1F9F1F810114
:1008B00081019F1F9F1F1F1FFFFFFFFFFFFFFFFF04
:1008C000FCFC3E3D0201F2F1F2F102013E3DFCFC76
:1008D000FFFFFFFFFFFFFFFFFFFF1F1F9F9F0101A4
:1008E00001019F9F1F1FFFFFFFFFFFFFFFFFFFFF94
:1008F000FFFF3C3C0303F0F0F0F0C3C3CCCCFFFFA0
:10090000FFFFFFFFFFFFFFFFFFFF1F1F9F9F010173
:1009100001019F9F1F1FFFFFFFFFFFFFFFFFFFFF63
:10092000FFFFCCCCC3C3F0F0F0F003033C3CFFFF6F
:10093000FFFFFFFFFFFFFF01017F7F3F1F9F0101BF
:1009400001019F9F1F1FFFFFFFFFFFFFFFFFFFFC36
:10095000FCFE3E3E0303F0F0F0F0C3C3CCCCFFFF3F
:10096000FFFFFFFFFFFFFF01017F7F3F1F9F01018F
:1009700001019F9F1F1FFFFFFFFFFFFFFFFFFFFC06
:10098000FCFECECEC3C3F0F0F0F003033C3CFFFF0F
:10099000FFFFFFFFFFFFFFFF1F1F9F1F9F1F0101A3
:1009A00001019F1F9F1F1F1FFFFFFFFFFFFFFFFF93
:1009B000FCFC3E3D0201F0F0F0F0C2C1CECDFCFCEB
:1009C000FFFFFFFFFFFFFFFF1F1F9F1F9F1F010173
:1009D00001019F1F9F1F1F1FFFFFFFFFFFFFFFFF63
:1009E000FCFCCECDC2C0F0F0F0F002013E3DFCFCBC
:1009F000FFFFFFFFFFFFFFFFFFFF1F1F9F9F010183
:100A000001019F9F1F1FFFFFFFFFFFFFFFFFFFFF72
:100A1000FFFF3C3C0303F0F0F0F0C3C3CCCCFFFF7E
:100A2000FFFFFFFFFFFFFFFFFFFF1F1F9F9F010152
:100A300001019F9F1F1FFFFFFFFFFFFFFFFFFFFF42
:100A4000FFFFCCCCC3C3F0F0F0F003033C3CFFFF4E
:100A5000FFFFFFFFFFFFFF01017F7F3F1F9F01019E
:100A600001019F9F1F1FFFFFFFFFFFFFFFFFFFFC15
:100A7000FCFE3E3E0303F0F0F0F0C3C3CCCCFFFF1E
:100A8000FFFFFFFFFFFFFF01017F7F3F1F9F01016E
:100A900001019F9F1F1FFFFFFFFFFFFFFFFFFFFCE5
:100AA000FCFECECEC3C3F0F0F0F003033C3CFFFFEE
:100AB000FFFFFFFFFFFFFFFF1F1F9F1F9F1F810102
:100AC00081019F1F9F1F1F1FFFFFFFFFFFFFFFFFF2
:100AD000FCFC3E3D0201F2F1F2F1C2C1CECDFCFCC4
:100AE000FFFFFFFFFFFFFFFF1F1F9F1F9F1F8101D2
:100AF00081019F1F9F1F1F1FFFFFFFFFFFFFFFFFC2
:100B0000FCFCCECDC2C1F2F1F2F102013E3DFCFC93
:100B1000FFFFFFFFFFFFFFFFFF7F7F7F616101019D
:100B20001F1F9F9F1F1FFFFFFFFFFFFFFFFFFF9F75
:100B30009F8282F2F2F2F0F0F0F0C3C30C0CFFFFE0
:100B4000FFFFFFFFFFFFFFFFFFFFFFFFE1E10101ED
:100B50001F1FFFFFFFFFFFFFFFFFFFFFFFFFFFFF65
:100B6000FFFFFF3F3F0300F0F0F0F3F3C3C3FFFFCD
:100B7000FFFFFFFFFFFFFF01017F7F7F6161010139
:100B80001F1F9F9F1F1FFFFFFFFFFFFFFFFFFF9C18
:100B90009C8282F2F2F2F0F0F0F0C3C30C0CFFFF83
:100BA000FFFFFFFFFFFFFF01017F7F7F6161010109
:100BB0001F1FFFFFFFFFFFFFFFFFFFFFFFFFFFFC08
:100BC000FCFEFE3E3E0200F0F0F0F3F3C3C3FFFF75
:100BD000FFFFFFFFFFFFFFFFFF3F5F3F616101017D
:100BE0001F1F9F9F1F1FFFFFFFFFFFFFFFFFFF9FB5
:100BF0009F8284F2F2F2F0F0F0F0C3C30C0CFFFF1E
:100C0000FFFFFFFFFFFFFFFFFF3F5F3F616101014C
:100C10001F1FFFFFFFFFFFFFFFFFFFFFFFFFFFFFA4
:100C2000FFFAFC3A3E0200F0F0F0F3F3C3C3FFFF1B
:100C3000FFFFFFFFFFFFFFFFFFFF1F1F9F9F1F1F04
:100C4000010161617F7F7FFFFFFFFFFFFFFFFFFF6C
:100C5000FFFF0C0CC3C3F0F0F0F0F2F2F282829FBF
:100C60009FFFFFFFFFFFFFFFFFFFFFFFFFFF1F1FB4
:100C70000101E1E1FFFFFFFFFFFFFFFFFFFFFFFFBC
:100C8000FFFFC3C3F3F3F0F0F000033F3FFFFFFFAC
:100C9000FFFFFFFFFFFFFFFFFFFF1F1F9F9F1F1FA4
:100CA000010161617F7F7F0101FFFFFFFFFFFFFF08
:100CB000FFFF0C0CC3C3F0F0F0F0F2F2F282829C62
:100CC0009CFFFFFFFFFFFFFFFFFFFFFFFFFF1F1F57
:100CD000010161617F7F7F0101FFFFFFFFFFFFFFD8
:100CE000FFFFC3C3F3F3F0F0F000023E3EFEFEFC54
:100CF000FCFFFFFFFFFFFFFFFFFF1F1F9F9F1F1F47
:100D0000010161613F5F3FFFFFFFFFFFFFFFFFFF4B
:100D1000FFFF0C0CC3C3F0F0F0F0F2F2F284829FFC
:100D20009FFFFFFFFFFFFFFFFFFFFFFFFFFF1F1FF3
:100D3000010161613F5F3FFFFFFFFFFFFFFFFFFF1B
:100D4000FFFFC3C3F3F3F0F0F000023E3AFCFAFFFA
:100D5000FFFFFFFFFFFFE3E3E3E3838307070303F3
:100D60003333F3F3F3F3F3F3F3F3F3F3FFFFFFFFA3
:100D7000F3F3F3F310109E9E8080FCFCFCFCE0E09B
:100D8000E7E7FFFFFFFFFFFFF3F313139393939343
:100D9000939303031F1F03038383FFFFFFFFFFFFE3
:100DA000F3F3F0F03F3F0000FCFCE4E4E6E6E0E0B3
:100DB000FFFFFFFFFFFFFFFFFFFFF3F30303F3F36B
:100DC00013131313F3F3F3F3FFFFFFFF3F3F070783
:100DD000E7E7E7E7E4E4E0E0E0E0E2E203033333FF
:100DE0008383FFFF000F0F0F0F000000000A050AAA
:100DF0000504040E0400060200050B050F0D010D8D
:100E00000F0F0B0F0F0F0B0B0F0006060005080549
:100E10000F070101070000000000003E5B4F5B3E32
:100E20003E6B4F6B3E1C3E7C3E1C183C7E3C181CAF
:100E3000577D571C1C5E7F5E1C00183C1800FFE7A6
:100E4000C3E7FF0018241800FFE7DBE7FF30483A4C
:100E5000060E2629792926407F050507407F0525AE
:100E60003F5A3CE73C5A7F3E1C1C08081C1C3E7F36
:100E700014227F22145F5F005F5F06097F017F00FD
:100E80006689956A606060606094A2FFA29408041D
:100E90007E040810207E201008082A1C08081C2A3E
:100EA00008081E101010100C1E0C1E0C30383E3896
:100EB00030060E3E0E06000000000000005F00003D
:100EC0000007000700147F147F14242A7F2A1223AE
:100ED0001308646236495620500008070300001CBE
:100EE0002241000041221C002A1C7F1C2A08083EC7
:100EF00008080080703000080808080800006060DA
:100F00000020100804023E5149453E00427F400047
:100F100072494949462141494D331814127F10271F
:100F2000454545393C4A494931412111090736496E
:100F3000494936464949291E000014000000403442
:100F40000000000814224114141414140041221447
:100F50000802015909063E415D594E7C1211127C6E
:100F60007F494949363E414141227F4141413E7FCF
:100F7000494949417F090909013E414151737F08AF
:100F800008087F00417F41002040413F017F081455
:100F900022417F404040407F021C027F7F040810B6
:100FA0007F3E4141413E7F090909063E4151215E94
:100FB0007F09192946264949493203017F01033F28
:100FC0004040403F1F2040201F3F4038403F6314B7
:100FD00008146303047804036159494D43007F41B9
:100FE00041410204081020004141417F04020102F6
:100FF000044040404040000307080020545478401B
:101000007F284444383844444428384444287F38AE
:101010005454541800087E090218A4A49C787F0830
:1010200004047800447D40002040403D007F1028AB
:10103000440000417F40007C047804787C0804046C
:10104000783844444438FC1824241818242418FC04
:101050007C08040408485454542404043F44243CA9
:101060004040207C1C2040201C3C4030403C442818
:101070001028444C9090907C4464544C44000836B2
:101080004100000077000000413608000201020420
:10109000023C2623263C1EA1A161123A4040207A40
:1010A000385454555921555579412154547841218A
:1010B0005554784020545579400C1E5272123955BF
:1010C00055555939545454593955545458000045BC
:1010D0007C410002457D420001457C40F0292429E5
:1010E000F0F0282528F07C545545002054547C54B9
:1010F0007C0A097F493249494932324848483232EC
:101100004A4848303A4141217A3A42402078009D8D
:10111000A0A07D39444444393D4040403D3C24FF3B
:101120002424487E4943662B2FFC2F2BFF0929F6E8
:1011300020C0887E090320545479410000447D4139
:101140003048484A32384040227A007A0A0A727D92
:101150000D19317D2629292F2826292929263048AD
:101160004D4020380808080808080808382F10C81B
:10117000ACBA2F102834FA00007B000008142A149F
:101180002222142A14089500220095AA005500AACC
:10119000AA55AA55AA000000FF00101010FF001465
:1011A0001414FF001010FF00FF1010F010F01414C2
:1011B00014FC001414F700FF0000FF00FF1414F4E7
:1011C00004FC141417101F10101F101F1414141FE8
:1011D00000101010F0000000001F101010101F1061
:1011E000101010F010000000FF1010101010101060
:1011F0001010FF10000000FF140000FF00FF0000AF
:101200001F10170000FC04F414141710171414F422
:1012100004F40000FF00F714141414141414F7005D
:10122000F7141414171410101F101F141414F414AE
:101230001010F010F000001F101F0000001F14001D
:101240000000FC140000F010F01010FF10FF141448
:1012500014FF141010101F00000000F010FFFFFF1B
:10126000FFFFF0F0F0F0F0FFFFFF0000000000FFD4
:10127000FF0F0F0F0F0F38444438447C2A2A3E14C6
:101280007E02020606027E027E02635549416338F1
:1012900044443C04407E201E2006027E020299A5A2
:1012A000E7A5991C2A492A1C4C7201724C304A4D00
:1012B0004D303048784830BC625A463D3E49494935
:1012C000007E0101017E2A2A2A2A2A44445F4444DE
:1012D00040514A444040444A51400000FF0103E06D
:1012E00080FF000008086B6B083612362436060FA4
:1012F000090F06000018180000001010003040FF11
:101300000101001F01011E00191D1712003C3C3C89
:101310003C0000000000000000002300260029001F
:101320002C002F000000000200090F000003040140
:10133000000C0000000000000000000000000000A1
:10134000000000080B000202020100090400000175
:1013500002020000052400100105240101010424FB
:101360000206052406000107058103100040090458
:101370000100020A00000007050202400000070504
:1013800083024000000403090441726475696E6FB2
:10139000204C4C430041726475696E6F204C656F40
:1013A0006E6172646F001201000200000040412370
:1013B000368000010102030112010002EF02014028
:1013C00041233680000101020301F02611241FBED3
:1013D000CFEFDAE0DEBFCDBF2AE0A2E1B4E001C08A
:1013E0001D92A432B207E1F714E0A0E0B1E0E4EB13
:1013F000F5E502C005900D92A231B107D9F719E0C9
:10140000C6EED9E004C02197FE010E941B27C53E0D
:10141000D107C9F70E943A1E0C94D82A0C940000F8
:1014200090E0FC013197EF30F105B0F5EA5AFF4F3B
:101430000C941B27809180008F7703C080918000DF
:101440008F7D80938000089580918000877FF9CF01
:1014500084B58F7702C084B58F7D84BD0895809157
:1014600090008F7707C0809190008F7D03C080919E
:101470009000877F8093900008958091C0008F77BF
:1014800003C08091C0008F7D8093C000089580913B
:10149000C200877F8093C2000895CF93DF93282FE7
:1014A00030E0F901EC5DFC4E8491F901E852FF4F08
:1014B000D491F901EB5FFE4FC491CC2391F08111DF
:1014C0000E94100AEC2FF0E0EE0FFF1FEA5EFC4EC8
:1014D000A591B491EC91ED2381E090E021F480E0BE
:1014E00002C080E090E0DF91CF9108953FB7F8947B
:1014F00080912A0490912B04A0912C04B0912D048A
:1015000026B5A89B05C02F3F19F00196A11DB11D5E
:101510003FBFBA2FA92F982F8827820F911DA11D99
:10152000B11DBC01CD0142E0660F771F881F991FD6
:101530004A95D1F708951F93CF93DF93282F30E07A
:10154000F901EC5DFC4E8491F901E852FF4FD49112
:10155000F901EB5FFE4FC491CC23C9F0162F811126
:101560000E94100AEC2FF0E0EE0FFF1FE950FF4F32
:10157000A591B4918FB7F894111105C09C91ED2FEE
:10158000E095E92302C0EC91ED2BEC938FBFDF9146
:10159000CF911F910895CF93DF9390E0FC01E85223
:1015A000FF4F2491FC01EB5FFE4F8491882361F192
:1015B00090E0880F991FFC01E653FF4FC591D4912D
:1015C000FC01E950FF4FA591B491611109C09FB78B
:1015D000F8948881209582238883EC912E230BC078
:1015E000623061F49FB7F8943881822F809583230D
:1015F0008883EC912E2B2C939FBF06C08FB7F89455
:10160000E8812E2B28838FBFDF91CF9108958F9291
:101610009F92AF92BF92CF92DF92EF92FF926B01B7
:101620007C010E94760A4B015C01C114D104E104E3
:10163000F104F1F00E94760ADC01CB0188199909C6
:10164000AA09BB09883E9340A105B10570F321E0CA
:10165000C21AD108E108F10888EE880E83E0981ECE
:10166000A11CB11CC114D104E104F10419F7DDCFB0
:10167000FF90EF90DF90CF90BF90AF909F908F90B2
:1016800008951F920F920FB60F9211242F933F933C
:101690008F939F93AF93BF93809112049091130403
:1016A000A0911404B09115043091290423E0230F74
:1016B0002D3720F40196A11DB11D05C026E8230F8A
:1016C0000296A11DB11D20932904809312049093CA
:1016D0001304A0931404B093150480912A049091EC
:1016E0002B04A0912C04B0912D040196A11DB11DD5
:1016F00080932A0490932B04A0932C04B0932D0480
:10170000BF91AF919F918F913F912F910F900FBEFD
:101710000F901F9018959F92AF92BF92CF92DF9239
:10172000EF92FF920F931F93CF93DF9300D000D0DF
:1017300000D0CDB7DEB76C015901FA0180818B0171
:1017400077FF02C0095F1F4F93E0159507959A95A3
:10175000E1F77A01FFEFEF1AFF0A99249A948823A0
:10176000A9F125E0829FC0011124DE01119620E03D
:1017700030E0E1E0AE16B10471F4F901E80FF91FB1
:10178000EA5EF14FE491ED932F5F3F4F2530310535
:10179000A1F71E820EC0F901E80FF91FEA5EF14FB2
:1017A000E491E095ED932F5F3F4F2530310599F798
:1017B0009E82A801B601CE0101960E94E619F701AA
:1017C00081917F01F6E0CF0ED11CC9CF26960FB6CE
:1017D000F894DEBF0FBECDBFDF91CF911F910F9167
:1017E000FF90EF90DF90CF90BF90AF909F900895C3
:1017F0000E94302A20E030E041E050E00E943E2A82
:10180000CB010895BC0180E090E061157105810570
:10181000910511F00C94352A08950E94760ACB01A7
:101820000895BC01990F880B990B0C94070BCF936B
:1018300084E10E944D0A892B11F4C0E201C0C0E08E
:1018400082E10E944D0A892B09F4C06183E10E9464
:101850004D0A892B09F4C86085E10E944D0A892B45
:1018600009F4C46087E00E944D0A892B09F4C16025
:1018700088E00E944D0A892B09F4C260C5FD0DC0A5
:10188000C4FD0EC0C3FD0FC0C2FD10C0C0FD11C01D
:10189000C1FD12C080E090E011C084E090E00EC075
:1018A00081E090E00BC088E090E008C082E090E02A
:1018B00005C080E190E002C080E290E0CF91089501
:1018C0008EBD00000DB407FEFDCF8EB50895DF92EA
:1018D000EF92FF920F931F93CF93DF9300D000D02E
:1018E00000D0CDB7DEB78A01660F771F660F771F6E
:1018F000880F991F880F991FAE014F5F5F4F7A01C4
:10190000DA0140E050E0FA01E60FF71FEB51F24F29
:10191000D490FA01E80FF91FEB51F24FE491F0E196
:10192000DF9EE00D1124ED934F5F5F4F4430510572
:1019300051F7E091B709F091B80990818091BD0904
:10194000892B8083E091B909F091BA099081809147
:10195000BE09809589238083E091B709F091B80989
:1019600090818091BD0980958923808380E22D83B9
:101970003E830E94600C80E00E94600C81E20E9425
:10198000600C000F111F000F111F802F8F770E9416
:10199000600C83E0800F8F770E94600C82E20E94CF
:1019A000600C2D81822F3E81932F97FD0196959596
:1019B0008795182F1770812F0E94600C812F0E942D
:1019C000600CE091B909F091BA0990818091BE094B
:1019D000892B8083E091B709F091B80990818091BB
:1019E000BD098095892380838E010B5F1F4FF7010E
:1019F00081917F010E94600CE016F106C1F72696E6
:101A00000FB6F894DEBF0FBECDBFDF91CF911F910F
:101A10000F91FF90EF90DF900895CF92DF92EF92B9
:101A2000FF920F931F93CF93DF936B01EA0120E3A3
:101A3000AC01249FC001259F900D11249C012C5BBB
:101A40003A4F7901E091B709F091B80990818091FE
:101A5000BD09892B8083E091B909F091BA09908181
:101A60008091BE09809589238083E091B709F09128
:101A7000B80990818091BD0980958923808380E297
:101A80000E94600C80E00E94600C81E20E94600C69
:101A900088E18C9D80018D9D100D11240C5F1F4FDE
:101AA000802F8F770E94600C87E1800F8F770E94D4
:101AB000600C82E20E94600CCC0FDD1F8C2F8770BF
:101AC0000E94600C8C2F8F5F87700E94600CE091E9
:101AD000B909F091BA0990818091BE09892B808360
:101AE000E091B709F091B80990818091BD09809586
:101AF00089238083C0E0D0E0F701EC0FFD1F8491C3
:101B00000E94600C2196C033D105B1F7DF91CF91CF
:101B10001F910F91FF90EF90DF90CF900895BF92AB
:101B2000CF92DF92EF92FF920F931F93CF93DF93A9
:101B30008C01B62ED72F7A016901E091B709F09197
:101B4000B80990818091BD09892B8083E091B90902
:101B5000F091BA0930812091BE092095232320837A
:101B6000E091B709F091B80930812091BD09209525
:101B70002323208380E20E94600C80E00E94600C9E
:101B800081E20E94600C8B2D9D2F60E870E00E9426
:101B90000727CFEFCE0DC80F8F770E94600C8C2FD8
:101BA0008F770E94600C82E20E94600CEB2DFD2F6B
:101BB000F7FF02C0E158FF4FEE0FEF2FEE1FFF0BB4
:101BC000CE2FC7708C2F0E94600C8C2F0E94600C4F
:101BD000E091B909F091BA0990818091BE09892BF1
:101BE0008083E091B709F091B80990818091BD0997
:101BF000809589238083C0E0D0E0CD2861F0CE15A8
:101C0000DF05A4F4F801EC0FFD1F849180950E947C
:101C1000600C2196F4CFCE15DF0544F4F801EC0FEB
:101C2000FD1F84910E94600C2196F5CFDF91CF912A
:101C30001F910F91FF90EF90DF90CF90BF9008958C
:101C4000CF93DF93E091B709F091B809908180912B
:101C5000BD09892B8083E091B909F091BA0990817F
:101C60008091BE09809589238083E091B709F09126
:101C7000B80990818091BD0980958923808380E295
:101C80000E94600C80E00E94600C81E20E94600C67
:101C900080E00E94600C8FE70E94600C82E20E944C
:101CA000600C80E00E94600C87E00E94600CE09174
:101CB000B909F091BA0990818091BE09892B80837E
:101CC000E091B709F091B80990818091BD098095A4
:101CD00089238083C0E0D0E0C0FF02C08AEA01C04F
:101CE00085E50E94600C2196C11584E0D807A1F714
:101CF000DF91CF910895CF93DF93E091B709F091F1
:101D0000B80990818091BD09892B8083E091B90940
:101D1000F091BA0990818091BE09809589238083D2
:101D2000E091B709F091B80990818091BD09809543
:101D30008923808380E20E94600C80E00E94600C16
:101D400081E20E94600C80E00E94600C8FE70E949C
:101D5000600C82E20E94600C80E00E94600C87E0D0
:101D60000E94600CE091B909F091BA0990818091CC
:101D7000BE09892B8083E091B709F091B809908161
:101D80008091BD09809589238083C0E0D4E08FEFE6
:101D90000E94600C2197D9F7DF91CF910895EF92BF
:101DA000FF920F931F93CF93DF93CDB7DEB72A97A0
:101DB0000FB6F894DEBF0FBECDBF8FE395E00E9453
:101DC0001B12019729F02FE3E22E25E0F22E04C02A
:101DD00091E4E92E95E0F92E69E070E080E095E06D
:101DE0000E941E136DE070E080E495E00E941E13D7
:101DF00081E190E090931D0480931C040EE110E0BB
:101E0000C7010E94321620911804309119044BE347
:101E100053E068E370E084E190E00E948B0B21E0E6
:101E200030E08091180490911904892B11F020E082
:101E300030E0309319042093180488EC90E00E945D
:101E4000110C01501109E1F66AE070E080E495E0C0
:101E50000E941E130E94200E8091000190910101AA
:101E600002970CF47FC020E030E04AE453E068E0E1
:101E700070E08CE090E00E948B0B809123048F93A4
:101E8000809122048F9389E5E82E83E0F82EFF925B
:101E9000EF928E010F5F1F4F1F930F930E944127F8
:101EA00020E030E0A80168E070E080E690E00E9469
:101EB0008B0B20E030E04CE553E060E170E08CE01B
:101EC00090E00E948B0B809121048F9380912004DD
:101ED0008F93FF92EF921F930F930E94412720E070
:101EE00030E0A80160E170E08EE490E00E948B0B8E
:101EF00020E030E048E653E068E170E08CE090E0FC
:101F00000E948B0B80912204909123046AE070E080
:101F10000E940727709323046093220420912004D9
:101F2000309121044AE0429FC001439F900D11244B
:101F30000E9407277F936F938FE693E09F938F9381
:101F40001F930F930E94412720E030E0A80168E131
:101F500070E080E390E00E948B0B0FB6F894DEBF38
:101F60000FBECDBF2A960FB6F894DEBF0FBECDBF11
:101F7000DF91CF911F910F91FF90EF9008950F93F4
:101F80001F93CF93DF93EC0185E090E090931D04C5
:101F900080931C0465E070E0CE010E941E13109235
:101FA00019041092180404E110E0CE010E943216C8
:101FB00081E090E02091180430911904232B11F056
:101FC00080E090E0909319048093180484E690E0F8
:101FD0000E94110C0150110941F70E94521A84E627
:101FE00090E00E94110C04E110E0CE010E94321634
:101FF000209118043091190444E753E060E370E045
:102000008EE090E00E948B0B20911804309119040F
:1020100045E853E068E370E08EE090E00E948B0BAF
:1020200081E090E02091180430911904232B11F0E5
:1020300080E090E0909319048093180488EC90E07D
:102040000E94110C80911E0490911F04049729F4A2
:1020500066E070E0CE010E941E130150110929F6BE
:10206000DF91CF911F910F910C94200ECF93DF93AE
:102070000E94521A1092190410921804C4E1D0E080
:10208000209118043091190446E953E068E170E0AA
:1020900080E190E00E948B0B20911804309119048C
:1020A00047EA53E060E270E080E190E00E948B0B31
:1020B00081E090E02091180430911904232B11F055
:1020C00080E090E0909319048093180488EC90E0ED
:1020D0000E94110C2197A1F6DF91CF9108950E94E3
:1020E000521A21E030E048EB53E068E170E08AE208
:1020F00090E00E948B0B8CED95E00C94110C0F93EB
:102100001F93CF93DF93C0E8D0E000E010E0CE0152
:102110000E941B128D7F089711F40F5F1F4F2196AD
:10212000C0388BE0D80799F70E943713C801DF91B8
:10213000CF911F910F910895EF92FF920F931F93EC
:10214000CF93DF93CDB7DEB72A970FB6F894DEBFF3
:102150000FBECDBF7C010E94200E21E030E042E79F
:1021600052E060E070E080E190E00E948B0B809193
:102170001E0490911F048E010F5F1F4F0497F1F50D
:1021800066E070E0C7010E941E1380E495E00E94A3
:102190006D1360E070E0C7010E941E1320E030E084
:1021A00040EC53E060E170E080E090E00E948B0B37
:1021B0000E947F109F938F9386ED93E09F938F9360
:1021C0001F930F930E94412720E030E0A80168E1AF
:1021D00070E082E390E00E948B0B20E030E045EC61
:1021E00052E068E370E08AE090E00E948B0B0F9071
:1021F0000F900F900F900F900F904EC0C7010E944C
:102200006D1320E030E04BED53E060E170E08AE0D8
:1022100090E00E948B0B0E947F107C01FF928F93B5
:1022200086ED93E09F938F931F930F930E94412716
:1022300020E030E0A80168E170E082E390E00E94D5
:102240008B0B0F900F900F900F900F900F9080912D
:1022500020049091210420E030E0892BA9F4EE0CB9
:10226000FF1CEE0CFF1CF0922104E0922004F0927F
:102270002304E092220480910001909101010297D1
:102280001CF04EEE53E002C045EC52E068E370E013
:102290008AE090E00E948B0B8091000190910101F7
:1022A0000297BCF120E030E04CE553E060E270E0E2
:1022B00080E190E00E948B0B809121048F938091AC
:1022C00020048F9387ED93E09F938F931F930F9339
:1022D0000E94412720E030E0A80160E270E082E542
:1022E00090E00E948B0B0F900F900F900F900F902B
:1022F0000F9080911E0490911F04892B51F420E0CF
:1023000030E041E054E068E270E080E190E00E945B
:102310008B0B0E945613809100019091010102974E
:1023200064F080912004909121048C3091052CF070
:102330000A9790932104809320040E94170C892B04
:10234000E1F70E94170C409721F5809100019091D0
:1023500001010297F4F080911E0490911F04892BD3
:10236000C1F482E090E090931F0480931E0480915A
:1023700020049091210497FD0196959587950196EB
:1023800090932104809320040E94170C4097E1F35E
:1023900004C00E94170C8097A1F60E94200E80E0D6
:1023A00090E02A960FB6F894DEBF0FBECDBFDF9146
:1023B000CF911F910F91FF90EF900895209106010A
:1023C0003091070143E4429FC001439F900D1124C7
:1023D00083509E4F60E071E00E94072790930701B1
:1023E0008093060108950E94DE118091060190916C
:1023F0000701803491054CF0803891054CF0803C09
:1024000091054CF084E090E0089581E090E008951B
:1024100082E090E0089583E090E008950E94F80B38
:1024200060E071E00E940727909307018093060106
:102430000C94DE11089580349105D4F08038910514
:10244000D4F0803C2BE092079CF480382BE092077C
:1024500094F49C0135952795F901E051FC4F80FFDC
:1024600003C08081829501C080818F7090E00895C3
:1024700082E090E0089581E090E00895DF92EF928D
:10248000FF920F931F93CF93DF9380E1E82E87E2B3
:10249000F82E9BE0D92E21E0E21AF10809F43FC0A2
:1024A00080910201909103010196811521E092072C
:1024B00029F0909303018093020104C0109203015C
:1024C0001092020180910201909103018D3A9105D1
:1024D00011F40E940E120E94DE118091060190916B
:1024E0000701D89E8001D99E100D1124E801C05823
:1024F000DF4FCE010E941B12019769F6C801815877
:102500009F4F0E941B12029731F2C8018F579F4FB5
:102510000E941B12029709F4BECFCE0102C080E0D8
:1025200090E0DF91CF911F910F91FF90EF90DF909E
:102530000895CF93DF93EC01815491090E941B12FF
:102540000197D1F4CE01805491090E941B1201978A
:1025500099F4CE01CF970E941B12019769F4CE0126
:10256000805891090E941B1231E020E0019709F088
:1025700030E0832F922F02C080E090E0DF91CF9176
:102580000895CF93DF93EC0101960E941B120197EF
:10259000C9F4CE0102960E941B12019799F4CE0154
:1025A0008F5B9F4F0E941B12019761F4CE01CF9762
:1025B0000E941B1231E020E0019709F030E0832FE8
:1025C000922F02C080E090E0DF91CF910895CF93E9
:1025D000DF93EC0101970E941B120197C9F4CE0111
:1025E00002970E941B12019799F4CE01CF960E9488
:1025F0001B12019769F4CE01815491090E941B12AC
:1026000031E020E0019709F030E0832F922F02C0E3
:1026100080E090E0DF91CF9108950E941B12009717
:1026200051F09C012750310981E090E022303105C2
:1026300020F080E0089581E090E008959C0120580A
:10264000310921153B4080F4FC01F595E795E051F7
:10265000FC4F80FF05C080818F706295607F02C053
:102660008081807F682B608380E090E00895CF9325
:10267000DF93C0E8D0E0CE010E941B128B309105A1
:1026800019F460E070E007C08C30910511F00A97F2
:1026900029F465E070E0CE010E941E132196C03837
:1026A0008BE0D80741F7DF91CF910895CF93DF9367
:1026B000C0E8D0E0CE010E941B120797029728F4D1
:1026C00060E070E0CE010E941E132196C0388BE0BE
:1026D000D80781F7DF91CF910895AF92BF92CF9243
:1026E000DF92EF92FF920F931F93CF93DF93EC0152
:1026F0000E945613CE010E941B12009719F468E045
:1027000070E004C0059729F46AE070E0CE010E94F1
:102710001E13CE0101960E941B12069709F47AC07F
:10272000CE0101970E941B12069709F473C0CE01D7
:10273000805C9F4F0E941B12069709F46BC0CE016C
:10274000805491090E941B12069709F463C08E0100
:102750000F5F1F4FC8010E941B12009711F4E80180
:10276000C9CF0597E1F35E0181E0A81AB108C50160
:102770000E941B12009711F48501F1CF0597E1F338
:102780006E0180E4C80ED11CC6010E941B12009786
:1027900011F48601E4CF0597E1F37E0180E4E81AA5
:1027A000F108C7010E941B12009711F48701D7CFCF
:1027B0000597E1F3CE010E941B128830910519F4B0
:1027C0006BE070E004C00A9729F46CE070E0CE0181
:1027D0000E941E13C8010E941B128D7F089711F4DE
:1027E000E801B5CFC5010E941B128D7F089711F437
:1027F0008501F6CFC6010E941B128D7F089711F448
:102800008601EECFC7010E941B128D7F089711F43D
:102810008701E6CF80E090E0DF91CF911F910F918B
:10282000FF90EF90DF90CF90BF90AF900895EF9220
:10283000FF920F931F93CF93DF938AEFE82E8AE0E6
:10284000F82E0E94F80BB7010E9407278C01EC01BB
:10285000C058DF4FCE010E941B12029791F3C801AE
:102860008F579F4F0E941B12029759F3C80181583E
:102870009F4F0E941B12029721F366E070E0CE0189
:102880000E941E13CE01DF91CF911F910F91FF90F7
:10289000EF9008959F92AF92BF92CF92DF92EF9206
:1028A000FF920F931F93CF93DF9380911A0490911F
:1028B0001B040E94020C83EC90E09093070180932C
:1028C000060181E090E0909305018093040186E485
:1028D00090E09093030180930201E12CFF24F39494
:1028E0002BE0D22EC0E0D0E0CE0180549109803898
:1028F0009B4038F4CE018F739927009711F0CF9742
:1029000019F462E070E002C061E070E0CE010E9464
:102910001E132196C1158CE0D80731F70E941714B9
:102920008C0190E1A92E97E2B92E0E94F31182301A
:10293000910551F08330910561F0049779F0C80159
:102940000E94E712892B59F5C8010E94C112892BF8
:1029500071F5C8010E949912892B89F5C801CF969B
:102960000E941B120197B1F4E801C05CDF4FCE0159
:102970000E941B12019771F4C8018F5B9F4F0E9448
:102980001B12019739F4C80180589F4F0E941B12F7
:102990000197C1F0C8010E94E712892B19F0E801E4
:1029A000219710C0C8010E94C112892B19F0E801BB
:1029B000219608C0C8010E949912892BC1F1E80133
:1029C000C054D10960E070E0CE010E941E138E0158
:1029D000ACCF80910401909105010196B7010E944E
:1029E00007279093050180930401892B11F40E941D
:1029F0000E120E94DE118091060190910701D89E6F
:102A00008001D99E100D1124E801C058DF4FCE017E
:102A10000E941B12892BD9F20A571F4F2196CE0113
:102A20000E941B12892B99F2C017D107B9F721E038
:102A3000A21AB10871F600E010E0C0E0D0E0CE01CB
:102A40000E941B12892B11F40F5F1F4F2196C11595
:102A50008CE0D807A1F7013B14400CF443CF61E0B0
:102A600070E08FEF94E00E941E1363E070E080E05E
:102A700095E00E941E1361E070E08FE795E00E94F0
:102A80001E1361E070E080E895E00E941E13C0E430
:102A9000D5E060E070E0CE010E941E138E0101506F
:102AA0001109C8010E941B12892BE1F0CE0181544B
:102AB00091090E941B12892B31F460E070E0CE0175
:102AC000805491090DC0CE01CF960E941B12892B14
:102AD00011F0E801DECF60E070E0CE01805C9F4F36
:102AE0000E941E1360E070E080E495E00E941E13D7
:102AF000C0E4D5E060E070E0CE010E941E138E01BC
:102B00000F5F1F4FC8010E941B12892BE1F0CE01FD
:102B1000CF970E941B12892B31F460E070E0CE0148
:102B2000805491090EC0CE018F5B9F4F0E941B12F3
:102B3000892B11F0E801DECF60E070E0CE01805C0F
:102B40009F4F0E941E1360E070E0CE010E941E1392
:102B50000E940E12C8E2D0E00E943E12009709F4D3
:102B6000C1CE63E070E00E941E132197A9F7CEE169
:102B7000D0E00E943E12009709F4B4CE64E070E009
:102B80000E941E132197A9F706E210E08BE0982E11
:102B9000C0E1D7E2219709F4A3CE80910201909180
:102BA00003010196811521E0920729F0909303011A
:102BB0008093020104C010920301109202018091DF
:102BC0000201909103018D3A910511F40E940E12B9
:102BD0000E94DE118091060190910701989E60018C
:102BE000999ED00C1124560180E8A80EB11CC50195
:102BF0000E941B12892B71F6C60181589F4F0E94BB
:102C00001B12029739F2C6018F579F4F0E941B1269
:102C1000029709F4BFCFA114B10409F461CE65E0B5
:102C200070E0C5010E941E130150110909F0B0CFD8
:102C3000DF91CF911F910F91FF90EF90DF90CF9098
:102C4000BF90AF909F900895CF93DF93EB0160E02A
:102C500070E00E941E1365E070E0CE01DF91CF911D
:102C60000C941E13CF92DF92EF92FF920F931F935B
:102C7000CF93DF937C0100E010E0C0E0D0E067017B
:102C800082E8C81AD108C6018C0F9D1F0E941B1232
:102C9000C230D10539F40230110521F480911C04B1
:102CA00090911D042091180420FF0BC085309105E0
:102CB00019F48BE090E005C086309105E9F48CE0D2
:102CC00090E0A801BE010E940D0D2196C530D105EE
:102CD000D1F60F5F1F4F80E4E80EF11C04301105A0
:102CE00061F680E090E0DF91CF911F910F91FF900E
:102CF000EF90DF90CF9008958430910511F78AE02E
:102D000090E0DFCFCF92DF92EF92FF920F931F936D
:102D1000CF93DF93D82FC92F8091000190910101AB
:102D2000029774F0209120043091210480911604C0
:102D300090911704820F931F909321048093200495
:102D400035E0E32EF12C45E0C42ED12C00E010E05C
:102D500000FD13C0C801959587958B9690931D042F
:102D600080931C04809118049091190421E082271B
:102D7000909319048093180404C0D0921D04C0924B
:102D80001C048D2F9C2F0E94321680E590E00E943B
:102D9000110C0F5F1F4F06301105D1F681E0E81AC4
:102DA000F108A1F660E070E08D2F9C2F0E941E13A9
:102DB00080911E0490911F04029729F410921F0421
:102DC00010921E0409C00E94DE11809106019091AC
:102DD0000701803891054CF08DE090E090931D0440
:102DE00080931C0480E090E002C08D2F9C2FDF9127
:102DF000CF911F910F91FF90EF90DF90CF900895AA
:102E00000F931F93CF93DF938C01EB01CB010E94B3
:102E10001B128130910531F480911E0490911F04A2
:102E20000D961BC08330910511F580911E04909181
:102E30001F04009719F461E070E004C0049729F4BE
:102E400066E070E0CE010E941E1382E090E0909355
:102E50001F0480931E048FE090E090931D048093E4
:102E60001C0410922F0410922E04C801CDC084308F
:102E7000910571F58091000190910101039729F46A
:102E800061E070E0CE010E941E130E9456138091F3
:102E90001E0490911F04049779F466E070E0C80165
:102EA0000E941E1380E495E00E946D1367E070E0BD
:102EB000C8010E941E1303C0C8010E946D130E9426
:102EC000371382E390E09093190480931804CDCFD8
:102ED00086309105C9F480911E0490911F040097DB
:102EE00019F461E070E004C0029729F463E070E037
:102EF000CE010E941E1384E090E090931F04809303
:102F00001E0481E190E0A9CF0597C1F467E070E06D
:102F1000C8010E941E13CE010E948216892B19F04F
:102F2000CE01905871C080911E0490911F040297A9
:102F300021F410921F0410921E048E018091000152
:102F4000909101010297C4F0809120049091210496
:102F500001979093210480932004892B69F4809138
:102F60001E0490911F04049709F04CC066E070E0C5
:102F7000C8010E941E1346C0CE01801B910B803CED
:102F80002FEF920731F480911E0490911F04439615
:102F90001AC08034910531F480911E0490911F0471
:102FA000499611C08F3F2FEF920731F480911E0494
:102FB00090911F044F9607C0019779F480911E04E9
:102FC00090911F04859620912E0430912F04820F3A
:102FD000931F90931D0480931C0467E070E0C80168
:102FE0000E941E1381E090E020912E0430912F0466
:102FF000232B11F080E090E090932F0480932E0417
:10300000CE0102C08FEF9FEFDF91CF911F910F9103
:103010000895AF92BF92CF92DF92EF92FF920F93FB
:103020001F93CF93DF938C01C0E8D0E06C018FEF4A
:10303000C81AD80A580181E0A81AB108CE010E9426
:103040001B12059709F04FC0C601CC15DD0521F014
:10305000C501CA15DB0521F4B8010E94241649C038
:103060000E94F3118130910569F47E0180E4E81A31
:10307000F108C7010E940D13892BA9F1E016F10692
:1030800069F431C08330910571F47E0181E0E81A62
:10309000F108C7010E940D13892B29F1B701CE0158
:1030A0000E94241620C08430910551F47E018FEFD8
:1030B000E81AF80AC7010E940D13892BA1F00EC06F
:1030C000029789F47E0180E4E80EF11CC7010E949A
:1030D0000D13892B41F0E016F10629F0B701CE015E
:1030E0000E942416E7012196C0388BE0D8070CF423
:1030F000A5CF80E090E0DF91CF911F910F91FF90DD
:10310000EF90DF90CF90BF90AF900895FC01809139
:10311000B209811103C08FEF9FEF08959FB7F89414
:1031200082E08093E9002091F20030E0121613064D
:1031300014F421E030E02115310559F0289884E697
:103140008093B1098091F10080838091F2008823FF
:1031500019F09FBFC90108958BE68093E800F9CF6D
:10316000CF92DF92EF92FF920F931F93CF93DF9353
:103170006C017A018B01C0E0D0E0CE15DF0589F04B
:10318000D8016D918D01D601ED91FC910190F081F6
:10319000E02DC6010995892B11F47E0102C021960C
:1031A000ECCFC701DF91CF911F910F91FF90EF906E
:1031B000DF90CF900895CF93DF931F92CDB7DEB706
:1031C0006983DC01ED91FC910280F381E02D41E007
:1031D00050E0BE016F5F7F4F09950F90DF91CF9157
:1031E000089583E08093E9008091F200882319F02C
:1031F0008AE38093E8000895CF93DF931F92CDB7C1
:10320000DEB7FC018485958597FD05C02FEF3FEF64
:10321000358724870BC0CE0101960E94861801973E
:1032200019F4898190E002C08FEF9FEF0F90DF913A
:10323000CF9108950F931F93CF93DF931F92CDB734
:10324000DEB78C01FC018485958597FF0EC0CE0109
:1032500001960E948618019719F4298130E002C076
:103260002FEF3FEFF80135872487F8018485958596
:103270000F90DF91CF911F910F910895FC018485EC
:10328000958597FD0BC09FB7F89482E08093E90085
:103290008091F2009FBF90E0019608959FB7F89447
:1032A00082E08093E9008091F2009FBF90E0089552
:1032B0000E9435278F929F92AF92BF92CF92DF925A
:1032C000EF92FF920F931F93CF93DF935C016B01FB
:1032D0008A0180910F01882309F45EC08091B209B0
:1032E000882309F459C08091B00980FF05C08091FE
:1032F000E00082608093E000E8018AEFF82E93E01E
:10330000E92E2FE3822E3AE3932E209709F43DC055
:103310008FB7F894E092E9009091E80095FF06C01D
:103320009091F200282D291B922F01C090E08FBFB1
:1033300091110AC0FA94FF2079F161E070E080E019
:1033400090E00E94070BE1CF292F30E0C217D3078E
:103350000CF49C2F8FB7F894E092E9002091E800DC
:1033600025FF11C0292F30E0C21BD30BF60191506D
:1033700020F041914093F100FACFC20ED31E9091FC
:10338000E80095FF13C08FBFC0CF5D9884E680939F
:10339000C0091016110644F081E090E0F501938316
:1033A000828380E090E005C0C80103C09092E800ED
:1033B000EACFDF91CF911F910F91FF90EF90DF90B7
:1033C000CF90BF90AF909F908F900895EF92FF9213
:1033D0000F931F93CF93DF931F92CDB7DEB7182FB4
:1033E000062FF42EE091B709F091B8098081209161
:1033F000BD09282B2083E091B909F091BA093081E9
:103400002091BE09209523232083E091B709F091F4
:10341000B80930812091BD0920952323208380E2C3
:1034200099830E94600C80E00E94600C81E20E94FF
:10343000600C802F0E94600C85E0800F0E94600C61
:1034400082E20E94600C8F2D0E94600C8F2D0E94E2
:10345000600CE091B909F091BA0980812091BE0910
:10346000282B2083E091B709F091B8093081209191
:10347000BD09209523232083E12E9981F92E870110
:103480000A5F1F4FF70181917F010E94600CE016D7
:10349000F106C1F70F90DF91CF911F910F91FF902F
:1034A000EF900895CF93DF93E091B709F091B809B9
:1034B00090818091BD09892B8083E091B909F091B9
:1034C000BA0990818091BE09809589238083E0911B
:1034D000B709F091B80990818091BD098095892341
:1034E000808380E20E94600C80E00E94600C81E298
:1034F0000E94600C80E00E94600C8FE70E94600CCC
:1035000082E20E94600C80E00E94600C87E00E94D2
:10351000600CE091B909F091BA0990818091BE09DF
:10352000892B8083E091B709F091B809908180914F
:10353000BD09809589238083C0E0D4E080E00E94AB
:10354000600C2197D9F7DF91CF9108958091C5093B
:1035500081110DC082E08093C10984E08093C2098B
:103560001092C4091092C30981E08093C50981ECCF
:1035700099E008951F920F920FB60F9211248F9326
:103580009F938091E1009091E100937F9093E100FF
:1035900083FF0FC01092E90091E09093EB0010922E
:1035A000EC0092E39093ED001092B20998E09093B2
:1035B000F00082FF20C093E09093E9009091F20028
:1035C000992319F09AE39093E8009091C009992308
:1035D00039F09091C00991509093C009992389F1D5
:1035E0009091B109992339F09091B109915090933C
:1035F000B109992341F184FF10C08091E2008E7ED1
:1036000081608093E2008091E1008F7E8093E100F1
:103610008091B0098E7E806111C080FF16C08091BC
:10362000E2008E7E80618093E2008091E1008E7ED8
:103630008093E1008091B0098E7E81608093B00913
:1036400004C05D9ACDCF289AD6CF9F918F910F90CD
:103650000FBE0F901F9018954091220A5091230A97
:103660002091200A3091210A42175307B4F4909117
:10367000E8009570E1F39091E80092FD19C0809305
:10368000F1008091220A9091230A01968F73992765
:10369000892B19F48EEF8093E8008091220A909193
:1036A000230A01969093230A8093220A81E00895C9
:1036B00080E00895CF92DF92EF92FF920F931F93D5
:1036C000CF93DF931F92CDB7DEB7182F062FE42ECE
:1036D000862F880F8E5F99830E942C1B83E00E94A7
:1036E0002C1BF12EC12E9981D92E8C2D8F1980176C
:1036F00098F4F601E7FE02C0849101C080810E9427
:103700002C1B182F80E00E942C1B8123FFEFCF1A67
:10371000DF0A8111EACF01C081E00F90DF91CF91E4
:103720001F910F91FF90EF90DF90CF900895DF925F
:10373000EF92FF920F931F93CF93DF93D82E8A01BE
:103740007B01E40EF51EEB01CE15DF0571F0D7FE0F
:1037500003C0FE01849101C088810E942C1B219628
:103760008111F2CF8FEF9FEF01C0C801DF91CF91A0
:103770001F910F91FF90EF90DF900895615030F00E
:103780002091F100FC0120830196F8CF289884E66F
:103790008093B10908950F931F93CF93DF931F92E6
:1037A000CDB7DEB782E0898342E450E063E473E1A1
:1037B00080E80E94971B0E94A61ADC0112960D91C8
:1037C0001C9113970115110569F0D801ED91FC9139
:1037D0000280F381E02DBE016F5F7F4FC801099524
:1037E00097FF07C089810F90DF91CF911F910F91B3
:1037F0000895F80100851185E5CF1F920F920FB64D
:103800000F921124CF92DF92EF92FF920F931F93AA
:103810002F933F934F935F936F937F938F939F93D8
:10382000AF93BF93EF93FF93CF93DF93CDB7DEB703
:103830006C97DEBFCDBF1092E9008091E80083FF56
:10384000FAC168E0CE0145960E94BE1B82EF8093CC
:10385000E8008D8987FF05C09091E80090FFFCCFBC
:1038600003C09EEF9093E800982F907609F0C6C0B1
:103870009E892F89188D91110CC0803829F4809170
:103880001E0A8093F10002C01092F1001092F10024
:1038900047C1422F50E0512B913051F4811140C16A
:1038A0004130510509F03CC180911E0A8D7F0BC04B
:1038B000933061F4811134C14130510509F030C1B8
:1038C00080911E0A826080931E0A2AC1953041F4BD
:1038D0008091E80080FFFCCF20682093E30020C1A6
:1038E000963009F05FC0EB8CFC8C1092E9001092CE
:1038F000230A1092220A123091F51092210A109296
:10390000200A0E94CB1B99E0BE016F5F7F4FDB0155
:10391000E92F1D92EA95E9F799831A8391E09E8336
:1039200090EA98879AEF99872091220A3091230A8A
:10393000275F3F4F3C832B838D831092E9001092C9
:10394000230A1092220AF092210AE092200A49E00A
:1039500050E080E00E94971B0E94CB1BE1C0F092D8
:10396000210AE092200A0E94A61ADC011296ED902C
:10397000FC901397E114F10409F4C0C0D701ED9154
:10398000FC910480F581E02DBE016B5E7F4FC70185
:103990000995009719F00CF0C3C0C6C0F701E08488
:1039A000F184E8CF973009F4BFC0983021F481E06A
:1039B0008093F100B5C0993009F0B2C0837009F06E
:1039C000B3C0E9E2F1E081E021E036E390819923A0
:1039D00061F08093E9002093EB0091919093EC00CB
:1039E0003093ED008F5F873089F78EE78093EA0090
:1039F0001092EA008F898093B20992C08B8D9C8DC2
:103A00001092E9001092230A1092220A9093210A40
:103A10008093200A898D811156C08E899D89913AA3
:103A200059F4813209F080C047E050E068E071E06D
:103A300080E00E94971B74C0913209F075C08332F8
:103A400089F4888D90E0982F88272F89822BA0E019
:103A5000B0E08093100190931101A0931201B093F4
:103A600013015EC0803269F48091E80082FFFCCFD0
:103A700067E088E091E00E94BE1B8BEF8093E80036
:103A800006C0823209F04CC08F8980930F0180916B
:103A90001D0A882319F0EEEFFAE002C0E0E0F8E03A
:103AA0008091080190910901A0910A01B0910B0148
:103AB000803B9440A105B10509F088C080910F01B9
:103AC00080FFA0C083C00E94A61ADC0112960D914F
:103AD0001C9113970115110539F1D801ED91FC9155
:103AE0000190F081E02DBE016B5E7F4FC80109950A
:103AF000811116C0F80100851185ECCF1130C1F09D
:103B0000133091F48F89882309F455C08230E9F489
:103B100040E860E185E993E10E945A1B882321F087
:103B20008EEF8093E80087C081E28093EB0083C032
:103B30008B8D9C8D089711F410931F0A80911F0A9A
:103B4000811136C066EA73E138C0813029F440E85B
:103B50006BE089E893E1E0CF833031F70E94A61A49
:103B6000DC011296ED90FC9013978E010F5F1F4FB2
:103B70006801E114F10479F0D701ED91FC91068020
:103B8000F781E02DB801C7010995080F111DF70154
:103B9000E084F184EECFD8011C92F6010190002060
:103BA000E9F73197BF016C197D0940E0C601B4CF38
:103BB00068EB73E102C065E873E16115710509F412
:103BC000B3CFFB01449150E080E833CF0FB6F894B7
:103BD000A8958091600088618093600010926000D9
:103BE0000FBEA895EE3F2AE0F20739F08091FE0A59
:103BF0009091FF0A9183808393CF1092FF0A1092D5
:103C0000FE0A8ECFEE3F8AE0F80731F08081918185
:103C10009093FF0A8093FE0A87E797E7918380835A
:103C20009BE088E10FB6F894A895809360000FBEE2
:103C30009093600075CF6C960FB6F894DEBF0FBE00
:103C4000CDBFDF91CF91FF91EF91BF91AF919F9148
:103C50008F917F916F915F914F913F912F911F9124
:103C60000F91FF90EF90DF90CF900F900FBE0F90CD
:103C70001F901895CF93DF93CDB7DEB760970FB63F
:103C8000F894DEBF0FBECDBF789484B5826084BD4A
:103C900084B5816084BD85B5826085BD85B5816050
:103CA00085BD80916E00816080936E0010928100CE
:103CB0008091810082608093810080918100816089
:103CC000809381008091800081608093800080914A
:103CD0009100826080939100809191008160809337
:103CE0009100809190008160809390008091C1004C
:103CF00084608093C1008091C10082608093C10084
:103D00008091C10081608093C1008091C300816077
:103D10008093C3008091C00082608093C000809136
:103D2000C20081608093C20080917A008460809399
:103D30007A0080917A00826080937A0080917A0084
:103D4000816080937A0080917A00806880937A0005
:103D50001092B20910921E0A1092B0098091D700F9
:103D600081608093D70080EA8093D80089B5806114
:103D700089BD89B5826089BD09B400FEFDCF61E0CF
:103D800070E080E090E00E94070B8091D8008F7C6B
:103D900080618093D8008091E000807F8093E00074
:103DA0008091E1008E7E8093E1008DE08093E200BF
:103DB000559A209AEEEFFFE7859194918B3F9C4DA9
:103DC00019F481E080931D0A1FB7F89480912404B0
:103DD000811127C0E6E1F1E08491E9EEF0E09491F1
:103DE000E82FF0E0EE0FFF1FE653FF4FA591B491CF
:103DF000EC91E92321F461E081E10E949B0A61E0FA
:103E000081E10E94CB0A8CB580618CBD8CB5806449
:103E10008CBD61E08FE00E94CB0A61E080E10E94EE
:103E2000CB0A809124048F5F809324041FBF61E03C
:103E30008BE00E94CB0A61E08DE00E94CB0A61E03A
:103E400084E00E94CB0A61E08CE00E94CB0A62E031
:103E500082E10E94CB0A62E084E10E94CB0A62E028
:103E600083E10E94CB0A62E085E10E94CB0A62E016
:103E700087E00E94CB0A62E088E00E94CB0AE1E181
:103E8000F1E0E491F0E0EE0FFF1FE950FF4F859164
:103E900094919093B8098093B709E4EEF0E0E4912F
:103EA000E093BD09E9E0F1E0E491F0E0EE0FFF1FDF
:103EB000E950FF4F859194919093BA098093B90985
:103EC000ECEDF0E0E491E093BE0961E086E00E9451
:103ED000CB0A61E086E00E949B0A61E070E080E02E
:103EE00090E00E94070B60E086E00E949B0A6AE077
:103EF00070E080E090E00E94070B61E086E00E94A5
:103F00009B0AE091B709F091B80990818091BD09B1
:103F1000892B8083E091B909F091BA099081809151
:103F2000BE09809589238083E091B709F091B80993
:103F300090818091BD098095892380838EEA0E94BB
:103F4000600C85ED0E94600C80EF0E94600C88EA96
:103F50000E94600C8FE30E94600C83ED0E94600C55
:103F600080E00E94600C80E40E94600C8DE80E945A
:103F7000600C84E10E94600C80E20E94600C80E092
:103F80000E94600C81EA0E94600C88EC0E94600C28
:103F90008AED0E94600C82E10E94600C81E80E9420
:103FA000600C8FEC0E94600C89ED0E94600C81EF28
:103FB0000E94600C8BED0E94600C80E40E94600CFB
:103FC00084EA0E94600C86EA0E94600C8FEA0E94DC
:103FD000600CE091B709F091B80990818091BD091A
:103FE000892B80836FEF8EE10E949B0A6FEF81E146
:103FF0000E949B0A6FEF8AE00E949B0A6FEF8BE0A2
:104000000E949B0A6FEF89E00E949B0A0E94521A4D
:104010002FB7F8948091120490911304A091140486
:10402000B09115042FBF8093250490932604A0938C
:104030002704B09328040E946F100E947B0E84EF27
:1040400091E00E94110C21E030E048E050E068E08F
:1040500073E084EA92E00E948F0D84EF91E00E9469
:10406000110C20E030E048E050E068E073E08CEABA
:1040700092E00E948F0D20E030E048E050E060E1E7
:1040800073E084EC92E00E948F0D20E030E048E085
:1040900050E068E173E084E592E00E948F0D20E03B
:1040A00030E048E050E060E273E08CE692E00E948D
:1040B0008F0D21E030E048E050E062E373E08CEAED
:1040C00092E00E948F0D84EF91E00E94110C20E09D
:1040D00030E048E050E060E373E08CE791E00E945C
:1040E0008F0D21E030E048E050E068E373E08CEAB7
:1040F00092E00E948F0D8CE291E00E94110C20E072
:1041000030E048E050E068E373E08CE791E00E9423
:104110008F0D21E030E048E050E060E473E08CEA8D
:1041200092E00E948F0D84EF91E00E94110C0E949A
:104130007B0E88EE93E00E94110C109223041092E3
:104140002204109221041092200410921F04109255
:104150001E048DE090E090931D0480931C040E9447
:10416000170C892BE1F70E94200EEE24E394F12C2A
:1041700000E010E0A701B80181E090E00E940D0D81
:104180000F5F1F4F05301105A9F73FEFE31AF30A40
:1041900084E0E816F10461F741E050E060E070E08F
:1041A00081E190E00E940D0D42E050E060E070E09F
:1041B00087E090E00E940D0D42E050E061E070E089
:1041C00087E090E00E940D0D42E050E062E070E078
:1041D00087E290E00E940D0D43E050E061E070E066
:1041E00088E090E00E940D0D43E050E063E070E055
:1041F00083E090E00E940D0D00E010E096E0E92ED3
:10420000F12C24E1C22ED12CC8016CE070E00E9498
:10421000072721E030E0069714F020E030E0C801E5
:10422000B7010E940727BC017695762F6627779500
:1042300067956C597E4F4CE150E084E295E00E9416
:104240008F0DC801B6010E940727009729F420E0CE
:1042500030E04FE251E006C00A9751F421E030E02F
:1042600045E451E060E070E081E090E00E948B0B5B
:1042700041E050E061E070E000FF13C08CE090E0AE
:104280000E940D0D42E050E063E070E08BE090E0B2
:104290000E940D0D43E050E062E070E084E090E0A9
:1042A00012C086E090E00E940D0D42E050E063E015
:1042B00070E085E090E00E940D0D43E050E062E088
:1042C00070E08AE090E00E940D0D0F5F1F4FB6E98D
:1042D000AB2EB12C0E94170C809749F082E090E041
:1042E0000E94110C91E0A91AB108A1F78DCF0E948C
:1042F000170C892BE1F70E94521AEE24E394F12C5B
:1043000000E010E0A701B80181E090E00E940D0DEF
:104310000F5F1F4F05301105A9F72FEFE21AF20AC0
:1043200034E0E316F10461F741E050E062E070E050
:1043300085E090E00E940D0D20E030E04BE551E07B
:1043400060E070E084E190E00E948B0B0E94170C0B
:104350007C0181E0E816F10421F094E0E916F10413
:1043600061F48091000190910101823091052CF05F
:104370000197909301018093000122E0E216F1047D
:1043800021F038E0E316F10461F48091000190918E
:104390000101833091052CF40196909301018093E3
:1043A000000100910001109101010130110529F473
:1043B00021E030E04AE651E00FC00230110529F457
:1043C00021E030E04EE751E007C00330110551F421
:1043D00021E030E042E951E060E370E087E090E006
:1043E0000E948B0B80E2E816F10439F40E940D0C58
:1043F00090931B0480931A0409C00E94170C892B08
:10440000E1F70E94170C892BE1F3A0CF0E94170C53
:10441000892BE1F7CC24C394D12CE12CF12CA601FB
:10442000B70181E090E00E940D0D9FEFE91AF90AB3
:1044300025E0E216F10499F73FEFC31AD30A84E0AE
:10444000C816D10451F70130110589F441E050E05C
:1044500062E070E083E290E00E940D0D20E030E029
:1044600046EA51E060E070E082E190E013C0023083
:10447000110599F441E050E062E070E087E290E0DD
:104480000E940D0D20E030E04FE751E060E070E069
:104490008AE090E00E948B0B03C003301105D9F035
:1044A00021E030E046EB51E060E370E080E090E036
:1044B0000E948B0B0E944A1484EF91E00E94110C21
:1044C00021E030E04CEC51E060E370E080E090E00F
:1044D0000E948B0B40C041E050E062E070E08DE054
:1044E00090E00E940D0D20E030E042EE51E060E0EF
:1044F00070E081E090E00E948B0B05E010E041E06D
:1045000050E061E070E08BE090E00E940D0D41E032
:1045100050E063E070E08BE090E00E940D0D8AEFC8
:1045200090E00E94110C41E050E061E070E085E015
:1045300090E00E940D0D41E050E063E070E085E006
:1045400090E00E940D0D8AEF90E00E94110C015046
:104550001109A9F6A5CF0E94170C8097E1F7E5E4B1
:104560004E2EE2E05E2E0E94200E78E3A72E73E02E
:10457000B72EC12CD12C750100E010E060E4862E2E
:10458000912CC7010E941B123C01C4018E0D9F1D7E
:104590000E941B129601A801BC01C3010E94670C76
:1045A0000F5F1F4F9FEFE91AF90A0031110549F714
:1045B00022E0C20ED11C30E8A30EB11C80E1C81667
:1045C000D104C9F620E030E048EF51E068E170E046
:1045D00084E490E00E948B0B20E030E043E052E066
:1045E00060E270E084E490E00E948B0B20E030E019
:1045F0004EE052E068E270E084E490E00E948B0BB1
:104600000E94170C892BE1F70E94170C843091054A
:1046100029F461E070E081E495E007C088309105FD
:1046200099F461E070E08FE395E00E941E130E9410
:10463000200E84E690E00E94110C48E3A42E43E093
:10464000B42EC12CD12C10C14097F1F60E94200E3F
:1046500021E030E049E152E060E070E080E090E08D
:104660000E948B0B20E030E04FE252E068E070E007
:1046700080E090E00E948B0B04E010E056E5752E80
:1046800080911B048F9380911A048F935F924F92B5
:10469000CC24C394D12CCC0EDD1EDF92CF920E948D
:1046A000412720E030E0A60168E270E080E390E07E
:1046B0000E948B0B6EE173E0C6010E943A27F6015F
:1046C000E00FF11F708220E030E0A60160E270E0B0
:1046D00080E390E00E948B0B0E94170C0F900F90CC
:1046E0000F900F900F900F908430910539F41016B1
:1046F00011060CF086C00150110983C08830910565
:1047000039F40430110509F47CC00F5F1F4F79C0E4
:104710008130910509F041C080911A0490911B04E9
:104720004C01A12CB12C0115110581F001301105AE
:1047300091F002301105A1F003301105A9F0043009
:104740001105A9F422242394312C11C020E1222E3A
:1047500027E2322E0CC0B8EE2B2EB3E03B2E07C062
:10476000A4E62A2E312C03C0FAE02F2E312CA10111
:10477000032C000C660B770BCC24CA94DC2CE12CA8
:10478000F12CC41AD50AE60AF70AC814D904EA04B7
:10479000FB04BCF1820D931D2DC08230910579F58B
:1047A00080911A0490911B040115110579F00130D4
:1047B000110579F00230110579F00330110579F017
:1047C0000430110581F421E030E00BC020E137E234
:1047D00008C028EE33E005C024E630E002C02AE03D
:1047E00030E03C872B87CB84DC84C816D90648F49C
:1047F0008C199D0990931B0480931A0402C0809722
:1048000029F00E94170C892BE1F73ACF20E030E025
:104810004AE452E068E370E080E090E00E948B0B95
:104820000E944A14A0CEC7010E941B123C01C40181
:104830008E0D9F1D0E941B129601A801BC01C30191
:104840000E94670C0F5F1F4F2FEFE21AF20A003130
:10485000110549F732E0C30ED11C80E8A80EB11C47
:1048600090E1C916D104D1F0750100E010E030E408
:10487000832E912CD8CFC8010E941B12069709F4F1
:1048800078010F5F1F4F0A372BE01207A1F760E096
:1048900070E0C7010E941E130E94171480E495E087
:1048A0000E946D130E947F10843691052CF4E12C38
:1048B000F12C00E810E0DFCF0E94561320E030E03A
:1048C0004CE552E068E170E084E490E00E948B0BDC
:1048D00020E030E047E652E060E270E084E490E0FF
:1048E0000E948B0B0E94170C8097E1F780E495E003
:1048F0000E949C10009100011091010102301105ED
:104900000CF47EC00E94200E21E030E042E752E02D
:1049100060E070E080E190E00E948B0B02301105B6
:1049200039F480912204909123046AE070E00FC072
:104930000330110591F420912204309123044FE0BB
:10494000429FC001439F900D112464E670E00E94D5
:104950000727709317046093160420E030E043E8C3
:1049600052E060E170E080E090E00E948B0B80916B
:1049700017048F93809116048F938FE892E09F9392
:104980008F9381E090E08C0F9D1F9F938F930E94E7
:10499000412720E030E0AE014F5F5F4F60E170E003
:1049A00082E490E00E948B0B20E030E049E952E085
:1049B00068E170E080E090E00E948B0B20E030E046
:1049C0004FEA52E060E270E080E090E00E948B0BE2
:1049D00020E030E045EC52E067E370E08AE090E0F0
:1049E0000E948B0B0F900F900F900F900F900F90D5
:1049F0000E94170C892BE1F70E94170C8097E1F7B2
:104A00000E94200E20E4422E25E0522E80910001CB
:104A100090910101039719F4C2010E940918C20183
:104A20000E941B12059731F4C2010E948216892B45
:104A300009F0E3C0C2010E94321688EC90E00E94A7
:104A4000110C0E94170C8C018130910521F4B201E8
:104A50006054710913C08230910521F4B201605C89
:104A60007F4F0CC08430910521F4B201615071096F
:104A700005C0089761F4B2016F5F7F4FC2010E94C9
:104A800000172C019FEF4916590659F4A6C18091D1
:104A90001E0490911F040D9690931D0480931C0496
:104AA00008C021E0421620E8520618F0C2019058D2
:104AB000A8C00032110521F4C2010E949C1074C0EC
:104AC0000031110509F070C0609000017090010183
:104AD00032E06316710464F0809120049091210407
:104AE0008C3091052CF00A97909321048093200438
:104AF0000E94200E99E1892E912CC201885092408B
:104B0000988B8F87AF84B88800E010E06501E12CB6
:104B1000F12CC6010E941B129E878D87C601805C06
:104B20009F4F0E941B120830110541F428E0E21645
:104B3000F10421F42AE030E03E872D87A701485F89
:104B40005F4F9801BC018D859E850E94670C3FEFE9
:104B5000E31AF30A8FEFC81AD80A90E1E916F104B4
:104B6000C1F60E5F1F4F20E8A20EB11C00311105E7
:104B700069F633E06316710451F088EC90E00E940E
:104B8000110C81E0881A910809F0BCCF0DC0C20158
:104B90000E940918C2010E941B12059771F7C201F9
:104BA0000E948216892B49F580911804909119046E
:104BB0008230910554F00197909319048093180462
:104BC000019769F40E9456130AC021E030E0892B56
:104BD00011F020E030E0309319042093180490E4A1
:104BE000491695E0590609F011CF80911E04909165
:104BF0001F04049709F00ACF07C04114510421F0A3
:104C0000C2010E94BF0F02C00E94CF0E20E030E020
:104C100048ED52E060E370E084E190E00E948B0B8D
:104C200020E030E047EE52E068E370E084E190E09D
:104C30000E948B0B0E94170C409709F0C8C00E947D
:104C4000170C892BE1F780E3A82E83E0B82EC12C46
:104C5000D12C750100E010E0C7010E941B124C012D
:104C6000C701805C9F4F0E941B129601A801BC01E6
:104C7000C4010E94670C0F5F1F4F2FEFE21AF20A68
:104C80000032110549F732E0C30ED11C80E8A80EAE
:104C9000B11C90E1C916D104E1F621E030E046EF05
:104CA00052E068E170E080E090E00E948B0B21E030
:104CB00030E04DE053E060E270E080E090E00E9480
:104CC0008B0B21E030E044E253E068E270E080E0EA
:104CD00090E00E948B0B0E94170C892BE1F30E943D
:104CE000170C8097E1F300E313E04801A12CB12CED
:104CF0006401E12CF12CC6010E941B123C01C6018B
:104D0000805C9F4F0E941B129501A701BC01C3014B
:104D10000E94670C2FEFE21AF20A3FEFC31AD30A80
:104D200080E2E816F10439F792E0A90EB11C20E800
:104D3000820E911C30E1A316B104D1F684E690E016
:104D40000E94110C0E94170C8130910531F400343F
:104D5000110574F1005411092BC08230910539F40A
:104D6000003C27E0120724F5005C1F4F21C084306F
:104D7000910539F4101611060CF0B7CF0150110946
:104D8000B4CF8830910541F4011538E013070CF0D9
:104D9000ACCF0F5F1F4FA9CF8031910549F40E941E
:104DA000561380E495E00E946D130E9437139DCF47
:104DB000809709F09ACF0E94170C892BE1F780E0C9
:104DC00090E0892B09F4B9C90E940000B6C90E947D
:104DD000170C809709F02ECFF2CF0E94361016CF15
:104DE000EDECF9E01382128288EE93E0A0E0B0E0EF
:104DF00084839583A683B7838CE191E0918380833C
:104E00008FEF9FEF958784871092BF09089597FBD6
:104E1000072E16F4009407D077FD09D00E942127B1
:104E200007FC05D03EF4909581959F4F08957095AD
:104E300061957F4F0895EE0FFF1F0590F491E02DCF
:104E40000994AA1BBB1B51E107C0AA1FBB1FA617D1
:104E5000B70710F0A61BB70B881F991F5A95A9F723
:104E600080959095BC01CD01089581E090E0F89483
:104E70000C94D82AFB01DC0101900D920020E1F78F
:104E80000895AEE0B0E0E7E4F7E20C94AF2A0D89B4
:104E90001E8986E08C831A8309838FEF9FE79E83A8
:104EA0008D83AE01475E5F4F6F89788DCE0101968D
:104EB0000E9464272F813885F801E20FF31F1082CA
:104EC0002E96E4E00C94CB2AACE0B0E0EAE6F7E200
:104ED0000C94A12A7C016B018A01FC0117821682C5
:104EE000838181FFBDC1CE0101964C01F701938101
:104EF000F60193FD859193FF81916F01882309F459
:104F0000ABC1853239F493FD859193FF81916F0197
:104F1000853229F4B70190E00E944C29E7CF512C4B
:104F2000312C20E02032A0F48B3269F030F4803252
:104F300059F0833269F420612CC08D3239F080330E
:104F400039F4216026C02260246023C0286021C07B
:104F500027FD27C030ED380F3A3078F426FF06C021
:104F6000FAE05F9E300D1124532E13C08AE0389E64
:104F7000300D1124332E20620CC08E3221F426FD18
:104F80006BC1206406C08C3611F4206802C08836DC
:104F900041F4F60193FD859193FF81916F01811199
:104FA000C1CF982F9F7D9554933028F40C5F1F4FED
:104FB000FFE3F9830DC0833631F0833771F0833519
:104FC00009F05BC022C0F801808189830E5F1F4F0A
:104FD00044244394512C540115C03801F2E06F0E63
:104FE000711CF801A080B18026FF03C0652D70E020
:104FF00002C06FEF7FEFC5012C870E9441292C0171
:1050000083012C852F77222E17C03801F2E06F0E16
:10501000711CF801A080B18026FF03C0652D70E0EF
:1050200002C06FEF7FEFC5012C870E9436292C014B
:105030002C852068222E830123FC1BC0832D90E049
:1050400048165906B0F4B70180E290E00E944C295E
:105050003A94F4CFF50127FC859127FE81915F01F9
:10506000B70190E00E944C2931103A94F1E04F1AB8
:1050700051084114510471F7E5C0843611F08936A6
:1050800039F5F80127FF07C0608171818281938122
:105090000C5F1F4F08C060817181072E000C880BC8
:1050A000990B0E5F1F4F2F76722E97FF09C09095B8
:1050B0008095709561957F4F8F4F9F4F2068722E1E
:1050C0002AE030E0A4010E948429A82EA81844C038
:1050D000853729F42F7EB22E2AE030E025C0F22F4A
:1050E000F97FBF2E8F36C1F018F4883579F0B4C03F
:1050F000803719F0883721F0AFC02F2F2061B22EF2
:10510000B4FE0DC08B2D8460B82E09C024FF0AC0E8
:105110009F2F9660B92E06C028E030E005C020E140
:1051200030E002C020E132E0F801B7FE07C0608144
:105130007181828193810C5F1F4F06C060817181F4
:1051400080E090E00E5F1F4FA4010E948429A82EEA
:10515000A818FB2DFF777F2E76FE0BC0372D3E7FE4
:10516000A51450F474FE0AC072FC08C0372D3E7EB0
:1051700005C0BA2C372D03C0BA2C01C0B52C34FFA2
:105180000DC0FE01EA0DF11D8081803311F4397EDE
:1051900009C032FF06C0B394B39404C0832F86784D
:1051A00009F0B39433FD13C030FF06C05A2CB3147A
:1051B00018F4530C5B18B32CB31468F4B70180E2F5
:1051C00090E03C870E944C29B3943C85F5CFB31402
:1051D00010F43B1801C0312C34FF12C0B70180E33A
:1051E00090E03C870E944C293C8532FF17C031FD7E
:1051F00003C088E790E002C088E590E0B7010CC0EA
:10520000832F867859F031FF02C08BE201C080E223
:1052100037FD8DE2B70190E00E944C29A51438F4C7
:10522000B70180E390E00E944C295A94F7CFAA94EA
:10523000F401EA0DF11D8081B70190E00E944C2934
:10524000A110F5CF332009F451CEB70180E290E0F0
:105250000E944C293A94F6CFF7018681978102C0CB
:105260008FEF9FEF2C96E2E10C94BD2AFC01059094
:10527000615070400110D8F7809590958E0F9F1F58
:105280000895FC016150704001900110D8F780959D
:1052900090958E0F9F1F08950F931F93CF93DF93C9
:1052A000FB01238121FD03C08FEF9FEF28C022FF68
:1052B00016C046815781248135814217530744F433
:1052C000A081B1819D012F5F3F4F318320838C935B
:1052D000268137812F5F3F4F3783268310C0EB0134
:1052E000092F182F0084F185E02D0995892BE1F60F
:1052F0008E819F8101969F838E83812F902FDF91D6
:10530000CF911F910F910895FA01AA27283051F1EA
:10531000203181F1E8946F936E7F6E5F7F4F8F4FE6
:105320009F4FAF4FB1E03ED0B4E03CD0670F781F45
:10533000891F9A1FA11D680F791F8A1F911DA11D2A
:105340006A0F711D811D911DA11D20D009F4689463
:105350003F912AE0269F11243019305D3193DEF60B
:10536000CF010895462F4770405D4193B3E00FD0C1
:10537000C9F7F6CF462F4F70405D4A3318F0495DAC
:1053800031FD4052419302D0A9F7EACFB4E0A6958F
:105390009795879577956795BA95C9F700976105B1
:1053A000710508959B01AC010A2E06945795479507
:1053B00037952795BA95C9F7620F731F841F951FFC
:1053C000A01D08958F929F92AF92BF92CF92DF92CD
:1053D000EF92FF92CF93DF93EC01688179818A810C
:1053E0009B81611571058105910521F464E279EDD8
:1053F0008BE597E02DE133EF41E050E00E943E2A3B
:1054000049015A019B01AC01A7EAB1E40E945D2A5F
:105410006B017C01ACEEB4EFA50194010E946B2AF4
:10542000DC01CB018C0D9D1DAE1DBF1DB7FF03C060
:105430000197A109B04888839983AA83BB83BC01E3
:10544000CD019F77DF91CF91FF90EF90DF90CF90CC
:10545000BF90AF909F908F9008950E94E229089589
:1054600084E191E00E94E229089560931401709311
:10547000150180931601909317010895052E97FB4F
:105480001EF400940E94552A57FD07D00E94702AEE
:1054900007FC03D04EF40C94552A50954095309556
:1054A00021953F4F4F4F5F4F089590958095709590
:1054B00061957F4F8F4F9F4F08950E94922AA59F1D
:1054C000900DB49F900DA49F800D911D11240895FF
:1054D000B7FF0C945D2A0E945D2A821B930B0895EE
:1054E000A1E21A2EAA1BBB1BFD010DC0AA1FBB1FE8
:1054F000EE1FFF1FA217B307E407F50720F0A21B5A
:10550000B30BE40BF50B661F771F881F991F1A94C6
:1055100069F760957095809590959B01AC01BD01F0
:10552000CF010895A29FB001B39FC001A39F700D4A
:10553000811D1124911DB29F700D811D1124911D9B
:1055400008952F923F924F925F926F927F928F9227
:105550009F92AF92BF92CF92DF92EF92FF920F9302
:105560001F93CF93DF93CDB7DEB7CA1BDB0B0FB60C
:10557000F894DEBF0FBECDBF09942A8839884888C9
:105580005F846E847D848C849B84AA84B984C8845F
:10559000DF80EE80FD800C811B81AA81B981CE0F56
:1055A000D11D0FB6F894DEBF0FBECDBFED0108953B
:0455B000F894FFCF9D
:1055B400010046000100C30000E1000000000000FB
:1055C400FFFFFFFF0100000000000000DB185A1974
:1055D4003E19FC181A19F11800C18081000000411D
:1055E400204D415A4520414456454E54555245207C
:1055F40047414D4500205052455353202742272010
:10560400544F2053544152542020002057484943BA
:10561400482047414D45203F20002020202054525F
:1056240059204954204F5554202020202000202068
:10563400464143452041204348414C4C454E474553
:1056440020004D414E4943204D4F42494C45204D89
:10565400415A4F4753002020545259204954204F57
:10566400555420202000204D415A452049532042C2
:1056740045494E4720445241574E20004D415A451A
:105684002052454144592C2050524553532027421F
:105694002700204D414E4943204D4F42494C45205F
:1056A4004D415A4F475320005748494348205741DA
:1056B400593F004C454654204F5220202000524967
:1056C4004748543F202020200020202020204D4106
:1056D4005A452043484F4F53455220202020005024
:1056E400524553532042205748454E2046494E497F
:1056F4005348454400252E357500524544524157C0
:10570400494E47204D415A452E2E2E0050524553A6
:1057140053202742272000464F52205245504F52D3
:105724005400534954554154494F4E205245504F0B
:1057340052540045414348204B494C4C3D2B0025D5
:1057440069204D4F56455320004541434820564952
:1057540045573D2D3130204D4F56455320200045AF
:10576400414348205245504F52543D2D3130204D35
:105774004F56455300505245535320274227204645
:105784004F522047414D4500413D4558414D494EFA
:1057940045204D415A4500423D414E4F54484552E3
:1057A4002047414D450020202055534520442D508D
:1057B400414420544F204D4F564520200020505244
:1057C400455353204120544F20534F4C56452020DD
:1057D40020202000205052455353204220464F524F
:1057E400204E45572047414D4520002057454C4306
:1057F4004F4D45204241434B20004D4F56455320C9
:10580400414C4C4F5745443D002569004D4F56458A
:1058140053204C4546543D0053434F52453D0025CB
:10582400692525002020444541544820544F2041F7
:105834004C4C202000545245415355524520534569
:10584400454B45525300594F552048415645205326
:105854005441525645440020202020544F204445B2
:10586400415448202020200041524455424F5900C1
:105874004D4F564553204241434B20544F20224222
:10588400415345223D0020256920004D4F56455384
:1058940020544F2054524541535552453D005052D7
:1058A4004553532027422720464F52204D4F5245FF
:1058B40000274127203D204255592053574F524439
:0258C4000000E2
:00000001FF
