:100000000C945D040C9485040C9485040C94850474
:100010000C9485040C9485040C9485040C9485043C
:100020000C9485040C9485040C945D060C94CF0606
:100030000C9485040C9485040C9485040C9485041C
:100040000C9485040C945F0C0C9485040C9485042A
:100050000C9485040C9485040C9485040C94090B71
:100060000C9485040C9485040C9485040C948504EC
:100070000C9485040C9485040C9485040C948504DC
:100080000C94FD0C0C9485040C9485040C9485044C
:100090000C9485040C9485040C9485040C948504BC
:1000A0000C9485040C9485040C94850437093A0952
:1000B00029092D0931095B095B095B093E094209E0
:1000C00046094C0950095B095609D209D709DC09D0
:1000D000E609F0093A0A3A0A3A0AFA09040A0E0A43
:1000E000180A250A3A0A2D0A00000000003E5B4F5C
:1000F0005B3E3E6B4F6B3E1C3E7C3E1C183C7E3C88
:10010000181C577D571C1C5E7F5E1C00183C180095
:10011000FFE7C3E7FF0018241800FFE7DBE7FF3025
:10012000483A060E2629792926407F050507407F93
:1001300005253F5A3CE73C5A7F3E1C1C08081C1C06
:100140003E7F14227F22145F5F005F5F06097F01FC
:100150007F006689956A606060606094A2FFA294E7
:1001600008047E040810207E201008082A1C0808B5
:100170001C2A08081E101010100C1E0C1E0C303803
:100180003E3830060E3E0E06000000000000005F04
:1001900000000007000700147F147F14242A7F2A20
:1001A00012231308646236495620500008070300E2
:1001B000001C2241000041221C002A1C7F1C2A082E
:1001C000083E080800807030000808080808000091
:1001D00060600020100804023E5149453E00427F05
:1001E000400072494949462141494D331814127F54
:1001F0001027454545393C4A4949314121110907F4
:100200003649494936464949291E00001400000074
:100210004034000000081422411414141414004146
:1002200022140802015909063E415D594E7C121103
:10023000127C7F494949363E414141227F4141413B
:100240003E7F494949417F090909013E41415173B6
:100250007F0808087F00417F41002040413F017F27
:10026000081422417F404040407F021C027F7F04EF
:1002700008107F3E4141413E7F090909063E415138
:10028000215E7F09192946264949493203017F0128
:10029000033F4040403F1F2040201F3F4038403F29
:1002A000631408146303047804036159494D43003F
:1002B0007F4141410204081020004141417F040276
:1002C000010204404040404000030708002054540D
:1002D00078407F28444438384444442838444428EB
:1002E0007F385454541800087E090218A4A49C783E
:1002F0007F0804047800447D40002040403D007F9A
:100300001028440000417F40007C047804787C0879
:100310000404783844444438FC182424181824244D
:1003200018FC7C08040408485454542404043F4432
:10033000243C4040207C1C2040201C3C4030403C61
:1003400044281028444C9090907C4464544C4400C1
:100350000836410000007700000041360800020125
:100360000204023C2623263C1EA1A161123A404011
:10037000207A38545455592155557941215454788F
:1003800041215554784020545579400C1E52721228
:1003900039555555593954545459395554545800B0
:1003A00000457C410002457D420001457C40F0292A
:1003B0002429F0F0282528F07C5455450020545479
:1003C0007C547C0A097F49324949493232484848BD
:1003D00032324A4848303A4141217A3A4240207804
:1003E000009DA0A07D39444444393D4040403D3CFF
:1003F00024FF2424487E4943662B2FFC2F2BFF0922
:1004000029F620C0887E0903205454794100004415
:100410007D413048484A32384040227A007A0A0A00
:10042000727D0D19317D2629292F28262929292673
:1004300030484D4020380808080808080808382FB8
:1004400010C8ACBA2F102834FA00007B0000081442
:100450002A142222142A14089500220095AA005575
:1004600000AAAA55AA55AA000000FF00101010FF0C
:1004700000141414FF001010FF00FF1010F010F013
:10048000141414FC001414F700FF0000FF00FF1404
:1004900014F404FC141417101F10101F101F141450
:1004A000141F00101010F0000000001F101010109A
:1004B0001F10101010F010000000FF10101010108E
:1004C00010101010FF10000000FF140000FF00FFCC
:1004D00000001F10170000FC04F414141710171468
:1004E00014F404F40000FF00F7141414141414148A
:1004F000F700F7141414171410101F101F141414FD
:10050000F4141010F010F000001F101F0000001F66
:1005100014000000FC140000F010F01010FF10FF99
:10052000141414FF141010101F00000000F010FF2E
:10053000FFFFFFFFF0F0F0F0F0FFFFFF0000000012
:1005400000FFFF0F0F0F0F0F38444438447C2A2A56
:100550003E147E02020606027E027E026355494177
:10056000633844443C04407E201E2006027E020282
:1005700099A5E7A5991C2A492A1C4C7201724C3096
:100580004A4D4D303048784830BC625A463D3E496D
:100590004949007E0101017E2A2A2A2A2A44445F11
:1005A000444440514A444040444A51400000FF0105
:1005B00003E080FF000008086B6B08361236243613
:1005C000060F090F06000018180000001010003078
:1005D00040FF0101001F01011E00191D1712003C00
:1005E0003C3C3C00000000000601150126013701DB
:1005F0004A015D01720188019F01B801D201EE013B
:100600000B022A024B026E029302BA02E4021003AA
:100610003F037003A403DC03170455049704DD04AF
:1006200027057505C80520067D06E0064907B807B9
:100630002D08A9082D09B9094D0AEA0A900B400CAA
:10064000FA0CC00D910E6F0F5A1053115B127213FA
:100650009A14D41520178018F519801B231DDE1E4F
:10066000B420A622B524E4263429A72B402E00313D
:10067000EA330037453ABC3D68414C456B49C84DAB
:1006800068524F57805C006210111213151617182C
:100690001A1C1D1F21232527292C2E3134373A3EC1
:1006A0004145494E52575C62686E757B838B939CC3
:1006B000A5AFB9C4D0DCE9F70000000200090F00C3
:1006C00000030401000C0000000000000000000016
:1006D00000000000000000080B00020202010009F7
:1006E000040000010202000005240010010524019D
:1006F00001010424020605240600010705810310F8
:10070000004009040100020A00000007050202403F
:1007100000000705830240000004030904417264DD
:1007200075696E6F204C4C430041726475696E6F41
:10073000204C656F6E6172646F0012010002000050
:100740000040412336800001010203011201000232
:10075000EF02014041233680000101020301003C09
:100760007E7E7E7E3C00003C424242423C000030A5
:100770007878787830000030484848483000F0F801
:100780009C8E8783878E9CF8F00000FEFF03030396
:100790000303070EFCF80000FEFF03030303030737
:1007A0000EFCF80000FFFF00000000000000FFFF4B
:1007B0000000FEFF8383838383C7EE7C380000F84C
:1007C000FC0E07030303070EFCF800003F7FE0C0A8
:1007D0008080C0E07F3FFFFF01010101010101FFB7
:1007E000FF0000FFFF0C0C0C0C1C3E77E3C1000067
:1007F0007FFFC0C0C0C0C0E0703F1F00001F3F703F
:10080000E0C0C0C0E0703F1F00007FFFC1C1C1C198
:10081000C1E3773E1C00001F3F70E0C0C0C0E07025
:100820003F1F000000000001FFFF0100000000006A
:100830000000240027002A002D003000AED580A83B
:100840003FD300408D142002A1C8DA1281CFD9F124
:10085000DB402EA4A6AF14021302120215020702F7
:10086000080204010C010601000408020110408086
:100870004010204080408008020401804020100287
:1008800001108010204040200000000025002800BA
:100890002B002E00310004040404040304050202AA
:1008A0000202040302020202060606060606040409
:1008B0000202020404030100EF1711241FBECFEF50
:1008C000DAE0DEBFCDBF27E0A8E9B2E001C01D92AB
:1008D000A039B207E1F712E0A0E0B1E0E4E2F1E311
:1008E00002C005900D92A839B107D9F714E0CDE503
:1008F000D4E004C02197FE010E942218CC35D10714
:10090000C9F70E940F120C9490180C9400004091AB
:10091000AA025091AB022091A8023091A90242177D
:100920005307B4F49091E8009570E1F39091E800DA
:1009300092FD19C08093F1008091AA029091AB02C0
:1009400001968F739927892B19F48EEF8093E80015
:100950008091AA029091AB0201969093AB02809392
:10096000AA0281E0089580E00895CF92DF92EF928D
:10097000FF920F931F93CF93DF931F92CDB7DEB7F4
:10098000182F062FE42E862F880F8E5F99830E94E2
:10099000870483E00E948704F12EC12E9981D92E0D
:1009A0008C2D8F19801798F4F601E7FE02C0849110
:1009B00001C080810E948704182F80E00E94870474
:1009C0008123FFEFCF1ADF0A8111EACF01C081E056
:1009D0000F90DF91CF911F910F91FF90EF90DF90DB
:1009E000CF900895DF92EF92FF920F931F93CF93D2
:1009F000DF93D82E8A017B01E40EF51EEB01CE15A4
:100A0000DF0571F0D7FE03C0FE01849101C088812B
:100A10000E94870421968111F2CF8FEF9FEF01C0D2
:100A2000C801DF91CF911F910F91FF90EF90DF9060
:100A30000895615030F02091F100FC01208301966F
:100A4000F8CF289884E680930A030895CF92DF9226
:100A5000EF92FF920F931F93CF93DF936C017A0174
:100A60008B01C0E0D0E0CE15DF0589F0D8016D9193
:100A70008D01D601ED91FC910190F081E02DC60130
:100A80000995892B11F47E0102C02196ECCFC70194
:100A9000DF91CF911F910F91FF90EF90DF90CF905A
:100AA0000895CF93DF931F92CDB7DEB76983DC0142
:100AB000ED91FC910280F381E02D41E050E0BE0118
:100AC0006F5F7F4F09950F90DF91CF91089583E07D
:100AD0008093E9008091F200882319F08AE38093E3
:100AE000E8000895FC018485958597FD0BC09FB7AC
:100AF000F89482E08093E9008091F2009FBF90E03B
:100B0000019608959FB7F89482E08093E900809160
:100B1000F2009FBF90E008953FB7F8948091A30240
:100B20009091A402A091A502B091A60226B5A89B1F
:100B300005C02F3F19F00196A11DB11D3FBFBA2F6F
:100B4000A92F982F8827820F911DA11DB11DBC01CF
:100B5000CD0142E0660F771F881F991F4A95D1F794
:100B6000089538E0639FF0011124E454FD4FE80F2D
:100B7000F11D9081840F883040F5620F683028F5B0
:100B8000480F483010F5260F2830F8F438E0639FFE
:100B9000F0011124E454FD4FE80FF11D808138E08D
:100BA000239FF0011124E454FD4FE40FF11D208137
:100BB00080FF0BC020FD09C091FB222720F981FB9B
:100BC000992790F981E0291301C080E008950E94DF
:100BD00028180F931F93CF93DF931F92CDB7DEB7E3
:100BE00082E0898342E450E067ED76E080E80E948D
:100BF000F2040E94FB11DC0112960D911C911397D7
:100C00000115110569F0D801ED91FC910280F38185
:100C1000E02DBE016F5F7F4FC801099597FF07C0A8
:100C200089810F90DF91CF911F910F910895F80165
:100C300000851185E5CFCF93DF931F92CDB7DEB747
:100C4000FC018485958597FD05C02FEF3FEF358723
:100C500024870BC0CE0101960E94D111019719F48F
:100C6000898190E002C08FEF9FEF0F90DF91CF91CD
:100C700008950F931F93CF93DF931F92CDB7DEB7E5
:100C80008C01FC018485958597FF0EC0CE010196ED
:100C90000E94D111019719F4298130E002C02FEF91
:100CA0003FEFF80135872487F801848595850F90FB
:100CB000DF91CF911F910F9108951F920F920FB660
:100CC0000F9211248F939F938091E1009091E10006
:100CD000937F9093E10083FF0FC01092E90091E0B1
:100CE0009093EB001092EC0092E39093ED00109241
:100CF0000B0398E09093F00082FF20C093E0909364
:100D0000E9009091F200992319F09AE39093E8009A
:100D10009091AC02992339F09091AC02915090934C
:100D2000AC02992389F190910A03992339F09091AB
:100D30000A03915090930A03992341F184FF10C054
:100D40008091E2008E7E81608093E2008091E100DC
:100D50008F7E8093E1008091AE028E7E806111C013
:100D600080FF16C08091E2008E7E80618093E20059
:100D70008091E1008E7E8093E1008091AE028E7EB4
:100D800081608093AE0204C05D9ACDCF289AD6CF01
:100D90009F918F910F900FBE0F901F9018951F92EB
:100DA0000F920FB60F921124CF92DF92EF92FF9223
:100DB0000F931F932F933F934F935F936F937F9363
:100DC0008F939F93AF93BF93EF93FF93CF93DF9353
:100DD000CDB7DEB76C97DEBFCDBF1092E900809132
:100DE000E80083FFFAC168E0CE0145960E9419052C
:100DF00082EF8093E8008D8987FF05C09091E8001D
:100E000090FFFCCF03C09EEF9093E800982F907660
:100E100009F0C6C09E892F89188D91110CC08038A9
:100E200029F48091AF028093F10002C01092F1008A
:100E30001092F10047C1422F50E0512B913051F4F4
:100E4000811140C14130510509F03CC18091AF0290
:100E50008D7F0BC0933061F4811134C14130510555
:100E600009F030C18091AF0282608093AF022AC145
:100E7000953041F48091E80080FFFCCF20682093FA
:100E8000E30020C1963009F05FC0EB8CFC8C10921F
:100E9000E9001092AB021092AA02123091F5109262
:100EA000A9021092A8020E94E90599E0BE016F5FB5
:100EB0007F4FDB01E92F1D92EA95E9F799831A83A9
:100EC00091E09E8390EA98879AEF99872091AA02F1
:100ED0003091AB02275F3F4F3C832B838D83109271
:100EE000E9001092AB021092AA02F092A902E092DD
:100EF000A80249E050E080E00E94F2040E94E90567
:100F0000E1C0F092A902E092A8020E94FB11DC016C
:100F10001296ED90FC901397E114F10409F4C0C00F
:100F2000D701ED91FC910480F581E02DBE016B5E4F
:100F30007F4FC7010995009719F00CF0C3C0C6C0D8
:100F4000F701E084F184E8CF973009F4BFC098300E
:100F500021F481E08093F100B5C0993009F0B2C06E
:100F6000837009F0B3C0EFE1F1E081E021E036E306
:100F70009081992361F08093E9002093EB00919197
:100F80009093EC003093ED008F5F873089F78EE708
:100F90008093EA001092EA008F8980930B0392C03D
:100FA0008B8D9C8D1092E9001092AB021092AA02D8
:100FB0009093A9028093A802898D811156C08E89D1
:100FC0009D89913A59F4813209F080C047E050E0A0
:100FD00064E071E080E00E94F20474C0913209F094
:100FE00075C0833289F4888D90E0982F88272F89E7
:100FF000822BA0E0B0E08093000190930101A093C8
:101000000201B09303015EC0803269F48091E80070
:1010100082FFFCCF67E084E091E00E9419058BEF2E
:101020008093E80006C0823209F04CC08F8980931B
:101030000B018091AD02882319F0EEEFFAE002C0B7
:10104000E0E0F8E08091040190910501A091060193
:10105000B0910701803B9440A105B10509F088C01B
:1010600080910B0180FFA0C083C00E94FB11DC01B6
:1010700012960D911C9113970115110539F1D801A4
:10108000ED91FC910190F081E02DBE016B5E7F4FF0
:10109000C8010995811116C0F80100851185ECCFB2
:1010A0001130C1F0133091F48F89882309F455C0B1
:1010B0008230E9F440E860E189E297E00E94B504FB
:1010C000882321F08EEF8093E80087C081E280932F
:1010D000EB0083C08B8D9C8D089711F41093A702B1
:1010E0008091A702811136C06AE377E038C0813071
:1010F00029F440E86BE08DE197E0E0CF833031F7F1
:101100000E94FB11DC011296ED90FC9013978E016A
:101110000F5F1F4F6801E114F10479F0D701ED91E1
:10112000FC910680F781E02DB801C7010995080FF1
:10113000111DF701E084F184EECFD8011C92F60175
:1011400001900020E9F73197BF016C197D0940E05B
:10115000C601B4CF6CE477E002C069E177E06115C5
:10116000710509F4B3CFFB01449150E080E833CF1F
:101170000FB6F894A8958091600088618093600014
:10118000109260000FBEA895EE3F2AE0F20739F0FA
:101190008091FE0A9091FF0A9183808393CF1092F1
:1011A000FF0A1092FE0A8ECFEE3F8AE0F80731F078
:1011B000808191819093FF0A8093FE0A87E797E7E9
:1011C000918380839BE088E10FB6F894A895809383
:1011D00060000FBE9093600075CF6C960FB6F894C8
:1011E000DEBF0FBECDBFDF91CF91FF91EF91BF91D9
:1011F000AF919F918F917F916F915F914F913F91AF
:101200002F911F910F91FF90EF90DF90CF900F9053
:101210000FBE0F901F901895362F90E0FC01E854F8
:10122000F94F4491FC01E759F74F2491FC01EA562C
:10123000F74F8491882309F451C04423E1F150E031
:10124000FA013197EF30F105B0F5EA5AFF4F0C94EF
:101250002218909180009F7707C0909180009F7D19
:1012600003C090918000977F9093800024C094B534
:101270009F7702C094B59F7D94BD1DC09091900052
:101280009F7707C0909190009F7D03C09091900040
:10129000977F909390000FC09091C0009F7703C0FC
:1012A0009091C0009F7D9093C00005C09091C200B6
:1012B000977F9093C200E82FF0E0EE0FFF1FE857F2
:1012C000F74FA591B4918FB7F894EC91311103C009
:1012D00020952E2301C02E2B2C938FBF0895CF93E2
:1012E000DF9390E0FC01E759F74F2491FC01EA56A7
:1012F000F74F8491882361F190E0880F991FFC01DA
:10130000E25DF74FC591D491FC01E857F74FA591E5
:10131000B491611109C09FB7F89488812095822308
:101320008883EC912E230BC0623061F49FB7F89450
:101330003881822F809583238883EC912E2B2C93E8
:101340009FBF06C08FB7F894E8812E2B28838FBFEC
:10135000DF91CF9108951F93CF93DF93182FEB0167
:1013600061E00E946F09209711F460E004C0CF3F54
:10137000D10539F461E0812FDF91CF911F910C9459
:101380000C09E12FF0E0E854F94FE4914E2F50E0C2
:10139000FA013197EF30F10508F06CC0EB59FF4FBF
:1013A0000C94221884B5806884BDC7BD68C084B51C
:1013B000806284BDC8BD63C08091800080688093D6
:1013C0008000D0938900C093880059C0809180002C
:1013D000806280938000D0938B00C0938A004FC0BE
:1013E00080918000886080938000D0938D00C093AE
:1013F0008C0045C080919000806880939000D093CD
:101400009900C09398003BC08091900080628093C7
:101410009000D0939B00C0939A0031C080919000BF
:10142000886080939000D0939D00C0939C0027C05B
:101430008091C00080688093C0008091C0008F7B45
:101440008093C000C093CF001AC08091C00080621A
:101450008093C000C093D00012C08091C200886009
:101460008093C2008091C2008B7F8093C200C093A2
:10147000D20005C0C038D1050CF07CCF76CFDF910B
:10148000CF911F9108958F929F92AF92BF92CF926A
:10149000DF92EF92FF926B017C010E948C054B0161
:1014A0005C01C114D104E104F104F1F00E948C0547
:1014B000DC01CB0188199909AA09BB09883E934030
:1014C000A105B10570F321E0C21AD108E108F108C5
:1014D00088EE880E83E0981EA11CB11CC114D104B3
:1014E000E104F10419F7DDCFFF90EF90DF90CF908A
:1014F000BF90AF909F908F9008958F929F92AF92E0
:10150000BF92CF92DF92EF92FF920F931F93CF93F0
:10151000DF935C016B018A0180910B01882309F440
:101520005EC080910B03882309F459C08091AE02FC
:1015300080FF05C08091E00082608093E000E801B8
:101540008AEFF82E93E0E92E2FE3822E3AE3932ED2
:10155000209709F43DC08FB7F894E092E90090918C
:10156000E80095FF06C09091F200282D291B922FCC
:1015700001C090E08FBF91110AC0FA94FF2079F169
:1015800061E070E080E090E00E94430AE1CF292F03
:1015900030E0C217D3070CF49C2F8FB7F894E09279
:1015A000E9002091E80025FF11C0292F30E0C21B7F
:1015B000D30BF601915020F041914093F100FACF06
:1015C000C20ED31E9091E80095FF13C08FBFC0CF0D
:1015D0005D9884E68093AC021016110644F081E019
:1015E00090E0F5019383828380E090E005C0C8011C
:1015F00003C09092E800EACFDF91CF911F910F9145
:10160000FF90EF90DF90CF90BF90AF909F908F9022
:1016100008951F920F920FB60F9211242F933F93AC
:101620008F939F93AF93BF938091B7029091B8022D
:10163000A091B902B091BA023091A20223E0230F27
:101640002D3720F40196A11DB11D05C026E8230FFA
:101650000296A11DB11D2093A2028093B702909320
:10166000B802A093B902B093BA028091A3029091FC
:10167000A402A091A502B091A6020196A11DB11DE0
:101680008093A3029093A402A093A502B093A60214
:10169000BF91AF919F918F913F912F910F900FBE6E
:1016A0000F901F9018958FB12CB193B130E0209519
:1016B000309520743327A90123E0559547952A9545
:1016C000E1F7292F30E020953095207133273595AB
:1016D000279535952795242B8095807F822B08951B
:1016E000E091B502F091B60290818091B402892B0D
:1016F0008083E091B202F091B30290818091B102B7
:10170000809589238083E091B502F091B6029081A3
:101710008091B4028095892380830895E091B2027C
:10172000F091B30290818091B102892B8083E09186
:10173000B502F091B60290818091B4028095892320
:10174000808308958EBD00000DB407FEFDCF8EB5D9
:101750000895CF92DF92EF92FF920F931F93CF9352
:101760006C0100E810E0C0E0E12CF12C0E94700B4D
:1017700080E10E94A20B82E00E94A20B8C2F806B62
:101780000E94A20B0E948E0BF601EE0DFF1D8081C0
:101790008EBD97012F5F3F4F7901201731074CF421
:1017A000F601E20FF31F80810DB407FEFDCF8EBD61
:1017B000F1CF0DB407FEFDCFCF5F00581F4FC830EB
:1017C000A9F6CF911F910F91FF90EF90DF90CF90EE
:1017D0000895CF92DF92EF92FF920F931F93CF93D2
:1017E000E82FF0E0EB54F74FC491E62FF0E06033C0
:1017F00030F4E857F94FE4910E2F10E006C0EE0FD9
:10180000FF1FE857FA4F059114916801E12CF12C64
:1018100060E074E284EF90E0A70196010E94351821
:10182000BA01A901415051096109710941155105D8
:1018300081E06807710580F060E970ED83E090E079
:10184000A70196010E943518BA01A901415051091A
:101850006109710983E001C081E0C130C9F0C33082
:1018600031F590919100987F892B8093910050934E
:101870009900409398001093A1020093A00281E088
:1018800080939F02809171008260809371000FC0ED
:1018900090918100987F892B8093810050938900DB
:1018A0004093880080916F00826080936F00CF9199
:1018B0001F910F91FF90EF90DF90CF9008951F92AE
:1018C0000F920FB60F9211242F933F938F939F93F4
:1018D000AF93BF93EF93FF9380911703882309F48D
:1018E0004DC08091130390911403A0911503B09102
:1018F0001603892B8A2B8B2B51F180910F03E091DA
:101900001003F09111039081892780838091130344
:1019100090911403A0911503B0911603181619069F
:101920001A061B06A4F58091130390911403A0914D
:101930001503B09116030197A109B1098093130310
:1019400090931403A0931503B093160320C0109234
:10195000170380916F008D7F80936F0090910F032C
:10196000E0911003F09111038081282F30E0892F3E
:1019700090E0809590958223932308C080910F0377
:10198000E0911003F0911103908189278083FF91EA
:10199000EF91BF91AF919F918F913F912F910F90B8
:1019A0000FBE0F901F901895E82FF0E0EB54F74F03
:1019B000E491E13019F0E33069F0089580916F000F
:1019C0008D7F80936F0090910F03E0911003F09151
:1019D000110308C010929F0290910C03E0910D0337
:1019E000F0910E038081282F30E0892F90E08095C0
:1019F000909582239323808308951F920F920FB6B0
:101A00000F9211242F933F934F935F936F937F9384
:101A10008F939F93AF93BF93EF93FF9380919F0218
:101A2000882349F080910C03E0910D03F0910E039F
:101A30009081892780838091B002882309F493C024
:101A400080919B0290919C02A0919D02B0919E0278
:101A5000892B8A2B8B2B09F486C080919B02909155
:101A60009C02A0919D02B0919E020197A109B1092B
:101A700080939B0290939C02A0939D02B0939E0240
:101A8000892B8A2B8B2B09F06EC0E0919902F09183
:101A90009A02BF016F5F7F4F70939A026093990221
:101AA0004491942F907F842F8F70903819F40E9466
:101AB000D40CEBCF903981F43296F0939A02E093F4
:101AC0009902FB016491909112038917F0F667FD6A
:101AD000DCCF0E94E90BD9CF903E29F410929A02F4
:101AE00010929902D2CF903F19F41092B0023BC0ED
:101AF00097FDCBCF3296F0939A02E0939902FB01C7
:101B0000249130E0342BA091A002B091A1020E9458
:101B100081186C507E4F8F4F9F4F28EE33E040E08E
:101B200050E00E945F1820939B0230939C024093E8
:101B30009D0250939E0280919B0290919C02A091E5
:101B40009D02B0919E02892B8A2B8B2B61F481E040
:101B500090E0A0E0B0E080939B0290939C02A09361
:101B60009D02B0939E02FF91EF91BF91AF919F9123
:101B70008F917F916F915F914F913F912F910F9036
:101B80000FBE0F901F901895E4E6F0E08081877FEC
:101B90008083E5E6F0E08081877F808381E0809329
:101BA00098020895A42FA695A695A695B0E077274C
:101BB00047705527B695BA2FAA27B795A7956A0FEC
:101BC0007B1FFC01E60FF71F81E090E001C0880F4A
:101BD0004A95EAF7222319F09489892B03C080954E
:101BE00094898923848B08952F923F924F925F921C
:101BF0006F927F928F929F92AF92BF92CF92DF921D
:101C0000EF92FF920F931F93CF93DF93CDB7DEB781
:101C10002A970FB6F894DEBF0FBECDBF6A3091F49D
:101C2000FC01E85EFB4F408132972081318158E012
:101C3000459F200D311D112431832083329711825D
:101C40001082CAC06D3009F4C7C09A878987885E40
:101C50009B4F9C838B83DC012C90E985FA85EA5E9F
:101C6000FB4F60807180E985FA85EC5EFB4FFA835B
:101C7000E9830081118100381105D4F0AB81BC816A
:101C80002C91422F50E0E981FA8180819181F6E028
:101C90002F9F800D911D1124A981BA818D939C9352
:101CA000E985FA85E75EFB4F2081211167C094C06A
:101CB000B0E46B16710414F7C801E5E02E9E800DA8
:101CC000911D112418161906CCF6422C512CC30173
:101CD000F8E02F9E800D911D11241816190674F638
:101CE00055E0659F900111243F832E83E12CF12C58
:101CF00085E0E816F10441F0EE81FF81EE0DFF1D55
:101D0000E851FF4F349001C0312C430138E0932D4E
:101D100091709D8358018A2D801B8215F0F4640117
:101D20008C2D88198215A8F4A0E8AA16B10468F4CD
:101D3000B0E4CB16D10448F42D81A601B501898504
:101D40009A8538870E94D20D3885EFEFCE1ADE0AC9
:101D5000E7CFFFEFAF1ABF0ADECF36943150840CC5
:101D6000951C3111D4CF2FEFE21AF20A040D151D84
:101D700036E0E316F10409F0BBCF80CF6AEF6403CD
:101D80009001659F300D112420583F4F28173907C7
:101D90001CF5A985BA85ED91FC9111970190F08110
:101DA000E02D6AE0CD012A960FB6F894DEBF0FBE93
:101DB000CDBFDF91CF911F910F91FF90EF90DF90FA
:101DC000CF90BF90AF909F908F907F906F905F90DB
:101DD0004F903F902F9009942A960FB6F894DEBF4B
:101DE0000FBECDBFDF91CF911F910F91FF90EF906C
:101DF000DF90CF90BF90AF909F908F907F906F902B
:101E00005F904F903F902F90089544E150E060E044
:101E100070E08CED90E00C94C2100F939091FD0255
:101E200093FB222720F991E09227941719F1282F8C
:101E3000262770E090E020FF0DC0FB0143E0EE0F8D
:101E4000FF1F4A95E1F7E454FD4FE80FF91F0081A9
:101E5000017001C001E023E0660F771F2A95E1F7CA
:101E6000049628E048E033E0880F991F3A95E1F79F
:101E70000E9480100F910895CF93DF93C82FD62F23
:101E800088E0689FF0011124E454FD4FEC0FF11D30
:101E9000808182FF19C02FEF4FEF8C2F0E94B10578
:101EA000811123C02FEF41E06D2F8C2F0E94B105CF
:101EB00081111BC021E04FEF6D2F8C2F0E94B105C7
:101EC000811113C021E00AC081FFF4CF2FEF4FEF43
:101ED0008C2F0E94B105811108C02FEF41E06D2FBA
:101EE0008C2FDF91CF910C94B105DF91CF910895A4
:101EF000BF92CF92DF92EF92FF920F931F93CF93F7
:101F0000DF93E82E809318011092FC0281E0809309
:101F10001901C0E0D0E0BC2ECE0184549D4F6C016D
:101F200000E010E0F601908190FF04C0969591705A
:101F30009E15C9F00F5F1F4FF8E0CF0ED11C08307F
:101F4000110581F72196C830D10529F7F12CF092BF
:101F5000BB02DF91CF911F910F91FF90EF90DF9027
:101F6000CF90BF900895602F8B2D0E943C0FF82ECC
:101F7000882301F385E591E00E94ED0F8BE691E067
:101F80000E94ED0FCE010E9405108DE691E00E94A7
:101F9000ED0FC8010E9405108FE691E00E94ED0F41
:101FA00081E791E00E94ED0FD2CFCF93DF9390E0D5
:101FB00090937D0780937C0770E070937F07609318
:101FC0007E07EA016991662329F088E693E00E9482
:101FD000F40DF8CFDF91CF910895BC01009791F0F7
:101FE000FC0101900020E9F73197AF01481B590B24
:101FF000E0911803F09119030280F381E02D88E14C
:1020000093E0099480E090E008958F929F92AF92C0
:10201000BF92CF92DF92EF92FF920F931F93CF93D5
:10202000DF93CDB7DEB7A1970FB6F894DEBF0FBE32
:10203000CDBF6C01990FEE08FF08F7FE31C0E091AB
:102040001803F09119030190F081E02D6DE288E111
:1020500093E009958C0122273327A9012C193D090A
:102060004E095F0919A2CE0181967C019AE0892E62
:10207000912CA12CB12CCA01B901A50194010E9497
:102080005F18605DF70162937F01211531054105FD
:10209000510589F7CF010E94ED0F800F911F1DC0E0
:1020A000A701960119A28E010F5D1F4F8AE0C82E6D
:1020B000D12CE12CF12CCA01B901A70196010E9493
:1020C0005F18605DF80162938F01211531054105AC
:1020D000510589F7CF010E94ED0FA1960FB6F89434
:1020E000DEBF0FBECDBFDF91CF911F910F91FF904B
:1020F000EF90DF90CF90BF90AF909F908F9008951A
:102100008F929F92AF92BF92CF92DF92EF92FF9207
:102110000F93CF93DF936B01EC014C01840E911C64
:102120005B01A20EB11CC815D90504F57601D7FED6
:1021300013C0E12CF12C10C0E816F906ACF4C0383D
:10214000D10538F4202FA701BE0188E693E00E9454
:10215000D20D2FEFE21AF20AC50121E4A216B10452
:102160005CF380E490E0E8CF2196DDCFDF91CF9162
:102170000F91FF90EF90DF90CF90BF90AF909F9026
:102180008F9008954F925F926F927F928F929F925D
:10219000AF92BF92CF92DF92EF92FF92CF93DF93F5
:1021A000EC014A015B0181E0809317032E01612C51
:1021B000712C60E072E18AE790E0A30192010E9435
:1021C000351869017A0181E0C81AD108E108F108DF
:1021D000C114D10481E0E806F10488F068E478EEE7
:1021E00081E090E0A30192010E94351869017A0113
:1021F00081E0C81AD108E108F10883E001C081E05C
:1022000090918100987F982B909381008114910484
:10221000A104B10471F0DE01AA0FBB1FA501940156
:102220000E94541828EE33E040E050E00E945F180E
:1022300003C02FEF3FEFA901D0928900C092880020
:102240002093130330931403409315035093160304
:1022500080916F00826080936F00DF91CF91FF903B
:10226000EF90DF90CF90BF90AF909F908F907F9036
:102270006F905F904F900895CF93DF930E94ED0F82
:10228000EC0181E791E00E94ED0F8C0F9D1FDF9123
:10229000CF910895CF93DF9390911203923009F478
:1022A0006EC0C82F292F30E0F901EB54F74FD491BD
:1022B000F901E257F84F80839F5F9093120361E02A
:1022C0000E946F09D13019F0D33039F158C0109203
:1022D000800010928100809181008860809381004D
:1022E000809181008160809381008C2F90E0FC01BF
:1022F000EA56F74FE491F0E0EE0FFF1FE857F74F73
:10230000259134913093110320931003FC01E75978
:10231000F74F849180930F0332C010929000109277
:10232000910080919100886080939100809191004C
:102330008160809391008C2F90E0FC01EA56F74F6A
:10234000E491F0E0EE0FFF1FE857F74F259134912D
:1023500030930E0320930D03FC01E759F74F84914E
:1023600080930C0380911203882321F06CE380E0BA
:102370000E94E90B80E0DF91CF910C94D40CDF91A7
:10238000CF91089520E08CE793E0B22FB111BFEF19
:10239000FC010024B193B193B193B1930394D1F7AD
:1023A0000895FC0180910B03811103C08FEF9FEF13
:1023B00008959FB7F89482E08093E9002091F2009D
:1023C00030E01216130614F421E030E02115310537
:1023D00059F0289884E680930A038091F100808365
:1023E0008091F200882319F09FBFC90108958BE600
:1023F0008093E800F9CF8091860781110DC082E0BB
:102400008093820784E0809383071092850710925F
:10241000840781E08093860782E897E00895CF9350
:10242000DF93CDB7DEB763970FB6F894DEBF0FBE6C
:10243000CDBF789484B5826084BD84B5816084BD4D
:1024400085B5826085BD85B5816085BD80916E0052
:10245000816080936E001092810080918100826083
:1024600080938100809181008160809381008091C0
:1024700080008160809380008091910082608093D1
:1024800091008091910081608093910080919000F3
:102490008160809390008091C10084608093C1002E
:1024A0008091C10082608093C1008091C1008160F1
:1024B0008093C1008091C30081608093C3008091AC
:1024C000C00082608093C0008091C20081608093D0
:1024D000C20080917A00846080937A0080917A00B3
:1024E000826080937A0080917A00816080937A0084
:1024F00080917A00806880937A0010920B0310928A
:10250000AF021092AE028091D70081608093D70015
:1025100080EA8093D80089B5806189BD89B58260E1
:1025200089BD09B400FEFDCF61E070E080E090E07D
:102530000E94430A8091D8008F7C80618093D800EC
:102540008091E000807F8093E0008091E1008E7EAA
:102550008093E1008DE08093E200559A209AEEEF9F
:10256000FFE7859194918B3F9C4D19F481E0809316
:10257000AD021FB7F8948091FE02811127C0E7EAEF
:10258000F8E08491EAE7F8E09491E82FF0E0EE0FAC
:10259000FF1FE25DF74FA591B491EC91E92321F47F
:1025A00061E081E10E940C0961E081E10E946F0914
:1025B0008CB580618CBD8CB580648CBD61E08FE092
:1025C0000E946F0961E080E10E946F098091FE0224
:1025D0008F5F8093FE021FBF06E518E0F80184912B
:1025E0000E5F1F4F31966491882319F00E946F0986
:1025F000F5CF61E086E00E940C0961E070E080E0C8
:1026000090E00E94430A60E086E00E940C096AE0C4
:1026100070E080E090E00E94430A61E086E00E9462
:102620000C09E2EAF8E0E491F0E0EE0FFF1FE85752
:10263000F74F859194919093B6028093B502E5E7A8
:10264000F8E0E491E093B402EAE9F8E0E491F0E024
:10265000EE0FFF1FE857F74F859194919093B302C7
:102660008093B202EDE6F8E0E491E093B1028CB51C
:102670008C7F8CBD8DB581608DBD0E94700B0CE38D
:1026800018E0F8E006351F0739F0F80184910E9440
:10269000A20B0F5F1F4FF5CF0E948E0B809164003D
:1026A0008160809364008091640082608093640004
:1026B00080916400806880936400809164008064ED
:1026C00080936400809165008160809365000E9422
:1026D000530B87FF22C00E94700B80E10E94A20B67
:1026E00082E00E94A20B0E948E0B00E014E080E0CA
:1026F0000E94A20B01501109D1F760E070E089E05F
:102700000E94AB0960E070E08AE00E94AB0960E0E3
:1027100070E08BE00E94AB09FFCF0EEE1FEF442468
:102720004A94512C78E0872E912C88E1801BB201CD
:10273000681B710989E00E94AB096FEF70E08AE0C5
:102740000E94AB096FEF70E08BE00E94AB090E9422
:10275000C2110D87003FACF48CE793E00E94A90BF7
:102760006BE170E080E090E00E94430A3D85303FDD
:1027700009F064C06AEF70E080E090E00E94430AD4
:102780005DC0980117FF04C022273327201B310B9F
:1027900027703327C80117FD079653E09595879555
:1027A0005A95E1F717FF05C00197A401421B530B8F
:1027B0009A017C01F694FE2CEE24F794E79440E015
:1027C00050E05401A21AB30AB70160587F4F3B0191
:1027D0008F3F7FEF970744F40196485A5F4F73018C
:1027E000403B510589F7B8CFD701A05FBB4F60E0F0
:1027F00070E08F3FEFEF9E0709F46BC3FB01E40F1E
:10280000F51FE258F84FE4916D01C618D708CE0CB9
:10281000DF1CF0E01F01022E02C0220C331C0A94C0
:10282000E2F73C862B86F6013080EB85FC85E329B8
:10283000FC87EB872B84F60120824BC30F5F1F4F71
:102840000931110509F071CF6EEE72E080E090E081
:102850000E94430A6FEF70E089E00E94AB096FEFBE
:1028600070E08AE00E94AB096FEF70E08BE00E949D
:10287000AB0985E00E944A1183E00E944A11109240
:10288000B00282E090E00E942D1881110E94C40DD8
:102890008CE380936E0380E1809371030E94C40DEA
:1028A0008FEF9FEF909325038093240310920303EF
:1028B0008CEB92E008E0302E380E3B8A9E01255FBB
:1028C0003F4F3C872B872FB7F8948091B7029091A8
:1028D000B802A091B902B091BA022FBF20917A0339
:1028E000222391F020917203382F321B30937B0307
:1028F00020916F03309170032F5F3F4F309370032F
:1029000020936F0310927A034091760350917703DE
:10291000609178037091790384179507A607B7072C
:102920007CF4481B423008F4CCC283B7817F83BF5C
:1029300083B7816083BF889583B78E7F83BFC1C211
:1029400020917103AC01BD01420F511D611D711D2C
:1029500040937603509377036093780370937903E1
:102960008093720390937303A0937403B0937503E1
:1029700001E000937A038091FD028F5F8093FD0256
:102980000E94530B85FF06C0B0900903B026009348
:10299000090303C010920903B12C0E94530B86FF58
:1029A00007C0C090080381E0C8268093080303C0D5
:1029B00010920803C12C0E94530B87FF07C0E090C0
:1029C000070381E0E8268093070303C01092070302
:1029D000E12C0E94530B84FF07C00091060381E0A5
:1029E00008278093060303C01092060300E00E94AC
:1029F000530B83FF07C0D090050381E0D826809356
:102A0000050303C010920503D12C0E94530B82FFD3
:102A100007C0F090040381E0F8268093040303C00C
:102A200010920403F12C80910303813009F45BC000
:102A300020F0823009F470C177C1EE2041F080911E
:102A4000FC02882309F4C2C281508093FC02002357
:102A500041F08091FC0281113FC081E08093FC0233
:102A60003BC0FF2009F460C18091FC02811137C096
:102A70008CEB92E020E061E040E050E0FC01E40FEC
:102A8000F51F1082485F5F4F40345105B9F7FC01D4
:102A900030E0432F422740FD60833F5F389633305C
:102AA000C1F7FC01B89635E0432F422740FF02C032
:102AB00043E040833F5F38963830B1F72F5F01968F
:102AC0002830D1F684E0809302038093010381E0F3
:102AD0000E94780F81E004C0FF2009F425C182E044
:102AE0008093030321C1BB2029F080910203815010
:102AF00080930203CC2029F0809102038F5F8093A2
:102B00000203EE2029F0809101038150809301039C
:102B1000002329F0809101038F5F8093010380914E
:102B200002038770E82E809302030091010307706F
:102B300000930103DD2049F080911901882319F0E9
:102B40001092FC0202C00E94050FFF2009F4ECC0A5
:102B5000F090180151E0F11001C050E08CEB92E0D0
:102B600020E030E0FC01E20FF31F408140FFCCC1C8
:102B7000469541704513C8C18091FC02811118C06F
:102B800018E0019FF0011124E454FD4FEE0DF11DFA
:102B9000808180FFE2C1869581708F87188A8F2D92
:102BA00090E02F8438882816390609F0D6C1B7C1BD
:102BB000813009F0B9C0A090FF0290910003692F05
:102BC00070E0CA2CD12CDB0118E0A19EA00DB11D34
:102BD00011249D0124543D4F3901D9018C912E2D92
:102BE00030E0402F50E0F901B8E00B9FE00DF11DFF
:102BF0001124E454FD4FB080B0FE03C084E791E09F
:102C0000AAC1182F1470B12E82FD0CC09924939480
:102C10000A1508F0912C81FF03C0911003C099C1DF
:102C2000911097C19E1997FD9195A01AA7FCA194A8
:102C30009A119FEF4C0D5D1D55954795B3E0440FDC
:102C4000551FBA95E1F7260F371F35952795240FA5
:102C5000351F24543D4FD9014C91913039F44091A6
:102C6000BB024423B1F080E991E075C1923071F468
:102C700040FF76C146954170498B1A8A4F2D50E02E
:102C800029883A882416350621F46AC18FE991E033
:102C900062C18083D3011C929230C9F4D9011C9285
:102CA000BB20B9F0602F8E2D0E943C0F8823C1F00D
:102CB00048E250E060E070E088EB91E00E94C210D2
:102CC00010921901E09200030093FF022DC0B11091
:102CD00082C1002309F454C1073009F044C150C136
:102CE00048E250E060E070E08EEE91E00E94C21099
:102CF00068E270E080E090E00E94430A40E550E026
:102D000060E070E08BE492E00E94C21081E0F1107C
:102D100080E00E94780F08C0D11002C0FF2021F08F
:102D20001092FC02109203030E94C21180910303CF
:102D3000813039F078F0823009F0BFC046ED51E0C3
:102D4000B8C02CEBC22E22E0D22E812C912CA12CCB
:102D5000B12C56C043EB51E06AE089E10E94D50FE7
:102D60008091FC02811108C08091FD0283FD02C0A8
:102D700089E003C087E001C080E28093C10141EC9B
:102D800051E06EE18EE10E94D50F8091FC0281300E
:102D900041F48091FD0283FD02C089E003C087E019
:102DA00001C080E28093C80148EC51E068E28EE106
:102DB00082C0822D832580FF08C001E028E048E022
:102DC0006D857E85C7010E948010D301ED913D0184
:102DD000E770E150E73020F12394B8E0EB0EF11CEE
:102DE000E8E02E12E6CFFFEFAF1ABF0A10E8810E1F
:102DF000911C28E0C20ED11C38E0A316B10469F181
:102E00003A2CA6014C5B52405E874D87360180E22A
:102E1000E82EF12C212C240154E1450E511CC9CF80
:102E2000F0E0EE0FFF1FE15DFE4F40815181411543
:102E3000510591F2D201AE0DBF1DA859BC4F80E0E3
:102E400090E0FA01E80FF91FE4912C91E227ED934D
:102E5000019688309105A9F7BFCF01E020E441E059
:102E600060E070E08FE190E00E94801020E441E09B
:102E700060E070E080E690E00E94801041E06091A8
:102E80000103809102030E940D0F8091FC028130AA
:102E900039F440E06091FF02809100030E940D0F21
:102EA00080911801813019F04CE051E002C042E1FC
:102EB00051E061E080E00E94D50F8CE793E00E9432
:102EC000A90B80E090E0892B09F4FDCC0E94000062
:102ED000FACC2115310581F0FB01E40FF51FE25812
:102EE000F84FE491F0E00A2C02C0F595E7950A94BA
:102EF000E2F7DC90ED29EC936F5F7F4F1196683518
:102F0000710509F076CC68CC285F3F4F203431053D
:102F100009F028CE01962B88281222CE01CF80916D
:102F2000BB02882331F0602F8E2D0E943C0F882336
:102F3000A1F081E08093FC02E09200030093FF0285
:102F400048E250E060E070E086E291E00E94C2104A
:102F5000EBCE8EE592E00E943C110E94050FE4CE7C
:102F60008CE792E0F8CF913039F448E250E060E02D
:102F700070E081E791E0C8CE923009F0D5CE92CED4
:102F80008081846080838AE0E5E2F1E0DE011196D1
:102F900001900D928A95E1F7BE016F5F7F4F6B0143
:102FA00048E250E060E070E0F601819191916F019C
:102FB0000E94C21068E270E080E090E00E94430A44
:102FC0002B843C84C214D30459F7A0CE011145CD03
:102FD000F1104ECDA9CE913009F0A6CEC6CFE8E1D2
:102FE000F3E01382128288EE93E0A0E0B0E08483E5
:102FF0009583A683B78381E491E0918380838FEFEB
:103000009FEF95878487E8E6F3E01382128281E5DB
:1030100091E0918380838CE3868380E181871086B1
:10302000178216861786108A118A128A10927D07D7
:1030300010927C0710927F0710927E0781E08093A8
:1030400080070895EE0FFF1F0590F491E02D09947D
:1030500081E090E0F8940C949018F999FECF92BD1D
:1030600081BDF89A992780B50895052E97FB1EF427
:1030700000940E944C1857FD07D00E945F1807FC6F
:1030800003D04EF40C944C185095409530952195F2
:103090003F4F4F4F5F4F0895909580957095619584
:1030A0007F4F8F4F9F4F08950E948118A59F900DCD
:1030B000B49F900DA49F800D911D11240895A1E24D
:1030C0001A2EAA1BBB1BFD010DC0AA1FBB1FEE1FA2
:1030D000FF1FA217B307E407F50720F0A21BB30BED
:1030E000E40BF50B661F771F881F991F1A9469F769
:1030F00060957095809590959B01AC01BD01CF01C5
:103100000895A29FB001B39FC001A39F700D811DC0
:103110001124911DB29F700D811D1124911D0895E0
:04312000F894FFCF51
:10312400FFFFFFFF00E10000000000005768697422
:103134006500426C61636B0001010100000000C185
:10314400808100000026017101B801EE014B027676
:103154000700006E070000660700005E070000001D
:103164000051057D0A72051B06390667050000003B
:1031740000F40D2605412070696563652063616E66
:10318400206A756D7021204174200028002C0029CC
:10319400000D0A0043616E2774206D6F76652074FC
:1031A4006F2074616B656E207371756172652100A7
:1031B400596F75206D757374206A756D7021004D9B
:1031C4006F76696E672077617920746F6F2066610E
:1031D4007221004D6963726F436865636B65727336
:1031E400002053746172740020496E7374727563A5
:1031F40074696F6E7300557365207468652061721D
:10320400726F77206B65797320746F0A6D6F7665C2
:103214002074686520637572736F722E0A5072652C
:103224007373204220746F2073656C65637420612E
:103234000A70696563652C20616E64207072657321
:10324400732042206F6E0A74686520737175617211
:103254006520796F752077616E740A746F206D6FC5
:10326400766520697420746F2E0A5072657373201A
:103274004120746F2063616E63656C2E0A004E6F8B
:103284006E206B696E672063616E2774206D6F76A4
:1032940065206261636B7761797321004E656564B3
:1032A400206120706965636520746F206A756D7094
:0832B400206F76657221000015
:00000001FF
