:100000000C9497040C94BF040C94BF040C94BF048C
:100010000C94BF040C94BF040C94BF040C94BF0454
:100020000C94BF040C94BF040C94F4270C94662821
:100030000C94BF040C94BF040C94BF040C94BF0434
:100040000C94BF040C9441200C94BF040C94BF0486
:100050000C94BF040C94BF040C94BF040C94F71FC1
:100060000C94BF040C94BF040C94BF040C94BF0404
:100070000C94BF040C94BF040C94BF040C94BF04F4
:100080000C94BF040C94BF040C94BF040C94BF04E4
:100090000C94BF040C94BF040C94BF040C94BF04D4
:1000A0000C94BF040C94BF040C94BF048C1E8F1ED0
:1000B0007E1E821E861EB01EB01EB01E931E971E90
:1000C0009B1EA11EA51EB01EAB1E271F2C1F311F7D
:1000D0003B1F451F8F1F8F1F8F1F4F1F591F631FF0
:1000E0006D1F7A1F8F1F821F00000000003E5B4FB4
:1000F0005B3E3E6B4F6B3E1C3E7C3E1C183C7E3C88
:10010000181C577D571C1C5E7F5E1C00183C180095
:10011000FFE7C3E7FF0018241800FFE7DBE7FF3025
:10012000483A060E2629792926407F050507407F93
:1001300005253F5A3CE73C5A7F3E1C1C08081C1C06
:100140003E7F14227F22145F5F005F5F06097F01FC
:100150007F006689956A606060606094A2FFA294E7
:1001600008047E040810207E201008082A1C0808B5
:100170001C2A08081E101010100C1E0C1E0C303803
:100180003E3830060E3E0E06000000000000005F04
:1001900000000007000700147F147F14242A7F2A20
:1001A00012231308646236495620500008070300E2
:1001B000001C2241000041221C002A1C7F1C2A082E
:1001C000083E080800807030000808080808000091
:1001D00060600020100804023E5149453E00427F05
:1001E000400072494949462141494D331814127F54
:1001F0001027454545393C4A4949314121110907F4
:100200003649494936464949291E00001400000074
:100210004034000000081422411414141414004146
:1002200022140802015909063E415D594E7C121103
:10023000127C7F494949363E414141227F4141413B
:100240003E7F494949417F090909013E41415173B6
:100250007F0808087F00417F41002040413F017F27
:10026000081422417F404040407F021C027F7F04EF
:1002700008107F3E4141413E7F090909063E415138
:10028000215E7F09192946264949493203017F0128
:10029000033F4040403F1F2040201F3F4038403F29
:1002A000631408146303047804036159494D43003F
:1002B0007F4141410204081020004141417F040276
:1002C000010204404040404000030708002054540D
:1002D00078407F28444438384444442838444428EB
:1002E0007F385454541800087E090218A4A49C783E
:1002F0007F0804047800447D40002040403D007F9A
:100300001028440000417F40007C047804787C0879
:100310000404783844444438FC182424181824244D
:1003200018FC7C08040408485454542404043F4432
:10033000243C4040207C1C2040201C3C4030403C61
:1003400044281028444C9090907C4464544C4400C1
:100350000836410000007700000041360800020125
:100360000204023C2623263C1EA1A161123A404011
:10037000207A38545455592155557941215454788F
:1003800041215554784020545579400C1E52721228
:1003900039555555593954545459395554545800B0
:1003A00000457C410002457D420001457C40F0292A
:1003B0002429F0F0282528F07C5455450020545479
:1003C0007C547C0A097F49324949493232484848BD
:1003D00032324A4848303A4141217A3A4240207804
:1003E000009DA0A07D39444444393D4040403D3CFF
:1003F00024FF2424487E4943662B2FFC2F2BFF0922
:1004000029F620C0887E0903205454794100004415
:100410007D413048484A32384040227A007A0A0A00
:10042000727D0D19317D2629292F28262929292673
:1004300030484D4020380808080808080808382FB8
:1004400010C8ACBA2F102834FA00007B0000081442
:100450002A142222142A14089500220095AA005575
:1004600000AAAA55AA55AA000000FF00101010FF0C
:1004700000141414FF001010FF00FF1010F010F013
:10048000141414FC001414F700FF0000FF00FF1404
:1004900014F404FC141417101F10101F101F141450
:1004A000141F00101010F0000000001F101010109A
:1004B0001F10101010F010000000FF10101010108E
:1004C00010101010FF10000000FF140000FF00FFCC
:1004D00000001F10170000FC04F414141710171468
:1004E00014F404F40000FF00F7141414141414148A
:1004F000F700F7141414171410101F101F141414FD
:10050000F4141010F010F000001F101F0000001F66
:1005100014000000FC140000F010F01010FF10FF99
:10052000141414FF141010101F00000000F010FF2E
:10053000FFFFFFFFF0F0F0F0F0FFFFFF0000000012
:1005400000FFFF0F0F0F0F0F38444438447C2A2A56
:100550003E147E02020606027E027E026355494177
:10056000633844443C04407E201E2006027E020282
:1005700099A5E7A5991C2A492A1C4C7201724C3096
:100580004A4D4D303048784830BC625A463D3E496D
:100590004949007E0101017E2A2A2A2A2A44445F11
:1005A000444440514A444040444A51400000FF0105
:1005B00003E080FF000008086B6B08361236243613
:1005C000060F090F06000018180000001010003078
:1005D00040FF0101001F01011E00191D1712003C00
:1005E0003C3C3C000000000000060D13191F252CA8
:1005F00032383E444A50565C62676D73787E838819
:100600008E93989DA2A7ABB0B4B9BDC1C5C9CDD0DA
:10061000D4D7DBDEE1E4E7E9ECEEF0F2F4F6F7F94B
:10062000FAFBFCFDFEFEFFFF3EC0A317027F204445
:10063000885C4391B91714BE13A83400C80B48084E
:1006400080BE0BB85714438BA9341C7F05480800A3
:100650007F18A497403EE08302107C80070F02EED3
:1006600042E8085CEEA249B7146C1378148090132A
:100670008808006C0B68170AEE8E59540EEE12981B
:100680002840FE62480F017C802705100000FCFE18
:100690001C3870E0C080000080E06C0CC0C4CAD17F
:1006A000CAC4C08030373FF8F0303080E070301876
:1006B0001818183070E084100208C0F0F0C0F0FC88
:1006C000FC00E0F0381C0C80C0E0800000003F7FA0
:1006D000381C0E070301181E0701183C7CECCCCC1B
:1006E000C0C0FFFF001060618F0E00071F3830642C
:1006F00065626531381F07303C0F030F0F0300039D
:1007000033303133373E3C18000101000000C0F0A7
:10071000FD3F0F2321F1F1D90F0EC6F0FD3F2F232E
:1007200021F1D1D90F0E06C0F0FD3F0F03F1FAFC05
:100730000E060301018187860608C0F0FD3F2F23C6
:1007400022F4D0D80E0F070182846810060B132301
:100750002222222223212120160B13232224283097
:1007600081C3E3B2980A83C3637258F80098F963AF
:10077000339ACAE2B3B92988CA6B735BCAA8381026
:10078000010B13222429332D00000000FFFF6363B7
:1007900063B67E5C40787EC68383C3467E78407FA6
:1007A000FFE3636336BE9C404040808000C0404011
:1007B00040404080800000F8FC0E027CFEFFFFFFFE
:1007C0000706FCF000080402071860800101000021
:1007D00000FF00003E22229C8041FF0000CE4A8A9A
:1007E0000420519EE3809C2222229C8063FF000013
:1007F000CE4A4A2420110E0107060E0E153B3B3748
:1008000037371B4D80878080404E201F000000023C
:1008100000090F0000030401000C000000000000AC
:1008200000000000000000000000000000000024A4
:100830000027002A002D003000D5F08D14A1C881BA
:10084000CFD9F1AF200014021302120215020702E1
:10085000080204010C010601000408020110408096
:100860004010204080408008020401804020100297
:1008700001108010204040200000000025002800CA
:100880002B002E00310004040404040304050202BA
:100890000202040302020202060606060606040419
:1008A0000202020404080B00020202010009040013
:1008B00000010202000005240010010524010101CD
:1008C00004240206052406000107058103100040E8
:1008D00009040100020A00000007050202400000AE
:1008E000070583024000000403090441726475692E
:1008F0006E6F204C4C430041726475696E6F204CE2
:10090000656F6E6172646F001201000200000040AA
:100910004123368000010102030112010002EF02AF
:10092000014041233680000101020301332E1124CE
:100930001FBECFEFDAE0DEBFCDBF27E0A4E9B2E013
:1009400001C01D92A139B207E1F712E0A0E0B1E0C9
:10095000ECEEF5E602C005900D92A439B107D9F787
:1009600014E0C7E9D4E004C02197FE010E94AE2E36
:10097000C639D107C9F70E94A32A0C94F4320C940B
:100980000000DF92EF92FF920F931F93CF93DF93BC
:10099000D82FC62F082F10E0FF24F394EE24EA94FA
:1009A000E80EDD24D394D80EA0919602B091970260
:1009B000F80187E0C89FE00DF11D1124CF01880FD9
:1009C000991FE80FF91FAF014A0F5B1FFA018085DD
:1009D000811127C02781CD0186529F4FFC01808164
:1009E00028131FC0A752BF4F9C919F5F9C93FA0191
:1009F000F086D11105C06C2F8D2D0E94C10406C058
:100A00006C2F8E2D0E94C104D630A8F3CC2339F070
:100A10006FEF6C0F8D2F0E94C104C93010F4CF5FAF
:100A2000C3CFDF91CF911F910F91FF90EF90DF9097
:100A30000895CF93DF93C0919402D091950240E046
:100A400050E0842F9DE0899F90011124D9011696D2
:100A5000AA0FBB1FAA0FBB1FAC0FBD1FF9017396D6
:100A6000EE0FFF1FEE0FFF1FEC0FFD1F17962C91CF
:100A70009781291303C08F5F843021F790E0841B96
:100A8000950B02971CF088E08E8307C04F5F5F4F85
:100A900043305105B1F681E08D83DF91CF91089508
:100AA00087FD0CC0803418F09FE7981B892FE82F32
:100AB000F0E0E851FA4F849190E00EC0E0E8E80FD2
:100AC000E03410F0E82FE095F0E0E851FA4F84911F
:100AD00090E091958195910902C0959587956A95C9
:100AE000E2F70895805C0C945005809196029091F5
:100AF00097020C94823180919802909199020C9403
:100B0000823180919402909195020C948231CF931E
:100B1000DF938DE091E00E94ED30FC018DE091E0EB
:100B2000DF019C011D9221503040E1F780E090E010
:100B3000A0E7B2E480839183A283B38381E08583BD
:100B4000DF01A55FBE4F82E08C93F0939502E093A6
:100B500094023A9620E03DE04FE35BE0DF0113971B
:100B60001C92822F632F0E947A2E963051F4EF014F
:100B700021974883859F902D1124935B90838F5FED
:100B80008C932F5F3496213449F7DF91CF910895EC
:100B90008F929F92AF92BF92CF92DF92EF92FF928D
:100BA0000F931F93CF93DF9300D000D01F92CDB748
:100BB000DEB78091AC029091AD028F7799270091BA
:100BC000940210919502892B81F428E431EE4AE7D2
:100BD0005FE3D8016D917D918D919C910E945C3075
:100BE000F8016083718382839383D80116968C9178
:100BF0001697882309F4F8C0815016968C938111BA
:100C0000DAC240E050E0F42E842FBDE08B9F9001CB
:100C10001124D9011696AA0FBB1FAA0FBB1FA00F44
:100C2000B11FF9017396EE0FFF1FEE0FFF1FE00FCC
:100C3000F11F17962C919781291303C08F5F843081
:100C400021F7282F30E0241B350B223031050CF41E
:100C5000C4C0EE24E394E80E8E2D90E0841B950B27
:100C6000889FA001899F500D500D1124F8016581C6
:100C7000649F9001659F300D11244091AF02509107
:100C8000B002240F351F3093B0022093AF020597B6
:100C900021F484E092E00E94DB1720E800919402A6
:100CA00010919502FE1408F068C0FDE0FF9EC0019F
:100CB0001124FC013796EE0FFF1FEE0FFF1FE00F10
:100CC000F11F3781332311F1BC01660F771F660FC7
:100CD000771F40E050E0FA01E60FF71FE00FF11F29
:100CE00083A094A0A5A0B6A0878E90A2A1A2B2A234
:100CF0004C5F5F4F4831510571F7FC013C96EE0F98
:100D0000FF1FEE0FFF1FE00FF11F27C0FC013596FC
:100D1000EE0FFF1FEE0FFF1FE00FF11F3781332390
:100D2000F1F0880F991F880F991F40E050E0FA01F9
:100D3000E80FF91FE00FF11F838C948CA58CB68C03
:100D4000878E90A2A1A2B2A244505109483E3FEF23
:100D5000530769F7F801E80FF91F17820CC00696D0
:100D6000880F991F880F991FF801E80FF91F81E07C
:100D70008F0D87832187F39491CFD80115968C919D
:100D8000823021F480E192E00E94DB17F801858136
:100D9000833021F48DE192E00E94DB17D801159693
:100DA0008C91843021F48AE292E00E94DB17F801F2
:100DB0008581863020F085E392E00E94DB17D80120
:100DC00015968C9115978F5F15968C9386E191E01F
:100DD0000E94EB250E941905EEC14F5F5F4F433023
:100DE000510509F010CFE7C18091C902813009F0A7
:100DF00044C0F801E55FFE4F8081BDE08B9FC001DC
:100E00001124AC01440F551F440F551FF801E40F86
:100E1000F51F278121110BC0FC013796EE0FFF1F34
:100E2000EE0FFF1FE00FF11F2781211103C083E2A6
:100E300091E021C020E030E0F901E40FF51FE00F60
:100E4000F11FC384D484E584F684C782D086E1860A
:100E5000F2862C5F3F4F2033310571F7FC013C9641
:100E6000EE0FFF1FEE0FFF1FE00FF11F17820E9412
:100E7000190580E391E00E94EB258091C702813043
:100E800009F044C0F801E55FFE4F8081EDE08E9FE0
:100E9000C0011124FC013C96EE0FFF1FEE0FFF1F57
:100EA000E00FF11F278121110BC0FC013596EE0FD9
:100EB000FF1FEE0FFF1FE00FF11F2781211103C05D
:100EC00083E291E021C0880F991F880F991F20E0CD
:100ED00030E0F901E80FF91FE00FF11F43A954A911
:100EE00065A976A947AB50AF61AF72AF2450310905
:100EF000203DFFEF3F0769F7F801E80FF91F178260
:100F00000E94190580E391E00E94EB258091C402C4
:100F1000882309F4A1C081E0F801E45FFE4F8083DB
:100F20008091C802813009F042C0D8015F962C91AF
:100F30005F9790969C91909791968C919197AD5ACE
:100F4000BF4F4D915D916D917C911397F801478F43
:100F500050A361A372A3E957FF4F40815181628181
:100F600073814D935D936D937C931397A859BF4FF5
:100F70004D915D916D917C91139740835183628374
:100F80007383E859FF4F40815181628173814D9392
:100F90005D936D937C93139720839183828384E484
:100FA00083830E9419058DE391E00E94EB258091D7
:100FB000C602813009F048C0F801E151FF4F40817D
:100FC00031812281C80185549F4FDC01CD90DD9095
:100FD000ED90FC901397C082D182E282F382D49785
:100FE000CD90DD90ED90FC901397FC01C082D182F2
:100FF000E282F382B8016D5A7F4FFB01C080D1803D
:10100000E280F380CD92DD92ED92FC921397F8018D
:10101000878D90A1A1A1B2A1FB0180839183A283BE
:10102000B383D8015F964C935F9790963C939097CB
:1010300091962C93919782E092968C930E94190539
:101040008DE391E00E94EB258091C402813021F470
:101050008DE391E00E94EB25F80164816F5F64836A
:1010600070E080E090E00E94CB2FD8012D913D915F
:101070004D915C910E94573018160CF09CC0F801FD
:10108000148220E03DE090E040E050E080E0F80194
:10109000E40FF51F678161118F5F4C5F5F4F443331
:1010A0005105A9F7831720F49983382F21E00AC04E
:1010B000831308C0E1E0F0E0EC0FFD1FE20FF11D2B
:1010C00090832F5F9F5F0C5C1F4F9530E9F63D309A
:1010D00019F40E9433216FC030E040E050E060E03E
:1010E00070E0CB010E940F22FE01E60FF71FF18096
:1010F000C0909402D0909502FDE0FF9EC0011124A3
:10110000BC01660F771F660F771F6C0D7D1D40E0D9
:1011100050E021E0FB01E40FF51F33A131110DC0B8
:101120002A5FFC01E20FF11DEE0FFF1FEE0FFF1F04
:10113000EC0DFD1D30E8318719C0FB01E41BF50BF8
:10114000338D31110EC036E0321B232FFC01E30F2B
:10115000F11DEE0FFF1FEE0FFF1FEC0DFD1D1186A1
:1011600005C02F5F4C5F5F4F2730A1F68C01020F47
:10117000111D0E946D32000F111F000F111FC00EB4
:10118000D11E25E030E040E050E00E949132DC01C9
:10119000CB010196A11DB11DF601878380919402B8
:1011A00090919502FC01E00FF11F9BE0F99E902DBC
:1011B0001124935F92878091C40281112EC0009107
:1011C0009402109195027801F4EFEF1AFEEFFF0AF6
:1011D000D7018C91882331F080E391E00E94EB25C8
:1011E000F70110828091C802813049F4F801E55F6F
:1011F000FE4F80818150853008F084E080838091AB
:10120000C602813051F4F801E55FFE4F80818F5FA7
:10121000853010F4808301C010820F900F900F90E2
:101220000F900F90DF91CF911F910F91FF90EF9052
:10123000DF90CF90BF90AF909F908F900895BF9216
:10124000CF92DF92EF92FF920F931F93CF93DF9392
:101250008091960290919702FC01EC53FF4F9C0104
:1012600027523F4F4081442359F0DF91CF911F9186
:101270000F91FF90EF90DF90CF90BF900C943321AF
:101280003396E217F30771F757E09C0149E0F90143
:10129000E255FF4F60817596608374976081759603
:1012A00060834150255131094111F1CF51500396CE
:1012B0005111EBCF00E010E034E0B32E43E0C42E38
:1012C000D12CE12CF12C8091960290919702E801AB
:1012D000CC0FDD1FC00FD11FC80FD91FBE820E94C7
:1012E0006D32A70196010E949132DC01CB0101967B
:1012F000A11DB11D8F830F5F1F4F0730110519F717
:10130000DF91CF911F910F91FF90EF90DF90CF90E1
:10131000BF900895CF93DF9387E291E00E94ED3074
:10132000FC0187E291E0DF019C011D9221503040D9
:10133000E1F780E090E0A0E7B2E480839183A283AC
:10134000B383148281E085831682DF01A55FBE4FDF
:1013500082E08C9311961C92F0939702E093960290
:10136000A450B140E652FF4FED012297188221961A
:1013700018821C921396AE17BF07B1F70E941F097F
:101380000E941F09DF91CF910C941F09AF92BF9269
:10139000CF92DF92EF92FF920F931F93CF93DF9341
:1013A000CDB7DEB762970FB6F894DEBF0FBECDBFE4
:1013B0008091AC029091AD0266E970E00E94862EA9
:1013C0000091960210919702892B81F428E431EE66
:1013D0004AE75FE3D8016D917D918D919C910E94C8
:1013E0005C30F80160837183828393838091C902AA
:1013F000813041F4F801E852FF4F8081882311F0D9
:10140000815080838091C702813041F4F801E85215
:10141000FF4F8081863010F48F5F8083D80115964E
:101420008C911597882309F493C0815015968C935D
:1014300081117FC181E791E00E94EB25A801415213
:101440005F4FFA011082E75DF10980E090819923F6
:1014500091F09F0121503109D9011C921082DA01CB
:101460009C919801290F311D20523F4FD9018C9337
:101470009F5FDA019C938F5F3396863439F7F801CA
:10148000EA5DFE4F108219821A821B821C82FE01C5
:1014900035968DE0DF011D928A95E9F77801B9ED67
:1014A000EB0EF11CF701608170E0CE0101960E9405
:1014B000401861E472E0CE0101960E942418CE012A
:1014C00001960E94DB17D7012C918091AF02909179
:1014D000B002229F800D911D11249093B002809341
:1014E000AF021C92A801495F5F4F20E030E0DA01B3
:1014F00081E09C91911120C0982FF90167E0969F9F
:10150000E00DF11D1124BF01660F771FE60FF71FD5
:10151000E00FF11F7F0167E0E60EF11C6781662393
:1015200041F06C939681FD0131979083F701108211
:1015300003C09F5F9A3009F755968F5F8A30C9F6CE
:101540002F5F3F4F4D5F5F4F2730310581F6F1C070
:101550008091C602813009F04CC07801FBEDEF0E9E
:10156000F11CD7018C91833008F043C0F801E85298
:10157000FF4F608170E09AE09150FB01B7E09B9FC4
:10158000E00DF11D11249F01220F331FE20FF31F05
:10159000E00FF11FAF01495F5F4F2781222339F12F
:1015A000B80166527F4FDB0181110CC02C938681FC
:1015B000F801E452FF4F808381E0F7018083DA0174
:1015C0001C9210C09C91291314C09801280F311D42
:1015D00024523F4F9681F90190838F5FD7018C93FE
:1015E000FA01108284E691E00E94EB2502C091117D
:1015F000C3CF8091AC0280FF07C0D80114968C91B4
:1016000014978F5F14968C93F801648170E080E0EA
:1016100090E00E94CB2FD8012D913D914D915C918E
:101620000E94573018163CF40E941F09E091960260
:10163000F091970214828091C802813009F079C03C
:101640000091960210919702D801A552BF4F8C913C
:10165000882309F46EC07801E8EDEE0EF11CF70165
:10166000208130E04AE06FEF640FC901F7E06F9F1F
:10167000800D911D1124FC01EE0FFF1F8E0F9F1F87
:10168000F801E80FF91F8781811104C0462F61110D
:10169000EACF04C0642F4A3009F447C05801FAED7C
:1016A000AF0EB11C8C91882301F1A90197E0699FCD
:1016B000400D511D11246A01CC0CDD1C4C0D5D1D2B
:1016C000400F511FF5019081FA01978381508C934F
:1016D000F801E80FF11DCF0184529F4FFC0180817A
:1016E000FA0186836F5F6A30E9F687E591E06A8BDD
:1016F0000E94EB256A896150D7018C910E94C10438
:10170000D801A752BF4F8C91843020F089E0F801B6
:1017100085830FC0F801389606521F4F108233960A
:10172000E017F107D9F71C9204C08AE491E00E9407
:10173000EB2562960FB6F894DEBF0FBECDBFDF91EA
:10174000CF911F910F91FF90EF90DF90CF90BF90BE
:10175000AF900895BF92CF92DF92EF92FF920F93D6
:101760001F93CF93DF93209198023091990240E02C
:1017700050E005E015E0BB24B39485E08150BA0148
:101780009BE0899F600D711D1124069FF001079F4A
:10179000F00D1124E20FF31F908591113CC0982F9A
:1017A0009923C9F19150EA01EBE09E9FC00DD11D34
:1017B00011240C9FD0010D9FB00D1124A20FB31F57
:1017C0007D01F8E0EF0EF11C1896DC901897DD20F3
:1017D00039F3169FF001179FF00D1124E20FF31F4C
:1017E000D08621961C9F60011D9FD00C1124E90119
:1017F000CC0DDD1D98816F5F7F4F169FE001179F15
:10180000D00D1124C20FD31F988316969C919683F6
:10181000B782F70110828111B1CF4F5F5F4F4B301C
:10182000510509F0AACFDF91CF911F910F91FF9041
:10183000EF90DF90CF90BF9008958FB12CB193B10E
:1018400030E02095309520743327A90123E0559589
:1018500047952A95E1F7292F30E0209530952071A2
:1018600033273595279535952795242B8095807FAF
:10187000822B08959C013C5FFC014191CF014EBD3C
:10188000119C119C119CE217F307B1F70895603881
:10189000710518F54034510500F5A42FA695A695BD
:1018A000A695B0E047705527B695BA2FAA27B795E9
:1018B000A7956A0F7B1FFC01E60FF71F81E090E000
:1018C00001C0880F4A95EAF7222319F09289892BE3
:1018D00003C0809592898923828B0895EF92FF92AD
:1018E0000F931F93CF93DF938F5F4230E1F043302C
:1018F000B1F1413009F055C0062F10E0E12CF12C78
:10190000C82FD0E0C7018C0F9D1F2FEFE21AF20AFB
:1019100022E1E216F10409F444C021E043E0B801F9
:101920000E941624EFCF062F10E0C82FD0E041E12F
:10193000B801CE010E94422421E043E0B801CE016B
:1019400040960E94162421E043E0B801CE01DF91C9
:10195000CF911F910F91FF90EF900C941624062FBA
:1019600010E0C82FD0E041E1B801CE010E9442242E
:10197000F12C81E1E82E8F2D6E2D0E947A2EA80188
:10198000480F511D4F5F5F4FBE01690F711D21E070
:1019900082E193E00E94470CF394F39482E2F81200
:1019A000EACFDF91CF911F910F91FF90EF900895B3
:1019B0008F929F92AF92BF92CF92DF92EF92FF925F
:1019C0000F931F93CF93DF931F92CDB7DEB70E9483
:1019D000952491E0C12CD12C08E010E0E12CF12CF1
:1019E0008090960290909702A7014C0D5D1DFA0120
:1019F000EE0FFF1FDF01A40FB51FA80DB91D17962D
:101A00008C91179781110BC02FEFC21AD20A9E5EDC
:101A100037E0C316D10401F700E010E03EC016968F
:101A20008C911697282F30E0201731071CF48F5F18
:101A300016968C93DF01A40FB51FA80DB91D16963D
:101A40002C911697622F70E00617170784F48FEF1A
:101A5000820F9801281B310937FF02C02D5F3F4FCD
:101A60003595279535952795280F16962C93E40FD5
:101A7000F51FE80DF91D47816681892F99830E9422
:101A80006E0C47E0E40EF11C0C5F1F4F998166E479
:101A9000E616F10409F0A4CFB7CF8091AC02909183
:101AA000AD029695879596958795800F911F8370C7
:101AB0009927029740F421E040E350E0B80182E129
:101AC00093E00E94470C0F5F1F4F0038110529F764
:101AD000B12C840105521F4F74018AEDE80EF11CF0
:101AE000640198EDC90ED11C82E1A82EF801808115
:101AF000B81608F03EC02B2D30E06CEF6203A00159
:101B0000639F500D1124280D391DF901E452FF4F38
:101B10006081CA01CB96861B910997FD0396959526
:101B2000879595958795860F682F70E0FA01F7964F
:101B3000E617F70724F0F901E452FF4F09C0465CAD
:101B40005F4F46175707BCF3F901E452FF4F8F5F11
:101B50008083F901E452FF4FD6018C918A9D802D3C
:101B60001124D7014C9160818F5F0E946E0CB39459
:101B7000BDCF7401FAEDEF1AFEEFFF0AD7018C9189
:101B80008530A8F5D12C840101521F4F77E0C72E74
:101B9000D8018C91F701D81638F54081E42FF0E098
:101BA000D401AD0DB11DA052BF4F8C916C2D0E9480
:101BB0007A2E9F012E5F3F4F220F440F4F5E682FFA
:101BC00070E06E5F7F4F660F771F660F771F6E1B8B
:101BD0007F0B32E1939FC001112402968E1B9F0B55
:101BE0000E946B24D394D4CF80818F5F8083840143
:101BF00008521F4FD8018C91B2E18B9FC001112474
:101C000041E16FE370E002960E9442248091AC02B1
:101C100080FF3FC0F8018081282F30E09AE091508A
:101C2000F90147E0949FE00DF11D1124AF01440F2D
:101C3000551FE40FF51FE80DF91D4781442311F0EE
:101C4000968103C09111EBCF94E0492F50E07A01C7
:101C500068E0E60EF11CA2E18A9FC00111246A012E
:101C6000B4E0CB0ED11CAC014A5F5F4F9701B601C7
:101C70000A960E949123F8018081F2E18F9FC001B2
:101C80001124AC01425F5F4F9701B6010A960E9492
:101C900091238091AC029091AD0201969093AD0298
:101CA0008093AC020F90DF91CF911F910F91FF9025
:101CB000EF90DF90CF90BF90AF909F908F9008955E
:101CC0004F925F926F927F928F929F92AF92BF924C
:101CD000CF92DF92EF92FF920F931F93CF93DF93F8
:101CE000572EC82E623009F445C090F5662309F4DA
:101CF00045C1613009F015C1C92FD0E01AEA170FAC
:101D000066E0812F0E9472057E01E80EF91ED12C3B
:101D100066E0812F0E9450058601080F191F65E5B6
:101D2000962E950C66E0892D0E9472055E01A80E24
:101D3000B91E66E0892D0E9450054601880E991E45
:101D400066E0852D0E947205C80FD91F66E06DC040
:101D5000092F10E0C82FD0E0643009F49EC008F4C9
:101D60006FC0653009F0DDC0E12CF12C96E0A92EA2
:101D7000B12CB7C0C92FD0E010E4170F66E0812F57
:101D80000E9472057E01E80EF91ED12C66E0812FBB
:101D90000E9450058601080F191F50E8452E450C7A
:101DA00068E0842D0E9472053E01680E791E68E08D
:101DB000842D0E9450054601880E991E68E0852DED
:101DC0000E9472055E01A80EB91E68E0852D0E9472
:101DD00050059301A401B5018C0D9D1D0E94A42402
:101DE00010EC150D66E0812F0E9472057E01E80E51
:101DF000F91E66E0812F0E9450058601080F191F09
:101E000068E0842D0E9472055E01A80EB91E68E08C
:101E1000842D0E9450054601880E991E68E0852D8C
:101E20000E947205C80FD91F68E0852D0E945005D9
:101E30009501A401BE018C0D9D1D0E94A4249EC08D
:101E400080E4580E44E0F42E66E0852D0E94720571
:101E50004801880E991E66E0852D0E9450055E019E
:101E6000A80EB91E30ECE32EE50C66E08E2D0E9424
:101E700072056801C80ED91E66E08E2D0E945005BD
:101E80009401A501B6018C0F9D1F0E949123FA9425
:101E900080E4580EF110D8CF71C0E12CF12C25E070
:101EA000A22EB12CC701B5010E949A2ED52CD60EB8
:101EB00066E08D2D0E9472054801880E991E66E02D
:101EC0008D2D0E945005AE01480F591F9401B80195
:101ED000CE010E949123F394E11485E0F80611F7F6
:101EE0004DC0C701B5010E949A2ED52CD60E66E0D2
:101EF0008D2D0E9472054801880E991E66E08D2D79
:101F00000E945005BE01680F791F21E0A40182E103
:101F100093E00E94470CF394E11486E0F80609F779
:101F20002DC0D0E2D50DC8E0092F10E0D12C65E01E
:101F30008D2F0E9472053801680E791E65E08D2F85
:101F40000E9450054601880E991E80EEF82EFD0E67
:101F500065E08F2D0E9472055801A80EB91E65E03C
:101F60008F2D0E9450059301A401B5018C0D9D1D7C
:101F70000E949123C150D05EC111D9CFDF91CF9182
:101F80001F910F91FF90EF90DF90CF90BF90AF9097
:101F90009F908F907F906F905F904F9008952F92B9
:101FA0003F924F925F926F927F929F92AF92BF92B9
:101FB000CF92DF92EF92FF920F931F93CF93DF9315
:101FC00000D0CDB7DEB70E94952400919402109105
:101FD0009502D80116968C91811115C08091C4028A
:101FE000882389F021E04FE368E070E087E390E028
:101FF0000E94162421E04FE368E070E086E490E060
:102000000E9416242EC0C12CD12C4FE3E42EF12CBB
:102010008091AC029091AD029695879596958795A3
:102020008C0D9D1D837099270297A0F421E0A601D5
:10203000485F5F4F67E370E082E193E00E94470CE6
:1020400021E0A7014C195D0966E470E082E193E0AC
:102050000E94470CBFEFCB1ADB0AE8E3CE16D1048F
:10206000B9F67091AC02F801E55FFE4F80819BE00C
:10207000899F902D11246BE08FE3935F0E94600E87
:10208000065F1F4FE12CF12C20E8C22ED12C570106
:10209000BDE0AB0EB11C280159E040E01201F3E0B5
:1020A0002F1A3108D1018C91882309F472C0F201F2
:1020B000608192012250310982913601681A7108BB
:1020C000C301860F911D860F911D880F6091AC0290
:1020D0007091AD0276956795860FD9018C93463045
:1020E00018F4BBEF9B2E05C0463029F028F0A5E080
:1020F0009A2E950E01C0952E292D30E06081C901E0
:10210000861B910997FD03969595879595958795DB
:10211000860F682F70E0621B730B161617060CF4FF
:10212000815080836081862F90E0821B930B97FF04
:1021300002C06F5F6083F2012081C501821B91099B
:1021400097FD03969595879595958795820F282FEE
:1021500030E02A193B09121613061CF0D2018C93A9
:1021600003C08150F2018083D2018C91282F30E08E
:102170002A193B0937FF02C08F5F8C93F101608100
:102180007181828193814A8359830E94600E5981B3
:102190004A814F5FF4E04F0E511C575F4D3009F0FC
:1021A0007DCF0C5C1F4F8BE0E80EF11CA7E3EA1615
:1021B000F10409F06CCF8091AC029091AD020196D0
:1021C0009093AD028093AC020F900F90DF91CF916E
:1021D0001F910F91FF90EF90DF90CF90BF90AF9045
:1021E0009F907F906F905F904F903F902F900895B9
:1021F0002F923F924F925F926F927F928F929F9217
:10220000AF92BF92CF92DF92EF92FF920F931F9304
:10221000CF93DF93CDB7DEB72A970FB6F894DEBF22
:102220000FBECDBF6A3091F4FC01EA5EFB4F4081E6
:1022300032972081318158E0459F200D311D1124B6
:1022400031832083329711821082C1C06D3009F42E
:10225000BEC09A8789878A5E9B4F9C838B83DC01F3
:102260002C90E985FA85EC5EFB4F60807180E985F2
:10227000FA85EE5EFB4FFA83E98300811181003815
:102280001105D4F0AB81BC812C91422F50E0E98143
:10229000FA8180819181F6E02F9F800D911D11249C
:1022A000A981BA818D939C93E985FA85E95EFB4FFC
:1022B000208121115EC08BC0B0E46B16710414F74D
:1022C000C801E5E02E9E800D911D112418161906F7
:1022D000CCF6422C512CC301F8E02F9E800D911DAD
:1022E00011241816190674F655E0659F9001112403
:1022F0003F832E83E12CF12C85E0E816F10441F0B8
:10230000EE81FF81EE0DFF1DE851FF4F349001C0BB
:10231000312C630138E0932D91709D834801882D05
:10232000801B8215B0F456018A2D8C19821568F431
:102330002D81A501B40189859A8538870E94470CB3
:10234000AFEFAA1ABA0A3885EFCFBFEF8B1A9B0AF4
:10235000E6CF36943150C40CD51C3111DCCFEFEFF1
:10236000EE1AFE0A040D151DF6E0EF16F10421F633
:1023700089CF6AEF64039001659F300D11242058C6
:102380003F4F281739071CF5A985BA85ED91FC91B7
:1023900011970190F081E02D6AE0CD012A960FB6E9
:1023A000F894DEBF0FBECDBFDF91CF911F910F918B
:1023B000FF90EF90DF90CF90BF90AF909F908F9065
:1023C0007F906F905F904F903F902F9009942A9646
:1023D0000FB6F894DEBF0FBECDBFDF91CF911F9136
:1023E0000F91FF90EF90DF90CF90BF90AF909F90B4
:1023F0008F907F906F905F904F903F902F900895B7
:10240000FF920F931F93CF93DF9300D000D01F92C2
:10241000CDB7DEB70091980210919902F801E85EFD
:10242000FE4F208130E031969081F9014BE0949F7E
:10243000E00DF11D1124319645E0F42EFE9EA00121
:10244000FF9E500D1124400F511F75E0FA01DE016F
:10245000119601900D927A95E1F7280F311D87FDB5
:102460003A95062E000C770B690F711DEBE0E69F85
:10247000C001E79F900D1124280F391F2F5F3F4F98
:10248000F29EC001F39E900D1124080F191F85E0E4
:10249000F801DA0101900D928A95E1F785E0FE01DD
:1024A0003196D80101900D928A95E1F70F900F9027
:1024B0000F900F900F90DF91CF911F910F91FF9090
:1024C0000895CF92DF92EF92FF920F931F93CF93D5
:1024D000DF93D82FC62F082F10E085E0F82EEE24CA
:1024E000E394DD24DA94DD0ECC24C394CD0E209148
:1024F000980230919902C8014BE0C49F800D911D54
:102500001124F89EF001F99EF00D1124E20FF31F43
:102510008185811120C0D901A45EBE4F90858C9128
:10252000981319C0E186D11105C06C2F8C2D0E9423
:10253000611206C06C2F8D2D0E946112DA30A8F353
:10254000CC2339F06FEF6C0F8D2F0E946112C430D5
:1025500010F4CF5FCCCFDF91CF911F910F91FF90FF
:10256000EF90DF90CF900895CF92DF92EF92FF929D
:102570000F931F93CF93DF931092AB021092AD0293
:102580001092AC021092B0021092AF02E091AE0233
:102590008EE0E89FF0011124E851FD4F0190F08199
:1025A000E02D0995809164008E7F8093640087EC14
:1025B00080937C0080E280937B0062E070E080E0AA
:1025C00090E00E94BD1F80917A00806480937A0021
:1025D00080917A0086FDFCCFC0917800D09179007F
:1025E000C095D0958EE580937C0062E070E080E03D
:1025F00090E00E94BD1F80917A00806480937A00F1
:1026000080917A0086FDFCCF0091780010917900CE
:102610000E94981F9B01AC012095309540955095E4
:10262000009510950C9FD0010D9FB00D1C9FB00D13
:1026300011240E94B0326B017C010E94981F6C0D26
:102640007D1D8E1D9F1D611571058105910511F080
:102650000E9472328091640081608093640088EDF2
:102660009BE19093C3028093C202DF91CF911F91AF
:102670000F91FF90EF90DF90CF90089586E591E065
:102680000E94ED30FC0186E591E0DF019C011D9286
:1026900021503040E1F780E090E0A0E7B2E4808391
:1026A0009183A283B383148281E085831682DF0144
:1026B000A55FBE4F82E08C9311961C92F093990215
:1026C000E0939802A450B140E55EFE4F1C9215962F
:1026D000AE17BF07D9F708952F923F924F925F929E
:1026E0006F927F928F929F92AF92BF92CF92DF9222
:1026F000EF92FF920F931F93CF93DF93CDB7DEB787
:102700006C970FB6F894DEBF0FBECDBF0E94952424
:1027100080909802909099028091AC029091AD02C5
:102720006C01D694C794D694C794DF82CE8201966A
:102730009C01369527953695279539872887212C32
:10274000312C412C512C45E008E010E02D8223E390
:10275000298335E03C8F3C8D31503C8F5BE0359FC9
:10276000C00111249201280F391F429FF001439F9D
:10277000F00D1124E80DF91D5085511107C0298174
:102780002B5029833C8D3111E6CF72C157810896B9
:10279000552379F0752F76956681670F66835F5FA5
:1027A000578370E08617970714F5C980C682178291
:1027B0001EC05681BC01651B710977FF02C06D5FA9
:1027C0007F4F7595679575956795650F861B910980
:1027D0000396429FF001439FF00D1124E80DF91D6F
:1027E000079710F0668303C089818F5F8683429FBD
:1027F000F001439FF00D1124E80DF91D5581C10131
:10280000851B910997FD03969595879595958795D5
:10281000850FB101681B71096D5F7F4F67307105CE
:1028200010F0858302C0DD80D582F581CF2ED12CBA
:10283000429FD001439FB00D1124A80DB91D1696DB
:10284000EC91AE2EB12C8E819F818C0D9D1D8A0D39
:102850009B1D66E070E00E94862EFF24F394039790
:1028600008F4F12CCA0CDB1C888599858C0D9D1D04
:1028700063E070E00E94862E51E0892B09F050E061
:10288000FD5F429FC001439F900D1124D401A80F0A
:10289000B91F18968C918150FF2019F029E02B8FD9
:1028A00001C01B8E90E062E3659F900111246901D5
:1028B000C80ED91EDF86CE866C01CC0CDD1CDB86F3
:1028C000CA866E2E66946694669450E8659E3001C2
:1028D0001124B30160587F4F7D876C87BC016F5F07
:1028E0007F4F6B01C20ED31EDC82CB8223E030E02F
:1028F000281B390B220F331F6FEF70E002C0759554
:1029000067952A95E2F7688BA4E0B0E0A81BB90BA5
:10291000CD01880F991F8E0F911D5C0197FF03C099
:10292000B7E0AB0EB11C53E0B594A7945A95E1F70C
:10293000B694BA2CAA24B794A794B8010E949A2EF0
:10294000950120583F4F3A8B298BB801681B790BB2
:102950007C8B6B8B60E070E0AF2FB0E0BE8BAD8BFB
:102960005E2F57706801C51AD108D88ECF8AEE85C0
:10297000FF85E60FF71FE85DF94FE4912D893E8949
:10298000DB8C2D0D311D6901C60CD71CF0E00A84CB
:1029900002C0F595E7950A94E2F7DF01BB27BA8FED
:1029A000A98FD601AE5EBC4FC98CDA8C052E01C052
:1029B000CC0C0A94EAF75296EC905297CE28529695
:1029C000CC92EC85FD85E20FF31FDF01AE5EBC4FBC
:1029D000C98CDA8C0F8802C0D594C7940A94E2F7A8
:1029E0005296FC915297EC2DEF2B5296EC93EB8183
:1029F000FC81E60FF71FE85DF94FE490D901AA0DBD
:102A0000BB1DC888EC20EE2DF0E0AE5EBC4F6F0120
:102A1000082E01C0CC0C0A94EAF75296EC9052971B
:102A2000CE285296CC92C988DA882C0D3D1DD9014A
:102A3000AE5EBC4F6F010B8802C0D594C7940A9458
:102A4000E2F752962C915297EC2DE22B5296EC9392
:102A5000FF2021F02B8D21502B8F03C03B8D3F5F3A
:102A60003B8F6B5F7F4F6233710509F080CF87CE5C
:102A70005FEF451A550A6BE0260E311C7BE04716C6
:102A8000510409F063CEE0909802F090990257014A
:102A90004BEAA41A4EEFB40AD5018C918B3008F0A2
:102AA0005EC0412CC701835E9E4F9A8389838BE071
:102AB000382EA981BA818C91481608F04CC0F701D4
:102AC000E40DF11DE25EFE4F8081F5019081292F1A
:102AD00030E035952795C92EC20E532C591A632D17
:102AE0000E947A2E839D802D1124885F082F10E08C
:102AF0003801621A730A939D902D11249D5F492F0E
:102B000050E05C834B834A01821A930A252D452DA0
:102B1000B301C4010E946B24D12C6B817C816C0DAC
:102B20007D1D7C836B83252D452DB3018B819C817D
:102B30000E946B240C0D1D1D252D452DB8018B8188
:102B40009C810E946B24252D452DB801C4010E9453
:102B50006B244394AECFF50180818F5F8083809199
:102B6000AC0280FF15C0F701E75EFE4F6081319730
:102B70008081FBE06F9FB0011124695F7F4F2BE0E4
:102B8000829FC00111242CE04CE002960E946B242D
:102B90008091AC029091AD0201969093AD0280932A
:102BA000AC026C960FB6F894DEBF0FBECDBFDF91BE
:102BB000CF911F910F91FF90EF90DF90CF90BF903A
:102BC000AF909F908F907F906F905F904F903F90CD
:102BD0002F900895CF92DF92FF920F931F93CF9380
:102BE000DF9300D000D01F92CDB7DEB7F82E198248
:102BF0001A821B821C821D822091980230919902B8
:102C000085E0F89EB001112440E050E080E0CF2C38
:102C1000D12CFA01E60FF71FE20FF31F90859923DD
:102C200031F0FE01E90FF11D91E0918305C08F5F46
:102C3000495C5F4F853069F781509BE0899F800137
:102C40001124F11018C0A601400F511F4F5F5F4FB4
:102C500065E0649FC001659F900D1124F901E80FA4
:102C6000F91F8085E1E0F0E0EC0FFD1FE80FF11D9A
:102C700081E0808318C0C601800F911F019745E055
:102C8000489FF001499FF00D1124E20FF31F80854A
:102C9000E1E0F0E0EC0FFD1FE80FF11D81E0808323
:102CA00089E08F1580F6FE0132969E012A5F3F4F24
:102CB00080E0919191118F5FE217F307D1F724E043
:102CC00030E0281B3109032E000C440B550B60E04B
:102CD00070E0CB010E940F2291E0662361F0E1E0F9
:102CE000F0E0EC0FFD1FE90FF11D80819F5F811166
:102CF000F6CF6150F2CFE1E0F0E0EC0FFD1FE90FFD
:102D0000F11D8081882311F09F5FF5CFE09198023B
:102D1000F09199020C0D1D1D98012F5F3F4F85E02A
:102D2000829FD001839FB00D1124AE0FBF1F2BE0F7
:102D3000F29EF02C1124FC92809F9001819F300D17
:102D40001124E20FF31F168281E0878390870F9092
:102D50000F900F900F900F90DF91CF911F910F91D7
:102D6000FF90DF90CF9008951F93CF93DF93CDB75F
:102D7000DEB72D970FB6F894DEBF0FBECDBF109112
:102D8000C802113021F48091E702882381F08091FC
:102D9000C602813041F58091E702882321F110922B
:102DA000E70260E082E090E00E9483321CC00E9453
:102DB0008A261092E6021092E5021093E7028DE057
:102DC000EEE7F1E0DE01119601900D928A95E1F7B0
:102DD000CE0101960E94EB256091E70282E090E02F
:102DE0000E948332D4CF2D960FB6F894DEBF0FBE6B
:102DF000CDBFDF91CF911F9108958F929F92AF9297
:102E0000BF92CF92DF92EF92FF920F931F93CF93D7
:102E1000DF93C82F8B016B01CC0CDD1CD0922507F2
:102E2000C0922407109227071092260788E492E0A8
:102E30000E940D27EC2EF12C8EE0C89FE00111249A
:102E4000C851DD4F6885798580E090E04AE00E94B6
:102E5000CC26D0922507C092240788E090E090937A
:102E600027078093260784E592E00E940D276A8554
:102E70007B858C859D8520E13EE040E050E00E940E
:102E8000C332CA01B9014AE00E94CC2681E692E031
:102E90000E940D276A857B858C859D855CE3852E48
:102EA000912CA12CB12CA50194010E94C332CA011E
:102EB000B901A50194010E94C3326A3071058105F0
:102EC000910520F483E692E00E940D278EE08E9D0E
:102ED000F0018F9DF00D1124E851FD4F628573853F
:102EE000848595852CE3822E912CA12CB12CA501F3
:102EF00094010E94C332CA01B901A50194010E9444
:102F0000C3324AE00E94CC26C80133E0880F991FE3
:102F10003A95E1F767E070E00E949A2E80EE9FEF0D
:102F2000861B970B97FF02C080E090E0182F970157
:102F30003695322F222737952795D901A05CBF4FB0
:102F400040E650E0461B570B605E7F4F812F90E0BC
:102F5000FA014134510514F0E0E4F0E08E179F07C8
:102F6000ECF4EB01C80FD91FFC01E20FF31FE4578B
:102F7000F94F0491CE5EDC4F7E01EEE6EE1AEEEFE5
:102F8000FE0AF7010083FC01EA0FFB1FE457F94F2B
:102F9000E491CE5EDD4FE8831F5FD8CFDF91CF9104
:102FA0001F910F91FF90EF90DF90CF90BF90AF9067
:102FB0009F908F900895CF93DF932EE12093AB02E3
:102FC000EAE9F2E09C01205F3F4FDC01EC0149910E
:102FD000CE0141934C91442319F0C217D307A9F7AE
:102FE000DF91CF9108958091AB028823C1F0815089
:102FF0008093AB021092250710922407893028F0A5
:10300000109227071092260706C090E00897909329
:103010002707809326078AE992E00C940D271092E7
:1030200025071092240710922707109226078DE497
:1030300092E00E940D276091AF027091B00280E093
:1030400090E04AE00C94CC269C01FC0190E0819138
:10305000811112C0892F492F481BFB01E40FF11D7C
:103060004081D901A90FB11D4C934081442339F00F
:103070009F5F9F3F81F708959F5F9F3F41F70895AE
:10308000CF92DF92EF92FF920F931F93CF93DF9334
:10309000EC018B01FC0190E08191811133C021E0B2
:1030A00030E08AE00217130740F0A901849F9001E5
:1030B000859F300D11249F5FF5CFFE01E90FF11DB3
:1030C00010822FEF290FE1E0F0E08AE0E82EF12CEA
:1030D0003AE00E171F07C8F06E01C20ED11CC801DE
:1030E000BF010E94862ECB01B7010E94862E805D13
:1030F000D6018C93AF01349FF001359FF00D112460
:103100002150E7CF9F5F9F3F39F6DF91CF911F910D
:103110000F91FF90EF90DF90CF9008959F92AF9224
:10312000BF92CF92DF92EF92FF920F931F93CF93B4
:10313000DF93CDB7DEB76F970FB6F894DEBF0FBE43
:10314000CDBF8091AC029091AD0266E970E00E9423
:10315000862E0091980210919902892B81F428E41F
:1031600031EE4AE75FE3D8016D917D918D919C919D
:103170000E945C30F8016083718382839383809125
:10318000C4029091C902882309F4D0C06801F8EE06
:10319000CF1AFEEFDF0AD6018C917801B7EEEB1A59
:1031A000BEEFFB0AF7012081FBE02F9F9001112465
:1031B000280F311D45E0B42EB29EF001B39EF00DF4
:1031C0001124E00FF11F2085222309F4AFC09130B4
:1031D00021F5882311F18150D6018C9360E081E0C4
:1031E0000E940012F7018081D6012C91BBE08B9FD9
:1031F000C0011124820F911D0196B89EF001B99E65
:10320000F00D1124E00FF11F8085811102C00E9492
:10321000AA0B8BE891E00E94EB258091C7028130D8
:1032200031F5F60180818A3010F58F5F808360E090
:103230008FEF0E940012D7018C91F6012081FBE0F4
:103240008F9FC0011124820F911D019725E0289FB7
:10325000F001299FF00D1124E00FF11F80858111ED
:1032600002C00E94AA0B8BE891E00E94EB2595E03A
:10327000D7018C91843090F4D6014C91BBE08B9FA8
:1032800090011124240F311D929FF001939FF00DA6
:103290001124E00FF11F2085222329F09091C8020C
:1032A000913061F504C08F5FF7018083E1CF8823FF
:1032B00029F1F6019081282F30E0215031096BE08F
:1032C000629FA001639F500D1124490F511D95E08D
:1032D000949F9001959F300D1124F801E20FF31F88
:1032E0009085992359F08150D7018C9361E080E05B
:1032F0000E9400128BE891E00E94EB258091C602AB
:10330000813071F4F7018081843050F48F5F8083C5
:103310006FEF80E00E9400128BE891E00E94EB25A5
:103320009BE0C92ED12C25E0A22E2FC0913041F474
:10333000F801E85EFE4F8081882311F08150808380
:103340008091C702813041F4F801E85EFE4F808130
:103350008A3010F48F5F80838091C802813041F4FD
:10336000F801E75EFE4F8081882311F08150808351
:103370008091C6028130A1F6F801E75EFE4F8081A0
:10338000843070F68F5F8083CBCF85EF982E9C0CB6
:103390007601B12C24EF2C0D009198021091990226
:1033A000C7010B97A89EF001A99EF00D1124E00F14
:1033B000F11F9085992309F44DC0878181114AC07E
:1033C000293018F5A7014A505109A49ED001A59EA5
:1033D000B00D1124A00FB11F17968C911797811172
:1033E00014C042505109A49EF001A59EF00D112475
:1033F000E00FF11F8781811108C018968C919813F6
:1034000004C08085981709F445C18FEF8B0D833078
:1034100008F5AE9CD001AF9CB00D1124A00FB11FD8
:1034200017968C911797811115C0A7014651510924
:10343000A49EF001A59EF00D1124E00FF11F8781DD
:10344000811108C018968C91981304C08085981734
:1034500009F420C1B394FBE0EF0EF11C35E0B31288
:103460009BCF4FEFC41AD40A56E1C516D10409F018
:103470008CCFF8013996D12C80E09801235E3E4F25
:103480009081992381F0D394DF0111971C921082CF
:10349000D9019C91D801A90FB11DA25EBE4F8C939A
:1034A0009F5FD9019C938F5F3596873349F7DD2065
:1034B00009F47BC0F801EB5AFE4F108219821A8280
:1034C0001B821C82FE0135968DE0DF011D928A95DC
:1034D000E9F7AD2CB12CB501CE0101960E94401840
:1034E0007801B6EEEB1ABEEFFB0AF701808182305D
:1034F00080F065E672E0CE0101960E942418D701A3
:103500006C9170E0CE0101960E9440186EE272E06C
:1035100002C061E472E0CE0101960E942418CE013F
:1035200042962DE0FC0111922A95E9F720E130E066
:103530003B8B2A8B2CE030E03D8B2C8B27E030E05E
:10354000398F288F29E130E03D8F2C8F055E1E4F8B
:10355000D8014C9121EF3FEF241B31093F8B2E8B7B
:103560000E94EB25CE0101960E94DB17F701208116
:103570002D9D900111242A9DC0012B9D900D3A9DF7
:10358000900D11242091AF023091B002820F931F51
:103590009093B0028093AF020E94AA0B80E1D80101
:1035A0008C93F70180818F5F808300919802109146
:1035B0009902F801E55EFE4F8081882311F0815069
:1035C00004C081E0F801E65EFE4F80838091AC028A
:1035D0009091AD028132910538F46BE070E00E9469
:1035E000862E0E94EA1563C0D80114966C91149738
:1035F0006F5F14966C9370E080E090E00E94CB2F98
:10360000F80120813181428153810E945730181680
:103610000CF04DC0F8013896C801CF9620E03081FB
:10362000311101C02F5F3596E817F907C1F7211155
:1036300003C00E94332128C030E040E050E060E049
:1036400070E0CB010E940F222091980230919902E4
:1036500080E095E0662359F0F901989FE00DF11D97
:10366000112440858F5F4111F7CF6150F3CF45E0C2
:10367000F901489FE00DF11D11249085992311F067
:103680008F5FF6CF0E94EA15E0919802F0919902BF
:1036900014820DC0F801E35EFE4F108231979083D3
:1036A0006B2D892D2F8F0E9461122F8DD3CE6F9697
:1036B0000FB6F894DEBF0FBECDBFDF91CF911F9143
:1036C0000F91FF90EF90DF90CF90BF90AF909F90C1
:1036D000089522E133E083E022393807B9F040E071
:1036E00050E090E0F901E40FF51F8289682F66959C
:1036F000880F892B828B40585F4F962F907441150D
:1037000084E0580779F72F5F3F4FE5CF8091C002E3
:103710009091C1024D9728F0E091BA02F091BB025E
:1037200009940895CF93E091AE02CEE0CE9FF001D0
:103730001124E851FD4F0480F581E02D09950E9488
:10374000F31785E290E0909325078093240780E2A9
:1037500090E0909327078093260789E692E00E94E5
:103760000D278091C0029091C1024F97F8F080918F
:10377000C4028823D9F0E091AE02CE9FF00111245B
:10378000E851FD4F0680F781E02D09951092C102A6
:103790001092C00283E19CE19093BB028093BA0235
:1037A00089E69BE19093C3028093C202CF91089572
:1037B000CF938091C5028130E1F41092C102109242
:1037C000C0028EE290E0909325078093240780E268
:1037D00090E0909327078093260783E792E00E946A
:1037E0000D2780EB9DE19093C3028093C202CF919D
:1037F0000895E091AE02CEE0CE9FF0011124E85191
:10380000FD4F0280F381E02D0995E091AE02CE9F3D
:10381000F0011124E851FD4F0480F581E02D099558
:10382000CF910C94F31780E490E00E94ED308093E8
:10383000B3029093B402FC01805C9F4F28E821936F
:10384000E817F907E1F78AE29CE19093C3028093BD
:10385000C20208954F925F926F927F928F929F92D1
:10386000AF92BF92CF92DF92FF920F931F93CF93AD
:10387000DF93CDB7DEB72D970FB6F894DEBF0FBE3E
:10388000CDBF0E9495248091C0029091C1028F7794
:103890009927919581959109909325078093240705
:1038A00008E310E010932707009326078AE792E0C9
:1038B0000E940D272091C0023091C1022F7733273B
:1038C00080E890E0821B930B909325078093240758
:1038D00010932707009326078AE792E00E940D279E
:1038E0008091C9028130B1F48091AE028150833061
:1038F00008F082E08093AE028091B1029091B20212
:10390000805491099093B2028093B10282EB91E0CE
:103910000E94EB258091C7028130B1F48091AE0204
:103920008F5F63E00E947A2E9093AE028091B10285
:103930009091B202805C9F4F9093B2028093B1024B
:1039400082EB91E00E94EB258091B1029091B2024E
:1039500097FD0196959587959C012F5F3F4F2330EA
:10396000310528F09093B2028093B10204C0109206
:10397000B2021092B1026091B1027091B2028091D4
:10398000AE020E94FD162091B1023091B202205485
:1039900031098091AE0290E0029603E010E0B80198
:1039A0000E949A2EB9010E94FD162091B102309119
:1039B000B202205C3F4F8091AE0290E00196B801C8
:1039C0000E949A2EB9010E94FD160091C00210912A
:1039D000C102009510950F7311278091B302909149
:1039E000B402080F191F0E946D3220E031E040E060
:1039F00050E00E949132F80160838091C002817092
:103A0000F82E0F2D10E06091C0027091C102600F7E
:103A1000711F6F73772780E090E00E94C92F20E02C
:103A200030E040E85CE30E945C309B01AC0160E068
:103A300070E080E89FE30E94B42E4B015C01C090CF
:103A4000B302D090B402F601E00FF11F0081602FA5
:103A50006F7070E080E090E00E94CB2F20E030E0BB
:103A600040E051E40E94B42E9B01AC010E94B52EAF
:103A7000A50194010E94212F20E030E040E052E4B3
:103A80000E94B52E0E94932F2B013C0110E084E090
:103A9000159507958A95E1F7B801110F880B990BD9
:103AA0000E94CB2F20E030E040E051E40E94B42E91
:103AB0009B01AC010E94B52EA50194010E94212F0B
:103AC00020E030E040E852E40E94B52E0E94932F9F
:103AD00021E0A20182E193E00E94470CF394F39469
:103AE000FFE3FF1508F08DCF8091C402813001F50E
:103AF000C6010E9482311092C1021092C00284EB72
:103B000092E19093BB028093BA0289E69BE1909385
:103B1000C3028093C2028DE0E8E9F1E0DE01119674
:103B200001900D928A95E1F7CE0101960E94EB2556
:103B30000E94B4162D960FB6F894DEBF0FBECDBF0F
:103B4000DF91CF911F910F91FF90DF90CF90BF90A9
:103B5000AF909F908F907F906F905F904F9008955F
:103B6000CF93DF93C0E0D0E020E048E060E070E079
:103B7000CE010E9416242196C038D105A9F7809164
:103B8000C0029091C10280589F4F9E01281B3109AD
:103B900030932507209324071092270710922607B9
:103BA0008DE492E00E940D276091AF027091B00207
:103BB00080E090E04AE00E94CC268FE592E00E94EF
:103BC0000D278091C002C81BD109D0932507C0934F
:103BD0002407109227071092260788E492E00E949B
:103BE0000D27E091AE023EE0E39FF0011124E85181
:103BF000FD4F6085718580E090E04AE00E94CC2610
:103C00008FE592E00E940D274091C0025091C102C1
:103C1000342F3370DA014138510530F1A0E8B0E0BB
:103C200023C0BA01681B790B6F717727FC016031E3
:103C3000710500F5EC55FC4F27E060E0C0817C2F5A
:103C4000770F672B60832150E058FF4F6C2F661F62
:103C50006627661F2111F2CFFC01EE56FC4F228928
:103C6000962F922B928B3C5F832F90E08A179B07B5
:103C7000C0F219C0EC55F94F67E020E07081C72F02
:103C8000C6952C2B20836150E058F109272F2795EA
:103C9000222727956111F2CFFC01EE56F94F928948
:103CA000292B228BE0CF8091C502813031F488ED41
:103CB0009BE19093C3028093C202DF91CF910C9459
:103CC000B416362F90E0FC01E45FF74F4491FC01FD
:103CD000E75AF74F2491FC01EA57F74F8491882364
:103CE00009F451C04423E1F150E0FA013197EF307B
:103CF000F105B0F5EA5AFF4F0C94AE2E909180007A
:103D00009F7707C0909180009F7D03C090918000B5
:103D1000977F9093800024C094B59F7702C094B59C
:103D20009F7D94BD1DC0909190009F7707C090919A
:103D300090009F7D03C090919000977F909390009A
:103D40000FC09091C0009F7703C09091C0009F7DED
:103D50009093C00005C09091C200977F9093C200DD
:103D6000E82FF0E0EE0FFF1FE858F74FA591B49150
:103D70008FB7F894EC91311103C020952E2301C028
:103D80002E2B2C938FBF0895CF93DF9390E0FC01EF
:103D9000E75AF74F2491FC01EA57F74F84918823A3
:103DA00061F190E0880F991FFC01E55DF74FC59127
:103DB000D491FC01E858F74FA591B491611109C065
:103DC0009FB7F8948881209582238883EC912E23D5
:103DD0000BC0623061F49FB7F8943881822F8095D0
:103DE00083238883EC912E2B2C939FBF06C08FB723
:103DF000F894E8812E2B28838FBFDF91CF9108950F
:103E00001F93CF93DF93182FEB0161E00E94C41E34
:103E1000209711F460E004C0CF3FD10539F461E090
:103E2000812FDF91CF911F910C94611EE12FF0E063
:103E3000E45FF74FE4914E2F50E0FA013197EF30F5
:103E4000F10508F06CC0EB59FF4F0C94AE2E84B511
:103E5000806884BDC7BD68C084B5806284BDC8BDAC
:103E600063C080918000806880938000D093890037
:103E7000C093880059C08091800080628093800048
:103E8000D0938B00C0938A004FC0809180008860DF
:103E900080938000D0938D00C0938C0045C08091AA
:103EA0009000806880939000D0939900C093980010
:103EB0003BC080919000806280939000D0939B00E3
:103EC000C0939A0031C080919000886080939000E8
:103ED000D0939D00C0939C0027C08091C000806853
:103EE0008093C0008091C0008F7B8093C000C093FE
:103EF000CF001AC08091C00080628093C000C09340
:103F0000D00012C08091C20088608093C20080916E
:103F1000C2008B7F8093C200C093D20005C0C0381E
:103F2000D1050CF07CCF76CFDF91CF911F91089512
:103F30003FB7F8948091B6029091B702A091B80271
:103F4000B091B90226B5A89B05C02F3F19F0019684
:103F5000A11DB11D3FBFBA2FA92F982F8827820F0F
:103F6000911DA11DB11DBC01CD0142E0660F771F5F
:103F7000881F991F4A95D1F708958F929F92AF920B
:103F8000BF92CF92DF92EF92FF926B017C010E9471
:103F9000981F4B015C01C114D104E104F104F1F05C
:103FA0000E94981FDC01CB0188199909AA09BB0955
:103FB000883E9340A105B10570F321E0C21AD108F3
:103FC000E108F10888EE880E83E0981EA11CB11C60
:103FD000C114D104E104F10419F7DDCFFF90EF9093
:103FE000DF90CF90BF90AF909F908F9008951F92D9
:103FF0000F920FB60F9211242F933F938F939F939D
:10400000AF93BF938091BC029091BD02A091BE027C
:10401000B091BF023091B50223E0230F2D3720F479
:104020000196A11DB11D05C026E8230F0296A11D12
:10403000B11D2093B5028093BC029093BD02A09362
:10404000BE02B093BF028091B6029091B702A091D8
:10405000B802B091B9020196A11DB11D8093B602BC
:104060009093B702A093B802B093B902BF91AF91F9
:104070009F918F913F912F910F900FBE0F901F90A6
:1040800018951F920F920FB60F9211242F933F9302
:104090008F939F93EF93FF938091E5029091E602B7
:1040A000892B09F4C3C08091E50281110EC0809173
:1040B000DA029091DB022091DC023091DD02820F66
:1040C000931F9093DD028093DC022091DC023091FB
:1040D000DD028091DE029091DF02820F931F9093A8
:1040E000DF028093DE022091DC023091DD028091BC
:1040F000D8029091D902820F931F9093D902809396
:10410000D8028091E002882319F08130C9F184C07F
:104110008091DE029091DF022091E3023091E4026F
:10412000820F931F9093E4028093E3028091E40254
:1041300087FF0EC08091E4028F778093E402809124
:10414000D502E091D602F091D70290818927808331
:104150008091D8029091D9022091E1023091E2023F
:10416000820F931F9093E2028093E1028091E2021A
:1041700087FF52C08091E2028F778093E20243C0B2
:104180008091E3029091E40201969093E40280937F
:10419000E3022091E3023091E4028091DE029091EB
:1041A000DF02F5E096958795FA95E1F78217930778
:1041B00068F41092E4021092E3028091D502E0913B
:1041C000D602F091D7029081892780838091E10205
:1041D0009091E20201969093E2028093E102209195
:1041E000E1023091E2028091D8029091D902E5E09B
:1041F00096958795EA95E1F78217930768F41092F0
:10420000E2021092E1028091D502E091D602F09193
:10421000D7029081892780838091E5029091E60200
:1042200001979093E6028093E50210C09091D50229
:10423000E091D602F091D7028081282F30E0892FBB
:1042400090E080959095822393238083FF91EF9156
:104250009F918F913F912F910F900FBE0F901F90C4
:1042600018950C948332DF92EF92FF920F931F9375
:10427000CF93DF93CDB7DEB72D970FB6F894DEBF9F
:104280000FBECDBF2091AF023091B0028091AE023F
:104290001EE0189FF0011124E851FD4F4085518523
:1042A0004217530700F546E0849FC0011124632F95
:1042B0004B960E9431218091AE0256E0859FC0014D
:1042C00011246091AF024C960E943121E091AE0220
:1042D0001E9FF0011124E851FD4F8091AF02909193
:1042E000B00291878087E091AE028EE0E89FF001F6
:1042F0001124E851FD4F8091AC029091AD026EE126
:1043000070E00E94862E82859385A485B585860FF0
:10431000971FA11DB11D82879387A487B58788E168
:10432000E82EF12C00E010E09EE0D92E2091AE02A4
:10433000D29EF0011124E851FD4F82859385A4851A
:10434000B585BC01CD010E2C04C096958795779557
:1043500067950A94D2F7A801E6E02E9F400D511D03
:104360001124CA014D960E9431210F5F1F4F28E092
:10437000E21AF10804301105C9F61092C102109238
:10438000C00282E99BE19093C3028093C2028DE058
:10439000E5EAF1E0DE01119601900D928A95E1F7D0
:1043A000CE0101960E94EB252D960FB6F894DEBF44
:1043B0000FBECDBFDF91CF911F910F91FF90EF9076
:1043C000DF900895CF92DF92EF92FF920F931F93A9
:1043D000CF93DF936C017A018B01C0E0D0E0CE1562
:1043E000DF0589F0D8016D918D01D601ED91FC9129
:1043F0000190F081E02DC6010995892B11F47E0111
:1044000002C02196ECCFC701DF91CF911F910F9190
:10441000FF90EF90DF90CF9008950E941A32CF92D4
:10442000DF92EF92FF920F931F93CF93DF9300D011
:1044300000D0CDB7DEB76217730784079507FCF489
:1044400089019A016B017C01A9019801261B370B98
:10445000480B590B69F029833A834B835C830E9494
:104460006D3229813A814B815C810E94913203C077
:1044700060E070E0CB016C0D7D1D8E1D9F1D0F90C7
:104480000F900F900F90DF91CF911F910F91FF90A0
:10449000EF90DF90CF900895FC018091D4028111BC
:1044A00003C08FEF9FEF08959FB7F89482E0809349
:1044B000E9002091F20030E01216130614F421E016
:1044C00030E02115310559F0289884E68093D30215
:1044D0008091F10080838091F200882319F09FBFC2
:1044E000C90108958BE68093E800F9CFCF93DF935D
:1044F0001F92CDB7DEB76983DC01ED91FC9102809C
:10450000F381E02D41E050E0BE016F5F7F4F0995E0
:104510000F90DF91CF91089583E08093E90080911F
:10452000F200882319F08AE38093E8000895CF937E
:10453000DF931F92CDB7DEB7FC018485958597FD8B
:1045400005C02FEF3FEF358724870BC0CE010196C2
:104550000E944C22019719F4898190E002C08FEFEC
:104560009FEF0F90DF91CF9108950F931F93CF93FB
:10457000DF931F92CDB7DEB78C01FC018485958552
:1045800097FF0EC0CE0101960E944C22019719F4AC
:10459000298130E002C02FEF3FEFF80135872487F3
:1045A000F801848595850F90DF91CF911F910F9130
:1045B0000895FC018485958597FD0BC09FB7F894FD
:1045C00082E08093E9008091F2009FBF90E0019625
:1045D00008959FB7F89482E08093E9008091F200FB
:1045E0009FBF90E00895009769F0FC0101900020C2
:1045F000E9F73197AF01481B590BBC0182E193E009
:104600000C94E22180E090E008958F929F92AF9207
:10461000BF92CF92DF92EF92FF920F931F93CF93AF
:10462000DF935C016B018A0180910701882309F403
:104630005EC08091D402882309F459C08091D202CF
:1046400080FF05C08091E00082608093E000E80177
:104650008AEFF82E93E0E92E2FE3822E3AE3932E91
:10466000209709F43DC08FB7F894E092E90090914B
:10467000E80095FF06C09091F200282D291B922F8B
:1046800001C090E08FBF91110AC0FA94FF2079F128
:1046900061E070E080E090E00E94BD1FE1CF292F33
:1046A00030E0C217D3070CF49C2F8FB7F894E09238
:1046B000E9002091E80025FF11C0292F30E0C21B3E
:1046C000D30BF601915020F041914093F100FACFC5
:1046D000C20ED31E9091E80095FF13C08FBFC0CFCC
:1046E0005D9884E68093D1021016110644F081E0B3
:1046F00090E0F5019383828380E090E005C0C801DB
:1047000003C09092E800EACFDF91CF911F910F9103
:10471000FF90EF90DF90CF90BF90AF909F908F90E1
:1047200008955F926F927F928F929F92AF92BF9205
:10473000CF92DF92EF92FF920F931F93CF93DF936D
:10474000EC018B017A01A901461B570B57FF03C0EF
:10475000519541955109C7018C1B9D0B97FF03C0D3
:10476000919581959109552453948417950714F0D8
:10477000512C0AC09E2D8F2D7901292F382F9C2F67
:104780008D2FE801092F182FEC16FD0654F4902FF9
:10479000812F8901292F382F9C2F8D2FE701E92E9A
:1047A000F82E37016C1A7D0A5901A01AB10AB7FE1A
:1047B00003C0B194A194B108630177FE03C08FEFE9
:1047C000C81AD80AD594C7940217130714F08FEFAC
:1047D00001C081E0882E880F9908EC16FD06B4F020
:1047E00021E0552019F0AE01B80102C0A801BE01B8
:1047F00082E193E00E94470CCA18DB08D7FE04C090
:10480000080D191DC60CD71C2196E7CFDF91CF915B
:104810001F910F91FF90EF90DF90CF90BF90AF90DE
:104820009F908F907F906F905F900895DF92EF92AE
:10483000FF920F931F93CF93DF937C01D22E8B01B6
:10484000040F111DEB0177FF0EC0C0E0D0E00BC0DC
:10485000C417D5077CF42D2DAE01B70182E193E09A
:104860000E94470C2196A801013411058CF340E405
:1048700050E0EECFDF91CF911F910F91FF90EF901D
:10488000DF900895EF92FF920F931F93CF93DF93E2
:104890007B018C01040F111DEC0197FF0EC0C0E0DD
:1048A000D0E00BC0C817D9077CF421E0A701BE01F6
:1048B00082E193E00E94470C2196C801013811055E
:1048C0008CF380E890E0EECFDF91CF911F910F91B4
:1048D000FF90EF900895EF92FF920F931F93CF9365
:1048E000DF93EC018B01E42EF22E0E944224B801EA
:1048F0006F0D711D615071094E2DCE010E94422431
:1049000021E04F2DB801CE010E941624CE018E0D5C
:10491000911D21E04F2DB8010197DF91CF911F919B
:104920000F91FF90EF900C94162420E084E293E026
:10493000B22FB111BFEFFC010024B193B193B19339
:10494000B1930394D1F708952F923F924F925F92C3
:104950006F927F928F929F92AF92BF92CF92DF928F
:10496000EF92FF920F931F93CF93DF93CDB7DEB7F4
:104970002E970FB6F894DEBF0FBECDBF9E878D87F2
:104980004B016A015901C801261737078CF4322FF1
:104990002B2DE616F7060CF0FCC057017B01832E89
:1049A000922E2D2D68018D859E854D872E870DC0F9
:1049B000E216F306C4F43A2D2B2D5701E32EF22E06
:1049C0003C2D2D2D6C01832F922FA814B9045CF47B
:1049D000382D292D4501A32EB22E3D852E85DE864C
:1049E000CD86C32ED22E8E149F04D9F52D853E85FB
:1049F000C216D3066CF03D852E854D855E854C151F
:104A00005D0514F43C2D2D2DCD84DE843D872E874D
:104A10008C159D0544F02D853E852817390714F423
:104A20009E878D87C6014D854F5F481BB4012E962A
:104A30000FB6F894DEBF0FBECDBFDF91CF911F91AF
:104A40000F91FF90EF90DF90CF90BF90AF909F902D
:104A50008F907F906F905F904F903F902F900C942D
:104A6000422496014D855E85241B350B3E832D83A4
:104A700095012819390938872F833C01641A750A72
:104A80009701281939093A8329839C012C193D097A
:104A90003C832B8397012A193B093A872987950183
:104AA000AE14BF0411F0215031098401412C512C66
:104AB000212C312C2017310764F1C1016F817885D9
:104AC0000E949A2EED85FE85E60FF71FC2016981CF
:104AD0007A810E949A2E4D855E85640F751F8D81A7
:104AE0009E81280E391E460C571C6E177F071CF43A
:104AF0009E2FFB01692F6F5F462F4E1BB801CF0120
:104B00002B873C870E9442240F5F1F4F3C852B85DB
:104B1000D1CFC8018A199B092B813C81289F500164
:104B2000299FB00C389FB00C1124C801881999092D
:104B3000689E4001699E900C789E900C1124E016AE
:104B4000F10684F1C50169857A850E949A2E960145
:104B5000260F371FC40169817A810E949A2E4D85E4
:104B60005E85640F751F8B819C81A80EB91E860C13
:104B7000971C621773071CF4922F9B01692F6F5FBC
:104B8000462F421BB801C9010E9442240F5F1F4FEC
:104B9000D6CF5B01832E922E2D2DCD84DE844D87C2
:104BA0002E8721CF2E960FB6F894DEBF0FBECDBF55
:104BB000DF91CF911F910F91FF90EF90DF90CF90F9
:104BC000BF90AF909F908F907F906F905F904F902D
:104BD0003F902F900895FC018091E702882309F40B
:104BE00098C01092E6021092E5021092E402109230
:104BF000E3021092E102A681B7818A2F880F880F05
:104C0000880F88578093E20284858093E002809128
:104C1000E002882309F443C0813009F05FC060815D
:104C2000718180E290E0861B970B9093DF02809366
:104C3000DE022091DE023091DF0247E050E04A1BA5
:104C40005B0B469FC001479F900D569F900D11240E
:104C500063E0969587956A95E1F7820F931F90938D
:104C6000E2028093E1028091DE029091DF0276E021
:104C7000880F991F7A95E1F79093DF028093DE0207
:104C8000828193819195819591099093DD02809322
:104C9000DC02848195819195819591091BC0808169
:104CA00091819093DF028093DE028091DE029091E9
:104CB000DF02A6E0880F991FAA95E1F79093DF0223
:104CC0008093DE02828193819093DD028093DC02E7
:104CD000848195819093DB028093DA022091DE0239
:104CE0003091DF0280859185880F991F880F991F69
:104CF000820F931F9093D9028093D8028285938567
:104D000055E0880F991F5A95E1F79093E60280933A
:104D1000E502089561E085E00E94C41E61E08DE037
:104D20000E94C41EEBE8F8E0E491F0E0EE0FFF1FF4
:104D3000E858F74F859194919093D7028093D602CB
:104D4000EEE5F8E0E491E093D5021092800088E06F
:104D500080938100809181008160809381008091A7
:104D60008100887F81608093810081E49FE090933F
:104D700089008093880082E080936F0082E090E059
:104D80000E947B32882339F01092E6021092E502ED
:104D900081E08093E70208958F929F92AF92BF9235
:104DA0000F931F93CF93DF93CDB7DEB7A1970FB6C5
:104DB000F894DEBF0FBECDBF19A2423008F44AE01E
:104DC0008E010F5D1F4F842E912CA12CB12CA501BB
:104DD00094010E94C332E62FB901CA0101501109A2
:104DE000EA3014F4E05D01C0E95CD801EC93232BB8
:104DF000242B252B61F7C8010E94F322A1960FB640
:104E0000F894DEBF0FBECDBFDF91CF911F910F9100
:104E1000BF90AF909F908F9008950C94F322809153
:104E20002E0781110DC082E080932A0784E08093D1
:104E30002B0710922D0710922C0781E080932E07EC
:104E40008AE297E0089540918B0750918C0720915A
:104E5000890730918A0742175307B4F49091E8000C
:104E60009570E1F39091E80092FD19C08093F100F4
:104E700080918B0790918C0701968F739927892BCE
:104E800019F48EEF8093E80080918B0790918C0746
:104E9000019690938C0780938B0781E0089580E0C2
:104EA0000895CF92DF92EF92FF920F931F93CF93CB
:104EB000DF931F92CDB7DEB7182F062FE42E862F73
:104EC000880F8E5F99830E94232783E00E94232707
:104ED000F12EC12E9981D92E8C2D8F19801798F41F
:104EE000F601E7FE02C0849101C080810E94232761
:104EF000182F80E00E9423278123FFEFCF1ADF0ABB
:104F00008111EACF01C081E00F90DF91CF911F9115
:104F10000F91FF90EF90DF90CF900895DF92EF9286
:104F2000FF920F931F93CF93DF93D82E8A017B01BB
:104F3000E40EF51EEB01CE15DF0571F0D7FE03C0C0
:104F4000FE01849101C088810E942327219681114E
:104F5000F2CF8FEF9FEF01C0C801DF91CF911F917A
:104F60000F91FF90EF90DF900895615030F0209105
:104F7000F100FC0120830196F8CF289884E6809305
:104F8000D30208950F931F93CF93DF931F92CDB752
:104F9000DEB782E0898342E450E065EA78E080E8A9
:104FA0000E948E270E940F27DC0112960D911C9102
:104FB00013970115110569F0D801ED91FC9102805C
:104FC000F381E02DBE016F5F7F4FC801099597FF08
:104FD00007C089810F90DF91CF911F910F910895A4
:104FE000F80100851185E5CF1F920F920FB60F9241
:104FF00011248F939F938091E1009091E100937F22
:105000009093E10083FF0FC01092E90091E090932C
:10501000EB001092EC0092E39093ED001092D4021A
:1050200098E09093F00082FF20C093E09093E90015
:105030009091F200992319F09AE39093E8009091EF
:10504000D102992339F09091D10291509093D102DD
:10505000992389F19091D302992339F09091D30249
:1050600091509093D302992341F184FF10C0809115
:10507000E2008E7E81608093E2008091E1008F7E6D
:105080008093E1008091D2028E7E806111C080FF0A
:1050900016C08091E2008E7E80618093E200809154
:1050A000E1008E7E8093E1008091D2028E7E81604D
:1050B0008093D20204C05D9ACDCF289AD6CF9F911B
:1050C0008F910F900FBE0F901F9018951F920F9207
:1050D0000FB60F921124CF92DF92EF92FF920F93AF
:1050E0001F932F933F934F935F936F937F938F9370
:1050F0009F93AF93BF93EF93FF93CF93DF93CDB77E
:10510000DEB76C97DEBFCDBF1092E9008091E8005A
:1051100083FFFAC168E0CE0145960E94B52782EF71
:105120008093E8008D8987FF05C09091E80090FF8B
:10513000FCCF03C09EEF9093E800982F907609F083
:10514000C6C09E892F89188D91110CC0803829F412
:10515000809187078093F10002C01092F1001092B5
:10516000F10047C1422F50E0512B913051F4811191
:1051700040C14130510509F03CC1809187078D7FC6
:105180000BC0933061F4811134C14130510509F0F5
:1051900030C1809187078260809387072AC195304C
:1051A00041F48091E80080FFFCCF20682093E30069
:1051B00020C1963009F05FC0EB8CFC8C1092E900A6
:1051C00010928C0710928B07123091F510928A077B
:1051D000109289070E94C22799E0BE016F5F7F4F3E
:1051E000DB01E92F1D92EA95E9F799831A8391E093
:1051F0009E8390EA98879AEF998720918B07309148
:105200008C07275F3F4F3C832B838D831092E900EF
:1052100010928C0710928B07F0928A07E092890710
:1052200049E050E080E00E948E270E94C227E1C042
:10523000F0928A07E09289070E940F27DC011296FC
:10524000ED90FC901397E114F10409F4C0C0D7016C
:10525000ED91FC910480F581E02DBE016B5E7F4FE6
:10526000C7010995009719F00CF0C3C0C6C0F7013B
:10527000E084F184E8CF973009F4BFC0983021F47E
:1052800081E08093F100B5C0993009F0B2C083701D
:1052900009F0B3C0EEEFF1E081E021E036E3908168
:1052A000992361F08093E9002093EB009191909312
:1052B000EC003093ED008F5F873089F78EE78093A5
:1052C000EA001092EA008F898093D40292C08B8DFD
:1052D0009C8D1092E90010928C0710928B0790938E
:1052E0008A0780938907898D811156C08E899D898F
:1052F000913A59F4813209F080C047E050E060E013
:1053000071E080E00E948E2774C0913209F075C070
:10531000833289F4888D90E0982F88272F89822BFB
:10532000A0E0B0E08093080190930901A0930A01E6
:10533000B0930B015EC0803269F48091E80082FF77
:10534000FCCF67E080E091E00E94B5278BEF80936F
:10535000E80006C0823209F04CC08F8980930701B3
:1053600080918607882319F0EEEFFAE002C0E0E0B2
:10537000F8E08091000190910101A0910201B091AB
:105380000301803B9440A105B10509F088C08091DC
:10539000070180FFA0C083C00E940F27DC01129686
:1053A0000D911C9113970115110539F1D801ED915B
:1053B000FC910190F081E02DBE016B5E7F4FC80132
:1053C0000995811116C0F80100851185ECCF1130C7
:1053D000C1F0133091F48F89882309F455C08230CD
:1053E000E9F440E860E187EF98E00E9451278823C4
:1053F00021F08EEF8093E80087C081E28093EB007C
:1054000083C08B8D9C8D089711F410938807809131
:105410008807811136C068E079E038C0813029F40E
:1054200040E86BE08BEE98E0E0CF833031F70E94EC
:105430000F27DC011296ED90FC9013978E010F5F01
:105440001F4F6801E114F10479F0D701ED91FC914F
:105450000680F781E02DB801C7010995080F111DDD
:10546000F701E084F184EECFD8011C92F60101909F
:105470000020E9F73197BF016C197D0940E0C601B2
:10548000B4CF6AE179E002C067EE78E0611571059A
:1054900009F4B3CFFB01449150E080E833CF0FB65D
:1054A000F894A895809160008861809360001092C4
:1054B00060000FBEA895EE3F2AE0F20739F0809118
:1054C000FE0A9091FF0A9183808393CF1092FF0A86
:1054D0001092FE0A8ECFEE3F8AE0F80731F080810D
:1054E00091819093FF0A8093FE0A87E797E7918363
:1054F00080839BE088E10FB6F894A89580936000C4
:105500000FBE9093600075CF6C960FB6F894DEBF17
:105510000FBECDBFDF91CF91FF91EF91BF91AF91C2
:105520009F918F917F916F915F914F913F912F91BB
:105530001F910F91FF90EF90DF90CF900F900FBED3
:105540000F901F901895CF93DF93CDB7DEB72E97AE
:105550000FB6F894DEBF0FBECDBF789484B58260DD
:1055600084BD84B5816084BD85B5826085BD85B507
:10557000816085BD80916E00816080936E00109285
:105580008100809181008260809381008091810000
:105590008160809381008091800081608093800091
:1055A0008091910082608093910080919100816050
:1055B0008093910080919000816080939000809111
:1055C000C10084608093C1008091C100826080939B
:1055D000C1008091C10081608093C1008091C300AF
:1055E00081608093C3008091C00082608093C0007E
:1055F0008091C20081608093C20080917A008460B3
:1056000080937A0080917A00826080937A00809102
:105610007A00816080937A0080917A00806880931C
:105620007A001092D402109287071092D2028091D1
:10563000D70081608093D70080EA8093D80089B535
:10564000806189BD89B5826089BD09B400FEFDCF46
:1056500061E070E080E090E00E94BD1F8091D80082
:105660008F7C80618093D8008091E000807F809360
:10567000E0008091E1008E7E8093E1008DE08093D8
:10568000E200559A209AEEEFFFE7859194918B3FC7
:105690009C4D19F481E0809386071FB7F8948091A0
:1056A000CA02811127C0E7E9F8E08491EAE6F8E050
:1056B0009491E82FF0E0EE0FFF1FE55DF74FA59105
:1056C000B491EC91E92321F461E081E10E94611E33
:1056D00061E081E10E94C41E8CB580618CBD8CB5F7
:1056E00080648CBD61E08FE00E94C41E61E080E1B7
:1056F0000E94C41E8091CA028F5F8093CA021FBF9E
:1057000006E418E0F801849131966491882329F029
:105710000E5F1F4F0E94C41EF5CF61E086E00E941D
:10572000611E61E070E080E090E00E94BD1F60E0DB
:1057300086E00E94611E6AE070E080E090E00E94D6
:10574000BD1F61E086E00E94611EE2E9F8E0E4919D
:10575000F0E0EE0FFF1FE858F74F8591949190937A
:10576000D0028093CF02E5E6F8E0E491E093CE0228
:10577000EAE8F8E0E491F0E0EE0FFF1FE858F74F99
:10578000859194919093CD028093CC02EDE5F8E061
:10579000E491E093CB028CB58C7F8CBD8DB581609C
:1057A0008DBDE091CF02F091D00290818091CE0228
:1057B000982B9083A091CC02B091CD022C91909126
:1057C000CB02909592239C9390818095892380832E
:1057D000E9E3F8E028E0E634F20749F084918EBD71
:1057E00000000DB407FEFDCF8EB53196F3CFE091EA
:1057F000CC02F091CD0290818091CB02892B8083E5
:10580000E091CF02F091D00290818091CE028095FC
:1058100089238083809164008160809364008091FB
:10582000640082608093640080916400806880934B
:1058300064008091640080648093640080916500BE
:105840008160809365000E941D0C87FF1AC080E074
:1058500094E01EBC00000DB407FEFDCF2EB50197ED
:10586000C1F760E070E08AE00E94001F60E070E035
:105870008BE00E94001F60E070E089E00E94001F42
:10588000FFCF8EE18093160381E28093190384E2B7
:1058900093E00E943A0C0E948A2608EF1FEF4EE226
:1058A000E42EF12C0E949524F0922507E092240723
:1058B000109327070093260786E892E00E940D27A1
:1058C00084E293E00E943A0C61E270E080E090E0B4
:1058D0000E94BD1F0E5F1F4F0C31110519F78DE09F
:1058E000EFEBF1E0DE01119601900D928A95E1F760
:1058F000CE0101960E94EB2560EA70E080E090E026
:105900000E94BD1F8DE0ECECF1E0DE0111960190EC
:105910000D928A95E1F7CE0101960E94EB2568EE83
:1059200073E080E090E00E94BD1F87E895E09093CF
:10593000E9028093E80288EC95E09093EB02809373
:10594000EA028FEC9FE09093ED028093EC0281E8F5
:1059500095E09093EF028093EE028AE899E09093AD
:10596000F7028093F60286EC99E09093F902809317
:10597000F80288ED9CE09093FB028093FA0285E7A1
:1059800095E09093FD028093FC028EE393E1909367
:105990000503809304038EE898E1909307038093B6
:1059A00006038CE693E190930903809308038BE749
:1059B00095E090930B0380930A03F12CEE24E3947B
:1059C0000F2D10E0F801E752FE4F60816623A9F029
:1059D000005F1F4FC8016E870E947B3290E06E858A
:1059E000262F062E000C330B8217930721F0C801D7
:1059F0000E943121E12CF394E3CFEE2009F461C041
:105A000008EE12E03BE1C32ED12CC6010E947B328E
:105A1000E82EF12CFE2CEE24F801F186E086C6017A
:105A200001960E947B32E80EF11CF801F186E086B7
:105A300012861386148615867601F2E0EF0EF11CAD
:105A400026E0C20ED11CF80182849384A484B5841C
:105A5000BA2CA92C982C882482869386A486B58695
:105A6000C7010E947B32880E911CA11CB11CF80159
:105A700082869386A486B586FFEFEF1AFF0AEC14A0
:105A8000FD0409F7025F1F4F2DE2C216D10409F091
:105A9000BCCF1092C1021092C00283E19CE19093AE
:105AA000BB028093BA0289E69BE19093C302809384
:105AB000C20200E010E0DD24D39488E6E82EF12C49
:105AC0002BC00BE110E060E0C8010E9431210F5FA4
:105AD0001F4F0D321105B9F7DCCF40911E035091D5
