:100000000C9442140C946A140C946A140C946A14A0
:100010000C946A140C946A140C946A140C946A1468
:100020000C946A140C946A140C94FF230C9471249D
:100030000C946A140C946A140C946A140C946A1448
:100040000C946A140C946A140C946A140C946A1438
:100050000C946A140C946A140C946A140C942F1D5A
:100060000C946A140C946A140C946A140C946A1418
:100070000C946A140C946A140C946A140C946A1408
:100080000C94271E0C946A140C946A140C946A1431
:100090000C946A140C946A140C946A140C946A14E8
:1000A0000C946A140C946A140C946A14811C841CB9
:1000B000731C771C7B1CA51CA51CA51C881C8C1CF8
:1000C000901C961C9A1CA51CA01C3C38000000002B
:1000D0000080F8FE0FE3FB1B0B0B8BFBF3F7F6F630
:1000E000F60606ECECECECECECECECECECECECEC12
:1000F000ECEEE6F6F6F6F7F3FBFBCBCBFBE30FFEFD
:10010000F8801E332121339E00000080F8FF0FE0AD
:10011000F8F9F9F9F9F9F9F9F1F3F3F3F3F0F0FF7C
:10012000FFFFFFFFFFFFFFFFFFFFFFFFFFFFFFFFDF
:10013000FFFFFFFFFFFFFFFF7F7FFEE00FFFF88065
:10014000060600000000000F3FF0C6070404070782
:1001500007070707070707070707FFFFFFFFFFFF5F
:10016000FFFFFFFFFFFFFFFFFFFF0707070707076F
:100170008787070726860707C6F03F1F0080800095
:10018000000000000000030784C4E4E4E4E4E4E4C5
:10019000E4E4C49C000FE7E7E7E7E7E7E7E7E7E722
:1001A000C7870F1F0FC7E7E0ECE4E4E4E5E5E4C42C
:1001B000040404070300C040C30311000000000052
:1001C00000000000FFFFFFFFFF393939FFFFFF0F7D
:1001D000E0E0EFEF0FFFFF183879FFFFF703E0E0F3
:1001E000EFEF0FFFF9F0F0FCFDFDFD0DECE0E0E0BE
:1001F0000000012101000000000080C0602060C0FC
:1002000080000000000C0C007EFE803C3E1C1C1C8C
:100210001C1C0C0C0E0C0C0C0C0E1E1C1C1C1C3C78
:100220003E80FE7E00000000C0E0E0C00000000054
:10023000030300000E1B3166C680D060311B0E0028
:10024000003828380001471E3820202020301010A8
:10025000D0D0101090103020202020381E07010030
:100260000006060000010100000000000000000080
:100270005308C0FC0F89F83F03C0F89F890901C0EB
:10028000F89F8300C0F81F13110F02000000C07C0C
:10029000243CC0BC8480705CFC00DC70180400004E
:1002A00000E01CC03CFCF00CC07C2424C0B8847C62
:1002B00008000000C0B8C44CC8B8847CC83CFCF03E
:1002C0000CC07C2424C078A470CCFCA424C0BC84C2
:1002D000C07C243C00000000C0F81F13110FC2F8BE
:1002E0009F8380C0703CA7FF0F000000FF7F0C06BB
:1002F00001010000E01CC03CFCF00CC07C2424C0C8
:10030000B8847C08000000C0B8C44CC8B8847CC85D
:100310003CFCF00CC07C2424C078A470CCFCA42449
:10032000C0BC84C07C243C00000000C07C243CC0D5
:10033000BC8480705CFC00DC70180400000000C00D
:10034000F81FC3F80FFFE37C07C1F81F090961FC20
:100350008EC1791F020000000000C0B8C44CC8B8AC
:10036000847CC83CFCF00CC07C2424C078A470CCF5
:10037000FCA424C0BC84C07C243C00000000C07CE1
:10038000243CC0BC8480705CFC00DC70180400005D
:1003900000E01CC03CFCF00CC07C2424C0B8847C71
:1003A0000800000040FC9E8361230360FC8EC1793D
:1003B0001FC2F80FFFE37C07C1F81F090901404085
:1003C000FFFFFF0707E7E7676767676767E7E70715
:1003D00007FFFF1F1F9F9F8787FFFFFFFFFFFF9FF5
:1003E0009F87871F1F7F7F87876767FFFFFFFF0745
:1003F00007E7E7676767676767E7E70707FFFFFFE5
:10040000FFFFFF00007F7F6060606060607F7F00B3
:1004100000FFFF0606E1E10707FFFF01019F9F6163
:1004200061878766668686070798987979FFFF0057
:10043000007F7F6060606060607F7F0000FFFFFF83
:10044000FFFFFF868606067E7E86867E7E1E1E66F1
:1004500066070778789F9FF8F8010106066767E04E
:10046000E0E7E7E6E619191818616118181F1F86FA
:1004700086E6E666661E1E666666669E9EFFFFFF51
:10048000FFFFFF0707E0E018187979868606066601
:1004900066E0E01E1EF9F9E1E10000F8F8181861C5
:1004A00061E1E1E1E16666FEFE8686666686866754
:1004B000676161FEFEE0E0181860606767FFFFFF9C
:1004C000FFFFFF7E7EE1E166660000E7E780806671
:1004D0006687879898818167677878070786861E80
:1004E0001EF9F99F9F80807979E7E7606007079E92
:1004F0009E7E7EF9F96161FEFE60601E1EFFFFFFB9
:10050000FFFFFF66667F7F7E7E7E7E79797F7F66D6
:1005100066F9F90707878798989E9EF8F8FFFF9875
:1005200098F9F99F9FF9F9E6E6F9F90606E6E6611A
:1005300061E6E60707FEFE878718189898FFFFFF19
:10054000FFFFFF0000FEFE060606060606FEFE0092
:1005500000FFFF9E9E1919E1E19F9F0707FFFFF92A
:10056000F9E7E7E1E16767F9F99F9FE0E0878786B0
:1005700086E7E700000707797986866161FFFFFF5C
:10058000FFFFFFE0E0E7E7E6E6E6E6E6E6E7E7E0CE
:10059000E0FFFFE1E1E6E6E1E1E7E7F8F8E1E1E1CC
:1005A000E1F9F9FFFFE0E0F9F9F9F9E1E1E7E7F94D
:1005B000F9E7E7E0E0FEFEFEFEE1E1FEFEFFFFFF01
:1005C00032380000000000000000000000000000C1
:1005D0000000000000000000000080D058C8F8387B
:1005E00000000080F03888F83880D058C8F838000B
:1005F000F07818F800000000000000000000000083
:100600000000000080C0C04040C0C00003030203DF
:1006100001000000081B131E0F0100030302030169
:1006200000030300030300000000000000000000BE
:1006300000000000E0FCFF0F0080F8FF1F0300E057
:10064000FC1C040404A0D85C44E4FC3800E0F83C42
:1006500004F4FC1C04E0FC3C00000000000000006E
:100660000000000000060707040406030100000064
:1006700007070100000007070504070701103337CB
:10068000273C1F0F00000707050480D058C8F83822
:1006900080F038080800E8FC0E08000080F03F8F6A
:1006A000F83800F8F8C0701808000080F07F0F815B
:1006B000F07F0780F03808F87880F03803030203F1
:1006C0000100030300000002030200000000030316
:1006D00002030100181F0701000080C040C1C302CF
:1006E0000203010000030300C3C3400383C20000F0
:1006F00000000000000000000000000000000000FA
:1007000000000000000000000060F8888FBEFEE3DB
:10071000B908000000E0E080E07C1F0160FC9F81E0
:100720007810F87880F07848783000000080F03F4A
:100730008FF83800F8F8C0701808000000000000BA
:1007400000000000000000000000000000000000A9
:1007500000000003030003030203C1C040000003C4
:100760000302030100181F87814040C0C0800000C1
:1007700080804040C0C080000000000000000000F9
:100780000000000004C0FC7C0480F0FE1F0300A0F9
:10079000D85C44E4FC3800003E3F23A0F0FF1F83F8
:1007A000F0FE1F0B88F8F9010100000000000000B6
:1007B0000000000000000607030004070700000017
:1007C00007070504070701000307070404030300E4
:1007D00000030707040403030000000000000000FA
:1007E000000000000000000088B83080F03F87F073
:1007F0007848783000809C3EF1F1470680F03888D8
:10080000F83880F03888F83880F038080880F07FB1
:10081000E7300808F8F8C07018084340C0830300A8
:1008200083C342C3C1000183C24243C18018DFC1F8
:10083000020301000303020301000303000000039D
:100840000300030300181F0701000000E07E0F01F2
:1008500060E081C47C3F03C0FC3F0FF8FE07E1FE6F
:100860001F01000000000000000000000000000068
:100870000000000000000000000000000000490827
:1008800040E08EDB713363FC8EC1791F0240F89F1C
:1008900083703E07C0F80FFFE37C07C1F89F8371A8
:1008A0003F0600000060FC8EC1791F02C0F81F09DE
:1008B00009C1F81F0909010000001010000000C064
:1008C000B8847CC83CFCF00C0040E08EDB713363E4
:1008D000FC8EC1791F0240F89F83703E07C0F80F5D
:1008E000FFE37C07C1F89F83713F06000000C0B89A
:1008F000847CC87C2424C07C2424000000001010C8
:1009000000000060FC8EC1791F02C0F80FFFE37C7D
:1009100007012038000000000000000020F0787C73
:100920003E3E3E1E1F0F0F0E0E0C0808080808085A
:100930000404040480F008040402030101808080A0
:10094000808080C0E0E0C0C08000000000000000A7
:10095000000000F03FE0000000000018F1C3CCD818
:10096000D09999151D1F1F32333B32321000000001
:100970002040807F00010EF000000000CF7F8783C1
:100980000101010EF1010101020204E4F41494F4E6
:100990006808898A0000003FE000000619E00000B6
:1009A000031C204080071820C0303F0F033E3F014A
:1009B000383F27340000000000010618E01FE00067
:1009C000000000000001020408B1660830C0000009
:1009D00000000000000000000000000609080700F9
:1009E0000000000000000000000102020204050AED
:1009F0000A04000004040808080808081010103051
:100A00002040408080000000000000006010884806
:100A1000C85060C00000000000000000002078C83E
:100A2000F07800000103067880000000007FC449D0
:100A3000281E35EAC0800000000000000000000011
:100A400001909098CCC4E4E4B3B21C000000000113
:100A5000030203028C09098A9212149494128A8A5E
:100A60008909040686868607058587800000008040
:100A7000808000001703003F3F380F03383F2734C2
:100A80001703383F0300003037271C0D00383F277D
:100A90003417030000000000000000000000000008
:100AA000000080F07F17D0F83F0780F03888F838D2
:100AB00080F0388800000000000000000000000006
:100AC000000003030000030300000303020301000E
:100AD00003030203400000000000000000000000CB
:100AE00000000080804040203010101008080808E6
:100AF0000808040450C020A09830C0000000008006
:100B000078060301000078F0C8782000000000009B
:100B1000000000000202010000010300001CB2B34B
:100B2000E4E4C4CC989090010000000000000000B4
:100B3000000080C00000E070F01000C0F0F7350544
:100B400087868606060489898A0A129494949212EA
:100B50008A89090C303F073E3F1C07391F03383F85
:100B600027341703383F030000303F07313F073178
:100B70003F07383DB83080F07FE7300888F078488C
:100B8000783000F8F8C0701808000000000000007D
:100B9000000000000000030300030300030302033E
:100BA0000100181F07010000000000000000000005
:100BB00000000000040404040808080808080C0EDB
:100BC0000E0F0F1F1E3E3E3E7C78F02000000000FE
:100BD00000000000F00000000000000000000080A5
:100BE000C0C0E0E0C08080808080800101030204FA
:100BF0000408F0807F8040200000001032323B3338
:100C0000321F1F1D159999D0D8CCC3F118000000D0
:100C10000000E03F8A8988880404A42404848202B6
:100C2000F13101F10E01010183877FCF0000000047
:100C3000F00E0100253C1F03383F03383F2338DF07
:100C40002318078040201E030000E019060000E082
:100C50003F000000000000000000C0300866B1083E
:100C6000040201000000000000E01FE0180601007F
:100C7000000000000000040A0A050402020201004C
:100C80000000000000000000000708090600000046
:100C900000000000101800000000000000000060CC
:100CA00040F0C0F898FCB8FE30FFC6FFDCFE80FCC8
:100CB000008000000000008000C080E040F080E084
:100CC00080C000810081008181C343FFDBFFDDFF25
:100CD000EEFFECFF00FC000F051F1A3F3F7F037F74
:100CE0007CFF7FFF7FFF78FF377F0F7F1E3F0D1F49
:100CF000050F010700032040000000000080F07F86
:100D000017D0F81F83F038C8F81000F8886018F87A
:100D1000C0701808000080F8000000000001010009
:100D2000000101000001C1C140C0C10181C041C139
:100D3000010080C040C00101000000000000000070
:100D400000000000000C07000E07000E0F0905054B
:100D5000000E0F090505000E000000000000000055
:100D60000000000000000000000000000000000083
:100D7000000000000000000000FF01A955A955A9CE
:100D800055A955A955A955A955A955A955A955A973
:100D90005501FF0155A955A900FF04A455A455A468
:100DA00055A455A455A455A455A455A455A455A47B
:100DB0005504FF0455A455A400FF10925592559276
:100DC00055925592559255925592559255925592EB
:100DD0005510FF1055925592007F404A554A554A8A
:100DE000554A554A554A554A554A554A554A554A0B
:100DF00055407F40554A554A18C8F810E87800C059
:100E0000F038E8780080F818C8F81800F8F860386A
:100E10000800000000E83C0E80C140E179080001B4
:100E20000141E1700081C040C18000040701C04061
:100E300000C0C00081C141800F080E030000000007
:100E4000080F0900040F090E0700000000080F0C2E
:100E500003080F0E03000C0F00000000000000004C
:100E60000000000000000000000000000000080C6E
:100E70000C0C04000000000055A955A955A955A95E
:100E800055A955A955A955A955A901FF01A955A9C4
:100E900055A955A955A955A955A455A455A455A476
:100EA00055A455A455A455A455A404FF04A455A4C1
:100EB00055A455A455A455A45592559255925592B2
:100EC0005592559255925592559210FF1092559207
:100ED0005592559255925592554A554A554A554AFA
:100EE000554A554A554A554A554A407F404A554AFF
:100EF000554A554A554A554A80F03A82F818C8F87A
:100F000010E87800C0F038A8B80080B0B8D8180051
:100F10000000C0F018C87C0FD111C0C141C0C10091
:100F200001010080C141C1000000010181C040C039
:100F3000400081C141C10000010C07000E07000004
:100F400000000E0F090F03000000203C2F381E0385
:100F5000000E0F090F03000C0000000000082C3CDD
:100F60001E0F0D0400000000000000000000000043
:100F7000000000000000000055A955A955A955A979
:100F800055A95501FF0155A955A955A955A955A917
:100F900055A955A955A955A955A455A455A455A475
:100FA00055A45504FF0455A455A455A455A455A40F
:100FB00055A455A455A455A45592559255925592B1
:100FC00055925510FF105592559255925592559243
:100FD0005592559255925592554A554A554A554AF9
:100FE000554A55407F40554A554A554A554A554AF3
:100FF000554A554A554A554A81F038C8F8100000FC
:101000000000F8F860380880F038C8F810C0F81808
:10101000C0F8180000000000C0C141C18040C000FD
:101020000084C741C00000203189E9780001010136
:1010300001000000000000000F000E07080F030071
:101040000E0F0905050000080B010000000000005C
:101050000000000000000000000000000000000090
:101060000000000000000000000000000000000080
:10107000000000000000000055A955A901FF01A9CA
:1010800055A955A955A955A955A955A955A955A970
:1010900055A955A95501FF0055A455A404FF04A462
:1010A00055A455A455A455A455A455A455A455A478
:1010B00055A455A45504FF005592559210FF109267
:1010C00055925592559255925592559255925592E8
:1010D000559255925510FF00554A554A407F404A57
:1010E000554A554A554A554A554A554A554A554A08
:1010F000554A554A55407F000608E09C8241390711
:101100000000C239070080C4A2910907E08082C9AB
:101110003D072030ACF22F0140CC8BC53D01E0BC37
:101120008EC9390380C061190503E0948A493D07DF
:10113000C09C92D139071018F8C4320AF60201197E
:10114000254B4325DAA294883F409CB252930C0869
:10115000084848A118040201708846211008056259
:101160009A44201009060000F8C4320AF602011958
:10117000254B4325DAA294883F409CB252930C0839
:101180000848C82118040201708846211008050289
:1011900004081021224488F0F8C4320AF60201192A
:1011A000255B4B25DAA498003F409CB252930C0873
:1011B000084848A1180403007088462110080562F9
:1011C0009A442010090600008894A2DA25434B2592
:1011D000190102F60A32C4F801020418A1484808AD
:1011E000080C9352B29C403F000006091020449A1C
:1011F00062050810214688708894A2DA25434B25A1
:10120000190102F60A32C4F80102041821C848087C
:10121000080C9352B29C403FF088442221100804ED
:1012200002050810214688700098A4DA254B5B253A
:10123000190102F60A32C4F800030418A14848084C
:10124000080C9352B29C403F000006091020449ABB
:1012500062050810214688700808187EF299090B6B
:1012600009060C06060F7B82A6786090D090994FF5
:101270007E181E6541DEF06060302040FFFFFFFFFA
:10128000FFFFFFFF1FEFF1FFFFFFFFFFFFFFFFFF6C
:10129000FFFFFFFFFFFFFFFF7F3F1F1FFFFFFFFF5E
:1012A000FFFF01FEFFFFFFFFFFFFFFFFFFFFFFFF4D
:1012B000FFFFFFFFFFFFFFFFFCFBF706FFFFFFFF46
:1012C000FFFFFEF9E7DF3FFFFFFFFFFFFFFFFFFF2D
:1012D000FFFFFFFFFFFFFFFFFFFF3F00FF7F3F1FFD
:1012E0009F4F87132B532B128255A54B1BF7F7F7F4
:1012F000F7F7FBFBFBF9FD7D1E00007FFFFCF8F913
:10130000FAF1F0F0E0C0000000083C3E3FFFFFFFB4
:10131000FF7F7F3F3F07010000000000FFFFFFFF4E
:10132000FFFFFFFFFFFFFFFEF8F0E0C080800080BE
:10133000808020802090A09048D40A24FFFFFFFFE7
:10134000FFFFFFFFFFFFFFFFFFFFFF05F2FEFCF9BE
:10135000FBF3EF03FCFBFBFFF00EFEFFFFFFFFFFC5
:10136000FFFFFFFFFFFFFFFFFFFFFFFFFFFFFFFF8D
:10137000FFFFF9FEFFFFFFFFFFFFFFFF1F3F3F1FC4
:101380001F1F3F7FFFFFFFFFFFFFFFFFFFFFFFFF6D
:10139000FFFFFFFFFFFFFFFFFFFFC71FF7F8FAF692
:1013A00006F4FAFCFFFFFFFFFFFFFFFFFFFFFFFF59
:1013B000FFFFFFFFFFFFFFFFFFFFFFFF8F4F0F4FFD
:1013C000001F5FBFBFFFFFFFFFFFFFFFFFFFFFFF2C
:1013D000FFFFFFFFFFFFFFFFFFFFFFFFBF5CA85402
:1013E000A85400FEFDFBFBF7EF07C7DFBFBFBF7FC1
:1013F0007F7F7F7FBFBFBFDFEF2FF7FBAA55AA55C7
:10140000AA05F07F7F7F3FC3FCFFFFFFFFFFFFFFC9
:10141000FFFFFFFFFFFFFFFFFF88F1FDB03994B62C
:101420006E7676F7FBFBFBFDFBFBE7DFFF1F63BF81
:10143000DFDF1FD33FDFDF9FFF1F63BFCFF0FFFF63
:10144000FFFF1FE0FFFFFFFFFFFFFFFFF8FEFCF9BC
:10145000FFF8FFF8FAFBFDFFF8FEFCF9FFFFFFFFC6
:10146000FFFFFFFFFFFFFFFFFFFFFFFFFFFFFFFF8C
:10147000FFFFFFFFFFFFFFFFFFFFFFFFFFFFFFFF7C
:10148000FFFFFFFFFFFFFFFF3F3FBFBFBF3F7FFFEC
:10149000FFFFFFFF7F3F3F3FFFFFFFFFFEF9C73F1B
:1014A000FFFFFFFFFFFF0F81C0DEDFDFEFE0F0FF98
:1014B0007F1F87E1F83E00C0FFFF7F0FFFFF0FF0A7
:1014C000FFFFFFFFE7E0F8FFFFFFFFFFFFEFE3F1A4
:1014D000FCFEFEFEFEE0E0FFFFFFF0E07DBEBFFF92
:1014E000FFFFFFFFFFFFFFFFFFFFFFFFFFFFFFFF0C
:1014F000FFFFFFFFFFFFFFFFFFFF3FFFFE8FB3BDBB
:10150000CDF18FB1BD8FF1FDFFFF8FE1F9FD8FB3FD
:10151000B5D5F18FA3B585F18FF18EF1DFDF1FD344
:101520001FDFDF1FFF3FDFDF1FDFFFFFFF5F8FD703
:10153000FF1FC3DF1FFF3F5F5F1FFFFFFFF8FFF8C5
:10154000FEFFF8EFE0EAE3F8FFFFFFFFFFF83BFFE5
:10155000F8FEFFF8FFF8FBFBFDFF7FBFFFFFFFFF7B
:10156000FFFFFFFFFFFFFFFFFF8FA3BD8DF18EB3D6
:10157000BDCDF18FE1FD8DF1FFFFFEFFFF3F3FBFCE
:10158000FFFFFF7F3FBFFFFF7F7FBFBFBF3F7FFFEB
:10159000FFFFFF3F3FBFBFBFBFBFFFFF01E0FEFF39
:1015A000FF3F03C0FCFFFFE1C0878F1F1FF8F8FF5C
:1015B000FF0F01C0DEDFDFDFFFFFFFFFEFEFEFE731
:1015C000F1F8FEFFF3E1E5EFEFEFF7F0FCFFFFE7E7
:1015D000E0E0EFEFEFEFFFFFFFFFFFFF3FFFFFFF59
:1015E000FFFFFFFFFFFFFFFFFFFFFFFFFFFFFFFF0B
:1015F0003FFFFFFFFFFFFFFFFFFFFFFFFE01DFE7F2
:10160000FBFDFFFF8FB3B5D5F18FE1FD8D710FE1CC
:101610008DB3BDCDF1FF01DFE7FBFDFFFEFF3F5FB7
:10162000DF9FFF1FC3DF1FFF1F9FDFFF1ED21FBFF4
:101630005F1FDF1F9FFE1FDFDF1FFFFFFFF97BFB29
:10164000FCFFF8FEFFF8FFF8FEFFFFF8FFF8FFFBD6
:10165000F8FFFBFCE7F07ABBBC3FFFFF85B8FDFF5E
:10166000FFFFFF01DFE7FB8DB3BDCDF18FB1BD8F74
:10167000F1FDFFFFFFBDA6FBF9FEFFFF2040FFFFCE
:10168000FFFFFF7FBFFFFFFFFF3F0F070381010148
:1016900001000000000000010FBFFFFFFFFFFFFF80
:1016A000FFFFD8D043C3C3636130381C8641300884
:1016B0000C0000000000040E0E7EFFFFFFFFFFFF86
:1016C000FFFFFFFFEEC2D8F87C3C0E0701C0E00030
:1016D000000000000000000000004367FFFFFFFF64
:1016E000FFFFFF7F1F8FC3E1F0F8FCFE3F1F0F18C5
:1016F000304080000080FCFEFEFCF8F8F0E1FF9F27
:1017000007C3E080FFFFFFFFFFFFFFF0C080000086
:101710000000000001000001010307070F1FFFFF89
:10172000FFFFFFFFFFFFFFFFFB0303030307070F9D
:101730001E3E7CFCFCFCF8F8F8F0F0E0C000FFFF77
:10174000FFFFFFFFFFFFFF7F3F38F0F0F0F8F0F002
:1017500060000001070F1F1F1F1F0F0F0380DF9F77
:101760000F0F0F070301000080808183C7C7C3E00C
:10177000E0F0F0F8F8FCFCFCFCFEFEFFFFFFFFFFD2
:10178000FFFFFFFFFF7F7FFFFFFF7F7FFFFFFFFF69
:10179000FFFFFFFFFFFFFFFFFFFFFFFFFFFFFFFF59
:1017A000FFFFFFFFFFFF00CFF3F93E87F3FB1BC3F3
:1017B000FF7F07E3FF1F83FBFFFFFFFF3F03FFFFE9
:1017C000FFFFFFFFFFFCFEFFFFFFFCFDFDFCFEFF38
:1017D000FFFCFDFDFCFCFFFFFFFFFFFFFCFC230FF8
:1017E0001F7FFFFF7F0F437B7F3F07F37F3FDFDFDD
:1017F0001FFF1F1FFFFF3F9FFFFFFFFF7FBF3F7EBA
:10180000E0FEFFE7F0FEFFEFE1F8FFF3E0EEE6F2C7
:10181000FE3F98E0F1FCFFFFFFFFFFE3E9EE000071
:101820000003FFFFFF7F1FFFFFFFFFFFFFFFFFFF23
:10183000FFFFFFFFFF3F9FFFFFFFFFFFFFFFC0E036
:10184000F0FCFF1FC3F80F617C3E86F0FF0F617C48
:101850003E86F01FC3E00339FCFEFFFFFFFFFFFFE2
:10186000FFFFFFFFFFFFFFFFFFFFFFFFFFFFFFFF88
:10187000FFFFFFFFFFFFFFFFFFFFFFFFFFFFFFFF78
:10188000FFFFFFFFFFFFFFFFFFFFFFFFFFFFFFFF68
:10189000FFFFFFFFFFFFFFFFFFFFFFFFFFFF7F9F38
:1018A000E7037F9FC7730BE37E07E3F71B83FFFF0D
:1018B000FFFFFFFFFFFFFFFFFFFFFFFFFFFFFEFF39
:1018C000FFFCFEFFFFFCFFFFFCFFFFFDFCFFFFFF37
:1018D000FFFFFDFDFFFFFDFDFFFFFDFDFFFFDFDF64
:1018E0001FFFFFDF1FC7D7FFFFFFFFFF7F0F633F14
:1018F000DFDF1FFF7FBFDFDF1FFFFF3F1FDFE6E0F0
:10190000FCFFFFE1ECFFFFFFFFFFFFE3F8F3E0EE7A
:10191000E6F2FEE3E9EEE6E0FCFFE3EAEEE0FFFFDD
:101920003F9FFFFFFFFFFFFFFFFFFFFFFFFF3FBFE7
:10193000FFFF3FBFFFFFFFFFFFFFFFFFFFFF1F0393
:10194000783E86E0FF9F03713696F0FF0E60FEFE44
:101950000E60FEFE9F03713696F01FC1F8FEFFFF7A
:10196000FFFFFFFFFFFFFFFFFFFFFFFFFFFFFFFF87
:10197000FFFFFFFFFFFFFFFFFFFFFFFFFFFFFFFF77
:10198000FFFFFFFFFFFFFFFFFFFFFFFFFFFFFFFF67
:10199000FFFFFFFFFFFFFFFFFFFFFFFFFFFFFFFF57
:1019A000FFFFFFFFFFFFFFFFFFFFFFFFFFFFFFFF47
:1019B000FFFFFFFFFFFFFFFFFFFFFFFFFFFFFFFF37
:1019C000FFFFFFFFFFFFFFFFFFFFFFFFFFFFFFFF27
:1019D000FFFFFFFFFFFFFFFFFFFFFFFFFFFF9F9FD7
:1019E000FFDF1FC7D7FFFFFFFF1F1FFFFF3F9FFF47
:1019F0003F9FDFDF1FFFFF3F1FFFFF1FDFFFF9FFDD
:101A0000FFE1ECFFFFFFFFFF3F98E0F1FCFFFFE18C
:101A1000ECEFE7F0FEFFE3E8EFE7E0FCFFFFFFFF9E
:101A2000FFFFFFFFFFFFFFFFFFFFFFFFFFFFFFFFC6
:101A3000FFFFFFFFFFFFFFFFFFFFFFFFFFFFFEFFB7
:101A4000FFFF1FC1F87D06E00F617C3E86F0FFFFBF
:101A50000F009FE7F9009FE7F1FCFEFFFFFFFFFF8C
:101A6000FFFFFFFFFFFFFFFFFFFFFFFFFFFFFFFF86
:101A7000FFFFFFFFFFFFFFFFFFFFFFFFFFFF204014
:101A8000FFFFFFFFEF0FFF7F3FCFEF7F7F7F7FFFE6
:101A9000FFFF7FFFFF7F7FFFFFFFFFFFFF7FFFFF56
:101AA000FFFFFFFF9FC0F9FEFF87B0BE9FC3F8FF97
:101AB0008FA0BC9F83F0FFFFFFFFFFFF8780CFF366
:101AC000FFFFFFFFFFFFFFFFFFFFFFFFFFFFFFFF26
:101AD000FFFFFFFFFF7FFFFFFFFFFFFFFFFFFFFF96
:101AE000FFFF7F2FD7DB1B83FFFF3B83F8FAFFFF4E
:101AF000FFFF7F0FE17C0FC7DB5BC37F2FD7DB1BB3
:101B0000FFFFFCFDFDFCFCFFFFFFFCFDFFFFFFFFF7
:101B1000FFFFFCFFFFFEFCFDFCFEFFFCFDFDFCFCEF
:101B2000FFFFFF3F9FDFDF1FFFFF3F1FBFDF1FFFE5
:101B3000FF7F3FDFDF1FFFFFFFFFFF7FBFDFDF1FF5
:101B4000FFFFE1ECEFE7F0FEFFE3F8FFEFE0FCFF63
:101B5000F3E0EEE6F2FEFFFFFFFFE3E9EEE6E0FC76
:101B6000FFFFFFFFFFFFFFFFFFFFFFFFFFFFFFFF85
:101B7000FFFFFFFFFFFFFFFFFFFFFFFFFFFFFFFF75
:101B8000FF7FFFFFFF7F7F7FDFFF7FFF7F7FFFFF05
:101B9000FFFFFFFFFFFFFFFFFFFFFFFFFFFFFFFF55
:101BA000FC80CFF3F88EE1FC8FE0FCBE83F0FFFFFA
:101BB000FFFFFFBFBFFFFFBFBFFFFFBFBFFFFFFFB5
:101BC000FFFFFFFFFFFFFFFFFFFFFFFFFFFFFFFF25
:101BD000FFFFFFFFFFFFFFFFFFFFFFFFFFFFFFFF15
:101BE00083FF7F47C31B33F3FF3B83F8FAFFFFFFFD
:101BF000FFFF03033F9FE7F33F87F3FB1BC3FF7F19
:101C0000FFFFFCFDFDFCFFFFFFFCFDFFFFFFFFFFF3
:101C1000FFE7F3FCFEFFFFFFFCFDFDFCFEFFFFFC0A
:101C2000FFFF7F3FDFDF1FDFFF7FBFDFDF1FFFFF24
:101C30007F1FF73F1FBFDF1FFFFFFFFFFFFFFFFFFC
:101C4000BF23606F87E0FEFFE3E9EEE6E0FCFFE321
:101C5000F8FFE3F8FFEFE0FCFFFFFFFFFFFFFBF9FA
:101C6000FFFFFFFFFFFFFFFFFFFFFFFFFFFFFFFF84
:101C7000FFFFFFFFFFFFFFFFFFFFFFFFFBFBF9F988
:101C8000FF1F0FFF7F9F0FCFFF3F8FEFFF7F7F7FF4
:101C9000FFFF3F8FFF3F8FFFFFFFFFFFFFFFFFFFB4
:101CA0009F80C6F1FC8780C3F8FECF81B89BCBF83C
:101CB0008FE1FC8FE17C1FDFFFFFFFFFFFFFFFFFD6
:101CC000FFFFFFFFFFFFFFFFFF7FFFFFFFFFFFFFA4
:101CD000FFFFFFFFFFFEFFFFFFFFFFFFFFFFFFFF15
:101CE00007E3FF1F83FBFFFFFCFF7F07E3FB7B0F87
:101CF000C7DB5BC3FFFFFFFFFF3F070100000101E0
:101D0000FDFDFCFCFFFFFFFFFFFFFC7F7F3F3E1C54
:101D10001D1C0E0F0F070707010000000000000048
:101D2000FF7F3F1F0F47E7E3E101000000000000D5
:101D300000000000000080808080C0C0C0C0C0C023
:101D4000F8F8F0F0E06061410000000000000000E1
:101D500000000080C0703F0700000000000000008D
:101D6000F9F8F8F8F8F8F8F8F8F8F0F0F0F8F8F80A
:101D7000FCF6F7F3F1F0F0F0F0F0F0F0F8F8F8F826
:101D8000FFFFFCF9F1C3830307070F0F0F1F1F3F6E
:101D90003F7F7F7FFFFFFFFFFFFFFFFFFFFFFFFF93
:101DA000FFFFFFFFFFFFFFFF9C8080C0C0C0C0C0DF
:101DB000C0C0C0C0C0C0C1C1C383871F7FFFFFFFB9
:101DC000FFFFFFFFFFFFFFFFFFFFFFFFFFFFFFFF23
:101DD000FFFFFFFFFFFFFFFFFFFFFFFFF83F0107D0
:101DE0000103030303030303010101010101213185
:101DF000393D3F3F1F1F0F0F0707030180C070FED3
:101E000000000000000000000000000000000000D2
:101E100000008080C0C0603038180C0603C1F8FF95
:101E20004060606060203030101818080C0C060606
:101E3000030301010000000080E0F0FCFFFFFFFF52
:101E40000000000000000000000000808080C0E072
:101E5000E0F0F0F87C7CFEFFFFFFFFFFFFFFFFFFDD
:101E6000F8F8FCFCFCFCE6C6C68383010180C0E0F8
:101E7000F0F8FCFEFFFFFFFFFFFFFFFFFFFFFFFF8C
:101E80002040000000F8F8C0E0381880F0F888889A
:101E90000800E0F0988838300000000000C0F80822
:101EA00000000000001F1F010000181F1710100085
:101EB000081C14111F0F020000000010140700007E
:101EC0000000000040E0704080F878C0C00080C092
:101ED00040C0800000000080C040C0C00080C04002
:101EE000C08000001F17001C1F01181F030C1F13C8
:101EF0001A0B01000040CC9FF17C0F01181E121E2E
:101F00000F010000C0C00080C04080C040C0800001
:101F100080C00080C000303808C0C00080C0408051
:101F2000C04000C0FF3F0E03000C1F111C0F011C1E
:101F30001F11181F03000000001F1F1C07010C1FAA
:101F4000131A000080F878C0C00080C040C0800034
:101F500080C040C0F818C0C00080C04000000080B1
:101F6000F878001C1F111C0F010C1F111C0F011C05
:101F70001F111C0F01C0FF3F0E03000000001C1FBB
:101F8000111C00C0C00080C04080C040C0800080E4
:101F9000C00080C000303808C0C00080C04080C091
:101FA00040C0C0FF3F0E03000C1F111C0F011C1F7F
:101FB00011181F03000000001F1F1C07010C1F1336
:101FC0001A0B0080C040C0C000C0C00080C040C02C
:101FD000800000000000C0F038F8F8000080F0F841
:101FE000F800181F03181F03181F030C1F131A0BE8
:101FF000010000101C0F07041C1F0000181F031E07
:102000001F1FC0800000000080C040C0C00080C012
:1020100040C0800040E07040000000C0C00080C0B0
:1020200040800B01000040CC9FF17C0F010C1F1180
:102030001C0F01001F1700000000C0FF3F0E03002F
:102040000C1FC0C00080C040C0800080C040C08065
:102050000080F83880400000000000C0F808000050
:1020600000000F01181E121E0F010C1F110C05019C
:102070001C1F071F190000000010140700000000BB
:1020800000008000000000C0C00080C0C000C0C0D0
:102090000080C040C0800080C040C0C00000000080
:1020A000000001000000001F1F0E031F1D0E030093
:1020B0000C1F111C0F011C1F01181F030000000042
:1020C0000000E0F80880F0780888F8700000000050
:1020D0000000000000000000000000000000000000
:1020E00000000700181F1710180F03000000000061
:1020F00000000000000000000000000000000000E0
:102100000000C040C0800080C00080C00080C0408F
:10211000400000000000000000000000000000007F
:102120000000111C0F011C1F11181F031C1F0100B0
:10213000000000000000000000000000000000009F
:1021400000C00000000000000000000000000000CF
:10215000000000000000000000000000000000C0BF
:10216000FCFF000000000000000000000000000074
:102170000000000000000000000000000000060F4A
:102180001F1F001038F8F8D8981898F8FEFEFFFFC7
:10219000FFFEFEFCF0000000000000000000000058
:1021A0000000000000000103031FFFFFF3EFEFEF4B
:1021B000F7FBFFFF7FFFFCE00000000000000000D5
:1021C00000000000000000000080DFBF7F7F7FBFB5
:1021D000DF9F070100010F3F7CF0C080000000007E
:1021E000000000000000E0F8FEFFFFFFFFFFFFFF20
:1021F000FFFFFEF8F0C0000000000103070E0C1CFA
:1022000018180080F8FFFFFFFFFFFFFFFFFFFFFF31
:10221000FFFFFFFFFFFFFFFCF0C000000000000019
:102220000000FCFFFFFFFFFFFFFFFFFFFFFFFFFFBF
:10223000FFFFFFFFFFFFFFFFFFFFFFFCF08000003D
:102240000000FFFFFFFFFFFFFFFFFFFFFFFFFFFF9C
:10225000FFFFFFFFFFFFFFFFFFFFFFFFFFFFFEF896
:10226000C0001F3F3F7F7F7FFFFFFFFF7F7F7FFF1C
:10227000FFFFFF7F7F7F7F7F7F7F7F3F3F1F1F0F9E
:1022800007032040FFFFFFFFFFFFFFFFFFFFFE00F0
:102290009FE7F37C0EE7F73787FFFF0FC7FF3F0786
:1022A000F7FFFFFFFFFFFFFFFFFFFFFFFFFFF9FC4F
:1022B000FFFFFFF8FBFBF9FCFFFFF8FAFBF9F8FF63
:1022C000FFFFFF7FFFFFFFFFFFFFFFFFFFFFFFFF9E
:1022D0004FBF1FDBF72DF72DFBAF5BF70F570CBF81
:1022E00088FFB849FFFF7F7F870F0F7F1B2C1728C0
:1022F000176B970C1B251F6B9C73A87BCCBF6FB40F
:102300006BDEA3387800FCCC39F828F8AC74AED872
:102310002CD877007320000000000000010001C0ED
:1023200071D030D9FCE3E7860D030102050300817B
:1023300000C1E0A060A0C000E0E000C0E020C0F666
:10234000AB000100FFFFFFFFFEF8FCF8F8F09C0770
:102350001F4B360F3F567F977FAEFB0F320D0A079C
:102360000C030600FFFFFFFFFFFFFFFFFFFFFFFF64
:10237000FFFEFEFCFCFCFCF8F8F9F8F1F0F0F0F0E0
:10238000F0F0E0E0FFFF1FC3780FE7F73787FFFFAC
:102390008F873767E7FF1F8FB7B787FFFFFFFFFF05
:1023A0003F83D0DEFF78FEFFF8FBFBF9FC3FFFF830
:1023B0003A7B78FE7FFCB87BF9BCFF3FFFBF7FF91B
:1023C00038FFFF7FF893F221C6B17F8E1187940BFF
:1023D000050B06083209360F140F040F06070717FE
:1023E0000D160D0B6FB0CFBB6CD37D866DE2F73948
:1023F000EF3BCE363E0C1C080080C0C0E0F0F0D8A9
:10240000BCFCEE3B7BAC5FEC33ED1BF601E1A04086
:1024100045C3C0F1F0FCF6FFEBFDF7FAEFFB75FFEB
:10242000BF7ECD3B00100B0601030017010609B764
:10243000557F7FFFFFFFFFFFFFFFFFFFFFFFFFFE57
:10244000730D7F02000040A0F050F0B050F011E09A
:1024500010B040D1A0A120C1018701030183410632
:1024600081000080E0C0808D828F008F00070122F4
:1024700001060D02068102010E01060006011F0081
:102480002F003F00DEDEFE1FC7FD8F873767E7FFA7
:102490001FC1EC7707FFFF8F873767E7FF7707F1EB
:1024A000F5FF1FC7FF7FF8FE7FF8FAFB78FEFF7885
:1024B000FEFFFBF8FFFFF8FAFBF8FEFFFFF8FBFF5B
:1024C000FFF8FEFF9C87D96AF37ED2BFF8A9FAEF26
:1024D000FCFB3FDAFF32CD7B0F201F53BF5AF31FA7
:1024E000F7BF7FCFCFFFADFFBFCD7EDBBE73CF7712
:1024F000DFB4DF375F356F004040408040C081600F
:10250000CD6A7DC3EEBBEC9376DD335E250B070C05
:1025100003020110000000000000000800422CD05F
:102520003CD3FD3F1F0001000108045C3448B07833
:102530008878B8F838F8E8F0800000000000000063
:10254000858B874300800800100C932C132C1B658F
:102550001A671CAB350F1D8356B040F030C0B0D1A8
:10256000B070F1F00E0017001F00060C800DA000E7
:1025700010038007B00F020DB2053B459B0689464C
:10258000B96FD3FFFD1FCFF7F7C7FF1F011CCFE7C0
:10259000F7FFFFFFFFFFFF1F81F8FFFFFFFFFFFFB8
:1025A000FFFFFFFFFCF8FBF9FCFFF8FEFFF8F9FF67
:1025B000FFFFFFFFFFFFFBFAFFFFFFFFFFFFFFFF34
:1025C000FFFFFFFF3FCFBB2FEB9F63DF2BD77FEFDB
:1025D000FFFFFFFFFFFFFFFFFFFFFFFFFFFFFFFF0B
:1025E000FFFFFFFF84030C039C03808324D3BDFF04
:1025F0003FFF5FFF7FFFFFFFFFFFFFFFFFFFFFFFCB
:10260000FFFFFFFFFFEF00D8387C7CFC7EFE5EDB27
:1026100055D991D8CDBFFF9DCFCFC7CFCFFFFFFFFB
:10262000FFFFFFFFC040C0C0C0C0C0C0C1C0C1C02C
:10263000C1C0C1C1E1E1E1C101010100C170F87F88
:10264000FFFFFFFFE1020100010001020D020D0387
:102650000E152B55BF55FFFF3FFCC1E3C0F7FEFD34
:10266000FFFFFFFFFFEBF0F0F0F0F0F8F8F8F8F8FC
:10267000F8FCFCFCFEFFFEFFFFFFFFFFFFFFFFFF7C
:10268000FFFFFFFF0000000200090F00000304012C
:10269000000C00000000000000000000000000002E
:1026A000000000F0F89C8E8783878E9CF8F0000075
:1026B000FEFF0303030303070EFCF80000FEFF0305
:1026C00003030303070EFCF80000FFFF00000000F7
:1026D000000000FFFF0000FEFF8383838383C7EEBB
:1026E0007C380000F8FC0E07030303070EFCF8001B
:1026F000003F7FE0C08080C0E07F3FFFFF0101011D
:1027000001010101FFFF0000FFFF0C0C0C0C1C3E3F
:1027100077E3C100007FFFC0C0C0C0C0E0703F1FB2
:1027200000001F3F70E0C0C0C0E0703F1F00007F8E
:10273000FFC1C1C1C1C1E3773E1C00001F3F70E073
:10274000C0C0C0E0703F1F000000000001FFFF019B
:1027500000000000000000240027002A002D0030A7
:1027600000AED580A83FD300408D142002A1C8DA66
:102770001281CFD9F1DB402EA4A6AF0408020110CC
:1027800040804010204080408008020401804020AA
:1027900010020110801020404020000000002500A1
:1027A00028002B002E003100040404040403040557
:1027B00002020202040302020202060606060606DE
:1027C0000404020202040414021302120215020796
:1027D000020802090209010A020A010B020B0104A4
:1027E000010C01060100681523151115FD15F614DD
:1027F000F916EF15AE17D7147014080B0002020279
:10280000010009040000010202000005240010017B
:102810000524010101042402060524060001070520
:10282000810310004009040100020A0000000705AE
:10283000020240000007058302400000040309046F
:1028400041726475696E6F204C4C4300417264752F
:10285000696E6F204C656F6E6172646F00120100CB
:1028600002000000404123368000010102030112F2
:10287000010002EF02014041233680000101020302
:102880000100E72911241FBECFEFDAE0DEBFCDBF84
:1028900025E0A0E3B1E001C01D92AA3FB207E1F735
:1028A00011E0A0E0B1E0E8E7F6E502C005900D9286
:1028B000A033B107D9F714E1C2E4D4E104C02197F1
:1028C000FE010E945A2AC134D107C9F70E94AE26E0
:1028D0000C943A2B0C9400008091500108950895B7
:1028E0000F931F93CF93DF93D0914E0180914F01AF
:1028F0008D1729F080914D018D134CC011C000E05F
:1029000010E0C0E02C2F42E852E260E070E0C80125
:102910000E941921CF5F005E1F4FC43099F7EACFA4
:1029200080914C018130C1F030F0823099F500E0A7
:1029300010E0C0E022C000E010E0C0E02C2F40E832
:102940005EE160E070E0C8010E941921CF5F005E87
:102950001F4FC43099F71EC000E010E0C0E02C2FDC
:102960004EE75AE160E070E0C8010E941921CF5F94
:10297000005E1F4FC43099F70DC02C2F4CE756E175
:1029800060E070E0C8010E941921CF5F005E1F4F18
:10299000C43099F78CE00E945621882319F081E019
:1029A00080935701DF91CF911F910F9108950F935D
:1029B0001F93CF9300E010E0C0E02C2F4AE752E1D4
:1029C00060E070E0C8010E941921CF5F005E1F4FD8
:1029D000C43099F788E00E945621882319F087E0D7
:1029E00080935701CF911F910F91089520E040EC03
:1029F00055E064E070E08EE090E00E94192121E053
:102A000040EC55E064E070E080E490E00E94192121
:102A10008CE00E945621882319F081E080935701B1
:102A2000089520E04EEB53E060E070E080E290E03B
:102A30000E9419218CE00E945621882319F081E020
:102A40008093570108950F931F93CF9300E010E0F8
:102A5000C0E02C2F42E159E060E070E0C8010E9424
:102A60001921CF5F005E1F4FC43099F7C09100015C
:102A70002EEF2C0F40E752E068E370E086E190E033
:102A80000E94192180E40E945621882311F0C5304C
:102A900098F080E20E945621882321F08091000165
:102AA000833070F48CE00E945621882369F0809175
:102AB00000018093570108C0CF5FC0930001E9CFA8
:102AC000815080930001EECFCF911F910F91089517
:102AD000CF93C0913001CF5FC093300120E04AEC2A
:102AE00050E064E070E082E290E00E941921CB3572
:102AF00028F01092300181E080935701CF91089522
:102B0000CF92DF92EF92FF92109241011092420118
:102B100097E0C92ED12CE12CF12C8091410181113B
:102B20000EC00E94B32AA70196010E94D72ADC0199
:102B3000CB010397A109B10980934101EECF87E052
:102B4000C82ED12CE12CF12C8091420181110EC0B4
:102B50000E94B32AA70196010E94D72ADC01CB016B
:102B60000397A109B10980934201EECFFF90EF9046
:102B7000DF90CF900895CF93DF9360E971E080E01C
:102B800090E00E94F51C10924B0110924A011092A5
:102B90003101E4E4F1E083E08483858390E1908374
:102BA000928328E1238334E13183E3E3F1E040E6DB
:102BB0004083318323839283848381E08583CDE3C3
:102BC000D1E08CE388838CE189831C821D820E9482
:102BD000801588E08A838B83DF91CF9108951092CE
:102BE0004D0110924F018091010180934E010E948E
:102BF000BB1587E08093570108956F927F928F9263
:102C00009F92AF92BF92CF92EF920F93CF93DF93A9
:102C1000A12CB12CC0E02C2F46EF5CE060E070E00E
:102C2000C5010E941921CF5F80E2A80EB11CC430FB
:102C300091F7D09101012D2F48EF50E167E170E04D
:102C40008DE390E00E94192195E0A92EB12CC0E0FF
:102C500024E9822E2CE0922E35E9632E3CE0732E7F
:102C6000CD17A1F0F4010491F301E49083E0C82EA4
:102C700020E030E046E95CE063E270E0C5010E94DC
:102C8000131FCF5FF1E1AF0EB11CEACF80EC0E94C1
:102C90005621882311F0C73090F080E30E9456211E
:102CA000882321F080910101823068F484E00E9441
:102CB0005621882361F086E08093570108C0CF5FDA
:102CC000C0930101EACF815080930101EFCFDF91E2
:102CD000CF910F91EF90CF90BF90AF909F908F903A
:102CE0007F906F9008958FB12CB193B130E0209513
:102CF000309520743327A90123E0559547952A95EF
:102D0000E1F7292F30E02095309520713327359554
:102D1000279535952795242B8095807F822B0895C4
:102D20001F93CF93DF931F92CDB7DEB7162F682F77
:102D300089E049830E94561C612F8AE00E94561C3C
:102D40004981642F8BE00F90DF91CF911F910C94FC
:102D5000561C83B7817F83BF83B7816083BF88950B
:102D600083B78E7F83BF0895E0915501F09156019E
:102D7000908180915401892B8083E0915201F091E0
:102D80005301908180915101809589238083E09146
:102D90005501F091560190818091540180958923CD
:102DA00080830895E0915201F091530190818091C8
:102DB0005101892B8083E0915501F091560190815A
:102DC0008091540180958923808308958EBD0000F1
:102DD0000DB407FEFDCF8EB5089561E085E00E9439
:102DE000B91C61E083E00E94B91C81E0809350012E
:102DF0000895FF920F931F93CF93DF931F92CDB748
:102E0000DEB700E010E0F12C2F2D42E159E060E048
:102E100070E0C8010E941921F394005E1F4F84E006
:102E2000F812F2CF209150014EE758E068E370E0CD
:102E30008BE190E00E94192180E40E9456218111CB
:102E40000E94ED1680E20E945621882351F01092D4
:102E5000500160E085E00E94B91C60E083E00E94C0
:102E6000B91C8CE00E945621882389F060915001A2
:102E700082E090E069830E94C12A6981681721F08D
:102E800082E090E00E94C92A81E0809357010F9070
:102E9000DF91CF911F910F91FF9008950F931F9392
:102EA000CF93DF931F92CDB7DEB7182F062F61E0C7
:102EB0008BE049830E94561C68EC70E080E090E053
:102EC0000E94F51C60E0802F0E94561C82E090E07A
:102ED0000E94C12A4981481729F0642F82E090E0BE
:102EE0000E94C92A64EF71E080E090E00E94F51C26
:102EF00061E0802F0E94561C0E9473168123811767
:102F0000D9F30F90DF91CF911F910F910895603801
:102F1000710518F54034510500F5E42FE695E69566
:102F2000E695F0E047705527F695FE2FEE27F795CA
:102F3000E7956E0F7F1FFB01EB58FE4F81E090E09D
:102F400001C0880F4A95EAF7222319F09081892B56
:102F500003C0809590818923808308952F923F92AA
:102F60004F925F926F927F928F929F92AF92BF9299
:102F7000CF92DF92EF92FF920F931F93CF93DF9345
:102F800000D000D000D0CDB7DEB780914B018823B0
:102F900009F461C000913D0110913E018091410111
:102FA000800F80933D0190914201910F90933E01DB
:102FB000843058F480E590E00E94DF2100933D01C9
:102FC0008091410181958093410120913D01809143
:102FD0003F0190E0820F911D8D379105C4F080E58F
:102FE00090E00E94DF2100933D0180913201811128
:102FF00003C08091410108C0109232010E948015E7
:103000008091410118161CF48195809341018091B3
:103010003E01843058F480E590E00E94DF21109357
:103020003E018091420181958093420120913E01B1
:103030008091400190E0820F911D813491055CF0F8
:1030400080E590E00E94DF2110933E0180914201D3
:103050008195809342010E94B32A20914101F09012
:103060003D01B0903E01121644F524E12F1528F5DC
:1030700023E030E040E050E00E94D72A61111DC0FB
:10308000809134018B1580F4482F50E090913601E7
:103090002CE330E0291B3109421753072CF490919F
:1030A0003801890F8093340180913401B81628F4D7
:1030B00090913801891B8093340184E00E9456214D
:1030C0008823E1F1809131018431C1F5EE24E3944C
:1030D000E0923B018F2D90E09C012D5F3F4F290135
:1030E0008B2D90E03C0133E0630E711C2091440174
:1030F0008091460190E0820F911D082F9A83898369
:1031000050914701569520914501852F90E0820FFF
:10311000911D282F9C838B831A813C8144E1C3013C
:10312000B2010E946121882349F0109231018AE0A6
:103130008093410110924201E09232018F2D90E084
:103140009C012D5F3F4F69018B2D90E07C0133E0A6
:10315000E30EF11C1A8219821C821B828CE08D8383
:103160008E8300E01A8120E03C814CE05CE0C701E6
:10317000B6010E946121882359F08FEA90E00E94F5
:10318000DF2180914F018F5F80934F010E94BB151B
:1031900084E3282F09811A8130E04D815E81C701C7
:1031A000B6010E946121882359F08FEA90E00E94C5
:1031B000DF2180914F018F5F80934F010E94BB15EB
:1031C00084E7082F89831A821C821B8210E020E08A
:1031D0003C814D815E81C701B6010E946121882337
:1031E00059F08FEA90E00E94DF2180914D018F5FBE
:1031F00080934D010E94BB1584E3282F09811A8119
:1032000030E04D815E81C701B6010E9461218823B3
:1032100059F08FEA90E00E94DF2180914D018F5F8D
:1032200080934D010E94BB15C0903D01D12C83E0DD
:10323000C80ED11CE0903E01F12C23E0E20EF11CFF
:1032400080904401912CA0904501B12C80E18D83A8
:1032500088E18E8326013701082D9A8289822A2DE2
:10326000BC82AB821A813C8140E158E1C301B201CA
:103270000E946121882309F459C0C50147968E1523
:103280009F0524F109978E159F0504F581E0809331
:103290003B018AE080933C0180913101865F85315A
:1032A00008F084E18093310184EF91E00E94DF21F6
:1032B0008091410187FF03C081508093410180913B
:1032C000420187FF03C081958093420137E0A30E3E
:1032D000B11CAE14BF048CF082E390E00E94DF21A9
:1032E00082E080933B018FE080933C01809142011A
:1032F00018161CF4819580934201C4010A968C151E
:103300009D053CF48091410187FF03C08195809326
:10331000410184E0880E911C8C149D043CF0809146
:10332000410118161CF4819580934101809033016E
:10333000912CA0903401B12C082D9A8289822A2DDB
:10334000BC82AB821A813C814D815E81C301B20196
:103350000E946121882309F456C08091320188239C
:1033600059F0109232010E94801580914101181687
:103370001CF4819580934101C50143968E159F05EC
:10338000ACF081E08093390184EF91E00E94DF216D
:103390008091410118161CF48F5F80934101809148
:1033A000420187FF03C081958093420123E0A20E72
:1033B000B11CAE14BF0474F082E390E00E94DF21E0
:1033C00082E0809339018091420118161CF48195A6
:1033D00080934201C4010A968C159D053CF48091AE
:1033E000410187FF03C081958093410134E0830E42
:1033F000911C8C149D043CF08091410118161CF422
:10340000819580934101E5E7F1E090E89E0F9E17DA
:1034100021F0808181608193FACFE5EFF4E090E8BC
:103420009E0F9E1721F0808180688193FACF40E43F
:1034300060E070E080E090E00E94FD2140E460E008
:1034400070E08FE790E00E94FD2140E460E070E0D2
:1034500080E490E00E94FD2140E460E070E084E2BE
:1034600090E00E94FD2140E460E070E08CE590E097
:103470000E94FD2121E040E350E060E470E087E736
:1034800095E00E94871721E040E150E060E470E0A1
:1034900087E795E00E94871721E040E250E060E571
:1034A00070E087E795E00E94871721E040E250E056
:1034B00060E370E087E795E00E948717E12CF12C2C
:1034C00022242394312C00E110E060EE462E552496
:1034D0005A9471EFC72EDD24DA942FEFE21AF20A24
:1034E00032E0230E311CC20CD31C370180E4680E7D
:1034F000711C21E0580130E2A30EB11CA501B301FB
:1035000087E795E00E94871780E4882E912C8E181B
:103510009F0821E0A501B40187E795E00E94871785
:1035200021E090E2A92EB12CA01AB10AA501B301A5
:1035300087E795E00E94871721E0A501B40187E79E
:1035400095E00E948717570180E2A80EB11C21E088
:10355000A501480130E4830E911CB40187E795E092
:103560000E94871721E0A50130E4A32EB12CA01AF8
:10357000B10AB50187E795E00E94871740E2642E03
:10358000712C6E187F0821E0A301B40187E795E054
:103590000E94871721E0A301B50187E795E00E940B
:1035A0008717E016F10654F4D7FC97CF01501109A4
:1035B00082E0480E511CC40CD51C8FCF60E070E037
:1035C00080E090E00E94262260E470E080E090E0DD
:1035D0000E94262260E470E080E890E00E942622AB
:1035E00060E070E080E890E00E94262200914D01AA
:1035F000202F48EF50E166E370E080E390E00E9406
:10360000192110914F01212F48EF50E166E370E03E
:103610008BE490E00E94192180913C01882341F0C5
:1036200090913B01992321F0815080933C0102C08D
:1036300010923B0180913A01882341F09091390129
:10364000992321F0815080933A0102C010923901F0
:103650006091450170E08091440120913B0146E377
:1036600051E190E00E9419218091390123E0280F57
:103670006091340170E08091330146E351E190E0C4
:103680000E94192180917A0580FD0AC08091430132
:103690008F5F843018F48093430102C0109243017D
:1036A00060913E0170E080913D012091430148E529
:1036B00052E190E00E94192180914E01081711F00B
:1036C00018130DC00E94B32A23E030E040E050E020
:1036D0000E94D72A60934C0189E080935701809122
:1036E0007A0580FD10C080914B0181110CC0809142
:1036F0004A018F5F80934A018C3329F481E08093E3
:103700004B0110924A010E94731686FF04C08091FB
:103710004401843170F10E94731685FF04C08091CA
:103720004401853060F50E94731687FF04C08091C4
:103730004501853050F50E94731684FF07C08091C3
:103740004501282F30E0243231052CF184E00E941D
:103750005621882319F081E080934B0188E00E9474
:1037600056218823F1F00E94962188E0809357012A
:1037700018C090914801890F80934401CCCF90915B
:103780004801891B80934401CECF90914901891B48
:1037900080934501D0CF90914901890F80934501D5
:1037A000D5CF26960FB6F894DEBF0FBECDBFDF9102
:1037B000CF911F910F91FF90EF90DF90CF90BF902E
:1037C000AF909F908F907F906F905F904F903F90C1
:1037D0002F900895CF92DF92EF92FF920F931F9355
:1037E000CF93DF936C017A018B01C0E0D0E0CE155E
:1037F000DF0589F0D8016D918D01D601ED91FC9125
:103800000190F081E02DC6010995892B11F47E010C
:1038100002C02196ECCFC701DF91CF911F910F918C
:10382000FF90EF90DF90CF9008953FB7F89480918C
:10383000620190916301A0916401B091650126B588
:10384000A89B05C02F3F19F00196A11DB11D3FBFD8
:10385000BA2FA92F982F8827820F911DA11DB11D66
:10386000BC01CD0142E0660F771F881F991F4A9562
:10387000D1F7089580917301E0917101F091720187
:10388000882349F0CF0102969093720180937101D1
:10389000859194910895CF0102969093720180933F
:1038A00071018081918108950E94602A362F90E0F5
:1038B000FC01EC57F94D4491FC01E558F84D249179
:1038C000FC01E855F84D8491882309F451C0442344
:1038D000E1F150E0FA013197EF30F105B0F5EA5A25
:1038E000FF4F0C945A2A909180009F7707C09091C7
:1038F00080009F7D03C090918000977F909380000F
:1039000024C094B59F7702C094B59F7D94BD1DC01F
:10391000909190009F7707C0909190009F7D03C089
:1039200090919000977F909390000FC09091C0006D
:103930009F7703C09091C0009F7D9093C00005C009
:103940009091C200977F9093C200E82FF0E0EE0FB5
:10395000FF1FE656F84DA591B4918FB7F894EC91FE
:10396000311103C020952E2301C02E2B2C938FBF25
:103970000895CF93DF9390E0FC01E558F84D249132
:10398000FC01E855F84D8491882361F190E0880F9F
:10399000991FFC01ED5AF84DC591D491FC01E656F2
:1039A000F84DA591B491611109C09FB7F894888131
:1039B000209582238883EC912E230BC0623061F422
:1039C0009FB7F8943881822F809583238883EC9168
:1039D0002E2B2C939FBF06C08FB7F894E8812E2B17
:1039E00028838FBFDF91CF9108958F929F92AF92DE
:1039F000BF92CF92DF92EF92FF926B017C010E9407
:103A0000151C4B015C01C114D104E104F104F1F077
:103A10000E94151CDC01CB0188199909AA09BB0970
:103A2000883E9340A105B10570F321E0C21AD10888
:103A3000E108F10888EE880E83E0981EA11CB11CF5
:103A4000C114D104E104F10419F7DDCFFF90EF9028
:103A5000DF90CF90BF90AF909F908F9008951F926E
:103A60000F920FB60F9211242F933F938F939F9332
:103A7000AF93BF938091670190916801A091690114
:103A8000B0916A013091610123E0230F2D3720F4BA
:103A90000196A11DB11D05C026E8230F0296A11DA8
:103AA000B11D209361018093670190936801A093F9
:103AB0006901B0936A018091620190916301A091C4
:103AC0006401B09165010196A11DB11D8093620151
:103AD00090936301A0936401B0936501BF91AF918E
:103AE0009F918F913F912F910F900FBE0F901F903C
:103AF0001895CF92DF92EF92FF920F931F93CF937F
:103B0000DF930E943A1C811520E8920761F48091AE
:103B100071008D7F809371001092910046984798B4
:103B200010925A018BC021E020935A01813020E885
:103B3000920751F480916F019091700190937201FE
:103B4000809371010E943A1C97FD05C02091590194
:103B5000222309F43FC02091580121113BC021E0EC
:103B600020935B01EC01DF77209769F481E080937B
:103B70005C0146983FE9C32E3FE0D32EE12CF12CA7
:103B8000CAEFD0E014C08E0120E030E060E472E4BF
:103B90008FE090E0A90198010E94D72A69017A017B
:103BA00081E0C81AD108E108F10810925C01E091A7
:103BB0007505F09176050995811103C081E0809328
:103BC0005C0180915B018823B9F180915C018111D6
:103BD00033C003C010925B01C5CF46992DC0479AF0
:103BE0000E943A1C009771F09C01DE010E942B2B71
:103BF000DC01CB0129E0B595A795979587952A9586
:103C0000D1F703C08FEF9FEFDC01109290002AE004
:103C100020939100D0929900C092980080935D010A
:103C200090935E01A0935F01B09360018091710059
:103C300082608093710002C04798D2CFDF91CF910C
:103C40001F910F91FF90EF90DF90CF9008951F92FA
:103C50000F920FB60F9211242F933F934F935F93C0
:103C60006F937F938F939F93AF93BF93EF93FF9344
:103C700080915D0190915E01A0915F01B091600122
:103C8000892B8A2B8B2B81F180915C0181110BC0D8
:103C900098B180E4892788B980915B01882319F065
:103CA00088B1805888B980915D0190915E01A091A2
:103CB0005F01B0916001181619061A061B06B4F4CC
:103CC00080915D0190915E01A0915F01B0916001D2
:103CD0000197A109B10980935D0190935E01A093C2
:103CE0005F01B093600102C00E94791DFF91EF91C6
:103CF000BF91AF919F918F917F916F915F914F9104
:103D00003F912F910F900FBE0F901F9018958F929B
:103D10009F92AF92BF92CF92DF92EF92FF920F935A
:103D20001F93CF93DF935C016B018A01809109019E
:103D3000882309F45EC080916E01882309F459C07C
:103D400080916C0180FF05C08091E00082608093CB
:103D5000E000E8018AEFF82E93E0E92E2FE3822EAF
:103D60003AE3932E209709F43DC08FB7F894E09280
:103D7000E9009091E80095FF06C09091F200282D8F
:103D8000291B922F01C090E08FBF91110AC0FA94B5
:103D9000FF2079F161E070E080E090E00E94F51C86
:103DA000E1CF292F30E0C217D3070CF49C2F8FB737
:103DB000F894E092E9002091E80025FF11C0292F36
:103DC00030E0C21BD30BF601915020F0419140939B
:103DD000F100FACFC20ED31E9091E80095FF13C0F8
:103DE0008FBFC0CF5D9884E680936B0110161106DB
:103DF00044F081E090E0F5019383828380E090E0DD
:103E000005C0C80103C09092E800EACFDF91CF91CE
:103E10001F910F91FF90EF90DF90CF90BF90AF90E8
:103E20009F908F9008952F923F924F925F926F9242
:103E30007F928F929F92AF92BF92CF92DF92EF923A
:103E4000FF920F931F93CF93DF9300D000D0CDB795
:103E5000DEB74A013901F02E4C2DA02E000FBB0811
:103E60008C010A0D1B1D101611060CF0CBC18038F9
:103E700091050CF0C7C19B012E0D311DE7FC3A9551
:103E8000121613060CF0BEC1603471050CF0BAC1F5
:103E90008114910409F4B6C19B0177FF04C0222765
:103EA0003327261B370B2770FB0177FD379653E02E
:103EB000F595E7955A95E1F73E2F77FF07C0222346
:103EC00029F03FEF3E0F58E0521B252F97FF05C00A
:103ED000EE27FF27E81BF90B02C0E0E0F0E0003816
:103EE00011051CF050E8581B01C05F2D5E1B632FAD
:103EF000032E000C770B3F3F1CF4062F009501C0EA
:103F000000E01E2D177817FF03C01150186F1F5FB8
:103F1000DD24D39411160CF0D12C1E2DE7FC195F73
:103F2000E12EE594E594E594ED0C6E0D711D69307C
:103F300071051CF068E0E62EE31AE01A300F632FDB
:103F400070E83703800D911D11248E0F9F1F7F2D68
:103F50007003800111240E0F1F1F800E911E61142B
:103F6000710419F0D301A00FB11FE1E0F0E03F01AF
:103F7000022E02C0660C771C0A94E2F7433009F463
:103F8000FAC090F44130C9F0423009F03BC14FEF24
:103F9000469DD001479DB00D1124A095B095BC83DE
:103FA000AB837C813E0D2BC04A3F29F04B3F09F08B
:103FB00029C13E0D87C03E0D52C03E0DC6C0F40162
:103FC000EC0DFD1DE491E69D2001E79D500C1124B0
:103FD0005A82498267FD05C0F80140814A23442A7C
:103FE0004082211115C0FFEFCF1ADF0A0F5F1F4F6C
:103FF000C51628F36F5F8A0C9B1C80589F4F631770
:1040000009F400C18C010B581E4FC12CD12CF0CFEC
:1040100067304CF7F801E058FF4F40814723FA80A2
:104020004F294083E0CFF401E00FF11FE491E69DBA
:104030006001E79DD00C1124DA82C98267FD03C0BC
:104040004C91C42ACC92211113C00F5F1F4F1196BF
:10405000051748F36F5F8A0C9B1C80589F4F6317AE
:1040600009F4D0C0DC01AB58BE4F00E010E0F0CF47
:1040700067305CF7FD01E058FF4F70814A81472BA4
:104080004083E3CFF401EC0DFD1DE491E69DD001EA
:10409000E79DB00D1124BA83A98367FD05C0A095E3
:1040A000F8014081A423A083211115C0FFEFCF1A8E
:1040B000DF0A0F5F1F4FC51628F36F5F8A0C9B1C2A
:1040C00080589F4F631709F49DC08C010B581E4FF9
:1040D000C12CD12CF0CF67304CF7F801E058FF4FDE
:1040E0004A814095708147234083E0CFFD01E00F76
:1040F000F11FE491E69D2001E79D500C11244094AE
:1041000050945C824B82F401E00FF11FE491E69D34
:104110001001E79D300C11243A82298267FD05C009
:10412000F6014081442224282082211118C00F5F0B
:104130001F4FFFEFCF1ADF0A0517C0F26F5F8A0C1F
:104140009B1CAA0DBB1D80589F4F631709F45AC0D2
:10415000FC01EB58FE4F6F0100E010E0EDCF67303F
:1041600034F7F601E058FF4F70814C8147237A8184
:10417000472B4083DCCF652F70E0800E911EDC0161
:10418000AB58BE4F8B509E4F00E810E0061B170B3C
:10419000A61AB70AAA0CBB1C6B817C81E981FA8143
:1041A000F52ED12CAF015F2CCE2CF401CF93DF93F1
:1041B000C82FD92F45916591222361F0469D402D4E
:1041C000512D669D602D37302CF4D8801094D1206D
:1041D000D52AD992DC9033231AF06095D622D42ABE
:1041E000DD92FA9439F7EA9451F0F52C33951124C5
:1041F000EA0DF11DA00FB11DC00FD11DDBCFDF9166
:10420000CF9111240F900F900F900F90DF91CF91CD
:104210001F910F91FF90EF90DF90CF90BF90AF90E4
:104220009F908F907F906F905F904F903F902F90D6
:104230000895CF92DF92EF920F93CF93DF934115C2
:10424000510569F1FA0104913196E4904E5F5F4F98
:104250002223F9F0C02FD0E0AE2DA695A695A69505
:10426000EA2FF0E0A1E0B0E03E2D377011F4A0E0BD
:10427000B0E0AE0FBF1FCA9F6001CB9FD00CDA9F8A
:10428000D00C11242C9DF0012D9DF00D11244E0F0A
:104290005F1F2AEFC22E20E030E00E94131FDF9143
:1042A000CF910F91EF90DF90CF90089520917D05F1
:1042B000282329F490917C05982381E009F480E07B
:1042C00008950F931F93CF93DF9300D000D000D0B9
:1042D000CDB7DEB709831A832B833C834D835E837E
:1042E000FB01AC0129813A818B819C8162177307A4
:1042F0008CF06D81260F311DE217F3075CF448172F
:10430000590744F02E81BC01620F711D81E04617F0
:1043100057070CF080E026960FB6F894DEBF0FBE6C
:10432000CDBFDF91CF911F910F91089520E085E7D8
:1043300091E0B22FB111BFEFFC010024B193B19312
:10434000B193B1930394D1F70895EF92FF920F9335
:104350001F93CF9300E810E0C0E0E12CF12C0E9405
:10436000B41680E10E94E61682E00E94E6168C2FC9
:10437000806B0E94E6160E94D216F701EB58FE4FA2
:1043800080818EBDC70101967C01801791074CF496
:10439000FC01EB58FE4F20810DB407FEFDCF2EBD72
:1043A000F2CF0DB407FEFDCFCF5F00581F4FC830CE
:1043B000B1F6CF911F910F91FF90EF9008959C015E
:1043C000E1E7F0E090819D7F908310927301E5EE2C
:1043D000F5E0F0937201E0937101F0937001E093C6
:1043E0006F013183208384E690E09383828380E0B1
:1043F00090E8958384830C94791DEF92FF920F933C
:104400001F93CF93DF937C018B01040F111DEB01F0
:1044100077FF0EC0C0E0D0E00BC0C217D3077CF41A
:1044200021E0AE01B70187E795E00E94871721964A
:104430009801013411058CF320E430E0EECFDF91D8
:10444000CF911F910F91FF90EF9008952F923F927F
:104450004F925F926F927F928F929F92AF92BF9294
:10446000CF92DF92EF92FF920F931F93CF93DF9340
:1044700000D01F92CDB7DEB77C014B016C507109A3
:1044800049E10E94FD21CC24C394D12C00E010E02E
:104490002CE030E03B832A8398EE292E33243A9493
:1044A00025EFA22EBB24BA940F5F1F4F82E0C80EE7
:1044B000D11CAC0CBD1C2A81220F2F5F422F24017E
:1044C0008A819B81481A590AB201C701800F911F46
:1044D00029830E94FD213401601A710A4C2DB30119
:1044E0008A819B818E0D9F1D0E94FD212981422F73
:1044F000B201C701801B910B0E94FD214C2DB3011D
:10450000C7012A813B81821B930B0E94FD212A81D6
:104510003B810217130774F4B7FCC6CF2A813B8195
:10452000215031093B832A8332E0230E311CA20C37
:10453000B31CBACF0F900F900F90DF91CF911F91C6
:104540000F91FF90EF90DF90CF90BF90AF909F9032
:104550008F907F906F905F904F903F902F90089535
:10456000FC0180916E01811103C08FEF9FEF0895D0
:104570009FB7F89482E08093E9002091F20030E048
:104580001216130614F421E030E02115310559F01C
:10459000289884E680936D018091F100808380915A
:1045A000F200882319F09FBFC90108958BE680931C
:1045B000E800F9CF80918D0581110DC082E08093D4
:1045C000890584E080938A0510928C0510928B05F2
:1045D00081E080938D0589E895E00895CF93DF937E
:1045E0001F92CDB7DEB76983DC01ED91FC910280AB
:1045F000F381E02D41E050E0BE016F5F7F4F0995F0
:104600000F90DF91CF91089583E08093E90080912E
:10461000F200882319F08AE38093E8000895FC01F2
:104620008485958597FD0BC09FB7F89482E08093B1
:10463000E9008091F2009FBF90E0019608959FB736
:10464000F89482E08093E9008091F2009FBF90E0AF
:1046500008954091F8055091F9052091F6053091A3
:10466000F70542175307B4F49091E8009570E1F311
:104670009091E80092FD19C08093F1008091F805B7
:104680009091F90501968F739927892B19F48EEF74
:104690008093E8008091F8059091F9050196909338
:1046A000F9058093F80581E0089580E00895DF9290
:1046B000EF92FF920F931F93CF93DF93D82E8A012F
:1046C0007B01E40EF51EEB01CE15DF0571F0D7FE80
:1046D00003C0FE01849101C088810E942923219694
:1046E0008111F2CF8FEF9FEF01C0C801DF91CF9111
:1046F0001F910F91FF90EF90DF900895615030F07F
:104700002091F100FC0120830196F8CF289884E6DF
:1047100080936D010895CF93DF931F92CDB7DEB7DD
:10472000FC018485958597FD05C02FEF3FEF358708
:1047300024870BC0CE0101960E94B022019719F484
:10474000898190E002C08FEF9FEF0F90DF91CF91B2
:1047500008950F931F93CF93DF931F92CDB7DEB7CA
:104760008C01FC018485958597FF0EC0CE010196D2
:104770000E94B022019719F4298130E002C02FEF86
:104780003FEFF80135872487F801848595850F90E0
:10479000DF91CF911F910F9108950F931F93CF93A6
:1047A000DF931F92CDB7DEB782E0898342E450E009
:1047B0006AEF77E280E80E9457230E94DA22DC0148
:1047C00012960D911C9113970115110569F0D801EE
:1047D000ED91FC910280F381E02DBE016F5F7F4F70
:1047E000C801099597FF07C089810F90DF91CF918C
:1047F0001F910F910895F80100851185E5CF1F9253
:104800000F920FB60F9211248F939F938091E10026
:104810009091E100937F9093E10083FF0FC010928D
:10482000E90091E09093EB001092EC0092E39093FA
:10483000ED0010926E0198E09093F00082FF20C08E
:1048400093E09093E9009091F200992319F09AE394
:104850009093E80090916B01992339F090916B014E
:10486000915090936B01992389F190916D01992357
:1048700039F090916D01915090936D01992341F120
:1048800084FF10C08091E2008E7E81608093E20000
:104890008091E1008F7E8093E10080916C018E7E9B
:1048A000806111C080FF16C08091E2008E7E806121
:1048B0008093E2008091E1008E7E8093E100809100
:1048C0006C018E7E816080936C0104C05D9ACDCFB7
:1048D000289AD6CF9F918F910F900FBE0F901F9067
:1048E00018951F920F920FB60F921124CF92DF925C
:1048F000EF92FF920F931F932F933F934F935F93EA
:104900006F937F938F939F93AF93BF93EF93FF9397
:10491000CF93DF93CDB7DEB76C97DEBFCDBF1092DC
:10492000E9008091E80083FFFAC168E0CE01459676
:104930000E947E2382EF8093E8008D8987FF05C067
:104940009091E80090FFFCCF03C09EEF9093E800A9
:10495000982F907609F0C6C09E892F89188D9111E5
:104960000CC0803829F48091F4058093F10002C0D6
:104970001092F1001092F10047C1422F50E0512BEC
:10498000913051F4811140C14130510509F03CC1D1
:104990008091F4058D7F0BC0933061F4811134C197
:1049A0004130510509F030C18091F4058260809357
:1049B000F4052AC1953041F48091E80080FFFCCFD6
:1049C00020682093E30020C1963009F05FC0EB8C93
:1049D000FC8C1092E9001092F9051092F805123043
:1049E00091F51092F7051092F6050E94CD2399E0FB
:1049F000BE016F5F7F4FDB01E92F1D92EA95E9F75A
:104A000099831A8391E09E8390EA98879AEF998719
:104A10002091F8053091F905275F3F4F3C832B83A8
:104A20008D831092E9001092F9051092F805F0922A
:104A3000F705E092F60549E050E080E00E94572338
:104A40000E94CD23E1C0F092F705E092F6050E94A6
:104A5000DA22DC011296ED90FC901397E114F10438
:104A600009F4C0C0D701ED91FC910480F581E02DDF
:104A7000BE016B5E7F4FC7010995009719F00CF0DE
:104A8000C3C0C6C0F701E084F184E8CF973009F4D1
:104A9000BFC0983021F481E08093F100B5C0993017
:104AA00009F0B2C0837009F0B3C0E9E2F1E081E03F
:104AB00021E036E39081992361F08093E90020930F
:104AC000EB0091919093EC003093ED008F5F873075
:104AD00089F78EE78093EA001092EA008F8980932D
:104AE0006E0192C08B8D9C8D1092E9001092F90599
:104AF0001092F8059093F7058093F605898D811142
:104B000056C08E899D89913A59F4813209F080C04E
:104B100047E050E062E071E080E00E94572374C0FB
:104B2000913209F075C0833289F4888D90E0982F16
:104B300088272F89822BA0E0B0E080930A01909310
:104B40000B01A0930C01B0930D015EC0803269F49B
:104B50008091E80082FFFCCF67E082E091E00E9454
:104B60007E238BEF8093E80006C0823209F04CC0B0
:104B70008F89809309018091F305882319F0EEEF66
:104B8000FAE002C0E0E0F8E08091020190910301B8
:104B9000A0910401B0910501803B9440A105B105AD
:104BA00009F088C08091090180FFA0C083C00E94E5
:104BB000DA22DC0112960D911C9113970115110553
:104BC00039F1D801ED91FC910190F081E02DBE0109
:104BD0006B5E7F4FC8010995811116C0F8010085F1
:104BE0001185ECCF1130C1F0133091F48F898823F7
:104BF00009F455C08230E9F440E860E18CE498E2C1
:104C00000E941D2A882321F08EEF8093E80087C040
:104C100081E28093EB0083C08B8D9C8D089711F40B
:104C20001093F5058091F505811136C06DE578E2A8
:104C300038C0813029F440E86BE080E498E2E0CFAE
:104C4000833031F70E94DA22DC011296ED90FC905D
:104C500013978E010F5F1F4F6801E114F10479F083
:104C6000D701ED91FC910680F781E02DB801C701D5
:104C70000995080F111DF701E084F184EECFD801EA
:104C80001C92F60101900020E9F73197BF016C19E1
:104C90007D0940E0C601B4CF6FE678E202C06CE364
:104CA00078E26115710509F4B3CFFB01449150E03E
:104CB00080E833CF0FB6F894A895809160008861A2
:104CC00080936000109260000FBEA895EE3F2AE02E
:104CD000F20739F08091FE0A9091FF0A9183808358
:104CE00093CF1092FF0A1092FE0A8ECFEE3F8AE019
:104CF000F80731F0808191819093FF0A8093FE0A3A
:104D000087E797E7918380839BE088E10FB6F8946B
:104D1000A895809360000FBE9093600075CF6C964D
:104D20000FB6F894DEBF0FBECDBFDF91CF91FF91DC
:104D3000EF91BF91AF919F918F917F916F915F9113
:104D40004F913F912F911F910F91FF90EF90DF9026
:104D5000CF900F900FBE0F901F901895789484B548
:104D6000826084BD84B5816084BD85B5826085BD67
:104D700085B5816085BD80916E00816080936E00F5
:104D800010928100809181008260809381008091E7
:104D90008100816080938100809180008160809398
:104DA00080008091910082608093910080919100B9
:104DB0008160809391008091900081608093900049
:104DC0008091C10084608093C1008091C1008260A5
:104DD0008093C1008091C10081608093C100809167
:104DE000C30081608093C3008091C0008260809383
:104DF000C0008091C20081608093C20080917A00DF
:104E0000846080937A0080917A00826080937A0037
:104E100080917A00816080937A0080917A00806826
:104E200080937A0010926E011092F40510926C013A
:104E30008091D70081608093D70080EA8093D8006A
:104E400089B5806189BD89B5826089BD09B400FEDC
:104E5000FDCF61E070E080E090E00E94F51C809161
:104E6000D8008F7C80618093D8008091E000807FA3
:104E70008093E0008091E1008E7E8093E1008DE0E0
:104E80008093E200559A209AEEEFFFE78591949186
:104E90008B3F9C4D19F481E08093F305CFB7F894D4
:104EA00080916601811127C0E9EBF7E28491ECE87B
:104EB000F7E29491E82FF0E0EE0FFF1FED5AF84D66
:104EC000A591B491EC91E92321F461E081E10E9484
:104ED000561C61E081E10E94B91C8CB580618CBDDB
:104EE0008CB580648CBD61E08FE00E94B91C61E0EC
:104EF00080E10E94B91C809166018F5F80936601FA
:104F0000CFBFC7ECD7E2FE0184912296319664911F
:104F1000882319F00E94B91CF6CF61E086E00E9458
:104F2000561C61E070E080E090E00E94F51C60E0BB
:104F300086E00E94561C6AE070E080E090E00E94EB
:104F4000F51C61E086E00E94561CE4EBF7E2E49178
:104F5000F0E0EE0FFF1FE656F84D85919491909387
:104F6000560180935501E7E8F7E2E491E09354019C
:104F7000ECEAF7E2E491F0E0EE0FFF1FE656F84DA1
:104F8000859194919093530180935201EFE7F7E25A
:104F9000E491E09351018CB58C7F8CBD8DB581601F
:104FA0008DBD0E94B416C1E6D7E21C2F165EFE012D
:104FB00084910E94E61621961C13F9CF0E94D21606
:104FC00080916400816080936400809164008260BD
:104FD0008093640080916400806880936400809175
:104FE0006400806480936400809165008160809398
:104FF00065000E94B41680E10E94E61682E00E94DD
:10500000E6160E94D216C0E0D4E080E00E94E616C8
:105010002197D9F70E94731687FF3CC00E94B416EF
:1050200085EA0E94E6160E94D21640E060E080E029
:105030000E9490160E94731684FD03C00E94A91658
:10504000F9CF41E061E081E00E9490160E94B41621
:1050500084EA0E94E6160E94D2161CC060E08BE033
:105060000E94561C0E9473168478843821F44FEFF6
:105070006AE00E944E170E9473168471843121F4F5
:1050800040E069E00E944E1768EC70E080E090E03C
:105090000E94F51C0E94731682FDE0CF61E08BE058
:1050A0000E94561C82E090E00E94C12A81110E9459
:1050B000ED1660E089E00E94561CCEEEDFEF08E0BE
:1050C00010E00E94731686FF06C041E061E081E0B7
:1050D0000E94901689C09C2E2CEFC21303C041E0A1
:1050E00060E005C038E1C31305C040E061E081E045
:1050F0000E9490160E94962140EF941694F40E940C
:10510000A5216BE170E080E090E00E94F51C50EF7B
:1051100095125BC06AEF70E080E090E00E94F51CA1
:1051200054C09E01D7FF04C0222733272C1B3D0B00
:1051300027703327CE01D7FD079653E095958795C5
:105140005A95E1F7D7FF05C00197B801621B730BB1
:105150009B017C01F694FE2CEE24F794E79440E04A
:1051600050E03801621A730AF701E058FF4F5F01FF
:105170008F3FFFEF9F0744F40196485A5F4F750138
:10518000403B510589F7BBCFD701A75FBD4F60E01A
:1051900070E08F3FEFEF9E0709F4FEC0FB01E40FC4
:1051A000F51FED55F94DE4916D01CA18DB08CE0CE1
:1051B000DF1CF0E02F01022E01C0440C0A94EAF734
:1051C000F601808048284082E7C02196C931D10588
:1051D00009F077CF6EEE72E080E090E00E94F51C5F
:1051E00061E08BE00E94561C62E370E080E090E09A
:1051F0000E94F51C0E9473168111F6CF81E2809304
:105200007E05809164008E7F8093640087EC80939C
:105210007C0080E280937B0062E070E080E090E0C0
:105220000E94F51C80917A00806480937A008091BE
:105230007A0086FDFCCFC0917800D0917900C095AE
:10524000D0958EE580937C0062E070E080E090E095
:105250000E94F51C80917A00806480937A0080918E
:105260007A0086FDFCCF00917800109179000E94B1
:10527000151C9B01AC0120953095409550950095EB
:1052800010950C9FD0010D9FB00D1C9FB00D1124E7
:105290000E94F62A6B017C010E94151C6C0D7D1D7D
:1052A0008E1D9F1D611571058105910511F00E94EC
:1052B000B82A80916400816080936400C0E0D0E0EF
:1052C00011E02FB7F8948091670190916801A09147
:1052D0006901B0916A012FBF20918705222391F0C7
:1052E00020917F05F82FF21BF093880520917A0515
:1052F00030917B052F5F3F4F30937B0520937A05DC
:105300001092870540918305509184056091850531
:105310007091860584179507A607B70730F4481BD8
:105320004230A0F10E94A91631C020917E05AC0147
:10533000BD01420F511D611D711D409383055093A6
:105340008405609385057093860580937F0590930F
:105350008005A0938105B093820510938705809105
:105360007C0580937D050E94731680937C050E94C6
:105370009621E0915701F0E0EE0FFF1FEA51F84D42
:1053800085919491FC0109950E94A521209709F42B
:1053900098CF0E94000095CF2115310581F0FB01C7
:1053A000E40FF51FED55F94DE491F0E0062C02C035
:1053B000F595E7950A94E2F7DC90ED29EC936F5FA1
:1053C0007F4F11966835710509F0E3CED5CEE5E93A
:1053D000F5E01382128288EE93E0A0E0B0E08483CF
:1053E0009583A683B78386E191E0918380838FEFD5
:1053F0009FEF95878487E7E7F5E086E291E0918368
:1054000080831582168280E187831482138214863A
:10541000158616861786108A8CE694E19093760599
:105420008093750580E090E89093F2058093F105F4
:1054300046983E9A47983F9A0895CF92DF92EF920E
:10544000FF920F931F93CF93DF931F92CDB7DEB7D9
:10545000182F062FE42E862F880F8E5F99830E94C7
:10546000292383E00E942923F12EC12E9981D92E70
:105470008C2D8F19801798F4F601E7FE02C08491F5
:1054800001C080810E942923182F80E00E942923D7
:105490008123FFEFCF1ADF0A8111EACF01C081E03B
:1054A0000F90DF91CF911F910F91FF90EF90DF90C0
:1054B000CF900895EE0FFF1F0590F491E02D099411
:1054C00081E090E0F8940C943A2B8F929F92AF92E7
:1054D000BF92CF92DF92EF92FF92CF93DF93EC01D6
:1054E000688179818A819B816115710581059105AA
:1054F00021F464E279ED8BE597E02DE133EF41E0B3
:1055000050E00E94D72A49015A019B01AC01A7EA49
:10551000B1E40E94F62A6B017C01ACEEB4EFA50168
:1055200094010E94042BDC01CB018C0D9D1DAE1D4E
:10553000BF1DB7FF03C00197A109B04888839983B5
:10554000AA83BB83BC01CD019F77DF91CF91FF90F0
:10555000EF90DF90CF90BF90AF909F908F90089585
:105560000E94652A08958EE091E00E94652A0895C0
:1055700060930E0170930F018093100190931101BD
:105580000895F999FECF92BD81BDF89A992780B50B
:105590000895262FF999FECF1FBA92BD81BD20BD77
:1055A0000FB6F894FA9AF99A0FBE01960895052E4F
:1055B00097FB1EF400940E94EE2A57FD07D00E942C
:1055C000092B07FC03D04EF40C94EE2A509540951D
:1055D000309521953F4F4F4F5F4F0895909580959F
:1055E000709561957F4F8F4F9F4F08950E942B2B91
:1055F000A59F900DB49F900DA49F800D911D112427
:105600000895B7FF0C94F62A0E94F62A821B930B8A
:105610000895A1E21A2EAA1BBB1BFD010DC0AA1FF3
:10562000BB1FEE1FFF1FA217B307E407F50720F00B
:10563000A21BB30BE40BF50B661F771F881F991F86
:105640001A9469F760957095809590959B01AC01CF
:10565000BD01CF010895A29FB001B39FC001A39FD8
:10566000700D811D1124911DB29F700D811D11249B
:08567000911D0895F894FFCF8D
:10567800030400E1000000000000FFFFFFFF01003D
:10568800000000000000EE22871E0F238B23A923B1
:105698000423000000006F1400C180810000000096
:00000001FF
