:100000000C94F5070C941D080C941D080C941D0805
:100010000C941D080C941D080C941D080C941D08CC
:100020000C941D080C941D080C949A090C940C0A4D
:100030000C941D080C941D080C941D080C941D08AC
:100040000C941D080C94D60F0C941D080C941D08DC
:100050000C941D080C941D080C941D080C94800E23
:100060000C941D080C941D080C941D080C941D087C
:100070000C941D080C941D080C941D080C941D086C
:100080000C9474100C941D080C941D080C941D08FD
:100090000C941D080C941D080C941D080C941D084C
:1000A0000C941D080C941D080C941D08890C8C0CD4
:1000B0007B0C7F0C830CAD0CAD0CAD0C900C940C38
:1000C000980C9E0CA20CAD0CA80C240D290D2E0D25
:1000D000380D420D8C0D8C0D8C0D4C0D560D600D98
:1000E0006A0D770D8C0D7F0DFE0317032F03170389
:1000F0002F0317032F0317032F0317032F031703D0
:100100002F0317032F0317032F0317032F031703BF
:100110002F0317032F0317032F0317032F031703AF
:100120002F0317032F0317032F0317032F0317039F
:100130002F0317032F0317032F0317032F0317038F
:100140002F0317032F0317FEFF0000F8FCFCFCFC35
:100150003C3C3C3CFCFCFCFCF800000000FCFCFCD3
:10016000FCFC000000000000000000FCFCFCFCFCAB
:100170003C3C3C3C3C0000000000000000F0FCFC6B
:10018000FCFCFCF00000000000000000FCFCFCFC9B
:10019000FC3C3C3C3CFCFCFCFCF80000000000008B
:1001A000FCFCFCFCFC0000FFFF0000FFFFFFFFFF6A
:1001B00000000000070707070700000000FFFFFF1F
:1001C000FFFF000000000000000000FFFFFFFFFF36
:1001D0007878787878000000000000E0FEFFFFFFEC
:1001E00007FFFFFFFFE0000000000000FFFFFFFF30
:1001F000FFF0F0F0F0FFFF7F7F3F00000000000005
:10020000FFFFFFFFFF0000FFFF0000FFFFFFFFFFFA
:10021000E0E0E0E0FEFEFEFEFE00000000FFFFFF6B
:10022000FFFFE0E0E0E0E000000000FFFFFFFFFF75
:10023000E0E0E0E0E000000000C0FEFFFFFF3F1E46
:100240001E1F3FFFFFFFFEC000000000FFFFFFFF7B
:10025000FF00030F3FFFFFFFF8E0800000000000F9
:10026000EFEFEFEFEF0000FFFF3030303131313191
:100270003131313131313131303030303031313173
:100280003131313131313130303030313131313162
:100290003131313131303030303131313131303054
:1002A0003030303131313131303030303131313145
:1002B0003130303030303131313131303030303038
:1002C00031313131313030FF7FE8C0F4C0E8C0F463
:1002D000C0E8C0F4C0E8C0F4C0E8C0F4C0E8C0F4AE
:1002E000C0E8C0F4C0E8C0F4C0E8C0F4C0E8C0F49E
:1002F000C0E8C0F4C0E8C0F4C0E8C0F4C0E8C0F48E
:10030000C0E8C0F4C0E8C0F4C0E8C0F4C0E8C0F47D
:10031000C0E8C0F4C0E8C0F4C0E8C0F4C0E8C0F46D
:10032000C0E8C0F4C0E8C07FFE0317032F03170323
:100330002F0317032F0317032F0317032F0317038D
:100340002F0317032F0317032F0317032F0317037D
:100350002F0317032F0317032F0317032F0317036D
:100360002F0317032F0317032F0317032F0317035D
:100370002F0317032F0317032F0317032F0317034D
:100380002F0317032F0317FEFF00000000F8FCFCEB
:10039000FCFC3C3C3C3CFCFCFCFCF80000003C3C15
:1003A0003C3CFCFCFCFCFC3C3C3C3C0000000000F9
:1003B000F0FCFCFCFCFCF0000000000000FCFCFC7D
:1003C000FCFC3C3C3C3CFCFCFCFCF800003C3C3CA9
:1003D0003CFCFCFCFCFC3C3C3C3C000000FCFCFC11
:1003E000FCFC0000000000FFFF00000000070F1FE2
:1003F0001F3F7EFCF8F8F3E3C38303000000000016
:100400000000FFFFFFFFFF00000000000000E0FE13
:10041000FFFFFF07FFFFFFFFE000000000FFFFFFFF
:10042000FFFFF0F0F0F0FFFF7F7F3F0000000000D3
:1004300000FFFFFFFFFF00000000000000FFFFFFC4
:10044000FFFF0000000000FFFF00000000FEFEFEB6
:10045000FEFEE0E0E1E3FFFFFFFFFF000000000021
:100460000000FFFFFFFFFF0000000000C0FEFFFFD5
:10047000FF3F1E1E1F3FFFFFFFFEC00000FFFFFFEC
:10048000FFFF00030F3FFFFFFFF8E08000000000C8
:1004900000FFFFFFFFFF00000000000000EFEFEF94
:1004A000EFEF0000000000FFFF303030303031311E
:1004B0003131313131313131313130303030303032
:1004C0003030313131313130303030303131313123
:1004D0003130303030303131313131303031313113
:1004E0003131303030303031313131313030303005
:1004F00030313131313130303030303030313131F4
:1005000031313030303030FF7FE8C0F4C0E8C0F423
:10051000C0E8C0F4C0E8C0F4C0E8C0F4C0E8C0F46B
:10052000C0E8C0F4C0E8C0F4C0E8C0F4C0E8C0F45B
:10053000C0E8C0F4C0E8C0F4C0E8C0F4C0E8C0F44B
:10054000C0E8C0F4C0E8C0F4C0E8C0F4C0E8C0F43B
:10055000C0E8C0F4C0E8C0F4C0E8C0F4C0E8C0F42B
:10056000C0E8C0F4C0E8C07F0000000000808080C8
:100570008000000000FEFFFF0F0F0F000000FFFFD4
:10058000FFFFFF0F0F0F0FFFFFFFFFFE0000000038
:1005900000000000C0C0C0C0000000000000FFFF5D
:1005A000FFFFFF000000000000000000000000004E
:1005B0000000000000000000000000000F0F0FFF0F
:1005C000FFFE00000000808080800000000000002E
:1005D0000000000000FFFF030300000000FFFFFF1A
:1005E000000000000000FFFFFFFFFF78F8F8F8FFB1
:1005F000FF3F3F1F00E0E7E7FFFEFEFE1F1F1F1F3C
:10060000FEFEFEFFE7E7E81FFFFFFF1E1FFFFFFFE5
:10061000FFFE00000000FEFFFFFFFF0F0FFFFFFFC8
:10062000FFFE0000000000FFFFFF000000000303CA
:10063000FFFF00000000000000000030FCFFCF00C2
:1006400000000078FEFFCF87000000000000FFFFE1
:10065000FFFFFF00010F3FFFFFFFFCF08001717102
:100660007F1F1F1FFEFEFEFE1F1F1F3F393985FE25
:10067000FFFFFFE0E0FFFFFFFFFF00000000FFFFC4
:10068000FFFFFFE0E0FFFFFFFFFF0000000000872B
:10069000CFFFFE7800000000CFFFFC30000000001C
:1006A0000000000000FFFF000000000001FFFFFF4E
:1006B0000000000030303131B1B1B1B0B0B0B0B0F5
:1006C0003131313131303030303030303030303025
:1006D000303030303030B1B1B13131313131313190
:1006E0003130303030303031313131313131313100
:1006F00031303030000000FFFFFF0100000000003B
:10070000FFFF00000000000000000000000F0F0EBF
:100710000E00000000FFFFFF00000000000000FCD2
:10072000FFFF03010101C3FFFF7E00E0F8F81C0C8E
:100730000C1CFCF8F00000E0F8FC1C0C9CFCFFFF1B
:100740000300E0F8FC1C0C0CFCFCFC00E0F8F85C7E
:100750004C4C7C7C7800000000000000000000FF92
:10076000FFFF000000000E0E0F0F00000000000051
:1007700000000000000000000000000000070F0F54
:100780000F0F0F0000000707070606060607030302
:10079000010000010307070606070303000000032A
:1007A000070706060707070000183B3F3736363FA6
:1007B0001F0F0000010307070606070301000000E2
:1007C000000000000F0F0F0F0F07000000000000D7
:1007D000000000000000000000000000003E5B4F31
:1007E0005B3E3E6B4F6B3E1C3E7C3E1C183C7E3C91
:1007F000181C577D571C1C5E7F5E1C00183C18009F
:10080000FFE7C3E7FF0018241800FFE7DBE7FF302E
:10081000483A060E2629792926407F050507407F9C
:1008200005253F5A3CE73C5A7F3E1C1C08081C1C0F
:100830003E7F14227F22145F5F005F5F06097F0105
:100840007F006689956A606060606094A2FFA294F0
:1008500008047E040810207E201008082A1C0808BE
:100860001C2A08081E101010100C1E0C1E0C30380C
:100870003E3830060E3E0E06000000000000005F0D
:1008800000000007000700147F147F14242A7F2A29
:1008900012231308646236495620500008070300EB
:1008A000001C2241000041221C002A1C7F1C2A0837
:1008B000083E08080080703000080808080800009A
:1008C00060600020100804023E5149453E00427F0E
:1008D000400072494949462141494D331814127F5D
:1008E0001027454545393C4A4949314121110907FD
:1008F0003649494936464949291E0000140000007E
:10090000403400000008142241141414141400414F
:1009100022140802015909063E415D594E7C12110C
:10092000127C7F494949363E414141227F41414144
:100930003E7F494949417F090909013E41415173BF
:100940007F0808087F00417F41002040413F017F30
:10095000081422417F404040407F021C027F7F04F8
:1009600008107F3E4141413E7F090909063E415141
:10097000215E7F09192946264949493203017F0131
:10098000033F4040403F1F2040201F3F4038403F32
:10099000631408146303047804036159494D430048
:1009A0007F4141410204081020004141417F04027F
:1009B0000102044040404040000307080020545416
:1009C00078407F28444438384444442838444428F4
:1009D0007F385454541800087E090218A4A49C7847
:1009E0007F0804047800447D40002040403D007FA3
:1009F0001028440000417F40007C047804787C0883
:100A00000404783844444438FC1824241818242456
:100A100018FC7C08040408485454542404043F443B
:100A2000243C4040207C1C2040201C3C4030403C6A
:100A300044281028444C9090907C4464544C4400CA
:100A4000083641000000770000004136080002012E
:100A50000204023C2623263C1EA1A161123A40401A
:100A6000207A385454555921555579412154547898
:100A700041215554784020545579400C1E52721231
:100A800039555555593954545459395554545800B9
:100A900000457C410002457D420001457C40F02933
:100AA0002429F0F0282528F07C5455450020545482
:100AB0007C547C0A097F49324949493232484848C6
:100AC00032324A4848303A4141217A3A424020780D
:100AD000009DA0A07D39444444393D4040403D3C08
:100AE00024FF2424487E4943662B2FFC2F2BFF092B
:100AF00029F620C0887E090320545479410000441F
:100B00007D413048484A32384040227A007A0A0A09
:100B1000727D0D19317D2629292F2826292929267C
:100B200030484D4020380808080808080808382FC1
:100B300010C8ACBA2F102834FA00007B000008144B
:100B40002A142222142A14089500220095AA00557E
:100B500000AAAA55AA55AA000000FF00101010FF15
:100B600000141414FF001010FF00FF1010F010F01C
:100B7000141414FC001414F700FF0000FF00FF140D
:100B800014F404FC141417101F10101F101F141459
:100B9000141F00101010F0000000001F10101010A3
:100BA0001F10101010F010000000FF101010101097
:100BB00010101010FF10000000FF140000FF00FFD5
:100BC00000001F10170000FC04F414141710171471
:100BD00014F404F40000FF00F71414141414141493
:100BE000F700F7141414171410101F101F14141406
:100BF000F4141010F010F000001F101F0000001F70
:100C000014000000FC140000F010F01010FF10FFA2
:100C1000141414FF141010101F00000000F010FF37
:100C2000FFFFFFFFF0F0F0F0F0FFFFFF000000001B
:100C300000FFFF0F0F0F0F0F38444438447C2A2A5F
:100C40003E147E02020606027E027E026355494180
:100C5000633844443C04407E201E2006027E02028B
:100C600099A5E7A5991C2A492A1C4C7201724C309F
:100C70004A4D4D303048784830BC625A463D3E4976
:100C80004949007E0101017E2A2A2A2A2A44445F1A
:100C9000444440514A444040444A51400000FF010E
:100CA00003E080FF000008086B6B0836123624361C
:100CB000060F090F06000018180000001010003081
:100CC00040FF0101001F01011E00191D1712003C09
:100CD0003C3C3C00000000000601150126013701E4
:100CE0004A015D01720188019F01B801D201EE0144
:100CF0000B022A024B026E029302BA02E4021003B4
:100D00003F037003A403DC03170455049704DD04B8
:100D100027057505C80520067D06E0064907B807C2
:100D20002D08A9082D09B9094D0AEA0A900B400CB3
:100D3000FA0CC00D910E6F0F5A1053115B12721303
:100D40009A14D41520178018F519801B231DDE1E58
:100D5000B420A622B524E4263429A72B402E003146
:100D6000EA330037453ABC3D68414C456B49C84DB4
:100D700068524F57805C0062101112131516171835
:100D80001A1C1D1F21232527292C2E3134373A3ECA
:100D90004145494E52575C62686E757B838B939CCC
:100DA000A5AFB9C4D0DCE9F70000000200090F00CC
:100DB00000030401000C000000000000000000001F
:100DC00000000000000000080B0002020201000900
:100DD00004000001020200000524001001052401A6
:100DE0000101042402060524060001070581031001
:100DF000004009040100020A000000070502024049
:100E000000000705830240000004030904417264E6
:100E100075696E6F204C4C430041726475696E6F4A
:100E2000204C656F6E6172646F0012010002000059
:100E3000004041233680000101020301120100023B
:100E4000EF02014041233680000101020301F0F866
:100E50009C8E8783878E9CF8F00000FEFF030303BF
:100E60000303070EFCF80000FEFF03030303030760
:100E70000EFCF80000FFFF00000000000000FFFF74
:100E80000000FEFF8383838383C7EE7C380000F875
:100E9000FC0E07030303070EFCF800003F7FE0C0D1
:100EA0008080C0E07F3FFFFF01010101010101FFE0
:100EB000FF0000FFFF0C0C0C0C1C3E77E3C1000090
:100EC0007FFFC0C0C0C0C0E0703F1F00001F3F7068
:100ED000E0C0C0C0E0703F1F00007FFFC1C1C1C1C2
:100EE000C1E3773E1C00001F3F70E0C0C0C0E0704F
:100EF0003F1F000000000001FFFF01000000000094
:100F00000000240027002A002D003000AED580A864
:100F10003FD300408D142002A1C8DA1281CFD9F14D
:100F2000DB402EA4A6AF1402130212021502070220
:100F3000080204010C010601003C42BDA5A5BD420A
:100F40003C00C0BAF2FEBED6000000CDF9BFFF0BD8
:100F50000000D6BEFEF2BAC000000BFFBFF9CD0004
:100F600000705EFED66AFEAEE0E0AEFE56EAFE5EC1
:100F70007070D7FF556BFFD770705EFAF272FAAEE1
:100F8000E0E0AEEA72F2FA5E7070D7FD7979FDD7D3
:100F9000701E3F7EFCFC7E3F1E0408020110408054
:100FA0004010204080408008020401804020100250
:100FB0000110801020404020000000002500280083
:100FC0002B002E0031000404040404030405020273
:100FD00002020403020202020606060606060404D2
:100FE0000202020404030100B92011241FBECFEF46
:100FF000DAE0DEBFCDBF26E0A6E7B1E001C01D927A
:10100000AD38B207E1F711E0A0E0B1E0ECEDF8E4B3
:1010100002C005900D92A637B107D9F717E0C5EFCA
:10102000D7E004C02197FE010E944821C43FD107A8
:10103000C9F70E945A160C946C240C94000040913D
:101040008C0150918D0120918A0130918B014217C2
:101050005307B4F49091E8009570E1F39091E800A3
:1010600092FD19C08093F10080918C0190918D01C7
:1010700001968F739927892B19F48EEF8093E800DE
:1010800080918C0190918D01019690938D018093B8
:101090008C0181E0089580E00895CF92DF92EF9275
:1010A000FF920F931F93CF93DF931F92CDB7DEB7BD
:1010B000182F062FE42E862F880F8E5F99830E94AB
:1010C0001F0883E00E941F08F12EC12E9981D92E9E
:1010D0008C2D8F19801798F4F601E7FE02C08491D9
:1010E00001C080810E941F08182F80E00E941F0805
:1010F0008123FFEFCF1ADF0A8111EACF01C081E01F
:101100000F90DF91CF911F910F91FF90EF90DF90A3
:10111000CF900895DF92EF92FF920F931F93CF939A
:10112000DF93D82E8A017B01E40EF51EEB01CE156C
:10113000DF0571F0D7FE03C0FE01849101C08881F4
:101140000E941F0821968111F2CF8FEF9FEF01C0FF
:10115000C801DF91CF911F910F91FF90EF90DF9029
:101160000895615030F02091F100FC012083019638
:10117000F8CF289884E68093AD010895CF92DF924E
:10118000EF92FF920F931F93CF93DF936C017A013D
:101190008B01C0E0D0E0CE15DF0589F0D8016D915C
:1011A0008D01D601ED91FC910190F081E02DC601F9
:1011B0000995892B11F47E0102C02196ECCFC7015D
:1011C000DF91CF911F910F91FF90EF90DF90CF9023
:1011D0000895CF93DF931F92CDB7DEB76983DC010B
:1011E000ED91FC910280F381E02D41E050E0BE01E1
:1011F0006F5F7F4F09950F90DF91CF91089583E046
:101200008093E9008091F200882319F08AE38093AB
:10121000E8000895FC018485958597FD0BC09FB774
:10122000F89482E08093E9008091F2009FBF90E003
:10123000019608959FB7F89482E08093E900809129
:10124000F2009FBF90E008950E94A0230F931F9388
:10125000CF93DF931F92CDB7DEB782E0898342E45C
:1012600050E067EC7DE080E80E948A080E94461604
:10127000DC0112960D911C9113970115110569F06F
:10128000D801ED91FC910280F381E02DBE016F5FEA
:101290007F4FC801099597FF07C089810F90DF91A3
:1012A000CF911F910F910895F80100851185E5CF29
:1012B0000F931F93CF93DF931F92CDB7DEB78C01AF
:1012C000FC018485958597FF0EC0CE0101960E9492
:1012D0001C16019719F4298130E002C02FEF3FEF6F
:1012E000F80135872487F801848595850F90DF9173
:1012F000CF911F910F910895CF93DF931F92CDB798
:10130000DEB7FC018485958597FD05C02FEF3FEF83
:10131000358724870BC0CE0101960E941C160197C9
:1013200019F4898190E002C08FEF9FEF0F90DF9159
:10133000CF9108951F920F920FB60F9211248F93A1
:101340009F938091E1009091E100937F9093E10061
:1013500083FF0FC01092E90091E09093EB00109290
:10136000EC0092E39093ED001092AE0198E0909320
:10137000F00082FF20C093E09093E9009091F2008A
:10138000992319F09AE39093E80090918E019923A4
:1013900039F090918E01915090938E01992389F1AB
:1013A0009091AD01992339F09091AD0191509093B6
:1013B000AD01992341F184FF10C08091E2008E7E3F
:1013C00081608093E2008091E1008F7E8093E10054
:1013D000809190018E7E806111C080FF16C0809147
:1013E000E2008E7E80618093E2008091E1008E7E3B
:1013F0008093E100809190018E7E816080939001C6
:1014000004C05D9ACDCF289AD6CF9F918F910F902F
:101410000FBE0F901F9018951F920F920FB60F924C
:101420001124CF92DF92EF92FF920F931F932F938D
:101430003F934F935F936F937F938F939F93AF935C
:10144000BF93EF93FF93CF93DF93CDB7DEB76C9746
:10145000DEBFCDBF1092E9008091E80083FFFAC1A2
:1014600068E0CE0145960E94B10882EF8093E800C3
:101470008D8987FF05C09091E80090FFFCCF03C0E5
:101480009EEF9093E800982F907609F0C6C09E8951
:101490002F89188D91110CC0803829F48091910109
:1014A0008093F10002C01092F1001092F10047C148
:1014B000422F50E0512B913051F4811140C1413005
:1014C000510509F03CC1809191018D7F0BC0933093
:1014D00061F4811134C14130510509F030C180916E
:1014E00091018260809391012AC1953041F48091ED
:1014F000E80080FFFCCF20682093E30020C19630F5
:1015000009F05FC0EB8CFC8C1092E90010928D0109
:1015100010928C01123091F510928B0110928A0179
:101520000E94260999E0BE016F5F7F4FDB01E92F22
:101530001D92EA95E9F799831A8391E09E8390EAD8
:1015400098879AEF998720918C0130918D01275FC0
:101550003F4F3C832B838D831092E90010928D01C5
:1015600010928C01F0928B01E0928A0149E050E0E8
:1015700080E00E948A080E942609E1C0F0928B0157
:10158000E0928A010E944616DC011296ED90FC90D2
:101590001397E114F10409F4C0C0D701ED91FC9157
:1015A0000480F581E02DBE016B5E7F4FC701099578
:1015B000009719F00CF0C3C0C6C0F701E084F184B5
:1015C000E8CF973009F4BFC0983021F481E08093D0
:1015D000F100B5C0993009F0B2C0837009F0B3C012
:1015E000E3E3F1E081E021E036E39081992361F0CB
:1015F0008093E9002093EB0091919093EC0030935D
:10160000ED008F5F873089F78EE78093EA001092B4
:10161000EA008F898093AE0192C08B8D9C8D1092D1
:10162000E90010928D0110928C0190938B018093B0
:101630008A01898D811156C08E899D89913A59F40C
:10164000813209F080C047E050E069E071E080E05D
:101650000E948A0874C0913209F075C0833289F4FF
:10166000888D90E0982F88272F89822BA0E0B0E00A
:101670008093050190930601A0930701B0930801A0
:101680005EC0803269F48091E80082FFFCCF67E0A1
:1016900089E091E00E94B1088BEF8093E80006C0DA
:1016A000823209F04CC08F898093100180918F01A4
:1016B000882319F0EEEFFAE002C0E0E0F8E0809154
:1016C000090190910A01A0910B01B0910C01803B9E
:1016D0009440A105B10509F088C08091100180FFF8
:1016E000A0C083C00E944616DC0112960D911C9189
:1016F00013970115110539F1D801ED91FC91019075
:10170000F081E02DBE016B5E7F4FC801099581110C
:1017100016C0F80100851185ECCF1130C1F01330EF
:1017200091F48F89882309F455C08230E9F440E8A8
:1017300060E189E19EE00E944D08882321F08EEF50
:101740008093E80087C081E28093EB0083C08B8D9B
:101750009C8D089711F41093890180918901811162
:1017600036C06AE27EE038C0813029F440E86BE0A0
:101770008DE09EE0E0CF833031F70E944616DC0119
:101780001296ED90FC9013978E010F5F1F4F68012A
:10179000E114F10479F0D701ED91FC910680F78115
:1017A000E02DB801C7010995080F111DF701E0846C
:1017B000F184EECFD8011C92F60101900020E9F7E8
:1017C0003197BF016C197D0940E0C601B4CF6CE3CD
:1017D0007EE002C069E07EE06115710509F4B3CFD7
:1017E000FB01449150E080E833CF0FB6F894A89500
:1017F00080916000886180936000109260000FBE4D
:10180000A895EE3F2AE0F20739F08091FE0A909108
:10181000FF0A9183808393CF1092FF0A1092FE0AF1
:101820008ECFEE3F8AE0F80731F08081918190936E
:10183000FF0A8093FE0A87E797E7918380839BE006
:1018400088E10FB6F894A895809360000FBE90933E
:10185000600075CF6C960FB6F894DEBF0FBECDBF9B
:10186000DF91CF91FF91EF91BF91AF919F918F91B8
:101870007F916F915F914F913F912F911F910F91A8
:10188000FF90EF90DF90CF900F900FBE0F901F90C2
:1018900018956115710579F0FB0101900020E9F7B9
:1018A0003197AF01461B570BDC01ED91FC91028093
:1018B000F381E02D099480E090E00895362F90E0C8
:1018C000FC01E855F24F4491FC01E756F04F24919A
:1018D000FC01EA53F04F8491882309F451C044235A
:1018E000E1F150E0FA013197EF30F105B0F5EA5A35
:1018F000FF4F0C944821909180009F7707C09091F2
:1019000080009F7D03C090918000977F909380001E
:1019100024C094B59F7702C094B59F7D94BD1DC02F
:10192000909190009F7707C0909190009F7D03C099
:1019300090919000977F909390000FC09091C0007D
:101940009F7703C09091C0009F7D9093C00005C019
:101950009091C200977F9093C200E82FF0E0EE0FC5
:10196000FF1FE854F04FA591B4918FB7F894EC9114
:10197000311103C020952E2301C02E2B2C938FBF35
:101980000895CF93DF9390E0FC01E756F04F249148
:10199000FC01EA53F04F8491882361F190E0880FB5
:1019A000991FFC01E250F14FC591D491FC01E8541C
:1019B000F04FA591B491611109C09FB7F894888147
:1019C000209582238883EC912E230BC0623061F432
:1019D0009FB7F8943881822F809583238883EC9178
:1019E0002E2B2C939FBF06C08FB7F894E8812E2B27
:1019F00028838FBFDF91CF9108951F93CF93DF93FB
:101A0000182FEB0161E00E94C10C209711F460E0F7
:101A100004C0CF3FD10539F461E0812FDF91CF9130
:101A20001F910C945E0CE12FF0E0E855F24FE49129
:101A30004E2F50E0FA013197EF30F10508F06CC0FD
:101A4000EB59FF4F0C94482184B5806884BDC7BD15
:101A500068C084B5806284BDC8BD63C080918000C9
:101A6000806880938000D0938900C093880059C01B
:101A700080918000806280938000D0938B00C0931F
:101A80008A004FC080918000886080938000D0934E
:101A90008D00C0938C0045C0809190008068809339
:101AA0009000D0939900C09398003BC08091900023
:101AB000806280939000D0939B00C0939A0031C0C5
:101AC00080919000886080939000D0939D00C09397
:101AD0009C0027C08091C00080688093C0008091E6
:101AE000C0008F7B8093C000C093CF001AC080914C
:101AF000C00080628093C000C093D00012C080916B
:101B0000C20088608093C2008091C2008B7F809366
:101B1000C200C093D20005C0C038D1050CF07CCF04
:101B200076CFDF91CF911F9108953FB7F8948091C0
:101B3000850190918601A0918701B091880126B519
:101B4000A89B05C02F3F19F00196A11DB11D3FBFF5
:101B5000BA2FA92F982F8827820F911DA11DB11D83
:101B6000BC01CD0142E0660F771F881F991F4A957F
:101B7000D1F708958F929F92AF92BF92CF92DF924A
:101B8000EF92FF926B017C010E94950D4B015C016D
:101B9000C114D104E104F104F1F00E94950DDC01BF
:101BA000CB0188199909AA09BB09883E9340A10570
:101BB000B10570F321E0C21AD108E108F10888EEFE
:101BC000880E83E0981EA11CB11CC114D104E1044D
:101BD000F10419F7DDCFFF90EF90DF90CF90BF9029
:101BE000AF909F908F9008958F929F92AF92BF92E7
:101BF000CF92DF92EF92FF920F931F93CF93DF93D9
:101C00005C016B018A0180911001882309F45EC098
:101C10008091AE01882309F459C08091900180FF22
:101C200005C08091E00082608093E000E8018AEFC7
:101C3000F82E93E0E92E2FE3822E3AE3932E20979D
:101C400009F43DC08FB7F894E092E9009091E80064
:101C500095FF06C09091F200282D291B922F01C0FC
:101C600090E08FBF91110AC0FA94FF2079F161E0F2
:101C700070E080E090E00E94BA0DE1CF292F30E0C3
:101C8000C217D3070CF49C2F8FB7F894E092E900A9
:101C90002091E80025FF11C0292F30E0C21BD30B93
:101CA000F601915020F041914093F100FACFC20E1D
:101CB000D31E9091E80095FF13C08FBFC0CF5D98F1
:101CC00084E680938E011016110644F081E090E0C6
:101CD000F5019383828380E090E005C0C80103C0D2
:101CE0009092E800EACFDF91CF911F910F91FF9082
:101CF000EF90DF90CF90BF90AF909F908F9008951E
:101D00001F920F920FB60F9211242F933F938F9330
:101D10009F93AF93BF938091990190919A01A09165
:101D20009B01B0919C013091840123E0230F2D375A
:101D300020F40196A11DB11D05C026E8230F0296CF
:101D4000A11DB11D209384018093990190939A0164
:101D5000A0939B01B0939C01809185019091860195
:101D6000A0918701B09188010196A11DB11D8093BA
:101D7000850190938601A0938701B0938801BF915C
:101D8000AF919F918F913F912F910F900FBE0F9028
:101D90001F9018958FB12CB193B130E020953095FC
:101DA00020743327A90123E0559547952A95E1F73B
:101DB000292F30E0209530952071332735952795D0
:101DC00035952795242B8095807F822B0895E0916F
:101DD0009701F0919801908180919601892B8083E1
:101DE000E0919401F091950190818091930180950B
:101DF00089238083E0919701F091980190818091EF
:101E000096018095892380830895E0919401F09153
:101E10009501908180919301892B8083E0919701B6
:101E2000F09198019081809196018095892380831B
:101E300008958EBD00000DB407FEFDCF8EB5089548
:101E4000CF92DF92EF92FF920F931F93CF936C018B
:101E500000E810E0C0E0E12CF12C0E94E70E80E1E8
:101E60000E94190F82E00E94190F8C2F806B0E9434
:101E7000190F0E94050FF601EE0DFF1D80818EBD2A
:101E800097012F5F3F4F7901201731074CF4F6017E
:101E9000E20FF31F80810DB407FEFDCF8EBDF1CFA1
:101EA0000DB407FEFDCFCF5F00581F4FC830A9F615
:101EB000CF911F910F91FF90EF90DF90CF900895F9
:101EC000CF92DF92EF92FF920F931F93CF93E82F61
:101ED000F0E0EB51F04FC491E62FF0E0603330F4C6
:101EE000E858F24FE4910E2F10E006C0EE0FFF1FEE
:101EF000E858F34F059114916801E12CF12C60E052
:101F000074E284EF90E0A70196010E940924BA01CF
:101F1000A90141505109610971094115510581E03B
:101F20006807710580F060E970ED83E090E0A7013B
:101F300096010E940924BA01A90141505109610981
:101F4000710983E001C081E0C130C9F0C33031F5CF
:101F500090919100987F892B8093910050939900E4
:101F600040939800109383010093820181E0809355
:101F70008101809171008260809371000FC0909107
:101F80008100987F892B8093810050938900409332
:101F9000880080916F00826080936F00CF911F91C5
:101FA0000F91FF90EF90DF90CF9008951F920F92C6
:101FB0000FB60F9211242F933F938F939F93AF935C
:101FC000BF93EF93FF9380917A01882309F44DC06A
:101FD0008091760190917701A0917801B09179017B
:101FE000892B8A2B8B2B51F18091B201E091B301A7
:101FF000F091B4019081892780838091760190913E
:102000007701A0917801B0917901181619061A0686
:102010001B06A4F58091760190917701A09178013B
:10202000B09179010197A109B1098093760190934C
:102030007701A0937801B093790120C010927A01C2
:1020400080916F008D7F80936F009091B201E0913D
:10205000B301F091B4018081282F30E0892F90E006
:10206000809590958223932308C08091B201E091DE
:10207000B301F091B401908189278083FF91EF91A2
:10208000BF91AF919F918F913F912F910F900FBE74
:102090000F901F901895E82FF0E0EB51F04FE4916E
:1020A000E13019F0E33069F0089580916F008D7F81
:1020B00080936F009091B201E091B301F091B4016F
:1020C00008C0109281019091AF01E091B001F091B0
:1020D000B1018081282F30E0892F90E08095909584
:1020E00082239323808308951F920F920FB60F923D
:1020F00011242F933F934F935F936F937F938F930D
:102100009F93AF93BF93EF93FF93809181018823B7
:1021100049F08091AF01E091B001F091B10190815F
:102120008927808380919201882309F493C080914C
:102130007D0190917E01A0917F01B0918001892B5A
:102140008A2B8B2B09F486C080917D0190917E01B2
:10215000A0917F01B09180010197A109B1098093FD
:102160007D0190937E01A0937F01B0938001892B24
:102170008A2B8B2B09F06EC0E0917B01F0917C01E2
:10218000BF016F5F7F4F70937C0160937B0144912F
:10219000942F907F842F8F70903819F40E944B10E9
:1021A000EBCF903981F43296F0937C01E0937B0180
:1021B000FB0164919091B5018917F0F667FDDCCFC2
:1021C0000E94600FD9CF903E29F410927C011092AA
:1021D0007B01D2CF903F19F4109292013BC097FD42
:1021E000CBCF3296F0937C01E0937B01FB012491ED
:1021F00030E0342BA0918201B09183010E945D24D4
:102200006C507E4F8F4F9F4F28EE33E040E050E000
:102210000E943B2420937D0130937E0140937F01F7
:102220005093800180917D0190917E01A0917F016A
:10223000B0918001892B8A2B8B2B61F481E090E097
:10224000A0E0B0E080937D0190937E01A0937F0198
:10225000B0938001FF91EF91BF91AF919F918F91CA
:102260007F916F915F914F913F912F910F900FBE92
:102270000F901F9018956038710518F5403451057E
:1022800000F5A42FA695A695A695B0E04770552712
:10229000B695BA2FAA27B795A7956A0F7B1FFC01A1
:1022A000E60FF71F81E090E001C0880F4A95EAF73A
:1022B000222319F09489892B03C08095948989235E
:1022C000848B08952F923F924F925F926F927F92EC
:1022D0008F929F92AF92BF92CF92DF92EF92FF9236
:1022E0000F931F93CF93DF93CDB7DEB72A970FB627
:1022F000F894DEBF0FBECDBF6A3091F4FC01E85EFA
:10230000FB4F408132972081318158E0459F200D5D
:10231000311D112431832083329711821082C1C074
:102320006D3009F4BEC09A878987885E9B4F9C8375
:102330008B83DC012C90E985FA85EA5EFB4F608097
:102340007180E985FA85EC5EFB4FFA83E9830081B1
:10235000118100381105D4F0AB81BC812C91422F42
:1023600050E0E981FA8180819181F6E02F9F800D14
:10237000911D1124A981BA818D939C93E985FA85D9
:10238000E75EFB4F208121115EC08BC0B0E46B166D
:10239000710414F7C801E5E02E9E800D911D1124F3
:1023A00018161906CCF6422C512CC301F8E02F9ECA
:1023B000800D911D11241816190674F655E0659FBD
:1023C000900111243F832E83E12CF12C85E0E81647
:1023D000F10441F0EE81FF81EE0DFF1DE852F84F50
:1023E000349001C0312C630138E0932D91709D83AE
:1023F0004801882D801B8215B0F456018A2D8C1956
:10240000821568F42D81A501B40189859A853887E4
:102410000E943B11AFEFAA1ABA0A3885EFCFBFEF7F
:102420008B1A9B0AE6CF36943150C40CD51C31115F
:10243000DCCFEFEFEE1AFE0A040D151DF6E0EF16E5
:10244000F10421F689CF6AEF64039001659F300D96
:10245000112420583F4F281739071CF5A985BA8544
:10246000ED91FC9111970190F081E02D6AE0CD0192
:102470002A960FB6F894DEBF0FBECDBFDF91CF9185
:102480001F910F91FF90EF90DF90CF90BF90AF9092
:102490009F908F907F906F905F904F903F902F9084
:1024A00009942A960FB6F894DEBF0FBECDBFDF9118
:1024B000CF911F910F91FF90EF90DF90CF90BF9041
:1024C000AF909F908F907F906F905F904F903F90D4
:1024D0002F9008958F929F92AF92BF92CF92DF92EA
:1024E000EF920F93CF93DF93C0E0D0E082E3C82E4A
:1024F000D12C9EE1A92EB12C26E3822E912C6EE1E7
:1025000070E080E090E00E94BA0D0E94D714EE24A3
:10251000E39400E328E648E655E061E070E08EE0F1
:1025200090E00E946D13CE010196B6010E94342105
:10253000EC01499774F4B0927A06A09279069092D1
:102540007C0680927B0661E571E085E692E00E9460
:10255000490C89E792E00E94200F0E94CA0E83FD79
:1025600004C00E94CA0E82FFCACFDF91CF910F91A3
:10257000EF90DF90CF90BF90AF909F908F90089595
:102580008F929F92AF92BF92CF92DF92EF92FF9283
:102590000F931F93CF93DF93EC018F3091056CF471
:1025A00065E070E00E9434216F5F7F4F072E000CC2
:1025B000880B990B0E947E2204C060E070E080E8E6
:1025C00090E4609301017093020180930301909362
:1025D000040181E08093000180932701C130D1057F
:1025E00061F483E0809323010E94D714EE24E394E6
:1025F00000E320E648E253E008C00E94D714EE242E
:10260000E39400E320E648EE50E06AE070E081E108
:1026100090E00E946D1389E792E00E94200F60ED28
:1026200077E080E090E00E94BA0DC09324012AE098
:102630002C9FC0012D9F900D112490932601809313
:10264000250188E190E090939E0180939D01C6E072
:10265000D2E0812C912CA12C83E4B82E9AE2C92ED1
:10266000D12CE12CF12C0EE110E088829982AA8213
:10267000BB820E94F323A70196010E940924665F92
:102680007F4F8F4F9F4F0E947E226C837D838E836E
:102690009F838091010190910201A0910301B0916B
:1026A000040188879987AA87BB871D870C871E86A8
:1026B000639682E0C536D807C1F681E080931402A4
:1026C000DF91CF911F910F91FF90EF90DF90CF900E
:1026D000BF90AF909F908F9008952F923F924F920E
:1026E0005F926F927F928F929F92AF92BF92CF92A2
:1026F000DF92EF92FF920F931F93CF93DF93CDB7AB
:10270000DEB728970FB6F894DEBF0FBECDBF222EDE
:10271000312C9C01220D331D37FD30C180389105CD
:102720000CF02CC19B01200F311D37FD27C16034F7
:1027300071050CF023C1DB0177FF04C0AA27BB277A
:10274000A61BB70BA770BB279B0177FF02C0295FB1
:102750003F4F13E0359527951A95E1F777FF08C0AD
:102760002150310968E070E05B01AA1ABB0AD5016B
:10277000E02FE695E695E695CE2ED12C077019F060
:102780000FEFC01AD00AB9017695762F6627779594
:102790006795680F791F5601A20EB31EBC82AB82EB
:1027A000412C512CF8E0CF2ED12C86010A1B1B0B9B
:1027B0001A830983AB80BC802A153B0509F4DEC06F
:1027C0002830310509F4DAC02F3F1FEF31070CF430
:1027D000CAC03B01E0E86E0E711C8B0107501D4F13
:1027E0001E830D834C0100E010E0021513050CF070
:1027F000BAC0E0E88E16910409F4B5C097FCA8C0F1
:102800002F3FFFEF3F0709F4B5C0F801E40DF51DB8
:10281000CD80DE80C618D708AA24A394E40FF51F44
:10282000EA1013C0E491C60ED71EF0E05F010A2E35
:1028300002C0AA0CBB1C0A94E2F7B886AF82F6016C
:10284000B080EF81F885EB292BC0E11017C0E4912F
:10285000C60ED71EF0E00A2E02C0EE0FFF1F0A942C
:10286000E2F75F01A094B094B886AF82F601A08031
:10287000B12CEF81F885AE22BF2213C0E491C60EC1
:10288000D71EF0E05F010A2E02C0AA0CBB1C0A94FE
:10289000E2F7B886AF82F601B080EF81F885EB25CC
:1028A0005F01F601A082109709F452C0273031056C
:1028B00009F44EC0F801E40DF51DAA24A394EA1012
:1028C00011C0E40FF51FE491CE2ED12C56010980E2
:1028D00002C0B594A7940A94E2F7ED81FE81D080FE
:1028E000AD2835C0CD80DE80C618D708E40FF51FAF
:1028F000E11018C0E491C60CD71CAE2EB12C098093
:1029000002C0B594A7940A94E2F7F501E095F0951A
:10291000F887EF83F601A080B12CEF81F885AE2215
:10292000BF2214C0E491C60CD71CAE2EB12CF50109
:10293000098002C0F595E7950A94E2F7F887EF83DE
:10294000F601B080EF81F885EB255F01F601A082EA
:102950000F5F1F4FED81FE813196FE83ED83FFEF08
:102960008F1A9F0A42CF2F5F3F4F420C531C605873
:102970007F4F20CF109709F09DCFEACF28960FB652
:10298000F894DEBF0FBECDBFDF91CF911F910F91A5
:10299000FF90EF90DF90CF90BF90AF909F908F907F
:1029A0007F906F905F904F903F902F90089520E020
:1029B00089E792E0B22FB111BFEFFC010024B1937F
:1029C000B193B193B1930394D1F70895CF93DF936B
:1029D0009091B501923009F46EC0C82F292F30E0D4
:1029E000F901EB51F04FD491F901E557F94F80838C
:1029F0009F5F9093B50161E00E94C10CD13019F046
:102A0000D33039F158C0109280001092810080912B
:102A10008100886080938100809181008160809333
:102A200081008C2F90E0FC01EA53F04FE491F0E03C
:102A3000EE0FFF1FE854F04F259134913093B4010D
:102A40002093B301FC01E756F04F84918093B201CB
:102A500032C0109290001092910080919100886095
:102A600080939100809191008160809391008C2FE0
:102A700090E0FC01EA53F04FE491F0E0EE0FFF1F0D
:102A8000E854F04F259134913093B1012093B00177
:102A9000FC01E756F04F84918093AF018091B5011E
:102AA000882321F06CE380E00E94600F80E0DF91DA
:102AB000CF910C944B10DF91CF9108955F926F925C
:102AC0007F928F929F92AF92BF92CF92DF92EF92BE
:102AD000FF920F931F93CF93DF93EC018B01CB01F8
:102AE0008C1B9D0B97FF03C09195819591095524EF
:102AF0005394079754F0512C0C171D076CF07E016E
:102B00008EE390E0C7E3D0E00DC0C8010EE310E013
:102B100037E3E32EF12C06C078018E0187E390E0C5
:102B2000CEE3D0E038016E187F085C01AC1ABD0A14
:102B3000B7FE03C0B194A194B108630177FE03C04E
:102B40002FEFC21AD20AD594C794C817D90714F028
:102B50008FEF01C081E0882E880F99080E151F05A0
:102B6000C4F020E0552019F0A701BE0102C0AE015B
:102B7000B70185E692E00E943B11CA18DB08D7FE38
:102B800004C0C80DD91DC60CD71C8FEFE81AF80A6F
:102B9000E5CFDF91CF911F910F91FF90EF90DF90E4
:102BA000CF90BF90AF909F908F907F906F905F90ED
:102BB00008958F929F92AF92BF920F931F93CF93DE
:102BC000DF93CDB7DEB7A1970FB6F894DEBF0FBE87
:102BD000CDBF19A2423008F44AE08E010F5D1F4FAD
:102BE000842E912CA12CB12CA50194010E943B2490
:102BF000E62FB901CA0101501109EA3014F4E05D71
:102C000001C0E95CD801EC93232B242B252B61F721
:102C1000B80185E692E00E94490CA1960FB6F8949F
:102C2000DEBF0FBECDBFDF91CF911F910F91BF903F
:102C3000AF909F908F900895FC018091AE0181111B
:102C400003C08FEF9FEF08959FB7F89482E08093C1
:102C5000E9002091F20030E01216130614F421E08E
:102C600030E02115310559F0289884E68093AD01B4
:102C70008091F10080838091F200882319F09FBF3A
:102C8000C90108958BE68093E800F9CF809183060F
:102C900081110DC082E080937F0684E080938006DE
:102CA000109282061092810681E0809383068FE75E
:102CB00096E00895789484B5826084BD84B581607F
:102CC00084BD85B5826085BD85B5816085BD8091F7
:102CD0006E00816080936E0010928100809181006F
:102CE0008260809381008091810081608093810067
:102CF000809180008160809380008091910082604B
:102D000080939100809191008160809391008091E7
:102D100090008160809390008091C10084608093D6
:102D2000C1008091C10082608093C1008091C10088
:102D300081608093C1008091C30081608093C30053
:102D40008091C00082608093C0008091C200816049
:102D50008093C20080917A00846080937A00809191
:102D60007A00826080937A0080917A0081608093FB
:102D70007A0080917A00806880937A001092AE0188
:102D800010929101109290018091D7008160809300
:102D9000D70080EA8093D80089B5806189BD89B564
:102DA000826089BD09B400FEFDCF61E070E080E083
:102DB00090E00E94BA0D8091D8008F7C8061809352
:102DC000D8008091E000807F8093E0008091E10056
:102DD0008E7E8093E1008DE08093E200559A209AE8
:102DE000EEEFFFE7859194918B3F9C4D19F481E0C4
:102DF00080938F016EE571E086EB91E00E94490CB3
:102E0000CFB7F8948091A001811127C0E7EDFFE0D2
:102E10008491EAEAFFE09491E82FF0E0EE0FFF1FC3
:102E2000E250F14FA591B491EC91E92321F461E0D6
:102E300081E10E945E0C61E081E10E94C10C8CB5D1
:102E400080618CBD8CB580648CBD61E08FE00E9498
:102E5000C10C61E080E10E94C10C8091A0018F5FF4
:102E60008093A001CFBFC6E2DFE0FE0184912296ED
:102E700031966491882319F00E94C10CF6CF61E06D
:102E800086E00E945E0C61E070E080E090E00E94CD
:102E9000BA0D60E086E00E945E0C6AE070E080E0BF
:102EA00090E00E94BA0D61E086E00E945E0CE2EDC7
:102EB000FFE0E491F0E0EE0FFF1FE854F04F859142
:102EC00094919093980180939701E5EAFFE0E49153
:102ED000E0939601EAECFFE0E491F0E0EE0FFF1FD3
:102EE000E854F04F859194919093950180939401CB
:102EF000EDE9FFE0E491E09393018CB58C7F8CBD0C
:102F00008DB581608DBD0E94E70ECCE0DFE0FFE073
:102F1000C632DF0731F0FE0184910E94190F21961D
:102F2000F6CF0E94050F8091640081608093640059
:102F30008091640082608093640080916400806866
:102F40008093640080916400806480936400809129
:102F500065008160809365000E94CA0E87FF21C0D2
:102F60000E94E70E80E10E94190F82E00E94190F73
:102F70000E94050FC0E0D4E080E00E94190F219765
:102F8000D9F760E070E089E00E94FD0C60E070E03D
:102F90008AE00E94FD0C60E070E08BE00E94FD0C76
:102FA000FFCFCEEEDFEF18E1CC24CA94D12C812FD5
:102FB0008C1BB601681B710989E00E94FD0C6FEF44
:102FC00070E08AE00E94FD0C6FEF70E08BE00E94E1
:102FD000FD0C0E94D714EE24E39400E128E54EE4B2
:102FE0005EE0BE0184E190E00E946D1389E792E00B
:102FF0000E94200F6BE170E080E090E00E94BA0D2B
:10300000C03F31F46AEF70E080E090E00E94BA0DBA
:103010002196C931D10559F66EEE72E080E090E05C
:103020000E94BA0D6FEF70E089E00E94FD0C6FEF17
:1030300070E08AE00E94FD0C6FEF70E08BE00E9470
:10304000FD0C85E00E94E61483E00E94E6141092D5
:10305000920182E090E00E940124882369F080912F
:103060006400877F8093640080916500877F8093F0
:10307000650081E080939F010E946A1281E090E0E8
:103080000E94C0122FB7F8948091990190919A01F3
:10309000A0919B01B0919C012FBF8093A9019093B7
:1030A000AA01A093AB01B093AC01809164008E7F24
:1030B0008093640087EC80937C0080E280937B00A7
:1030C00062E070E080E090E00E94BA0D80917A00AA
:1030D000806480937A0080917A0086FDFCCFC09155
:1030E0007800D0917900C095D0958EE580937C00D2
:1030F00062E070E080E090E00E94BA0D80917A007A
:10310000806480937A0080917A0086FDFCCF0091E4
:103110007800109179000E94950D9B01AC012095DB
:10312000309540955095009510950C9FD0010D9FBE
:10313000B00D1C9FB00D11240E9428246B017C014E
:103140000E94950D6C0D7D1D8E1D9F1D61157105D5
:103150008105910511F00E94F8238091640081603F
:10316000809364008FB7F8944091990150919A012F
:1031700060919B0170919C018FBF8091A9019091FA
:10318000AA01A091AB01B091AC018196A11DB11D26
:1031900084179507A607B70708F0C4C78091A80150
:1031A000811108C01092A4011092A5011092A601ED
:1031B0001092A70100912C0110912D0110932B0169
:1031C00000932A01C0919D01D0919E01D093A3014B
:1031D000C093A2011092A8010E94CA0E87FF03C0EB
:1031E0008AE590E00DC00E94CA0E84FF03C08EE005
:1031F00091E006C00E94CA0E85FF07C084EB90E0F4
:10320000909329018093280108C00E94CA0E86FF6E
:1032100008C0109229011092280180912701809303
:10322000A8018091A801882339F1209128013091CB
:1032300029012A35310589F03CF4232BE9F4F80102
:10324000E80FF11DCF0114C0243B310569F02E3089
:10325000314091F4C80FD11D02C0C81BD109D093D1
:103260009E01C0939D0108C0D801A81BB109CD01E2
:1032700090932D0180932C0180919D0190919E014E
:103280008F9734F08EE290E090939E0180939D01A1
:1032900080919D0190919E010A9734F48AE090E01C
:1032A00090939E0180939D0180912C0190912D011E
:1032B0008937910534F088E790E090932D01809351
:1032C0002C0180912C0190912D0197FF04C0109248
:1032D0002D0110922C0180912C0190912D01081745
:1032E000190759F42091A2013091A30180919D0109
:1032F00090919E012817390709F16091270170E02C
:1033000080E090E00E947E222DEC3CEC4CE45EE3F9
:103310000E9433239B01AC016091A4017091A5012F
:103320008091A6019091A7010E9463216093A4015E
:103330007093A5018093A6019093A70120E030E04F
:1033400040E850E46091A4017091A5018091A6012C
:103350009091A7010E942E23181644F41092A40104
:103360001092A5011092A6011092A70134E1232E1C
:1033700032E0332E46E0C42E42E0D42EE601810135
:10338000E12CF12CD8018C91882309F44AC18C8559
:103390009D851816190624F401979D878C8741C1D5
:1033A000288539854A855B85688179818A819B81F9
:1033B0000E9462212B013C01688379838A839B836D
:1033C0002F85388949895A896C817D818E819F81B9
:1033D0000E9462214B015C016C837D838E839F83FD
:1033E00020E030E040E251E40E94CF2187FF08C096
:1033F00080E090E0A0E8BFEB8F87988BA98BBA8B19
:1034000020E030E044E552E4C501B4010E942E23DF
:10341000181644F480E090E0A0E8BFE38F87988B13
:10342000A98BBA8B20E030E040EC50ECC301B20134
:103430000E94CF2187FF6EC08091250190912601C7
:10344000181619060CF064C001979093260180931A
:1034500025010E94F32324E130E040E050E00E9487
:1034600009247D876C8780E090E0A0E0B3E4888346
:103470009983AA83BB830E94F3232AE230E040E0D1
:1034800050E00E940924665F7F4F8F4F9F4F0E943C
:103490007E226C837D838E839F8370902401672DB1
:1034A00070E080E090E00E947C2220E030E040EA82
:1034B00051E40E94D421288539854A855B850E9484
:1034C00063214B015C0120E030E040E850E40E94C1
:1034D000CF2187FD06C0812C912C20E8A22E20E46C
:1034E000B22E88869986AA86BB8694E0971508F046
:1034F00021C60E94F3232AE030E040E050E00E9421
:10350000092465307105810591050CF418C612C6B1
:10351000D8011C92A0909D01B0909E0180902C013A
:1035200090902D014C805D806E807F8068817981D4
:103530008A819B810E944622681579050CF471C02E
:10354000B8E08B0E911C861697060CF46AC0C30176
:10355000B2010E9446226A157B050CF462C0E8E0C5
:10356000AE0EB11CA616B7060CF45BC08091250107
:1035700090912601019790932601809325010E9446
:10358000F32324E130E040E050E00E9409247D87ED
:103590006C8780E090E0A0E0B3E488839983AA83FD
:1035A000BB830E94F3232AE230E040E050E00E9417
:1035B0000924665F7F4F8F4F9F4F0E947E226C834E
:1035C0007D838E839F836091240170E080E090E092
:1035D0000E947C2220E030E040EA51E40E94D421A5
:1035E000288539854A855B850E9463214B015C01F2
:1035F00020E030E040E850E40E94CF2187FFB2C5D0
:1036000088869986AA86BB86809123018150809303
:103610002301811106C00E946A1281E090E00E949D
:10362000C012D8018C91882319F0BFEFEB1AFB0A66
:103630000D5E1F4F6396E2E0C536DE0709F0A2CEAD
:10364000E114F10431F48091240190E001960E948C
:10365000C0128091A1018F5F883C19F08093A10175
:1036600077C01092A1010E94F3232AE030E040E0ED
:1036700050E00E94092463307105810591050CF02A
:103680004BC00E94F3234B015C0180E090E0A0E876
:10369000BFE380931B0190931C01A0931D01B09385
:1036A0001E0180E090E0A0ECBFE380931F019093A7
:1036B0002001A0932101B093220180E090E0A0E0DE
:1036C000B3E48093110190931201A0931301B0937E
:1036D00014010E94F3232CE230E040E050E00E940D
:1036E0000924665F7F4F8F4F9F4F0E947E22609319
:1036F0001501709316018093170190931801C5016D
:10370000B40122E030E040E050E00E9409246093E0
:10371000190181E080931A0195E0E916F104C4F4DF
:1037200080E090E0D1012C9121110BC023E1289F72
:10373000F001299FF00D1124EA5FFD4F81E086879B
:1037400007C00196B3E12B0E311C8530910551F76E
:1037500020911B0130911C0140911D0150911E01CF
:1037600060911101709112018091130190911401E7
:103770000E9462212B013C016093110170931201A0
:10378000809313019093140120911F013091200127
:103790004091210150912201609115017091160113
:1037A00080911701909118010E9462214B015C01E8
:1037B000609315017093160180931701909318017F
:1037C00020E030E040E051ECC301B2010E94CF2183
:1037D00087FD10921A0120E030E040E251E4C5017B
:1037E000B4010E94CF21181664F080E090E0A0ECB4
:1037F000BFEB80931F0190932001A0932101B09310
:10380000220120E030E048E352E4C501B4010E9407
:103810002E2387FD0CC080E090E0A0ECBFE38093F6
:103820001F0190932001A0932101B0932201809168
:103830001A01882309F488C0C0912C01D0912D0170
:10384000BE01685F7F4F072E000C880B990B0E940A
:103850007E229B01AC01C301B2010E94CF2187FFF0
:1038600073C020E030E040E051E4C301B2010E94A7
:1038700063212B013C01BE01DD0F880B990B0E94D7
:103880007E229B01AC01C301B2010E942E231816B7
:103890000CF05AC0C0919D01D0919E01BE01685F9D
:1038A0007F4F072E000C880B990B0E947E229B01F4
:1038B000AC01C501B4010E94CF2187FF45C020E0C3
:1038C00030E040E051E4C501B4010E9463214B01A6
:1038D0005C01BE01DD0F880B990B0E947E229B01CB
:1038E000AC01C501B4010E942E2318166CF580911D
:1038F0001901811114C0809123018F5F80932301EE
:1039000010921A0180E090E0A0E0B3E480931101EE
:1039100090931201A0931301B093140115C081304C
:1039200099F4809127018F5F8093270180E090E0D8
:10393000A0E0B3E48093110190931201A0931301CE
:10394000B093140110921A010E94D7142FB7F89463
:103950008091990190919A01A0919B01B0919C0155
:103960002FBF8093A9019093AA01A093AB01B093BC
:10397000AC0100E010E0C0E0D0E021E0AE01B80111
:1039800085E692E00E943B112196CA30D105A9F745
:103990000F5F1F4F0F37110571F793E0A92EB12C60
:1039A000C0E0D0E08091230190E0C817D9077CF4F3
:1039B000E12C08E028E041E95FE061E070E0C5014A
:1039C0000E946D1321969AE0A90EB11CEBCF00E086
:1039D00010E0C6E3D0E021E0AE01B80185E692E058
:1039E0000E943B112196C034D105A9F70F5F1F4FEC
:1039F0000F37110571F783E090E090937A0680937A
:103A00007906C7E3D0E0D0937C06C0937B066CE4D4
:103A100085E692E00E94621165E485E692E00E94EC
:103A2000621166E585E692E00E94621165E485E632
:103A300092E00E9462116CE485E692E00E946211BD
:103A400060E285E692E00E9462116091240170E0DC
:103A500080E090E04AE00E94D91562E070E082E0E8
:103A600090E00E945E158BE390E090937A0680933D
:103A70007906D0937C06C0937B066DE671E085E6FF
:103A800092E00E94490C8090250190902601092C1B
:103A9000000CAA08BB08B7FE14C0E0916502F091C3
:103AA00066020190F081E02D6DE285E692E00995D5
:103AB00066277727CB01681979098A099B094AE0AB
:103AC00003C04AE0C501B4010E94D9156AE370E061
:103AD0008AE390E00E945E1580912801909129016F
:103AE0008E30A1E09A0709F051C08090A401909017
:103AF000A501A090A601B090A70120E030E040E829
:103B00005FE3C501B4010E94CF2187FF0BC0609124
:103B10009D0170919E01EE24E39408E028E049E8BD
:103B20005FE008C120E030E040E050E4C501B401AE
:103B30000E94CF2187FF0BC060919D0170919E0173
:103B4000EE24E39408E028E041E85FE0F3C020E0E1
:103B500030E040E450E4C501B4010E94CF2187FD6C
:103B6000D6CF20E030E040E850E4C501B4010E9427
:103B7000CF2187FFFAC060919D0170919E01EE24D4
:103B8000E39408E028E049E75FE0D4C08A35910576
:103B900009F051C08090A4019090A501A090A601C9
:103BA000B090A70120E030E040E85FE3C501B40138
:103BB0000E94CF2187FF0BC060919D0170919E01F3
:103BC000EE24E39408E028E041E75FE0B3C020E0A2
:103BD00030E040E050E4C501B4010E94CF2187FFEE
:103BE0000BC060919D0170919E01EE24E39408E06A
:103BF00028E049E65FE09EC020E030E040E450E489
:103C0000C501B4010E94CF2187FDD6CF20E030E06E
:103C100040E850E4C501B4010E94CF2187FFA5C050
:103C200060919D0170919E01EE24E39408E028E0EC
:103C300041E65FE07FC0009709F047C08090A40193
:103C40009090A501A090A601B090A70120E030E0DF
:103C500040E85FE3C501B4010E94CF2187FF0BC09C
:103C600060919D0170919E01EE24E39408E028E0AC
:103C700049E55FE05FC020E030E040E050E4C5018E
:103C8000B4010E94CF2187FF0BC060919D0170910C
:103C90009E01EE24E39408E028E041E55FE04AC09D
:103CA00020E030E040E450E4C501B4010E94CF219F
:103CB00087FDD6CF20E030E040E850E4C501B401F4
:103CC0000E94CF2187FF51C0E0CF843B910509F0CE
:103CD0004CC08090A4019090A501A090A601B09046
:103CE000A70120E030E040E85FE3C501B4010E9495
:103CF000CF2187FF0BC060919D0170919E01EE2442
:103D0000E39408E028E049E45FE014C020E030E0FC
:103D100040E050E4C501B4010E94CF2187FF11C0EB
:103D200060919D0170919E01EE24E39408E028E0EB
:103D300041E45FE080912C0190912D010E946D1370
:103D400014C020E030E040E450E4C501B4010E941A
:103D5000CF2187FDD0CF20E030E040E850E4C5011E
:103D6000B4010E94CF2187FDDBCFF60184859585C4
:103D7000181619060CF47EC18685882309F47AC1C9
:103D800064817581868197810E9446224B015C0186
:103D9000D6016D917D918D919C910E94462221E0EA
:103DA000A40185E692E00E943B11F60164817581D1
:103DB000868197810E9446224B015C0120E030E021
:103DC00040E85FE3D6016D917D918D919C910E94B9
:103DD00063210E94462221E0A40185E692E00E9430
:103DE0003B1120E030E040E85FE3F601648175813B
:103DF000868197810E9463210E9446224B015C01CB
:103E0000D6016D917D918D919C910E94462221E079
:103E1000A40185E692E00E943B1120E030E040E8FA
:103E20005FE3F60164817581868197810E94632139
:103E30000E9446224B015C0120E030E040E85FE355
:103E4000D6016D917D918D919C910E9463210E947C
:103E5000462221E0A40185E692E00E943B1120E089
:103E600030E0A901F60164817581868197810E9405
:103E700063210E9446224B015C0120E030E040E0DB
:103E800050E4D6016D917D918D919C910E946321AA
:103E90000E94462221E0A40185E692E00E943B11A7
:103EA00020E030E040E85FE3F601648175818681BF
:103EB00097810E9463210E9446224B015C0120E011
:103EC00030E040E450E4D6016D917D918D919C915C
:103ED0000E9463210E94462221E0A40185E692E02F
:103EE0000E943B1120E030E040E85FE3F60164818E
:103EF0007581868197810E9462214B015C010E943D
:103F0000F32323E030E040E050E00E9409240E94C7
:103F10007E229B01AC01C501B4010E9463210E9475
:103F200046224B015C0120E030E040E850E4D6013D
:103F30006D917D918D919C910E9463210E944622FA
:103F400021E0A40185E692E00E943B1120E030E0F0
:103F500040E85FE3F60164817581868197810E9464
:103F600063214B015C010E94F32323E030E040E039
:103F700050E00E9409240E947E229B01AC01C501F1
:103F8000B4010E9462210E9446224B015C0120E0A4
:103F900030E040EA50E4D6016D917D918D919C9185
:103FA0000E9463210E94462221E0A40185E692E05E
:103FB0000E943B11F60184809580A680B7800E9404
:103FC000F32323E030E040E050E00E9409240E9407
:103FD0007E229B01AC01C501B4010E9463210E94B5
:103FE00046224B015C0120E030E040EC50E4D60179
:103FF0006D917D918D919C910E9463210E9446223A
:1040000021E0A40185E692E00E943B1120E030E02F
:1040100040E85FE3F60164817581868197810E94A3
:1040200063214B015C010E94F32323E030E040E078
:1040300050E00E9409240E947E229B01AC01C50130
:10404000B4010E9462210E9446224B015C0120E0E3
:1040500030E040EE50E4D6016D917D918D919C91C0
:104060000E9463210E94462221E0A40185E692E09D
:104070000E943B11B3E1CB0ED11CE5E6CE16E2E087
:10408000DE0609F072CE80911A01882309F446C039
:104090008091190181111FC0609115017091160165
:1040A00080911701909118010E9446224B015C01FA
:1040B000609111017091120180911301909114018E
:1040C0000E944622DC01CB01EE24E39408E028E0C4
:1040D00041E95FE020C0813009F5609115017091E0
:1040E000160180911701909118010E9446224B0100
:1040F0005C01609111017091120180911301909106
:1041000014010E944622DC01CB01EE24E39408E076
:1041100028E049E35FE0B4010E946D1389E792E073
:104120000E94200F80E090E0892B09F41BC80E94B8
:10413000000018C81F86188A198A1A8AEBC90E94BB
:10414000F32323E030E040E050E00E940924615076
:104150007109810991090E947E226F87788B898B72
:104160009A8BD8C9812C912C80E8A82E80E4B82E97
:1041700047CACF92DF92EF92FF920F931F93109254
:10418000B9011092B80188EE93E0A0E0B0E080930E
:10419000BA019093BB01A093BC01B093BD018DE324
:1041A00091E09093B7018093B6018FEF9FEF9093CA
:1041B000C3018093C20110926802109267028DE4DD
:1041C00091E090936602809365028CE380936B028A
:1041D00080E180936E0210926D0210926C02109238
:1041E000730210927402109275021092760210926D
:1041F000770210927A061092790610927C0610923D
:104200007B0681E080937D06E6E0F2E0C12CD12CB4
:10421000E12C83E4F82E00E010E020E032E440E0FE
:1042200050E060E87FE38AE090E0C082D182E282E1
:10423000F3820483158326833783408751876287FF
:1042400073879587848716861786108A118A128A43
:104250007396A2E0E536FA0741F71F910F91FF90A0
:10426000EF90DF90CF90089597FB072E16F40094FF
:1042700007D077FD09D00E944E2107FC05D03EF4FF
:10428000909581959F4F0895709561957F4F089502
:10429000EE0FFF1F0590F491E02D0994AA1BBB1BA4
:1042A00051E107C0AA1FBB1FA617B70710F0A61B36
:1042B000B70B881F991F5A95A9F780959095BC0157
:1042C000CD0108955058BB27AA270E947A210C944B
:1042D000F4220E94E62238F00E94ED2220F039F408
:1042E0009F3F19F426F40C94E3220EF4E095E7FBCB
:1042F0000C94DD22E92F0E94052358F3BA176207B8
:1043000073078407950720F079F4A6F50C9427230A
:104310000EF4E0950B2EBA2FA02D0B01B9019001E0
:104320000C01CA01A0011124FF27591B99F0593F24
:1043300050F4503E68F11A16F040A22F232F342F6C
:104340004427585FF3CF469537952795A795F040BA
:104350005395C9F77EF41F16BA0B620B730B840BCF
:10436000BAF09150A1F0FF0FBB1F661F771F881F87
:10437000C2F70EC0BA0F621F731F841F48F48795DF
:1043800077956795B795F7959E3F08F0B0CF9395D1
:10439000880F08F09927EE0F9795879508950E944A
:1043A000B92208F481E008950E94E8210C94F422D7
:1043B0000E94ED2258F00E94E62240F029F45F3F6F
:1043C00029F00C94DD2251110C9428230C94E32243
:1043D0000E94052368F39923B1F3552391F3951BAC
:1043E000550BBB27AA2762177307840738F09F5F16
:1043F0005F4F220F331F441FAA1FA9F335D00E2E83
:104400003AF0E0E832D091505040E695001CCAF7EF
:104410002BD0FE2F29D0660F771F881FBB1F2617B2
:1044200037074807AB07B0E809F0BB0B802DBF0189
:10443000FF2793585F4F3AF09E3F510578F00C9458
:10444000DD220C9428235F3FE4F3983ED4F3869555
:1044500077956795B795F7959F5FC9F7880F911D79
:104460009695879597F90895E1E0660F771F881F65
:10447000BB1F621773078407BA0720F0621B730B18
:10448000840BBA0BEE1F88F7E09508950E944D2229
:104490006894B1110C94282308950E940D2388F08C
:1044A0009F5798F0B92F9927B751B0F0E1F0660FF8
:1044B000771F881F991F1AF0BA95C9F714C0B13039
:1044C00091F00E942723B1E008950C942723672FD1
:1044D000782F8827B85F39F0B93FCCF38695779568
:1044E0006795B395D9F73EF4909580957095619551
:1044F0007F4F8F4F9F4F0895E89409C097FB3EF47C
:1045000090958095709561957F4F8F4F9F4F992320
:10451000A9F0F92F96E9BB279395F695879577959E
:104520006795B795F111F8CFFAF4BB0F11F460FF5E
:104530001BC06F5F7F4F8F4F9F4F16C0882311F0B6
:1045400096E911C0772321F09EE8872F762F05C0CA
:10455000662371F096E8862F70E060E02AF09A9565
:10456000660F771F881FDAF7880F9695879597F95A
:104570000895990F0008550FAA0BE0E8FEEF1616F4
:104580001706E807F907C0F012161306E407F50747
:1045900098F0621B730B840B950B39F40A2661F0BB
:1045A000232B242B252B21F408950A2609F4A1405E
:1045B000A6958FEF811D811D089597F99F6780E86B
:1045C00070E060E008959FEF80EC089500240A9465
:1045D0001616170618060906089500240A941216DE
:1045E0001306140605060895092E0394000C11F411
:1045F000882352F0BB0F40F4BF2B11F460FF04C0BE
:104600006F5F7F4F8F4F9F4F089557FD9058440F16
:10461000551F59F05F3F71F04795880F97FB991F21
:1046200061F09F3F79F087950895121613061406DE
:10463000551FF2CF4695F1DF08C01616170618066B
:10464000991FF1CF86957105610508940895E89446
:10465000BB2766277727CB0197F908950E94B922D7
:1046600008F48FEF08950E9446230C94F4220E94D0
:10467000E62238F00E94ED2220F0952311F00C94F0
:10468000DD220C94E32211240C9428230E9405239C
:1046900070F3959FC1F3950F50E0551F629FF00195
:1046A000729FBB27F00DB11D639FAA27F00DB11DAE
:1046B000AA1F649F6627B00DA11D661F829F222737
:1046C000B00DA11D621F739FB00DA11D621F839FBE
:1046D000A00D611D221F749F3327A00D611D231F94
:1046E000849F600D211D822F762F6A2F11249F57E2
:1046F00050409AF0F1F088234AF0EE0FFF1FBB1FE5
:10470000661F771F881F91505040A9F79E3F5105A3
:1047100080F00C94DD220C9428235F3FE4F3983E54
:10472000D4F3869577956795B795F795E7959F5F4D
:10473000C1F7FE2B880F911D9695879597F90895DF
:1047400081E090E0F8940C946C248F929F92AF9249
:10475000BF92CF92DF92EF92FF92CF93DF93EC0163
:10476000688179818A819B81611571058105910537
:1047700021F464E279ED8BE597E02DE133EF41E040
:1047800050E00E94092449015A019B01AC01A7EAAB
:10479000B1E40E9428246B017C01ACEEB4EFA501CA
:1047A00094010E943624DC01CB018C0D9D1DAE1DB1
:1047B000BF1DB7FF03C00197A109B0488883998343
:1047C000AA83BB83BC01CD019F77DF91CF91FF907E
:1047D000EF90DF90CF90BF90AF909F908F90089513
:1047E0000E94A52308958EE291E00E94A5230895DA
:1047F00060932E0170932F018093300190933101CB
:104800000895F999FECF92BD81BDF89A992780B598
:104810000895052E97FB1EF400940E94202457FD56
:1048200007D00E943B2407FC03D04EF40C942024B4
:1048300050954095309521953F4F4F4F5F4F0895CC
:1048400090958095709561957F4F8F4F9F4F0895FC
:104850000E945D24A59F900DB49F900DA49F800D94
:10486000911D11240895B7FF0C9428240E94282438
:10487000821B930B0895A1E21A2EAA1BBB1BFD01FC
:104880000DC0AA1FBB1FEE1FFF1FA217B307E4072F
:10489000F50720F0A21BB30BE40BF50B661F771F87
:1048A000881F991F1A9469F7609570958095909567
:1048B0009B01AC01BD01CF010895A29FB001B39F40
:1048C000C001A39F700D811D1124911DB29F700D19
:0C48D000811D1124911D0895F894FFCF64
:1048DC00010000803FFFFFFFFF00E100000000002F
:1048EC000000000043000000420000000000000037
:1048FC0000000003011400010E011400140001005B
:10490C00000000C1808100000000000000E908F4F4
:10491C000D0A097C095809FF08000000006211BE4D
:10492C000850726573732041206F72204200456EEF
:10493C00746572696E6720536574757000535041CD
:06494C00574E533A200013
:00000001FF
