:100000000C94AD190C94D5190C94D5190C94D519E0
:100010000C94D5190C94D5190C94D5190C94D519A8
:100020000C94D5190C94D5190C9459290C94CB29FE
:100030000C94D5190C94D5190C94D5190C94D51988
:100040000C94D5190C94D5190C94D5190C94D51978
:100050000C94D5190C94D5190C94D5190C94A6238D
:100060000C94D5190C94D5190C94D5190C94D51958
:100070000C94D5190C94D5190C94D5190C94D51948
:100080000C94F0230C94D5190C94D5190C94D51913
:100090000C94D5190C94D5190C94D5190C94D51928
:1000A0000C94D5190C94D5190C94D519DF22E222A1
:1000B000D122D522D922032303230323E622EA22D5
:1000C000EE22F422F8220323FE2205080303000394
:1000D00003030300030003030000001C18000000DA
:1000E000000000000000C0F8FCFEFEFFFFFFFEFE67
:1000F000FC7830000000000000000000000000005C
:10010000103EFFFFFFFFFFFFFFFFF7FBFD7C783096
:1001100000000000000000000000183C7EFFFFFF10
:10012000FF7F7F3F07030000000000000000000089
:10013000000000000000000000000080F0F8FCFC5F
:10014000FEFEFEFEFCF8F0200000000000000000B3
:100150003078FCFEFE7E0EFFFFFFFFFFFFFFFFFF7C
:10016000FF7F7D3E3E3C18000000000000001C7E2A
:10017000FEFEFFDF1F0F0F071F3F3F3F1F0E0E0644
:1001800000000000000000000000008080800000EF
:10019000E0F0F8F8FCFCFCF8F8F0E04000000000AB
:1001A000000000081CBEBFFFDFCFCF9FFFFFFFFF97
:1001B000FFFFBFFFFF7F7F7F3F3E1C080000000066
:1001C000070707070F0F0F0F070703030F1F3FFF57
:1001D000FE7E7C3C3C1C0C00000000000000000087
:1001E000000080F0F8FCFCFEFEFEFCFCF8F02000B5
:1001F0000000000000000000000090F8FCFEFFFF7F
:10020000FFFFFFFFFFFFFFF7FBFD7C7830000000E2
:1002100000000000000F0F0F07077FFFFFFFFFFF29
:10022000FFEF0000000000000000000000000000E0
:1002300000000000000000C0F8FCFEFEFFFFFFFF12
:10024000FEFC78300000000000000000000000000C
:10025000000000DFFFFFFFFFFFFFFFFFF7010000CF
:1002600000000000000000000030787CFEFEFFFF70
:10027000FF0F0F1F3F3F3F0703000000000000007B
:10028000000000000000000000000080F0F8FCFC0E
:10029000FEFEFEFEFCF8F0F0600000000000000032
:1002A0000010B8FCFEBF9FCFFFFFFFFFFFFFFFFF67
:1002B000FFFFBE1C0800000000003E7FFFFF7F3FE5
:1002C0001F1F0F0F07030101010101071F7F7F3F60
:1002D0003E1C1C0C0000000000000000000000801C
:1002E000808080E0F8F8FCFCFCFCF8F8F0E0E0C06E
:1002F0000080C0E0E0F0F0FCFEFEFFDFCFEFFFFF8C
:10030000FFFFFF9F3F7F7F7F7F3F3F1C080103036D
:10031000030303030707070707030301031F7FFF07
:10032000FFFEFCF8F07070200000000000000000EC
:100330000000000080F0FCFCFEFEFEFEFCFCF8F07D
:10034000F060000000000000C0E0F0F0F0F8FCFEFB
:10035000FFFFFFFFFF3F7F7F7F7F3F3E1C080000C6
:1003600000000000070F0F07070F0F0F7FFFFFFFB1
:10037000FFFFE0C0000000000000000000000000DF
:10038000000000E0F0F8F8FCFCFCFCFCFCFCF8F0E1
:10039000F0E0C000000000000000000000000000CD
:1003A000030F7FFFFFFFFFFFFF1F0F0F070300007B
:1003B00000000000000000000000000030FEFFFF11
:1003C0007F3F1F0F0300000000000000000000003E
:1003D00000607CFCF8F0C0F8FCFEFFFFFFFFFFFEB2
:1003E0009CC8E0E080000000008080000000000069
:1003F00003070F1F3F3F3F3F3F3F3F3F3F3F3F3DD3
:100400003C3C38383A023C013E000000000000004D
:1004100000000000000000000000000000000000DC
:10042000000000000007100000FFFEC0000070F890
:10043000FFFFFFFC700000C0FE8000000070FFFFA7
:10044000FF7800000000F0F800000070FFFF7F78E8
:1004500020000080F0FE00000078FFFFFF78200001
:100460000080F0FE00000070FFFFFF78200000F029
:10047000FCFE1E000078FFFFFF78200000FEFEE07B
:1004800000000078FFFFFF78300000FCFCC0000097
:100490000078FFFFFF78200000FEFC80000000785D
:1004A000FFFFFF78200000FCF88000000070FFFFD5
:1004B000FFF8200000FCF80000000070FFFFFF784C
:1004C000200000FCFFC000002078FFFFFFF8700054
:1004D00000F0FEF800000078FFFFFF78300000F029
:1004E000FCFC00000078FFFFFFF8300000C0F08047
:1004F00000000070FFFFFF78200000C0E000000057
:1005000000307F7F7E70000000F8FEF00000007871
:10051000FFFFFF78300000C0FCC000002078FFFF24
:10052000FF78300000C0F8F800002078FFFFFF7867
:10053000300000E0E0C0000000707F7F7F700000AE
:1005400000FEF08000000070FFFFFF78200000FE3A
:10055000FEF800000078FFFFFF78300000F0FCF0AC
:1005600000000070FFFFFF78200000F8FFF8000097
:100570000078FFFFFFF8200D20E0F8FCFCFCFEFEF9
:10058000FCFEFFFFFFFE07FFFFFFFFFFFFFFFFFF78
:10059000FFFFFF00FFFFFFFFFFFFFFFFFFFFFFFF6A
:1005A00000FFFFFFFFFFFFFFFFFFFFFFFF3C3800E3
:1005B0000000000080F8FE0FE3FB1B0B0B8BFBF32E
:1005C000F7F6F6F60606ECECECECECECECECECEC0E
:1005D000ECECECECEEE6F6F6F6F7F3FBFBCBCBFB44
:1005E000E30FFEF8801E332121339E00000080F8C7
:1005F000FF0FE0F8F9F9F9F9F9F9F9F1F3F3F3F389
:10060000F0F0FFFFFFFFFFFFFFFFFFFFFFFFFFFF18
:10061000FFFFFFFFFFFFFFFFFFFFFF7F7FFEE00FFA
:10062000FFF880060600000000000F3FF0C6070438
:1006300004070707070707070707070707FFFFFF65
:10064000FFFFFFFFFFFFFFFFFFFFFFFFFF070707A2
:100650000707078787070726860707C6F03F1F009B
:10066000808000000000000000030784C4E4E4E48C
:10067000E4E4E4E4E4C49C000FE7E7E7E7E7E7E746
:10068000E7E7E7C7870F1F0FC7E7E0ECE4E4E4E51F
:10069000E5E4C4040404070300C040C303110000E0
:1006A00000000000000000FFFFFFFFFF393939FFA5
:1006B000FFFF0FE0E0EFEF0FFFFF183879FFFFF7C4
:1006C00003E0E0EFEF0FFFF9F0F0FCFDFDFD0DECB6
:1006D000E0E0E00000012101000000000080C060B7
:1006E0002060C080000000000C0C007EFE803C3EBC
:1006F0001C1C1C1C1C0C0C0E0C0C0C0C0E1E1C1CB4
:100700001C1C3C3E80FE7E00000000C0E0E0C000FB
:10071000000000030300000E1B3166C680D060316C
:100720001B0E00003828380001471E3820202020EA
:10073000301010D0D0101090103020202020381E03
:100740000701000006060000010100000000000093
:100750000000002020000000000080C0E0F0F0F861
:10076000F8FCFCFCFCFCFCFCFCF8F8F0F0E0C080C1
:1007700000000000000000F0FCFFFFFFFFFFFFFF94
:10078000FFFFFFFFFFFFFFFFFFFFFFFFFFFFFFFF79
:10079000FFFCF0000000000F3FFFFFFFFFFFFFFF27
:1007A000FFFFFFFFFFFFFFFFFFFFFFFFFFFFFFFF59
:1007B000FF3F0F000000000000000103070F0F1FA4
:1007C0001F3F3F3F3F3F3F3F3F1F1F0F0F070301AB
:1007D0000000000000200855AA55AA55AA55AA55A0
:1007E000AA55AA55AA55AA55AA55AA55AA55AA5511
:1007F000AA55AA55AA55AA1008FCFE06FEFC003808
:100800007CEEC6C6EE7C3800000206FCFC06020048
:100810007CFED6D600CCDEF6662020FEFE18FEFE5C
:10082000007CFED6D6007EFEC0C000FCFE363E1C1C
:100830000000000000000000000000FCFE363E1C2E
:10084000007EFEC0C000FCFE36FEFC000206FCFC82
:100850000602000000000000000000FEFE0000FC98
:10086000FE06FEFC00FCFE360602387CEEC6C6EE36
:100870007C38000000000000000000CCDEF66600BE
:10088000387CEEC6C6EE7C38007EFEC0FE7E00FCE4
:10089000FE06FEFC00FEFEC6C67C384040FFFFFFA1
:1008A0000707E7E7676767676767E7E70707FFFF28
:1008B000E7E76767E7E707079F9F7F7FE7E77F7FB8
:1008C000E7E78787E7E79F9F9F9FFFFF0707E7E728
:1008D000676767676767E7E70707FFFFFFFFFFFFD8
:1008E00000007F7F6060606060607F7F0000FFFFCE
:1008F0007F7F9E9E616180806767E0E06767F8F8B0
:100900006161F9F96161E7E71F1FFFFF00007F7F69
:100910006060606060607F7F0000FFFFFFFFFFFF9F
:10092000060666669E9E6666E6E67E7E66667F7F55
:10093000181861619E9EFFFF6060F9F9E0E007070B
:100940006666E7E77E7E9F9F7E7EFFFFE6E61E1ED1
:100950001E1EFEFE1E1E9E9EE6E6FFFFFFFFFFFF21
:1009600080800606797998989F9F0000666600004F
:10097000E6E606068787FFFF9E9E7F7F1F1F06060F
:100980001E1E99991E1E79790000797901019E9E9B
:1009900098981F1F7E7E9F9F0101FFFFFFFFFFFFB3
:1009A0001F1F06067E7EF9F961611E1E6666FEFE49
:1009B000E1E160609999878761610606FEFE18187B
:1009C000FEFE9F9F787818180606F8F8F8F88181DF
:1009D0009F9F9E9E98989F9F7878FFFFFFFFFFFF45
:1009E00060606060606079797E7E60606666E7E77F
:1009F00099997878797961619E9E000099990606A7
:100A000067676767F8F806060000E1E16767E1E1FC
:100A100001010101E1E1E7E7FEFEFFFFFFFFFFFF4C
:100A20000000FEFE060606060606FEFE0000FFFFAC
:100A30008787FEFE98986060616100009F9F1E1E80
:100A4000868618189F9F606080806767E6E60707C4
:100A50006060F8F81F1F61611919FFFFFFFFFFFFBA
:100A6000E0E0E7E7E6E6E6E6E6E6E7E7E0E0FFFF08
:100A7000E1E1FFFFE1E1F8F8FEFEFEFEE7E7FEFE42
:100A8000FFFFFEFEE1E1E6E6E7E7F8F8FFFFF8F832
:100A9000E6E6E1E1F8F8FEFEF8F8FFFFFF60280067
:100AA000F0F89898F8F0000000F0F89898F8F00046
:100AB00000F0F89898F8F00000F0F818F8F818F836
:100AC000F00000F0F898B8B83000000000FEFE9882
:100AD00098F8F00000F8F880F8F800000080FEFEBA
:100AE000000078FCCE868686CEFC78000084969640
:100AF0009EFEF60000FEFE0676FEDC0000FEFE0016
:100B000000818101818100808000038D8D0F03E0D1
:100B1000E080010101E1E180800101000101E0E1EB
:100B200081000000E1E1818100000000808081817E
:100B30000101000000ECED8F87030000008181803F
:100B400080000000E1E1010101808080800001015E
:100B500001010080808181000001C1E1600101008C
:100B6000000F1F181F1F181F0F00001F1F00000776
:100B70000F1D1C00001F1F011F1FC0C0C0C0C7CF1A
:100B80001D1C00001F1F011F1F00000F1F191B1B32
:100B90000300C0C0001F1F011F1F00000F1F191BF3
:100BA0001B0300001F1F00007F7F19190F0F00009B
:100BB00000000F1F19191F0F00001F1F0600000063
:100BC0000000000000000000000000000000000025
:100BD0000000808080808080000000003F3F000097
:100BE000003E3F0300001E3F33333F1E00001E3E09
:100BF00033333F1F00001E3F33333F1E0000303EA3
:100C00001F0700303E1F070080808080000000002A
:100C100000000000000000000000000000000000D4
:100C200000000000000000000000000000000000C4
:100C300000007F7F016161733F1E00007C7E060023
:100C4000003C7E666E6E0C00003C7E66667E7C001C
:100C5000007C7E067E7E067E7C00003C7E666E6E9C
:100C60000C00007C7E06000065677F3D00000000F0
:100C70000000000000000000000000000000005E16
:100C80001800A854AA55AA050A000000AA55AA559A
:100C900080408055AA55AA000000A854AA550A050C
:100CA0000A05AA54A85000000055AA55AA050A052D
:100CB0000A050A14AA54A84000000040A854AA1427
:100CC0000A050A050A152A54A850A0000000AA55D2
:100CD000AA550000AA55AA5500000055AA55AA50C9
:100CE000A051AA552A150A000000AA55AA550201CA
:100CF0000255AA55AA000000AA55AA550A0502E500
:100D0000EAE5EAE5E0C08015AA05EAE0E80008E0C7
:100D1000E8E40A158AC5E0E0E0E5CA952A1488C02F
:100D2000E0E0E0E0E8C50A15C2E0E0E0EAE50A55E7
:100D300000E0EAE5EAE5E0C080152A552A00000057
:100D400000000000000000000000000000000000A3
:100D5000000000000000000000000000007F7F7F16
:100D6000003C7F7F670000003F7F7F60607F7F3FA8
:100D700000007F7F7F00007F7F7F00007F7F7F00FC
:100D8000007F7F7F00007F7F7F6E6E6E0000007FA0
:100D90007F7F003C7F7F670000000004081E212148
:100DA0001E22213F20223129273225251F0E0A3FEE
:100DB0000832231D011C26251D03211D033B25256B
:100DC0001B2325251F1A086E6A6A7A007E626262FA
:100DD000007E62627E007E12126C007E6A62620099
:100DE000644038FFFFFFFFFFFFFFFFFFFFFFFFFF34
:100DF0007F7F7FBF5FAF53ABD5A955BD7DFBF7E7C5
:100E0000CF9F3F7F7FFFFFFFFFFFFFFFFFFFFFFF42
:100E1000FFFFFFFF7F8354AA7FFFFFFEFDF3CFDFBD
:100E20009FBF3FAF4FAF57AB55A955A955AA54AA7D
:100E300055AA55AA55AA57AF57AA55AA55AA55ABB0
:100E4000DFFFFFFFFFFEFEFDFDFBF7EFDFAF5FAF54
:100E500057AB55AAD5EAF5FA7DBA7DFBFFFFFFFF38
:100E6000FFFFFFAA55AA55AA55AA55AA55AA55AAE1
:100E700055AA55AA55AA55AA55EA75FA7DFE7FBF0F
:100E80007FBF7FBF7FBF5FAF5DBB75FBF5FED5AAA0
:100E900055AA55AA55AA55AA55AA55AA55AB57AF52
:100EA00057AF57AA95AA95AA95AA95AA95AA95AAC1
:100EB00095AA95AA95AA95AA95AA95AA95AA95AA3A
:100EC00095AA95AA95AA95AA95AA95AA95AB95AB28
:100ED00095AA95AA95AA95AA95AA95AA95AA95AA1A
:100EE00095AA95FFFFFFFFFFFFFFFFFFFFFFFFFF3B
:100EF000FFFFFFFFFFFFFFFFFFFFFFFFFFFFFFFF02
:100F0000FFFFFFFFFFFFFFFFFFFFFFFFFFFFFFFFF1
:100F1000FFFFFFFFFFFFFFFFFFFFFFFFFFFFFFFFE1
:100F2000FFFFFFFFFFFFFFFFFFFFFFFFFFFFFFFFD1
:100F3000FFFFFFFFFFFFFFFFFFFFFFFFFFFFFFFFC1
:100F4000FFFFFFFFFFFFFFFFFFFFFFFFFFFFFFFFB1
:100F5000FFFFFFFFFFFFFFFFFFFFFFFFFFFFFFFFA1
:100F6000FFFFFF0F0F0F0F0F0F0F0F0F0F0F0F0FC1
:100F70000F0F0F0F0F0F0F0F0F0F0F0F0F0F0F0F81
:100F80000F0F0F0F0F0F0F0F0F0F0F0F0F0F0F0F71
:100F90000F0F0F0F0F0F0F0F0F0F0F0F0F0F0F0F61
:100FA0000F0F0F7FFFFFFFFFFFFFFFFFFFFFFFFFA1
:100FB000FFFFFFFFFF7F7FBF9FCFF7F7F7F7EF1F21
:100FC000FFFFFFFFFFFFFFFFFFFFFFFFFFFF7FBFF1
:100FD0003FDFBF7FFFFFFFFFFFFFFFFFFFFFFFFFC1
:100FE000FFFFFFFFFEFEFDFBFBFB7BBB7BBB5BABA9
:100FF0005BA955A954AAD5FA7FFFFFFFFFFFFFFCAD
:1010000051A74FAF4FAF4FAF4FAF57A753A855AAF8
:1010100055AA75FF7EFE79A75FBF7FFFFFFF7FBFE9
:101020005F9F4FAB57AB55AA55AA55AA55AA55AACB
:1010300055AA55AA57AB55AA55AA55AB57AB57AFAA
:1010400057AA55AA55AA55AA55AA55AA55AA55AAA6
:1010500055AA55AA55AA55AA55AA55AA54AA55AA99
:1010600055AA55AA95AA95AA95AA95AA95AA95AA08
:1010700095AA95AA95AA95AA95AA95AA95AA95AA78
:1010800095AA95AA95AA95AA95AA95AA95AA95AA68
:1010900095AA95AA95AA95AA95AA95AA95AA95AA58
:1010A00095AA95FFFFFFFFFFFFFFFFFFFFFFFFFF79
:1010B000FFFFFFFFFFFFFFFFFFFFFFFFFFFFFFFF40
:1010C000FFFFFFFFFFFFFFFFFFFFFFFFFFFFFFFF30
:1010D000FFFFFFFFFFFFFFFFFFFFFFFFFFFFFFFF20
:1010E000FFFFFFFFFFFFFFFFFFFFFFFFFFFFFFFF10
:1010F000FFFFFFFFFFFFFFFFFFFFFFFFFFFFFFFF00
:10110000FFFFFFFFFFFFFFFFFFFFFFFFFFFFFFFFEF
:10111000FFFFFFFFFFFFFFFFFFFFFFFFFFFFFFFFDF
:10112000FFFFFF0F0F0F0F0F0F0F0F0F0F0F0F0FFF
:101130000F0F0F0F0F0F0F0F0F0F0F0F0F0F0F0FBF
:101140000F0F0F0F0F0F0F0F0F0F0F0F0F0F0F0FAF
:101150000F0F0F0F0F0F0F0F0F0F0F0F0F0F0F0F9F
:101160000F0F0FFFFFFFFFFFFFFFFFFFFFFFFFFF5F
:10117000FFFFFFFFFFFFFFFFFFFFFFFFFFFFFFFF7F
:10118000FFFFFFFFFFFFFFFFFFFFFFFFFFFFFFFF6F
:10119000FFFFFFFFFFFFFFFFFFFFFFFFFFFFFFFF5F
:1011A000FFBF5FAF4F9F5F9F5FBF3FBF3F9F5F9F8F
:1011B0005FAFEFEFDF9F3F7F7F7F7F7F7F7F7F3F4F
:1011C0003FBF3FBF1F9F5F8F4FAF4FAF57A7F7F78F
:1011D000F7E7CF9F3F7F7FFF7FEF77AB77AB55ABD5
:1011E00055AA55AA55AA55AA55AA55AA55AA55AA07
:1011F00055AA55AB57BF75EB55AB55AA55AA55AA7D
:1012000055AA55AA55AA55AA55AAD5EAFDFEFFFF2B
:101210007FFF5FAF57AF57AAD4A975BA7FBE55BA43
:1012200055AA55AA95AA95AA95AA95AA95AA95AA46
:1012300095AA95AA95AA95AA95AA95AA95AA95AAB6
:1012400095AA95AA95AA95AE97AF97AB95AB95AA97
:1012500095AA95AA95AA9FAB9DAE77BE55BE57BAE3
:1012600077ABBFFFFFFFFFFFFFFFFFFFFFFFFFFFAA
:10127000FFFFFFFFFFFFFFFFFFFFFFFFFFFFFFFF7E
:10128000FFFFFFFF5FAFF7AB57AB57AB57AB57AFA6
:1012900057AF57AB57AB55AB55AAD5EAF5FEFDFA9C
:1012A000F5EBF7FFFFFFFFFFFFFFFFFFFFFFFFFF74
:1012B000FFFFFFFFFFFFFFFFFFFFFFFFFFFFFFFF3E
:1012C000FFFFFFAAF5FA5FEAF5EA55AAF5FEFDFE73
:1012D000FDFAFDFAFDAAF5EA5DFFFFFFFFFFFFFF44
:1012E000FFFFFF0F0F0F0F0F0F0F0F0F0F0F0F0F3E
:1012F0000F0F0F0F0F0F0F0F0F0F0F0F0F0F0F0FFE
:101300000F0F0F0F0F0F050F0F0F0F0E0D0F0F0FFA
:101310000F0F0F0F0F0A070F0D0F070F0F0F0F0FF4
:101320000F0F0FBE5DAB55AA55AB55AA55AA55AACE
:1013300055EA55AA55AA55AA55EA55AB57AB57EFEA
:1013400057AB7FFF5FFFFDEA57AF7FFFFFBFFFFF98
:10135000FFFFFFFFFFFFFFFFFFFFFFFFFFFFFFFF9D
:10136000FFFFFFAAD5BA55AA55BA5DAA55BA55AA24
:1013700055AA55EA55AA55AA55AA55AA55AA57AA33
:1013800055AA5DAE5FAA5DBE7FAF7FFA7DFA7F7F13
:101390007F3F0FA757A757AB53AB53AB57A757A7E1
:1013A0004FAF4FBA55AA55AAD5EA7DAE5DAA55AA48
:1013B00055AE75FAD7AA55BA55EAD5AADDEA55EA67
:1013C000F5EA55AA5DAA55BAF5BAD5FA5DA954ABA6
:1013D00055AA55AA55AA55AA55AA55AA55AA55AA15
:1013E00055AA55AB95BA95BB95BA9FAF9DAB9FAB30
:1013F00097BE95AB57AABDBE95AF95AE95BFB7AF9B
:10140000BDAF95AE9FAB9FAB95AA95AA95AA95AA9D
:1014100095AA95AA95AA95AA95AA95AA95AA95AAD4
:1014200095AA95FFFFFFFFFFFFFFFFFFFFFFFFFFF5
:10143000FFFF77AA55FFFFFFFFFFFFFFFFFFFFFF43
:10144000FFFFFFFFFFFFFFFFFFFFFFFFFFFFFFFFAC
:10145000FFFFFFFFFFFFFFFFFFFFFFFFFFFFFFFF9C
:10146000FFFFFFFFFFFFFFFFFFFFFFFFFFFFFFFF8C
:10147000FFFF55AAFFFFFFFFFFFFFFFFFFFFFFFF7B
:10148000FFFFFFFFFFFFFFFFFFFFFFFFFFFFFFFF6C
:10149000FFFFFFFFFFFFFFFFFFFFFFFFFFFFFFFF5C
:1014A000FFFFFF0F0F0F0F0F0F0F0F0F0F0F0F0F7C
:1014B0000F0B050A0F0F0F0F0F0F0F0F0F0F0F0F4F
:1014C0000F0F0F0F0F0F0F0F0F0F0F0F0F0F0F0F2C
:1014D0000F0F0F0F0F0F0F0F0F0F0F0F0F0F0F0F1C
:1014E0000F0F0FFFFFFFFFFFFFFFFFFFFFFFFFFFDC
:1014F000FFFFFFFFFFFFFFFFFFFFFFFFFFFFFFFFFC
:10150000FFFFFFFFFFFFFFFFFFFFFFFFFFFFFFFFEB
:10151000FFFFFFFFFFFFFFFF3F9F4FA757A757A703
:1015200053AB73AF4FEFCF8F3F3F7F7F7FFFFFFF07
:10153000FFFFFFFFFFFFFFFFFFFF7F7F3FBF1F8F0B
:1015400047A353AB5BFBFBFBF3E7CF9FBFBFBFBF23
:10155000BF9F4FA753AB53AB54AA55AA55AAD5EA80
:1015600075FA7DAA55AA55AB55AAD5FAFCAE54A971
:1015700055A955A955A955A955A954AA55AA55AA79
:1015800055AA5DAE57AB55AB57AF5FBFFFFFFFFF2F
:1015900077AB55AB55AA55AA55AA55AA55AA55AA2F
:1015A00055AA55AA95AA95AA97AB95AB97AF97AEB2
:1015B0009DBAB5AA95AA95AA95AA95AA95AA95AAFB
:1015C00095AA95AA95AA95AA95AE9FAB95AA95AA14
:1015D00095AA95AA95AA95AA95AA95AA95AA95AA13
:1015E00095AA95FFFFFFFFFF57AB57AB57AB57AB24
:1015F00057AB57AB57AB57ABD7EFD7AB57FFFDFA4E
:10160000F5FBF5AA75AAF5EAF5EA75AAD5FFDFAFED
:101610005FAF5FAF5FAF5FAF5FAF5FAF5FAF5FAF5A
:101620005FAF5FFFFFFFFFFFF5FFD5FEF5EEFFFEAB
:10163000FFFEFFEADDEAFFFFFFFFFFFFFFFFFFFF07
:10164000FFFFFFFFFFFFFFFFFFFFFFFFFFFFFFFEAB
:10165000FDFEFFFEFDBAD5FA55FAFDFAFDFAF5AA30
:101660007DAAFF0F0F0F0F0F0F0F0F0F0F0F0F0F91
:101670000F0F0F0F0F0F0F0F0F0F0F0F0F0F0F0F7A
:101680000F0F0F0F0F0F0F0F0F0F0F0F0F0F0F0F6A
:101690000F0F0F0F0F0F0F0F0F0F0F0F0F0F0F0F5A
:1016A0000F0F0FF7F7E7CFDFDF9F3F7FFFFFFFFF52
:1016B000FFFFFFFFFFFFFFFFFFFFFFFFFFFFFFFF3A
:1016C000FFFFFFFFFF3F43AB55A954AA55AA55AAF8
:1016D00055AA55AA55AA55AA55AB5FBFFFF8738FF7
:1016E0003FFFFFBA5FBF5FAF5FBF7FFEFCF9F3E76D
:1016F000CFBF3F7F7F7F7F7F7F7F3FBF3F9F4FA7D2
:1017000057A353A955AA55AA55AA55AA55AA55AAE9
:1017100055AA55AA55AA55AA55EAFDFEFFFF57AA94
:1017200055A853AA55AA55AA55AA55AA55AA55ABC4
:1017300057AB57AF57AF57AA55AA55AA55AA55AA9E
:1017400055AA55AA55AA55AA55AA55AA55AA55AAA1
:1017500055AA55AA55BA5DAE5FAF57AF5FBA75AA25
:1017600055AA55AA95AA95AA95AA95AA95AA95AA01
:1017700095AA95AA95AA95AA95AA95AA95AA95AA71
:1017800095AA95AA95AA95AA95AA95AA95AA95AA61
:1017900095AA95AA95AA95AA95AA95AA95AA95AA51
:1017A00095AA95BFFFFBD5ABD5EBD5AB55AB55ABEC
:1017B00055AB55AB55AB55AB55EB57FFFFFFFFFF97
:1017C000FFFFAF57AF57AF57AF57AF57AFDFAFD7E9
:1017D000EFFFFFFFFFFFFFFFFFFFFFFFFFFFFFFF29
:1017E000FFFFFFEAFFFFFFFFFFFFFFFFF7FAFFEA40
:1017F000FFFFFFFFFFFEF5EFF5FFFDFFFFFFFFFF20
:10180000FFFFFEFDFBFFFFFFFFFDFBFDFFFFFFFFF7
:10181000FFFFFFFFFFFFFFFFFFFFFFFFFFFFFFFFD8
:10182000FFFFFF0F0F0F0F0F0F0F0F0F0F0F0F0FF8
:101830000F0F0F0F0F0F0F0F0F0F0F0F0F0F0F0FB8
:101840000F0F0F0F0F0F0F0F0F0F0F0F0F0F0F0FA8
:101850000F0F0F0F0F0F0F0F0F0F0F0F0F0F0F0F98
:101860000F0F0FFFFFFFFFFFFFFFFFFFFFFFFFFF58
:10187000FFFFFFFFFFFFFF7F7F7FFFFFFFFFFFFFF8
:101880007F3F3FBF3F9F4FA753A954AAD5EB77FF98
:10189000FFFEFCFDFDF9F3E7DFBF7F7F7F7F7F7FEA
:1018A0007F7F7FAF4FAF4FAF4FAF4FA757A757A720
:1018B00057AB51A954AA54AAD7AE5CBDDCAAD4AA8E
:1018C00054AA55AA55AA55AA55AA55AA55AA55AA21
:1018D00055AA55AB57AF57AF57AF57AFD7AFDFAFDD
:1018E0005FAE5EEA75AA75BE57EE57AA57AE5DAEFB
:1018F0005DAA7DEAD7FFFDAB57AB7DEB55AA55EF4F
:10190000FFAAF7BE5DAAF5BA5FAA57AA57AA77AA97
:1019100057BE55AE75BEFDAA57AB7DEB55AA55EF28
:10192000FFAAF7AB9FAA9DAA9DAA9DBA55AAB5AAE0
:10193000BDBABDAA9FAA55AAD5BAD7AA7DAAD5AACB
:1019400055BB97BA9FAF95AE97AE95AFFFAA55BE60
:1019500095BEB5AA9DAA55AAD5BAD7AA7DAAD5AAD9
:1019600055BBF7FFFFFFFFFFFFFFFFFFFDFFFFFF7F
:10197000FFFFFFFFFFFFFFFFFFBFFFAAD7BFFFFF74
:10198000FFFEFFFFFFFFFFFFFFFFFFFFFFFEFDFF6B
:10199000FFFFFFFFFFFFFFFFFFBFFFAAD7BFFFFF54
:1019A000FFFEFFFFFFFFFFFFFFFFFFFFFFFFFFFF48
:1019B000FFFFFFFFFFFFFFFFFFFFFFFFFFFFFFFF37
:1019C000FFFFFFFFFFFFFFFFFFFFFFFFFFFFFFFF27
:1019D000FFFFFFFFFFFFFFFFFFFFFFFFFFFFFFFF17
:1019E000FFFFFF0F0F0F0F0F0F0F0F0F0F0F0F0F37
:1019F0000F0F0F0F0F0F0F0F0F0F0F0F0F0F0F0FF7
:101A00000F0F0F0F0F0F0F0F0F0F0F0F0F0F0F0FE6
:101A10000F0F0F0F0F0F0F0F0F0F0F0F0F0F0F0FD6
:101A20000F0F0FFFFF7F7F3F1F9FDF9F3FFFFFFFD6
:101A3000FFFFFFFFFFFFFFFFFFFFFFFFFFFFFFFFB6
:101A4000FFFFFFFFFFFFFFFFFFFFFFFFFFFFFFFFA6
:101A5000FFFFFFFFFFFFFFFFFFFFFFFFFFFFFFFF96
:101A6000FFFFFFBE5CBA55AA55AA55AF5EAE5CA893
:101A700059ABD3A3D7A7C7AF47A353AB53A3F7E73C
:101A8000E7AF47A753AB53AB53A757A757A74F9FF2
:101A90001F9F5F9F5F9F1FDFDFBFBF9F5F9F4FAF96
:101AA00057A74FBE55AA55AA55AA55AAF5FF55AF37
:101AB00055BBD5AA55AB55EF57FE7DAA55AB55AAD8
:101AC00055AAF5BA5FAA57AA57AA77AA57BE55AE24
:101AD00075BEFDAA57AB7DEB55AA55EFFFAAF7BE21
:101AE00055AA55BABFAA95AA95BEB7AB5DBA55AA75
:101AF0005FAB55AF55AA55AA75AB5FAEFDBA95AAB7
:101B000095AA95AE97AE95AFFFAA55BE95BEB5AA5C
:101B10009DAA55AAD5BAD7AA7DAAD5AA55BBF7BA08
:101B2000BFAA95FFFFFFFFFFFFFFFFFFFFFFFFBF04
:101B3000FFBFD5AFFFBEFFFEFFFFFFFFFFFFFFFFB1
:101B4000FFFFFFFFFFFFFFFFFFFEFDFFFFFFFFFFA8
:101B5000FFFFFFFFFFBFFFAAD7BFFFFFFFFEFFFF93
:101B6000FFFFFFFFFFFFFFFFFFFFFFFFFFFFFFFF85
:101B7000FFFFFFFFFFFFFFFFFFFFFFFFFFFFFFFF75
:101B8000FFFFFFFFFFFFFFFFFFFFFFFFFFFFFFFF65
:101B9000FFFFFFFFFFFFFFFFFFFFFFFFFFFFFFFF55
:101BA000FFFFFF0F0F0F0F0F0F0F0F0F0F0F0F0F75
:101BB0000F0F0F0F0F0F0F0F0F0F0F0F0F0F0F0F35
:101BC0000F0F0F0F0F0F0F0F0F0F0F0F0F0F0F0F25
:101BD0000F0F0F0F0F0F0F0F0F0F0F0F0F0F0F0F15
:101BE0000F0F0FFFFFFFFFFFFFFFFFFFFFFFFFFFD5
:101BF000FDFAFDFAF5AF55FA7F7F7F7F7FFFFFFF8C
:101C0000FFFFFFFFFFFFFFFFFFFFFFFFFFFFFFFFE4
:101C10007FFF7FFFFFFF7FBF5FBF7FFF7FFF7FFFF4
:101C20007FFF7FA747A757B7F7F777B757AB53ABF8
:101C300053A954AAFEAA55AAFFAA55AA54AA54AA5F
:101C4000D6EEFDFDFDF9F9FB7BFB77B757A755AA4B
:101C500055AA55AA55AA55AA55AA55AA55AA55AA8C
:101C600055AA55AA55AA55AB55AA55AA55AAD5AAFB
:101C7000D5AAD5AAFFBE77AA55AFFDAA55AA55AFDA
:101C800057AB55AAD5EA75BA5DAE55AE5DBA75EAE1
:101C9000D5AA55AA55AA55AA55AA55AA55AA55AACC
:101CA00055AA55AABDAE55AE57AB55AB55AB55AAC7
:101CB00055AA55AB57AAD5FA55AADFBA95AA95AA3F
:101CC00095BE57AB55AA55AA55AA55AA55AA55AAC5
:101CD00055ABFFAA55AAFDFA55AAFDFA55AA55AA71
:101CE00055AAFDFF5FAE55AAD5EAD5EAF5EAF5EAB1
:101CF000F5EAF5EAF5FAF5FAF5FAF5FBFFFFFFFF6D
:101D0000FFFFF5EAF5EAF5EAF5EAF5EAF5EAF5EABC
:101D1000F5EAFFFAF5FAF5FAF5FAF5FAF5FAF5FA51
:101D2000F5FAF5FFFFFFFFFFFFFFFFFFFFFFFFFFDC
:101D3000FFFFFFFFFFFFFFFFFFFF55AA55EAF5EA90
:101D4000F5AA55AAF5FBF5FAFDFFFFFFFFFFFFFF20
:101D5000FFFFFFFFFFFFFFFFFFFFFFFFFFFFFFFF93
:101D6000FFFFFF0F0F0F0F0F0F0F0F0F0F0F0F0FB3
:101D70000F0F0F0F0F0F0F0F0F0F0F0F0F0F0F0F73
:101D80000F0F0F0F0F0F0F0F0F0F0F0F0F0F0F0F63
:101D90000F0F0F0F0F0F0F0F0F0F0F0F0F0F0F0F53
:101DA0000F0F0FFF7FFF7FBF5FAF5FBF7FFF7FBF63
:101DB0007FBF7FBF7FBFFFFFFFFFFFFFFFFFFFFF73
:101DC000FFFFFFFFFFFFFFFFFFFFFFFFFFFFFFFF23
:101DD000FFFFFFFFFFFFFFFFFFFFFFFFFFFFFFFF13
:101DE000FFFFFFAA55AA55AA55AA55AA55AA55AA52
:101DF00055FA55AA55AF5FFFFFFFFF7F7F3F1F8F4B
:101E000047A757A74F8F1F7FFFFFFFFFFFFFFFFF72
:101E1000FFFFFFFFFFFFFFFFFFFFFFFFFFFF7F1F32
:101E20004FA757AA55AA55AA55AA55AA55AA55AAC1
:101E300055AA55AA55AA55AA5DB9F4AA55AA55AAF4
:101E400055AA55AA55AA55AA54AA54A855A953A7A4
:101E50004FAF4F9F5F9F5F9F5FAF4FA757A954AA98
:101E600055AA55FA55AAFDFA55AA55AA55AAFDBA7A
:101E7000FDBAFDFAFDAA55AA55AA55AB57BE95AABB
:101E800095AA95AA95AA95AA95AA95AA95AA95AA5A
:101E900095AA95AA95AA95AA95AA95AA95AA95AA4A
:101EA00095AA95FAF5FAF5FAF5FAF5FAF5FAF7FAC8
:101EB000F7FBF7FAF7FAF5FAF5FAF5FAF5FFFFFF8F
:101EC000FFFFFFFFFFFFFFFFFFFFFFFFFFFFFFFF22
:101ED000FFFFFFFFFFFFFFFFFFFFFFFFFFFFFFFF12
:101EE000FFFFFFFFFFFFFFFFFFFFFFFFFFFFFFFF02
:101EF000FFFFFFFFFFFFFFFFFFFFFFFFFFFFFFFFF2
:101F0000FFFFFFFFFFFFFFFFFFFFFFFFFFFFFFFFE1
:101F1000FFFFFFFFFFFFFFFFFFFFFFFFFFFFFFFFD1
:101F2000FFFFFF0F0F0F0F0F0F0F0F0F0F0F0F0FF1
:101F30000F0F0F0F0F0F0F0F0F0F0F0F0F0F0F0FB1
:101F40000F0F0F0F0F0F0F0F0F0F0F0F0F0F0F0FA1
:101F50000F0F0F0F0F0F0F0F0F0F0F0F0F0F0F0F91
:101F60000F0F0F4010A0E040E0A0E040E0A0E040F4
:101F7000E0A0E040E0AAFF55FFAAFF40E0A0E0405B
:101F8000E0A0E040E0A0E0406020604060206040D1
:101F9000E0A0E040E0A0E040E0AAFE54FEAAFE403F
:101FA000E0A0E040E0A0E040E0A0E040C080C04011
:101FB000C080C040C080C040E0A0E040E0AAFF5523
:101FC000FFAAFF55FFA0E040E0A0E040E0A0E04015
:101FD000E0A0E040E0A0E040E0A0E040E0A0E04081
:101FE000E0A0E054FE089C141C08DC141C081C141F
:101FF0009C081C141CAAFF55FFAAFF101808180003
:10200000800000000000E0001400080094000000C0
:10201000C00000000008981018AAFF55FFAAFF1082
:102020001808181098085810180898101808181050
:10203000D8081810980818109808181018AAFF55F2
:10204000FFAAFF55FF081C101808981018089810D0
:102050001808D810180898101808D81018089810E0
:1020600038283855FFAAFE54FE80C040C080C040CA
:10207000C080C040C080C040C080C040C080C04060
:10208000C080C040C080C055FFAAFF55FFA0E040FF
:10209000E0A0E040E0A0E040E0A0E040E0A0E040C0
:1020A000E0A0E040E0A0E050F8A8F850F8A0E04040
:1020B000E020604060206040602060406020604020
:1020C0006020604060206055FFAAFF55FFA0E040FF
:1020D000E0A0E040E0A0E040E0A0E040E0A0E04080
:1020E000E0A0E040E0AAFF55FF0819119908191176
:1020F000D9081911D90819111908991159081D156C
:102100009D085911190A1F55FFAAFF55FF081810FD
:1021100098081810980858101808D810180898101F
:102120005808181098081855FF2AFFD5FF0898106E
:1021300058081810180898101808181018081810BF
:102140001808181018081855FFAAFF55FF0818108E
:1021500098081810980858101808D81018089810DF
:102160005808181018A0E040E0A0E040E0A0E040CF
:10217000E0A0E040E0A0E040E0A0E054FCA8FC5477
:10218000FC80C040C080C040C080C040C080C04013
:10219000C080C040C0808000808080008080C055AA
:1021A000FFAAFF45E7A0E040E0A0E040E0A0E0405B
:1021B000E0A0E040E0A0E040E0A0E040E0A0E0409F
:1021C000E0A0E054FEAAFE54FEAAFE40C080C0403B
:1021D000C080C040C080C040C080C040C080C040FF
:1021E000E0A0E040E00898101808D810180818106F
:1021F000180898105808181098081855FF2A7F5585
:10220000FF0A1F111908D9111908DD159D08591168
:1022100019089911590819119908D91199081955CE
:10222000FFAAFF55FF2838103828B8105808181092
:10223000D8081810D808181098081810D8081810BE
:1022400098081C55FFAAFF55FFAAFF101808181080
:10225000D808181098081810980818101808D810DE
:102260001808981098A0E040E0A8FC54FCA8FC00D6
:10227000000000000000000000000000000000005E
:1022800080808040C080C040C080C040E0AAFE5432
:10229000FEAAFE54FCA0E040E0A0E040E0A0E04048
:1022A000E0A0E040E0A0E04040004040400040505E
:1022B000F0A0F050F0A0E0000000000000000000DE
:1022C00000000000000000000000000000AAFE5412
:1022D000FEAAFE54FCA0E040E0A0E040E0A0E04008
:1022E000E0A0E040E020705058AAFF55FFAAFF147C
:1022F0001C2A3E143E0A9E151F0A9F151F0A1B1515
:102300009F0A1B15DD081D151D08D8141CAAFF55B2
:10231000FFAAFF141C089C145C081C149C085C1485
:102320001C08DC141C089C145C089C040C080C554C
:10233000FF2AFF55FF0004149C081C048C084C0461
:102340000C00800000000000C00000141CAAFF5513
:10235000FFAAFF141C089C145C081C149C085C1445
:102360001C08DC141CA0E040E0A0E040E0A0E0403D
:10237000C080C040C0AAFE55FFAAFF40E0A0E040D8
:10238000E0A0E040E0A0E040E0A0E040E0A0E040CD
:10239000E0A0E040E0A0E040E0AAFE54FEAAFE403B
:1023A000E00000000000000000000000000000004D
:1023B000000000000000000000000000000000001D
:1023C000000000000000000000000000000000000D
:1023D00000000000000000000000000000000000FD
:1023E00000A0E054FE081C14DC081C149C081C14FB
:1023F0009C081C141CAAFF55FFAAFF141C081C14DF
:102400009C081C141C08DC141C089C141C08DC14FC
:102410001C088C040C08DC141CAAFF55FFAAFF043E
:102420000C000000C000000080002000C000300050
:102430000A0004000A008000000000000000C8003C
:10244000300008000000C0000000C00020000000B4
:10245000800040000000800000000000000000102C
:1024600038283855FFAAFE54FE80C040C080C040C6
:10247000C080C040C080C040C080C040C080C0405C
:10248000C080C040C080C054FEAAFE54FE80C04040
:10249000C080C040C080C040C080C040C080C0403C
:1024A000C080C040C080C040C080C054FEAAFE545E
:1024B000FE80C040C080C040C080C040C080C040DE
:1024C000C080C040C080C040C080C040C080C055F7
:1024D000FFAAFF55FFA0E040E0A0E040C080C04060
:1024E000E0A0E040E0AAFF55FF0819111908991172
:1024F00019081911D9081911990819111908D911B0
:102500001908991119081955FFAAFF55FF08191143
:102510001908991119081911D908191199081911CF
:102520001908D9111908991119081955FFAAFF5549
:10253000FF0819111908991119081911D908191149
:10254000990819111908D91119089911190819555B
:10255000FFAAFF55FF081810D8081810D80818103F
:102560009808181018A0E040E0A0E040E0A0E0408B
:10257000E0A0E040E0A0E054FCA8FC54FEAAFE402D
:10258000E0A0E040C080C040C0808000808080002B
:1025900000000000000000000000000000000040FB
:1025A000C0A8F854FC287C143C0004000000000083
:1025B000000000000000000000000000000000001B
:1025C000000000000080C054FEAAFE54FE80C040FF
:1025D000C080C040C080C040E0A0E040E0A0E0403B
:1025E000E0A0E040E0081C141C08DC141C089C144B
:1025F0001C08DC141C081C141CAAFF55FFAAFF10A1
:102600001808D8111908D911190ADB111B0ADB1592
:102610001F0ADF151F2AFE143E2A3E54FCA8FC5553
:10262000FF0A1F15DF081810D8081810980858104E
:102630001808981058081810D8081810D80818103A
:10264000D8081850F8AAFF55FF0A1F10980818104C
:10265000D800000080000000C0000000C0000000A2
:1026600080283810B8A0E045E7AAFF55FF80C04099
:10267000C0808000808080008080C040C080C040DA
:10268000C080C040C080C040C080C054FCA8FC5482
:10269000FCA0E040E0A0E040E0A0A000A0A0A0409E
:1026A000E0A0E040E0A0E040E0A0E054FCA8FC5442
:1026B000FCA0E040E0A0E040E0A0E040E0A0E0407E
:1026C000E0A0E040E0A0E040E0A0E054FCA8FC5422
:1026D000FCA0E040E0A0E040E0A0E040E0A0E0405E
:1026E000E0A0E040E0283855FFAAFF55FF08191187
:1026F0001908D91119081911D908191119089911AE
:1027000019081D15DD081911990A1F55FFAAFF5553
:10271000FF08181098081810D808181018089810F2
:10272000580818109808181018081855FFAAFF55CF
:10273000FF08181098081810D80818109808581092
:10274000180898105808181098081855FFAAFF552F
:10275000FF08181098081810D808181098081810B2
:102760001808D81018A0E040E0A0E040E0A0E04049
:102770006020604060A0E040E0A0E040E0A8FC54A1
:10278000FCA8FC40E0000000000000000000000089
:102790000000000000000000000000000000000039
:1027A00000000000008080008080800000000000A9
:1027B0000000000000000000000000000000000019
:1027C00000000000000000000000000000808040C9
:1027D000C080C040C080C0000000000000000000B9
:1027E00000000000000818101808D8101808181069
:1027F000D80818101808D81018089810180A1F556B
:10280000FFAAFF1119081810D80818101808181076
:10281000B82838103828B81030203010B0203010C8
:1028200030207055FFAAFF557FAAEF40E0A0E0409E
:10283000E0A0E04060206040E0A0E040E0A0E04098
:10284000C080C040C080C040C0A0E054FCAAFF557A
:102850007F2A3F0507000000000000000000000084
:102860000000000000000000000000000000000068
:10287000000000000000000000A8F850F8A8F85080
:10288000F800000000000000000000000000000050
:102890000000000000000000000000000000000038
:1028A00000808000808080000000000000000000A8
:1028B0000000000000000000000000000000000018
:1028C0000000000000000040E0A8FC54FCA8FC4010
:1028D000E0A0E040E0A0E040602060406020604078
:1028E000E0A0E040E0000000000000000000000068
:1028F000000000000000000000AAFF55FFAAFF54DE
:10290000FCA0E040E0A0E040C080C040C080C040EB
:10291000E0A0E040E0A0E04060A0E040E0A0E040B7
:10292000E0AAEF557FAAFF55FFA0F010B0203010AD
:10293000B02030103020B01038283810B8283810A7
:1029400018081810D80818151DAAFF55FF0A1F10DF
:10295000180898101808D81018081810D808181057
:102960001808D81018101000F8FCFEFEFEFCF8F84D
:10297000FCFEFEFEFCF800000103070F1F3F7F7FF7
:102980003F1F0F07030100000000E0F0F8F8F0F02F
:10299000F8F8F0E00000000000000103070F1F1F1F
:1029A0000F0703010000001118C0E0F0FCFCFCF868
:1029B000300000008080800000000000080F070742
:1029C000070F0F0F0F0F0F0F09080800000000007E
:1029D0000000000000000000000000000000008077
:1029E0008080800000000000000000000000030F55
:1029F0000F0707070F0E0E0E0E0E0E080808000038
:102A000000000000000000000000000000000000C6
:102A100000000000000000000000000000000000B6
:102A20000010183C3E7E7E7E1E0E1E1C1C0C0808EC
:102A3000080000000000000000000000000000008E
:102A40000000000000000000000000000000000086
:102A500000000000E0E8ECF6FEFEFE7EFEFEFEFC5E
:102A60009C08080800000103070F1F1F0C0001014C
:102A70000101000000000000000000000000000054
:102A80000000000000000060E4F6F3FBFFFFFFFF22
:102A9000FFFEFE8C040404000001070F1F3F3F1CD3
:102AA0000403030300000000000000000000000019
:102AB0000000000000000000000020E8FCF6FEFE20
:102AC000FE7E3E7EFEFCDC080808000000010307D5
:102AD00007070301000000000000000000000000E4
:102AE0000000000000000000000000000000080ED0
:102AF0000606060E0E0E0C0C0C0C08080800000052
:102B0000000000000000000000000000000080C085
:102B1000C0E0F0F0E0400000000000000000000114
:102B200001090F0707070F0E0E0F0F0F0D080808FA
:102B30000000000000000000000000000000000095
:102B4000001010000000C000F000F000F800FC20B1
:102B5000FC60FCC0F880F800F000F000F000C0005D
:102B60000000000000003F007F00FF00FF00FF00AA
:102B7000FF00FF01FF03FF0FFF00FF00FF00FF004A
:102B80007F00003838000000004030117FFFFFFF59
:102B9000FFC700031FFFFCF7FFFFFFFF3F171F9F4B
:102BA0003F97FF7BF7C7D657B043AF17B46078F8AD
:102BB000E480800000000000000000000000000031
:102BC000000000000000070F3FFFFFFEF8F0FFFFCE
:102BD000FFFFFF0F04040008027C0791C33E397019
:102BE000C9081050110840C0E00100000302043879
:102BF000C88000000000000000000000000000008D
:102C00000000FFFFFFFFFFFFFFFFFF0000000000CD
:102C100000000000020107060001020000000000A1
:102C20000107040B00000000010101000100000089
:102C3000000000000000000000B0FFFFFFFFFFFFEA
:102C4000FFFFFF0000000000000000000000000087
:102C50000000000000000000000000000000000074
:102C60000000000000000000000000000000000064
:102C700000FFFFFFFFFFFFFFFFFFFF00000000005E
:102C80000000000000000000000000000000000044
:102C90000000000000000000000000000000000034
:102CA000000000000000000000FEFFFFFFFFFFFF2C
:102CB000FFFFFF0000000000000000000000000017
:102CC0000000000000000000000000000000000004
:102CD000000000000000000000000000000000C034
:102CE000E0FFFFFFFFFFFFFFFFFFFFFFFEF8F0C069
:102CF0008000000000000000000000000000000054
:102D000000000000000000000000000000179FFF0E
:102D1000FFFFFCFCF1E0010000000000301038F281
:102D2000FBFFFFFFFFFFFEFEFFFFFFFFFF7F7F3E7A
:102D30003F1F0F0707070303030301010000000003
:102D400000000000000043633F0F1F3F7F7FFEFC39
:102D5000F8F8F8F0F0F0E0E0E0C0C2FFFFFFFFFF9E
:102D6000FFFFFFFFD8F0402000000000000000003F
:102D70000000000000000000000000000000000053
:102D8000000000000001000101030707070F1F1FDB
:102D90003F3FFFFFFFFFFFFFFFFFFFFFFFEFF3FEE0
:102DA000DEEEFAE8B80000000000000000000000BD
:102DB0000000000000000000000000000000000013
:102DC0000000000000000000000000001FFFFFFFE7
:102DD000FFFFFFFFFFFFFFFFFF1F4F03070600007E
:102DE00000000000000000000000000000000000E3
:102DF00000000000000000000000000000000000D3
:102E00000000000000FFFFFFFFFFFFFFFFFFFFFFCD
:102E1000FF0E0000000000000000000000000000A5
:102E200000000000000000000000000000000000A2
:102E300000000000000000000000000000FFFFFF95
:102E4000FFFFFFFFFFFFFFFFFFF800000000000093
:102E50000000000000000000000000000000000072
:102E60000000000000000000000000000000000062
:102E70000000000000FFFFFFFFFFFFFFFFFFFFFF5D
:102E8000FFFFFFF8E0C080800000000000000000AD
:102E9000000000000000FB444000091111F10D0A80
:102EA0000C22138A47273F7FFFFFFDFFE3F0C4E6B4
:102EB000FFFFFFFFFFBF63378808040444BA911186
:102EC0000000080F042890C0B04888070006F900E9
:102ED000000402817109060224241B000000580529
:102EE00006010707FFFFFFFFFFFFFF1F0310101082
:102EF00010091D0300000101196600000000020115
:102F00003E40A00102030000000016010000000086
:102F1000000000000000000000000000FFFFFFFFB5
:102F2000FFFFFF00000000000000000000000000A4
:102F30000000000000000000000000631C00000012
:102F40000000000000000000000000000000000081
:102F5000000000FEFFFFFFFFFFFF3F00000000003A
:102F60000000000000000000000000000000000061
:102F70000000000000000000000000000000000051
:102F800000000000000000000080FEFFFFFFFFFFC8
:102F9000FFFF000000000000000000000000000033
:102FA0000000000000000000000000000000000021
:102FB0000000000000000000000000000000000011
:102FC00080FFFFFFFFFFFFFFFF0700000000000082
:102FD00000000000000000000000000000000000F1
:102FE00000000000000000000000000000000000E1
:102FF00000000000000000C0FFFFFFFFFFFFFFFF19
:103000001F000000000000000000000000000000A1
:1030100000000000000000000000000000010803A4
:10302000170810307C3414007E7E6060007E007EC5
:103030007E0A0A007E7E6A6A6A3810F0F8FCFE1E7C
:103040009E9EFEFCF8F000F0F8FCFE1E1E1EFEFE2A
:10305000FCF00000FEFEFEFE000000FEFEFEFE0094
:103060000000F0FCFEFEFE1E0000F8FCFEFE9E9E30
:103070009E9E1EAB55AB550005030503010100AB39
:1030800055AB550A140055AB55AB0000152B55AB8D
:1030900050A050AB552B150000A051AB552B550B34
:1030A0000000152B55AB55A355A3503A188050A8D6
:1030B0005428140A140A142A0000000000A050A882
:1030C000542A140A14AA54A8500000A854AA540A56
:1030D00014AA54A8540A140A54AA54A8000050A8C8
:1030E00054AA148A148A140A152A55A850A040AA72
:1030F00045AA552A140000AA55AA550A140000AA88
:1031000015CAE57030B23572E5C00032F5F2E5F06F
:10311000701005E2F5B2B000F5F235B2F5E205A2A5
:103120004500000000000100010001000000000057
:10313000000001000100000000000003070E0C0C5D
:103140000C0E07030000010F0701000000070F0D20
:103150000D000F0F00030F0E080001000000020019
:10316000090F0000030401000C0000000000000033
:1031700000000000000000000000F0F89C8E878333
:10318000878E9CF8F00000FEFF0303030303070E85
:10319000FCF80000FEFF0303030303070EFCF80026
:1031A00000FFFF00000000000000FFFF0000FEFF26
:1031B0008383838383C7EE7C380000F8FC0E07030B
:1031C0000303070EFCF800003F7FE0C08080C0E0F2
:1031D0007F3FFFFF01010101010101FFFF0000FF2F
:1031E000FF0C0C0C0C1C3E77E3C100007FFFC0C03D
:1031F000C0C0C0E0703F1F00001F3F70E0C0C0C0F3
:10320000E0703F1F00007FFFC1C1C1C1C1E3773E35
:103210001C00001F3F70E0C0C0C0E0703F1F0000F6
:1032200000000001FFFF010000000000000024007A
:1032300027002A002D003000AED580A83FD30040E3
:103240008D142002A1C8DA1281CFD9F1DB402EA45F
:10325000A6AF04080201104080401020408040804A
:10326000080204018040201002011080102040401C
:103270002000000000250028002B002E0031000453
:10328000040404040304050202020204030202020D
:1032900002060606060606040402020204041402DC
:1032A00013021202150207020802090209010A02AA
:1032B0000A010B020B0104010C01060100391A611D
:1032C00020271A071A0C1A0B1ADB19E81B811AD0CF
:1032D0001B080B00020202010009040000010202A7
:1032E0000000052400100105240101010424020648
:1032F00005240600010705810310004009040100B0
:10330000020A0000000705020240000007058302D0
:103310004000000403090441726475696E6F204C1B
:103320004C430041726475696E6F204C656F6E612D
:1033300072646F00120100020000004041233680D9
:1033400000010102030112010002EF0201404123CA
:103350003680000101020301412F11241FBECFEF6F
:10336000DAE0DEBFCDBF26E0A8E6B1E001C01D92E5
:10337000AF32B207E1F711E0A0E0B1E0E6EDF1E62F
:1033800002C005900D92A836B107D9F719E1CDEA30
:10339000D9E104C02197FE010E94C82FCC3AD10781
:1033A000C9F70E94082C0C94E9300C94000080911D
:1033B00085010895089510921401109213018CE173
:1033C00090E0909378018093770110927A011092A7
:1033D0007B0110927C0110927D0188EE93E0A0E0C9
:1033E000B0E080937E0190937F01A0938001B09321
:1033F000810180E890E090937501809374011092B0
:1034000079011092760187E080938C01089586E01F
:1034100080938C010895089520E04FE75CE060E020
:1034200070E080E190E00E94782720E04DE95AE0CA
:1034300069E170E08FE090E00E9478278CE00E94C4
:103440007E27882319F081E080938C01089520E085
:103450004BE958E060E070E080E290E00E9478275D
:103460008CE00E947E27882319F081E080938C01F4
:103470000895CF93C0916901CF5FC093690120E0A7
:103480004DEA55E064E070E082E290E00E94782727
:10349000C53B28F01092690181E080938C01CF91A7
:1034A00008950F931F93CF93DF93082FC62F80911A
:1034B000BD059091BE0583709927892B41F468E181
:1034C00070E080E090E00E94902260936801D0E07C
:1034D00010E0BE016E5D7F4F20E047E755E0C80178
:1034E0000E947827BE016E5E7F4F2091680145E201
:1034F00054E0C8010496DF91CF911F910F910C9475
:10350000782720E049E350E364E070E083E290E054
:103510000E94782768E088E30E94511A80ED0E949B
:103520007E27882319F087E080938C010895EF921D
:10353000FF920F931F93CF938091BD059091BE058D
:1035400083709927892B29F4809183018F5F809361
:103550008301909184018091830100911301109166
:103560001401992371F110928201E82FF0E0E55CDB
:10357000FE4F90818F3038F4892F90E0909378013E
:10358000809377010AC08CE190E09093780180935A
:1035900077011092840110928301E0907701F090FE
:1035A000780128E04BED50E0B701C8010E94D22716
:1035B000B7016A5F7F4F21E04AEC50E0C8010C96EA
:1035C00054C090918201992341F11092840126E226
:1035D00030E030937801209377018F3050F08CE108
:1035E00090E090937801809377011092820110927D
:1035F0008301E0907701F090780129E04BED50E0F5
:10360000B701C8010E94D227B7016B5F7F4F21E04D
:103610004AEC50E0C8010A9628C0883010F0109299
:103620008301C0918301E0907701F09078012C2F05
:103630004BED50E0B701C8010E94D2272C2F30E09B
:10364000F901E75CFE4FD901A15DBE4F8C91B70136
:10365000680F711DD901AB5DBE4F8C9120814AEC82
:1036600050E0F801E80FF11DCF01CF911F910F91AC
:10367000FF90EF900C9478276F927F928F929F9299
:10368000AF92BF92CF92DF92EF92FF920F931F9370
:10369000CF93DF93CDB7DEB728970FB6F894DEBF90
:1036A0000FBECDBF8C015B0120E045EC5DE00E94C8
:1036B000782760917A0170917B0180917C019091D3
:1036C0007D012AE0AE014F5F5F4F6A010E942F30FB
:1036D000F60101900020E9F73197EC19FD098E2ED3
:1036E00088E0E82EEE1A912C0E2C000CFF08045EE8
:1036F0001F4F35015FEF651A750A892D90E08E1511
:103700009F0574F420E04BE95DE0B301C80135E0AA
:10371000939E800D911D11240E9478279394EDCFE4
:1037200025E02E9DC0012F9D900D1124080F191F1B
:10373000912CE82C880CFF084FEFA41AB40A892DAD
:1037400090E08E159F05BCF4F601E80FF91F20816B
:1037500021331CF020532A3008F020E04BE95DE0D3
:10376000B501C80135E0939E800D911D11240E9482
:1037700078279394E4CF28960FB6F894DEBF0FBE57
:10378000CDBFDF91CF911F910F91FF90EF90DF9010
:10379000CF90BF90AF909F908F907F906F90089543
:1037A00020E04BEA50E360E170E08FE190E00E949E
:1037B00078276CE270E08BE190E00E943C1B8CE08B
:1037C0000E947E27882319F081E080938C01089560
:1037D0008F929F92AF92BF92CF92DF92EF92FF9221
:1037E0000F931F93CF93DF93CDB7DEB7A4970FB698
:1037F000F894DEBF0FBECDBF8091BD059091BE0590
:1038000063E070E00E94B42F892B91F480916C01E9
:1038100090916D01019790936D0180936C0180915F
:10382000020190910301019790930301809302019B
:1038300080916C0190916D0181389F4F74F480E804
:1038400090E090936D0180936C0162E070E080E005
:1038500090E00E94902260936B0180910201909110
:10386000030181389F4F9CF480E890E0909303011E
:103870008093020164E070E080E090E00E9490227A
:10388000DC01CB010196A11DB11D809301011091B6
:103890006B01110FE0906C01F0906D01212F41EE52
:1038A0005DE060E070E0C7010E94782721E0210F11
:1038B00041EE5DE060E070E0C701805C9F4F0E94D8
:1038C000782710910101110FE0900201F09003019F
:1038D000212F41EE5DE060E070E0C7010E94782793
:1038E00021E0210F41EE5DE060E070E0C701805C07
:1038F0009F4F0E94782780906F0190907001640123
:1039000041E0C41AD108D0927001C0926F01E090DA
:103910000501F0900601570181E0A81AB108B092A4
:103920000601A092050110916E01110F412F63E66F
:103930007FE1C6010E94D82741E0410F63E67FE1A5
:10394000C401CF960E94D82710910401110F412F76
:1039500063E67FE1C5010E94D82741E0410F63E69D
:103960007FE1C701CF960E94D827A1E8CA16AFEF22
:10397000DA0674F480E890E09093700180936F0110
:1039800063E070E080E090E00E94902260936E011E
:10399000809105019091060181389F4F9CF480E849
:1039A00090E0909306018093050163E070E080E071
:1039B00090E00E949022DC01CB010296A11DB11D76
:1039C000809304011091760110FF09C040E061E48A
:1039D0007BE28091090190910A010E94D82711FF92
:1039E00009C040E061E47BE280910B0190910C0101
:1039F0000E94D82712FF0CC02091730147EA59E2B8
:103A000060E170E080910D0190910E010E94D2273B
:103A100013FF0CC02091730147EA59E260E170E0A6
:103A200080910F01909110010E94D22715FF0CC0C8
:103A30002091720145E659E264E070E08091110145
:103A4000909112010E94D2270E94971A809107013B
:103A5000909108018038910541F463E070E080E0C6
:103A600090E00E94902260937101C0900701D09075
:103A700008012091710143E85BE26CEF7FEFC60122
:103A80000E94D2278091BD059091BE0580FD07C0A0
:103A900024E0C21AD108D0920801C09207012091F7
:103AA00007013091080121303F4F34F420E830E025
:103AB00030930801209307012091790168E070E0BC
:103AC000621B7109660F70E00E94B42F892B49F4C4
:103AD0008091740190917501019790937501809385
:103AE0007401C0907401D090750180E4C816D104AF
:103AF0002CF48091760180628093760120E040E290
:103B000050E364E370E082E090E00E94782710E0E8
:103B1000812F90E0C816D9064CF020E04DE150E32B
:103B20006DE370E00E9478271F5FF2CF64E370E0DE
:103B30008BE390E00E943C1B8091090190910A0167
:103B4000029790930A018093090181389F4FCCF42A
:103B500062E070E080E090E00E9490222091760187
:103B6000672B682B692B19F0822F816002C0822F8E
:103B70008E7F8093760180E890E090930A01809395
:103B8000090180910B0190910C01029790930C0117
:103B900080930B0181389F4FCCF462E070E080E0AD
:103BA00090E00E94902220917601672B682B692B70
:103BB00019F0822F826002C0822F8D7F8093760160
:103BC00080E890E090930C0180930B0180910D01AF
:103BD00090910E01029790930E0180930D01813810
:103BE0009F4FCCF462E070E080E090E00E94902271
:103BF00020917601672B682B692B19F0822F846046
:103C000002C0822F8B7F8093760180E890E09093B2
:103C10000E0180930D0180910F0190911001029788
:103C20009093100180930F0181389F4F1CF562E043
:103C300070E080E090E00E94902220917601672B56
:103C4000682B692B19F0822F886002C0822F877F32
:103C50008093760190917601892F8A708A3021F4C1
:103C600088E089278093760180E890E090931001A6
:103C700080930F012091760125FF16C080911101DC
:103C80009091120102979093120180931101883E46
:103C90009F4F54F480E282278093760180E890E081
:103CA00090931201809311018091BD059091BE0502
:103CB00066E070E00E94B42F892B59F48091730163
:103CC0008F5F809373019091720181E089278093C7
:103CD000720180917301883010F010927301C090CE
:103CE0007401D0907501D7FE09C089E080938C01E2
:103CF00068EE73E080E090E00E946C2396E0FE01A5
:103D00007F96DF01292F1D922A95E9F78AE08BA380
:103D100024E12CA34091130150911401485F5F4F9F
:103D200058A34F8F40917701509178014E5F5F4FBC
:103D30005AA349A33697DF01392F1D923A95E9F727
:103D400068E270E07C8F6B8F3BE03D8F8CE08E8F64
:103D50004091090150910A014E5F5F4F5A8F498F80
:103D60003697DF01492F1D924A95E9F77E8B6D8BBF
:103D70003F8B888F40910B0150910C014E5F5F4F3C
:103D80005C8B4B8B3697DF01392F1D923A95E9F703
:103D900064E170E0788B6F87898B2A8B40910D01ED
:103DA00050910E014E5F5F4F5E874D873697DF0162
:103DB000392F1D923A95E9F77A8769878B872C8787
:103DC00020910F01309110012E5F3F4F38872F83D4
:103DD0003697DF011D929A95E9F726E030E03C83A3
:103DE0002B838D838E838091110190911201029615
:103DF0009A8389838091760180FF10C0E98CFA8CC8
:103E00000B8D1C8D2D8D3E8D4F8D58A169A17AA1F2
:103E10008BA19CA10E94E2278111B2C08091760102
:103E200081FF10C0EB88FC880D891E892F89388D91
:103E30004F8D58A169A17AA18BA19CA10E94E22774
:103E40008111ACC08091760182FF10C0ED84FE84A8
:103E50000F85188929893A894F8D58A169A17AA1BE
:103E60008BA19CA10E94E2278111A8C080917601BC
:103E700083FF10C0EF80F88409851A852B853C8567
:103E80004F8D58A169A17AA18BA19CA10E94E22724
:103E90008111A4C0D0907601D5FE10C0E980FA80CF
:103EA0000B811C812D813E814F8D58A169A17AA182
:103EB0008BA19CA10E94E2278111A0C040917E01AC
:103EC00050917F01609180017091810180917A0110
:103ED00090917B01A0917C01B0917D014817590719
:103EE0006A077B07B0F4209179012F5F2093790155
:103EF00048515C4F6F4F7F4F40937E0150937F013D
:103F00006093800170938101283018F027E020939E
:103F100079010196A11DB11D80937A0190937B01D7
:103F2000A0937C01B0937D0184E00E947E278823CA
:103F300049F08091840181118AC081E080938401DD
:103F400088E011C088E20E947E27882379F0809162
:103F5000820181117CC080918401811178C081E04F
:103F60008093820189E08093830171C080ED0E947B
:103F70007E27882309F46BC088E080938C0167C09A
:103F8000B4E0CB1AD108D0927501C092740164E6F6
:103F900070E08FEA90E00E94502440CF809174013D
:103FA000909175010497909375018093740164E674
:103FB00070E08FEA90E00E94502444CF8091740119
:103FC000909175010297909375018093740162E35B
:103FD00070E08BE092E00E94502448CF8091740101
:103FE000909175010297909375018093740162E33B
:103FF00070E08BE092E00E9450244CCF80E28D254F
:104000008093760180E890E09093120180931101F3
:10401000909375018093740180917A0190917B0156
:10402000A0917C01B0917D018C509E4FAF4FBF4F4E
:1040300080937A0190937B01A0937C01B0937D01E2
:1040400068EC70E08EEE92E00E94502437CFA49688
:104050000FB6F894DEBF0FBECDBFDF91CF911F9199
:104060000F91FF90EF90DF90CF90BF90AF909F9017
:104070008F900895E0918701F0918801908180915F
:104080008601892B8083E0918A01F0918B019081D8
:104090008091890180958923808308958EBD0000D9
:1040A0000DB407FEFDCF8EB5089561E085E00E9456
:1040B000302361E083E00E94302381E0809385011A
:1040C0000895FF920F931F93CF93DF931F92CDB765
:1040D000DEB710927801109277018091BD05909122
:1040E000BE0583709927892B49F480911301909123
:1040F000140104969093140180931301809113018D
:10410000909114018038910564F081E89FEF9093BD
:1041100014018093130190916A0181E089278093B3
:104120006A0120E04FE75CE060E070E080E190E051
:104130000E94782720E049E158E06AE170E081E3DD
:1041400090E00E9478272091850147EF57E062E3D5
:1041500070E089E590E00E94782760910001660F89
:10416000660F660F60518DE10E94511A0AE110E05E
:1041700032E0F0900001F31691F020E045ED57E0B9
:10418000B80181E390E039830E94D22720E045ED19
:1041900057E0B80182E590E00E94D22739813F5F65
:1041A000085F1F4F363029F780916A01882369F034
:1041B00020E043E557E06EEF7FEF8091130190918F
:1041C00014010E9478270E94971A80E80E947E2797
:1041D000882329F082E08F1510F4FA9409C080E159
:1041E0000E947E27882339F084E08F1520F0F39415
:1041F000F092000130C08CE00E947E27882359F1A4
:1042000085E0F81619F0F0928C0125C080918501A7
:10421000882359F01092850160E085E00E943023E8
:1042200060E083E00E94302302C00E94552060912C
:10423000850182E090E069830E947030698168178F
:1042400051F082E090E00F90DF91CF911F910F919C
:10425000FF900C9478300F90DF91CF911F910F91C8
:10426000FF9008950F931F93CF93DF931F92CDB7C5
:10427000DEB7182F062F61E08BE049830E94B4223D
:1042800068EC70E080E090E00E946C2360E0802F9A
:104290000E94B42282E090E00E9470304981481769
:1042A00029F0642F82E090E00E94783064EF71E0A2
:1042B00080E090E00E946C2361E0802F0E94B42295
:1042C0000E946C2481238117D9F30F90DF91CF9145
:1042D0001F910F910895CF92DF92EF92FF920F936B
:1042E0001F93CF93DF936C017A018B01C0E0D0E084
:1042F000CE15DF0589F0D8016D918D01D601ED91C4
:10430000FC910190F081E02DC6010995892B11F4F3
:104310007E0102C02196ECCFC701DF91CF911F91A2
:104320000F91FF90EF90DF90CF9008953FB7F894F2
:1043300080919C0190919D01A0919E01B0919F015F
:1043400026B5A89B05C02F3F19F00196A11DB11DF0
:104350003FBFBA2FA92F982F8827820F911DA11D2B
:10436000B11DBC01CD0142E0660F771F881F991F68
:104370004A95D1F7089580919401E0919201F091CE
:104380009301882349F0CF01029690939301809383
:104390009201859194910895CF0102969093930193
:1043A00080939201808191810895CF92DF92EF9264
:1043B000FF920F931F93CF93DF930E94BB21811530
:1043C00020E8920761F4809171008D7F80937100E5
:1043D0001092910046984798109291018BC021E06D
:1043E00020939101813020E8920751F480918F0150
:1043F0009091900190939301809392010E94BB2130
:1044000097FD05C020918E01222309F43FC0209121
:104410008D0121113BC021E020939501EC01DF7754
:10442000209769F481E08093960146983FE9C32E76
:104430003FE0D32EE12CF12CCAEFD0E014C08E0166
:1044400020E030E060E472E48FE090E0A9019801A0
:104450000E94863069017A0181E0C81AD108E1081A
:10446000F10810929601E091B805F091B90509950F
:10447000811103C081E0809396018091950188238A
:10448000B9F180919601811133C003C0109295015A
:10449000C5CF46992DC0479A0E94BB21009771F065
:1044A0009C01DE010E94DA30DC01CB0129E0B595E8
:1044B000A795979587952A95D1F703C08FEF9FEF22
:1044C000DC01109290002AE020939100D092990094
:1044D000C09298008093970190939801A0939901BE
:1044E000B0939A018091710082608093710002C044
:1044F0004798D2CFDF91CF911F910F91FF90EF900E
:10450000DF90CF90089583B7817F83BF83B78160A9
:1045100083BF889583B78E7F83BF08950E94CE2F77
:10452000CF93DF9300D000D0CDB7DEB76115710512
:104530008105910579F09B01AC0169833A834B8336
:104540005C830E94213029813A814B815C810E94E9
:10455000863003C060E070E0CB010F900F900F90A9
:104560000F90DF91CF910895362F90E0FC01E55A2E
:10457000FE4C4491FC01EE5AFD4C2491FC01E158A3
:10458000FD4C8491882309F451C04423E1F150E0AB
:10459000FA013197EF30F105B0F5EA5AFF4F0C946C
:1045A000C82F909180009F7707C0909180009F7DD9
:1045B00003C090918000977F9093800024C094B5B1
:1045C0009F7702C094B59F7D94BD1DC090919000CF
:1045D0009F7707C0909190009F7D03C090919000BD
:1045E000977F909390000FC09091C0009F7703C079
:1045F0009091C0009F7D9093C00005C09091C20033
:10460000977F9093C200E82FF0E0EE0FFF1FEF5866
:10461000FD4CA591B4918FB7F894EC91311103C082
:1046200020952E2301C02E2B2C938FBF08951F930E
:10463000CF93DF931F92CDB7DEB7162F682F89E097
:1046400049830E94B422612F8AE00E94B4224981EA
:10465000642F8BE00F90DF91CF911F910C94B422C7
:10466000CF93DF9390E0FC01EE5AFD4C2491FC01C6
:10467000E158FD4C8491882361F190E0880F991FE7
:10468000FC01E65DFD4CC591D491FC01EF58FD4C59
:10469000A591B491611109C09FB7F89488812095C4
:1046A00082238883EC912E230BC0623061F49FB784
:1046B000F8943881822F809583238883EC912E2B68
:1046C0002C939FBF06C08FB7F894E8812E2B2883C8
:1046D0008FBFDF91CF9108958F929F92AF92BF923B
:1046E000CF92DF92EF92FF926B017C010E949621A4
:1046F0004B015C01C114D104E104F104F1F00E940A
:104700009621DC01CB0188199909AA09BB09883EC9
:104710009340A105B10570F321E0C21AD108E10868
:10472000F10888EE880E83E0981EA11CB11CC1140C
:10473000D104E104F10419F7DDCFFF90EF90DF9091
:10474000CF90BF90AF909F908F9008951F920F923F
:104750000FB60F9211242F933F938F939F93AF9394
:10476000BF938091A1019091A201A091A301B0916A
:10477000A40130919B0123E0230F2D3720F40196F3
:10478000A11DB11D05C026E8230F0296A11DB11D74
:1047900020939B018093A1019093A201A093A30178
:1047A000B093A40180919C0190919D01A0919E01E4
:1047B000B0919F010196A11DB11D80939C01909322
:1047C0009D01A0939E01B0939F01BF91AF919F91D6
:1047D0008F913F912F910F900FBE0F901F901895C2
:1047E0001F920F920FB60F9211242F933F934F9366
:1047F0005F936F937F938F939F93AF93BF93EF9349
:10480000FF938091970190919801A0919901B091A7
:104810009A01892B8A2B8B2B81F180919601811132
:104820000BC098B180E4892788B9809195018823CD
:1048300019F088B1805888B98091970190919801BA
:10484000A0919901B0919A01181619061A061B0633
:10485000B4F48091970190919801A0919901B09141
:104860009A010197A109B10980939701909398014A
:10487000A0939901B0939A0102C00E94D521FF91A3
:10488000EF91BF91AF919F918F917F916F915F91C8
:104890004F913F912F910F900FBE0F901F90189541
:1048A0009C01E1E7F0E090819D7F9083109294015C
:1048B000EAEAF5E0F0939301E0939201F09390011E
:1048C000E0938F01318320837383628380E090E8DB
:1048D000958384830C94D5218FB12CB193B130E0B2
:1048E0002095309520743327A90123E055954795ED
:1048F0002A95E1F7292F30E0209530952071332754
:104900003595279535952795242B8095807F822B8B
:104910000895E0918A01F0918B0190818091890145
:10492000892B8083E0918701F091880190818091AB
:104930008601809589238083E0918A01F0918B0123
:1049400090818091890180958923808308956F9259
:104950007F928F929F92AF92BF92CF92DF92EF920F
:10496000FF920F931F93CF93DF9300D000D0CDB76A
:10497000DEB76C015A014115510509F4F9C1FA017C
:10498000149131965491F2E0AF0EB11C222319F12B
:10499000E12FF0E0852F869586958695E82EF12CFF
:1049A00081E090E0352F377011F480E090E08E0DBB
:1049B0009F1DE89F7001E99FF00CF89FF00C1124F7
:1049C000033011F4EE0CFF1C2E9DC0012F9D900DA5
:1049D0001124A80EB91E0F3F09F402E0E12E012EAA
:1049E000000CFF08C6018E0D9F1D181619060CF04D
:1049F000BFC120E8C216D1040CF0BAC19B01250F3B
:104A0000311D57FD3A95121613060CF0B1C16034F2
:104A100071050CF0ADC1A114B10409F4A9C19B0149
:104A200077FF04C022273327261B370B422F4770FE
:104A3000942EFB0177FD379623E0F595E7952A95AF
:104A4000E1F72E2F77FF07C0992029F02FEF2E0FC7
:104A500038E03919932ED7FE05C0662477246C18E8
:104A60007D0802C0612C712C803891051CF030E863
:104A70003C1901C0312F3619822F022E000C990BE0
:104A80002F3F1CF4482F409501C040E0652F677808
:104A900067FF03C06150686F6F5FE1E016160CF0AE
:104AA000E0E057FD595F5595559555955E0F850F7B
:104AB000911D099714F058E0521B952F941B240F59
:104AC000B60150E82503600D711D1124660D771D98
:104AD0001403F0011124E60DF71DA5014E0F5F1F11
:104AE000CC24C394D12C092C02C0CC0CDD1C0A941C
:104AF000E2F7033009F4F8C098F40130E1F0023035
:104B000009F036C18FEF8C9D80018D9D100D112411
:104B1000009510951C830B838C80792E720E2AC011
:104B20000A3F31F00B3F09F023C1B92EB20E83C00A
:104B3000B92EB20E4EC0892E820EC0C0FA01E80F07
:104B4000F91FE491EC9D5001ED9DB00C1124BA8247
:104B5000A98227FD04C0EC91E023AE2AAC9291100B
:104B600012C001961196831748F32F5F4E0D5F1DFB
:104B700060587F4F271509F4FBC0DB01A755BE4FD6
:104B800080E090E0F0CF273064F7FD01E058FF4F60
:104B9000B080B820AA80BA28B082E3CFFA01E80F2B
:104BA000F91FE491EC9D8001ED9D100D11241A83F5
:104BB000098327FD03C0EC910E2B0C93911012C0BA
:104BC00001961196831750F32F5F4E0D5F1D6058AD
:104BD0007F4F2B1509F4CCC0DB01A755BE4F80E0F9
:104BE00090E0F0CF273064F78D0100581F4FF80197
:104BF000A080FA81AF2AF801A082E2CFFA01E00F8B
:104C0000F11FE491EC9DC001ED9D900D11249A835C
:104C1000898327FD04C080959C9189238C939110F2
:104C200013C00F5F1F4F1196031740F32F5F4E0DF8
:104C30005F1D60587F4F2B1509F49AC0DB01A75503
:104C4000BE4F00E010E0F0CF27305CF7FD01E058E8
:104C5000FF4F8A818095908189238083E2CFFD0177
:104C6000E00FF11FE491EC9DC001ED9D900D11242A
:104C7000809590959C838B83FA01E00FF11FE4915E
:104C8000EC9D3001ED9D700C11247A82698227FD24
:104C900005C0F50190818923682A6082911018C0AF
:104CA0000F5F1F4FFFEFAF1ABF0A0317C0F22F5F4E
:104CB0004E0D5F1DAE0DBF1D60587F4F281509F4C6
:104CC00057C0CB0187559E4F5C0100E010E0EDCF4F
:104CD000273034F7F501E058FF4F90818C8189230C
:104CE0009A81892B8083DCCF032F10E0E40FF51F1E
:104CF000DB01A755BE4F675D7D4F40E850E0401B8C
:104D0000510BE01AF10AEE0CFF1C0B811C81A980EB
:104D1000BA8080E0732E892ECF93DF93C62FD72FD2
:104D2000A5900591992061F0AC9CA02CB12C0C9D14
:104D3000002D27302CF48881109481218B298993B0
:104D40008C9122231AF0009580238A298D933A951D
:104D500039F79A9551F0372D23951124EE0DF11D59
:104D6000A40FB11DC40FD11DDBCFDF91CF91112452
:104D70000F900F900F900F90DF91CF911F910F9197
:104D8000FF90EF90DF90CF90BF90AF909F908F906B
:104D90007F906F900895CF93DF931F92CDB7DEB7CA
:104DA0006983DC01ED91FC910280F381E02D41E00B
:104DB00050E0BE016F5F7F4F09950F90DF91CF915B
:104DC000089583E08093E9008091F200882319F030
:104DD0008AE38093E80008958F929F92AF92BF92EA
:104DE000CF92DF92EF92FF920F931F93CF93DF93B7
:104DF0005C016B018A0180911C01882309F45EC06B
:104E00008091A801882309F459C08091A60180FFF0
:104E100005C08091E00082608093E000E8018AEFA5
:104E2000F82E93E0E92E2FE3822E3AE3932E20977B
:104E300009F43DC08FB7F894E092E9009091E80042
:104E400095FF06C09091F200282D291B922F01C0DA
:104E500090E08FBF91110AC0FA94FF2079F161E0D0
:104E600070E080E090E00E946C23E1CF292F30E0D9
:104E7000C217D3070CF49C2F8FB7F894E092E90087
:104E80002091E80025FF11C0292F30E0C21BD30B71
:104E9000F601915020F041914093F100FACFC20EFB
:104EA000D31E9091E80095FF13C08FBFC0CF5D98CF
:104EB00084E68093A5011016110644F081E090E08D
:104EC000F5019383828380E090E005C0C80103C0B0
:104ED0009092E800EACFDF91CF911F910F91FF9060
:104EE000EF90DF90CF90BF90AF909F908F900895FC
:104EF0000F930AEF0E94A7240F9108952091C005F7
:104F0000282329F49091BF05982381E009F480E0DB
:104F1000089520E089EA91E0B22FB111BFEFFC01C2
:104F20000024B193B193B193B1930394D1F7089551
:104F3000EF92FF920F931F93CF9300E810E0C0E031
:104F4000E12CF12C0E94892480E10E944E2082E015
:104F50000E944E208C2F806B0E944E200E943A208F
:104F6000F701E755FE4F80818EBDC70101967C0198
:104F7000801791074CF4FC01E755FE4F20810DB4DA
:104F800007FEFDCF2EBDF2CF0DB407FEFDCFCF5FE4
:104F900000581F4FC830B1F6CF911F910F91FF906D
:104FA000EF9008950F930BEF0E94A7240F9108959F
:104FB0000F93242F03E0AB0164E270E00E94A7246A
:104FC0000F910895EF92FF920F931F93CF93DF936A
:104FD000CDB7DEB72C970FB6F894DEBF0FBECDBFAE
:104FE00049835A836B837C839E83EF82F88609878B
:104FF0001A872B873C87E981FA816B817C814F81FD
:10500000588529853A85DF01A80FB11D4A175B072E
:10501000A4F48B85480F511DE417F50774F48E81B5
:10502000AB01480F511D241735073CF48C85280F20
:10503000311D81E0621773070CF080E02C960FB6EB
:10504000F894DEBF0FBECDBFDF91CF911F910F91BE
:10505000FF90EF900895FC018091A801811103C099
:105060008FEF9FEF08959FB7F89482E08093E90057
:105070002091F20030E01216130614F421E030E023
:105080002115310559F0289884E68093A701809175
:10509000F10080838091F200882319F09FBFC9013D
:1050A00008958BE68093E800F9CF8091D0058111B7
:1050B0000DC082E08093CC0584E08093CD051092F2
:1050C000CF051092CE0581E08093D0058CEC95E061
:1050D0000895FC018485958597FD0BC09FB7F894D2
:1050E00082E08093E9008091F2009FBF90E00196FA
:1050F00008959FB7F89482E08093E9008091F200D0
:105100009FBF90E0089540912D0650912E0620916A
:105110002B0630912C0642175307B4F49091E80007
:105120009570E1F39091E80092FD19C08093F10031
:1051300080912D0690912E0601968F739927892BC9
:1051400019F48EEF8093E80080912D0690912E0641
:10515000019690932E0680932D0681E0089580E0BD
:105160000895DF92EF92FF920F931F93CF93DF93F7
:10517000D82E8A017B01E40EF51EEB01CE15DF056A
:1051800071F0D7FE03C0FE01849101C088810E94A6
:10519000832821968111F2CF8FEF9FEF01C0C801C4
:1051A000DF91CF911F910F91FF90EF90DF900895C5
:1051B000615030F02091F100FC0120830196F8CF7E
:1051C000289884E68093A7010895CF93DF931F92D8
:1051D000CDB7DEB7FC018485958597FD05C02FEF1F
:1051E0003FEF358724870BC0CE0101960E942B2804
:1051F000019719F4898190E002C08FEF9FEF0F9023
:10520000DF91CF9108950F931F93CF93DF931F9258
:10521000CDB7DEB78C01FC018485958597FF0EC064
:10522000CE0101960E942B28019719F4298130E0C4
:1052300002C02FEF3FEFF80135872487F8018485FE
:1052400095850F90DF91CF911F910F9108950F9346
:105250001F93CF93DF931F92CDB7DEB782E0898390
:1052600042E450E061ED72E380E80E94B1280E94C0
:105270005528DC0112960D911C911397011511050B
:1052800069F0D801ED91FC910280F381E02DBE011F
:105290006F5F7F4FC801099597FF07C089810F9005
:1052A000DF91CF911F910F910895F801008511852D
:1052B000E5CF1F920F920FB60F9211248F939F93F9
:1052C0008091E1009091E100937F9093E10083FF52
:1052D0000FC01092E90091E09093EB001092EC0067
:1052E00092E39093ED001092A80198E09093F00063
:1052F00082FF20C093E09093E9009091F2009923FF
:1053000019F09AE39093E8009091A501992339F060
:105310009091A50191509093A501992389F19091C5
:10532000A701992339F09091A70191509093A7017B
:10533000992341F184FF10C08091E2008E7E81604C
:105340008093E2008091E1008F7E8093E100809164
:10535000A6018E7E806111C080FF16C08091E200A0
:105360008E7E80618093E2008091E1008E7E80934A
:10537000E1008091A6018E7E81608093A60104C029
:105380005D9ACDCF289AD6CF9F918F910F900FBE67
:105390000F901F9018951F920F920FB60F92112425
:1053A000CF92DF92EF92FF920F931F932F933F9331
:1053B0004F935F936F937F938F939F93AF93BF931D
:1053C000EF93FF93CF93DF93CDB7DEB76C97DEBF3C
:1053D000CDBF1092E9008091E80083FFFAC168E038
:1053E000CE0145960E94D82882EF8093E8008D89EF
:1053F00087FF05C09091E80090FFFCCF03C09EEFAF
:105400009093E800982F907609F0C6C09E892F8966
:10541000188D91110CC0803829F480912906809351
:10542000F10002C01092F1001092F10047C1422F2A
:1054300050E0512B913051F4811140C14130510560
:1054400009F03CC1809129068D7F0BC0933061F437
:10545000811134C14130510509F030C180912906D4
:105460008260809329062AC1953041F48091E8003A
:1054700080FFFCCF20682093E30020C1963009F024
:105480005FC0EB8CFC8C1092E90010922E061092FB
:105490002D06123091F510922C0610922B060E94C8
:1054A000272999E0BE016F5F7F4FDB01E92F1D9235
:1054B000EA95E9F799831A8391E09E8390EA9887A9
:1054C0009AEF998720912D0630912E06275F3F4F46
:1054D0003C832B838D831092E90010922E0610924C
:1054E0002D06F0922C06E0922B0649E050E080E079
:1054F0000E94B1280E942729E1C0F0922C06E09278
:105500002B060E945528DC011296ED90FC90139713
:10551000E114F10409F4C0C0D701ED91FC910480BD
:10552000F581E02DBE016B5E7F4FC70109950097A5
:1055300019F00CF0C3C0C6C0F701E084F184E8CFD5
:10554000973009F4BFC0983021F481E08093F100D6
:10555000B5C0993009F0B2C0837009F0B3C0E1E67C
:10556000F1E081E021E036E39081992361F08093BE
:10557000E9002093EB0091919093EC003093ED00C3
:105580008F5F873089F78EE78093EA001092EA00F8
:105590008F898093A80192C08B8D9C8D1092E90019
:1055A00010922E0610922D0690932C0680932B06B7
:1055B000898D811156C08E899D89913A59F4813225
:1055C00009F080C047E050E065E171E080E00E94B2
:1055D000B12874C0913209F075C0833289F4888D86
:1055E00090E0982F88272F89822BA0E0B0E080934D
:1055F0001D0190931E01A0931F01B09320015EC076
:10560000803269F48091E80082FFFCCF67E085E199
:1056100091E00E94D8288BEF8093E80006C0823288
:1056200009F04CC08F8980931C0180912806882343
:1056300019F0EEEFFAE002C0E0E0F8E08091150129
:1056400090911601A0911701B0911801803B9440F0
:10565000A105B10509F088C080911C0180FFA0C0A0
:1056600083C00E945528DC0112960D911C9113975E
:105670000115110539F1D801ED91FC910190F081EE
:10568000E02DBE016B5E7F4FC8010995811116C0E8
:10569000F80100851185ECCF1130C1F0133091F481
:1056A0008F89882309F455C08230E9F440E860E12D
:1056B00083E293E30E94772F882321F08EEF80937B
:1056C000E80087C081E28093EB0083C08B8D9C8DC6
:1056D000089711F410932A0680912A06811136C08A
:1056E00064E373E338C0813029F440E86BE087E17C
:1056F00093E3E0CF833031F70E945528DC01129606
:10570000ED90FC9013978E010F5F1F4F6801E1141D
:10571000F10479F0D701ED91FC910680F781E02D3D
:10572000B801C7010995080F111DF701E084F18444
:10573000EECFD8011C92F60101900020E9F73197D5
:10574000BF016C197D0940E0C601B4CF66E473E384
:1057500002C063E173E36115710509F4B3CFFB0186
:10576000449150E080E833CF0FB6F894A89580912B
:105770006000886180936000109260000FBEA89561
:10578000EE3F2AE0F20739F08091FE0A9091FF0A7D
:105790009183808393CF1092FF0A1092FE0A8ECFDE
:1057A000EE3F8AE0F80731F0808191819093FF0A03
:1057B0008093FE0A87E797E7918380839BE088E1E7
:1057C0000FB6F894A895809360000FBE9093600088
:1057D00075CF6C960FB6F894DEBF0FBECDBFDF91CC
:1057E000CF91FF91EF91BF91AF919F918F917F9159
:1057F0006F915F914F913F912F911F910F91FF906A
:10580000EF90DF90CF900F900FBE0F901F901895E4
:10581000789484B5826084BD84B5816084BD85B58B
:10582000826085BD85B5816085BD80916E00816097
:1058300080936E001092810080918100826080933D
:10584000810080918100816080938100809180003F
:1058500081608093800080919100826080939100AC
:10586000809191008160809391008091900081608F
:10587000809390008091C10084608093C1008091EA
:10588000C10082608093C1008091C10081608093DB
:10589000C1008091C30081608093C3008091C000EB
:1058A00082608093C0008091C20081608093C200BA
:1058B00080917A00846080937A0080917A0082607F
:1058C00080937A0080917A00816080937A00809141
:1058D0007A00806880937A001092A80110922906BD
:1058E0001092A6018091D70081608093D70080EA52
:1058F0008093D80089B5806189BD89B5826089BDF2
:1059000009B400FEFDCF61E070E080E090E00E940D
:105910006C238091D8008F7C80618093D800809127
:10592000E000807F8093E0008091E1008E7E809394
:10593000E1008DE08093E200559A209AEEEFFFE7B8
:10594000859194918B3F9C4D19F481E080932806BA
:10595000CFB7F8948091A001811127C0E0E9F2E36C
:105960008491E3E6F2E39491E82FF0E0EE0FFF1F5D
:10597000E65DFD4CA591B491EC91E92321F461E041
:1059800081E10E94B42261E081E10E9430238CB564
:1059900080618CBD8CB580648CBD61E08FE00E941D
:1059A000302361E080E10E9430238091A0018F5F6D
:1059B0008093A001CFBFCEE9D2E3FE01849122966D
:1059C00031966491882319F00E943023F6CF61E06C
:1059D00086E00E94B42261E070E080E090E00E94E6
:1059E0006C2360E086E00E94B4226AE070E080E010
:1059F00090E00E946C2361E086E00E94B422EBE814
:105A0000F2E3E491F0E0EE0FFF1FEF58FD4C8591BB
:105A1000949190938B0180938A01EEE5F2E3E491F7
:105A2000E0938901E3E8F2E3E491F0E0EE0FFF1F79
:105A3000EF58FD4C85919491909388018093870154
:105A4000E6E5F2E3E491E09386018CB58C7F8CBDB2
:105A50008DB581608DBD0E948924C8E3D2E31C2FDF
:105A6000165EFE0184910E944E2021961C13F9CFF0
:105A70000E943A208091640081608093640080914C
:105A800064008260809364008091640080688093E9
:105A9000640080916400806480936400809165005C
:105AA0008160809365000E94892480E10E944E20DD
:105AB00082E00E944E200E943A20C0E0D4E080E0C4
:105AC0000E944E202197D9F70E946C2487FF3CC08A
:105AD0000E94892485EA0E944E200E943A2040E0DC
