:100000000C94A1080C94C9080C94C9080C94C90854
:100010000C94C9080C94C9080C94C9080C94C9081C
:100020000C94C9080C94C9080C9442100C94B41098
:100030000C94C9080C94C9080C94C9080C94C908FC
:100040000C94C9080C94720C0C94C9080C94C9083F
:100050000C94C9080C94C9080C94C9080C941C0B86
:100060000C94C9080C94C9080C94C9080C94C908CC
:100070000C94C9080C94C9080C94C9080C94C908BC
:100080000C94100D0C94C9080C94C9080C94C90860
:100090000C94C9080C94C9080C94C9080C94C9089C
:1000A0000C94C9080C94C9080C94C908D609D9093C
:1000B000C809CC09D009FA09FA09FA09DD09E109E8
:1000C000E509EB09EF09FA09F509710A760A7B0AD5
:1000D000850A8F0AD90AD90AD90A990AA30AAD0A48
:1000E000B70AC40AD90ACC0AF0F89C8E8783878E97
:1000F0009CF8F00000FEFF0303030303070EFCF867
:100100000000FEFF0303030303070EFCF80000FFDB
:10011000FF00000000000000FFFF0000FEFF8383DF
:10012000838383C7EE7C380000F8FC0E07030303CB
:10013000070EFCF800003F7FE0C08080C0E07F3FFA
:10014000FFFF01010101010101FFFF0000FFFF0CA2
:100150000C0C0C1C3E77E3C100007FFFC0C0C0C088
:10016000C0E0703F1F00001F3F70E0C0C0C0E070E3
:100170003F1F00007FFFC1C1C1C1C1E3773E1C002A
:10018000001F3F70E0C0C0C0E0703F1F00000000D3
:100190000001FFFF01000000000000002400270014
:1001A0002A002D003000AED580A83FD300408D142A
:1001B0002002A1C8DA1281CFD9F1DB402EA4A6AF6C
:1001C00014021302120215020702080204010C01B4
:1001D0000601000000000000002000000000F010F8
:1001E000101090909090909090909090909090900F
:1001F00090F00000F01010109090909090909090DF
:1002000090101010F00000F010101490909090904A
:1002100090909090101010F00000F010101090903E
:1002200090909090909090909090F00000F010102E
:1002300010909090909090909090909090F00000FE
:1002400000000000000000000000000000080000A6
:100250000000000000000000000000000000FF009F
:1002600000003F20202020202020242020202020AB
:1002700020E00000FF0000003F202020242020205C
:100280003F000000FF0000FF0000003F202020246E
:100290002020203F000000FF0000FF000000FF00C2
:1002A00000000000000000000000000000FF00004F
:1002B000003F2020202020E8000000000000000077
:1002C00000000000800000000000000000000000AE
:1002D0000000000000000000000000000000030219
:1002E00002020202020202120202020202FE0000E6
:1002F00000FF0000FF000000FE02020202022202D4
:1003000002020202030000FF000000FE02020202DD
:10031000420202FE000000FF0000FF000000FF009C
:1003200000000000000000000200000000FF0000CC
:1003300000FE0202021202030000000000000000A2
:1003400000000000000000000000000000000000AD
:1003500080000000000000002000000000000F09E5
:10036000090909090909090909098989898988087F
:10037000080F00000F0808088F8080808000008030
:10038000808080800000000F0808080F8080808037
:10039000800000FF000000FF00008F8888888989A6
:1003A000898989898989898989898F00008F8888C5
:1003B000888989898989898989898989898F0000BA
:1003C000000000000000000000000000000000002D
:1003D0000000000000000000000000000000000815
:1003E00000000000000000000000FF000000FF000F
:1003F000804020108844221108040201000000FF00
:10040000000000010618608008000000FF000000E6
:10041000FF00009F204080FF0000FF000000FC0460
:1004200004040404040404040404070000FF00009E
:1004300000FC04040404040444040404040700004D
:1004400000000000010000000000000000000000AB
:10045000000000808080808080808080808080801C
:1004600080808080808080808000FF000000235199
:10047000880402818080848080808080808000FF6A
:10048000000000FF0C30C00106186080FF00000073
:10049000FF00009F214284F90000FF000000F111DD
:1004A000919191919F8080808480808000FF0000E6
:1004B00000F11191919191919F8080808080808046
:1004C000808080808080808080808080808082802A
:1004D0008080800B0B0B0B0B0B0B0B0B0B0B0B0B0D
:1004E0000B0B0B0B0B0B0B0B0B00FF000000FE04A8
:1004F000081122448913234B8B0B0B0B0B0B00FFB2
:10050000000000FF000000030C30C00107000000E5
:10051000FF0000FF010204F90000FF000000FF00DF
:100520000B0B0B0B0B0B0B0B0B0B0B0B00FF000048
:1005300000FF000B0B0B0B0B0B0B0B0B0B0B0B0B2D
:100540000B0B0B0B0B0B0B0B0B0B0B0B0B0B0B0BFB
:100550000B0B0B0000000008000000000000000072
:10056000000001000000000000000F0808080F0054
:10057000000000000001020408090A0C0800000F36
:100580000808080F00000000000200030C0808081B
:100590000F00000F0808080F00000F0808080F00E0
:1005A000000000000040000000000000000F0808EC
:1005B000080909090909090909090909090F0000B8
:1005C0000000000000000000000000000400000027
:1005D000000000FFFFFFFFFFFFFFFFFFFFFFFFFF28
:1005E000FFFFFFFFFFFFFFFFFFFFFFFFFFFFFFFF1B
:1005F000FFFFFFFFFFFFFFFFFFFFFFFFFFFFFFFF0B
:10060000FFFFFFFFFFFFFFFFFFFFFFFFFFFFFFFFFA
:10061000FFFFFFFFFFFFFFFFFFFFFFFFFFFFFFFFEA
:10062000FFFFFFFFFFFFFFFFFFFFFFFFFFFFFFFFDA
:10063000FFFFFF3F3F3F3F3F7FFFFFFFFFFFFFFF0A
:10064000FFFFFFFFFFFFFFFFFFFFFFFFFFFFFFFFBA
:10065000FFFFFFFFFFFFFFFFFFFFFFFFFFFFFFFFAA
:10066000FFFFFFFFFFDFDF0707070F1F3FFFFFFF52
:10067000FFFFFFFFFFFFFFFFFFFFFFFFFFFFFFFF8A
:10068000FFFFFFFFFFFFFFFFFFFFFFFFFFFFFFFF7A
:10069000DF1F0F0F0F0F1F3F7FFFFFFFFFFFFFFF4A
:1006A000FFFFFFFFFFFFFFFFFFFFFFFFFF7F7F7FDA
:1006B0001F0F030000000000007C7D7F7F7F7F7F95
:1006C0007F7F7F7FBFBFBFBFBFBFBFBFBFBFBFBF3A
:1006D000BFBFBFF7F7F7F7F7F7F7F7F7F7F7F7F752
:1006E000F7F7F7F7F7F7F7F8F8F8F0E0E0E3FBFBD8
:1006F000FBFBFBFBFBFBFBFBFBFBFBFBFBFBFDFD46
:10070000FDFDFDFDFDFDFDFDFDFDFDFDFDFDFDFD19
:10071000FDFCF8F8F8F8F8F8FCFEFEFEFEFEFEFE22
:10072000FEFEFEFEFEFEFEFEFEFEFEFEFEFFFFFFE6
:10073000FFFFFEFEFEFEFEFFFFFFFFFFFFFFFFFFCE
:10074000FFFFFFFFFFFFFFFFFFFFFFFFFFFFFFFFB9
:10075000FFFFFFFFFFFFFFFFFFFFFFFFFFFFFFFFA9
:10076000FFFFFFFFFFFFFFFFFFFFFFFFFFFFFFFF99
:10077000FFFFFFFFFFFFFFFFFFFFFFFF7F7F7F7F89
:10078000FFFFFFFFFFFFFFFFFFFFFFFFFFFFFFFF79
:10079000FFFFFFFFFFFFFFFFFFFFFFFFFFFFFFFF69
:1007A000FFFFFFFFFFFFFFFFFFFFFFFFFFFFFFFF59
:1007B000FFFFFFFFFFFFFFFFFFFFFFFFFFFFFFFF49
:1007C000FFFFFFFFFFFFFFFFFFFFFFFFFFFFFFFF39
:1007D000FFFFFFFFFFFFFFFFFFFFFFFFFFFFFFFF29
:1007E000FFFFFFFFFFFFFFFFFFFFFFFFFFFFFFFF19
:1007F000FFFFFFFFFFBFBF9F9F0100000000000041
:100800001D1D3FBFFFFFFFFFFFFFFFFFFFFFFFFFBC
:10081000FFFFFFFFFFFF9F9F8F8707070F0F0F0F40
:100820000F0F1F1F1F0F030383C7FFFFFFFFFFFFF4
:10083000FFFFFFFFFFFFFFFFFFFFFFFFFFFFFFFFC8
:10084000FFFFFFFFFFFFFFFFFFFFFFFFFFFFFFFFB8
:10085000FFFFFFFEFEFEFEFEFEFEFEFEFEFEFEFEB5
:10086000FEFEFEFEFEFEFEFEFEFEFEFEFEFEFEFEA8
:10087000FEFEFEFEFEFEFAF8F0F0F0F0F0F0F8FCFE
:10088000FDFDFDFDFDFDFDFDFDFDFDFDFDFDFDFD98
:10089000FDFDFDFDFDFDFDFDFDFDFDFCFCFCF8F895
:1008A000F8F8F8F8FCFCFCFDFDFDFBFBFBFBFBFB9B
:1008B000FBFBFBFBFBFBFBFBFBFBFBFBFBFBFBFB88
:1008C000FBFBFBFBFBFBFBFBFBFBFBFBFBFBFBFB78
:1008D000FBFBFBFFFFFFFFFFFF9F6F6F6F6FEFFFE4
:1008E000EF01EFFF0FDFEFEFEF3F5F6F6F6F6F5FB6
:1008F0003FFF3F5F6F6F6F6F5F3FFFEF01EFFF3FA6
:10090000DFEFEFEFEF1FFFFFFF01FFFF3FDFEFEF35
:10091000EFEFFF01DFEFEFEFDF3FFF3F5F6F6F6F45
:100920006F5F3FFF0FDFEFEF9FEFEF1FFF17FF9F9F
:100930006F6F6F6FEFFFEF01EFFFFFFFFFFFFFFF35
:10094000FFFFFFFFFFFFFFFFFFFFFFFFFFFFFFFFB7
:10095000FFFFFFFFFFFFFFFFFFFBFBFBFBFBFCFFBE
:10096000FFFCFBFFF8FFFFFFFFFCFBFBFBFBFBFFBC
:10097000FFFFFCFBFBFBFBFBFFFFFFFFFCFBFFFEA6
:10098000FDFBFBFBFBFCFBFFFFFCFBFFFEFDFBFBA2
:10099000FBFBFFF8FFFFFFFFFFF8FFFCFBFBFBFB90
:1009A000FBFFFFFFF8FFFFFFFFFFFFF8FFF8FFFB74
:1009B000FBFBFBFBFCFFFFFCFBFFFFFFFFFFFFFF61
:1009C000FFFFFFFFFFFFFFFFFFFFFFFFFFFFFFFF37
:1009D000FFFFFF80C080808080808080C0C0C0C05A
:1009E000C0C0C080008080800001000000000000C6
:1009F00000010101010101010000000000804040F0
:100A0000408040203090D0D0C8C840404080008016
:100A100080800001010100010206040505090901A9
:100A2000010100000000008040201080402010885C
:100A3000C4E2F1F8102040800080C0800001020470
:100A400000010204081123470F0402010000000105
:100A500000080808001C009C54369454565555351F
:100A60001D5E5C3810000000000000020101000063
:100A700000000000000000000000000000003E5BDD
:100A80004F5B3E3E6B4F6B3E1C3E7C3E1C183C7EDB
:100A90003C181C577D571C1C5E7F5E1C00183C18C0
:100AA00000FFE7C3E7FF0018241800FFE7DBE7FFBC
:100AB00030483A060E2629792926407F0505074049
:100AC0007F05253F5A3CE73C5A7F3E1C1C08081C0A
:100AD0001C3E7F14227F22145F5F005F5F06097F48
:100AE000017F006689956A606060606094A2FFA2E1
:100AF0009408047E040810207E201008082A1C0890
:100B0000081C2A08081E101010100C1E0C1E0C3099
:100B1000383E3830060E3E0E060000000000000091
:100B20005F00000007000700147F147F14242A7F51
:100B30002A1223130864623649562050000807031E
:100B400000001C2241000041221C002A1C7F1C2A9C
:100B500008083E08080080703000080808080800EF
:100B60000060600020100804023E5149453E0042EA
:100B70007F400072494949462141494D33181412BA
:100B80007F1027454545393C4A49493141211109E2
:100B9000073649494936464949291E0000140000D4
:100BA00000403400000008142241141414141400EE
:100BB0004122140802015909063E415D594E7C123A
:100BC00011127C7F494949363E414141227F4141D2
:100BD000413E7F494949417F090909013E4141514F
:100BE000737F0808087F00417F41002040413F019A
:100BF0007F081422417F404040407F021C027F7FDB
:100C00000408107F3E4141413E7F090909063E41EB
:100C100051215E7F09192946264949493203017F3E
:100C200001033F4040403F1F2040201F3F403840CD
:100C30003F631408146303047804036159494D4366
:100C4000007F4141410204081020004141417F04DE
:100C500002010204404040404000030708002054C5
:100C60005478407F28444438384444442838444425
:100C7000287F385454541800087E090218A4A49CF4
:100C8000787F0804047800447D40002040403D0007
:100C90007F1028440000417F40007C047804787C69
:100CA000080404783844444438FC182424181824D0
:100CB0002418FC7C08040408485454542404043FB9
:100CC00044243C4040207C1C2040201C3C403040C0
:100CD0003C44281028444C9090907C4464544C44EC
:100CE000000836410000007700000041360800028D
:100CF000010204023C2623263C1EA1A161123A40B7
:100D000040207A385454555921555579412154542D
:100D10007841215554784020545579400C1E527228
:100D20001239555555593954545459395554545804
:100D30000000457C410002457D420001457C40F0B9
:100D4000292429F0F0282528F07C5455450020540A
:100D5000547C547C0A097F49324949493232484817
:100D60004832324A4848303A4141217A3A4240209A
:100D700078009DA0A07D39444444393D4040403D29
:100D80003C24FF2424487E4943662B2FFC2F2BFF55
:100D90000929F620C0887E090320545479410000B7
:100DA000447D413048484A32384040227A007A0A2D
:100DB0000A727D0D19317D2629292F2826292929F6
:100DC0002630484D40203808080808080808083828
:100DD0002F10C8ACBA2F102834FA00007B0000088E
:100DE000142A142222142A14089500220095AA001D
:100DF0005500AAAA55AA55AA000000FF001010101D
:100E0000FF00141414FF001010FF00FF1010F0106A
:100E1000F0141414FC001414F700FF0000FF00FF8E
:100E20001414F404FC141417101F10101F101F14B6
:100E300014141F00101010F0000000001F101010FC
:100E4000101F10101010F010000000FF10101010F4
:100E50001010101010FF10000000FF140000FF0021
:100E6000FF00001F10170000FC04F41414171017E3
:100E70001414F404F40000FF00F7141414141414F0
:100E800014F700F7141414171410101F101F141463
:100E900014F4141010F010F000001F101F000000D8
:100EA0001F14000000FC140000F010F01010FF10E0
:100EB000FF141414FF141010101F00000000F01095
:100EC000FFFFFFFFFFF0F0F0F0F0FFFFFF0000007A
:100ED0000000FFFF0F0F0F0F0F38444438447C2AE7
:100EE0002A3E147E02020606027E027E02635549F5
:100EF00041633844443C04407E201E2006027E02AA
:100F00000299A5E7A5991C2A492A1C4C7201724C2A
:100F1000304A4D4D303048784830BC625A463D3EEC
:100F2000494949007E0101017E2A2A2A2A2A44448D
:100F30005F444440514A444040444A51400000FF0D
:100F40000103E080FF000008086B6B0836123624AE
:100F500036060F090F0600001818000000101000D8
:100F60003040FF0101001F01011E00191D17120072
:100F70003C3C3C3C00000000000601150126013706
:100F8000014A015D01720188019F01B801D201EEA1
:100F9000010B022A024B026E029302BA02E4021013
:100FA000033F037003A403DC03170455049704DD17
:100FB0000427057505C80520067D06E0064907B823
:100FC000072D08A9082D09B9094D0AEA0A900B4016
:100FD0000CFA0CC00D910E6F0F5A1053115B127268
:100FE000139A14D41520178018F519801B231DDEC1
:100FF0001EB420A622B524E4263429A72B402E00B7
:1010000031EA330037453ABC3D68414C456B49C82D
:101010004D68524F57805C0062101112131516175D
:10102000181A1C1D1F21232527292C2E3134373A4D
:101030003E4145494E52575C62686E757B838B9387
:101040009CA5AFB9C4D0DCE9F70000000200090F8D
:101050000000030401000C0000000000000000007C
:101060000000000000000000080B00020202010066
:1010700009040000010202000005240010010524FB
:10108000010101042402060524060001070581036D
:1010900010004009040100020A00000007050202D6
:1010A0004000000705830240000004030904417268
:1010B0006475696E6F204C4C430041726475696EB3
:1010C0006F204C656F6E6172646F00120100020048
:1010D000000040412336800001010203011201009B
:1010E00002EF0201404123368000010102030104A6
:1010F0000802011040804010204080408008020417
:10110000018040201002011080102040402000008B
:101110000000250028002B002E00310004040404E8
:10112000040304050202020204030202020206068C
:1011300006060606040402020204040301000F1B53
:10114000031B11241FBECFEFDAE0DEBFCDBF12E0DC
:10115000A0E0B1E0E6EAFEE302C005900D92A23302
:10116000B107D9F727E0A2E3B2E001C01D92AB3A84
:10117000B207E1F718E0C0EAD8E004C02197FE0109
:101180000E94011CCF39D107C9F70E9447150C9462
:10119000461F0C940000CF92DF92EF92FF920F93C4
:1011A0001F93CF93DF936C017A018B01C0E0D0E0F5
:1011B000CE15DF0589F0D8016D918D01D601ED9135
:1011C000FC910190F081E02DC6010995892B11F465
:1011D0007E0102C02196ECCFC701DF91CF911F9114
:1011E0000F91FF90EF90DF90CF9008953FB7F89464
:1011F0008091510290915202A0915302B0915402F9
:1012000026B5A89B05C02F3F19F00196A11DB11D61
:101210003FBFBA2FA92F982F8827820F911DA11D9C
:10122000B11DBC01CD0142E0660F771F881F991FD9
:101230004A95D1F70895FC0122813381620F731F13
:10124000758364830895DC011496ED91FC911597E4
:101250009F012F5F3F4F15963C932E9314978491D7
:1012600008950E94FE1D0C949C1C0F931F93CF9316
:10127000DF93EC0188819981009729F02A813B81D5
:101280002617370788F48B016F5F7F4F0E94341D4C
:10129000009761F0998388831B830A832C813D81A9
:1012A000232B11F4FC01108281E001C080E0DF916A
:1012B000CF911F910F910895EF92FF920F931F937B
:1012C000CF93DF93EC017B018A01BA010E943509BB
:1012D0002881398181110DC02115310519F0C9010D
:1012E0000E949C1C198218821D821C821B821A82F9
:1012F00006C01D830C83B701C9010E940C1ECE01DC
:10130000DF91CF911F910F91FF90EF900895CF93B0
:10131000DF9300D000D0CDB7DEB761157105810530
:10132000910579F09B01AC0169833A834B835C831F
:101330000E94611E29813A814B815C810E94AC1E12
:1013400003C060E070E0CB010F900F900F900F9002
:10135000DF91CF910895362F90E0FC01E75BFF4EBF
:101360004491FC01E151FF4E2491FC01E45EFE4EEC
:101370008491882309F451C04423E1F150E0FA013B
:101380003197EF30F105B0F5EA5AFF4F0C94011C8C
:10139000909180009F7707C0909180009F7D03C04F
:1013A00090918000977F9093800024C094B59F77A0
:1013B00002C094B59F7D94BD1DC0909190009F7711
:1013C00007C0909190009F7D03C090919000977FFF
:1013D000909390000FC09091C0009F7703C09091B0
:1013E000C0009F7D9093C00005C09091C200977F80
:1013F0009093C200E82FF0E0EE0FFF1FE25FFE4E79
:10140000A591B4918FB7F894EC91311103C0209558
:101410002E2301C02E2B2C938FBF0895CF93DF93E3
:1014200090E0FC01E151FF4E2491FC01E45EFE4E90
:101430008491882361F190E0880F991FFC01E856A0
:10144000FE4FC591D491FC01E25FFE4EA591B4918F
:10145000611109C09FB7F894888120958223888301
:10146000EC912E230BC0623061F49FB7F894388161
:10147000822F809583238883EC912E2B2C939FBF02
:1014800006C08FB7F894E8812E2B28838FBFDF9199
:10149000CF9108951F93CF93DF93182FEB0161E055
:1014A0000E940E0A209711F460E004C0CF3FD105DE
:1014B00039F461E0812FDF91CF911F910C94AB093A
:1014C000E12FF0E0E75BFF4EE4914E2F50E0FA0190
:1014D0003197EF30F10508F06CC0EB59FF4F0C94D9
:1014E000011C84B5806884BDC7BD68C084B58062B6
:1014F00084BDC8BD63C080918000806880938000F7
:10150000D0938900C093880059C080918000806288
:1015100080938000D0938B00C0938A004FC080914D
:101520008000886080938000D0938D00C0938C00F1
:1015300045C080919000806880939000D09399007E
:10154000C09398003BC0809190008062809390008F
:10155000D0939B00C0939A0031C080919000886026
:1015600080939000D0939D00C0939C0027C08091F1
:10157000C00080688093C0008091C0008F7B809302
:10158000C000C093CF001AC08091C00080628093D9
:10159000C000C093D00012C08091C20088608093C8
:1015A000C2008091C2008B7F8093C200C093D200A2
:1015B00005C0C038D1050CF07CCF76CFDF91CF913C
:1015C0001F9108958F929F92AF92BF92CF92DF9218
:1015D000EF92FF926B017C010E94F6084B015C01C7
:1015E000C114D104E104F104F1F00E94F608DC0119
:1015F000CB0188199909AA09BB09883E9340A10526
:10160000B10570F321E0C21AD108E108F10888EEB3
:10161000880E83E0981EA11CB11CC114D104E10402
:10162000F10419F7DDCFFF90EF90DF90CF90BF90DE
:10163000AF909F908F9008951F920F920FB60F92C8
:1016400011242F933F938F939F93AF93BF938091D8
:10165000390290913A02A0913B02B0913C02309144
:10166000500223E0230F2D3720F40196A11DB11D58
:1016700005C026E8230F0296A11DB11D209350023C
:101680008093390290933A02A0933B02B0933C02BC
:101690008091510290915202A0915302B091540254
:1016A0000196A11DB11D8093510290935202A09307
:1016B0005302B0935402BF91AF919F918F913F918C
:1016C0002F910F900FBE0F901F9018958FB12CB1D6
:1016D00093B130E02095309520743327A90123E0A1
:1016E000559547952A95E1F7292F30E020953095BB
:1016F000207133273595279535952795242B80958F
:10170000807F822B0895E0913702F091380290811A
:1017100080913602892B8083E0913402F09135026A
:10172000908180913302809589238083E0913702F4
:10173000F0913802908180913602809589238083D0
:101740000895E0913402F091350290818091330246
:10175000892B8083E0913702F0913802908180914B
:10176000360280958923808308958EBD00000DB4D4
:1017700007FEFDCF8EB50895CF92DF92EF92FF92D4
:101780000F931F93CF936C0100E810E0C0E0E12CB1
:10179000F12C0E94830B80E10E94B50B82E00E9435
:1017A000B50B8C2F806B0E94B50B0E94A10BF6012C
:1017B000EE0DFF1D80818EBD97012F5F3F4F790198
:1017C000201731074CF4F601E20FF31F80810DB4AE
:1017D00007FEFDCF8EBDF1CF0DB407FEFDCFCF5F6D
:1017E00000581F4FC830A9F6CF911F910F91FF905D
:1017F000EF90DF90CF900895CF92DF92EF92FF921B
:101800000F931F93CF93E82FF0E0E55CFE4EC49159
:10181000E62FF0E0603330F4E75EFF4EE4910E2FE8
:1018200010E006C0EE0FFF1FE75EF04F0591149128
:101830006801E12CF12C60E074E284EF90E0A701F4
:1018400096010E94AC1EBA01A901415051096109DB
:1018500071094115510581E06807710580F060E963
:1018600070ED83E090E0A70196010E94AC1EBA01E2
:10187000A901415051096109710983E001C081E06A
:10188000C130C9F0C33031F590919100987F892B18
:1018900080939100509399004093980010934F02C9
:1018A00000934E0281E080934D028091710082602E
:1018B000809371000FC090918100987F892B809355
:1018C0008100509389004093880080916F0082606E
:1018D00080936F00CF911F910F91FF90EF90DF9059
:1018E000CF9008951F920F920FB60F9211242F934D
:1018F0003F938F939F93AF93BF93EF93FF93809109
:101900004602882309F44DC080914202909143021F
:10191000A0914402B0914502892B8A2B8B2B51F167
:1019200080916302E0916402F091650290818927C1
:1019300080838091420290914302A0914402B09131
:101940004502181619061A061B06A4F580914202D4
:1019500090914302A0914402B09145020197A109E0
:10196000B1098093420290934302A0934402B09342
:10197000450220C01092460280916F008D7F8093B7
:101980006F0090916302E0916402F09165028081A2
:10199000282F30E0892F90E0809590958223932323
:1019A00008C080916302E0916402F0916502908129
:1019B00089278083FF91EF91BF91AF919F918F9184
:1019C0003F912F910F900FBE0F901F901895E82F09
:1019D000F0E0E55CFE4EE491E13019F0E33069F0AF
:1019E000089580916F008D7F80936F0090916302C6
:1019F000E0916402F091650208C010924D0290914E
:101A00006002E0916102F09162028081282F30E053
:101A1000892F90E080959095822393238083089569
:101A20001F920F920FB60F9211242F933F934F9353
:101A30005F936F937F938F939F93AF93BF93EF9336
:101A4000FF9380914D02882349F080916002E091DC
:101A50006102F09162029081892780838091320235
:101A6000882309F493C08091490290914A02A09181
:101A70004B02B0914C02892B8A2B8B2B09F486C028
:101A80008091490290914A02A0914B02B0914C0280
:101A90000197A109B1098093490290934A02A0934A
:101AA0004B02B0934C02892B8A2B8B2B09F06EC012
:101AB000E0914702F0914802BF016F5F7F4F709342
:101AC0004802609347024491942F907F842F8F7037
:101AD000903819F40E94E70CEBCF903981F43296DC
:101AE000F0934802E0934702FB01649190916602F3
:101AF0008917F0F667FDDCCF0E94FC0BD9CF903E32
:101B000029F41092480210924702D2CF903F19F464
:101B1000109232023BC097FDCBCF3296F093480231
:101B2000E0934702FB01249130E0342BA0914E0258
:101B3000B0914F020E94371F6C507E4F8F4F9F4FC6
:101B400028EE33E040E050E00E94151F2093490248
:101B500030934A0240934B0250934C0280914902C9
:101B600090914A02A0914B02B0914C02892B8A2B92
:101B70008B2B61F481E090E0A0E0B0E0809349021B
:101B800090934A02A0934B02B0934C02FF91EF91C5
:101B9000BF91AF919F918F917F916F915F914F9185
:101BA0003F912F910F900FBE0F901F9018956038A6
:101BB000710518F54034510500F5A42FA695A6959A
:101BC000A695B0E047705527B695BA2FAA27B795C6
:101BD000A7956A0F7B1FFC01E60FF71F81E090E0DD
:101BE00001C0880F4A95EAF7222319F09489892BBE
:101BF00003C0809594898923848B08952F923F9206
:101C00004F925F926F927F928F929F92AF92BF920C
:101C1000CF92DF92EF92FF920F931F93CF93DF93B8
:101C2000CDB7DEB72A970FB6F894DEBF0FBECDBF93
:101C30006A3091F4FC01E85EFB4F408132972081CD
:101C4000318158E0459F200D311D112431832083BF
:101C5000329711821082C1C06D3009F4BEC09A87DC
:101C60008987885E9B4F9C838B83DC012C90E98560
:101C7000FA85EA5EFB4F60807180E985FA85EC5E4B
:101C8000FB4FFA83E9830081118100381105D4F0FC
:101C9000AB81BC812C91422F50E0E981FA81808197
:101CA0009181F6E02F9F800D911D1124A981BA81A9
:101CB0008D939C93E985FA85E75EFB4F2081211186
:101CC0005EC08BC0B0E46B16710414F7C801E5E088
:101CD0002E9E800D911D112418161906CCF6422C4B
:101CE000512CC301F8E02F9E800D911D1124181670
:101CF000190674F655E0659F900111243F832E83E9
:101D0000E12CF12C85E0E816F10441F0EE81FF8131
:101D1000EE0DFF1DE758F54F349001C0312C6301E3
:101D200038E0932D91709D834801882D801B82158A
:101D3000B0F456018A2D8C19821568F42D81A50105
:101D4000B40189859A8538870E94D70DAFEFAA1A0A
:101D5000BA0A3885EFCFBFEF8B1A9B0AE6CF3694CD
:101D60003150C40CD51C3111DCCFEFEFEE1AFE0A56
:101D7000040D151DF6E0EF16F10421F689CF6AEF88
:101D800064039001659F300D112420583F4F2817A0
:101D900039071CF5A985BA85ED91FC911197019041
:101DA000F081E02D6AE0CD012A960FB6F894DEBFEF
:101DB0000FBECDBFDF91CF911F910F91FF90EF909C
:101DC000DF90CF90BF90AF909F908F907F906F905B
:101DD0005F904F903F902F9009942A960FB6F894F9
:101DE000DEBF0FBECDBFDF91CF911F910F91FF904E
:101DF000EF90DF90CF90BF90AF909F908F907F90AB
:101E00006F905F904F903F902F9008950895CF93DB
:101E1000DF931F92CDB7DEB76983DC01ED91FC91B2
:101E20000280F381E02D41E050E0BE016F5F7F4F03
:101E300009950F90DF91CF91089583E08093E90099
:101E40008091F200882319F08AE38093E8000895D6
:101E5000FC018485958597FD0BC09FB7F89482E0BF
:101E60008093E9008091F2009FBF90E00196089571
:101E70009FB7F89482E08093E9008091F2009FBFC1
:101E800090E008958F929F92AF92BF92CF92DF928F
:101E9000EF92FF920F931F93CF93DF935C016B013F
:101EA0008A0180911201882309F45EC080915F024B
:101EB000882309F459C080915B0280FF05C080919E
:101EC000E00082608093E000E8018AEFF82E93E062
:101ED000E92E2FE3822E3AE3932E209709F43DC09A
:101EE0008FB7F894E092E9009091E80095FF06C062
:101EF0009091F200282D291B922F01C090E08FBFF6
:101F000091110AC0FA94FF2079F161E070E080E05D
:101F100090E00E94E20AE1CF292F30E0C217D307F8
:101F20000CF49C2F8FB7F894E092E9002091E80020
:101F300025FF11C0292F30E0C21BD30BF6019150B1
:101F400020F041914093F100FACFC20ED31E909140
:101F5000E80095FF13C08FBFC0CF5D9884E68093E3
:101F60005D021016110644F081E090E0F5019383C4
:101F7000828380E090E005C0C80103C09092E80031
:101F8000EACFDF91CF911F910F91FF90EF90DF90FB
:101F9000CF90BF90AF909F908F900895CF93DF9395
:101FA0001F92CDB7DEB7FC018485958597FD05C0EE
:101FB0002FEF3FEF358724870BC0CE0101960E949B
:101FC000A714019719F4898190E002C08FEF9FEF69
:101FD0000F90DF91CF9108950F931F93CF93DF93CD
:101FE0001F92CDB7DEB78C01FC018485958597FFE4
:101FF0000EC0CE0101960E94A714019719F4298101
:1020000030E002C02FEF3FEFF80135872487F80159
:10201000848595850F90DF91CF911F910F91089541
:102020000F931F93CF93DF931F92CDB7DEB782E05C
:10203000898342E450E068E670E180E80E9413156D
:102040000E94D114DC0112960D911C911397011579
:10205000110569F0D801ED91FC910280F381E02D2A
:10206000BE016F5F7F4FC801099597FF07C0898147
:102070000F90DF91CF911F910F910895F801008586
:102080001185E5CF1F920F920FB60F9211248F93F7
:102090009F938091E1009091E100937F9093E10004
:1020A00083FF0FC01092E90091E09093EB00109233
:1020B000EC0092E39093ED0010925F0298E0909311
:1020C000F00082FF20C093E09093E9009091F2002D
:1020D000992319F09AE39093E80090915D02992377
:1020E00039F090915D02915090935D02992389F1AE
:1020F00090915E02992339F090915E0291509093F5
:102100005E02992341F184FF10C08091E2008E7E2F
:1021100081608093E2008091E1008F7E8093E100F6
:1021200080915B028E7E806111C080FF16C080911D
:10213000E2008E7E80618093E2008091E1008E7EDD
:102140008093E10080915B028E7E816080935B02D0
:1021500004C05D9ACDCF289AD6CF9F918F910F90D2
:102160000FBE0F901F9018951F920F920FB60F92EF
:102170001124CF92DF92EF92FF920F931F932F9330
:102180003F934F935F936F937F938F939F93AF93FF
:10219000BF93EF93FF93CF93DF93CDB7DEB76C97E9
:1021A000DEBFCDBF1092E9008091E80083FFFAC145
:1021B00068E0CE0145960E943A1582EF8093E800D0
:1021C0008D8987FF05C09091E80090FFFCCF03C088
:1021D0009EEF9093E800982F907609F0C6C09E89F4
:1021E0002F89188D91110CC0803829F480915A02E2
:1021F0008093F10002C01092F1001092F10047C1EB
:10220000422F50E0512B913051F4811140C14130A7
:10221000510509F03CC180915A028D7F0BC093306B
:1022200061F4811134C14130510509F030C1809110
:102230005A02826080935A022AC1953041F48091FB
:10224000E80080FFFCCF20682093E30020C1963097
:1022500009F05FC0EB8CFC8C1092E90010925802E0
:1022600010925702123091F51092560210925502B8
:102270000E94101099E0BE016F5F7F4FDB01E92FD4
:102280001D92EA95E9F799831A8391E09E8390EA7B
:1022900098879AEF99872091570230915802275FCB
:1022A0003F4F3C832B838D831092E900109258029C
:1022B00010925702F0925602E092550249E050E027
:1022C00080E00E9413150E941010E1C0F0925602A7
:1022D000E09255020E94D114DC011296ED90FC9020
:1022E0001397E114F10409F4C0C0D701ED91FC91FA
:1022F0000480F581E02DBE016B5E7F4FC70109951B
:10230000009719F00CF0C3C0C6C0F701E084F18457
:10231000E8CF973009F4BFC0983021F481E0809372
:10232000F100B5C0993009F0B2C0837009F0B3C0B4
:10233000E2E2F1E081E021E036E39081992361F06F
:102340008093E9002093EB0091919093EC003093FF
:10235000ED008F5F873089F78EE78093EA00109257
:10236000EA008F8980935F0292C08B8D9C8D1092C2
:10237000E9001092580210925702909356028093EF
:102380005502898D811156C08E899D89913A59F4E3
:10239000813209F080C047E050E06BE071E080E0FE
:1023A0000E94131574C0913209F075C0833289F40C
:1023B000888D90E0982F88272F89822BA0E0B0E0AD
:1023C0008093070190930801A0930901B0930A013B
:1023D0005EC0803269F48091E80082FFFCCF67E044
:1023E0008BE091E00E943A158BEF8093E80006C0E5
:1023F000823209F04CC08F8980931201809159027A
:10240000882319F0EEEFFAE002C0E0E0F8E08091F6
:102410000B0190910C01A0910D01B0910E01803B38
:102420009440A105B10509F088C08091120180FF98
:10243000A0C083C00E94D114DC0112960D911C91A2
:1024400013970115110539F1D801ED91FC91019017
:10245000F081E02DBE016B5E7F4FC80109958111AF
:1024600016C0F80100851185ECCF1130C1F0133092
:1024700091F48F89882309F455C08230E9F440E84B
:1024800060E18AEB90E10E94901B882321F08EEF9F
:102490008093E80087C081E28093EB0083C08B8D3E
:1024A0009C8D089711F410935C0280915C0281115D
:1024B00036C06BEC70E138C0813029F440E86BE045
:1024C0008EEA90E1E0CF833031F70E94D114DC0135
:1024D0001296ED90FC9013978E010F5F1F4F6801CD
:1024E000E114F10479F0D701ED91FC910680F781B8
:1024F000E02DB801C7010995080F111DF701E0840F
:10250000F184EECFD8011C92F60101900020E9F78A
:102510003197BF016C197D0940E0C601B4CF6DED64
:1025200070E102C06AEA70E16115710509F4B3CF88
:10253000FB01449150E080E833CF0FB6F894A895A2
:1025400080916000886180936000109260000FBEEF
:10255000A895EE3F2AE0F20739F08091FE0A9091AB
:10256000FF0A9183808393CF1092FF0A1092FE0A94
:102570008ECFEE3F8AE0F80731F080819181909311
:10258000FF0A8093FE0A87E797E7918380839BE0A9
:1025900088E10FB6F894A895809360000FBE9093E1
:1025A000600075CF6C960FB6F894DEBF0FBECDBF3E
:1025B000DF91CF91FF91EF91BF91AF919F918F915B
:1025C0007F916F915F914F913F912F911F910F914B
:1025D000FF90EF90DF90CF900F900FBE0F901F9065
:1025E00018952F923F924F925F926F927F928F92A7
:1025F0009F92AF92BF92CF92DF92EF92FF920F9392
:102600001F93CF93DF93CDB7DEB727970FB6F8941C
:10261000DEBF0FBECDBFA22EB12C9C012A0D3B1DEB
:1026200037FDC1C0803891050CF0BDC09B01200F63
:10263000311D37FDB8C0603471050CF0B4C0DB014A
:1026400077FF04C0AA27BB27A61BB70BA770BB2721
:102650009B0177FF02C0295F3F4FF3E03595279537
:10266000FA95E1F777FF08C02150310968E070E082
:102670004B018A1A9B0AD401402E469446944694F4
:10268000512C077019F00FEF401A500AB9017695D6
:10269000762F662777956795680F791F420E531E30
:1026A000E12CF12CE8E0F0E04F018A1A9B0A9F82AE
:1026B0008E822415350509F476C02830310509F4D9
:1026C00072C02F3F0FEF30070CF463C03B0110E8DE
:1026D000610E711C8B0109541C4F6C011B821A8204
:1026E0008A809B808A149B040CF053C0E0E8CE16CD
:1026F000D10409F44EC0D7FC41C02F3FFFEF3F0784
:1027000009F44EC0EA81FB81EE0DFF1DE40FF51FB9
:10271000E491480186189708860E971E2E2E312CBC
:10272000F1010A2E02C0EE0FFF1F0A94E2F7FD83AB
:10273000EC83F4012080EC81FD81E229FD83EC83B0
:102740003C80F40130821097C9F027303105B1F098
:10275000EA81FB81EE0DFF1DE40FF51FE491F0E02F
:102760001F010E8002C0359427940A94E2F7F80105
:102770009080F101E9294F01F8018082EA81FB8113
:102780003196FB83EA830F5F1F4FFFEFCF1ADF0AFB
:10279000A7CF2F5F3F4FEA0CFB1C60587F4F89CFBC
:1027A0001097B1F6EBCF27960FB6F894DEBF0FBEA9
:1027B000CDBFDF91CF911F910F91FF90EF90DF90F0
:1027C000CF90BF90AF909F908F907F906F905F90D1
:1027D0004F903F902F900895CF93DF93CDE6D2E0B6
:1027E0006CED70E080E090E00E948709DC01CB0195
:1027F0008E579F4FAF4FBF4F998388836DE270E034
:1028000080E090E00E948709DC01CB010596A11DC4
:10281000B11D9B838A8362E070E080E090E00E94BB
:102820008709DC01CB010196A11DB11D9D838C831D
:10283000269682E0CD39D80799F6DF91CF91089599
:1028400020E087E393E0B22FB111BFEFFC01002439
:10285000B193B193B193B1930394D1F70895CF930A
:10286000DF9390916602923009F46EC0C82F292F31
:1028700030E0F901E55CFE4ED491F901E75BF84FD9
:1028800080839F5F9093660261E00E940E0AD130C0
:1028900019F0D33039F158C01092800010928100A5
:1028A00080918100886080938100809181008160A7
:1028B000809381008C2F90E0FC01E45EFE4EE49159
:1028C000F0E0EE0FFF1FE25FFE4E25913491309352
:1028D000650220936402FC01E151FF4E84918093D4
:1028E000630232C01092900010929100809191008A
:1028F0008860809391008091910081608093910025
:102900008C2F90E0FC01E45EFE4EE491F0E0EE0FCF
:10291000FF1FE25FFE4E25913491309362022093B7
:102920006102FC01E151FF4E84918093600280912D
:102930006602882321F06CE380E00E94FC0B80E0BB
:10294000DF91CF910C94E70CDF91CF910895FC01BA
:1029500080915F02811103C08FEF9FEF08959FB7B1
:10296000F89482E08093E9002091F20030E01216A2
:10297000130614F421E030E02115310559F02898B0
:1029800084E680935E028091F10080838091F20062
:10299000882319F09FBFC90108958BE68093E80052
:1029A000F9CF8091410781110DC082E080933D07EE
:1029B00084E080933E071092400710923F0781E029
:1029C000809341078DE397E008954091570250911D
:1029D0005802209155023091560242175307B4F421
:1029E0009091E8009570E1F39091E80092FD19C094
:1029F0008093F100809157029091580201968F7355
:102A00009927892B19F48EEF8093E8008091570263
:102A1000909158020196909358028093570281E05A
:102A2000089580E00895DF92EF92FF920F931F9335
:102A3000CF93DF93D82E8A017B01E40EF51EEB01C4
:102A4000CE15DF0571F0D7FE03C0FE01849101C0F1
:102A500088810E94E51421968111F2CF8FEF9FEFBC
:102A600001C0C801DF91CF911F910F91FF90EF90AE
:102A7000DF900895615030F02091F100FC01208337
:102A80000196F8CF289884E680935E020895CF934C
:102A9000DF93CDB7DEB72E970FB6F894DEBF0FBE2B
:102AA000CDBF789484B5826084BD84B5816084BDD7
:102AB00085B5826085BD85B5816085BD80916E00DC
:102AC000816080936E00109281008091810082600D
:102AD000809381008091810081608093810080914A
:102AE000800081608093800080919100826080935B
:102AF000910080919100816080939100809190007D
:102B00008160809390008091C10084608093C100B7
:102B10008091C10082608093C1008091C10081607A
:102B20008093C1008091C30081608093C300809135
:102B3000C00082608093C0008091C2008160809359
:102B4000C20080917A00846080937A0080917A003C
:102B5000826080937A0080917A00816080937A000D
:102B600080917A00806880937A0010925F021092C0
:102B70005A0210925B028091D70081608093D70047
:102B800080EA8093D80089B5806189BD89B582606B
:102B900089BD09B400FEFDCF61E070E080E090E007
:102BA0000E94E20A8091D8008F7C80618093D800D7
:102BB0008091E000807F8093E0008091E1008E7E34
:102BC0008093E1008DE08093E200559A209AEEEF29
:102BD000FFE7859194918B3F9C4D19F481E08093A0
:102BE00059021FB7F89480913E02811127C0EDE28F
:102BF000F1E18491E0E0F1E19491E82FF0E0EE0F53
:102C0000FF1FE856FE4FA591B491EC91E92321F402
:102C100061E081E10E94AB0961E081E10E940E0A5E
:102C20008CB580618CBD8CB580648CBD61E08FE01B
:102C30000E940E0A61E080E10E940E0A80913E022D
:102C40008F5F80933E021FBF00EC11E0F80184917A
:102C50000E5F1F4F31966491882319F00E940E0A6F
:102C6000F5CF61E086E00E94AB0961E070E080E0B2
:102C700090E00E94E20A60E086E00E94AB096AE010
:102C800070E080E090E00E94E20A61E086E00E944D
:102C9000AB09E8E2F1E1E491F0E0EE0FFF1FE25F43
:102CA000FE4E859194919093380280933702EBEF1A
:102CB000F0E1E491E0933602E0E2F1E1E491F0E04A
:102CC000EE0FFF1FE25FFE4E8591949190933502C7
:102CD00080933402E3EFF0E1E491E09333028CB5AA
:102CE0008C7F8CBD8DB581608DBD0E94830B06EA03
:102CF00011E0F1E0003C1F0739F0F80184910E94D7
:102D0000B50B0F5F1F4FF5CF0E94A10B80916400A0
:102D1000816080936400809164008260809364008D
:102D20008091640080688093640080916400806476
:102D300080936400809165008160809365000E94AB
:102D4000660B87FF22C00E94830B80E10E94B50BB7
:102D500082E00E94B50B0E94A10B00E014E080E02D
:102D60000E94B50B01501109D1F760E070E089E0D5
:102D70000E944A0A60E070E08AE00E944A0A60E02D
:102D800070E08BE00E944A0AFFCFFEEEEF2EFF2498
:102D9000FA9418E1CC24CA94D12C812F8E19B60153
:102DA000681B710989E00E944A0A6FEF70E08AE0AF
:102DB0000E944A0A6FEF70E08BE00E944A0A0E946C
:102DC000201400E128E548EE50E0B70184E190E0EE
:102DD0000E94F11287E393E00E94BC0B6BE170E06C
:102DE00080E090E00E94E20A20EFE21206C06AEF63
:102DF00070E080E090E00E94E20A3FEFE31AF30AFD
:102E000089E1E816F10449F66EEE72E080E090E0A8
:102E10000E94E20A6FEF70E089E00E944A0A6FEFB9
:102E200070E08AE00E944A0A6FEF70E08BE00E9437
:102E30004A0A85E00E942F1483E00E942F1410920A
:102E4000320282E090E00E94A41E882369F0809103
:102E50006400877F8093640080916500877F809302
:102E6000650081E080933D028CE38093290380E13B
:102E700080932C0387E393E00E94BC0B0E942014F4
:102E800000E420E843ED55E060E070E080E090E091
:102E90000E94F11287E393E00E94BC0B68EB7BE099
:102EA00080E090E00E94E20A0E94201420E843EDB6
:102EB00051E060E070E080E090E00E94F11287E372
:102EC00093E00E94BC0B68EB7BE080E090E00E9406
:102ED000E20A0E94EC1354E0A52EB12C6EECC62E33
:102EE000DD24DA947CE9672E77247A94E2E04E2E92
:102EF000512C43E0842E912C2FB7F8948091390205
:102F000090913A02A0913B02B0913C022FBF2091D8
:102F10003503222391F020912D03E82FE21BE0934B
:102F2000360320912A0330912B032F5F3F4F3093BC
:102F30002B0320932A0310923503409131035091C3
:102F40003203609133037091340384179507A60709
:102F5000B7077CF4481B423008F4F4C283B7817F82
:102F600083BF83B7816083BF889583B78E7F83BF1C
:102F7000E9C220912C03AC01BD01420F511D611D1E
:102F8000711D409331035093320360933303709368
:102F9000340380932D0390932E03A0932F03B093BB
:102FA000300381E08093350388E290E09093380706
:102FB0008093370785E090E090933A078093390734
:102FC000E0904002F09041021A8619861C861B860A
:102FD0001E861D86609167027091680261157105F9
:102FE00041F040916B0250916C02CE0109960E9413
:102FF0005C094AE08E010F5F1F4FB801C7010E94B4
:103000006F1EF80101900020E9F73197E01BF10BEA
:10301000ED84FE84309709F1EE0EFF1EB701CE015C
:1030200009960E94350929853A85882351F08D85B6
:103030009E85B801820F931F0E940C1EFE86ED86AE
:103040000CC02115310519F0C9010E949C1C1A867B
:1030500019861E861D861C861B861A8219821C8272
:103060001B821E821D8269857A856115710529F092
:103070004D855E85C8010E945C0989859A850E94FC
:103080009C1C4D815E8169817A8183E293E00E947C
:10309000CB0803EE12E0312C26E0222E35E0E32EA1
:1030A000F12CD80112964D915C9113976D917C9102
:1030B00021E083E293E00E94D70DF80180819181A5
:1030C00097FF0BC067E070E080E090E00E94870906
:1030D0006F577F4FD8016D937C9320912A033091D5
:1030E0002B03832D837019F4C901B70112C0832DFE
:1030F000622D0E94CD1B91110AC020FD14C0D80181
:103100008D919C91119701978D939C930CC0C9014F
:10311000B4010E94D91B892B31F4F801808191817F
:1031200001979183808333940C5F1F4FF0E13F122E
:10313000B8CF8091050190910601019709F00EC169
:1031400003EA12E0D80112964D915C9113976D91AC
:103150007C9121E083E293E00E94D70DF801428147
:103160005381608171816F5F7F4F21E083E293E043
:103170000E94D70DD80112964D915C9113976D91D5
:103180007C916E5F7F4F21E083E293E00E94D70D38
:10319000F8018081918197FD09C0813891051CF06B
:1031A000D182C08203C00396918380830C5F1F4F3E
:1031B000B2E0033E1B0731F60E94660B86FF08C093
:1031C00080910301909104018C3691050CF4C2C1E9
:1031D0000E94660B85FF08C0809103019091040155
:1031E000181619060CF4BCC10E94660B87FF08C0B4
:1031F0008091010190910201181619060CF4B6C1D4
:103200000E94660B84FF08C0809101019091020129
:10321000863391050CF4B0C10E94660B83FF25C074
:1032200080910001882309F11092000180913F02F2
:1032300024E0829FF0011124ED55FD4F2091030100
:1032400030910401265F3F4F31832083209101019B
:10325000309102012C5F3F4F338322838F5F809335
:103260003F02813110F010923F020E94660B83FDF5
:1032700003C081E0809300010DE612E093EAE92E9D
:1032800092E0F92E20919F023091A002D80112966F
:103290006D917C9113970D90BC91A02DF701228028
:1032A00033808081918140919D0250919E024A0F0E
:1032B0005B1F841795076CF40396A817B9074CF4A5
:1032C000260F371F2216330624F4261637060CF075
:1032D00059C1F4E0EF0EF11C23EEE21622E0F206F3
:1032E00089F620919F023091A002D8011296ED90AC
:1032F000FC9013970D90BC91A02D609101017091ED
:103300000201809103019091040140919D0250912E
:103310009E024A0F5B1F841795077CF44496A817FA
:10332000B9075CF42E0D3F1D6217730734F4CB010F
:103330000A96E816F9060CF45DC10A5F1F4FB2E069
:103340000D391B0709F09ACF0AE024E141E55AE064
:1033500080910301909104010E94F1128DE6E82E04
:1033600082E0F82E18E080912A0380FD3DC0F7012D
:103370008081918124813581821B930B918380838D
:1033800020919D0230919E02820F931F803B9F4FA0
:103390005CF560E570E080E090E00E948709DC0168
:1033A000CB018A569F4FAF4FBF4FF7019183808368
:1033B0006DE270E080E090E00E948709DC01CB01C3
:1033C0000596A11DB11DF7019383828362E070E031
:1033D00080E090E00E948709DC01CB010196A11DED
:1033E000B11DF701958384838091A1029091A2027F
:1033F0009C0123703327232B61F4D70112966D9122
:103400007C91139700919F0220919D0247E25AE020
:1034100013C0B5010E94ED1B8130910581F0029728
:1034200071F4D70112966D917C91139700919F02D0
:1034300020919D0243ED59E08D919C910BC0F701C5
:103440006281738100919F0220919D024DEF59E0AE
:10345000808191810E94F1121150F6E0EF0EF11C73
:10346000111181CF80912A0390912B0366E070E0C7
:103470000E94D91B892B89F48091A1029091A2020C
:1034800001968C3091052CF49093A2028093A102B6
:1034900004C01092A2021092A102809105019091A5
:1034A0000601029709F044C085E290E09093380746
:1034B000809337078EE190E090933A078093390725
:1034C00049E050E068E072E083E293E00E94CB08BC
:1034D0008BE090E0909338078093370785E390E086
:1034E00090933A078093390742E150E062E172E03D
:1034F00083E293E00E94CB080E94660B82FF18C013
:10350000109241021092400285E090E090930401F5
:103510008093030184E190E0909302018093010184
:1035200081E090E090930601809305010E94EC13E6
:1035300087E393E00E94BC0B0E94201489819A814A
:103540000E949C1C80E090E0892B09F4D5CC0E945D
:103550000000CFCC0396909304018093030138CEF2
:10356000039790930401809303013ECE03979093B9
:1035700002018093010144CE03969093020180934F
:1035800001014ACE6CED70E080E090E00E94870976
:10359000DC01CB018E579F4FAF4FBF4FF801918396
:1035A00080836DE270E080E090E00E948709DC019A
:1035B000CB010596A11DB11DF8019383828362E0C2
:1035C00070E080E090E00E948709DC01CB01019669
:1035D000A11DB11DF80195838483809140029091D3
:1035E000410201969093410280934002D701CD920F
:1035F000DC926FCE7092040160920301509206013A
:10360000409205019ACE80919B0790919C070E9461
:103610009C1C80916702909168020C949C1CEBE4C6
:10362000F7E01382128288EE93E0A0E0B0E084839A
:103630009583A683B7838CED91E0918380838FEF90
:103640009FEF95878487E1EAF7E084EF91E091832B
:1036500080831582148213821282E3E2F3E01382E4
:1036600012828CEE91E0918380838CE3868380E1EB
:1036700081871086178216861786108A118A128A09
:10368000109238071092370710923A0710923907B4
:1036900081E080933B0780E4E8E2F1E0A3EEB2E052
:1036A00001900D928A95E1F780E4E8E6F1E0A3EA63
:1036B000B2E001900D928A95E1F780E3E8EAF1E04B
:1036C000ADE6B2E001900D928A95E1F7EDE6F2E009
:1036D00085E190E091AB80AB8FE090E093AB82AB63
:1036E00015AA14AAE7E6F2E0118210821382128270
:1036F0001582148247E050E06AE272E0CF010E9436
:103700005C09EBE9F7E011821082138212821582C4
:1037100014824CE050E065E272E0CF010C945C0949
:10372000CF92DF92EF92FF920F931F93CF93DF938D
:103730001F92CDB7DEB7182F062FE42E862F880FE5
:103740008E5F99830E94E51483E00E94E514F12EB8
:10375000C12E9981D92E8C2D8F19801798F4F601DE
:10376000E7FE02C0849101C080810E94E514182FF9
:1037700080E00E94E5148123FFEFCF1ADF0A811158
:10378000EACF01C081E00F90DF91CF911F910F919F
:10379000FF90EF90DF90CF900895991B79E004C0DF
:1037A000991F961708F0961B881F7A95C9F7809580
:1037B0000895AA1BBB1B51E107C0AA1FBB1FA61778
:1037C000B70710F0A61BB70B881F991F5A95A9F7CA
:1037D00080959095BC01CD01089597FB072E16F4B6
:1037E000009407D077FD09D00E94D91B07FC05D0B3
:1037F0003EF4909581959F4F0895709561957F4F08
:103800000895EE0FFF1F0590F491E02D0994CF93DA
:10381000DF938230910510F482E090E0E091A907F7
:10382000F091AA0720E030E0C0E0D0E0309711F13D
:103830004081518148175907C0F04817590761F472
:1038400082819381209719F09B838A832BC0909368
:10385000AA078093A90726C02115310519F0421740
:10386000530718F49A01BE01DF01EF010280F381D2
:10387000E02DDCCF2115310509F1281B390B24304F
:10388000310590F412968D919C91139761157105F5
:1038900021F0FB019383828304C09093AA07809355
:1038A000A907FD01329644C0FD01E20FF31F819389
:1038B0009193225031092D933C933AC02091A70750
:1038C0003091A807232B41F4209115013091160166
:1038D0003093A8072093A70720911301309114017A
:1038E0002115310541F42DB73EB740911701509194
:1038F0001801241B350BE091A707F091A807E217E8
:10390000F307A0F42E1B3F0B2817390778F0AC0102
:103910004E5F5F4F2417350748F04E0F5F1F5093DF
:10392000A8074093A7078193919302C0E0E0F0E0DD
:10393000CF01DF91CF9108950F931F93CF93DF9322
:10394000009709F48CC0FC01329713821282009117
:10395000A9071091AA070115110581F42081318171
:10396000820F931F2091A7073091A80728173907C6
:1039700079F5F093A807E093A70771C0D80140E05C
:1039800050E0AE17BF0750F412962D913C9113975B
:10399000AD012115310509F1D901F3CF9D01DA01FE
:1039A0003383228360817181860F971F821793076B
:1039B00069F4EC0128813981260F371F2E5F3F4FB4
:1039C000318320838A819B8193838283452B29F4D1
:1039D000F093AA07E093A90742C01396FC93EE93D5
:1039E0001297ED01499159919E01240F351FE2175D
:1039F000F30771F480819181840F951F02961196CF
:103A00009C938E938281938113969C938E931297AD
:103A1000E0E0F0E0D80112968D919C911397009709
:103A200019F0F8018C01F6CF8D919C9198012E5FD1
:103A30003F4F820F931F2091A7073091A8072817A7
:103A4000390769F4309729F41092AA071092A90750
:103A500002C0138212821093A8070093A707DF9178
:103A6000CF911F910F910895A0E0B0E0EAE3FDE14E
:103A70000C94E21EEC01009721F4CB010E94071C7C
:103A8000B8C0FC01E60FF71F9C0122503109E21774
:103A9000F30708F4ACC0D9010D911C9111970617DA
:103AA0001707B0F00530110508F49FC0C80104974E
:103AB0008617970708F499C002501109061B170BC7
:103AC000019311936D937C93CF010E949C1C8DC038
:103AD0005B01A01AB10A4C01800E911EA091A907AA
:103AE000B091AA0740E050E0E12CF12C109709F4C6
:103AF0004AC0A815B905D1F56D907C901197630166
:103B000082E0C80ED11CCA14DB0480F1A3014A195B
:103B10005B096A0182E0C80ED11C1296BC90129714
:103B20001396AC91B5E0CB16D10440F0B282A383DA
:103B300051834083D9016D937C930AC00E5F1F4F60
:103B4000C301800F911FF90191838083EB2DFA2F20
:103B5000E114F10431F0D7011396FC93EE93129720
:103B600044C0F093AA07E093A9073FC08D919C91B0
:103B700011974817590708F4AC017D0112960D9072
:103B8000BC91A02DB3CF8091A7079091A80788156D
:103B90009905E1F446175707C8F4809113019091F5
:103BA0001401009741F48DB79EB7409117015091D1
:103BB0001801841B950BE817F907C8F4F093A807C0
:103BC000E093A707F901718360830FC0CB010E94C6
:103BD000071C7C01009759F0A801BE010E94031E3A
:103BE000CE010E949C1CC70104C0CE0102C080E02F
:103BF00090E0CDB7DEB7EEE00C94FE1E81E090E0E1
:103C0000F8940C94461FFB01DC0102C001900D9258
:103C100041505040D8F70895FB01DC0101900D920E
:103C20000020E1F708958F929F92AF92BF92CF92BA
:103C3000DF92EF92FF92CF93DF93EC01688179815D
:103C40008A819B81611571058105910521F464E2EA
:103C500079ED8BE597E02DE133EF41E050E00E94F4
:103C6000AC1E49015A019B01AC01A7EAB1E40E94D4
:103C7000CB1E6B017C01ACEEB4EFA50194010E9458
:103C8000D91EDC01CB018C0D9D1DAE1DBF1DB7FFE4
:103C900003C00197A109B04888839983AA83BB8395
:103CA000BC01CD019F77DF91CF91FF90EF90DF9026
:103CB000CF90BF90AF909F908F9008950E94131E59
:103CC00008958DE191E00E94131E089560931D01F7
:103CD00070931E0180931F01909320010895BB27CC
:103CE0004A3031F4992322F4BDE2909581959F4F9B
:103CF0000C947B1EBB27FB015527AA27880F991F11
:103D0000AA1FA41710F0A41B83955051B9F7A05D0A
:103D1000AA3308F0A95DA193009779F7B111B19387
:103D20001192CB010C94941EDC01FC01672F719160
:103D30007723E1F7329704C07C916D937083629191
:103D4000AE17BF07C8F30895F999FECF92BD81BDA4
:103D5000F89A992780B50895052E97FB1EF40094D4
:103D60000E94C31E57FD07D00E94151F07FC03D0F9
:103D70004EF40C94C31E50954095309521953F4FBD
:103D80004F4F5F4F089590958095709561957F4F47
:103D90008F4F9F4F08950E94371FA59F900DB49F8E
:103DA000900DA49F800D911D11240895B7FF0C94D0
:103DB000CB1E0E94CB1E821B930B08952F923F9225
:103DC0004F925F926F927F928F929F92AF92BF922B
:103DD000CF92DF92EF92FF920F931F93CF93DF93D7
:103DE000CDB7DEB7CA1BDB0B0FB6F894DEBF0FBE34
:103DF000CDBF09942A88398848885F846E847D8481
:103E00008C849B84AA84B984C884DF80EE80FD8082
:103E10000C811B81AA81B981CE0FD11D0FB6F894F8
:103E2000DEBF0FBECDBFED010895A1E21A2EAA1B81
:103E3000BB1BFD010DC0AA1FBB1FEE1FFF1FA2175A
:103E4000B307E407F50720F0A21BB30BE40BF50B57
:103E5000661F771F881F991F1A9469F760957095E0
:103E6000809590959B01AC01BD01CF010895A29F63
:103E7000B001B39FC001A39F700D811D1124911D3E
:103E8000B29F700D811D1124911D089518E0C0EAA4
:103E9000D8E004C0FE010E94011C2196C13AD1075E
:063EA000C9F7F894FFCF02
:103EA60001140005000100FFFFFFFF00E100000014
:103EB6000000000000AB07800001000000010000C8
:103EC6000000C180810000000000050008002D00F0
:103ED6001000160020003C002800120030003900B7
:103EE600380021004000110048002F005000080053
:103EF60058001B0060002F006800070070003400A7
:103F06007800030080000E00FBFFFBFFFBFFFBFFBA
:103F1600FBFFFBFFFBFFFBFFFBFFFBFFFBFFFBFFCB
:103F2600FBFFFBFFFBFFFBFFFBFFFBFFFBFFFBFFBB
:103F3600FBFFFBFFFBFFFBFFFBFFFBFFFBFFFBFFAB
:103F4600FBFFFBFFFBFFFBFF2C012C0101002C01FB
:103F56002C0101002C012C0101002C012C01010077
:103F66002C012C0101002C012C0101002C012C013B
:103F760001002C012C01010000000000070F420F78
:103F8600280FCE0FEC0F1D0F00000000FE0DCB0812
:103F960000000000060F330923091B09000000007A
:103FA600310931093109310947414D45204F5645FF
:103FB60052007072657373204120746F20726573AE
:103FC6007461727400486967682053636F72653A5A
:023FD6002000C9
:00000001FF
