:100000000C9475070C949D070C949D070C949D0708
:100010000C949D070C949D070C949D070C949D07D0
:100020000C949D070C949D070C94B41B0C94261CF7
:100030000C949D070C949D070C949D070C949D07B0
:100040000C949D070C9403130C949D070C949D072E
:100050000C949D070C949D070C949D070C94AD1176
:100060000C949D070C949D070C949D070C949D0780
:100070000C949D070C949D070C949D070C949D0770
:100080000C9414140C949D070C949D070C949D07DC
:100090000C949D070C949D070C949D070C949D0750
:1000A0000C949D070C949D070C949D0767106A1093
:1000B00059105D1061108B108B108B106E10721028
:1000C00076107C1080108B108610021107110C1115
:1000D000161120116A116A116A112A1134113E1188
:1000E000481155116A115D11F0F89C8E8783878E37
:1000F0009CF8F00000FEFF0303030303070EFCF867
:100100000000FEFF0303030303070EFCF80000FFDB
:10011000FF00000000000000FFFF0000FEFF8383DF
:10012000838383C7EE7C380000F8FC0E07030303CB
:10013000070EFCF800003F7FE0C08080C0E07F3FFA
:10014000FFFF01010101010101FFFF0000FFFF0CA2
:100150000C0C0C1C3E77E3C100007FFFC0C0C0C088
:10016000C0E0703F1F00001F3F70E0C0C0C0E070E3
:100170003F1F00007FFFC1C1C1C1C1E3773E1C002A
:10018000001F3F70E0C0C0C0E0703F1F00000000D3
:100190000001FFFF01000000000000002400270014
:1001A0002A002D003000AED580A83FD300408D142A
:1001B0002002A1C8DA1281CFD9F1DB402EA4A6AF6C
:1001C00014021302120215020702080204010C01B4
:1001D0000601004F6666004F6E00536F756E643AFD
:1001E0002000536565643A20200000808040404034
:1001F00080802040F8402000000000000000000047
:100200000000C080F080C00000C23E0202028202F4
:100210000202030181010101FF0000000000C00E85
:10022000312045444524310E030000008000C00009
:1002300080000000000000000003060818107FC0C6
:10024000000000004040404040000000008778105F
:10025000101C070000000000F88C868B838B868CB6
:10026000F809090F01010000000000000000000073
:10027000000000000FF0808080808080000000007F
:100280000000FF000000000000000000000000036C
:10029000000000030000000000000000000000005B
:1002A0000000000000000000000000001E0100002F
:1002B0000001011F01010101000000000000806039
:1002C00010080C06020381416121E10101010F06C2
:1002D0000E0830C06020202020202020206040C058
:1002E0008080C0202020C00000000000C06020C02E
:1002F000800080C04040404040C080C04040C000BE
:1003000000000080808080800E1A32E2C65C70009F
:100310000000000000000000000000000000030CCE
:10032000102060C0800F1D38207867C0C08080809A
:100330008080C0611F00008060202020E00000005D
:100340000107FC00000007FC800080C07F00000067
:10035000FF0F1910180C040CF8000103FF600103D3
:1003600006F213111010302123FEA30101071CFC1B
:10037000860283C1414141C3060C1830C000000011
:10038000F01808040F0A1E346C68380000000000E2
:100390000103060C18E000030604040603000080B5
:1003A00080E03F60404080808181818000000000CB
:1003B000FF0301794949494939000000FF70C00035
:1003C000040FF80000000000000007F8800080F82B
:1003D000CF8083060C08080D0700000001FF000015
:1003E000010306040C081810101010101010101043
:1003F0001010180C0307040C080808080C0C18103F
:1004000010111E00000000000000000102040C0C8E
:10041000070102020202020101030E08090F070789
:1004200004070100000000000000000003020300B8
:1004300000000101010103020202030101017B002E
:100440009300AF00DC002601B8014B0217045504ED
:100450009704DD0427052E084E0AB707904000E3F5
:100460008000E3904000E38000E3903E038D8090A5
:100470003E00E38000E3903E00E38000E3903D0314
:100480008D80903E00E38000E3903E00E38000E337
:10049000903D038D80903D00E38000E3903D00E3BC
:1004A0008000E3903B038D80F0902F005580005535
:1004B000902D00AA8000AA902F00AA800154903DA0
:1004C00000AA8000AA903D00AA80903D00AA8090DA
:1004D0003D00AA80903D00AA80903E00AA80903BFB
:1004E000015480F0902F00AA8000AA902F00AA80CB
:1004F000903600AA8000AA903600AA80903200AA06
:100500008000AA903200AA80903400AA8000AA90AD
:100510003400AA80903400AA8000AA903400AA80F7
:1005200000AAF0546F74616C002B446973742E0040
:1005300053636F726500FF80003FC3FC07F80080C3
:10054000FFFFE04207FC0FF08083002042044C08CC
:10055000108083002442044C88108FF300244264EE
:100560004C88108903232042644C0990890323207E
:1005700042644C09908903232042644C09F089139A
:100580002321C2644C390089132327C2040CF900CB
:100590008103232042040C09008103232042060C1E
:1005A0000900FFFFFFFFC3FDF7FF00000000000090
:1005B000000000000020D1C1B1A3D1C1B1A1FF0052
:1005C0001021113121FF0010C1B1A191FF081001CC
:1005D0000100000001FE020202020202FE1F10F0F2
:1005E00010F010101FFEFEFEFEFEFEFEFE9F1FFF1F
:1005F0001FFF1F1F9F0808010100000001003EE2CD
:1006000022E2223E0000BEFE3EFE3EBE0000404111
:1006100041515161617171FF08080101020101013D
:100620001824EAA1A9F22418183CFEFFFFFE3C188A
:10063000484947482053434F5245004849474820BE
:1006400053434F524553000000000000FF000000DC
:1006500000FF00FF00000081818181818181FFFF17
:100660008181BF8181818181818181818181FFFF40
:100670008181FD81818181FF81A58181A581FFFF2C
:100680008185B5959D81FF101001010302000100D5
:1006900000000000805028060141E222140C08806E
:1006A0004070282512080E0601010000000000001D
:1006B0000000000080D0E8FEFF7FFE3E1C0C08809A
:1006C0004070383D1F0F0F070101000000000008B7
:1006D00008010102020F0184EC7C3F3F7CEC848422
:1006E000EC7C3F3F7CEC8408080101020201013CE4
:1006F0004281A9A1A9423C3C7EFFFFFFFF7E3C084E
:10070000080101020103014070CC43C24C7040005B
:1007100038FE3FFF3E3800FFA9A9B9A9EFA9FFFFA6
:10072000FFFFFFFFFFFFFF00140014001400144040
:100730000040004000548044804480448044004491
:1007400000440054004000400040004050A050A031
:1007500055A051A055200020002055024102410221
:100760004102550210021002950090009000100006
:1007700015150010001000100015001000100015D5
:1007800000100010001000150000000000AA0080FA
:1007900000AA0000000004040404040404FC202057
:1007A0002020F80808080808E8283820203E2222DF
:1007B000E20202FE2020202020E0000000C0404095
:1007C00040784FC90909090F08080808F8202020B7
:1007D00020F808080CFC000000000000001F0000CA
:1007E00000001F00000000000F00000000000000DB
:1007F0000F0000000000000000FF01010101FF00E8
:100800000000003F000000000000000007000000A2
:10081000003F0000001F040802011040804010202B
:1008200040804080080204018040201002011080B6
:10083000102040402000000000250028002B002E42
:10084000003100040404040403040502020202044B
:10085000030202020206060606060604040202025B
:10086000040403010010F1E4FF0020E3D3E3D3C547
:1008700085FF00000000003E5B4F5B3E3E6B4F6B10
:100880003E1C3E7C3E1C183C7E3C181C577D571C71
:100890001C5E7F5E1C00183C1800FFE7C3E7FF00EA
:1008A00018241800FFE7DBE7FF30483A060E262938
:1008B000792926407F050507407F05253F5A3CE7FB
:1008C0003C5A7F3E1C1C08081C1C3E7F14227F22C1
:1008D000145F5F005F5F06097F017F006689956A8C
:1008E000606060606094A2FFA29408047E04081017
:1008F000207E201008082A1C08081C2A08081E1040
:100900001010100C1E0C1E0C30383E3830060E3EF7
:100910000E06000000000000005F00000007000756
:1009200000147F147F14242A7F2A12231308646280
:1009300036495620500008070300001C22410000E1
:1009400041221C002A1C7F1C2A08083E080800803F
:1009500070300008080808080000606000201008D7
:1009600004023E5149453E00427F400072494949D8
:10097000462141494D331814127F1027454545390A
:100980003C4A49493141211109073649494936460E
:100990004949291E000014000000403400000008EE
:1009A0001422411414141414004122140802015991
:1009B00009063E415D594E7C1211127C7F4949491E
:1009C000363E414141227F4141413E7F49494941B3
:1009D0007F090909013E414151737F0808087F00E2
:1009E000417F41002040413F017F081422417F4068
:1009F0004040407F021C027F7F0408107F3E41413F
:100A0000413E7F090909063E4151215E7F091929AE
:100A100046264949493203017F01033F4040403F98
:100A20001F2040201F3F4038403F631408146303D9
:100A3000047804036159494D43007F414141020458
:100A4000081020004141417F04020102044040405F
:100A50004040000307080020545478407F28444455
:100A6000383844444428384444287F38545454186F
:100A700000087E090218A4A49C787F08040478006A
:100A8000447D40002040403D007F1028440000414C
:100A90007F40007C047804787C080404783844445F
:100AA0004438FC1824241818242418FC7C08040456
:100AB00008485454542404043F44243C4040207CBF
:100AC0001C2040201C3C4030403C44281028444C12
:100AD0009090907C4464544C4400083641000000DF
:100AE000770000004136080002010204023C262380
:100AF000263C1EA1A161123A4040207A3854545538
:100B00005921555579412154547841215554784003
:100B100020545579400C1E52721239555555593989
:100B20005454545939555454580000457C410002DE
:100B3000457D420001457C40F0292429F0F028251C
:100B400028F07C545545002054547C547C0A097F7D
:100B50004932494949323248484832324A48483095
:100B60003A4141217A3A42402078009DA0A07D3947
:100B7000444444393D4040403D3C24FF2424487EC9
:100B80004943662B2FFC2F2BFF0929F620C0887EB6
:100B9000090320545479410000447D413048484ABB
:100BA00032384040227A007A0A0A727D0D19317D6E
:100BB0002629292F28262929292630484D40203842
:100BC0000808080808080808382F10C8ACBA2F1001
:100BD0002834FA00007B000008142A142222142A68
:100BE00014089500220095AA005500AAAA55AA55F6
:100BF000AA000000FF00101010FF00141414FF00E2
:100C00001010FF00FF1010F010F0141414FC00146A
:100C100014F700FF0000FF00FF1414F404FC141488
:100C200017101F10101F101F1414141F0010101085
:100C3000F0000000001F101010101F10101010F016
:100C400010000000FF101010101010101010FF10F6
:100C5000000000FF140000FF00FF00001F1017003D
:100C600000FC04F414141710171414F404F4000016
:100C7000FF00F714141414141414F700F7141414C8
:100C8000171410101F101F141414F4141010F01067
:100C9000F000001F101F0000001F14000000FC14D3
:100CA0000000F010F01010FF10FF141414FF1410C7
:100CB00010101F00000000F010FFFFFFFFFFF0F01A
:100CC000F0F0F0FFFFFF0000000000FFFF0F0F0F2C
:100CD0000F0F38444438447C2A2A3E147E02020610
:100CE00006027E027E0263554941633844443C0457
:100CF000407E201E2006027E020299A5E7A5991CCF
:100D00002A492A1C4C7201724C304A4D4D303048F1
:100D1000784830BC625A463D3E494949007E01014F
:100D2000017E2A2A2A2A2A44445F444440514A44E4
:100D30004040444A51400000FF0103E080FF0000B2
:100D400008086B6B083612362436060F090F0600AA
:100D50000018180000001010003040FF0101001FB3
:100D600001011E00191D1712003C3C3C3C00000014
:100D7000000006011501260137014A015D017201DB
:100D800088019F01B801D201EE010B022A024B0239
:100D90006E029302BA02E40210033F037003A4033D
:100DA000DC03170455049704DD0427057505C80501
:100DB00020067D06E0064907B8072D08A9082D0979
:100DC000B9094D0AEA0A900B400CFA0CC00D910EBD
:100DD0006F0F5A1053115B1272139A14D415201707
:100DE0008018F519801B231DDE1EB420A622B52411
:100DF000E4263429A72B402E0031EA330037453A48
:100E0000BC3D68414C456B49C84D68524F57805CAA
:100E1000006210111213151617181A1C1D1F21231A
:100E20002527292C2E3134373A3E4145494E525719
:100E30005C62686E757B838B939CA5AFB9C4D0DC74
:100E4000E9F70000000200090F0000030401000C94
:100E50000000000000000000000000000000000092
:100E600000080B0002020201000904000001020256
:100E700000000524001001052401010104240206DC
:100E80000524060001070581031000400904010044
:100E9000020A000000070502024000000705830265
:100EA0004000000403090441726475696E6F204CB0
:100EB0004C430041726475696E6F204C656F6E61C2
:100EC00072646F001201000200000040412336806E
:100ED00000010102030112010002EF02014041235F
:100EE0003680000101020301862F11241FBECFEFBF
:100EF000DAE0DEBFCDBF28E0A2E6B1E001C01D927E
:100F0000AE32B207E1F711E0A0E0B1E0E2EBF7E6C4
:100F100002C005900D92A236B107D9F717E0C5E7D8
:100F2000D7E004C02197FE010E940B30C437D107DF
:100F3000C9F70E94FC230C94D7330C9400008F92C5
:100F40009F92AF92BF92CF92DF92FF920F931F9327
:100F5000CF93DF93F12CCF2CD12C809181039091F2
:100F60008203C816D9060CF076C0D194C194D1087A
:100F7000CC0CDD1C0091B4011091B501055F1F4F31
:100F80000C0D1D1D8091900390919103081B190B6E
:100F9000C091B201D091B301219680918E039091BE
:100FA0008F03C81BD90BA090AA01B090AB014E01D2
:100FB00026E0820E911CD7FF0DC0C0E0D0E00AC031
:100FC000C817D9077CF421E0A801BE01C5010E9421
:100FD000D9152196C40121E8821691048CF380E88A
:100FE00090E0EECF8091B4019091B5010A96C80EC1
:100FF000D91E8091900390919103C81AD90AC0918B
:10100000B201D091B301219680918E0390918F030C
:10101000C81BD90B0091AA011091AB015E0186E0BB
:10102000A80EB11CD7FF0DC0C0E0D0E00AC0C217A7
:10103000D3077CF421E0A601BE01C8010E94D915A6
:101040002196950181E8A816B1048CF320E830E0E0
:10105000EECFF39480CFDF91CF911F910F91FF904E
:10106000DF90CF90BF90AF909F908F900895EF92B8
:10107000FF920F931F93CF93DF93C0E0D0E0CE0198
:101080008C559E4F7C01FC0182A58823B9F08E010E
:1010900003541E4FC8010E94761E40918E0350914A
:1010A0008F03841B950B1816190644F4F701278D3E
:1010B00030A1241B350B203831055CF06396CE3B04
:1010C000D105E9F6DF91CF911F910F91FF90EF903D
:1010D0000895C8010E94D122F1CF2F923F924F92E2
:1010E0005F926F927F928F929F92AF92BF92CF92B8
:1010F000EF920F931F93CF93DF9300D000D000D0D7
:10110000CDB7DEB730918E0320918F03809190038D
:10111000909191036CE070E00E94F72F3B01809169
:101120008B0380FF3EC0832F922F97FD03969595EA
:1011300087959595879530E4A32EB12CB5010E9433
:10114000F72F4C0124E0621A710866277727681B85
:10115000790BCC24C39440E1E42E00E426E937E087
:10116000A3018091AA019091AB010E946C14B5017A
:101170006819790926E937E0A3018091AA019091C5
:10118000AB010E946C1460E870E06819790926E9E7
:1011900037E0A3018091AA019091AB010E946C14E9
:1011A0002AC010E030E1630E711C80E6A82EB12C3D
:1011B000212F30E080918E0390918F0397FD03964D
:1011C0009595879595958795B5010E94F72FB9015B
:1011D000681B790BCC24C39408E1E02E05E227E2DA
:1011E00037E0A3018091AA019091AB010E946C1499
:1011F000105A103EE9F680918E0390918F0397FD6F
:101200000796BC01E3E075956795EA95E1F77E8363
:101210006D834B01F3E0880C991CFA95E1F72224C9
:101220002394312C80918E0390918F0397FD079624
:1012300023E0959587952A95E1F74096ED81FE810B
:101240008E179F070CF4F1C0A0909003B09091030B
:10125000B7FE03C077E0A70EB11C53E0B594A79486
:101260005A95E1F78D819E8197FD0F96B4E0959593
:101270008795BA95E1F763E070E00E94F72FFC01D3
:101280008D819E8160E170E00E94F72F9C01220F0A
:10129000331F350103E0660C771C0A95E1F7CF0197
:1012A00045E0880F991F4A95E1F78C559E4FAC0198
:1012B000420F531FFA01E652FF4FFA83E983BA0146
:1012C00067527F4F7C836B83009190031091910351
:1012D000C80117FD079633E0959587953A95E1F794
:1012E00008968A159B050CF459C071E1A716B10444
:1012F0000CF05EC088E0A816B1045CF4EB81FC81C0
:101300002081C1010A2C01C0880F0A94EAF78223C8
:101310000DC0C5010897910102C0220F331F8A95A5
:10132000E2F7C901E981FA8190818923882309F4D0
:101330003FC0A301401B510B80918E0390918F03FE
:10134000B401681B790BC12C88E0E82E08E02FE17E
:1013500037E08091AA019091AB010E946C148091BA
:10136000900390919103A301481B590B80918E0328
:1013700090918F03B401681B790BCC24C39427E1AF
:1013800037E08091AA019091AB010E946C14FFEFAD
:10139000AF1ABF0A28E0620E711C96CF6D817E8164
:1013A0006F5F7F4F7E836D8378E0870E911C3ACF0D
:1013B000A5016D817E818BE792E00E94E517875041
:1013C0008A3028F7E82FF0E0EE0FFF1FEC5EFE4FAB
:1013D0004080518041145104D1F2A301401B510BB4
:1013E00080918E0390918F03B401681B790BC12CFF
:1013F000E8E0EE2E08E02FE137E08091AA0190911D
:10140000AB010E946C148091900390919103A30111
:10141000481B590B80918E0390918F03B401681B78
:10142000790BCC24C3949201ACCF26960FB6F894D6
:10143000DEBF0FBECDBFDF91CF911F910F91EF9017
:10144000CF90BF90AF909F908F907F906F905F9064
:101450004F903F902F900895FF920F931F93CF933B
:10146000DF93F82E8B01EA018BE792E00E94E517EB
:10147000811124C0A0917303B091740385E08A9F09
:1014800090018B9F300D11242C553E4FF901E75CE4
:10149000FE4F118300833296D183C0833296F0824F
:1014A000CD0101968E31910529F0909374038093BC
:1014B000730304C01092740310927303DF91CF91F1
:1014C0001F910F91FF900895CF92DF92EF92FF92BC
:1014D0000F931F93CF938C01C62FD72E462F572FD4
:1014E000BC018BE00E942C0A78018FEFE81AF80A01
:1014F0004C2F5D2DB7018CE00E942C0ACF5FC031CC
:1015000058F4CC2ED12CA601B8018FE00E942C0AF1
:10151000A601B70180E1F0CFCF911F910F91FF900D
:10152000EF90DF90CF900895CF92DF92EF92FF92ED
:101530000F931F93CF93DF938C01EB016B018FEF20
:10154000C81AD80AA601B8018DE00E942C0A7801B9
:101550008FEFE81AF80AA601B7018EE00E942C0A64
:10156000AE01B8018FE00E942C0AAE01B70180E104
:10157000DF91CF911F910F91FF90EF90DF90CF906F
:101580000C942C0A4F925F926F927F928F929F924F
:10159000AF92BF92CF92DF92EF92FF92CF93DF9301
:1015A000EC014A015B0181E08093A3012E01612CD3
:1015B000712C60E072E18AE790E0A30192010E9441
:1015C0003D3369017A0181E0C81AD108E108F108C8
:1015D000C114D10481E0E806F10488F068E478EEF3
:1015E00081E090E0A30192010E943D3369017A01FC
:1015F00081E0C81AD108E108F10883E001C081E068
:1016000090918100987F982B909381008114910490
:10161000A104B10471F0DE01AA0FBB1FA501940162
:101620000E945C3328EE33E040E050E00E946F33CC
:1016300003C02FEF3FEFA901D0928900C09288002C
:1016400020939F013093A0014093A1015093A201E8
:1016500080916F00826080936F00DF91CF91FF9047
:10166000EF90DF90CF90BF90AF909F908F907F9042
:101670006F905F904F900895CF93DF9390919E016C
:10168000923009F46EC0C82F292F30E0F901EE59CD
:10169000F74FD491F901E754F84F80839F5F9093FF
:1016A0009E0161E00E949F10D13019F0D33039F1D2
:1016B00058C0109280001092810080918100886053
:1016C00080938100809181008160809381008C2FC4
:1016D00090E0FC01ED5BF74FE491F0E0EE0FFF1FAF
:1016E000EB5CF74F2591349130939D0120939C0141
:1016F000FC01EA5EF74F849180939B0132C0109207
:1017000090001092910080919100886080939100E8
:10171000809191008160809391008C2F90E0FC017A
:10172000ED5BF74FE491F0E0EE0FFF1FEB5CF74F3E
:101730002591349130939A0120939901FC01EA5E3E
:10174000F74F84918093980180919E01882321F026
:101750006CE380E00E948D1280E0DF91CF910C94C9
:101760007813DF91CF91089520E083EB93E0B22FBF
:10177000B111BFEFFC010024B193B193B193B193C8
:101780000394D1F708952FB7F89480919401909124
:101790009501A0919601B09197012FBF80939B0373
:1017A00090939C03A0939D03B0939E0308950F9381
:1017B0001F938FB7F8940091940110919501209197
:1017C0009601309197018FBF40919B0350919C03EC
:1017D00060919D0370919E0348535F4F6F4F7F4F01
:1017E00081E0401751076207730708F080E01F91FE
:1017F0000F9108954F925F926F927F928F929F9276
:10180000AF92BF92CF92DF92EF92FF920F931F930E
:10181000CF93DF93EC017B016A01C901A901461B4B
:10182000570B57FF03C051954195510996012C1B49
:101830003D0B37FF03C031952195310911E0241785
:10184000350714F010E00AC03C2D2D2D6C01832FBC
:10185000922F3C2F2D2FE701E32EF22ECC16DD0622
:1018600054F43E2D2F2D7C01832F922F3C2F2D2FB2
:10187000E601C32ED22E26014C1A5D0A4C018E18A9
:101880009F0897FE03C0919481949108520157FEDE
:1018900003C02FEFA21AB20AB594A794E816F9066E
:1018A00014F08FEF01C081E0682E880F7708CC1606
:1018B000DD06B4F0202F112319F0AE01B70102C0EC
:1018C000A701BE018FE993E00E94D915A818B908B5
:1018D000B7FE04C0E60CF71CA40CB51C2196E7CF9C
:1018E000DF91CF911F910F91FF90EF90DF90CF90FC
:1018F000BF90AF909F908F907F906F905F904F9030
:101900000895E0919F03F091A0030190F081E02DF4
:10191000682F8FE993E00994E4E8F1E0019000205A
:10192000E9F73197AF014458514064E871E08FE91D
:1019300093E00C942D0F80919203813048F1833015
:1019400018F08530A8F008950E946D080E943708AD
:101950008091930380FD1CC08CEA91E00E94D1220B
:101960008091810390918203892B91F00C949F07C1
:101970008CEA91E00E94D1228091810390918203B0
:10198000892B11F00E949F070E946D080C94370864
:1019900008952F923F924F925F926F927F928F9213
:1019A0009F92AF92BF92CF92DF92EF92FF920F93EE
:1019B0001F93CF93DF93CDB7DEB729970FB6F89477
:1019C000DEBF0FBECDBF8C01E0917B02F0917C02A7
:1019D000DF01A951BE4F2D913C91C901800F911F8C
:1019E00064E070E00E94F72F8E0F9F1FFC01ED5006
:1019F000FE4F8081829FB001839F700D1124600F84
:101A0000711F072E000C880B990B6115710581055C
:101A1000910511F00E941E33C80163E070E00E943E
:101A2000F72F6C0145E0CC0CDD1C4A95E1F780E016
:101A300090E0FC01EC0DFD1DE358FD4F1082019676
:101A400080329105B1F70E94193323E030E040E085
:101A500050E00E943D33DC01CB010D96A11DB11D6C
:101A6000382EE0917B02F0917C02E951FE4F2081FB
:101A700020FF02C0212C02C038E0232E580124E0B0
:101A8000AA0CBB1C2A95E1F7822C912C011511059B
:101A900089F4222041F0B4016F5F7F4F81E090E034
:101AA0000E94940A07C0BC016250710981E090E075
:101AB0000E94640A81E0022C01C0880F0A94EAF7B0
:101AC0008D837501A60142585D4F59874887C12C07
:101AD000D12C612C712CC40105969F838E83240127
:101AE00092E0490E511C222061F0A8E0E885F985BA
:101AF0002A1621F08291BD818B2B02C080818160EA
:101B00008083C114D10409F0BBC0832D90E09C01F7
:101B10002850310941E050E002C0440F551F2A957A
:101B2000E2F79A01A885B9853C91232B2C93019665
:101B30008031910561F70115110509F4A4C0809168
:101B4000790390917A03081719070CF09CC00E9442
:101B500019332AE030E040E050E00E943D33672B2B
:101B6000682B692BA1F40E94193323E030E040E098
:101B700050E00E943D33DC01CB010296A11DB11D56
:101B80006C012220B9F0E1E0CE1AD10813C00E9406
:101B9000193325E030E040E050E00E943D33672BF0
:101BA000682B692B39F40E941933FFE03F129EC065
:101BB0008EE0382E80917F03909180038A159B05DB
:101BC0000CF061C00E94193328E030E040E050E0A2
:101BD0000E943D33672B682B692BB9F50E9419339E
:101BE00024E130E040E050E00E943D336A3040F4B0
:101BF000232D30E022503109A7016FEF76E01FC09E
:101C0000603140F4232D30E022503109A70167EE06
:101C100076E015C0633158F409301105B4F0232D76
:101C200030E022503109A7016FEC76E008C009309E
:101C300011055CF022E030E0A70167E876E08091D2
:101C40007B0290917C020E9408170E94193320E1C8
:101C500030E040E050E00E943D33672B682B692B59
:101C600091F4C114D10479F4632D70E04E815F8149
:101C70004617570744F45FE065167104C9F503C0C1
:101C800081E0C81AD1089FEF691A790AAFEFEA1A02
:101C9000FA0AE885F9853296F987E887F0E16F1648
:101CA000710409F020CF8091790390917A0308178D
:101CB000190781F4C5010D96222031F0B4016F5F40
:101CC0007F4F0E94940A06C0632D70E06250710934
:101CD0000E94640A80917F03909180038A159B057E
:101CE000B4F5B0928003A0927F0331C0339462CFE9
:101CF0009B0123503109032E000C440B550B6750F8
:101D00007109641575050CF4B201072E000C880BDF
:101D1000990B0E947F0F69837A838B839C830E9437
:101D2000193324E030E040E050E00E943D33672B5F
:101D3000682B692B29F449815A81B70189E004C0D5
:101D400049815A81B70187E00E942C0A9CCF2996CD
:101D50000FB6F894DEBF0FBECDBFDF91CF911F91BC
:101D60000F91FF90EF90DF90CF90BF90AF909F903A
:101D70008F907F906F905F904F903F902F9008953D
:101D80008091790390917A039695982F882797955B
:101D90008795019720917B0330917C033695322FF4
:101DA000222737952795215C3F4FE0917703F091EB
:101DB0007803DF01B695BA2FAA27B795A79540916A
:101DC000B2015091B3014054510950938F03409395
:101DD0008E036091B4017091B501685071092617A6
:101DE00037072CF0709391036093900304C03093F5
:101DF0009103209390038417950724F490938F0305
:101E000080938E0380918E0390918F038A179B0796
:101E100024F4B0938F03A0938E03A0917B02B09122
:101E20007C021E968D919C911F9797FF02C081584E
:101E30009F4F880F892F881F990B019797FF02C02A
:101E400080E090E0E817F9073CF4909378038093E2
:101E5000770302960C94C90C0895CF92DF92EF920B
:101E6000FF920F931F93CF93DF936C017A018B0145
:101E7000C0E0D0E0CE15DF0589F0D8016D918D016D
:101E8000D601ED91FC910190F081E02DC6010995FC
:101E9000892B11F47E0102C02196ECCFC701DF919E
:101EA000CF911F910F91FF90EF90DF90CF90089509
:101EB0003FB7F8948091130890911408A0911508E9
:101EC000B091160826B5A89B05C02F3F19F00196C2
:101ED000A11DB11D3FBFBA2FA92F982F8827820FB0
:101EE000911DA11DB11DBC01CD0142E0660F771F00
:101EF000881F991F4A95D1F708950E942530CF92E7
:101F0000DF92EF92FF920F931F93CF93DF9300D056
:101F100000D0CDB7DEB76217730784079507FCF4CE
:101F200089019A016B017C01A9019801261B370BDD
:101F3000480B590B69F029833A834B835C830E94D9
:101F4000193329813A814B815C810E943D3303C062
:101F500060E070E0CB016C0D7D1D8E1D9F1D0F900C
:101F60000F900F900F90DF91CF911F910F91FF90E5
:101F7000EF90DF90CF9008954F925F926F927F9293
:101F8000EF92FF920F931F93CF93DF93CDB7DEB7FE
:101F9000A1970FB6F894DEBF0FBECDBF7C01FA014A
:101FA000CB0119A2223008F42AE08E010F5D1F4FE9
:101FB000422E512C612C712CBF01A30192010E9471
:101FC0006F33F901CA01015011096A3014F4605DE0
:101FD00001C0695CD8016C93232B242B252B61F75E
:101FE0000115110591F0F80101900020E9F73197F2
:101FF000AF01401B510BD701ED91FC910280F381A1
:10200000E02DB801C701099502C080E090E0A196DB
:102010000FB6F894DEBF0FBECDBFDF91CF911F91F9
:102020000F91FF90EF907F906F905F904F90089589
:10203000EF92FF920F931F93CF93DF938C017B015D
:10204000C0E0D0E0F701EC0FFD1F6491662361F062
:10205000D801ED91FC910190F081E02DC801099526
:10206000892B11F02196EECFCE01DF91CF911F91F8
:102070000F91FF90EF900895362F90E0FC01EE5BFA
:10208000F14F4491FC01EA5EF74F2491FC01ED5BB6
:10209000F74F8491882309F451C04423E1F150E0C3
:1020A000FA013197EF30F105B0F5EA5AFF4F0C9481
:1020B0000B30909180009F7707C0909180009F7DAA
:1020C00003C090918000977F9093800024C094B5C6
:1020D0009F7702C094B59F7D94BD1DC090919000E4
:1020E0009F7707C0909190009F7D03C090919000D2
:1020F000977F909390000FC09091C0009F7703C08E
:102100009091C0009F7D9093C00005C09091C20047
:10211000977F9093C200E82FF0E0EE0FFF1FEB5C7B
:10212000F74FA591B4918FB7F894EC91311103C09A
:1021300020952E2301C02E2B2C938FBF0895CF9373
:10214000DF9390E0FC01EA5EF74F2491FC01ED5B28
:10215000F74F8491882361F190E0880F991FFC016B
:10216000E856FE4FC591D491FC01EB5CF74FA59169
:10217000B491611109C09FB7F8948881209582239A
:102180008883EC912E230BC0623061F49FB7F894E2
:102190003881822F809583238883EC912E2B2C937A
:1021A0009FBF06C08FB7F894E8812E2B28838FBF7E
:1021B000DF91CF9108951F93CF93DF93182FEB01F9
:1021C00061E00E949F10209711F460E004C0CF3FAF
:1021D000D10539F461E0812FDF91CF911F910C94EB
:1021E0003C10E12FF0E0EE5BF14FE4914E2F50E018
:1021F000FA013197EF30F10508F06CC0EB59FF4F51
:102200000C940B3084B5806884BDC7BD68C084B5AC
:10221000806284BDC8BD63C0809180008068809367
:102220008000D0938900C093880059C080918000BD
:10223000806280938000D0938B00C0938A004FC04F
:1022400080918000886080938000D0938D00C0933F
:102250008C0045C080919000806880939000D0935E
:102260009900C09398003BC0809190008062809359
:102270009000D0939B00C0939A0031C08091900051
:10228000886080939000D0939D00C0939C0027C0ED
:102290008091C00080688093C0008091C0008F7BD7
:1022A0008093C000C093CF001AC08091C0008062AC
:1022B0008093C000C093D00012C08091C20088609B
:1022C0008093C2008091C2008B7F8093C200C09334
:1022D000D20005C0C038D1050CF07CCF76CFDF919D
:1022E000CF911F9108958F929F92AF92BF92CF92FC
:1022F000DF92EF92FF926B017C010E94580F4B011D
:102300005C01C114D104E104F104F1F00E94580F02
:10231000DC01CB0188199909AA09BB09883E9340C1
:10232000A105B10570F321E0C21AD108E108F10856
:1023300088EE880E83E0981EA11CB11CC114D10444
:10234000E104F10419F7DDCFFF90EF90DF90CF901B
:10235000BF90AF909F908F9008951F920F920FB6ED
:102360000F9211242F933F938F939F93AF93BF931B
:102370008091940190919501A0919601B09197015F
:102380003091120823E0230F2D3720F40196A11D70
:10239000B11D05C026E8230F0296A11DB11D209393
:1023A00012088093940190939501A0939601B093A5
:1023B00097018091130890911408A0911508B0918D
:1023C00016080196A11DB11D80931308909314085F
:1023D000A0931508B0931608BF91AF919F918F916C
:1023E0003F912F910F900FBE0F901F9018958FB1B6
:1023F0002CB193B130E02095309520743327A9019A
:1024000023E0559547952A95E1F7292F30E020954F
:102410003095207133273595279535952795242BB1
:102420008095807F822B0895E0916601F09167018D
:10243000908180916501892B8083E0916301F09107
:102440006401908180916201809589238083E0916D
:102450006601F091670190818091650180958923E3
:1024600080830895E0916301F091640190818091EF
:102470006201892B8083E0916601F0916701908170
:102480008091650180958923808308958EBD000029
:102490000DB407FEFDCF8EB50895CF92DF92EF9277
:1024A000FF920F931F93CF936C0100E810E0C0E000
:1024B000E12CF12C0E94141280E10E94461282E06D
:1024C0000E9446128C2F806B0E9446120E9432128C
:1024D000F601EE0DFF1D80818EBD97012F5F3F4FEE
:1024E0007901201731074CF4F601E20FF31F8081C8
:1024F0000DB407FEFDCF8EBDF1CF0DB407FEFDCFAD
:10250000CF5F00581F4FC830A9F6CF911F910F9190
:10251000FF90EF90DF90CF900895CF92DF92EF92EF
:10252000FF920F931F93CF93E82FF0E0EE59F74FF0
:10253000C491E62FF0E0603330F4EE5EF14FE491A9
:102540000E2F10E006C0EE0FFF1FEE5EF24F05915A
:1025500014916801E12CF12C60E074E284EF90E0CA
:10256000A70196010E943D33BA01A90141505109CA
:10257000610971094115510581E06807710580F015
:1025800060E970ED83E090E0A70196010E943D3381
:10259000BA01A901415051096109710983E001C0E3
:1025A00081E0C130C9F0C33031F590919100987F3E
:1025B000892B809391005093990040939800109339
:1025C00011080093100881E080930F08809171003A
:1025D0008260809371000FC090918100987F892B59
:1025E00080938100509389004093880080916F0010
:1025F000826080936F00CF911F910F91FF90EF90B9
:10260000DF90CF9008951F920F920FB60F92112472
:102610002F933F938F939F93AF93BF93EF93FF932A
:102620008091A301882309F44DC080919F0190916E
:10263000A001A091A101B091A201892B8A2B8B2B23
:1026400051F180919B01E0919C01F0919D0190815D
:102650008927808380919F019091A001A091A10181
:10266000B091A201181619061A061B06A4F580914E
:102670009F019091A001A091A101B091A2010197A9
:10268000A109B10980939F019093A001A093A1019A
:10269000B093A20120C01092A30180916F008D7FA2
:1026A00080936F0090919B01E0919C01F0919D01BE
:1026B0008081282F30E0892F90E0809590958223AB
:1026C000932308C080919B01E0919C01F0919D01B2
:1026D000908189278083FF91EF91BF91AF919F9166
:1026E0008F913F912F910F900FBE0F901F901895D3
:1026F000E82FF0E0EE59F74FE491E13019F0E330C4
:1027000069F0089580916F008D7F80936F009091A4
:102710009B01E0919C01F0919D0108C010920F086F
:1027200090919801E0919901F0919A018081282F70
:1027300030E0892F90E080959095822393238083C9
:102740000895E0916801F0916901BF016F5F7F4FCB
:1027500070936901609368014491942F907F842F56
:102760008F70903819F40E947813EBCF903981F470
:102770003296F0936901E0936801FB0164919091B6
:102780009E018917F0F667FDDCCF0E948D12D9CF2C
:10279000903E49F480916A0190916B019093690198
:1027A00080936801CECF903F19F410926C01089588
:1027B00097FDC7CF3296F0936901E0936801FB0162
:1027C000249130E0342BA0911008B09111080E94A0
:1027D00091336C507E4F8F4F9F4F28EE33E040E097
:1027E00050E00E946F3320930B0830930C08409305
:1027F0000D0850930E0880910B0890910C08A09141
:102800000D08B0910E08892B8A2B8B2B61F481E087
:1028100090E0A0E0B0E080930B0890930C08A093A8
:102820000D08B0930E0808951F920F920FB60F92E5
:1028300011242F933F934F935F936F937F938F93C5
:102840009F93AF93BF93EF93FF9380910F088823DB
:1028500049F080919801E0919901F0919A0190815D
:102860008927808380916C01882329F180910B084E
:1028700090910C08A0910D08B0910E08892B8A2B1D
:102880008B2BC9F080910B0890910C08A0910D083A
:10289000B0910E080197A109B10980930B0890939C
:1028A0000C08A0930D08B0930E08892B8A2B8B2B54
:1028B00011F40E94A113FF91EF91BF91AF919F91ED
:1028C0008F917F916F915F914F913F912F910F90D9
:1028D0000FBE0F901F9018952F923F924F925F92CC
:1028E0006F927F928F929F92AF92BF92CF92DF9220
:1028F000EF92FF920F931F93CF93DF93CDB7DEB785
:102900002A970FB6F894DEBF0FBECDBF9E838D838E
:10291000202E312CCB01820D931D97FD31C16038E3
:1029200071050CF02DC1CA018E0D911D97FD28C1B6
:10293000403451050CF024C1DA0157FF04C0AA2726
:10294000BB27A41BB50BA770BB27CA0157FD079671
:1029500013E0959587951A95E1F757FF07C0019702
:1029600048E050E05A01AA1ABB0AD501EE2DE695BF
:10297000E695E695AE2EB12C4E2D477019F00FEF6F
:10298000A01AB00AAC015695542F44275795479585
:10299000460F571F8501080F191F1C830B83412CFD
:1029A000512CF8E0EF2EF12C5701AA1ABB0ABA827B
:1029B000A982AB80BC808A159B0509F4E1C08830F0
:1029C000910509F4DDC08F3F0FEF90070CF4CEC0E6
:1029D0003A0110E8610E711C8A010C561F4FAD8040
:1029E000BE80A00EB11EB886AF824B0100E010E0A1
:1029F000021513050CF0BAC0E0E88E16910409F434
:102A0000B5C097FCA8C08F3FFFEF9F0709F4B4C083
:102A1000F801E40DF51DEF80F884E618F708AA2404
:102A2000A394E20FF31FCA1013C0E491E40EF51E45
:102A3000F0E05F010A2E02C0AA0CBB1C0A94E2F768
:102A4000BA86A986F701B080E985FA85EB292BC003
:102A5000C11017C0E491E40EF51EF0E00A2E02C08A
:102A6000EE0FFF1F0A94E2F75F01A094B094BA86BC
:102A7000A986F701A080B12CE985FA85AE22BF2294
:102A800013C0E491E40EF51EF0E05F010A2E02C0CF
:102A9000AA0CBB1C0A94E2F7BA86A986F701B0809B
:102AA000E985FA85EB255F01F701A082109709F40B
:102AB00052C08730910509F44EC0F801E40DF51DB0
:102AC000AA24A394CA1011C0E20FF31FE491EE2EC2
:102AD000F12C5701098002C0B594A7940A94E2F73B
:102AE000EF81F885F080AF2835C0EF80F884E618D4
:102AF000F708E20FF31FC11018C0E491E60CF71CB1
:102B0000AE2EB12C098002C0B594A7940A94E2F7C6
:102B1000F501E095F095FA87E987F701A080B12CDF
:102B2000E985FA85AE22BF2214C0E491E60CF71CB9
:102B3000AE2EB12CF501098002C0F595E7950A94F7
:102B4000E2F7FA87E987F701B080E985FA85EB2596
:102B50005F01F701A0820F5F1F4FEF81F88531966B
:102B6000F887EF83FFEF8F1A9F0A42CF0196420C3E
:102B7000531C40585F4F1DCF109709F09ECFEBCFED
:102B80002A960FB6F894DEBF0FBECDBFDF91CF916E
:102B90001F910F91FF90EF90DF90CF90BF90AF907B
:102BA0009F908F907F906F905F904F903F902F906D
:102BB00008956038710518F54034510500F5A42FCB
:102BC000A695A695A695B0E047705527B695BA2F5D
:102BD000AA27B795A7956A0F7B1FFC01E60FF71F81
:102BE00081E090E001C0880F4A95EAF7222319F0AE
:102BF0009489892B03C0809594898923848B0895B7
:102C00002F923F924F925F926F927F928F929F92FC
:102C1000AF92BF92CF92DF92EF92FF920F931F93EA
:102C2000CF93DF93CDB7DEB72A970FB6F894DEBF08
:102C30000FBECDBF6A3091F4FC01E85EFB4F4081CE
:102C400032972081318158E0459F200D311D11249C
:102C500031832083329711821082C1C06D3009F414
:102C6000BEC09A878987885E9B4F9C838B83DC01DB
:102C70002C90E985FA85EA5EFB4F60807180E985DA
:102C8000FA85EC5EFB4FFA83E983008111810038FD
:102C90001105D4F0AB81BC812C91422F50E0E98129
:102CA000FA8180819181F6E02F9F800D911D112482
:102CB000A981BA818D939C93E985FA85E75EFB4FE4
:102CC000208121115EC08BC0B0E46B16710414F733
:102CD000C801E5E02E9E800D911D112418161906DD
:102CE000CCF6422C512CC301F8E02F9E800D911D93
:102CF00011241816190674F655E0659F90011124E9
:102D00003F832E83E12CF12C85E0E816F10441F09D
:102D1000EE81FF81EE0DFF1DEE58F74F349001C09C
:102D2000312C630138E0932D91709D834801882DEB
:102D3000801B8215B0F456018A2D8C19821568F417
:102D40002D81A501B40189859A8538870E94D915FE
:102D5000AFEFAA1ABA0A3885EFCFBFEF8B1A9B0ADA
:102D6000E6CF36943150C40CD51C3111DCCFEFEFD7
:102D7000EE1AFE0A040D151DF6E0EF16F10421F619
:102D800089CF6AEF64039001659F300D11242058AC
:102D90003F4F281739071CF5A985BA85ED91FC919D
:102DA00011970190F081E02D6AE0CD012A960FB6CF
:102DB000F894DEBF0FBECDBFDF91CF911F910F9171
:102DC000FF90EF90DF90CF90BF90AF909F908F904B
:102DD0007F906F905F904F903F902F9009942A962C
:102DE0000FB6F894DEBF0FBECDBFDF91CF911F911C
:102DF0000F91FF90EF90DF90CF90BF90AF909F909A
:102E00008F907F906F905F904F903F902F9008959C
:102E1000AF92BF92CF92DF92EF92FF920F931F93E8
:102E2000CF93DF93CDB7DEB764970FB6F894DEBFCC
:102E30000FBECDBFFC017C018AE2E80EF11CCE0181
:102E4000019600E010E0D701DC90D11040C0A3E172
:102E5000A09FC001A19F900D1124DC015996AE0FD7
:102E6000BF1FE80FF91F768F658F81E082A782E090
:102E700083A703E0440F551F0A95E1F717965C936B
:102E80004E93169783E0220F331F8A95E1F7199628
:102E90003C932E9318971B961C921E921A971D9680
:102EA0001C921E921C9750961C9250971F961C9233
:102EB0001E921E976758764041F48CEF9FEF94A3C3
:102EC00083A382E090E096A385A3CD016CC0C68465
:102ED000D784D7011B970D90BC91A02DCA1ADB0A8D
:102EE000D7FE03C0D194C194D108DC01CD92DC920D
:102EF0000F5F1F4FB3E1EB0EF11C02960A30110574
:102F000009F0A1CF99818E010D5F1F4F81E0B12C97
:102F1000D801ED90FD908D01C92ED12CCE14DF0487
:102F200014F49E2DB82E8F5F8A3091F783E1B89EFE
:102F3000D0011124CD0149968E0F9F1FEA0FFB1F70
:102F4000768F658FA1E0A2A7A2E0A3A7A3E0440F1C
:102F5000551FAA95E1F7DC0117965C934E931697DF
:102F600013E0220F331F1A95E1F719963C932E9325
:102F700018971B961C921E921A971D961C921E92D1
:102F80001C9750961C9250971F961C921E921E974B
:102F90006758764041F42CEF3FEF34A323A322E09F
:102FA00030E036A325A364960FB6F894DEBF0FBEBB
:102FB000CDBFDF91CF911F910F91FF90EF90DF90E8
:102FC000CF90BF90AF900C94AF21CF93DF9357FD7C
:102FD00021C0EC01CE59DF4FA0E0B0E0288139815B
:102FE0002617370791F42A813B812417350769F4A6
:102FF00045E04A9F90014B9F300D1124820F931F93
:10300000FC01EA59FF4F808106C011962596AE312A
:10301000B10521F780E0DF91CF9108952F923F9283
:103020004F925F926F927F928F929F92AF92BF92D8
:10303000CF92DF92EF92FF920F931F93CF93DF9384
:103040008C017B016A01EC01CA59DF4F1C018CEF36
:10305000280E311C84E1482E512C94E6692E98E00C
:10306000792E29E6A22E28E0B22E4A01E1E08E1A3E
:103070009108FE013497808191818E159F05A9F5F5
:103080003296808191818C159D0579F588818730F4
:1030900061F0893051F59401A70168E176E0F8010B
:1030A000808191810E9408171EC0F8012081318122
:1030B000F901ED51FE4F80819181019691838083CA
:1030C000B2010E94F72FD901AF50BE4F892B49F4AE
:1030D000329680819181019691838083AD92BC92DA
:1030E00002C06D927C92F8E0F8832596C215D30554
:1030F00009F0BFCFDF91CF911F910F91FF90EF901B
:10310000DF90CF90BF90AF909F908F907F906F9007
:103110005F904F903F902F900895FC0180911F0881
:10312000811103C08FEF9FEF08959FB7F89482E05D
:103130008093E9002091F20030E01216130614F497
:1031400021E030E02115310559F0289884E680937C
:103150001E088091F10080838091F200882319F08D
:103160009FBFC90108958BE68093E800F9CF809155
:10317000260881110DC082E08093220884E08093AC
:103180002308109225081092240881E080932608D5
:1031900082E298E00895CF93DF931F92CDB7DEB718
:1031A0006983DC01ED91FC910280F381E02D41E027
:1031B00050E0BE016F5F7F4F09950F90DF91CF9177
:1031C000089583E08093E9008091F200882319F04C
:1031D0008AE38093E8000895CF93DF931F92CDB7E1
:1031E000DEB7FC018485958597FD05C02FEF3FEF85
:1031F000358724870BC0CE0101960E948D18019758
:1032000019F4898190E002C08FEF9FEF0F90DF915A
:10321000CF9108950F931F93CF93DF931F92CDB754
:10322000DEB78C01FC018485958597FF0EC0CE0129
:1032300001960E948D18019719F4298130E002C08F
:103240002FEF3FEFF80135872487F80184859585B6
:103250000F90DF91CF911F910F910895FC0184850C
:10326000958597FD0BC09FB7F89482E08093E900A5
:103270008091F2009FBF90E0019608959FB7F89467
:1032800082E08093E9008091F2009FBF90E0089572
:103290008F929F92AF92BF92CF92DF92EF92FF9266
:1032A0000F931F93CF93DF935C016B018A01809191
:1032B0000F01882309F45EC080911F08882309F458
:1032C00059C080911D0880FF05C08091E000826098
:1032D0008093E000E8018AEFF82E93E0E92E2FE3D7
:1032E000822E3AE3932E209709F43DC08FB7F894CD
:1032F000E092E9009091E80095FF06C09091F200FD
:10330000282D291B922F01C090E08FBF91110AC078
:10331000FA94FF2079F161E070E080E090E00E9493
:103320007311E1CF292F30E0C217D3070CF49C2F83
:103330008FB7F894E092E9002091E80025FF11C0D2
:10334000292F30E0C21BD30BF601915020F04191A0
:103350004093F100FACFC20ED31E9091E80095FF82
:1033600013C08FBFC0CF5D9884E6809321081016EC
:10337000110644F081E090E0F5019383828380E0C0
:1033800090E005C0C80103C09092E800EACFDF9149
:10339000CF911F910F91FF90EF90DF90CF90BF9052
:1033A000AF909F908F900895CF92DF92EF92FF920F
:1033B0000F931F93CF93DF931F92CDB7DEB7182FD4
:1033C000062FE42E862F880F8E5F99830E94C123DB
:1033D00083E00E94C123F12EC12E9981D92E8C2D1C
:1033E0008F19801798F4F601E7FE02C0849101C09E
:1033F00080810E94C123182F80E00E94C123812375
:10340000FFEFCF1ADF0A8111EACF01C081E00F90F0
:10341000DF91CF911F910F91FF90EF90DF90CF90B0
:103420000895DF92EF92FF920F931F93CF93DF9354
:10343000D82E8A017B01E40EF51EEB01CE15DF05C7
:1034400071F0D7FE03C0FE01849101C088810E9403
:10345000C12321968111F2CF8FEF9FEF01C0C801E8
:10346000DF91CF911F910F91FF90EF90DF90089522
:103470000F931F93CF93DF931F92CDB7DEB782E0F8
:10348000898342E450E061E67EE080E80E94111A00
:103490000E94B718DC0112960D911C91139701152B
:1034A000110569F0D801ED91FC910280F381E02DC6
:1034B000BE016F5F7F4FC801099597FF07C08981E3
:1034C0000F90DF91CF911F910F910895F801008522
:1034D0001185E5CFCF92DF92EF92FF921F93CF93AA
:1034E000DF9300D000D0CDB7DEB781E080939203A8
:1034F0001092960310929503109274031092730326
:1035000010927E0310927D0310927803109277033D
:103510001092800310927F0380E090E02FEF3FEF46
:10352000FC01E152FD4F31832083059686399105D8
:10353000B9F7E12CF12C13E11E9DC0011F9D900DE8
:103540001124499620917B0230917C02820F931FB7
:103550000E94631E8FEFE81AF80A8AE0E816F10469
:1035600059F7E0917B02F0917C02DF01A951BE4F37
:103570002D913C91C90164E070E00E94F72FE80FA3
:10358000F91FED50FE4F8081829FB001839F700D27
:103590001124072E000C880B990B6115710581050C
:1035A000910511F00E941E33E0917B02F0917C02A4
:1035B000E951FE4F20813181032E000C440B550B45
:1035C000211531054105510571F029833A834B835B
:1035D0005C830E94193329813A814B815C810E946E
:1035E0003D339B01AC01245F3F4F6901032E000C6A
:1035F000EE08FF08E0917B02F0917C02E951FE4F5A
:1036000080819181280F391F032E000C440B550B2C
:10361000C701B6010E947F0F9B01770F440B550B2A
:10362000C701B6010E947F0F70937A0360937903FC
:1036300080E090E00E94C90C81E090E00E94C90CFB
:1036400082E090E00E94C90C61E08CEA91E00E9467
:10365000041F811105C08CEA91E00E94F51FF4CF90
:103660000F900F900F900F90DF91CF911F91FF90CF
:10367000EF90DF90CF900C94C00ECF93DF93AB010F
:10368000682F70E0403187E258076CF4483EC3E091
:103690005C0764F44436510564F44A30510564F41F
:1036A00020E030E00BC024E130E008C02FE030E043
:1036B00005C02AE030E002C025E030E08091AA0198
:1036C0009091AB01DC01AC5EBB4FE0E6F0E0EF01B6
:1036D000C21BD30BCD93DC93FC01EA5EFB4F7183DD
:1036E000608360E070E02AE00E94BC0F8091AA0134
:1036F0009091AB0144960E944D126AEF70E080E019
:1037000090E00E9473110E94F7118823E1F3DF918A
:10371000CF9108950F931F93CF93DF932091B20120
:103720003091B30182179307CCF0EB018C018CEA46
:1037300091E00E94761E8017910784F08091B40179
:103740009091B501C817D9074CF08CEA91E00E941E
:10375000F51E8C179D0714F081E001C080E0DF9119
:10376000CF911F910F9108951F920F920FB60F9254
:1037700011248F939F938091E1009091E100937FBA
:103780009093E10083FF0FC01092E90091E09093C5
:10379000EB001092EC0092E39093ED0010921F0862
:1037A00098E09093F00082FF20C093E09093E900AE
:1037B0009091F200992319F09AE39093E800909188
:1037C0002108992339F09091210891509093210874
:1037D000992389F190911E08992339F090911E0840
:1037E000915090931E08992341F184FF10C080915D
:1037F000E2008E7E81608093E2008091E1008F7E06
:103800008093E10080911D088E7E806111C080FF51
:1038100016C08091E2008E7E80618093E2008091EC
:10382000E1008E7E8093E10080911D088E7E816094
:1038300080931D0804C05D9ACDCF289AD6CF9F9162
:103840008F910F900FBE0F901F9018951F920F929F
:103850000FB60F921124CF92DF92EF92FF920F9347
:103860001F932F933F934F935F936F937F938F9308
:103870009F93AF93BF93EF93FF93CF93DF93CDB716
:10388000DEB76C97DEBFCDBF1092E9008091E800F3
:1038900083FFFAC168E0CE0145960E94EF2382EFD4
:1038A0008093E8008D8987FF05C09091E80090FF24
:1038B000FCCF03C09EEF9093E800982F907609F01C
:1038C000C6C09E892F89188D91110CC0803829F4AB
:1038D00080911C088093F10002C01092F1001092B8
:1038E000F10047C1422F50E0512B913051F481112A
:1038F00040C14130510509F03CC180911C088D7FC9
:103900000BC0933061F4811134C14130510509F08D
:1039100030C180911C08826080931C082AC19530B8
:1039200041F48091E80080FFFCCF20682093E30001
:1039300020C1963009F05FC0EB8CFC8C1092E9003E
:1039400010921A0810921908123091F51092180866
:10395000109217080E94381A99E0BE016F5F7F4FDE
:10396000DB01E92F1D92EA95E9F799831A8391E02B
:103970009E8390EA98879AEF998720911908309151
:103980001A08275F3F4F3C832B838D831092E900F9
:1039900010921A0810921908F0921808E09217086D
:1039A00049E050E080E00E94111A0E94381AE1C0FC
:1039B000F0921808E09217080E94B718DC011296DE
:1039C000ED90FC901397E114F10409F4C0C0D70105
:1039D000ED91FC910480F581E02DBE016B5E7F4F7F
:1039E000C7010995009719F00CF0C3C0C6C0F701D4
:1039F000E084F184E8CF973009F4BFC0983021F417
:103A000081E08093F100B5C0993009F0B2C08370B5
:103A100009F0B3C0EDE4F1E081E021E036E390810C
:103A2000992361F08093E9002093EB0091919093AA
:103A3000EC003093ED008F5F873089F78EE780933D
:103A4000EA001092EA008F8980931F0892C08B8D44
:103A50009C8D1092E90010921A0810921908909308
:103A6000180880931708898D811156C08E899D8909
:103A7000913A59F4813209F080C047E050E068E0A3
:103A800071E080E00E94111A74C0913209F075C093
:103A9000833289F4888D90E0982F88272F89822B94
:103AA000A0E0B0E08093040190930501A09306018B
:103AB000B09307015EC0803269F48091E80082FF14
:103AC000FCCF67E088E091E00E94EF238BEF8093CA
:103AD000E80006C0823209F04CC08F8980930F0144
:103AE00080911B08882319F0EEEFFAE002C0E0E0B5
:103AF000F8E08091080190910901A0910A01B0912C
:103B00000B01803B9440A105B10509F088C080916C
:103B10000F0180FFA0C083C00E94B718DC0112967D
:103B20000D911C9113970115110539F1D801ED91F3
:103B3000FC910190F081E02DBE016B5E7F4FC801CA
:103B40000995811116C0F80100851185ECCF11305F
:103B5000C1F0133091F48F89882309F455C0823065
:103B6000E9F440E860E183EB9EE00E94D4198823E9
:103B700021F08EEF8093E80087C081E28093EB0014
:103B800083C08B8D9C8D089711F410932008809131
:103B90002008811136C064EC7EE038C0813029F401
:103BA00040E86BE087EA9EE0E0CF833031F70E9487
:103BB000B718DC011296ED90FC9013978E010F5F01
:103BC0001F4F6801E114F10479F0D701ED91FC91E8
:103BD0000680F781E02DB801C7010995080F111D76
:103BE000F701E084F184EECFD8011C92F601019038
:103BF0000020E9F73197BF016C197D0940E0C6014B
:103C0000B4CF66ED7EE002C063EA7EE06115710527
:103C100009F4B3CFFB01449150E080E833CF0FB6F5
:103C2000F894A8958091600088618093600010925C
:103C300060000FBEA895EE3F2AE0F20739F08091B0
:103C4000FE0A9091FF0A9183808393CF1092FF0A1E
:103C50001092FE0A8ECFEE3F8AE0F80731F08081A5
:103C600091819093FF0A8093FE0A87E797E79183FB
:103C700080839BE088E10FB6F894A895809360005C
:103C80000FBE9093600075CF6C960FB6F894DEBFB0
:103C90000FBECDBFDF91CF91FF91EF91BF91AF915B
:103CA0009F918F917F916F915F914F913F912F9154
:103CB0001F910F91FF90EF90DF90CF900F900FBE6C
:103CC0000F901F901895FC0115821482118A128A98
:103CD0008FEF9FEF97838683918780871386128665
:103CE0001586148617861686108A0895DC011496A8
:103CF000ED91FC911597E49116968D919C911797F3
:103D00008E0F911D019708950F931F93CF93DF930B
:103D10009B0177FF02C0295F3F4FB3E035952795A0
:103D2000BA95E1F7FA0157FD3796A3E0F595E795C7
:103D3000AA95E1F7DC011296CD91DC911397C95257
:103D4000DF4FE131F105D4F5C90137FD0F9644E0AD
:103D5000959587954A95E1F763E070E00E94F72F0B
:103D60008C01C90160E170E00E94F72FAC01440FA3
:103D7000551FC80175E0880F991F7A95E1F78C0FE0
:103D80009D1FDC01A40FB51FE830F10554F481E05C
:103D900090E00E2E01C0880F0A94EAF712969C91CB
:103DA0000BC0BF016850710981E090E001C0880F2D
:103DB0006A95EAF713969C91892349F4AF01B901FA
:103DC000CE01DF91CF911F910F910C94E5178FEFEA
:103DD000DF91CF911F910F910895DC011496ED9121
:103DE000FC911597319684910895CF93DF93FC0150
:103DF000C085D1850E94ED1E9E01280F311DC9018D
:103E00000197DF91CF910895AF92BF92CF92DF9249
:103E1000EF92FF920F931F93CF93DF93EC01E62E67
:103E2000F12CEC81FD81E491E695E695E695FE1690
:103E300008F04CC0EE2021F081E0E816E1F044C02B
:103E4000C884D98491E0C91AD108AE80BF8088E0C7
:103E5000F89E80011124B501600F711FA601CE01EB
:103E60000E94841E811134C00A0D1B1DB801695FB8
:103E70007F4FA60124C008851985CE010E94ED1E42
:103E800098E0F99E60011124A801480F511D6E8130
:103E90007F816C0D7D1DCE010E94841E811118C092
:103EA00008851985CE010E94ED1EA801480F511DFD
:103EB0008E819F818C0D9D1DBC01695F7F4FCE015E
:103EC0000E94841E811104C0F394ABCF80E001C036
:103ED00081E0DF91CF911F910F91FF90EF90DF90E4
:103EE000CF90BF90AF900895CF93DF93EC0161E046
:103EF0000E94041F882321F028EF3FEF3D872C8785
:103F0000DF91CF9108958F929F92AF92BF92CF92FF
:103F1000DF92EF92FF920F931F93CF93DF93EC0109
:103F2000E62EF12CCE010E94ED1E86958695869593
:103F3000F81608F04AC082E0E81621F0E3E0EE1639
:103F4000E1F041C0A884B984F8E0FF9E800111240B
:103F5000CE80DF8081E0C81AD108A501400F511F33
:103F6000B601CE010E94841E811131C0A501400F0F
:103F7000511F495F5F4FB60121C088849984E8E0F2
:103F8000FE9E80011124CE80DF80AC80BD80F501D3
:103F90008491A401400F511FB601680F711DCE011D
:103FA0000E94841E811113C0F501A490A401400F4A
:103FB000511F495F5F4FB6016A0D711DCE010E940E
:103FC000841E811104C0F394ADCF80E001C081E074
:103FD000DF91CF911F910F91FF90EF90DF90CF90E5
:103FE000BF90AF909F908F900895EF92FF920F93A4
:103FF0001F93CF93DF931F92CDB7DEB7DC011496EA
:10400000ED91FC9115973496E4911C968D919C91BD
:104010001D97E0FF19C016964D915C9117971A965F
:104020002D913C911B97240F351F17963C932E938F
:10403000169718962D913C911997820F931F1996F8
:104040009C938E93189783C17D01892B99F461E02D
:10405000CD010E94041F81110DC0D7011C968D91C6
:104060009C911D97863091052CF401961D969C938A
:104070008E931C97F70184859585181619064CF5C3
:1040800000E010E0D7011C968D919C911D970817B8
:104090001907B4F461E0C7010E94041F81110DC02B
:1040A000D70118968D919C911997019619969C931A
:1040B0008E9318970F5F1F4FE5CFF7011586148673
:1040C000F70184859585863091051CF401969587C6
:1040D0008487D7011C968D919C911D9797FFCDC029
:1040E00001961D969C938E931C9700E010E0F701BB
:1040F00084859585801791070CF0BFC060E0C701EB
:104100000E94041FD701882309F4ABC01496ED91D7
:10411000FC9115973496E491E1FD9FC0F70100856D
:1041200011850150110966817781A801C7010E949C
:10413000841E8D3041F5C7010E94761EA801BC0186
:10414000C7010E94841E8E30F1F4F70186819781A9
:10415000803491050CF481C0D70112968D919C9109
:104160001397FC01EF50FE4F24EB35E031832083A1
:10417000339784E080831296ED91FC911397E1517F
:10418000FE4F11821082F70100851185015011093F
:1041900066817781A801C7010E94841E282FC7016C
:1041A00029830E94761EA801BC01C7010E94841EBB
:1041B000182F2981273011F0293031F5D7011896B1
:1041C0008D919C911997AC014150510957FF02C044
:1041D000495F5F4FF3E055954795FA95E1F7F70191
:1041E0006681778177FF02C0695F7F4FE3E0759555
:1041F0006795EA95E1F7D70112968D919C911397F7
:1042000089529F4F0E940E18173011F0193029F56E
:10421000F70180859185AC014150510957FF02C0DB
:10422000495F5F4F8A0163E0159507956A95E1F74D
:10423000C7010E94761E97FD0796BC0153E0759555
:1042400067955A95E1F7D70112968D919C91139736
:10425000A80189529F4F0E940E18F70115861486F7
:104260000CC018968D919C911997019719969C9363
:104270008E931897015011093ACFD7011A968D9154
:104280009C911B971816190644F0F70182859385B7
:1042900097FF5DC000E010E052C000E010E0D701E1
:1042A0001A968D919C911B970817190774F7C701EF
:1042B0000E94761ED7011296ED91FC911397EB5256
:1042C000FE4F208131812F5F3F4F3695322F2227BD
:1042D0003795279582179307C4F663E0C7010E94BC
:1042E000831F8111D2CFF701868197810196978331
:1042F00086830F5F1F4FD3CFD7011296ED91FC91AC
:104300001397ED52FE4F808191819695982F8827C3
:104310009795879516962D913C911797821793073D
:10432000B4F462E0C7010E94831F811110C0F7013D
:104330008681978101979783868301501109D70160
:104340001A968D919C911B9780179107ACF20F9054
:10435000DF91CF911F910F91FF90EF9008950F93F0
:104360001F93CF93DF93EC018C819D819C012A5F89
:104370003F4FF901449142FF62C0AA81BB811C9664
:10438000ED91FC911D97E4914E815F811E966D9198
:104390007C911F976E0F711D641775075CF462E0C6
:1043A0006A8BFC013596E491F0E0F195E195F10915
:1043B000FB87EA87FC016491460F511D1E966D91A3
:1043C0007C911F97461757073CF443E04A8B35967C
:1043D000849190E09B878A87F901249123FFA2C0F2
:1043E0006A89CE010E94831F882319F0CE010E94A2
:1043F000741F8A89823071F46E817F8161507109E6
:104400004FE750E0CE010E94841E811103C0CE010F
:104410000E94741F8A89833009F084C0CE010E94F3
:10442000761EBC016F5F7F4F4FE750E0CE010E94C8
:10443000841E811177C0CE010E94741F73C0F901E0
:10444000249120FF2AC08A89823091F462E0CE0153
:104450000E94831F882311F083E014C0EC81FD814A
:104460003596E491F0E0F195E195F109FB87EA8753
:104470008A89833091F463E0CE010E94831F8823F0
:1044800029F082E08A8B1B861A8607C0EC81FD81A9
:104490003596E491F0E0FB87EA87EC81FD81369662
:1044A000E491E1FF3FC08A898230D9F4CE010E94B5
:1044B000F51EAC014F5F5F4F6E817F8161507109C6
:1044C000CE010E94841E811102C083E020C0EC81D5
:1044D000FD813596E491F0E0F195E195F109FB87D6
:1044E000EA878A898330F1F4CE010E94F51E8C019F
:1044F000CE010E94761EA8014F5F5F4FBC016F5F27
:104500007F4FCE010E94841E811105C082E08A8BFC
:104510001B861A8607C0EC81FD813596E491F0E098
:10452000FB87EA87CE01DF91CF911F910F910C9409
:10453000F51F0F931F93CF93DF938C010E94ED1E05
:10454000D8011496CD91DC911597FE012491829F9C
:104550009001112483E0359527958A95E1F73296ED
:10456000949131966491929FF001939FF00D1124E4
:1045700070E01E968D919C911F970E94F72F269FA9
:10458000A001279F500D369F500D1124CF01840F9D
:10459000951F08968C0F9D1FDF91CF911F910F9152
:1045A00008958F929F92AF92BF92CF92DF92EF9237
:1045B0000F93CF93DF93EC01EC81FD813796E4916B
:1045C000EE2319F10E94ED1EE82EEC81FD8104918D
:1045D000CE010E9499229C01AA81BB81FD01E45178
:1045E000FE4F4885598580819181481B590B329730
:1045F0006E817F8180819181681B790BC12C169619
:104600008D919C9117970E946C14CE010E94ED1E13
:10461000E82EEC81FD810491CE010E94ED1E8C807C
:104620009D80F401C49033966491AA80BB808C9DD8
:104630006001112483E0D594C7948A95E1F770E076
:104640008E859F850E94F72FC69E9001C79E300DD4
:10465000D69E300D1124285F3F4F280D391DF501DE
:10466000E451FE4F4885598580819181481B590B43
:1046700032976E817F8180819181681B790BCC2478
:10468000C394F501868197810E946C144E855F85E5
:104690004F5F5F4F8C819D81FC0132962491319652
:1046A0008491289FF00111244E175F071CF45F8747
:1046B0004E8702C01F861E86DF91CF910F91EF902B
:1046C000DF90CF90BF90AF909F908F900895EF9222
:1046D000FF920F931F93CF93DF93DC0116962D91DA
:1046E0003C911797EB01C21BD30B18968D919C91AF
:1046F0001997D7FD3AC08A01081B190B17FD35C061
:104700001496ED91FC911597E491F0E0EC17FD07FC
:1047100064F17D01CD010E94ED1E90E080179107AC
:1047200024F1C7010E949922D7011496ED91FC91C2
:1047300015972491A80133E0559547953A95E1F7EF
:10474000249FF001259FF00D1124CE0FDF1FFC01E7
:10475000EC0FFD1F849190E00770112702C0959522
:1047600087950A95E2F7817001C080E0DF91CF91D3
:104770001F910F91FF90EF9008950C942F330C949C
:1047800027334091190850911A0820911708309149
:10479000180842175307B4F49091E8009570E1F3BC
:1047A0009091E80092FD19C08093F1008091190862
:1047B00090911A0801968F739927892B19F48EEF1F
:1047C0008093E8008091190890911A0801969093BF
:1047D0001A088093190881E0089580E008956150D7
:1047E00030F02091F100FC0120830196F8CF289849
:1047F00084E680931E080895CF93DF9300D000D005
:1048000000D0CDB7DEB7789484B5826084BD84B51E
:10481000816084BD85B5826085BD85B5816085BDBB
:1048200080916E00816080936E0010928100809173
:1048300081008260809381008091810081608093FB
:104840008100809180008160809380008091910040
:1048500082608093910080919100816080939100AB
:10486000809190008160809390008091C10084606D
:104870008093C1008091C10082608093C1008091CB
:10488000C10081608093C1008091C30081608093EA
:10489000C3008091C00082608093C0008091C200FC
:1048A00081608093C20080917A00846080937A0056
:1048B00080917A00826080937A0080917A00816092
:1048C00080937A0080917A00806880937A001092B9
:1048D0001F0810921C0810921D088091D70081605B
:1048E0008093D70080EA8093D80089B5806189BD24
:1048F00089B5826089BD09B400FEFDCF61E070E03A
:1049000080E090E00E9473118091D8008F7C8061DC
:104910008093D8008091E000807F8093E0008091B8
:10492000E1008E7E8093E1008DE08093E200559A55
:10493000209AEEEFFFE7859194918B3F9C4D19F4FF
:1049400081E080931B081FB7F89480916E0181115C
:1049500027C0E4E5F8E08491E7E2F8E09491E82FDD
:10496000F0E0EE0FFF1FE856FE4FA591B491EC91D9
:10497000E92321F461E081E10E943C1061E081E1E2
:104980000E949F108CB580618CBD8CB580648CBDFD
:1049900061E08FE00E949F1061E080E10E949F1023
:1049A00080916E018F5F80936E011FBF00EC11E05C
:1049B000F80184910E5F1F4F31966491882319F09E
:1049C0000E949F10F5CF61E086E00E943C1061E0FC
:1049D00070E080E090E00E94731160E086E00E9449
:1049E0003C106AE070E080E090E00E94731161E0AA
:1049F00086E00E943C10EFE4F8E0E491F0E0EE0F76
:104A0000FF1FEB5CF74F8591949190936701809322
:104A10006601E2E2F8E0E491E0936501E7E4F8E0A2
:104A2000E491F0E0EE0FFF1FEB5CF74F859194915E
:104A30009093640180936301EAE1F8E0E491E093EC
:104A400062018CB58C7F8CBD8DB581608DBD0E945F
:104A5000141206EA11E0F1E0003C1F0739F0F801FA
:104A600084910E9446120F5F1F4FF5CF0E943212B1
:104A70008091640081608093640080916400826012
:104A800080936400809164008068809364008091CA
:104A900064008064809364008091650081608093ED
:104AA00065000E94F71187FF22C00E94141280E166
:104AB0000E94461282E00E9446120E94321200E0DA
:104AC00014E080E00E94461201501109D1F760E025
:104AD00070E089E00E94DB1060E070E08AE00E94F4
:104AE000DB1060E070E08BE00E94DB10FFCF3EEE59
:104AF000A32EBB24BA9418E188248A94912C812F88
:104B00008A19B401681B710989E00E94DB106FEFFC
:104B100070E08AE00E94DB106FEF70E08BE00E9493
:104B2000DB100E94B40BCC24C39420E1E22E08E5F4
:104B300028EE30E0A50164E170E08FE993E00E9487
:104B40006C1483EB93E00E944D126BE170E080E007
:104B500090E00E94731120EFA21206C06AEF70E08D
:104B600080E090E00E9473113FEFA31AB30A49E17D
:104B7000A416B10421F66EEE72E080E090E00E948F
:104B800073116FEF70E089E00E94DB106FEF70E04F
:104B90008AE00E94DB106FEF70E08BE00E94DB1078
:104BA00085E00E943C0B83E00E943C0B10926C015C
:104BB00082E090E00E942733882369F080916400AE
:104BC000877F8093640080916500877F8093650074
:104BD00081E080936D0187E993E054E0580F5C8396
:104BE000109283010E94C30BFF24FA9411E080E32A
:104BF000A82EB12C98E3892E912C0E94D70B8823E4
:104C000051F10E94F711982F9C7009F078C0982FED
:104C1000907629F09091030191279093030187FFEB
:104C20000AC0909100019F3F19F41093000103C046
:104C30009F5F9093000184FF0BC080910001813041
:104C400019F4F092000105C081508093000101C069
:104C500081110E94C30B0E94B40BCC24C39400E2C8
:104C6000E02E00E62EEB32E040E050E06EE070E037
:104C70008FE993E00E946C1405E32AEE31E04DE1E8
:104C800050E062E470E08FE993E00E946C141092AF
:104C9000B4071092B307B092B607A092B50762EEC0
:104CA00071E08FE993E00E9418104091000150E0FC
:104CB00060E070E02AE08FE993E00E94BC0F109260
:104CC000B4071092B3079092B6078092B5076AEDC9
:104CD00071E08FE993E00E9418108091030188230E
:104CE00019F067ED71E002C063ED71E08FE993E0C8
:104CF0000E94181083EB93E00E944D127ECF6091CA
:104D0000000170E080E090E061157105810591057A
:104D100011F00E941E3307E913E00E9419332FEFB0
:104D200030E040E050E00E943D33D8016D938D01AA
:104D3000BC81B013F2CF10928203109281031092C3
:104D400084031092830310928603109285031092BD
:104D500088031092870381E090E090938A03809308
:104D6000890390938C0380938B0385EF95E0909358
:104D7000B1018093B0018AE090E09093B3018093F9
:104D8000B2011092B5011092B4011092B7011092C5
:104D9000B6011092B9011092B8011092BC011092A4
:104DA000BB011092BA010E946A1AACE54A2EA4E037
:104DB0005A2EB9EA6B2EB4E07B2EFF24F39404EE56
:104DC00014E080919203882309F482C42FB7F894E9
:104DD0008091940190919501A0919601B0919701D5
:104DE0002FBF80937F0190938001A0938101B093A6
:104DF000820180910301882309F4D1C080916C0164
:104E0000811132C0E0908301E7E0EE1548F0109385
:104E10006B0100936A01109369010093680117C048
:104E2000FBE0FE1548F070926B0160926A0170928F
:104E30006901609268010BC02FE02E1560F050925E
:104E40006B0140926A0150926901409268010E9490
:104E5000A113F0926C0181E08E0D803119F08093E6
:104E6000830102C010928301809195039091960373
:104E70000097E1F04EE354E050937A0140937901BA
:104E80009093780180937701109296031092950386
:104E900082E090E0909302018093010110927301EF
:104EA0001092740110927501109276012091770191
:104EB000309178012115310509F471C080907F018E
:104EC00090908001A0908101B090820140916F018B
:104ED0005091700160917101709172018091730124
:104EE00090917401A0917501B0917601840F951F86
:104EF000A61FB71F88169906AA06BB0608F44FC05E
:104F00008091010190910201AC014F5F5F4F50937E
:104F1000020140930101F901E80FF91F84918F3FCD
:104F200059F41092780110927701AFEFBFEFB09370
:104F30000201A093010133C0582F5F70F9019491D1
:104F40003196E491E59FA0011124FA01E90FF11DCA
:104F5000AF01FF0F660B770B40936F015093700109
:104F6000609371017093720182958F7090E081500F
:104F70009048880F991FE0917901F0917A01E80F2C
:104F8000F91F85919491969587950E94C20A809207
:104F9000730190927401A0927501B09276014091D4
:104FA0007F01509180016091810170918201809117
:104FB0007B0190917C01A0917D01B0917E01819651
:104FC000A11DB11D84179507A607B70708F0F9CEF4
:104FD00040937B0150937C0160937D0170937E012F
:104FE0000E94B40B0E94F7119091A80182FF06C0A5
:104FF000911107C091E09093A80103C09111109204
:10500000A8019091A90183FF06C0911107C091E00A
:105010009093A90103C091111092A9019091A5014B
:1050200087FF06C0911107C091E09093A50103C0CE
:1050300091111092A5019091A70184FF06C09111D2
:1050400007C091E09093A70103C091111092A701AE
:105050009091A40185FF06C0911107C091E0909343
:10506000A40103C091111092A4019091A60186FFA2
:1050700006C0911107C081E08093A60103C0911181
:105080001092A601E0907B03F0907C03C7019695F7
:10509000982F8827979587959C0121583F4F790134
:1050A0008091A901811102C083E001C084E02091B8
:1050B000A4019091A601211116C0911127C08091E1
:1050C000B6019091B701181619062CF40197909328
:1050D000B7018093B6018091B6019091B70197FF17
:1050E0002AC0019624C02091B6013091B701215009
:1050F0003109482F50E05195419551092417350742
:105100000CF0B7C55093B7014093B601992399F0BD
:105110002091B6013091B7012F5F3F4F90E0821789
:1051200093072CF03093B7012093B60104C09093FD
:10513000B7018093B6018091A801882361F08CEAC1
:1051400091E00E94741F882331F08FEB95E09093DB
:105150009603809395038091A7018823C1F18091E4
:10516000B2019091B301803491058CF10091B401AA
:105170001091B5018CEA91E00E94ED1EA801480F44
:10518000511D4F5F5F4F6091B2017091B3018CEA86
:1051900091E00E94841E8B30D1F40091B4011091F3
:1051A000B5018CEA91E00E94ED1ED82E8CEA91E0C8
:1051B0000E94761EBC01A8014D0D511D4F5F5F4F2F
:1051C0008CEA91E00E94841E8C3009F457C58091CE
:1051D0009203833069F400919303109194038CEA55
:1051E00091E00E94ED1E90E0081719070CF458C5D5
:1051F00080919203843009F066C500919303109169
:1052000094038CEA91E00E94ED1E90E008171907C4
:105210000CF059C58091B4019091B501019790931C
:10522000B5018093B401809193039091940301960A
:1052300090939403809393030DEB11E046EC242E9E
:1052400045E0342ED80151968C91882309F46DC025
:10525000C8010E94AF21F80160857185E616F70646
:1052600024F4C8010E94631E60C0868197810E9459
:105270008A1B81115BC5F801C084D184C8010E94DA
:10528000761EB6010E948A1B811150C5C8010E947A
:10529000F51EBC01D80116968D919C9117970E941E
:1052A0008A1B811143C5C8010E94F51E6C01C8010B
:1052B0000E94761EB6010E948A1B811137C535C037
:1052C0008091B4019091B501F801A084B184A81631
:1052D000B9060CF45C018CEA91E00E94F51E4C01C9
:1052E000C8010E94F51E881699060CF02FC58CEA9D
:1052F00091E00E94F51E8A159B050CF029C5EFEF81
:10530000CE1ADE0A8CEA91E00E94761E5C01C8018A
:105310000E94761EA816B9060CF016C58CEA91E01C
:105320000E94761E8C159D055CF60D5E1F4F32E0C7
:105330000B37130709F086CF80919203813081F4F7
:105340008091B4019091B501E816F9064CF482E021
:105350008093920389E190E0909394038093930368
:1053600080919203823009F04EC100919303109115
:1053700094030115110509F046C1809189039091AC
:105380008A03019790938A03809389030E949B0C60
:105390008091890390918A03892B89F1109282036D
:1053A0001092810380918B0380FD02C008E510E01C
:1053B00085EF95E09093B1018093B0018AE090E091
:1053C0009093B3018093B2011093B5010093B4019F
:1053D0001092B7011092B6011092B9011092B80163
:1053E0001092BC011092BB011092BA010E946A1A7D
:1053F00068EC70E080E090E00E94731104C180913D
:10540000B2019091B30197FD079633E0959587958A
:105410003A95E1F72091850330918603820F931F1F
:10542000909386038093850310929203E090AA01E3
:10543000F090AB0100E110E021E048E050E0B8015D
:10544000C7010E94D9150F5F1F4F00371105A1F743
:1054500000E110E021E047E350E0B801C7010E94FD
:10546000D9150F5F1F4F00371105A1F708E010E0B5
:1054700021E0A80160E170E0C7010E94D9150F5F2B
:105480001F4F08331105A1F708E010E021E0A80143
:105490006FE670E0C7010E94D9150F5F1F4F0833F8
:1054A0001105A1F7C090AA01D090AB0121E1E22E35
:1054B000F12C09E010E020E0A801B701C6010E942C
:1054C000D9150F5F1F4F07331105A9F74FEFE41AE6
:1054D000F40A5FE6E516F10461F7A090AA01B09026
:1054E000AB019CE0C92ED12CE12CF12C00E010E0A6
:1054F000F80183E0F595E7958A95E1F7EE0DFF1D3C
:10550000EA5CFA4F8491980127703327A0E8B0E055
:1055100002C0B595A7952A95E2F7E82FF0E0EA23B7
:10552000FB23EF2B41F021E0A601B801625E7F4F23
:10553000C5010E94D9150F5F1F4F08341105C1F630
:10554000B9E0EB0EF11CEFEFCE1ADE0AFEE7EF1624
:10555000F10461F68091AA019091AB01FC01EC5E2F
:10556000FB4F0AE110E01183008332962DE130E019
:105570003183208360E375E00E9418108091AA01B6
:105580009091AB01FC01EC5EFB4F24E130E03183F4
:105590002083329625E230E03183208369E275E092
:1055A0000E9418108091AA019091AB01FC01EC5E61
:1055B000FB4F1183008332962DE230E0318320834C
:1055C00063E275E00E941810609183037091840378
:1055D0008DE10E943D1B609185037091860385E2F9
:1055E0000E943D1B60918503709186038091830327
:1055F00090918403680F791F7093840360938303F1
:105600008DE20E943D1B80919203813069F42091CC
:105610009303309194032115310531F02150310964
:1056200030939403209393038350823008F03EC05C
:1056300000919303109194038CEA91E00E94ED1E77
:1056400090E00817190791F51092940310929303B4
:105650008091B2019091B30197FD079623E0959553
:1056600087952A95E1F72091850330918603820F73
:10567000931F909386038093850380918B03909171
:105680008C03019690938C0380938B032AE030E087
:105690003093B3012093B20180FD74C388E590E09C
:1056A0009093B5018093B4010E946A1A809192038D
:1056B00081110E949B0C1092B4071092B3071092B4
:1056C000B6071092B50783EB93E00E944D1275CB9D
:1056D00010E080919E01181728F4812F0E94781302
:1056E0001F5FF7CF10926C01E0908303F09084036A
:1056F000E114F10409F408C202E310E0312CC801FE
:105700000E94BF23D82EC80101960E94BF232FEF0D
:10571000D21202C08F3F29F0282F30E0C9019D2905
:1057200002C080E090E08E159F0508F0E6C180E29F
:1057300089838A838B830E94C30B10E0B4E1CB2E54
:10574000D12C08E3402E512CE12E012E000CFF0835
:1057500037E0E30EF11CE3E0EE0CFF1CEA95E1F705
:10576000570146E0A40EB11CF0E46F2E712CA8E4A2
:105770008A2E912C0E94B40B80E190E09093B407A4
:105780008093B3071092B6071092B50760E376E0F6
:105790008FE993E00E941810809184038F93809189
:1057A00083038F93AEE5B1E0BF93AF93A4E8B1E07C
:1057B000BF93AF930E942A3028E530E03093B407BE
:1057C0002093B3071092B6071092B5070E948C0C75
:1057D0005092B4074092B307D092B607C092B50773
:1057E00089810E94810C7092B4076092B307D092B5
:1057F000B607C092B5078A810E94810C9092B407C7
:105800008092B307D092B607C092B5078B810E94F1
:10581000810C01E02BE130E04EE350E06BE170E001
:1058200088E390E00E94FA0B2BE130E046E450E080
:105830006BE170E080E490E00E94FA0B2BE130E035
:105840004EE450E06BE170E088E490E00E94FA0BD7
:1058500000E02CE130E048E550E06CE170E088E3E6
:1058600090E00E94FA0B01E02CE130E0A5016CE130
:1058700070E0C7010E94FA0B83EB93E00E944D1287
:105880000E94D70B0F900F900F900F900F900F90DA
:10589000882309F46FCF0E94F711082F847289F0D2
:1058A000115017FD0DC080910301882351F04AEF7C
:1058B00050E060E070E086E194E00E94C20A01C01E
:1058C00010E006FF11C01F5F13306CF480910301DC
:1058D000882351F04AEF50E060E070E086E194E008
:1058E0000E94C20A01C012E004FF45C0E12E012E51
:1058F000000CFF08E1E0F0E0EC0FFD1FEE0DFF1DD6
:10590000B080B394B08280910301882341F04AEFC4
:1059100050E060E070E08BE092E00E94C20A30E369
:10592000B31208C080E2E1E0F0E0EC0FFD1FEE0DE5
:10593000FF1D8083E1E0F0E0EC0FFD1FEE0DFF1D89
:105940008081813211F481E48083E1E0F0E0EC0FAA
:10595000FD1FEE0DFF1D80818B3511F480E38083E8
:10596000E1E0F0E0EC0FFD1FEE0DFF1D80818034C3
:1059700011F481E2808307FF45C0E12E012E000C67
:10598000FF08E1E0F0E0EC0FFD1FEE0DFF1DB08021
:10599000BA94B08280910301882341F04AEF50E02D
:1059A00060E070E08BE092E00E94C20A40E2B41234
:1059B00008C08FE3E1E0F0E0EC0FFD1FEE0DFF1DEE
:1059C0008083E1E0F0E0EC0FFD1FEE0DFF1D808114
:1059D0008F3211F48AE58083E1E0F0E0EC0FFD1FE7
:1059E000EE0DFF1D80818F3111F48FE28083E1E0A5
:1059F000F0E0EC0FFD1FEE0DFF1D8081803411F4EF
:105A000080E2808303FF1CC080910301123064F4A4
:105A10001F5F8823C1F04AEF50E060E070E086E14C
:105A200094E00E94C20A0FC0882309F44CC04AEFD8
:105A300050E060E070E086E194E00E94C20A43C05A
:105A4000002309F481CE0E94C30B7ECE8F3F09F460
:105A500051C0E82EF12CFD283801B4E36B0E711C07
:105A6000C3010E94BF23482E6801E5E3CE0ED11C7E
:105A7000C6010E94BF23582E0A5C1F4FC8010E9416
:105A8000BF23282E60918403C4010E94BD2360912E
:105A90008303C5010E94BD236981C3010E94BD2308
:105AA0006A81C6010E94BD236B81C8010E94BD238B
:105AB000F0928403E092830349825A822B823394CA
:105AC000FAE03F1609F155E0359E800111244801A6
:105AD00082E3880E911CC4010E94BF23D82E580176
