:100000000C94000F0C94280F0C94280F0C94280FBC
:100010000C94280F0C94280F0C94280F0C94280F84
:100020000C94280F0C94280F0C944B2F0C94BD2F7C
:100030000C94280F0C94280F0C94280F0C94280F64
:100040000C94280F0C94280F0C94280F0C94280F54
:100050000C94280F0C94280F0C94280F0C94022455
:100060000C94280F0C94280F0C94280F0C94280F34
:100070000C94280F0C94280F0C94280F0C94280F24
:100080000C944C240C94280F0C94280F0C94280FDB
:100090000C94280F0C94280F0C94280F0C94280F04
:1000A0000C94280F0C94280F0C94280FDC1BE91BD0
:1000B000ED1BF01BF21BF41BF81B3B233E232D23EF
:1000C000312335235F235F235F23422346234A23C3
:1000D000502354235F235A230F08E087F3F9890143
:1000E00003FEFFFFFFFF7CC281E087F7F383030776
:1000F000FEFFFFFFFF7CC683C88FC7E787070FFEA1
:10010000FFFFFFFF7CCE87989F1F1F1F1F3FFEFF33
:10011000FFFFFF7C9E8F382000000080C0C0E0F011
:10012000589CBC7E6E4E2E6EDAB28DDC989858D8F4
:10013000D8D89890B0608000000000000000000057
:1001400000000000000000000000000000000000AF
:10015000007CFFF1E71F3FC700030301010101031A
:10016000030303030301010079FBF7EFDDB302048E
:100170000888808080C0C0A0B0101010000000006F
:10018000000000000000000080E0F07D0378FEF930
:10019000E0D4F4AC2C6CDC3CFC9C8C8CCC7C3C80A7
:1001A000F870656B57D7D7D7C7E6E2F1F1FBFBFBD9
:1001B000F3F3F3F6E4D8C0E0E0C0C00000000000B4
:1001C00003070F88D3D6CEDDBDBFBFBFBBFAD8DCD7
:1001D000CDCDD5D5D8DCDCEEEEEFE7C3832272754A
:1001E000E3F7FFFFFFFFFF7F7F3FBF9B0B8989C5C1
:1001F000C16161333018180C00000080C0C0E0F00D
:100200005898BCBCBEAEAE1E768EDADC9C9818B890
:10021000B0B090888C8C0830000000000000000016
:1002200000000000000000000000000000000000CE
:1002300000387FF9F72F5F8F0003030101010103ED
:100240000303030303010100397BF347E7CFCDD15B
:10025000818182808080A0A0606070686070F0E022
:100260000000000000000000000000F833C0FCE3C4
:10027000D4F4ECEC6C2C2C5C3C9C8C8CCC7C3C80CA
:10028000FCFAF4F3F6E5EBEBF77737F7F7F3F3F176
:10029000E1E1E0C0C080000100000080E00000005B
:1002A00000000E9FD8C5CBDBD7B7B7B7B7B6BABA81
:1002B000B9BDDDDECECEC4E9E9EDEDCD8E0E06464C
:1002C000667378FFFFFFFFFF7F7FBFBF3FAF9FDFFA
:1002D000DF6F6F373318180C00000080C0C0E0F0EB
:1002E00058BCBC7E6E4E2EAEDEB68EDC9C9C38308A
:1002F00060C080000000800000008000000000005E
:1003000000000000000000000000000000000000ED
:100310000078FFFDFB772F1F00030301010101039C
:10032000030303030301010079FAF4C52DEDECCEBC
:10033000CEC5C0C0C0C0C0C0C0C080A030181808A2
:100340000800000000000000000060F9F3E0068DE6
:1003500078F4EC6C5C5C5C3CFC9C8C8CCC7C3C80D5
:10036000FBF6F5F3FBF6F5F5F7FBFBFBFBFBFBFB05
:10037000F9F1F0E0E0C080000000000000000000A3
:1003800000000080CFDFD8D7CFDF9F9EACACB4B1E8
:10039000B9B9B9BDDCDCDEDEEEECE5C1891B37376F
:1003A00017213F1F070F1F3F3F3FBF9F1F9F8FC753
:1003B000C66C6C343018180C00000080C0C0F0F817
:1003C0001CBC7E6ECEAE6EEEEAD9D5CC9C981838A9
:1003D000B0B02040800000000000000000000000DD
:1003E000000000000000000000000000000000000D
:1003F00000FCFFF9F72F1FCF0003030100000002EC
:100400000303030303010100F9FBF3E6CC9B48C897
:10041000E8E0E0E0C0D0B030202000000080804064
:10042000000000000000000000F0F9FD33803EF9FC
:10043000F8F4ECEC5CBC7CFCFC9C8C8CCC7C3C80B4
:10044000F0F5EBEBEFE7F7F6F2F3F9F9FBFBFBFB6B
:10045000FBFBF3F3E1E1C0C08000000000000000FE
:100460000000018FDCDBD7EEDFDFDEDCDCECCDCCA7
:10047000D5D5D9D9DCECEEEEE6E6E6C6854B978F0E
:10048000FFFFFFFF7F7F3F1F0F1F9B9B33938FCF8C
:10049000C7676E343018180C30180000DFEFF3F522
:1004A000F6EFCF87DBEDF7F7F7F7F7EFDFDD83BF89
:1004B0003F077BFF7F7FBC80C0C060603030CCFCDA
:1004C000FE7F7F3F3F1E01010000C0FCFBF7EFEF06
:1004D0000F2FF7FB7B77AFAFCFCF6F6737331B1B88
:1004E0000C0C06060B7BFDFD8EF4F8FCFEFE3E0EAA
:1004F00000000000000000000000030303030300ED
:1005000000000202030301010000000002020303D5
:1005100002000000000003030303030303010000C3
:10052000000000000000000000001910C0F0F8FCFE
:10053000FEFEFFFFFFC701000000000000000000FA
:10054000008080C060039FFFFFFFFFFFFFFFFF8F62
:1005500080E0F0F8FC7E7E3F3F1F0F0701001F1870
:100560000000000000000000C0F0380C0404040487
:10057000040404040405078383C140400000000014
:10058000000000000000808FDFC06060303018087D
:100590000C0406020301010080C0E0E06020180C9A
:1005A0000C06060303010100060E183020604040CF
:1005B00040602030180C060100010000003C3800AB
:1005C0000000000080F8FE0FE3FB1B0B0B8BFBF31E
:1005D000F7F6F6F60606ECECECECECECECECECECFE
:1005E000ECECECECEEE6F6F6F6F7F3FBFBCBCBFB34
:1005F000E30FFEF8801E332121339E00000080F8B7
:10060000FF0FE0F8F9F9F9F9F9F9F9F1F3F3F3F378
:10061000F0F0FFFFFFFFFFFFFFFFFFFFFFFFFFFF08
:10062000FFFFFFFFFFFFFFFFFFFFFF7F7FFEE00FEA
:10063000FFF880060600000000000F3FF0C6070428
:1006400004070707070707070707070707FFFFFF55
:10065000FFFFFFFFFFFFFFFFFFFFFFFFFF07070792
:100660000707078787070726860707C6F03F1F008B
:10067000808000000000000000030784C4E4E4E47C
:10068000E4E4E4E4E4C49C000FE7E7E7E7E7E7E736
:10069000E7E7E7C7870F1F0FC7E7E0ECE4E4E4E50F
:1006A000E5E4C4040404070300C040C303110000D0
:1006B00000000000000000FFFFFFFFFF393939FF95
:1006C000FFFF0FE0E0EFEF0FFFFF183879FFFFF7B4
:1006D00003E0E0EFEF0FFFF9F0F0FCFDFDFD0DECA6
:1006E000E0E0E00000012101000000000080C060A7
:1006F0002060C080000000000C0C007EFE803C3EAC
:100700001C1C1C1C1C0C0C0E0C0C0C0C0E1E1C1CA3
:100710001C1C3C3E80FE7E00000000C0E0E0C000EB
:10072000000000030300000E1B3166C680D060315C
:100730001B0E00003828380001471E3820202020DA
:10074000301010D0D0101090103020202020381EF3
:100750000701000006060000010100000000000083
:100760000000004040FFFFFF0707E7E76767676794
:100770006767E7E70707FFFF1F1F9F9F8787FFFF49
:10078000FFFFFFFF9F9F87871F1F7F7F8787676709
:10079000FFFFFFFF0707E7E7676767676767E7E749
:1007A0000707FFFFFFFFFFFF00007F7F60606060C3
:1007B00060607F7F0000FFFF0606E1E10707FFFFA3
:1007C00001019F9F61618787666686860707989803
:1007D0007979FFFF00007F7F6060606060607F7FED
:1007E0000000FFFFFFFFFFFF868666669E9E8686EF
:1007F0001E1E7E7E6666070718189F9FF8F8010187
:1008000006066767E0E0E7E7E6E619191818616190
:1008100018181F1F8686E6E666661E1E66666666F2
:100820009E9EFFFFFFFFFFFF9F9F00009999797930
:100830006060606066667878F8F89999E1E1000098
:10084000F8F818186161E1E1E1E1868618188686FA
:100850006666868667676161FEFEE0E01818606084
:100860006767FFFFFFFFFFFF7F7FF8F86767606044
:10087000FEFE6060666680808181070707077878E2
:10088000070786861E1EF9F99F9F0101FEFEE7E716
:10089000606007079E9E7E7EF9F96161FEFE6060E2
:1008A0001E1EFFFFFFFFFFFF66667F7F66667E7E80
:1008B00061617E7E6666FFFF1F1F060698989E9EFA
:1008C000F8F8FFFF9898F9F99F9FF8F8E7E7F9F92A
:1008D0000606E6E66161E6E60707FEFE878718186A
:1008E0009898FFFFFFFFFFFF0000FEFE06060606CA
:1008F0000606FEFE0000FFFF9E9E181807079F9F3A
:100900000707FFFFF9F9E7E7E1E16767F9F99F9F5B
:10091000E0E087878686E7E7000007077979868623
:100920006161FFFFFFFFFFFFE0E0E7E7E6E6E6E6E5
:10093000E6E6E7E7E0E0FFFFE1E1E0E0E6E6E7E743
:10094000F8F8E1E1E1E1F9F9FFFFE0E0F9F9F9F99F
:10095000E1E1E7E7F9F9E7E7E0E0FEFEFEFEE1E1CD
:10096000FEFEFFFFFF3818008080800000111F117D
:10097000801F91110E801F959591801F89899F80FE
:1009800080008484840080001F09891F001F0909DA
:10099000178081819F01800A00800080808080070D
:1009A0000C080B03000408080F000F08080F000BC9
:1009B0000A0A0E0000000F000000080F08000F01D7
:1009C00002040F0008080808000F080808000302C6
:1009D0000E03000F04040BF888888800F88888F854
:1009E00000F888887000F8A8A8880050000000006F
:1009F000000070C888B83000408080F800F888880F
:100A0000F80088A8A8F800F84848B80088F8883E98
:100A1000101C3E6743C3C38386870000000010F0AC
:100A2000F0100010F0F010101030F0E00011F3F7AB
:100A30001716141010300010F0F030E080000000A5
:100A400000F0F00010F0F01010101010101030F83E
:100A5000E060C0C0C0C0C1E37F7E3C0080FFFF807B
:100A60000080FFFF00043C76C7830082FFFF828284
:100A7000828080C00080FFFF000001070C3860FF0B
:100A8000FF0082FFFF82828280808080E014087FE6
:100A9000417777417F4155555D7F415F5F7F41756C
:100AA00075717F7F417575717F415F5F7F4175759E
:100AB000417F717747717F7F5D415D7F417B7741EA
:100AC0007F4175757D7F415D5D417F7F415D5D5DEE
:100AD0007F415D5D417F417B77417F4175757F7FC0
:100AE000515555457F4175757D7F497777497F0021
:100AF0000000007F415D5D417F4175757D7F4175DF
:100B0000757D7F000000007F415D5D417F417B7707
:100B1000417F0000000000000000000808000F06F0
:100B20000F060F000F000F000F000F000F000F0641
:100B30000F060F060F000F000F000F000F000F062B
:100B40000F060F060F060F000F000F000F000F0615
:100B50000F060F060F060F060F000F000F000F06FF
:100B60000F060F060F060F060F060F000F04080CE6
:100B70001E1E0C000C0C0000040000000000000011
:100B80000000000000000000000000000000001055
:100B90001040E868FCE8FCD8FCF0FCBCFE5EFFEE10
:100BA000FF8EFFF6FFFAFF8AFF26FF66FFE0F640A2
:100BB000E000000004042F257F357F46FFC2F7F2D6
:100BC000FFEFFFECFF72FF0C7F0C1E000E040F0402
:100BD0000E007070F8C0F0E0F0F0FCBCFE5EFFEEBE
:100BE000FF8EFFF6FFFAFF8AFF66FFC3E7C0E360F0
:100BF000F000000004044F45EF65FF87EF82F7F235
:100C0000FFEFFFECFF72FF0C7F0C1E000D040F04C2
:100C10000E006060F0C0E0C0F0F0FCBCFE5EFFEED5
:100C2000FF8EFFF6FFFAFF8AFF44EE86CF80C6C034
:100C3000E00000008080C9C9FFC9FF8DDF86FFF298
:100C4000FFEFFFECFF72FF0C7F0C1F010F091F006D
:100C50000900E0C0E0C0E0E0F0F0FEDEFF2FFF772B
:100C6000FFC7FF7BFF7DFF45FFA2FFCCFE80CC00CE
:100C7000800000004141E3C1EBC9FF4CFF46FF7B10
:100C8000FF77FF76FF397F063F060F010F081D0033
:100C90000840E0C0E060F0E0F0F0FEDEFF2FFF77FC
:100CA000FFC7FF7BFF7DFF45FF22FFCCFE80CC000E
:100CB00080000000C141E361FB68FD4CFF46FF7B03
:100CC000FF77FF76FF397F063F060F000F081D00F4
:100CD0000860F0B0F8D0F8D0F8F0FEDEFF2FFF7714
:100CE000FFC7FF7BFF7DFF45FF22FFE6FFC0E60059
:100CF000C0000101030127247F74FF46FF43FF79F1
:100D0000FF77FF76FF397F063F060F0007040F00CD
:100D1000040808000000181800000000002400006B
:100D200024000081667E3C3C7E66818100000000DC
:100D3000000081110820300000020B0F0600085A45
:100D40007EE7818118180000020702000000004AB7
:100D50007EE78181BD7E3C0203000020B0F0600090
:100D60001042C389BD6642240000207020000000AC
:100D70000042082C7EC34200180808241C2C30189E
:100D8000081010080C073618604000203060D8307A
:100D90000C0200160800020502000000006090909E
:100DA00060003C428D858181423C00002050200043
:100DB00000000006090906003C428D858181423C05
:100DC00000100800080808080808083E6B49492A6E
:100DD0002A0800082001FFF5FF05FFF4FFF5FF05D5
:100DE000FFF5FFF5FF00FFDFFF00FFDFFFDFFF0084
:100DF000FFDFFFDFFF00FF7FFF00FFFFFF7FFF0040
:100E0000FF5FFFABFF000F050F001F0A1F050F005C
:100E100007010300010818F1FF05FFF5FFE5FF4595
:100E2000FFA1FF04FFA1FFDFFF00FFDFFFDFFF5592
:100E3000FF8AFF00FF8AFF153F003F153F0A1F058D
:100E40000F0207000300010F080103070F1F3F7F78
:100E5000FFFEFCF8F0E0C0800102070A1F2A5FAA2B
:100E60005EA858A04080000102040A012A04AA00DA
:100E7000A800A0008000030800FF0EFF00FF080884
:100E80000828686B6B682808200800606060606054
:100E900060B0B0B0B0B0B0D8D8DBDBD8D8E8ECECFC
:100EA000ECECECF6F6F6F6F60600201000003FFF3C
:100EB0007FFFFFFFFFFFFF7CFE1BA1019919C37C91
:100EC0007CFFFFFFFFFF0F1F3F0304000000000037
:100ED000000003070F1103060E03776F5F1F030661
:100EE00002070F1F1F3F2000000000000078FF3F97
:100EF000FFFFFFFFFFFF7FFC1EA3019919C1737C59
:100F0000FCFFFFFFFF3F0F3F030700000000000052
:100F10000003070F1807060E03076F5F5F03060243
:100F2000070F1F1F3F2000000000000000E0FF7FB0
:100F3000FFFFFFFFFFFFFF7CFE2B81119909E37C80
:100F40007CFFFFFFFF1F3F070F01000000000100B3
:100F500001070F1F01070F06020F5F5F470307021C
:100F60000E1F1F3F010000000000000000007FFF77
:100F70007FFFFFFFFFFFFF7CFE1BA1019919C37CD0
:100F80007CFFFFFFFFFF1F7F070F00000000000036
:100F90000003070F1F03070E1E074F5F5F070306BF
:100FA000020F1F3F0F030000000000003020F0F090
:100FB00000808080000000000000000000000000B1
:100FC0000000000000000000000000000000000021
:100FD000000002DEC2C2DEC2C2DEC2C2DEC2073F03
:100FE000F8C53D7DFBFBFBF6F6F6ECCCBC7CE0C027
:100FF000C6868280AFAFAFA9A6868686828680C06D
:10100000F03C0FF3FC0642FA4246FEFEFE010000F1
:10101000010F7EF08E7D7BFBF7F7EFEFEFDF0666CB
:10102000959565DD0565959565DD0565959565DDA8
:10103000DCDF00DFDFD8D8DFD8D8DFDF000000003A
:1010400000000001070E19362E5D5DBBBBFB7676F6
:1010500076F6EEEFEEEEAE8E0E0F2E2EAEEEEEEF3D
:10106000F7F7F6767A3A1A0C6470780000001008E8
:101070000101020206040C0C1818183070F0F00080
:10108000060800282A4A890800282AC908000028DA
:101090002A4A890800282AC908001020000004F8FC
:1010A0008CB6B7C5FD3C0CBEB6F2A22030307C0F2A
:1010B0008381A1B1F0B4FE7E6F4D05000000021ADD
:1010C0003B3BBFBBFFDFFB5B0000000000000000FC
:1010D00008B87CE6D65DC9E37F2D08002010C0E08B
:1010E000E0E06060B0D010D0F0F0F8FCFEFEFFFF52
:1010F000F1F0E0E0C08080C00080C0E0701000012E
:101100000313273226322733A7BF3F271F3F7FFF16
:10111000E79F1F0F0F070F1B07070F1D200000C0C1
:10112000E0E0E06060B0D010D0F0F8FCFEFFFFF12E
:10113000F0E0E0C08080C000C0E0F03800000000B7
:10114000010313273226322733A7BF3F271F3F7FD4
:10115000FFC71F0F070F1B07070F1E100000C0E07F
:10116000E0E06060B0D010D0F0F0F8FCFEFEFFFFD1
:10117000F1F0E0E0C08080C00080C0E070100001AD
:101180000313273226322733A7BF3F271F3F7FFF96
:10119000E79F1F0F0F070F1B07070F1D2000C0E061
:1011A000E06060B0D010D0F0F0F0F8FCFEFFFFF18E
:1011B000F0E0E0C08080C0008080C06020000001BE
:1011C00003173226322733A7BF3F271F3F7FFFE792
:1011D0009F1F0F0F070F13070F1F3B4000001070DA
:1011E000E0C08000C08080C0E0E0F0F1FFFFFEFEC4
:1011F000FCF8F0F0D010D0B06060E0E0E0C000207B
:101200001D0F07071B0F070F0F1F9FE7FF7F3F1FD4
:10121000273FBFA7332732263227130301000000E0
:1012200038F0E0C000C08080C0E0E0F0F1FFFFFED9
:10123000FCF8F0D010D0B06060E0E0E0C00000004A
:10124000101E0F07071B0F070F1FC7FF7F3F1F272A
:101250003FBFA73327322632271303010000107047
:10126000E0C08000C08080C0E0E0F0F1FFFFFEFE43
:10127000FCF8F0F0D010D0B06060E0E0E0C00020FA
:101280001D0F07071B0F070F0F1F9FE7FF7F3F1F54
:10129000273FBFA733273226322713030100002040
:1012A00060C0808000C08080C0E0E0F0F1FFFFFE01
:1012B000FCF8F0F0F0D010D0B06060E0E0C00000CA
:1012C000403B1F0F07130F070F0F1F9FE7FF7F3FC5
:1012D0001F273FBFA7332732263217030100080814
:1012E000000664F79DAF6701100872277F33731BF8
:1012F0001F1F0F1E1E1A5212000072277F33735BCE
:101300005F0F0E0E1A1A1A10120072277F33731B0A
:101310004F4E4E4A020A0818181272277F33731B69
:101320001F1F1E1E5A501000000810100000003829
:1013300038FCF8FCFCFEF6FFCBFFB5FFB5FFCBFF9A
:10134000FFFFBFFF1FBF0E1F000E00000002020FB5
:101350000C5F5FFFA1FF1FBF317F6DFF03FF9FFF8A
:1013600030FF6DFF43FF9EFF009E0000008080F86D
:1013700038FCF8FCFCFEF6FFCBFFB5FFB5FFCBFF5A
:10138000FFFFBFFF9FFF8EDF008E00000D1F023F9B
:101390003B7F41FF1F7F337F257F017F4FFF197FF9
:1013A000327F247F247F093F337F063F000000F80F
:1013B00038FCF8FCFCFEF6FFCBFFB5FFB5FFCBFF1A
:1013C000FFFFBFFF1FBF0E1F000E0000041F13BF53
:1013D0008CFF27FF317F1F3F017F41FF9FFF33FFBE
:1013E000247F297F113F123F2277026700000038D7
:1013F00038FCF8FCFCFEF6FFCBFFB5FFB5FFCBFFDA
:10140000FFFFBFFF1FBF0E1F000E0000000C0C3EB1
:1014100030FF9FFF019F1F7F71FF09FF87FF3FFF85
:1014200060FF4DFF53FF227F0C3E000C10100000A8
:1014300000F0F0FC0CFE42FFEDFFE5FFE1F7E1F309
:10144000E1F3E1F342FF0CFEF0FC00F000000000CD
:10145000000000010103013F3F7F00FFFFFF1FFF6E
:10146000003F3F7F013F01030001000000000078C2
:1014700078FC84FE82FFAEFFE5FF71FFF1FBF1FB1C
:1014800071FBE1F3A2F782E784FE78FC00780000AC
:101490000000001D1C3F021F0103007F7FFF0F7F24
:1014A000000F0103021F1C3F001D00000000387CDC
:1014B00044FE42FF6EFF65FFF1FF31FBF1FBF1FBE4
:1014C00031FBF1FB61F362F742FF44FE387C000020
:1014D0000006060F010701030001003F3F7F073FA1
:1014E0000007000101030107060F0006000038FC99
:1014F00044FE42FF6EFF75FFF1FF31FBF1FBF1FB94
:1015000031FBF1FB71FB62F742F744FE38FC00014E
:1015100001030103010301030001001F1F3F031F1B
:101520000003000101030103010301030001007036
:1015300070FC8CFE82FFADFFE5FF71FFF1FBF1FB5C
:1015400071FBE1F3A3F782FF8CFE70FC00700000DA
:101550000008081D081D040F0307007F7FFF0F7F91
:10156000000F0307040F081D081D000800001010DD
:10157000008080C0C0E060F0B0F8D8FC18FEFAFF30
:10158000FBFF7BFFB7FF60FFC0E080C0C0F0F0F85A
:101590000C1F0D1F1B3F173F1A3F167F5FFF4FFFAA
:1015A000D1FFDBFF8BDF048F03070307070F0C1F3F
:1015B000008080C040E0A0F0D0F818FCF8FEFAFFF0
:1015C0007BFFF7FFE1F7C0E100C080C0C0E000E0B2
:1015D0000C1F0B1F173F1A3F163F1F7F4FFFD1FFF6
:1015E000D7FF86DF01870307071F1F3F397F007979
:1015F000008080C0C0E060F0B0F8D8FC18FEFAFFB0
:10160000FBFF7BFFB7FF60FFC0E080C0C0F0F0F8D9
:101610000C1F0D1F1B3F173F1A3F167F5FFF4FFF29
:10162000D1FFDBFF8BDF048F03070307070F0C1FBE
:101630000000008080C0C0E060F0B0F8D8FE1AFF63
:10164000FBFFFBFFBBFFD0FF20F0C0E0E0F878FC21
:10165000000E0C1F0D1F1B3F173F1A3F167F5FFF29
:101660004FFF51FF5DFF6DFF06EF03070307060FF6
:101670001008007050F8B8FCECFED6FFDAFFE2FF6D
:101680007EFF9EFF7DFFBBFF91FB38FD6CFE00EEF1
:101690000000007030F8E8FCD4FEDAFFE2FF7EFFC5
:1016A0009EFF7DFFBBFF91FB70F9D8FC00DC0000C2
:1016B0000000007050F8B8FCECFED6FFDAFFE2FF45
:1016C0007EFF9EFF7DFFBBFF91FB38FD6CFE00EEB1
:1016D0000000007050F8D8FCBCFEECFED6FFDAFF2C
:1016E000E2FF7EFF9DFF7BFFB0FB18FE367F007799
:1016F000000010100000000080E0F0F0F0E0E0805A
:10170000000000000000000003070F0F0F07070391
:101710000000000000000000000080C0C080000049
:1017200000000000000000000000010303010000B1
:1017300000000000000000B0F8FCFCF8F0F8F8F839
:10174000F08000000000070F0F1F3F3F3F3F1F07C3
:10175000070300000000B8FCFEFEFE7C38FCFCFC29
:10176000F8C0800000070F0F3F7F7E787C7E3F0F20
:101770000F0F0700008E9F9F7F6E081C1C081C5EC9
:101780001E8C8000070F0F0F070064F0F0F06C0C48
:10179000070F0F07000303002000000400000000F3
:1017A000060600000606000000000000C0C0000899
:1017B000000003030808B47E7EF7EF7E7E2D187EBE
:1017C00076F3CF6E7E183C76F3C9C7E6FE7C46DD25
:1017D000BE3E3E1D018208080C1E1E3F3E7F7CFE61
:1017E0003E7F1E3F0C1E000C1F3F217F41FF81FFEB
:1017F000BDFF5DFF217F1F3F80CE4EFF327F317FD7
:1018000049FF44FF60FC187C3C7E42FF8DDF8DDF8A
:1018100081CF81C342FF3C7E80F0D0FCD4FF5BFFD0
:101820002AFF28FEE0F880E070F8F8FCE4FFF3FF00
:10183000F8FFFCFE70FE007004EE6CFE3C7F1F3F64
:101840001F3F3C7F6CFE04EE03083E223E223E20FA
:10185000322A24222A140E083C2E2A1A3C2A3A0242
:101860003A063E2A3E2E2A1E081C080808060911C0
:101870002211090600060F1F3E1F0F06000717075B
:1018800017D9164E27B4165716571621270717D9FA
:101890001607173C27D916B4168E1621278E160761
:1018A000175716572707175716E0154D0F4B2607E2
:1018B000170717D9163327D916B41607172127D9B2
:1018C00016D916B4164E27B4168E16E0152127E049
:1018D0001557161F16572757161F16E0154D0F4B95
:1018E0002630156C15A9154E271F165716F82821F6
:1018F00027F82857161F165727A9156C15301521DC
:10190000276C151F1657163C275716F82807274F20
:10191000264B2612280717122857270717B628D94B
:10192000162127B628071712282A270717B628E0F6
:10193000152127F8283015B6284527E01512280765
:10194000174D0F4B26512851288D283327B6281FB5
:1019500016571621271F16301551284E278D28B6E9
:1019600028B62821276C15A9151F16572751288D31
:1019700028B6284D0F4B260717D916B41657278EB1
:101980001657161F162127E015A9156C153C273090
:1019900015F82812282127B6288D28512845278D8B
:1019A00028B628ED264F264B261228B6281228578F
:1019B000273015E427B628212712283015F8282AC1
:1019C00027F828E015E4272127F8283015B6284EF7
:1019D00027E015122807174D0F4B26E0158D28A973
:1019E000273327E427B41607172127B6281228B46F
:1019F000165727E427A927E4272127E01557163093
:101A0000152A276C151F16E0154D0F4B26E427A944
:101A100027602745278E1657161F162127E015A980
:101A200015E4275727A9276027122821278D285139
:101A300028E4275727A9276027D3264F26412600C9
:101A400000000200090F0000030401000C00000068
:101A50000000000000000000000000000000F0F89E
:101A60009C8E8783878E9CF8F00000FEFF030303A3
:101A70000303070EFCF80000FEFF03030303030744
:101A80000EFCF80000FFFF00000000000000FFFF58
:101A90000000FEFF8383838383C7EE7C380000F859
:101AA000FC0E07030303070EFCF800003F7FE0C0B5
:101AB0008080C0E07F3FFFFF01010101010101FFC4
:101AC000FF0000FFFF0C0C0C0C1C3E77E3C1000074
:101AD0007FFFC0C0C0C0C0E0703F1F00001F3F704C
:101AE000E0C0C0C0E0703F1F00007FFFC1C1C1C1A6
:101AF000C1E3773E1C00001F3F70E0C0C0C0E07033
:101B00003F1F000000000001FFFF01000000000077
:101B10000000240027002A002D003000AED580A848
:101B20003FD300408D142002A1C8DA1281CFD9F131
:101B3000DB402EA4A6AF0408020110408040102014
:101B40004080408008020401804020100201108083
:101B5000102040402000000000250028002B002E0F
:101B60000031000404040404030405020202020418
:101B70000302020202060606060606040402020228
:101B800004041402130212021502070208020902D9
:101B900009010A020A010B020B0104010C010601F2
:101BA000007812221310139325F5126F139F26D578
:101BB0001869322D3204325D12A111FE11BA11FEE4
:101BC000114312A1119911A1118F115B115D12A185
:101BD000119911A1118F1126114312A1119911A16F
:101BE000118F115B1123110811EF107010DE0FC55A
:101BF0000F1910B20FC50F9E0F8B0F770F520F8B5F
:101C00000F4F0F000104070C101416171613100BBA
:101C10000703010B070301000104070C101416173A
:101C200016131083252A0F6325432563252A0F9752
:101C300026182506087EFF8181FF7E0082FFFF8037
:101C400000C2E3B1998F8642C38989FF76181C10C0
:101C5000FFFF104FCF8989F9717EFF8989F97003E1
:101C600003F1F90F0776FF8989FF7646CF8989FF4F
:101C70007E1F0866EF89FB72000101FFFF01010072
:101C8000F8FE13FEF8007EFF81897BFA00FFFF89D2
:101C90008981080B00020202010009040000010210
:101CA00002000005240010010524010101042402A2
:101CB0000605240600010705810310004009040100
:101CC00000020A0000000705020240000007058329
:101CD000024000000403090441726475696E6F20BC
:101CE0004C4C430041726475696E6F204C656F6E99
:101CF0006172646F0012010002000000404123364F
:101D00008000010102030112010002EF02014041C3
:101D10002336800001010203012208FFFF11111F79
:101D20000E00F8FE1313FEF8007FFF8080FF7F0097
:101D300066EF8989FB7200FFFF898989811C087E13
:101D4000FF8181FF7E00030F3CF03C0F0300FFFF8B
:101D50008989818100FFFF1111FFF61C087EFF8138
:101D6000897BFA00F8FE1313FEF800FFFF1C701CBD
:101D7000FFFF00FFFF898989818325632543256350
:101D8000252A0FFB312A0F5E322E080101FFFF01C9
:101D90000100FFFF0808FFFF00FFFF898981810024
:101DA0000000000000FFFF8989818100FFFF1E788D
:101DB000FFFF00FFFF8181FF7E3A08FFFF0808FF59
:101DC000FF00FFFF007EFF81897BFA00FFFF08080C
:101DD000FFFF0066EF8989FB72007EFF8181C342AD
:101DE000007EFF8181FF7E00FFFF1111FFEE00FFEB
:101DF000FF8989818183252A0F2A0F5E32009C3555
:101E000011241FBECFEFDAE0DEBFCDBF27E0A6EC86
:101E1000B1E001C01D92A43EB207E1F711E0A0E0DD
:101E2000B1E0E6E2FEE602C005900D92A63CB107E5
:101E3000D9F71EE0C0E0DFE004C02197FE010E9458
:101E40005F36CF3FD107C9F70E94C0320C941137DB
:101E50000C94000080916D0790916E078370992714
:101E6000892B29F480916B028F5F80936B028091A4
:101E70006B02813188F080910402873031F48091C7
:101E800001028F5F8093010205C08091E3078F5F9D
:101E90008093E30710926B0208950C942A0F10921E
:101EA000DC0108952091CC013CEF3203C0011124E4
:101EB00002964091D5015091D601840F951F9093C1
:101EC000D6018093D50181E082278093CC01809157
:101ED000E0018F5F863018F48093E001089510923E
:101EE000E0018091DC018F5F8093DC010895809197
:101EF000D5019091D6018C3E2FEF920734F00A97CE
:101F00009093D6018093D50108958091DC018F5F75
:101F10008093DC0108958091D5019091D60187349A
:101F2000910534F401969093D6018093D5010895DC
:101F30008091DC018F5F8093DC0108958091D7014F
:101F40009091D801863F2FEF920734F0029790933B
:101F5000D8018093D70108958091DC018F5F809331
:101F6000DC0108958091D7019091D8018C309105C2
:101F700034F002979093D8018093D701089580910F
:101F8000DC018F5F8093DC01089580916D07909153
:101F90006E0783709927892B29F48091CB018F5F7D
:101FA0008093CB018091CB01813138F08091DC01AD
:101FB0008F5F8093DC011092CB0108958091D50151
:101FC0009091D6018134910534F001979093D60118
:101FD0008093D50108958091DC018F5F8093DC01AF
:101FE0000895A5EDB1E018969C9118978AE0989F06
:101FF000F0011124E255FD4F8681807D806186834A
:1020000084E080872D913C911197205F3F4F318371
:10201000208312962D913C9113972C5E3F4F338372
:10202000228321E030E0358324839F5F18969C93C0
:1020300008958091CC018823F9F08091D701909187
:10204000D8018B3E9F4FB4F080916D0790916E0741
:1020500062E170E00E943736892B11F40E94F10F83
:102060008091D7019091D80102979093D8018093E5
:10207000D70102C01092CC018091CC01811124C003
:102080008091D7019091D8018897B4F480916D0721
:1020900090916E0766E170E00E943736892B11F44B
:1020A0000E94F10F8091D7019091D80102969093F0
:1020B000D8018093D70108C081E08093CC01809142
:1020C000E0018F5F8093E0018091E001853038F07E
:1020D0001092E0018091DC018F5F8093DC01089514
:1020E000CF93DF93C0916D07D0916E07CE0168E268
:1020F00070E00E943736892B21F52091DD018AE0BE
:10210000289FF0011124E255FD4F96819F7D90613B
:10211000968385E080878091D5019091D6010296C3
:10212000918380834091D7015091D801405F5F4FE8
:102130005383428381E090E0958384832F5F2093D3
:10214000DD01CE0166E070E00E943736892B09F090
:1021500043C08091E0018F5F8093E001893030F4CB
:102160008091D5019091D601019707C0813178F413
:102170008091D5019091D60101969093D6018093DC
:10218000D5018091D7019091D801019718C089316C
:1021900030F48091D5019091D601019607C0893223
:1021A00098F48091D5019091D60101979093D60132
:1021B0008093D5018091D7019091D8010196909399
:1021C000D8018093D70108C0813318F3893380F296
:1021D000813430F21092E001DF91CF910895809127
:1021E0006D0790916E0783709927892B29F4809150
:1021F000CB018F5F8093CB018091CB01813138F08F
:102200008091DC018F5F8093DC011092CB010895F7
:1022100081E08093CC018091DB0180648093DB01BD
:102220008091D5019091D6018136910534F00197C6
:102230009093D6018093D50108958091DC018F5F42
:102240008093DC0108951092DC0108958091D701FC
:102250009091D8012091CA0130E0821793072CF4A5
:1022600002969093D8018093D7018091D7019091E5
:10227000D801281739072CF402979093D80180933E
:10228000D7018091D5019091D601893D2FEF92071A
:1022900034F005979093D6018093D50108959091DD
:1022A000D40181E089278093D4018091DC018F5F84
:1022B0008093DC0108958091D7019091D8012091FD
:1022C000CA0130E0821793072CF402969093D8014C
:1022D0008093D7018091D7019091D80128173907B1
:1022E0002CF402979093D8018093D7018091D50167
:1022F0009091D6018838910534F405969093D601D3
:102300008093D50108959091D40181E0892780932D
:10231000D4018091DC018F5F8093DC01089580916E
:10232000F5018093CA01E5EDF1E087818F5F878336
:1023300008951092CC01E5EDF1E087818F5F8783EE
:10234000089580916D0790916E0783709927892B6E
:1023500029F48091CB018F5F8093CB018091CB01D9
:10236000813138F08091DC018F5F8093DC01109225
:10237000CB01089520916D0730916E0723703327AC
:102380008091D5019091D601232B19F52091F4016C
:1023900030E082179307ECF44091D7015091D801B7
:1023A0002091F50130E04217530734F44F5F5F4F3F
:1023B0005093D8014093D7014091D7015091D80153
:1023C0002417350734F4415051095093D8014093F4
:1023D000D7018838910534F402969093D601809302
:1023E000D50108959091D40181E089278093D4018B
:1023F0008091DC018F5F8093DC01089520916D074F
:1024000030916E07237033278091D5019091D601CA
:10241000232B19F52091F40130E028173907ECF44B
:102420004091D7015091D8012091F50130E0421739
:10243000530734F44F5F5F4F5093D8014093D70157
:102440004091D7015091D8012417350734F44150F9
:1024500051095093D8014093D701893D2FEF92073E
:1024600034F002979093D6018093D501089590910E
:10247000D40181E089278093D4018091DC018F5FB2
:102480008093DC01089581E08093CC018091DB0191
:1024900080648093DB018091D5019091D60197FFF4
:1024A00006C001969093D6018093D501089580913E
:1024B000DC018F5F8093DC01089581E08093CC0183
:1024C0008091DB0180648093DB018091D501909144
:1024D000D6018136910534F001979093D60180930F
:1024E000D50108958091DC018F5F8093DC01089510
:1024F00080916B028F5F80936B0220E04DEB55E083
:1025000064E070E082E290E00E947E2C80916B0299
:10251000853B28F010926B0281E0809304020895BD
:10252000CF9320916D0790916E07822F6AE070E043
:102530000E943736892B29F49091C7019F5F9093B1
:10254000C70120FD05C08091C6018F5F8093C60141
:102550008091C6018D3310F01092C601C091C60162
:10256000C73008F0C0E08091C701843010F01092AD
:10257000C70120E04FE05AE061E070E084E290E0C3
:102580000E947E2C20E04EE555E065E170E08BE393
:1025900090E00E947E2C20E04AE255E060E370E08B
:1025A0008EE390E00E947E2C20E048E954E06EE249
:1025B00070E084E090E00E947E2C2091C70146E10B
:1025C00051E06EE070E083E090E00E947E2CEC2F02
:1025D000F0E0EB5EFE4F208148ED50E068E170E0F6
:1025E0008AE090E0CF910C947E2C20E04FE05AE0FE
:1025F0006AE070E081E290E00E947E2C20E045E6F7
:1026000059E06FE170E084E290E00E947E2C8CE063
:102610000E94BB2C882319F081E080930402089566
:1026200020E043E657E060E070E080E290E00E9446
:102630007E2C8CE00E94BB2C882319F081E08093D3
:10264000040208950F931F93CF930E94901200E20B
:1026500010E0C0E02C2F4DE85AE0B8018CE690E085
:102660000E947E2CCF5F085F1F4FC43099F7C09146
:1026700000016C2F70E06E5F7F4F83E0660F771F65
:102680008A95E1F720E041EC5DE08CE590E00E9466
:102690007E2C80E10E94BB2C882311F0C53098F07D
:1026A00080E80E94BB2C882321F0809100018330B8
:1026B00070F484E00E94BB2C882369F080910001B3
:1026C0008093040208C0CF5FC0930001E9CF81501E
:1026D00080930001EECFCF911F910F910895CF937A
:1026E000DF931F92CDB7DEB70E94901224E04DE831
:1026F0005AE068E270E08CE690E00E947E2C25E0D3
:102700004DE85AE060E370E08CE690E00E947E2C99
:1027100026E04DE85AE068E370E08CE690E00E9425
:102720007E2C6091030270E06A5F7F4F83E0660F4A
:10273000771F8A95E1F720E041EC5DE08CE590E0C1
:102740000E947E2C80E10E94BB2C81110E947B3272
:1027500080E80E94BB2C882351F01092030260E0B5
:1027600085E00E948C2360E083E00E948C238CE053
:102770000E94BB2C882389F06091030282E090E0E4
:1027800069830E94AB366981681721F082E090E08E
:102790000E94B33681E0809304020F90DF91CF91C5
:1027A000089580E090E020E0FC01E255FD4F368185
:1027B000331F3327331F230F0A968A359105A1F75C
:1027C000211105C0809101028F5F8093010208955D
:1027D0008091010290917002891721F0809370021C
:1027E00081E0089580E008951092D301E5EDF1E0D5
:1027F00080E986831782118613861092CB0181E0CF
:102800008093CC011092D40180E890E09183808382
:102810008091020290E0019763E070E00E944B36E5
:10282000DB01AC5CBE4F8C9190E093838283DB0133
:10283000AB5ABE4F8C9190E0958384836287089554
:10284000CF93DF939AE050E0861708F06EC0A82F70
:10285000B0E09A9FF0019B9FF00D1124E255FD4FCF
:10286000268125FD60C020813181241B350B3183F9
:102870002083E901C956D1092F9740F4C281D38141
:10288000CD30D1051CF02297D383C283F901EA54DD
:10289000F1097F9778F49A9FF0019B9FF00D112426
:1028A000E255FD4FC281D381C433D1051CF4229679
:1028B000D383C283F901BB977F9778F49A9FF00185
:1028C0009B9FF00D1124E255FD4FC281D381CD3085
:1028D000D1051CF02297D383C283F9013B97B097AF
:1028E00078F49A9FF0019B9FF00D1124E255FD4F63
:1028F0002281338124333105B4F42E5F3F4F11C060
:102900002B30310584F49A9FF0019B9FF00D112428
:10291000E255FD4F228133812131310524F02250CF
:102920003109338322838F5F8FCFDF91CF91089559
:102930009AE050E0861780F5A82FB0E09A9FF0014A
:102940009B9FF00D1124E255FD4F268125FD22C0ED
:1029500020813181241B350B3183208328343105BC
:10296000CCF4228133812032310524F42F5F3F4F94
:10297000338322839A9FF0019B9FF00D1124E2552F
:10298000FD4F228133812032310524F0215031095D
:10299000338322838F5FCECF08959AE050E086176D
:1029A00080F4989FF0011124E255FD4F268125FD0A
:1029B00006C020813181241B350B318320838F5F3A
:1029C000EECF08958F929F92AF92BF92CF92DF92F7
:1029D000EF92FF920F931F93CF93DF939AE0862E8F
:1029E000912CC82FD0E0C25DDE4F641760F5A62F92
:1029F000B0E09A9FF0019B9FF00D1124E255FD4F2E
:102A0000562F506956838087A819B909EA9E50014C
:102A1000EB9EB00CFA9EB00C1124A20EB31EB18234
:102A2000A082CA9E5001CB9EB00CDA9EB00C11243D
:102A3000A00EB11EB382A282A881B0E0B583A483A8
:102A400011866F5FD2CFDF91CF911F910F91FF90D1
:102A5000EF90DF90CF90BF90AF909F908F900895B0
:102A6000CF92DF92EF92FF920F931F930E94E81391
:102A7000882301F1C12CD12C80E9E82EF12C00E152
:102A800010E020E830E043E060E081E00E94E214E2
:102A90000CE210E020E830E046E063E081E00E94D4
:102AA000E2140EE110E028EC30E049E066E081E05D
:102AB0000E94E21441E069E086E00E94201441E0B7
:102AC00066E080E00E94CD141F910F91FF90EF907F
:102AD000DF90CF900C94D113CF92DF92EF92FF92C0
:102AE0000F931F930E94E813882331F1C12CD12C3E
:102AF00080E9E82EF12C0CE010E020E830E042E024
:102B000060E081E00E94E21498E4E92EF12C0EE1ED
:102B100010E020E830E046E062E081E00E94E2144C
:102B200020E9E22EF12C00E310E028EC30E048E050
:102B300066E081E00E94E21442E069E080E00E94E9
:102B4000CD141F910F91FF90EF90DF90CF900C94D8
:102B5000D113CF92DF92EF92FF920F931F930E94B7
:102B6000E813882301F1C12CD12CE12CFF24F3942C
:102B70000CE010E020E830E043E060E081E00E94FB
:102B8000E21400E310E020E031E046E063E081E0A1
:102B90000E94E2140FE110E020EC30E049E066E032
:102BA00081E00E94E21442E069E080E00E94981413
:102BB0001F910F91FF90EF90DF90CF900C94D11365
:102BC000CF92DF92EF92FF920F931F930E94E81330
:102BD000882319F1C12CD12C80ECE82EF12C0CE0CB
:102BE00010E020E830E043E060E080E00E94E21482
:102BF00000E310E020E830E046E063E080E00E947F
:102C0000E214E12CFF24F3940AE110E020EC30E020
:102C100049E066E081E00E94E21442E066E080E084
:102C20000E94CD1443E069E086E00E94CD141F911C
:102C30000F91FF90EF90DF90CF900C94D113CF9233
:102C4000DF92EF92FF920F931F930E94E813882365
:102C500009F1C12CD12C80E2E82EFF24F3940CE082
:102C600010E020E830E043E060E081E00E94E21400
:102C700000E210E020E431E046E063E081E00E9401
:102C8000E21400E310E020EE30E049E066E081E08D
:102C90000E94E21443E069E080E00E94CD141F919D
:102CA0000F91FF90EF90DF90CF900C94D113CF92C3
:102CB000DF92EF92FF920F931F930E94E8138823F5
:102CC00001F1C12CD12C88E1E82EF12C0CE010E0B0
:102CD00020E830E043E060E081E00E94E2140EE191
:102CE00010E020E830E046E063E081E00E94E2147A
:102CF00000E310E020E830E049E066E081E00E9477
:102D0000E21441E069E080E00E94CD141F910F9130
:102D1000FF90EF90DF90CF900C94D113CF92DF9281
:102D2000EF92FF920F931F930E94E813882379F08C
:102D300086E0C82ED12C98E2E92EF12C0CE010E0B0
:102D400020E830E048E060E080E00E94E21443E0E8
:102D500068E080E00E94CD141F910F91FF90EF90EA
:102D6000DF90CF900C94D113CF92DF92EF92FF922D
:102D70000F931F930E94E813882371F0C12CD12C6C
:102D800084E2E82EF12C00E210E020E830E049E097
:102D900060E080E00E94E21443E069E080E00E948D
:102DA00020141F910F91FF90EF90DF90CF900C9423
:102DB000D113CF92DF92EF92FF920F931F930E9455
:102DC000E8138823B9F0C12CD12C80E6E82EF12C31
:102DD0000CE010E020E830E044E060E080E00E9499
:102DE000E21404E310E020EB30E048E064E080E02F
:102DF0000E94E21443E068E080E00E9498141F9172
:102E00000F91FF90EF90DF90CF900C94D113CF9261
:102E1000DF92EF92FF920F931F930E94E813882393
:102E200001F1C12CD12C80ECE82EF12C0CE010E04B
:102E300020E830E043E060E080E00E94E21400E23D
:102E400010E020E031E046E063E080E00E94E21420
:102E500000E310E020EC30E049E065E080E00E9413
:102E6000E21443E069E080E00E94CD141F910F91CD
:102E7000FF90EF90DF90CF900C94D113E2EEF1E051
:102E8000838380E890E0918380838091C901A82F9B
:102E9000B0E0AA5DBE4F9C91928391E095838F5FD5
:102EA00087708093C90108952091C8012F5F223057
:102EB00018F42093C80102C01092C801E091C80123
:102EC00026E0E29FF0011124E851FE4F6083418328
:102ED00093838283092E000CAA0BBB0B40916C02DA
:102EE00050916D0260916E0270916F02840F951F78
:102EF000A61FB71F80936C0290936D02A0936E0281
:102F0000B0936F0281E085838483089564E170E06B
:102F100080E793E00E94AC248091FF01282F30E0ED
:102F200099E0899FF0011124E75EF84F9481911197
:102F300042C09581923009F016829091F60149E0E5
:102F4000429FF001439FF00D1124E75EF84F9583F7
:102F500021E024832091F401285F20832091F50152
:102F600030E02A5F3F4F32832183A92FB0E0AE5D6E
:102F7000BE4F2C912383933029F49091FE01920F40
:102F8000938317C09230A9F490910002A92FB0E06A
:102F9000AA0FBB1FA45EBE4F2D913C9130872783A3
:102FA00096839F5F933018F49093000202C01092B2
:102FB00000021092FE018F5F893018F48093FF01A8
:102FC00008951092FF010895CF93DF938091F90146
:102FD000811111C08091F7018823A1F16091F50161
:102FE00070E08091F4012091FD014FE85BE090E0FA
:102FF0000E94C62C27C0C0E0D0E0FE01ED5DFD4F71
:103000002085822F90E0FC01ED5FF34E3491FC01AE
:10301000ED5EF34EE49123706091F50170E067502E
:103020007109630F711D8091F40190E0079741E1F0
:103030005DE08E0F911D0E947E2C2996C231D10534
:10304000E1F6C8CF8091FA01882309F43FC0C3E2BA
:10305000D2E028852770422F50E08091F5016A81E7
:103060007B81680F711DEE81FF814E9FC0014F9FD4
:10307000900D5E9F900D1124680F791F3091F4011F
:1030800088819981830F911DAC81BD814A9FF00198
:103090004B9FF00D5A9FF00D11244DE65BE08E0F13
:1030A0009F1F0E947E2C299682E0CB36D80789F696
:1030B0006091F50170E08091F4012091FE014BE1F7
:1030C0005BE090E0DF91CF910C94C62CDF91CF9123
:1030D00008958091F80120916D0730916E07882343
:1030E000E9F0C90163E070E00E943736892B59F49A
:1030F0008091FB018F5F8093FB019091F70181E04C
:1031000089278093F7018091FB018F3138F010926D
:10311000FB011092F80181E08093F7018091F901A1
:103120008823B9F0C90163E070E00E943736892B2B
:1031300029F48091FB018F5F8093FB018091FB015B
:103140008B3F38F01092FB011092F90181E08093DF
:10315000F7018091FC01823030F484E88093DF072E
:1031600089E080930402C9016AE070E00E9437366A
:10317000892B41F48091FD018F5F66E00E942B3620
:103180009093FD01C90165E070E00E943736892BFC
:1031900059F4EBE2F2E080818F5F8F708083399683
:1031A00082E0E337F807B9F708952F923F924F92E4
:1031B0005F926F927F928F929F92AF92BF92CF92C7
:1031C000DF92EF92FF920F931F93CF93DF93CDB7D0
:1031D000DEB7A9970FB6F894DEBF0FBECDBF36E0BD
:1031E000FE017796DF01232F1D922A95E9F72CE047
:1031F0002B8F2C8F8091F40190E00296988F8F8B0B
:103200008091F50190E002969A8F898F3697DF01C1
:103210001D923A95E9F780E28D8B2E8B2090D50197
:103220003090D6018091D7019091D8012C01B2E065
:103230004B0E511C2DE1A22E27E0B22EE9E1F7E062
:10324000FCA3EBA32EE137E03EA32DA3F8A3EF8F61
:1032500036E0732EDE011B96BE8FAD8FF5018081A7
:10326000882309F421C1AD8DBE8DE72D1D92EA950D
:10327000E9F7F8E0FF87F88BAF8DB8A12C91ADA1ED
:10328000BEA1EC91F0E0E75BFE4F808190E0820F01
:10329000911D9C878B87EF8DF8A1818192819E87FC
:1032A0008D878EEAC82E82E0D82E26EB32E03AA334
:1032B00029A394EB892E92E0992EC501019798A736
:1032C0008FA3D6018D919C9111979A838983129631
:1032D0008D919C9113979C838B83E9A1FAA18081A6
:1032E00090E0FC01ED5BFE4F20812D83FC01E35C4F
:1032F000FE4F30813E83D4016C9064FE41C065FC7A
:103300003FC0E980FA800B811C814B855C856D850F
:103310007E858F8598890E94B32D882389F166FC6C
:1033200028C06AE070E08BE092E00E94AC24EFA13C
:10333000F8A52081D60114968D919C911597821B3A
:10334000910915969C938E931497F4012081206423
:103350002083181619066CF0A9A1BAA1EC91F0E02F
:10336000E95CFE4F8081F6014281608190E00E941D
:103370005417ADA1BEA18C91833011F0F5011082DC
:10338000FAE0CF0ED11C29A13AA1265F3F4F3AA304
:1033900029A33AE0830E911C48E0C41643E0D4060A
:1033A00009F08FCF8091DB0184FF7EC0807609F029
:1033B0007BC08091DF01813041F1B0F08230B9F5FE
:1033C0008091D5019091D6011C01E6E22E0E311CB0
:1033D0008091D7019091D8012C01FFE04F0E511C34
:1033E00025E02D8B2E8B23C02090D5013090D60167
:1033F0008091D7019091D8012C0162E0460E511CBA
:1034000080E28D8B9CE09E8B12C08091D5019091C3
:10341000D6011C01A2E02A0E311C8091D7019091A7
:10342000D8012C01B2E04B0E511C7D8A7E8AE22C21
:103430003A8A298A042D5C8A4B8AFA881C892D894C
:103440003E894B855C856D857E858F8598890E9438
:10345000B32D882349F16AE070E08BE092E00E948E
:10346000AC248091DB0180648093DB01D5011C9248
:10347000F501319780810091D9011091DA01081B83
:1034800011091093DA010093D901442D622D8AE0CD
:1034900090E00E9454171016110634F0442D622D4E
:1034A00088E893E10E945417B9E0AB0EB11CEF8D90
:1034B000F8A13996F8A3EF8F2DA13EA1275F3F4FCA
:1034C0003EA32DA33EE6A31637E0B30609F0C6CE11
:1034D0000EEAC02E02E0D02E4601A12CB12CD40160
:1034E0008D919C9111979A83898312968D919C91CD
:1034F00013979C838B83F501E255FD4F3F01808537
:1035000090E0FC01ED5BFE4F20812D83FC01E35C2C
:10351000FE4F30813E83D3011696BC91BF8FB4FF1E
:103520002EC0B5FD2CC0E980FA800B811C814F892B
:10353000588D698D7A8D8B8D9C8D0E94B32D88233B
:10354000F1F08091F80181110CC08091F901811195
:1035500008C0E1E0E093F8018091FC018150809384
:10356000FC01FF8DF6FD0BC08F2F8062D3011696F4
:103570008C936FE070E08DE299E00E94AC24BAE099
:103580008B0E911CEAE0AE0EB11CFAE5AF16B10449
:1035900009F0A5CFB5E7AB2EB2E0BB2E1AE7612E3E
:1035A00012E0712E45019E012F5F3F4F3E8F2D8F00
:1035B000AD8DBE8DE6E01D92EA95E9F7F6E0FD835C
:1035C000FE83D4018D919C91119701969A838983F2
:1035D00012968D919C91139701969C838B83F30196
:1035E0008081882341F1E980FA800B811C8126E0EB
:1035F00036E04F89588D698D7A8D8B8D9C8D0E9418
:10360000B32D8823C1F08091F801811114C08091FD
:10361000F901811110C06FE070E08DE299E00E9425
:10362000AC24F1E0F093F8018091FC01815080938B
:10363000FC01D3011C92B7E08B0E911CE7E06E0EEB
:10364000711CFDEA8F16F2E09F0609F0B1CF909051
:10365000DB0194FE7BC095FC79C08091DF01813055
:1036600039F1B0F08230C1F58091D5019091D60149
:103670001C0163E1260E311C8091D7019091D80185
:103680002C01AAE04A0E511C8EE28D8B88E223C0E9
:103690002090D5013090D6018091D7019091D8012A
:1036A0002C0122E0420E511C80E28D8B8CE013C075
:1036B0008091D5019091D6011C0132E0230E311C7E
:1036C0008091D7019091D8012C0142E0440E511C09
:1036D0008CE08D8B8CE18E8BE22C3A8A298A042D2A
:1036E0005C8A4B8AFA881C892D893E894F89588DBE
:1036F000698D7A8D8B8D9C8D0E94B32D882331F13D
:1037000096FC14C06FE070E08DE299E00E94AC245A
:103710008091DB0180648093DB018091D9019091DD
:10372000DA0101979093DA018093D9018091F80131
:1037300081110CC08091F901811108C081E0809352
:10374000F8018091FC0181508093FC018091E70198
:10375000882309F467C086E0ED8DFE8D11928A956D
:10376000E9F788E08D838E839090E201F090E30189
:103770009982FA828090E401882D90E0082D9C8344
:103780008B83E92C1C8128E038E04F89588D698DA6
:103790007A8D8B8D9C8D0E94B32D882309F442C0B5
:1037A000E091E5018E2F90E08730910538F5FC011E
:1037B000EA5AFF4F0C945F368091FC01853020F46B
:1037C0008F5F8093FC011AC0482D692D88EE93E02D
:1037D00013C081E08093F90111C01092F6010EC070
:1037E00081E003C082E001C083E08093F60106C05F
:1037F000482D692D84EC99E00E9454171092E7013E
:103800006FE070E08DE298E00E94AC2464E170E02B
:1038100080E090E00E94C8236EE170E08AE590E1CC
:103820000E94AC240E94C82484FF05C08091F50149
:10383000843308F4A5C50E94C82485FF04C0809184
:10384000F4018111A1C50E94C82487FF04C08091A2
:10385000F50181119DC50E94C82486FF05C0809195
:10386000F401803708F498C588E00E94BB2C8823B7
:1038700019F088E08093040284E00E94BB2C882326
:1038800031F12091F601822F90E0FC01EF5FFE4FB5
:10389000DC01AF5ABE4F30818C91381318C0211112
:1038A00007C0809101018150809301010E94861719
:1038B0008091F601823059F4809103018150809308
:1038C00003010E9486170E9486170E9486170E9495
:1038D000C82482FF2AC08091F601813049F480918A
:1038E0000201883029F487E0809302010E94861744
:1038F0008091F6018330C9F481E08093FA018091D0
:103900006D0790916E076EE170E00E943736892B4B
:1039100029F48091FE018F5F8093FE018091FE016A
:10392000853018F084E08093FE010E94C82482FD57
:1039300008C08091F601833021F48091FA01811151
:103940002FC58091F60190E0FC01EF5FFE4F2081D2
:10395000DC01AF5ABE4F9C91291730F48FEF820FD4
:1039600011F0808301C0908320916D0730916E0724
:10397000C90163E070E00E943736BC012170332733
:10398000EFE1F7E0A9E1EA2EA7E0FA2ECF010197D7
:10399000DC019C91913029F46115710509F40CC585
:1039A0000CC0933051F42115310519F440814F5F5B
:1039B00040838081843008F01082492F50E0435BBF
:1039C0005E4FDA018C91D7014C91480F4C939230A5
:1039D00071F411960D911C91129717968D919C91EF
:1039E0001897800F911F12969C938E9311974138D0
:1039F00048F4D70111968D919C91129707968834BF
:103A0000910520F0CF010297DC011C92B9E0EB0E8A
:103A1000F11C39964AE6E41647E0F40609F0B6CF01
:103A20000E94691820916D0730916E07C90166E008
:103A300070E00E9437367C01892B91F0C90163E068
:103A400070E00E9437368C0144EB52E085EB682E23
:103A500082E0782EFA018EEA92E060E1962E70C044
:103A600009E7802E02E0902E80E090E0E5E7F2E0AA
:103A700000811181AC014B585D4F083F6FEF160775
:103A80003CF062817381685F7F4F6934710518F083
:103A9000DA0115961C92DA0115966C91159766233A
:103AA000E9F0025011091183008316964C9150E001
:103AB000519541955109440F551F4F5F5F4F6281EA
:103AC0007381460F571F53834283D4014C914F5F3C
:103AD000443010F44C9302C0D4011C9237960796E0
:103AE000B7E08B0E911C8833910511F6A7CF60814A
:103AF00065FD03C0607B60626083608166FD29C0F4
:103B0000608165FF39C0608165FD4AC0DC016D914F
:103B10007C91603E7F4F0CF44FC0DC0112966D919A
:103B20007C911397603E7F4F0CF446C00A963A96FC
:103B30006AE0660E711CAFE06A16A3E07A06F1F146
:103B4000DC0114966D917C91159716161706ACF250
:103B5000CECF0115110511F469256083D3016C9155
:103B60006F5F653110F46C93CBCFD3011C926081F1
:103B70006F7B60616083C4CFE114F10411F46F5F67
:103B80006083D30111967C916081723009F41AC46C
:103B9000762F7F70743008F4B6CF607F6083B3CF28
:103BA0000115110511F46F5F608360816F706630DD
:103BB00008F4ACCF1082AACF1082B8CF9091DB016D
:103BC00094FD09C06091D9017091DA0116161706AB
:103BD0000CF450C03FC08091DD01863010F010928F
:103BE000DD01B6EBEB2EB2E0FB2EEEEAF2E080E078
:103BF000B70162507109DB016C9165FD23C06081E2
:103C000071816150710971836083D7016C91653056
:103C1000C9F401151105B1F4823071F018F4813046
:103C200031F010C0843019F0853031F00BC0628162
:103C300073816150710904C0628173816F5F7F4F2E
:103C4000738362838F5F3A96BAE0EB0EF11C863085
:103C500079F6B8CF95FD0EC0FA018081806280832D
:103C6000465F5F4FF3E04E305F07B1F7907B9062A5
:103C70009093DB019091DB0196FF17C001151105B0
:103C800021F480E189278093DB018091DE018F5F41
:103C90008A3118F48093DE0108C01092DE01809111
:103CA000DB018F7B80618093DB014091DB0144FF6E
:103CB00031C045FD22C08091DF0181110AC06091B1
:103CC000CC01862F880F680F660F6C5F70E0C9010A
:103CD00003C0C9016AE070E00E943736892B19F4ED
:103CE0004F5F4093DB018091DB01982F9F709430F0
:103CF00088F0807F8093DB010DC00115110519F458
:103D00004F5F4093DB018091DB018F70863010F0B4
:103D10001092DB01C9016AE070E00E943736892BFE
:103D200091F48091CD019091CE0101979093CE01B5
:103D30008093CD018091CF019091D0010197909314
:103D4000D0018093CF01012B49F48091D101909152
:103D5000D20101979093D2018093D1018091CD013E
:103D60009091CE01883F9F4F34F480E890E090938B
:103D7000CE018093CD018091CF019091D001883FF9
:103D80009F4F34F480E890E09093D0018093CF016E
:103D90008091D1019091D201803F9F4F34F480E80F
:103DA00090E09093D2018093D1018091E701882324
:103DB00009F1C90165E070E00E943736892B31F4C2
:103DC0009091E60181E089278093E60120FD09C0FA
:103DD0008091E2019091E30101979093E301809338
:103DE000E2018091E2019091E301883F9F4F14F43A
:103DF0001092E7016DEE71E0ECEEF1E031E0DB01F5
:103E00008C91882379F0AF0143505109DA018C91EC
:103E100081508C93908193279083823018F4DB013A
:103E20001C9210826A5F7F4F3696B1E0E83FFB0735
:103E300031F720FD16C0209101028091020290E02E
:103E4000019739E1389FF001399FF00D1124E20FFD
:103E5000F11DEE0FFF1FE358F74E85919491FC0181
:103E600009958091D301882309F461C020E047E4DB
:103E70005EE060E070E080E290E00E947E2C21E055
:103E800047E45EE068E070E088E290E00E947E2C0B
:103E900022E047E45EE060E170E080E390E00E94B1
:103EA0007E2C20E047E45EE060E070E08FE290E08E
:103EB0000E947E2C21E047E45EE068E070E087E34A
:103EC00090E00E947E2C22E047E45EE060E170E03A
:103ED0008FE390E00E947E2C20E045E15EE06CE103
:103EE00070E08091CD019091CE010E94C62C20E01F
:103EF00045E15EE06CE170E08091CF019091D001EE
:103F00000E94C62C0091D1011091D20120E043ED16
:103F10005DE062E170E0C8010E94C62C20E045E14E
:103F20005EE062E170E0C80108960E94C62C009134
:103F3000D9011091DA01101611062CF03091DB0135
:103F400034FD2BC0A8C09BEA099F012D11240695C2
:103F500010E0E091DF01F0E0EB5AFE4F8081899F95
:103F6000812D1124869520E230E07901E81AF108CC
:103F7000912C892D90E00817190704F3880F991FD9
:103F80008E0D9F1D20E046E75EE06CE370E0880F39
:103F9000991F0E94C62C9394ECCF35FF09C0232FA4
:103FA0002F706091D7017091D80142EF56E152C055
:103FB0008091DF01813009F452C0F0F1823009F0C4
:103FC0006AC00091D7011091D801E090D501F0901E
:103FD000D601B801695E7F4F20E04EE650E1C7018F
:103FE00039A70E947E2CB801685E7F4F20E04CEA22
:103FF0005FE0C70140960E947E2C4701F8E18F0EDA
:10400000911C39A5232F2F70B801605F7F4F4AEABA
:104010005EE0C4010E947E2CB801685F7F4F20E003
:1040200048E85EE0C4010E947E2C20E04EE75EE09E
:10403000B801C70184962DC02091D401822F880F2A
:10404000880F232F2F70280F6091D7017091D8010E
:104050004CED50E18091D5019091D6011AC00091AC
:10406000D7011091D801E090D501F090D60120E061
:104070004AE950E1B801C70139A70E947E2C39A551
:10408000232F2F70B801615F7F4F40E850E1C701D7
:104090000C960E947E2C00E010E0F801E255FD4FE6
:1040A000268124FF5EC025FF09C02F70D60112961D
:1040B0006D917C91139742EF56E14FC0808582301D
:1040C00089F170F48823D1F0813009F04AC02F7053
:1040D000D60112966D917C9113974EE655E11DC065
:1040E000843091F190F08530E1F5D60112966D9112
:1040F0007C91139720E04EED52E12FC02F70F60116
:104100006281738140E756E11CC02F70D601129680
:104110006D917C9113974AE253E18D919C910E949D
:10412000C62C1FC02F70253018F42093E10102C067
:104130001092E101F601628173812091E1014CE26C
:1041400054E180819181EBCF2F70F6016281738100
:1041500048EE52E18081918102C08D919C910E9434
:104160007E2C065F1F4FBAE0CB0ED11C0A3511051D
:1041700009F093CF00E010E0F801EB58FD4F858186
:10418000882361F0D50112966D917C91139724815B
:1041900044EB57E18D919C910E947E2C095F1F4F4B
:1041A000B7E0AB0EB11C0833110531F70E94E417DC
:1041B00000E010E0D801A75EB84F14968C911497D8
:1041C0008823A1F01596EC911597F0E0EE0FFF1FF4
:1041D000E85AFE4F40815181EBA1FCA161817281BF
:1041E000808116962C9190E00E947E2C075F1F4FD5
:1041F0002BA13CA1275F3F4F3CA32BA30135110509
:10420000C9F68091E701882389F08091E60188232F
:1042100069F06091E40170E02091E50146ED57E11D
:104220008091E2019091E3010E94C62C48EEA42EF9
:1042300041E0B42EC12CD12CCE0101964C01D60107
:10424000A851BE4F7D0115968C911597882309F4CE
:1042500048C014968C91882309F443C0F50162810B
:104260007381072E000C880B990B2AE0A4010E9491
:104270006A36F40101900020E9F731970E2F0819F2
:10428000D70111966C90712CF501E080F12C2AE099
:1042900048E458E1B301C7010E947E2C512C002E46
:1042A000000C110BF4E0EF0EF11C852D90E080174F
:1042B0009107BCF4F401E80FF91F208121331CF0B1
:1042C00020532A3008F020E048E458E1B301C70148
:1042D00035E0539E800D911D11240E947E2C539435
:1042E000E4CF46E0C40ED11C66E0A60EB11C8CE003
:1042F000C816D10409F0A3CF00E010E020E04BE69F
:1043000058E160E070E0C8010E947E2C085F1F4FFA
:104310000032110599F710E0812F90E02091FC0107
:1043200030E0215031098217930774F421E04BE605
:1043300058E160E070E033E0880F991F3A95E1F7AB
:104340000E947E2C1F5FE8CF80E00E944229A99640
:104350000FB6F894DEBF0FBECDBFDF91CF911F9196
:104360000F91FF90EF90DF90CF90BF90AF909F9014
:104370008F907F906F905F904F903F902F90089517
:104380008F5F8093F50157CA81508093F4015BCA17
:1043900081508093F5015FCA8F5F8093F40164CAF6
:1043A0001092FA01809104018150809304010E94CF
:1043B00086171092FE01C5CA81E04081411180E05C
:1043C0008083FBCA762F7F707B3008F0E6CB9BCBD7
:1043D000CF92DF92EF92FF920F931F93CF93DF93D1
:1043E0006C017A018B01C0E0D0E0CE15DF0589F0C9
:1043F000D8016D918D01D601ED91FC910190F08174
:10440000E02DC6010995892B11F47E0102C0219689
:10441000ECCFC701DF91CF911F910F91FF90EF90EB
:10442000DF90CF9008953FB7F89480911402909157
:104430001502A0911602B091170226B5A89B05C0DF
:104440002F3F19F00196A11DB11D3FBFBA2FA92F13
:10445000982F8827820F911DA11DB11DBC01CD0190
:1044600042E0660F771F881F991F4A95D1F708957C
:1044700080910C02E0910A02F0910B02882349F02E
:10448000CF01029690930B0280930A02859194913A
:104490000895CF01029690930B0280930A028081C7
:1044A00091810895CF92DF92EF92FF920F931F9325
:1044B000CF93DF930E943822811520E8920761F4A0
:1044C000809171008D7F80937100109291004698C9
:1044D0004798109209028BC021E020930902813095
:1044E00020E8920751F4809107029091080290937E
:1044F0000B0280930A020E94382297FD05C020918A
:104500000602222309F43FC02091050221113BC07D
:1045100021E020930D02EC01DF77209769F481E020
:1045200080930E0246983FE9C32E3FE0D32EE12C44
:10453000F12CCAEFD0E014C08E0120E030E060E43E
:1045400072E48FE090E0A90198010E94C1366901F0
:104550007A0181E0C81AD108E108F10810920E0230
:10456000E0911707F09118070995811103C081E0C8
:1045700080930E0280910D028823B9F180910E0282
:10458000811133C003C010920D02C5CF46992DC0D2
:10459000479A0E943822009771F09C01DE010E9428
:1045A0000237DC01CB0129E0B595A7959795879552
:1045B0002A95D1F703C08FEF9FEFDC011092900096
:1045C0002AE020939100D0929900C09298008093A5
:1045D0000F0290931002A0931102B09312028091E7
:1045E000710082608093710002C04798D2CFDF9142
:1045F000CF911F910F91FF90EF90DF90CF90089592
:1046000083B7817F83BF83B7816083BF889583B77A
:104610008E7F83BF08958091030208950E946536BE
:10462000362F90E0FC01E15CF54E4491FC01EA5C20
:10463000F44E2491FC01ED59F44E8491882309F441
:1046400051C04423E1F150E0FA013197EF30F10518
:10465000B0F5E35AFF4F0C945F36909180009F773E
:1046600007C0909180009F7D03C090918000977F4C
:104670009093800024C094B59F7702C094B59F7D2D
:1046800094BD1DC0909190009F7707C090919000BD
:104690009F7D03C090919000977F909390000FC0F2
:1046A0009091C0009F7703C09091C0009F7D909330
:1046B000C00005C09091C200977F9093C200E82F80
:1046C000F0E0EE0FFF1FEB5AF44EA591B4918FB7B7
:1046D000F894EC91311103C020952E2301C02E2BAC
:1046E0002C938FBF08951F93CF93DF931F92CDB765
:1046F000DEB7162F682F89E049830E941023612FAF
:104700008AE00E9410234981642F8BE00F90DF9193
:10471000CF911F910C941023CF93DF9390E0FC0175
:10472000EA5CF44E2491FC01ED59F44E8491882307
:1047300061F190E0880F991FFC01E25FF44EC59192
:10474000D491FC01EB5AF44EA591B491611109C0CA
:104750009FB7F8948881209582238883EC912E233B
:104760000BC0623061F49FB7F8943881822F809536
:1047700083238883EC912E2B2C939FBF06C08FB789
:10478000F894E8812E2B28838FBFDF91CF91089575
:104790008F929F92AF92BF92CF92DF92EF92FF9251
:1047A0006B017C010E9413224B015C01C114D104F6
:1047B000E104F104F1F00E941322DC01CB0188191D
:1047C0009909AA09BB09883E9340A105B10570F378
:1047D00021E0C21AD108E108F10888EE880E83E0D2
:1047E000981EA11CB11CC114D104E104F10419F7F5
:1047F000DDCFFF90EF90DF90CF90BF90AF909F9074
:104800008F9008951F920F920FB60F9211242F933D
:104810003F938F939F93AF93BF9380911F0290918B
:104820002002A0912102B09122023091130223E0D4
:10483000230F2D3720F40196A11DB11D05C026E8D8
:10484000230F0296A11DB11D2093130280931F0216
:1048500090932002A0932102B0932202809114022F
:1048600090911502A0911602B09117020196A11D18
:10487000B11D8093140290931502A0931602B09379
:104880001702BF91AF919F918F913F912F910F9000
:104890000FBE0F901F9018951F920F920FB60F9298
:1048A00011242F933F934F935F936F937F938F9335
:1048B0009F93AF93BF93EF93FF9380910F029091DB
:1048C0001002A0911102B0911202892B8A2B8B2B1E
:1048D00081F180910E0281110BC098B180E489278B
:1048E00088B980910D02882319F088B1805888B961
:1048F00080910F0290911002A0911102B0911202CA
:10490000181619061A061B06B4F480910F0290912E
:104910001002A0911102B09112020197A109B109F0
:1049200080930F0290931002A0931102B093120291
:1049300002C00E945222FF91EF91BF91AF919F91CF
:104940008F917F916F915F914F913F912F910F9038
:104950000FBE0F901F9018959C01E1E7F0E0908149
:104960009D7F908310920C02E9E0F7E0F0930B0238
:10497000E0930A02F0930802E09307023183208358
:104980007383628380E090E8958384830C94522241
:104990008FB12CB193B130E020953095207433273E
:1049A000A90123E0559547952A95E1F7292F30E095
:1049B0002095309520713327359527953595279586
:1049C000242B8095807F822B0895E0911D02F09129
:1049D0001E02908180911C02982B9083A0911A0254
:1049E000B0911B022C9190911902909592239C9367
:1049F00090818095892380830895E0911A02F09137
:104A00001B02908180911902892B8083E0911D0205
:104A1000F0911E02908180911C02809589238083F1
:104A200008958EBD00000DB407FEFDCF8EB508952C
:104A300087E0809304021092E307809102028F5F67
:104A40008093020280EE9FEF9093E1078093E0074E
:104A500084E98093DF07E4EFF1E081E0848315824D
:104A60001092E2078093D301EDECF1E08CE190E04D
:104A7000918380838CE590E09383828380E890E04B
:104A800097838683089580910402863011F02FE188
:104A900001C027E28091E0079091E10730E02817FC
:104AA00039075CF404979093E1078093E0078091C5
:104AB000DF078C5F8093DF0708958091E3078F5FA6
:104AC0008093E307089580910402863011F02FE16E
:104AD00001C027E28091E0079091E10730E0821762
:104AE00093075CF404969093E1078093E00780912C
:104AF000DF0784508093DF0708958091E3078F5F7D
:104B00008093E307089580910402893019F410928C
:104B1000E20703C081E08093E2078091E3078F5FA3
:104B20008093E30708951092020210926C02109293
:104B30006D0210926E0210926F021092FA011092A2
:104B4000FE011092FF011092000280E090E0FC0153
:104B5000E75EF84F14821682099681359105B9F700
:104B600089E0E0E6F1E0A3E2B2E001900D928A95DF
:104B7000E1F789E0E9E6F1E0ACE2B2E001900D9204
:104B80008A95E1F789E0E2E7F1E0A5E3B2E0019080
:104B90000D928A95E1F789E0EBE7F1E0AEE3B2E050
:104BA00001900D928A95E1F789E0E4E8F1E0A7E44D
:104BB000B2E001900D928A95E1F789E0EDE8F1E02D
:104BC000A0E5B2E001900D928A95E1F789E0E6E96F
:104BD000F1E0A9E5B2E001900D928A95E1F789E054
:104BE000EFE9F1E0A2E6B2E001900D928A95E1F7DB
:104BF0001092E1011092AD02E7EBF2E080E020E8D4
:104C000030E0DF0113978C9311961C9217972D9328
:104C10003C9310828F5F3A96893099F780E090E05C
:104C2000FC01EB58FD4F1582079688339105C1F7BB
:104C300080E18093F40188E18093F5011092F60100
:104C400081E08093F70184E08093FC011092FB01E6
:104C50001092DB0180E890E09093D6018093D5011B
:104C60001092E30710926B0280EE9FEF9093E107A2
:104C70008093E00784E98093DF0786E08093040255
:104C80000895E4EFF1E080E1808380E281838AE0AF
:104C900080930402089586E0809304020895AEEAAA
:104CA000B2E020E030E0C90104968F709927FC0142
:104CB000ED5EF34EE491F0E0EC5AFF4F1196FC9359
:104CC000EE93FC01ED5FF34EE491F0E03396EE0FCE
:104CD000FF1F1396FC93EE931297295F3F4F1A968E
:104CE0002833310501F780916D0790916E0762E1DD
:104CF00070E00E943736892BC9F480916B02E82F4F
:104D0000E7709AE0E99FF0011124E255FD4F90E32E
:104D100096838F5F803118F480936B020895109210
:104D20006B02809101028F5F809301020895909140
:104D3000E20781E089278093E2070C942A0F0E9402
:104D400069180E94E417109201028FEF809370029D
:104D50008091DB018F7E8093DB018091E2078823C5
:104D6000B9F020E041E75CE16CE170E08091E007A0
:104D70009091E1070E947E2C209102022F5F80918A
:104D8000DF0743E35CE16CE170E090E00E947E2C81
:104D9000E091E307F0E0EE0FFF1FED5DF34E85912C
:104DA0009491FC0109940E94E81381110E94F4136C
:104DB000E091DC01F0E0EE0FFF1FE351F44E85912E
:104DC0009491FC0109958091DB0187FD05C08091DC
:104DD00001028F5F8093010208950E94E813811100
:104DE0000E94F413E091DC01F0E0EE0FFF1FE951A7
:104DF000F44E85919491FC0109958091DB0187FD2A
:104E000005C0809101028F5F8093010208950E9486
:104E1000E81381110E94F413E091DC01F0E0EE0F41
:104E2000FF1FE954F44E85919491FC0109958091FE
:104E3000DB0187FD05C0809101028F5F8093010235
:104E4000089586E00E943E17809101028F5F809353
:104E50000102089585E00E943E17809101028F5F54
:104E600080930102089584E00E943E178091010220
:104E70008F5F80930102089583E00E943E17809126
:104E800001028F5F80930102089582E00E943E1725
:104E9000809101028F5F80930102089581E00E945A
:104EA0003E17809101028F5F80930102089580E098
:104EB0000E943E17809101028F5F80930102089546
:104EC000CF92DF92EF92FF920F931F930E94E8130D
:104ED000882301F1C12CD12C80ECE82EF12C0AE0C2
:104EE00010E020E830E043E060E083E00E94E2145C
:104EF00000E310E020E830E046E063E083E00E9459
:104F0000E2140DE110E020E231E049E066E081E0EA
:104F10000E94E21442E066E080E00E94CD1443E08B
:104F200069E086E00E94CD1480916D0790916E0734
:104F300062E370E00E943736892B19F486E00E9404
:104F40000A2D1F910F91FF90EF90DF90CF900C945E
:104F5000D113CF92DF92EF92FF920F931F930E9493
:104F6000E8138823B9F0C12CD12C80ECE82EF12C69
:104F70000AE010E020E830E044E060E083E00E94D6
:104F8000E21400E310E020EC30E048E064E083E06D
:104F90000E94E21442E068E080E00E94CD1480911B
:104FA0006D0790916E0762E370E00E943736892B9F
:104FB00019F488E00E940A2D1F910F91FF90EF9045
:104FC000DF90CF900C94D113CF92DF92EF92FF92AB
:104FD0000F931F930E94E8138823B9F0C12CD12CA2
:104FE00080E8E82EF12C0CE010E020E830E044E00E
:104FF00060E083E00E94E21404E210E020EB30E085
:1050000048E064E083E00E94E21441E068E080E070
:105010000E9420141F910F91FF90EF90DF90CF908E
:105020000C94D113CF92DF92EF92FF920F931F93C4
:105030000E94E813882319F1C12CD12C80E6E82EB8
:10504000F12C0EE110E020E830E043E060E081E088
:105050000E94E214E12CFF24F3940CE010E020E025
:1050600031E046E063E081E00E94E21400E310E0FA
:1050700020E031E049E066E081E00E94E21441E096
:1050800063E080E00E94201442E069E083E00E9437
:10509000CD141F910F91FF90EF90DF90CF900C9463
:1050A000D113CF92DF92EF92FF920F931F930E9442
:1050B000E8138823E9F080E2C82ED12C90E5E92E90
:1050C000F12C00E410E020E830E046E060E082E00F
:1050D0000E94E214C12CD12C20E6E22EF12C0CE02F
:1050E00010E020E231E049E066E081E00E94E21455
:1050F00086E00E94912D42E066E080E00E94CD149F
:1051000042E069E086E00E9420141F910F91FF9019
:10511000EF90DF90CF900C94D113CF92DF92EF926B
:10512000FF920F931F930E94E813882379F080E188
:10513000C82ED12C98E2E92EF12C00E410E020E8F2
:1051400030E049E060E082E00E94E21489E00E94E1
:10515000912D42E069E080E00E94CD141F910F91F3
:10516000FF90EF90DF90CF900C94D113CF92DF920D
:10517000EF92FF920F931F930E94E813882369F127
:1051800080E1C82ED12C98E2E92EF12C00E410E049
:1051900020E130E043E060E082E00E94E214C12CB4
:1051A000D12C20E3E22EF12C0CEA10E020E230E0DA
:1051B00045E063E082E00E94E21430EFC32EDD247C
:1051C000DA9448E2E42EF12C00E011E020E130E036
:1051D00048E065E082E00E94E21488E00E94912DA0
:1051E0001F910F91FF90EF90DF90CF900C94D1130F
:1051F000CF92DF92EF92FF920F931F930E94E813DA
:10520000882349F1C12CD12CE12CFF24F3940FE128
:1052100010E020E830E042E060E081E00E94E2142B
:105220000AE010E020EC30E044E062E081E00E941F
:10523000E21400E310E020E431E046E064E081E0C5
:105240000E94E2140FE110E020E031E048E066E067
:1052500081E00E94E21442E062E080E00E94CD140E
:1052600042E066E082E00E94981442E068E086E056
:105270000E9420141F910F91FF90EF90DF90CF902C
:105280000C94D1137F928F929F92AF92BF92CF9244
:10529000DF92EF92FF920F931F93CF93DF93CDB7DF
:1052A000DEB72A970FB6F894DEBF0FBECDBF982E9B
:1052B00060916C0270916D0280916E0290916F020C
:1052C0002AE0AE014F5F5F4F7A010E946A36F70114
:1052D00001900020E9F73197EE19FF097E2E07E0D3
:1052E0000E1BD12C002E000C110B8D2D90E0801781
:1052F0009107FCF4992071F051E0951218C037E045
:10530000D39EC001112420E043E35CE168E270E039
:1053100088960BC025E0D29EC001112420E048E40D
:1053200058E160E070E0815A9F4F0E947E2CD39438
:10533000DCCF85E0809F6001819FD00C11244FE578
:10534000C40ED11C87E0809F5001819FB00C1124B6
:1053500058E2A50EB11C812C072D770C110B882D5E
:1053600090E08017910724F5F701E80FF91F2081DD
:1053700021331CF020532A3008F020E0992051F00E
:1053800081E0981213C043E35CE168E270E0C5017C
:1053900037E006C048E458E160E070E0C60135E05F
:1053A000839E800D911D11240E947E2C8394D7CF63
:1053B0002A960FB6F894DEBF0FBECDBFDF91CF9116
:1053C0001F910F91FF90EF90DF90CF90BF90AF9023
:1053D0009F908F907F9008952F923F924F925F926F
:1053E0006F927F928F929F92AF92BF92CF92DF92F5
:1053F000EF92FF920F931F93CF93DF9300D000D0D3
:10540000CDB7DEB74A013901F02E4C2DA02E000F8A
:10541000BB088C010A0D1B1D101611060CF0CBC128
:10542000803891050CF0C7C19B012E0D311DE7FCA2
:105430003A95121613060CF0BEC1603471050CF0DB
:10544000BAC18114910409F4B6C19B0177FF04C06D
:1054500022273327261B370B2770FB0177FD379652
:1054600053E0F595E7955A95E1F73E2F77FF07C092
:10547000222329F03FEF3E0F58E0521B252F97FFC4
:1054800005C0EE27FF27E81BF90B02C0E0E0F0E0C3
:10549000003811051CF050E8581B01C05F2D5E1B41
:1054A000632F032E000C770B3F3F1CF4062F009553
:1054B00001C000E01E2D177817FF03C01150186FB0
:1054C0001F5FDD24D39411160CF0D12C1E2DE7FCA8
:1054D000195FE12EE594E594E594ED0C6E0D711DD8
:1054E000693071051CF068E0E62EE31AE01A300F0F
:1054F000632F70E83703800D911D11248E0F9F1FBD
:105500007F2D7003800111240E0F1F1F800E911E2E
:105510006114710419F0D301A00FB11FE1E0F0E0B4
:105520003F01022E02C0660C771C0A94E2F743305A
:1055300009F4FAC090F44130C9F0423009F03BC19F
:105540004FEF469DD001479DB00D1124A095B09519
:10555000BC83AB837C813E0D2BC04A3F29F04B3F7F
:1055600009F029C13E0D87C03E0D52C03E0DC6C098
:10557000F401EC0DFD1DE491E69D2001E79D500C2A
:1055800011245A82498267FD05C0F80140814A23EF
:10559000442A4082211115C0FFEFCF1ADF0A0F5FA6
:1055A0001F4FC51628F36F5F8A0C9B1C80589F4FB6
:1055B000631709F400C18C01075F1C4FC12CD12C6B
:1055C000F0CF67304CF7F801E058FF4F4081472398
:1055D000FA804F294083E0CFF401E00FF11FE491FE
:1055E000E69D6001E79DD00C1124DA82C98267FD37
:1055F00003C04C91C42ACC92211113C00F5F1F4FDE
:105600001196051748F36F5F8A0C9B1C80589F4FBB
:10561000631709F4D0C0DC01A75FBC4F00E010E0C5
:10562000F0CF67305CF7FD01E058FF4F70814A8191
:10563000472B4083E3CFF401EC0DFD1DE491E69D83
:10564000D001E79DB00D1124BA83A98367FD05C081
:10565000A095F8014081A423A083211115C0FFEF7C
:10566000CF1ADF0A0F5F1F4FC51628F36F5F8A0C32
:105670009B1C80589F4F631709F49DC08C01075FE6
:105680001C4FC12CD12CF0CF67304CF7F801E058FB
:10569000FF4F4A814095708147234083E0CFFD0151
:1056A000E00FF11FE491E69D2001E79D500C1124CD
:1056B000409450945C824B82F401E00FF11FE4911E
:1056C000E69D1001E79D300C11243A82298267FD86
:1056D00005C0F6014081442224282082211118C0EF
:1056E0000F5F1F4FFFEFCF1ADF0A0517C0F26F5F82
:1056F0008A0C9B1CAA0DBB1D80589F4F631709F491
:105700005AC0FC01E75FFC4F6F0100E010E0EDCFF5
:10571000673034F7F601E058FF4F70814C81472322
:105720007A81472B4083DCCF652F70E0800E911E7D
:10573000DC01A75FBC4F87579C4F00E810E0061BB9
:10574000170BA61AB70AAA0CBB1C6B817C81E981D6
:10575000FA81F52ED12CAF015F2CCE2CF401CF9322
:10576000DF93C82FD92F45916591222361F0469D83
:10577000402D512D669D602D37302CF4D88010942B
:10578000D120D52AD992DC9033231AF06095D62205
:10579000D42ADD92FA9439F7EA9451F0F52C339536
:1057A0001124EA0DF11DA00FB11DC00FD11DDBCFDB
:1057B000DF91CF9111240F900F900F900F90DF91F8
:1057C000CF911F910F91FF90EF90DF90CF90BF90FE
:1057D000AF909F908F907F906F905F904F903F9091
:1057E0002F9008958F929F92AF92BF92CF92DF92A7
:1057F000EF92FF920F931F93CF93DF935C016B01A6
:105800008A0180910C01882309F45EC080917402A2
:10581000882309F459C08091720280FF05C08091ED
:10582000E00082608093E000E8018AEFF82E93E0C8
:10583000E92E2FE3822E3AE3932E209709F43DC000
:105840008FB7F894E092E9009091E80095FF06C0C8
:105850009091F200282D291B922F01C090E08FBF5C
:1058600091110AC0FA94FF2079F161E070E080E0C4
:1058700090E00E94C823E1CF292F30E0C217D30760
:105880000CF49C2F8FB7F894E092E9002091E80087
:1058900025FF11C0292F30E0C21BD30BF601915018
:1058A00020F041914093F100FACFC20ED31E9091A7
:1058B000E80095FF13C08FBFC0CF5D9884E680934A
:1058C00071021016110644F081E090E0F501938317
:1058D000828380E090E005C0C80103C09092E80098
:1058E000EACFDF91CF911F910F91FF90EF90DF9062
:1058F000CF90BF90AF909F908F900895CF92DF92FE
:10590000EF920F93CF93DF934115510569F1FA019F
:1059100004913196E4904E5F5F4F2223F9F0C02F3F
:10592000D0E0AE2DA695A695A695EA2FF0E0A1E0D1
:10593000B0E03E2D377011F4A0E0B0E0AE0FBF1F15
:10594000CA9F6001CB9FD00CDA9FD00C11242C9DF4
:10595000F0012D9DF00D11244E0F5F1F2AEFC22E76
:1059600020E030E00E94EC29DF91CF910F91EF9081
:10597000DF90CF90089520917007282329F490910B
:105980006F07982381E009F480E00895CF92DF92B9
:10599000EF920F931F93CF93DF934115510591F130
:1059A000FA0104913196E4904E5F5F4F222321F17A
:1059B00030E0220F331FC02FD0E0AE2DA695A69564
:1059C000A695EA2FF0E0A1E0B0E01E2D177011F4CB
:1059D000A0E0B0E0AE0FBF1FCA9F6001CB9FD00C0C
:1059E000DA9FD00C11242C9DF0012D9DF00D3C9DD3
:1059F000F00D11244E0F5F1F23E0C22E20E030E097
:105A00000E94EC29DF91CF911F910F91EF90DF90D1
:105A1000CF900895CF93DF939091AD02A7EBB2E0C2
:105A2000CEEAD2E040E051E077E0481761F1FD01B5
:105A30003397208125FF02C0692F20C0288139813A
:105A400020383105CCF76C916111F6CF5C93799FCA
:105A5000F0011124EB58FD4F55832E5F3F4F3183EA
:105A600020832A813B81338322832831310514F43A
:105A7000168201C056839F5F9830F0F24F5F1A96EE
:105A80002A96962FD2CF9093AD02DF91CF910895B1
:105A900020E089E093E0B22FB111BFEFFC010024B8
:105AA000B193B193B193B1930394D1F70895EF9269
:105AB000FF920F931F93CF9300E810E0C0E0E12C1A
:105AC000F12C0E94E52480E10E94112582E00E94D1
:105AD00011258C2F806B0E9411250E94FD24F70157
