:100000000C9464040C948C040C948C040C948C0458
:100010000C948C040C948C040C948C040C948C0420
:100020000C948C040C948C040C9407060C947906A4
:100030000C948C040C948C040C948C040C948C0400
:100040000C948C040C942E0C0C948C040C948C0446
:100050000C948C040C948C040C948C040C94D80A8E
:100060000C948C040C948C040C948C040C948C04D0
:100070000C948C040C948C040C948C040C948C04C0
:100080000C94CC0C0C948C040C948C040C948C0468
:100090000C948C040C948C040C948C040C948C04A0
:1000A0000C948C040C948C040C948C04E108E408EB
:1000B000D308D708DB08050905090509E808EC0895
:1000C000F008F608FA08050900097C098109860983
:1000D00090099A09E409E409E409A409AE09B809F8
:1000E000C209CF09E409D70905A84CCDB2D44EB94D
:1000F0003836A9020C50B9918688083CA6AAAA2ACB
:10010000BE000000803FE09088888890E0000000FA
:100110000000003E5B4F5B3E3E6B4F6B3E1C3E7CE7
:100120003E1C183C7E3C181C577D571C1C5E7F5E95
:100130001C00183C1800FFE7C3E7FF001824180054
:10014000FFE7DBE7FF30483A060E262979292640EB
:100150007F050507407F05253F5A3CE73C5A7F3E17
:100160001C1C08081C1C3E7F14227F22145F5F00A9
:100170005F5F06097F017F006689956A6060606045
:100180006094A2FFA29408047E040810207E201030
:1001900008082A1C08081C2A08081E101010100C39
:1001A0001E0C1E0C30383E3830060E3E0E06000087
:1001B00000000000005F00000007000700147F142B
:1001C0007F14242A7F2A122313086462364956209A
:1001D000500008070300001C2241000041221C00BF
:1001E0002A1C7F1C2A08083E08080080703000087E
:1001F00008080808000060600020100804023E5152
:1002000049453E00427F40007249494946214149E3
:100210004D331814127F1027454545393C4A49494A
:100220003141211109073649494936464949291EB4
:1002300000001400000040340000000814224114A3
:1002400014141414004122140802015909063E41F5
:100250005D594E7C1211127C7F494949363E41411D
:1002600041227F4141413E7F494949417F09090976
:10027000013E414151737F0808087F00417F4100E2
:100280002040413F017F081422417F404040407F91
:10029000021C027F7F0408107F3E4141413E7F09DE
:1002A0000909063E4151215E7F091929462649491F
:1002B000493203017F01033F4040403F1F2040205F
:1002C0001F3F4038403F631408146303047804035D
:1002D0006159494D43007F4141410204081020000B
:1002E0004141417F0402010204404040404000037C
:1002F00007080020545478407F2844443838444448
:100300004428384444287F385454541800087E093F
:100310000218A4A49C787F0804047800447D40005F
:100320002040403D007F1028440000417F40007C79
:10033000047804787C080404783844444438FC1871
:1003400024241818242418FC7C0804040848545455
:10035000542404043F44243C4040207C1C20402082
:100360001C3C4030403C44281028444C9090907CE9
:100370004464544C440008364100000077000000FB
:100380004136080002010204023C2623263C1EA13D
:10039000A161123A4040207A38545455592155559C
:1003A000794121545478412155547840205455794D
:1003B000400C1E52721239555555593954545459DE
:1003C00039555454580000457C410002457D420097
:1003D00001457C40F0292429F0F0282528F07C54A0
:1003E0005545002054547C547C0A097F49324949C0
:1003F00049323248484832324A4848303A4141212D
:100400007A3A42402078009DA0A07D394444443986
:100410003D4040403D3C24FF2424487E4943662B18
:100420002FFC2F2BFF0929F620C0887E09032054BA
:100430005479410000447D413048484A32384040B8
:10044000227A007A0A0A727D0D19317D2629292F18
:1004500028262929292630484D4020380808080830
:1004600008080808382F10C8ACBA2F102834FA0032
:10047000007B000008142A142222142A1408950074
:10048000220095AA005500AAAA55AA55AA00000064
:10049000FF00101010FF00141414FF001010FF00D4
:1004A000FF1010F010F0141414FC001414F700FFE7
:1004B0000000FF00FF1414F404FC141417101F10A4
:1004C000101F101F1414141F00101010F000000053
:1004D000001F101010101F10101010F0100000005E
:1004E000FF101010101010101010FF10000000FF6F
:1004F000140000FF00FF00001F10170000FC04F4B0
:1005000014141710171414F404F40000FF00F71467
:10051000141414141414F700F714141417141010EE
:100520001F101F141414F4141010F010F000001F0A
:10053000101F0000001F14000000FC140000F01049
:10054000F01010FF10FF141414FF141010101F00EF
:10055000000000F010FFFFFFFFFFF0F0F0F0F0FFF1
:10056000FFFF0000000000FFFF0F0F0F0F0F3844C8
:100570004438447C2A2A3E147E02020606027E0289
:100580007E0263554941633844443C04407E201E4A
:100590002006027E020299A5E7A5991C2A492A1C79
:1005A0004C7201724C304A4D4D303048784830BC66
:1005B000625A463D3E494949007E0101017E2A2A90
:1005C0002A2A2A44445F444440514A444040444A11
:1005D00051400000FF0103E080FF000008086B6B42
:1005E000083612362436060F090F060000181800C8
:1005F00000001010003040FF0101001F01011E002B
:10060000191D1712003C3C3C3C0000000000060194
:100610001501260137014A015D01720188019F0120
:10062000B801D201EE010B022A024B026E029302C4
:10063000BA02E40210033F037003A403DC031704AF
:1006400055049704DD0427057505C80520067D06B9
:10065000E0064907B8072D08A9082D09B9094D0A70
:10066000EA0A900B400CFA0CC00D910E6F0F5A1055
:1006700053115B1272139A14D41520178018F519B0
:10068000801B231DDE1EB420A622B524E4263429B7
:10069000A72B402E0031EA330037453ABC3D684174
:1006A0004C456B49C84D68524F57805C0062101131
:1006B0001213151617181A1C1D1F21232527292C64
:1006C0002E3134373A3E4145494E52575C62686E8E
:1006D000757B838B939CA5AFB9C4D0DCE9F7000090
:1006E000000200090F0000030401000C00000000DC
:1006F00000000000000000000000000000080B00E7
:1007000002020201000904000001020200000524A7
:10071000001001052401010104240206052406003D
:10072000010705810310004009040100020A0000CE
:100730000007050202400000070583024000000494
:1007400003090441726475696E6F204C4C4300418B
:10075000726475696E6F204C656F6E6172646F00B4
:100760001201000200000040412336800001010216
:10077000030112010002EF02014041233680000113
:1007800001020301F0F89C8E8783878E9CF8F000AD
:1007900000FEFF0303030303070EFCF80000FEFF47
:1007A0000303030303070EFCF80000FFFF00000033
:1007B00000000000FFFF0000FEFF8383838383C7E8
:1007C000EE7C380000F8FC0E07030303070EFCF86C
:1007D00000003F7FE0C08080C0E07F3FFFFF01015D
:1007E0000101010101FFFF0000FFFF0C0C0C0C1CBC
:1007F0003E77E3C100007FFFC0C0C0C0C0E0703FD3
:100800001F00001F3F70E0C0C0C0E0703F1F00002D
:100810007FFFC1C1C1C1C1E3773E1C00001F3F7013
:10082000E0C0C0C0E0703F1F000000000001FFFFFB
:100830000100000000000000240027002A002D0015
:100840003000AED580A83FD300408D142002A1C84F
:10085000DA1281CFD9F1DB402EA4A6AF1402130225
:10086000120215020702080204010C01060100E051
:10087000F0F8F8F8F0E000040802011040804010A1
:1008800020408040800802040180402010020110B6
:1008900080102040402000000000250028002B0090
:1008A0002E003100040404040403040502020202C1
:1008B00004030202020206060606060604040202F9
:1008C000020404030100971B11241FBECFEFDAE0DE
:1008D000DEBFCDBF26E0A8E3B1E001C01D92A33189
:1008E000B207E1F711E0A0E0B1E0E4EFFDE302C000
:1008F00005900D92A833B107D9F714E0C4E6D4E00F
:1009000004C02197FE010E94CA1BC336D107C9F754
:100910000E94D1130C94F81E0C94000040914901E0
:1009200050914A01209147013091480142175307E5
:10093000B4F49091E8009570E1F39091E80092FD95
:1009400019C08093F1008091490190914A0101966C
:100950008F739927892B19F48EEF8093E80080918B
:10096000490190914A01019690934A01809349016F
:1009700081E0089580E00895CF92DF92EF92FF9298
:100980000F931F93CF93DF931F92CDB7DEB7182F2E
:10099000062FE42E862F880F8E5F99830E948E0487
:1009A00083E00E948E04F12EC12E9981D92E8C2DC8
:1009B0008F19801798F4F601E7FE02C0849101C0F8
:1009C00080810E948E04182F80E00E948E04812373
:1009D000FFEFCF1ADF0A8111EACF01C081E00F904B
:1009E000DF91CF911F910F91FF90EF90DF90CF900B
:1009F0000895DF92EF92FF920F931F93CF93DF93AF
:100A0000D82E8A017B01E40EF51EEB01CE15DF0521
:100A100071F0D7FE03C0FE01849101C088810E945D
:100A20008E0421968111F2CF8FEF9FEF01C0C80194
:100A3000DF91CF911F910F91FF90EF90DF9008957C
:100A4000615030F02091F100FC0120830196F8CF35
:100A5000289884E680938D010895CF92DF92EF92DB
:100A6000FF920F931F93CF93DF936C017A018B0159
:100A7000C0E0D0E0CE15DF0589F0D8016D918D0181
:100A8000D601ED91FC910190F081E02DC601099510
:100A9000892B11F47E0102C02196ECCFC701DF91B2
:100AA000CF911F910F91FF90EF90DF90CF9008951D
:100AB000CF93DF931F92CDB7DEB76983DC01ED9151
:100AC000FC910280F381E02D41E050E0BE016F5FB8
:100AD0007F4F09950F90DF91CF91089583E0809328
:100AE000E9008091F200882319F08AE38093E800FE
:100AF0000895FC018485958597FD0BC09FB7F894F8
:100B000082E08093E9008091F2009FBF90E001961F
:100B100008959FB7F89482E08093E9008091F200F5
:100B20009FBF90E008950F931F93CF93DF931F9281
:100B3000CDB7DEB782E0898342E450E06DEF76E026
:100B400080E80E94F9040E94BD13DC0112960D9109
:100B50001C9113970115110569F0D801ED91FC91D5
:100B60000280F381E02DBE016F5F7F4FC8010995C0
:100B700097FF07C089810F90DF91CF911F910F914F
:100B80000895F80100851185E5CF0F931F93CF934A
:100B9000DF931F92CDB7DEB78C01FC01848595856C
:100BA00097FF0EC0CE0101960E949313019719F48E
:100BB000298130E002C02FEF3FEFF801358724870D
:100BC000F801848595850F90DF91CF911F910F914A
:100BD0000895CF93DF931F92CDB7DEB7FC018485D4
:100BE000958597FD05C02FEF3FEF358724870BC014
:100BF000CE0101960E949313019719F4898190E028
:100C000002C08FEF9FEF0F90DF91CF9108951F9259
:100C10000F920FB60F9211248F939F938091E10052
:100C20009091E100937F9093E10083FF0FC01092B9
:100C3000E90091E09093EB001092EC0092E3909326
:100C4000ED0010928E0198E09093F00082FF20C09A
:100C500093E09093E9009091F200992319F09AE3C0
:100C60009093E80090914B01992339F090914B01BA
:100C7000915090934B01992389F190918D01992383
:100C800039F090918D01915090938D01992341F10C
:100C900084FF10C08091E2008E7E81608093E2002C
:100CA0008091E1008F7E8093E10080914D018E7EE6
:100CB000806111C080FF16C08091E2008E7E80614D
:100CC0008093E2008091E1008E7E8093E10080912C
:100CD0004D018E7E816080934D0104C05D9ACDCF21
:100CE000289AD6CF9F918F910F900FBE0F901F9093
:100CF00018951F920F920FB60F921124CF92DF9288
:100D0000EF92FF920F931F932F933F934F935F9315
:100D10006F937F938F939F93AF93BF93EF93FF93C3
:100D2000CF93DF93CDB7DEB76C97DEBFCDBF109208
:100D3000E9008091E80083FFFAC168E0CE014596A2
:100D40000E94200582EF8093E8008D8987FF05C00F
:100D50009091E80090FFFCCF03C09EEF9093E800D5
:100D6000982F907609F0C6C09E892F89188D911111
:100D70000CC0803829F480914E018093F10002C0AC
:100D80001092F1001092F10047C1422F50E0512B18
:100D9000913051F4811140C14130510509F03CC1FD
:100DA00080914E018D7F0BC0933061F4811134C16D
:100DB0004130510509F030C180914E01826080932D
:100DC0004E012AC1953041F48091E80080FFFCCFAC
:100DD00020682093E30020C1963009F05FC0EB8CBF
:100DE000FC8C1092E90010924A01109249011230D5
:100DF00091F510924801109247010E94930599E0E5
:100E0000BE016F5F7F4FDB01E92F1D92EA95E9F785
:100E100099831A8391E09E8390EA98879AEF998745
:100E20002091490130914A01275F3F4F3C832B833A
:100E30008D831092E90010924A0110924901F092BC
:100E40004801E092470149E050E080E00E94F90447
:100E50000E949305E1C0F0924801E09247010E9490
:100E6000BD13DC011296ED90FC901397E114F10490
:100E700009F4C0C0D701ED91FC910480F581E02D0B
:100E8000BE016B5E7F4FC7010995009719F00CF00A
:100E9000C3C0C6C0F701E084F184E8CF973009F4FD
:100EA000BFC0983021F481E08093F100B5C0993043
:100EB00009F0B2C0837009F0B3C0E1E1F1E081E074
:100EC00021E036E39081992361F08093E90020933B
:100ED000EB0091919093EC003093ED008F5F8730A1
:100EE00089F78EE78093EA001092EA008F89809359
:100EF0008E0192C08B8D9C8D1092E90010924A0158
:100F0000109249019093480180934701898D811186
:100F100056C08E899D89913A59F4813209F080C07A
:100F200047E050E064E071E080E00E94F90474C0A2
:100F3000913209F075C0833289F4888D90E0982F42
:100F400088272F89822BA0E0B0E080930001909346
:100F50000101A0930201B09303015EC0803269F4E5
:100F60008091E80082FFFCCF67E084E091E00E947E
:100F700020058BEF8093E80006C0823209F04CC058
:100F80008F8980930B0180914C01882319F0EEEF3B
:100F9000FAE002C0E0E0F8E08091040190910501E0
:100FA000A0910601B0910701803B9440A105B105D5
:100FB00009F088C080910B0180FFA0C083C00E940F
:100FC000BD13DC0112960D911C91139701151105AB
:100FD00039F1D801ED91FC910190F081E02DBE0135
:100FE0006B5E7F4FC8010995811116C0F80100851D
:100FF0001185ECCF1130C1F0133091F48F89882323
:1010000009F455C08230E9F440E860E18FE497E0EC
:101010000E94BC04882321F08EEF8093E80087C0F3
:1010200081E28093EB0083C08B8D9C8D089711F437
:101030001093460180914601811136C060E677E049
:1010400038C0813029F440E86BE083E497E0E0CFDA
:10105000833031F70E94BD13DC011296ED90FC90B5
:1010600013978E010F5F1F4F6801E114F10479F0AF
:10107000D701ED91FC910680F781E02DB801C70101
:101080000995080F111DF701E084F184EECFD80116
:101090001C92F60101900020E9F73197BF016C190D
:1010A0007D0940E0C601B4CF62E777E002C06FE39C
:1010B00077E06115710509F4B3CFFB01449150E06D
:1010C00080E833CF0FB6F894A895809160008861CE
:1010D00080936000109260000FBEA895EE3F2AE05A
:1010E000F20739F08091FE0A9091FF0A9183808384
:1010F00093CF1092FF0A1092FE0A8ECFEE3F8AE045
:10110000F80731F0808191819093FF0A8093FE0A65
:1011100087E797E7918380839BE088E10FB6F89497
:10112000A895809360000FBE9093600075CF6C9679
:101130000FB6F894DEBF0FBECDBFDF91CF91FF9108
:10114000EF91BF91AF919F918F917F916F915F913F
:101150004F913F912F911F910F91FF90EF90DF9052
:10116000CF900F900FBE0F901F901895362F90E0E4
:10117000FC01E252F94F4491FC01E958F74F2491E8
:10118000FC01EC55F74F8491882309F451C04423A6
:10119000E1F150E0FA013197EF30F105B0F5EA5A8C
:1011A000FF4F0C94CA1B909180009F7707C09091CD
:1011B00080009F7D03C090918000977F9093800076
:1011C00024C094B59F7702C094B59F7D94BD1DC087
:1011D000909190009F7707C0909190009F7D03C0F1
:1011E00090919000977F909390000FC09091C000D5
:1011F0009F7703C09091C0009F7D9093C00005C071
:101200009091C200977F9093C200E82FF0E0EE0F1C
:10121000FF1FEA56F74FA591B4918FB7F894EC9160
:10122000311103C020952E2301C02E2B2C938FBF8C
:101230000895CF93DF9390E0FC01E958F74F249194
:10124000FC01EC55F74F8491882361F190E0880F01
:10125000991FFC01EC5CF74FC591D491FC01EA5653
:10126000F74FA591B491611109C09FB7F894888197
:10127000209582238883EC912E230BC0623061F489
:101280009FB7F8943881822F809583238883EC91CF
:101290002E2B2C939FBF06C08FB7F894E8812E2B7E
:1012A00028838FBFDF91CF9108951F93CF93DF9352
:1012B000182FEB0161E00E941909209711F460E0FA
:1012C00004C0CF3FD10539F461E0812FDF91CF9188
:1012D0001F910C94B608E12FF0E0E252F94FE4912F
:1012E0004E2F50E0FA013197EF30F10508F06CC055
:1012F000EB59FF4F0C94CA1B84B5806884BDC7BDF1
:1013000068C084B5806284BDC8BD63C08091800020
:10131000806880938000D0938900C093880059C072
:1013200080918000806280938000D0938B00C09376
:101330008A004FC080918000886080938000D093A5
:101340008D00C0938C0045C0809190008068809390
:101350009000D0939900C09398003BC0809190007A
:10136000806280939000D0939B00C0939A0031C01C
:1013700080919000886080939000D0939D00C093EE
:101380009C0027C08091C00080688093C00080913D
:10139000C0008F7B8093C000C093CF001AC08091A3
:1013A000C00080628093C000C093D00012C08091C2
:1013B000C20088608093C2008091C2008B7F8093BE
:1013C000C200C093D20005C0C038D1050CF07CCF5C
:1013D00076CFDF91CF911F9108953FB7F894809118
:1013E000420190914301A0914401B091450126B57D
:1013F000A89B05C02F3F19F00196A11DB11D3FBF4D
:10140000BA2FA92F982F8827820F911DA11DB11DDA
:10141000BC01CD0142E0660F771F881F991F4A95D6
:10142000D1F708958F929F92AF92BF92CF92DF92A1
:10143000EF92FF926B017C010E94ED094B015C0170
:10144000C114D104E104F104F1F00E94ED09DC01C2
:10145000CB0188199909AA09BB09883E9340A105C7
:10146000B10570F321E0C21AD108E108F10888EE55
:10147000880E83E0981EA11CB11CC114D104E104A4
:10148000F10419F7DDCFFF90EF90DF90CF90BF9080
:10149000AF909F908F9008958F929F92AF92BF923E
:1014A000CF92DF92EF92FF920F931F93CF93DF9330
:1014B0005C016B018A0180910B01882309F45EC0F5
:1014C00080918E01882309F459C080914D0180FFDD
:1014D00005C08091E00082608093E000E8018AEF1F
:1014E000F82E93E0E92E2FE3822E3AE3932E2097F5
:1014F00009F43DC08FB7F894E092E9009091E800BC
:1015000095FF06C09091F200282D291B922F01C053
:1015100090E08FBF91110AC0FA94FF2079F161E049
:1015200070E080E090E00E94120AE1CF292F30E0C5
:10153000C217D3070CF49C2F8FB7F894E092E90000
:101540002091E80025FF11C0292F30E0C21BD30BEA
:10155000F601915020F041914093F100FACFC20E74
:10156000D31E9091E80095FF13C08FBFC0CF5D9848
:1015700084E680934B011016110644F081E090E060
:10158000F5019383828380E090E005C0C80103C029
:101590009092E800EACFDF91CF911F910F91FF90D9
:1015A000EF90DF90CF90BF90AF909F908F90089575
:1015B0001F920F920FB60F9211242F933F938F9388
:1015C0009F93AF93BF938091560190915701A09143
:1015D0005801B09159013091410123E0230F2D377B
:1015E00020F40196A11DB11D05C026E8230F029627
:1015F000A11DB11D20934101809356019093570185
:10160000A0935801B09359018091420190914301F8
:10161000A0914401B09145010196A11DB11D809397
:10162000420190934301A0934401B0934501BF91BF
:10163000AF919F918F913F912F910F900FBE0F907F
:101640001F9018958FB12CB193B130E02095309553
:1016500020743327A90123E0559547952A95E1F792
:10166000292F30E020953095207133273595279527
:1016700035952795242B8095807F822B0895E091C6
:101680005401F0915501908180915301892B808301
:10169000E0915101F091520190818091500180952B
:1016A00089238083E0915401F091550190818091CC
:1016B00053018095892380830895E0915101F09131
:1016C0005201908180915001892B8083E0915401D7
:1016D000F0915501908180915301809589238083F9
:1016E00008958EBD00000DB407FEFDCF8EB50895A0
:1016F000CF92DF92EF92FF920F931F93CF936C01E3
:1017000000E810E0C0E0E12CF12C0E943F0B80E1EA
:101710000E94710B82E00E94710B8C2F806B0E94E3
:10172000710B0E945D0BF601EE0DFF1D80818EBDD9
:1017300097012F5F3F4F7901201731074CF4F601D5
:10174000E20FF31F80810DB407FEFDCF8EBDF1CFF8
:101750000DB407FEFDCFCF5F00581F4FC830A9F66C
:10176000CF911F910F91FF90EF90DF90CF90089550
:10177000CF92DF92EF92FF920F931F93CF93E82FB8
:10178000F0E0ED53F74FC491E62FF0E0603330F412
:10179000E255F94FE4910E2F10E006C0EE0FFF1F47
:1017A000E255FA4F059114916801E12CF12C60E0AB
:1017B00074E284EF90E0A70196010E94951EBA01A1
:1017C000A90141505109610971094115510581E093
:1017D0006807710580F060E970ED83E090E0A70193
:1017E00096010E94951EBA01A90141505109610953
:1017F000710983E001C081E0C130C9F0C33031F527
:1018000090919100987F892B80939100509399003B
:10181000409398001093400100933F0181E0809332
:101820003E01809171008260809371000FC09091A1
:101830008100987F892B8093810050938900409389
:10184000880080916F00826080936F00CF911F911C
:101850000F91FF90EF90DF90CF9008951F920F921D
:101860000FB60F9211242F933F938F939F93AF93B3
:10187000BF93EF93FF9380919A01882309F44DC0A1
:101880008091960190919701A0919801B091990152
:10189000892B8A2B8B2B51F180919201E09193013E
:1018A000F091940190818927808380919601909195
:1018B0009701A0919801B0919901181619061A067E
:1018C0001B06A4F58091960190919701A091980133
:1018D000B09199010197A109B10980939601909364
:1018E0009701A0939801B093990120C010929A019A
:1018F00080916F008D7F80936F0090919201E091B5
:101900009301F09194018081282F30E0892F90E09D
:10191000809590958223932308C080919201E09155
:101920009301F0919401908189278083FF91EF9139
:10193000BF91AF919F918F913F912F910F900FBECB
:101940000F901F901895E82FF0E0ED53F74FE491BA
:10195000E13019F0E33069F0089580916F008D7FD8
:1019600080936F0090919201E0919301F091940126
:1019700008C010923E0190918F01E0919001F0918A
:1019800091018081282F30E0892F90E080959095FB
:1019900082239323808308951F920F920FB60F9294
:1019A00011242F933F934F935F936F937F938F9364
:1019B0009F93AF93BF93EF93FF9380913E01882352
:1019C00049F080918F01E0919001F0919101908117
:1019D0008927808380914F01882309F493C08091E7
:1019E0003A0190913B01A0913C01B0913D01892BBE
:1019F0008A2B8B2B09F486C080913A0190913B0190
:101A0000A0913C01B0913D010197A109B1098093DA
:101A10003A0190933B01A0933C01B0933D01892B87
:101A20008A2B8B2B09F06EC0E0913801F0913901BF
:101A3000BF016F5F7F4F709339016093380144910C
:101A4000942F907F842F8F70903819F40E94A30CEC
:101A5000EBCF903981F43296F0933901E09338015D
:101A6000FB016491909195018917F0F667FDDCCF39
:101A70000E94B80BD9CF903E29F4109239011092F0
:101A80003801D2CF903F19F410924F013BC097FD1F
:101A9000CBCF3296F0933901E0933801FB012491CA
:101AA00030E0342BA0913F01B09140010E94E91E2B
:101AB0006C507E4F8F4F9F4F28EE33E040E050E058
:101AC0000E94C71E20933A0130933B0140933C0192
:101AD00050933D0180913A0190913B01A0913C01CE
:101AE000B0913D01892B8A2B8B2B61F481E090E032
:101AF000A0E0B0E080933A0190933B01A0933C01B9
:101B0000B0933D01FF91EF91BF91AF919F918F9164
:101B10007F916F915F914F913F912F910F900FBEE9
:101B20000F901F9018956038710518F540345105D5
:101B300000F5A42FA695A695A695B0E04770552769
:101B4000B695BA2FAA27B795A7956A0F7B1FFC01F8
:101B5000E60FF71F81E090E001C0880F4A95EAF791
:101B6000222319F09489892B03C0809594898923B5
:101B7000848B08952F923F924F925F926F927F9243
:101B80008F929F92AF92BF92CF92DF92EF92FF928D
:101B90000F931F93CF93DF93CDB7DEB72A970FB67E
:101BA000F894DEBF0FBECDBF6A3091F4FC01E85E51
:101BB000FB4F408132972081318158E0459F200DB5
:101BC000311D112431832083329711821082C1C0CC
:101BD0006D3009F4BEC09A878987885E9B4F9C83CD
:101BE0008B83DC012C90E985FA85EA5EFB4F6080EF
:101BF0007180E985FA85EC5EFB4FFA83E983008109
:101C0000118100381105D4F0AB81BC812C91422F99
:101C100050E0E981FA8180819181F6E02F9F800D6B
:101C2000911D1124A981BA818D939C93E985FA8530
:101C3000E75EFB4F208121115EC08BC0B0E46B16C4
:101C4000710414F7C801E5E02E9E800D911D11244A
:101C500018161906CCF6422C512CC301F8E02F9E21
:101C6000800D911D11241816190674F655E0659F14
:101C7000900111243F832E83E12CF12C85E0E8169E
:101C8000F10441F0EE81FF81EE0DFF1DE25FFE4F9A
:101C9000349001C0312C630138E0932D91709D8305
:101CA0004801882D801B8215B0F456018A2D8C19AD
:101CB000821568F42D81A501B40189859A8538873C
:101CC0000E94930DAFEFAA1ABA0A3885EFCFBFEF83
:101CD0008B1A9B0AE6CF36943150C40CD51C3111B7
:101CE000DCCFEFEFEE1AFE0A040D151DF6E0EF163D
:101CF000F10421F689CF6AEF64039001659F300DEE
:101D0000112420583F4F281739071CF5A985BA859B
:101D1000ED91FC9111970190F081E02D6AE0CD01E9
:101D20002A960FB6F894DEBF0FBECDBFDF91CF91DC
:101D30001F910F91FF90EF90DF90CF90BF90AF90E9
:101D40009F908F907F906F905F904F903F902F90DB
:101D500009942A960FB6F894DEBF0FBECDBFDF916F
:101D6000CF911F910F91FF90EF90DF90CF90BF9098
:101D7000AF909F908F907F906F905F904F903F902B
:101D80002F900895AF92BF92CF92DF92EF92FF9281
:101D90000F931F93CF93DF93CDB7DEB72E970FB678
:101DA000F894DEBF0FBECDBFC982DA82EB82FC821F
:101DB000AB80BC8087E0A81AB108C980DA8083E0D4
:101DC000C81AD108E12C08E028E04FE658E0B50138
:101DD000C6010E94F510EE24E39428E046E051E0AD
:101DE000B501C6010E94F5102E960FB6F894DEBF1D
:101DF0000FBECDBFDF91CF911F910F91FF90EF905C
:101E0000DF90CF90BF90AF900895AF92BF92CF92E6
:101E1000DF92EF92FF920F931F93CF93DF93FC011A
:101E200080819DEFE92EE80E20E030E0C1E0D0E0B7
:101E3000622F66956695669540E8649FB00111240F
:101E4000822F8770082F5E0102C0AA0CBB1C8A95E6
:101E5000E2F7F12C80E090E065517E4F4E2D4F0D62
:101E60006B01C40ED11CD60154964C9150E04A210E
:101E70005B21002E02C0559547950A94E2F7413048
:101E8000510549F40196833091052CF02150310918
:101E9000338322830DC0F394B7E0FB12DFCF2F5FB3
:101EA0003F4F2034310521F68FE390E09383828306
:101EB000DF91CF911F910F91FF90EF90DF90CF9026
:101EC000BF90AF9008954F925F926F927F928F92E2
:101ED0009F92AF92BF92CF92DF92EF92FF920F93B9
:101EE0001F93CF93DF930E94E6100E947F1E2AE18A
:101EF00030E040E050E00E94951EDC01CB010696E8
:101F0000A11DB11DEC0100E010E023E0822E912C18
:101F1000A12CB12C30E4E32EF12C0E947F1E2E0167
:101F2000DD0F66087708A50194010E94951EDC016B
:101F3000CB010197A109B109840D951DA61DB71DFF
:101F400086309105A105B10544F0EC018197A1050A
:101F5000B10529F4C0E2D0E002C0C6E0D0E021E043
:101F600040E4B7016C1B7D0BC8010E945F120F5F3C
:101F70001F4F0038110589F610925D0110925C0127
:101F8000C3E0D0E0D0935F01C0935E018BED482E9B
:101F90008FE0582E89EC682E8FE3782E40926001F6
:101FA000509261016092620170926301812C912CC8
:101FB000A12C9FE3B92E8092640190926501A092BA
:101FC0006601B092670189E190E090935B01809394
:101FD0005A018AE591E00E94050FC0905A01D09005
:101FE0005B01E0905C01F0905D0100915E01109159
:101FF0005F01209160013091610140916201509137
:102000006301609164017091650180916601909116
:1020100067010E94C20E10926B0110926A01D09368
:102020006D01C0936C0140926E0150926F016092FD
:102030007001709271018092720190927301A0926E
:102040007401B092750186E690E0909369018093E7
:10205000680188E691E00E94050FC0906801D09069
:102060006901E0906A01F0906B0100916C011091A0
:102070006D0120916E0130916F014091700150917E
:10208000710160917201709173018091740190915E
:1020900075010E94C20E10927901109278010E947F
:1020A0007F1E22E030E040E050E00E94951E7093D9
:1020B000770160937601DF91CF911F910F91FF908F
:1020C000EF90DF90CF90BF90AF909F908F907F90D8
:1020D0006F905F904F9008954F925F926F927F92B2
:1020E0008F929F92AF92BF92CF92DF92EF92FF9228
:1020F000CF93DF93EC014A015B0181E080939A0169
:102100002E01612C712C60E072E18AE790E0A3015E
:1021100092010E94951E69017A0181E0C81AD108D6
:10212000E108F108C114D10481E0E806F10488F067
:1021300068E478EE81E090E0A30192010E94951E90
:1021400069017A0181E0C81AD108E108F10883E049
:1021500001C081E090918100987F982B909381003D
:1021600081149104A104B10471F0DE01AA0FBB1F18
:10217000A50194010E94B41E28EE33E040E050E037
:102180000E94C71E03C02FEF3FEFA901D092890024
:10219000C092880020939601309397014093980154
:1021A0005093990180916F00826080936F00DF915E
:1021B000CF91FF90EF90DF90CF90BF90AF909F9026
:1021C0008F907F906F905F904F90089520E08FEFF9
:1021D00091E0B22FB111BFEFFC010024B193B19394
:1021E000B193B1930394D1F708952F923F924F92F8
:1021F0005F926F927F928F929F92AF92BF92CF9297
:10220000DF92EF92FF920F931F93CF93DF93CDB79F
:10221000DEB728970FB6F894DEBF0FBECDBF222ED3
:10222000312C9C01220D331D37FD30C180389105C2
:102230000CF02CC19B01200F311D37FD27C16034EC
:1022400071050CF023C1DB0177FF04C0AA27BB276F
:10225000A61BB70BA770BB279B0177FF02C0295FA6
:102260003F4F13E0359527951A95E1F777FF08C0A2
:102270002150310968E070E05B01AA1ABB0AD50160
:10228000E02FE695E695E695CE2ED12C077019F055
:102290000FEFC01AD00AB9017695762F6627779589
:1022A0006795680F791F5601A20EB31EBC82AB82E0
:1022B000412C512CF8E0CF2ED12C86010A1B1B0B90
:1022C0001A830983AB80BC802A153B0509F4DEC064
:1022D0002830310509F4DAC02F3F1FEF31070CF425
:1022E000CAC03B01E0E86E0E711C8B0101581D4F06
:1022F0001E830D834C0100E010E0021513050CF065
:10230000BAC0E0E88E16910409F4B5C097FCA8C0E5
:102310002F3FFFEF3F0709F4B5C0F801E40DF51DAD
:10232000CD80DE80C618D708AA24A394E40FF51F39
:10233000EA1013C0E491C60ED71EF0E05F010A2E2A
:1023400002C0AA0CBB1C0A94E2F7B886AF82F60161
:10235000B080EF81F885EB292BC0E11017C0E49124
:10236000C60ED71EF0E00A2E02C0EE0FFF1F0A9421
:10237000E2F75F01A094B094B886AF82F601A08026
:10238000B12CEF81F885AE22BF2213C0E491C60EB6
:10239000D71EF0E05F010A2E02C0AA0CBB1C0A94F3
:1023A000E2F7B886AF82F601B080EF81F885EB25C1
:1023B0005F01F601A082109709F452C02730310561
:1023C00009F44EC0F801E40DF51DAA24A394EA1007
:1023D00011C0E40FF51FE491CE2ED12C56010980D7
:1023E00002C0B594A7940A94E2F7ED81FE81D080F3
:1023F000AD2835C0CD80DE80C618D708E40FF51FA4
:10240000E11018C0E491C60CD71CAE2EB12C098087
:1024100002C0B594A7940A94E2F7F501E095F0950F
:10242000F887EF83F601A080B12CEF81F885AE220A
:10243000BF2214C0E491C60CD71CAE2EB12CF501FE
:10244000098002C0F595E7950A94E2F7F887EF83D3
:10245000F601B080EF81F885EB255F01F601A082DF
:102460000F5F1F4FED81FE813196FE83ED83FFEFFD
:102470008F1A9F0A42CF2F5F3F4F420C531C605868
:102480007F4F20CF109709F09DCFEACF28960FB647
:10249000F894DEBF0FBECDBFDF91CF911F910F919A
:1024A000FF90EF90DF90CF90BF90AF909F908F9074
:1024B0007F906F905F904F903F902F900895DF92A4
:1024C000EF92FF920F931F93CF93DF937C01D22E55
:1024D0008B01040F111DEB0177FF0EC0C0E0D0E0AF
:1024E0000BC0C417D5077CF42D2DAE01B7018BEEC0
:1024F00091E00E94930D2196A801013411058CF3FF
:1025000040E450E0EECFDF91CF911F910F91FF900B
:10251000EF90DF900895CF93DF93909195019230E3
:1025200009F46EC0C82F292F30E0F901ED53F74FA1
:10253000D491F901EF5EF94F80839F5F90939501ED
:1025400061E00E941909D13019F0D33039F158C037
:1025500010928000109281008091810088608093A9
:102560008100809181008160809381008C2F90E0B8
:10257000FC01EC55F74FE491F0E0EE0FFF1FEA5637
:10258000F74F259134913093940120939301FC01EE
:10259000E958F74F84918093920132C010929000D5
:1025A00010929100809191008860809391008091B9
:1025B00091008160809391008C2F90E0FC01EC559C
:1025C000F74FE491F0E0EE0FFF1FEA56F74F259129
:1025D00034913093910120939001FC01E958F74F19
:1025E000849180938F0180919501882321F06CE381
:1025F00080E00E94B80B80E0DF91CF910C94A30C97
:10260000DF91CF9108952F923F924F925F926F92F8
:102610007F928F929F92AF92BF92CF92DF92EF9272
:10262000FF920F931F93CF93DF9300D000D0CDB7CD
:10263000DEB77C014B01498365507109242F4BE0C3
:102640000E945F12CC24C394D12C00E010E085E0FE
:1026500090E09C838B8396EF292E33243A942CEFC1
:10266000A22EBB24BA940F5F1F4F82E0C80ED11C6C
:10267000AC0CBD1C3B81330F3F5F2981432F2401EC
:10268000EB81FC814E1A5F0AB201C701800F911FD6
:102690003A830E945F123401601A710A29814C2D1D
:1026A000B3018B819C818E0D9F1D0E945F12298139
:1026B0003A81432FB201C701801B910B0E945F1228
:1026C00029814C2DB301C701EB81FC818E1B9F0B2F
:1026D0000E945F128B819C81081719076CF4B7FC6C
:1026E000C2CFEB81FC813197FC83EB83F2E02F0EAC
:1026F000311CA20CB31CB7CF0F900F900F900F900E
:10270000DF91CF911F910F91FF90EF90DF90CF90CD
:10271000BF90AF909F908F907F906F905F904F9001
:102720003F902F900895FC0180918E01811103C08C
:102730008FEF9FEF08959FB7F89482E08093E900B0
:102740002091F20030E01216130614F421E030E07C
:102750002115310559F0289884E680938D018091E8
:10276000F10080838091F200882319F09FBFC90196
:1027700008958BE68093E800F9CF809109068111D6
:102780000DC082E08093050684E0809306061092D7
:1027900008061092070681E08093090685E096E01E
:1027A0000895CF93DF9300D000D0CDB7DEB77894F3
:1027B00084B5826084BD84B5816084BD85B5826046
:1027C00085BD85B5816085BD80916E0081608093F7
:1027D0006E00109281008091810082608093810060
:1027E0008091810081608093810080918000816070
:1027F000809380008091910082608093910080910D
:10280000910081608093910080919000816080931D
:1028100090008091C10084608093C1008091C100CC
:1028200082608093C1008091C10081608093C1006B
:102830008091C30081608093C3008091C00082605A
:102840008093C0008091C20081608093C20080911B
:102850007A00846080937A0080917A00826080930D
:102860007A0080917A00816080937A0080917A006A
:10287000806880937A0010928E0110924E0110921F
:102880004D018091D70081608093D70080EA8093CA
:10289000D80089B5806189BD89B5826089BD09B4D8
:1028A00000FEFDCF61E070E080E090E00E94120A3F
:1028B0008091D8008F7C80618093D8008091E00067
:1028C000807F8093E0008091E1008E7E8093E10024
:1028D0008DE08093E200559A209AEEEFFFE7859114
:1028E00094918B3F9C4D19F481E080934C011FB76C
:1028F000F89480917B01811127C0E5EBF8E0849189
:10290000E8E8F8E09491E82FF0E0EE0FFF1FEC5CB0
:10291000F74FA591B491EC91E92321F461E081E1B5
:102920000E94B60861E081E10E9419098CB58061BE
:102930008CBD8CB580648CBD61E08FE00E9419096C
:1029400061E080E10E94190980917B018F5F809393
:102950007B011FBF0CE518E0F80184910E5F1F4F4B
:1029600031966491882319F00E941909F5CF61E02E
:1029700086E00E94B60861E070E080E090E00E948E
:10298000120A60E086E00E94B6086AE070E080E02B
:1029900090E00E94120A61E086E00E94B608E0EB37
:1029A000F8E0E491F0E0EE0FFF1FEA56F74F859153
:1029B00094919093550180935401E3E8F8E0E491F9
:1029C000E0935301E8EAF8E0E491F0E0EE0FFF1F36
:1029D000EA56F74F8591949190935201809351015B
:1029E000EBE7F8E0E491E09350018CB58C7F8CBD6F
:1029F0008DB581608DBD0E943F0B02E418E0F8E0C8
:102A00000C351F0739F0F80184910E94710B0F5F9C
:102A10001F4FF5CF0E945D0B809164008160809311
:102A200064008091640082608093640080916400FF
:102A30008068809364008091640080648093640067
:102A4000809165008160809365000E94220B87FF62
:102A500022C00E943F0B80E10E94710B82E00E9425
:102A6000710B0E945D0B00E014E080E00E94710B8E
:102A700001501109D1F760E070E089E00E9455092A
:102A800060E070E08AE00E94550960E070E08BE051
:102A90000E945509FFCFAEEEAA2EBB24BA9418E1CE
:102AA000CC24CA94D12C812F8A19B601681B7109D4
:102AB00089E00E9455096FEF70E08AE00E94550995
:102AC0006FEF70E08BE00E9455090E94E610EE2443
:102AD000E39400E128E544E857E0B50184E190E0A3
:102AE0000E94F5108FEF91E00E94780B6BE170E08F
:102AF00080E090E00E94120A20EFA21206C06AEF66
:102B000070E080E090E00E94120A3FEFA31AB30A3F
:102B100089E1A816B10439F66EEE72E080E090E02B
:102B20000E94120A6FEF70E089E00E9455096FEF72
:102B300070E08AE00E9455096FEF70E08BE00E9420
:102B4000550985E00E948B1283E00E948B1210923F
:102B50004F0182E090E00E948D1E882369F08091F1
:102B60006400877F8093640080916500877F8093F5
:102B7000650081E080937A018CE38093F10180E12C
:102B80008093F401809164008E7F8093640087ECD1
:102B900080937C0080E280937B0062E070E080E0C4
:102BA00090E00E94120A80917A00806480937A00FB
:102BB00080917A0086FDFCCFE0907800F09079005B
:102BC000E094F0948EE580937C0062E070E080E019
:102BD00090E00E94120A80917A00806480937A00CB
:102BE00080917A0086FDFCCF0091780010917900E9
:102BF0000E94ED099B01AC012095309540955095C0
:102C0000009510950E9DD0010F9DB00D1E9DB00D2D
:102C100011240E94B41E6B017C010E94ED096C0D11
:102C20007D1D8E1D9F1D611571058105910511F09A
:102C30000E94841E809164008160809364008FEF05
:102C40009FEF9093A8018093A701E0E86E2E712C6E
:102C5000F5E08F2E912CA12CB12C0CE110E00E94FC
:102C60007F1E6301770CEE08FF08A50194010E9406
:102C7000951EDC01CB010197A109B109C81AD90A37
:102C8000EA0AFB0A36010E94E610D0920006C092C2
:102C9000FF05109302060093010647E050E06FE243
:102CA00071E08BEE91E00E942D058FEF91E00E9484
:102CB000780B64E170E080E090E00E94120A9FE2ED
:102CC000C916D10464F664E670E080E090E00E94EA
:102CD000120A40EA50E060E070E08BED93E00E9461
:102CE0006C1060E570E080E090E00E94120A40E91C
:102CF00051E060E070E086E295E00E946C1068EEC2
:102D000073E080E090E00E94120A0E94630F2FB7E8
:102D1000F8948091560190915701A0915801B0917B
:102D200059012FBF2091FD01222391F02091F5013F
:102D3000E82FE21BE093FE012091F2013091F301B4
:102D40002F5F3F4F3093F3012093F2011092FD016A
:102D50004091F9015091FA016091FB017091FC01E1
:102D600084179507A607B7077CF4481B423008F480
:102D7000D3C483B7817F83BF83B7816083BF8895C6
:102D800083B78E7F83BFC8C42091F401AC01BD011D
:102D9000420F511D611D711D4093F9015093FA01BD
:102DA0006093FB017093FC018093F5019093F60111
:102DB000A093F701B093F80181E08093FD01809129
:102DC000780190917901892B09F0D2C200917601A6
:102DD00010917701FEE0F09FC001F19F900D11244A
:102DE0009C01265A3E4F1901F90186809780A084E4
:102DF000B184C501B4010E94421C20E030E040EAE9
:102E000050E40E94731D6B017C0120E030E0A901B9
:102E10000E946E1D20E030E040E05FE387FD05C0CA
:102E2000C701B6010E94D11B04C0C701B6010E94B0
:102E3000D01B0E94471C7B01C501B4010E94E01D0C
:102E400020E030E040EA50E40E94731D4B015C0139
:102E500020E030E0A9010E946E1D20E030E040E05B
:102E60005FE387FD05C0C501B4010E94D11B04C00A
:102E7000C501B4010E94D01B0E94471CFEE0F09FD8
:102E80009001F19F300D1124C901865A9E4F9C83F9
:102E90008B83FC0142815381461B570B41505109E2
:102EA000608171816E0D7F1D20E08BEE91E00E94AC
:102EB000930D0E94220BF1E0F98382FD02C019827A
:102EC000BDC080917C018111B9C021E030E0309318
:102ED000790120937801EB81FC81C680D780E08462
:102EE000F184C701B6010E94421C4B015C01EB81D9
:102EF000FC8160817181072E000C880B990B0E9468
:102F00007F1C2B013C0120E030E040EA50E4C50189
:102F1000B4010E94731D9B01AC01C301B2010E9468
:102F2000D11B6093850170938601809387019093F4
:102F30008801C701B6010E94E01D6B017C01EB8195
:102F4000FC816281738161507109072E000C880B2E
:102F5000990B0E947F1C2B013C0120E030E040EAED
:102F600050E4C701B6010E94731D9B01AC01C3016F
:102F7000B2010E94D01B6093890170938A018093F3
:102F80008B0190938C01EB81FC8142845384648497
:102F900075842DEC3CEC4CE45FE3C301B2010E946C
:102FA000731DA50194010E94731D609381017093AC
:102FB00082018093830190938401C301B2019058F0
:102FC0002DEC3CEC4CE45FE30E94731DA7019601DD
:102FD0000E94731D60937D0170937E0180937F0139
:102FE0009093800142E350E060E070E08BE092E07B
:102FF0000E946C1001E010E020E041E050E0B801D8
:103000008BEE91E00E94930D0F5F1F4F003811056A
:1030100099F7F101C080D180E280F38004811581AD
:1030200026813781408551856285738584859585A4
:103030000E94C20E81E080937C016AC30E94220B31
:1030400083FF10C06AE0C62E67EDD62E63EAE62E37
:103050006BE3F62E7DEC872E7CEC972EA92C7CE37F
:10306000B72E10C04AE0C42E47EDD42E43E2E42E22
:103070004CE3F42E5DEC852E5CEC952E5CE4A52EE5
:103080005DE3B52E0E94220B85FF2FC0FEE0F09F6E
:103090009001F19F300D1124C901865A9E4F9C83E7
:1030A0008B83FC012681378140855185C501B401A0
:1030B0000E94D11B2B013C012BED3FE049E450E481
:1030C0000E946E1D18163CF0EB81FC8146825782EF
:1030D000608671860AC08BED9FE0A9E4B0E4EB81C5
:1030E000FC8186839783A087B1870E94220B86FF8D
:1030F00026C0FEE0F09F9001F19F300D1124C90120
:10310000865A9E4F3C01A5019401FC01668177819E
:10311000808591850E94D01B4B015C0120E030E04E
:10312000A9010E943D1CF30187FD05C0868297829C
:10313000A086B18604C016821782108611860E946E
:10314000220B84FF26C0FEE0F09F9001F19F300D1E
:103150001124C901865A9E4F3C01A7019601FC012A
:1031600062857385848595850E94D01B4B015C0127
:1031700020E030E0A9010E943D1CF30187FD05C05D
:1031800082869386A486B58604C01286138614862A
:1031900015860E94220B87FF2CC0FEE0F09F900155
:1031A000F19F300D1124C901865A9E4F5C01FC012C
:1031B0002285338544855585C701B6010E94D11B00
:1031C0006B017C0120E030E040E85FE30E946E1D6F
:1031D000181634F0F501C286D386E486F58609C058
:1031E00080E090E0A0E8BFE3F50182879387A487A1
:1031F000B5872EE0209FF001219FF00D1124E65AA3
:10320000FE4FC680D780E084F184C701B6010E94DA
:10321000421C20E030E040EA50E40E94731D4B0164
:103220005C0120E030E0A9010E946E1D20E030E04A
:1032300040E05FE387FD05C0C501B4010E94D11BDA
:1032400004C0C501B4010E94D01B0E94471C5B0151
:10325000C701B6010E94E01D20E030E040EA50E4E2
:103260000E94731D6B017C0120E030E0A9010E94E7
:103270006E1D20E030E040E05FE387FD05C0C70140
:10328000B6010E94D11B04C0C701B6010E94D01B29
:103290000E94471C3EE0309FF001319FF00D112449
:1032A000E65AFE4F4281538141505109461B570B4C
:1032B000608171816A0D7B1D21E08BEE91E00E949F
:1032C000930DEE24E394F12C20E041E050E0B701AF
:1032D0008BEE91E00E94930D8FEFE81AF80A90E8C8
:1032E000E916F10489F72EE0209FF001219FF00DEF
:1032F0001124E65AFE4F20E030E04CEF52E46285A4
:103300007385848595850E94731D0E944E1CE62E50
:10331000F12C3FEFE31AF30A01E010E0C701E1E806
:10332000EE16F10414F080E890E0081719075CF439
:1033300021E041E050E0B8018BEE91E00E94930D56
:103340000F5F1F4FEBCFF101C080D180E280F3808F
:103350000481158126813781408551856285738579
:10336000848595850E94C20EF981F0937C01D0C1BD
:1033700084E0282E312C8091780190917901019779
:1033800009F0C6C1C0908901D0908A01E0908B01FC
:10339000F0908C0120E030E0A901C701B6010E9445
:1033A0006E1D20E030E040E05FE387FD05C0C7010F
:1033B000B6010E94D11B04C0C701B6010E94D01BF8
:1033C0000E94471C8B0140908501509086016090BF
:1033D00087017090880120E030E0A901C301B201AB
:1033E0000E946E1D20E030E040E05FE387FD05C0F5
:1033F000C301B2010E94D11B04C0C301B2010E94EB
:10340000D01B0E94471C20E0A8018BEE91E00E9497
:10341000930D20918101309182014091830150915F
:103420008401C301B2010E94D11B2B013C016093B6
:103430008501709386018093870190938801809025
:103440007D0190907E01A0907F01B0908001A50148
:103450009401C701B6010E94D11B6B017C016093EE
:10346000890170938A0180938B0190938C012AE0EB
:1034700037ED43EA5BE3C501B4010E94D11B6093C1
:103480007D0170937E0180937F019093800120E005
:1034900030E0A901C301B2010E946E1D20E030E0BE
:1034A00040E05FE387FD05C0C301B2010E94D11B6C
:1034B00004C0C301B2010E94D01B0E94471C5B01E3
:1034C00020E030E0A901C701B6010E946E1D20E096
:1034D00030E040E05FE387FD05C0C701B6010E9410
:1034E000D11B04C0C701B6010E94D01B0E94471C1B
:1034F0008B01462FE62FE695E695E69520E8E29FBC
:10350000F0011124E551FE4FEA0DF11D848930E8E8
:10351000A316B10408F0ECC017FDEEC0003411058D
:10352000A4F4477090E021E030E0042E02C0220FA6
:10353000331F0A94E2F78223932302C0959587955F
:103540004A95E2F7019709F0D7C0109279011092DD
:1035500078018091760190917701019682309105F2
:103560002CF4909377018093760104C01092770138
:10357000109276012AE5822E21E0922EF40120E0BD
:10358000F12C8081918142815381BC01635071098A
:10359000A616B706B4F003968A159B0594F0CA01E7
:1035A0000597081719076CF04017510754F08481EC
:1035B0009581019795838483181619060CF0B4C081
:1035C00021E03E9681E0E637F807D9F641E0B80100
:1035D000C5012A830E9403138FEF91E00E94780BAC
:1035E00062E370E080E090E00E94120A40E0B801DF
:1035F000C5010E9403138FEF91E00E94780B2A818E
:10360000FF2069F148E250E060E070E08BE492E076
:103610000E946C1060EA70E080E090E00E94120A64
:1036200048E250E060E070E088E891E00E946C10B1
:1036300060EA70E080E090E00E94120A40E451E00D
:1036400060E070E08BE092E00E946C1060E471E05A
:1036500080E090E00E94120A0E94630F54C04EE185
:1036600050E060E070E0222319F088E194E002C0AD
:1036700086E091E00E946C1064E670E080E090E0EB
:103680000E94120AA12CB12CF4016281738167504F
:10369000710980819181E12C08E028E04FE658E033
:1036A00003970E94F510C4010E94050F2EE02A9D89
:1036B000F0012B9DF00D1124E65AFE4FC080D18001
:1036C000E280F38004811581268137814085518510
:1036D00062857385848595850E94C20E3EE0830EC7
:1036E000911CAA94AB2879F0AA24A394B12CCCCF36
:1036F000003411050CF029CF21E0A801B5018BEEB3
:1037000091E00E94930D91E0291A310809F033CE1F
:103710008FEF91E00E94780B80E090E0892B09F414
:10372000F6CA0E940000F3CAFF24F39449CFEBE9E4
:10373000F1E01382128288EE93E0A0E0B0E084838F
:103740009583A683B7838BE191E0918380838FEF8C
:103750009FEF95878487EBEEF1E0138212828BE274
:1037600091E0918380838CE3868380E1818710865A
:10377000178216861786108A118A128A10920006FE
:103780001092FF05109202061092010681E08093CC
:1037900003060895EE0FFF1F0590F491E02D0994A4
:1037A0005058BB27AA270E94E81B0C94201D0E949A
:1037B000E71C38F00E94EE1C20F039F49F3F19F40A
:1037C00026F40C94E41C0EF4E095E7FB0C94DE1C4C
:1037D000E92F0E94451D58F3BA1762077307840743
:1037E000950720F079F4A6F50C94671D0EF4E0958A
:1037F0000B2EBA2FA02D0B01B90190010C01CA01AB
:10380000A0011124FF27591B99F0593F50F4503E55
:1038100068F11A16F040A22F232F342F4427585F47
:10382000F3CF469537952795A795F0405395C9F75F
:103830007EF41F16BA0B620B730B840BBAF0915017
:10384000A1F0FF0FBB1F661F771F881FC2F70EC0B6
:10385000BA0F621F731F841F48F487957795679589
:10386000B795F7959E3F08F0B0CF9395880F08F075
:103870009927EE0F9795879508950E94BA1C08F432
:1038800081E008950E94F71CE3950C94311D0E947D
:103890004E1C6894B1110C94681D08950E944D1D32
:1038A00088F09F5798F0B92F9927B751B0F0E1F001
:1038B000660F771F881F991F1AF0BA95C9F714C0B1
:1038C000B13091F00E94671DB1E008950C94671D1E
:1038D000672F782F8827B85F39F0B93FCCF38695EA
:1038E00077956795B395D9F73EF490958095709547
:1038F00061957F4F8F4F9F4F0895E89409C097FBC4
:103900003EF490958095709561957F4F8F4F9F4FB6
:103910009923A9F0F92F96E9BB279395F6958795FA
:1039200077956795B795F111F8CFFAF4BB0F11F4BD
:1039300060FF1BC06F5F7F4F8F4F9F4F16C0882364
:1039400011F096E911C0772321F09EE8872F762F9A
:1039500005C0662371F096E8862F70E060E02AF0DB
:103960009A95660F771F881FDAF7880F96958795C7
:1039700097F90895990F0008550FAA0BE0E8FEEF9C
:1039800016161706E807F907C0F012161306E40723
:10399000F50798F0621B730B840B950B39F40A261C
:1039A00061F0232B242B252B21F408950A2609F4FA
:1039B000A140A6958FEF811D811D089597F99F67FE
:1039C00080E870E060E008959FEF80EC08950024A7
:1039D0000A941616170618060906089500240A9474
:1039E000121613061406050608950C94E41C0E9492
:1039F0004D1DD8F3E894E0E0BB279F57F0F02AED87
:103A00003FE049EC06C0EE0FBB0F661F771F881F13
:103A100028F0B23A62077307840728F0B25A620BA3
:103A2000730B840BE3959A9572F7803830F49A956E
:103A3000BB0F661F771F881FD2F790480C94EA1DB2
:103A4000092E0394000C11F4882352F0BB0F40F4AC
:103A5000BF2B11F460FF04C06F5F7F4F8F4F9F4FEC
:103A60000895EF93E0FF07C0A2EA2AED3FE049EC9A
:103A70005FEB0E94E81B0E94201D0F90039401FC45
:103A80009058E8EEF0E00C94F61D57FD9058440F66
:103A9000551F59F05F3F71F04795880F97FB991FAD
:103AA00061F09F3F79F0879508951216130614066A
:103AB000551FF2CF4695F1DF08C0161617061806F7
:103AC000991FF1CF86957105610508940895E894D2
:103AD000BB2766277727CB0197F908950E94BA1C68
:103AE00008F48FEF08950E94861D0C94201D0E94FB
:103AF000E71C38F00E94EE1C20F0952311F00C9486
:103B0000DE1C0C94E41C11240C94681D0E94451DBD
:103B100070F3959FC1F3950F50E0551F629FF00120
:103B2000729FBB27F00DB11D639FAA27F00DB11D39
:103B3000AA1F649F6627B00DA11D661F829F2227C2
:103B4000B00DA11D621F739FB00DA11D621F839F49
:103B5000A00D611D221F749F3327A00D611D231F1F
:103B6000849F600D211D822F762F6A2F11249F576D
:103B700050409AF0F1F088234AF0EE0FFF1FBB1F70
:103B8000661F771F881F91505040A9F79E3F51052F
:103B900080F00C94DE1C0C94681D5F3FE4F3983EAB
:103BA000D4F3869577956795B795F795E7959F5FD9
:103BB000C1F7FE2B880F911D9695879597F908956B
:103BC0009F930E94F71C0F9007FCEE5F0C94311D31
:103BD0009F3F31F0915020F4879577956795B79581
:103BE000880F911D9695879597F908959F938F93C8
:103BF0007F936F93FF93EF939B01AC010E94731D22
:103C0000EF91FF910E940A1E2F913F914F915F917A
:103C10000C94731DDF93CF931F930F93FF92EF923A
:103C2000DF927B018C01689406C0DA2EEF010E94BE
:103C3000861DFE01E894A5912591359145915591F8
:103C4000A6F3EF010E94E81BFE019701A801DA9498
:103C500069F7DF90EF90FF900F911F91CF91DF9167
:103C600008958F929F92AF92BF92CF92DF92EF9280
:103C7000FF92CF93DF93EC01688179818A819B81E8
:103C8000611571058105910521F464E279ED8BE5FB
:103C900097E02DE133EF41E050E00E94951E49018D
:103CA0005A019B01AC01A7EAB1E40E94B41E6B016A
:103CB0007C01ACEEB4EFA50194010E94C21EDC01B0
:103CC000CB018C0D9D1DAE1DBF1DB7FF03C001971D
:103CD000A109B04888839983AA83BB83BC01CD0125
:103CE0009F77DF91CF91FF90EF90DF90CF90BF90C3
:103CF000AF909F908F9008950E94311E08958CE0A0
:103D000091E00E94311E089560930C0170930D01A3
:103D100080930E0190930F010895F999FECF92BD03
:103D200081BDF89A992780B50895052E97FB1EF45A
:103D300000940E94AC1E57FD07D00E94C71E07FCCE
:103D400003D04EF40C94AC1E5095409530952195BF
:103D50003F4F4F4F5F4F08959095809570956195B7
:103D60007F4F8F4F9F4F08950E94E91EA59F900D92
:103D7000B49F900DA49F800D911D11240895B7FF4D
:103D80000C94B41E0E94B41E821B930B0895A1E2F2
:103D90001A2EAA1BBB1BFD010DC0AA1FBB1FEE1FC5
:103DA000FF1FA217B307E407F50720F0A21BB30B10
:103DB000E40BF50B661F771F881F991F1A9469F78C
:103DC00060957095809590959B01AC01BD01CF01E8
:103DD0000895A29FB001B39FC001A39F700D811DE4
:103DE0001124911DB29F700D811D1124911D089504
:043DF000F894FFCF75
:103DF400FFFFFFFF00E100000000000001000000E1
:103E040000C180810000000000000058054C0A79C0
:103E140005E905C5056E0500000000BA0D2D054134
:083E2400524455424F590000C1
:00000001FF
