:100000000C942D130C9455130C9455130C945513F8
:100010000C9455130C9455130C9455130C945513C0
:100020000C9455130C9455130C94A4270C94162877
:100030000C9455130C9455130C9455130C945513A0
:100040000C9455130C9455130C9455130C94551390
:100050000C9455130C9455130C9455130C94C32500
:100060000C9455130C9455130C9455130C94551370
:100070000C9455130C9455130C9455130C94551360
:100080000C9455130C9455130C9455130C94551350
:100090000C9455130C9455130C9455130C94551340
:1000A0000C9455130C9455130C945513B714BA149F
:1000B000BC14C814D414E014EC14F8140415382536
:1000C0003B252A252E2532255C255C255C253F25F0
:1000D000432547254D2551255C2557250808FFDF79
:1000E0009F1F1F9FDFFFFFDB99181899DBFFFFFBA6
:1000F000F9F8F8F9FBFF202001FEFEFEFEFEFEFEF1
:10010000020202020202F2F2F2F2F2F2020202022F
:10011000FEFEFEFEFEFEFE0100FFFFFFFFFFFFFFF3
:10012000FFFFFFFFFFFFFFFFFF8787870000000043
:10013000FFFFFFFFFFFFFF0000FFFFFFFFFFFFFFCD
:100140000707070707077F7F7F7F7F7F000000008B
:10015000FFFFFFFFFFFFFF00C0876F6F0F6F6F0F85
:100160000C6C6C0C0C0C6C6C0C0C0C0C6C6C0C0C8F
:100170000F0F0F0F0F6F87C0FFFF01FCFEFEFEFE8B
:10018000FE020202020202F2F2F2F2F2020202FEA7
:10019000FEFEFEFEFE01FFFFFFFF00FFFFFFFFFF71
:1001A000FFFFFFFFFFFFFFFFFF878787000000FFC4
:1001B000FFFFFFFFFF00FFFFFFFF00FFFFFFFFFF4D
:1001C000FF0707070707077F7F7F7F7F000000FF8C
:1001D000FFFFFFFFFF00FFFFFFFF800F0F6F6F0F9D
:1001E0000F6C6C0C0C0C6C6C0C0C0C0C6C6C0C0F09
:1001F0000F0F0F0F8FE0FFFFFFFFFFFF0100FEFE5D
:10020000FEFE0202020202F2F2F2F2F20202FEFE2E
:10021000FEFEFE01FFFFFFFFFFFFFFFF0000FFFFED
:10022000FFFFFFFFFFFFFFFFFF8787870000FFFF44
:10023000FFFFFF00FFFFFFFFFFFFFFFF0000FFFFCB
:10024000FFFF07070707077F7F7F7F7F0000FFFF14
:10025000FFFFFF00FFFFFFFFFFFFFFFF80000F0F0B
:100260000F6F6C0C0C0C6C6C0C0C0C0C6C6C0F0F82
:100270000F0F0F80FFFFFFFFFFFFFFFFFF010000D9
:10028000FEFEFE02020202F2F2F2F2F20202FEFEB2
:10029000FEFE01FFFFFFFFFFFFFFFFFFFF0000006B
:1002A000FFFFFFFFFFFFFFFFFF8787870000FFFFC4
:1002B000FFFF00FFFFFFFFFFFFFFFFFFFF0000004A
:1002C000FFFFFF070707077F7F7F7F7F0000FFFF9C
:1002D000FFFF00FFFFFFFFFFFFFFFFFFFFE08000CA
:1002E0000F6F6F0C0C0C6C6C6C0C0C0C6C6C0F0F9F
:1002F0000F0F80FFFFFFFFFFFFFFFFFFFFFF01006A
:100300000000FEFEFE020202F2F2F2F202FEFEFE29
:10031000FE01FFFFFFFFFFFFFFFFFFFFFFFF0000EA
:100320000000FFFFFFFFFFFFFFFF878700FFFFFFCA
:10033000FF00FFFFFFFFFFFFFFFFFFFFFFFF0000CA
:100340000000FFFFFF0707077F7F7F7F00FFFFFFA2
:10035000FF00FFFFFFFFFFFFFFFFFFFFFFFF80002A
:1003600000000F6F0F0C0C6C6C0C0C0C0C6F6F0FF3
:100370000F80FFFFFFFFFFFFFFFFFFFFFFFFFFFFFC
:10038000FF010000FEFEFE02F2F2F202FEFEFE019E
:10039000FFFFFFFFFFFFFFFFFFFFFFFFFFFFFFFF6D
:1003A000FF000000FFFFFFFFFFFF8700FFFFFF00D0
:1003B000FFFFFFFFFFFFFFFFFFFFFFFFFFFFFFFF4D
:1003C000FF000000FFFFFF077F7F7F00FFFFFF00B0
:1003D000FFFFFFFFFFFFFFFFFFFFFFFFFFFFFFFF2D
:1003E000FF8000006F6F0F0C0C6C6C0C0F6F0F8098
:1003F000FFFFFFFFFFFFFFFFFFFFFFFFFFFFFFFF0D
:10040000FFFFFF010000FEFE02F202FEFE01FFFF01
:10041000FFFFFFFFFFFFFFFFFFFFFFFFFFFFFFFFEC
:10042000FFFFFF000000FFFFFF8700FFFF00FFFF4F
:10043000FFFFFFFFFFFFFFFFFFFFFFFFFFFFFFFFCC
:10044000FFFFFF000000FFFF077F00FFFF00FFFF2F
:10045000FFFFFFFFFFFFFFFFFFFFFFFFFFFFFFFFAC
:10046000FFFFFF8000000F6F0C6C0C6F0F80FFFF11
:10047000FFFFFFFFFFFFFFFFFFFFFFFFFFFFFFFF8C
:10048000FFFFFFFFFF010000FE06FE00FFFFFFFF72
:10049000FFFFFFFFFFFFFFFFFFFFFFFFFFFFFFFF6C
:1004A000FFFFFFFFFF000000FF00FF00FFFFFFFF57
:1004B000FFFFFFFFFFFFFFFFFFFFFFFFFFFFFFFF4C
:1004C000FFFFFFFFFF000000FF00FF00FFFFFFFF37
:1004D000FFFFFFFFFFFFFFFFFFFFFFFFFFFFFFFF2C
:1004E000FFFFFFFFFF8000000F0C0F80FFFFFFFFEB
:1004F000FFFFFFFFFFFFFFFFFFFFFFFFFFFFFFFF0C
:10050000FFFFFFFFFFFFFF00000000FFFFFFFFFFF7
:10051000FFFFFFFFFFFFFFFFFFFFFFFFFFFFFFFFEB
:10052000FFFFFFFFFFFFFF00000000FFFFFFFFFFD7
:10053000FFFFFFFFFFFFFFFFFFFFFFFFFFFFFFFFCB
:10054000FFFFFFFFFFFFFF00000000FFFFFFFFFFB7
:10055000FFFFFFFFFFFFFFFFFFFFFFFFFFFFFFFFAB
:10056000FFFFFFFFFFFFFF00000000FFFFFFFFFF97
:10057000FFFFFFFFFFFFFFFFFFFFFFFFFFFFFFFF8B
:10058000FFFFFFFFFF00FEFEFE000001FFFFFFFF79
:10059000FFFFFFFFFFFFFFFFFFFFFFFFFFFFFFFF6B
:1005A000FFFFFFFFFF00FFFFFF000000FFFFFFFF57
:1005B000FFFFFFFFFFFFFFFFFFFFFFFFFFFFFFFF4B
:1005C000FFFFFFFFFF00FFFFFF000000FFFFFFFF37
:1005D000FFFFFFFFFFFFFFFFFFFFFFFFFFFFFFFF2B
:1005E000FFFFFFFFFF800F0F0F000080FFFFFFFFE7
:1005F000FFFFFFFFFFFFFFFFFFFFFFFFFFFFFFFF0B
:10060000FFFFFF01FEFEFEFEFEFEFE000001FFFFFB
:10061000FFFFFFFFFFFFFFFFFFFFFFFFFFFFFFFFEA
:10062000FFFFFF00FFFFFFFFFFFFFF000000FFFFD6
:10063000FFFFFFFFFFFFFFFFFFFFFFFFFFFFFFFFCA
:10064000FFFFFF00FFFFFFFFFFFFFF000000FFFFB6
:10065000FFFFFFFFFFFFFFFFFFFFFFFFFFFFFFFFAA
:10066000FFFFFF800F6F0F6F0F6F0F000080FFFF06
:10067000FFFFFFFFFFFFFFFFFFFFFFFFFFFFFFFF8A
:1006800001FEFEFEFEFEFEFEFEFEFEFE000001FF7F
:10069000FFFFFFFFFFFFFFFFFFFFFFFFFFFFFFFF6A
:1006A00000FFFFFFFFFFFFFFFFFFFFFF000000FF56
:1006B000FFFFFFFFFFFFFFFFFFFFFFFFFFFFFFFF4A
:1006C00000FFFFFFFFFFFFFFFFFFFFFF000000FF36
:1006D000FFFFFFFFFFFFFFFFFFFFFFFFFFFFFFFF2A
:1006E000800F6F0F0F6F6F0F0F0F6F6F000080FF86
:1006F000FFFFFFFFFFFFFFFFFFFFFFFFFFFF01FE09
:10070000FEFEFEFEFEFEFEFEFEFEFEFEFEFE000005
:100710000001FFFFFFFFFFFFFFFFFFFFFFFF00FFE5
:10072000FFFFFFFFFFFFFFFFFFFFFFFFFFFF0000D7
:100730000000FFFFFFFFFFFFFFFFFFFFFFFF00FFC6
:10074000FFFFFFFFFFFFFFFFFFFFFFFFFFFF0000B7
:100750000000FFFFFFFFFFFFFFFFFFFFFFFF800F16
:100760000F6F6F0F0F0F0F6F6F0F0F0F6F0F0000D7
:100770000080FFFFFFFFFFFFFFFFFFFFFF01FEFE07
:10078000FEFEFEFEFEFEFEFEFEFEFEFEFEFEFEFE89
:10079000000001FFFFFFFFFFFFFFFFFFFF00FFFF64
:1007A000FFFFFFFFFFFFFFFFFFFFFFFFFFFFFFFF59
:1007B000000000FFFFFFFFFFFFFFFFFFFF00FFFF45
:1007C000FFFFFFFFFFFFFFFFFFFFFFFFFFFFFFFF39
:1007D000000000FFFFFFFFFFFFFFFFFFFF800F0F85
:1007E0000F0F6F6F0F0F0F6F6F6F0F0F0F6F6F0F79
:1007F0000080E0FFFFFFFFFFFFFFFFFF01FEFEFEA7
:10080000FEFEFEFEFEFEFEFEFEFEFEFEFEFEFEFE08
:10081000FEFE0001FFFFFFFFFFFFFFFF00FFFFFFE6
:10082000FFFFFFFFFFFFFFFFFFFFFFFFFFFFFFFFD8
:10083000FFFF0000FFFFFFFFFFFFFFFF00FFFFFFC5
:10084000FFFFFFFFFFFFFFFFFFFFFFFFFFFFFFFFB8
:10085000FFFF0000FFFFFFFFFFFFFFFF800F0F0FF5
:100860000F0F6F6F0F0F0F0F6F6F0F0F0F6F6F0F58
:100870000F0F0080FFFFFFFFFFFF01FEFEFEFEFEE9
:10088000FEFEFEFEFEFEFEFEFEFEFEFEFEFEFEFE88
:10089000FEFEFEFEFC01FFFFFFFF00FFFFFFFFFF6C
:1008A000FFFFFFFFFFFFFFFFFFFFFFFFFFFFFFFF58
:1008B000FFFFFFFFFF00FFFFFFFF00FFFFFFFFFF46
:1008C000FFFFFFFFFFFFFFFFFFFFFFFFFFFFFFFF38
:1008D000FFFFFFFFFF00FFFFFFFFE08F0F0F0F0F76
:1008E0000F0F6F6F0F0F0F0F6F6F0F0F0F6F6F0FD8
:1008F0000F6F6F0F0F80FFFF01FEFEFEFEFEFEFE7C
:10090000FEFEFEFEFEFEFEFEFEFEFEFEFEFEFEFE07
:10091000FEFEFEFEFEFEFE0100FFFFFFFFFFFFFFEB
:10092000FFFFFFFFFFFFFFFFFFFFFFFFFFFFFFFFD7
:10093000FFFFFFFFFFFFFF0000FFFFFFFFFFFFFFC5
:10094000FFFFFFFFFFFFFFFFFFFFFFFFFFFFFFFFB7
:10095000FFFFFFFFFFFFFF00C0876F0F0F0F0F0F9D
:100960000F0F6F6F0F0F0F0F6F6F0F0F0F6F6F0F57
:100970000F6F6F0F6F6F87C001FEFEFEFEFEFEFE63
:10098000FEFEFEFEFEFEFEFEFEFEFEFEFEFEFEFE87
:10099000FEFEFEFEFEFEFE0100FFFFFFFFFFFFFF6B
:1009A000FFFFFFFFFFFFFFFFFFFFFFFFFFFFFFFF57
:1009B000FFFFFFFFFFFFFF0000FFFFFFFFFFFFFF45
:1009C000FFFFFFFFFFFFFFFFFFFFFFFFFFFFFFFF37
:1009D000FFFFFFFFFFFFFF00C0876F6F0F6F6F0FFD
:1009E0000F6F6F0F0F0F6F6F0F0F0F0F6F6F0F0FD7
:1009F0000F0F0F0F0F6F87C0FFFF01FCFEFEFEFE03
:100A0000FEFEFEFEFEFEFEFEFEFEFEFEFEFEFEFE06
:100A1000FEFEFEFEFE01FFFFFFFF00FFFFFFFFFFE8
:100A2000FFFFFFFFFFFFFFFFFFFFFFFFFFFFFFFFD6
:100A3000FFFFFFFFFF00FFFFFFFF00FFFFFFFFFFC4
:100A4000FFFFFFFFFFFFFFFFFFFFFFFFFFFFFFFFB6
:100A5000FFFFFFFFFF00FFFFFFFF800F0F6F6F0F14
:100A60000F6F6F0F0F0F6F6F0F0F0F0F6F6F0F0F56
:100A70000F0F0F0F8FE0FFFFFFFFFFFF0100FEFED4
:100A8000FEFEFEFEFEFEFEFEFEFEFEFEFEFEFEFE86
:100A9000FEFEFE01FFFFFFFFFFFFFFFF0000FFFF65
:100AA000FFFFFFFFFFFFFFFFFFFFFFFFFFFFFFFF56
:100AB000FFFFFF00FFFFFFFFFFFFFFFF0000FFFF43
:100AC000FFFFFFFFFFFFFFFFFFFFFFFFFFFFFFFF36
:100AD000FFFFFF00FFFFFFFFFFFFFFFF80000F0F83
:100AE0000F6F6F0F0F0F6F6F0F0F0F0F6F6F0F0FD6
:100AF0000F0F0F80FFFFFFFFFFFFFFFFFF01000051
:100B0000FEFEFEFEFEFEFEFEFEFEFEFEFEFEFEFE05
:100B1000FEFE01FFFFFFFFFFFFFFFFFFFF000000E2
:100B2000FFFFFFFFFFFFFFFFFFFFFFFFFFFFFFFFD5
:100B3000FFFF00FFFFFFFFFFFFFFFFFFFF000000C1
:100B4000FFFFFFFFFFFFFFFFFFFFFFFFFFFFFFFFB5
:100B5000FFFF00FFFFFFFFFFFFFFFFFFFFE0800041
:100B60000F6F6F0F0F0F6F6F6F0F0F0F6F6F0F0FF5
:100B70000F0F80FFFFFFFFFFFFFFFFFFFFFF0100E1
:100B80000000FEFEFEFEFEFEFEFEFEFEFEFEFEFE81
:100B9000FE01FFFFFFFFFFFFFFFFFFFFFFFF000062
:100BA0000000FFFFFFFFFFFFFFFFFFFFFFFFFFFF53
:100BB000FF00FFFFFFFFFFFFFFFFFFFFFFFF000042
:100BC0000000FFFFFFFFFFFFFFFFFFFFFFFFFFFF33
:100BD000FF00FFFFFFFFFFFFFFFFFFFFFFFF8000A2
:100BE00000000F6F0F0F0F6F6F0F0F0F0F6F6F0F53
:100BF0000F80FFFFFFFFFFFFFFFFFFFFFFFFFFFF74
:100C0000FF010000FEFEFEFEFEFEFEFEFEFEFE01F9
:100C1000FFFFFFFFFFFFFFFFFFFFFFFFFFFFFFFFE4
:100C2000FF000000FFFFFFFFFFFFFFFFFFFFFF00D0
:100C3000FFFFFFFFFFFFFFFFFFFFFFFFFFFFFFFFC4
:100C4000FF000000FFFFFFFFFFFFFFFFFFFFFF00B0
:100C5000FFFFFFFFFFFFFFFFFFFFFFFFFFFFFFFFA4
:100C6000FF8000006F6F0F0F0F6F6F0F0F6F0F8000
:100C7000FFFFFFFFFFFFFFFFFFFFFFFFFFFFFFFF84
:100C8000FFFFFF010000FEFEFEFEFEFEFE01FFFF75
:100C9000FFFFFFFFFFFFFFFFFFFFFFFFFFFFFFFF64
:100CA000FFFFFF000000FFFFFFFFFFFFFF00FFFF50
:100CB000FFFFFFFFFFFFFFFFFFFFFFFFFFFFFFFF44
:100CC000FFFFFF000000FFFFFFFFFFFFFF00FFFF30
:100CD000FFFFFFFFFFFFFFFFFFFFFFFFFFFFFFFF24
:100CE000FFFFFF8000000F6F0F6F0F6F0F80FFFF80
:100CF000FFFFFFFFFFFFFFFFFFFFFFFFFFFFFFFF04
:100D0000FFFFFFFFFF010000FEFEFE00FFFFFFFFF1
:100D1000FFFFFFFFFFFFFFFFFFFFFFFFFFFFFFFFE3
:100D2000FFFFFFFFFF000000FFFFFF00FFFFFFFFCF
:100D3000FFFFFFFFFFFFFFFFFFFFFFFFFFFFFFFFC3
:100D4000FFFFFFFFFF000000FFFFFF00FFFFFFFFAF
:100D5000FFFFFFFFFFFFFFFFFFFFFFFFFFFFFFFFA3
:100D6000FFFFFFFFFF8000000F0F0F80FFFFFFFF5F
:100D7000FFFFFFFFFFFFFFFFFFFFFFFFFFFFFFFF83
:100D8000FFFFFFFFFFFFFF00000000FFFFFFFFFF6F
:100D9000FFFFFFFFFFFFFFFFFFFFFFFFFFFFFFFF63
:100DA000FFFFFFFFFFFFFF00000000FFFFFFFFFF4F
:100DB000FFFFFFFFFFFFFFFFFFFFFFFFFFFFFFFF43
:100DC000FFFFFFFFFFFFFF00000000FFFFFFFFFF2F
:100DD000FFFFFFFFFFFFFFFFFFFFFFFFFFFFFFFF23
:100DE000FFFFFFFFFFFFFF00000000FFFFFFFFFF0F
:100DF000FFFFFFFFFFFFFFFFFFFFFFFFFFFFFFFF03
:100E0000FFFF01FEFE02F202FEFE000001FFFFFFF7
:100E1000FFFFFFFFFFFFFFFFFFFFFFFFFFFFFFFFE2
:100E2000FFFF00FFFFFF8700FFFF000000FFFFFF45
:100E3000FFFFFFFFFFFFFFFFFFFFFFFFFFFFFFFFC2
:100E4000FFFF00FFFF077F00FFFF000000FFFFFF25
:100E5000FFFFFFFFFFFFFFFFFFFFFFFFFFFFFFFFA2
:100E6000FFFF800F6F0C6C0C6F0F000080FFFFFF07
:100E7000FFFFFFFFFFFFFFFFFFFFFFFFFFFFFFFF82
:100E800001FEFEFE02F2F2F202FEFEFE000001FF93
:100E9000FFFFFFFFFFFFFFFFFFFFFFFFFFFFFFFF62
:100EA00000FFFFFFFFFFFF8700FFFFFF000000FFC5
:100EB000FFFFFFFFFFFFFFFFFFFFFFFFFFFFFFFF42
:100EC00000FFFFFF077F7F7F00FFFFFF000000FFA5
:100ED000FFFFFFFFFFFFFFFFFFFFFFFFFFFFFFFF22
:100EE000800F6F0F0C6C6C0C0C0F6F6F000080FF8D
:100EF000FFFFFFFFFFFFFFFFFFFFFFFFFFFF01FE01
:100F0000FEFEFE020202F2F2F2F202FEFEFE00001D
:100F10000001FFFFFFFFFFFFFFFFFFFFFFFF00FFDD
:100F2000FFFFFFFFFFFFFFFF878700FFFFFF0000BE
:100F30000000FFFFFFFFFFFFFFFFFFFFFFFF00FFBE
:100F4000FFFFFF0707077F7F7F7F00FFFFFF000096
:100F50000000FFFFFFFFFFFFFFFFFFFFFFFF800F0E
:100F60000F6F6F0C0C0C0C6C6C0C0C0F6F0F0000E7
:100F70000080FFFFFFFFFFFFFFFFFFFFFF01FEFEFF
:100F8000FEFE02020202F2F2F2F2F20202FEFEFEA5
:100F9000000001FFFFFFFFFFFFFFFFFFFF00FFFF5C
:100FA000FFFFFFFFFFFFFFFF8787870000FFFFFFB7
:100FB000000000FFFFFFFFFFFFFFFFFFFF00FFFF3D
:100FC000FFFF070707077F7F7F7F7F0000FFFFFF8F
:100FD000000000FFFFFFFFFFFFFFFFFFFF800F0F7D
:100FE0000F0F6C6C0C0C0C6C6C6C0C0C0C6F6F0F92
:100FF0000080E0FFFFFFFFFFFFFFFFFF01FEFEFE9F
:10100000FEFE0202020202F2F2F2F2F20202FEFE20
:10101000FEFE0001FFFFFFFFFFFFFFFF00FFFFFFDE
:10102000FFFFFFFFFFFFFFFFFF8787870000FFFF36
:10103000FFFF0000FFFFFFFFFFFFFFFF00FFFFFFBD
:10104000FFFF07070707077F7F7F7F7F0000FFFF06
:10105000FFFF0000FFFFFFFFFFFFFFFF800F0F0FED
:101060000F0F6C6C0C0C0C0C6C6C0C0C0C6C6F0F74
:101070000F0F0080FFFFFFFFFFFF01FCFEFEFEFEE3
:10108000FE020202020202F2F2F2F2F2020202FE98
:10109000FEFEFEFEFE01FFFFFFFF00FFFFFFFFFF62
:1010A000FFFFFFFFFFFFFFFFFF878787000000FFB5
:1010B000FFFFFFFFFF00FFFFFFFF00FFFFFFFFFF3E
:1010C000FF0707070707077F7F7F7F7F000000FF7D
:1010D000FFFFFFFFFF00FFFFFFFF800F0F6F6F0F8E
:1010E0000F6C6C0C0C0C6C6C0C0C0C0C6C6C0C0FFA
:1010F0000F0F0F0F8FE0FFFF01FEFEFEFEFEFEFE54
:10110000020202020202F2F2F2F2F2F2020202021F
:10111000FEFEFEFEFEFEFE0100FFFFFFFFFFFFFFE3
:10112000FFFFFFFFFFFFFFFFFF8787870000000033
:10113000FFFFFFFFFFFFFF0000FFFFFFFFFFFFFFBD
:101140000707070707077F7F7F7F7F7F000000007B
:10115000FFFFFFFFFFFFFF00C0876F6F0F6F6F0F75
:101160000C6C6C0C0C0C6C6C0C0C0C0C6C6C0C0C7F
:101170000F0F0F0F0F6F87C0F0FCFEFEFFFFFFFF8A
:10118000FFFFFFFFFFFFFFFFFFFFFFFFFFFFFFFF6F
:10119000FFFFFFFFFFFFFFFFFFFFFFFFFFFFFFFF5F
:1011A000FFFFFFFFFFFFFFFFFFFFFFFFFFFFFFFF4F
:1011B000FFFFFFFFFFFFFFFFFFFFFFFFFFFFFFFF3F
:1011C000FFFFFFFFFFFFFFFFFFFFFFFFFFFFFFFF2F
:1011D000FFFFFFFFFFFFFFFFFFFFFFFFFFFFFFFF1F
:1011E000FFFFFFFFFFFFFFFFFFFFFFFFFFFFFFFF0F
:1011F000FFFFFFFFFEFEFCF0FFFFFFFFFFFFFFFF13
:10120000FFFFFFFFFFFFFFFFFFFFFFFFFFFFFFFFEE
:10121000FFFFFFFFFFFFFFFFFFFFFFFFFFFFFFFFDE
:10122000FFFFFFFFFFFFFFFFFFFFFFFFFFFFFFFFCE
:10123000FFFFFFFFFFFFFFFFFFFFFFFFFFFFFFFFBE
:10124000FFFFFFFFFFFFFFFFFFFFFFFFFFFFFFFFAE
:10125000FFFFFFFFFFFFFFFFFFFFFFFFFFFFFFFF9E
:10126000FFFFFFFFFFFFFFFFFFFFFFFFFFFFFFFF8E
:10127000FFFFFFFFFFFFFFFFFFFFFFFFFFFFFFFF7E
:10128000FFFFFFFFFFFFFFFFFFFFFFFFFFFFFFFF6E
:10129000FFFFFFFFFFFFFFFFFFFFFFFFFFFFFFFF5E
:1012A000FFFFFFFFFFFFFFFFFFFFFFFFFFFFFFFF4E
:1012B000FFFFFFFFFFFFFFFFFFFFFFFFFFFFFFFF3E
:1012C000FFFFFFFFFFFFFFFFFFFFFFFFFFFFFFFF2E
:1012D000FFFFFFFFFFFFFFFFFFFFFFFFFFFFFFFF1E
:1012E000FFFFFFFFFFFFFFFFFFFFFFFFFFFFFFFF0E
:1012F000FFFFFFFFFFFFFFFFFFFFFFFFFFFFFFFFFE
:10130000FFFFFFFFFFFFFFFFFFFFFFFFFFFFFFFFED
:10131000FFFFFFFFFFFFFFFFFFFFFFFFFFFFFFFFDD
:10132000FFFFFFFFFFFFFFFFFFFFFFFFFFFFFFFFCD
:10133000FFFFFFFFFFFFFFFFFFFFFFFFFFFFFFFFBD
:10134000FFFFFFFFFFFFFFFFFFFFFFFFFFFFFFFFAD
:10135000FFFFFFFFFFFFFFFFFFFFFFFFFFFFFFFF9D
:10136000FFFFFFFFFFFFFFFFFFFFFFFFFFFFFFFF8D
:10137000FFFFFFFFFFFFFFFFFFFFFFFFFFFFFFFF7D
:10138000FFFFFFFFFFFFFFFFFFFFFFFFFFFFFFFF6D
:10139000FFFFFFFFFFFFFFFFFFFFFFFFFFFFFFFF5D
:1013A000FFFFFFFFFFFFFFFFFFFFFFFFFFFFFFFF4D
:1013B000FFFFFFFFFFFFFFFFFFFFFFFFFFFFFFFF3D
:1013C000FFFFFFFFFFFFFFFFFFFFFFFFFFFFFFFF2D
:1013D000FFFFFFFFFFFFFFFFFFFFFFFFFFFFFFFF1D
:1013E000FFFFFFFFFFFFFFFFFFFFFFFFFFFFFFFF0D
:1013F000FFFFFFFFFFFFFFFFFFFFFFFFFFFFFFFFFD
:10140000FFFFFFFFFFFFFFFF7F3F3F3F3F3F3F3FAC
:101410003F3F3F3F3F3F3F3F3F3F3F3F3F3F3F3FDC
:101420003F3F3F3F3F3F3F3F3F3F3F3F3F3F3F3FCC
:101430003F3F3F3F3F3F3F3F3F3F3F3F3F3F3F3FBC
:101440003F3F3F3F3F3F3F3F3F3F3F3F3F3F3F3FAC
:101450003F3F3F3F3F3F3F3F3F3F3F3F3F3F3F3F9C
:101460003F3F3F3F3F3F3F7FFFFFFFFFFFFFFFFF4C
:10147000FFFFFFFFFFFFFFFFFFFFFFFFFFFFFFFF7C
:10148000FFFFFFFFFFFFFFFF000000000000000064
:10149000000000000000000000000000000000004C
:1014A000000000000000000000000000000000003C
:1014B000000000000000000000000000000000002C
:1014C000000000000000000000000000000000001C
:1014D000000000000000000000000000000000000C
:1014E0000000000000000000FFFFFFFFFFFFFFFF04
:1014F000FFFFFFFFFFFFFFFF0F3F7F7FFFFFFFFFAC
:10150000FFFFFFFFFFFFFFFFFFFEFEFEFEFEFEFEF2
:10151000FEFEFEFEFEFEFEFEFEFEFEFEFEFEFEFEEB
:10152000FEFEFEFEFEFEFEFEFEFEFEFEFEFEFEFEDB
:10153000FEFEFEFEFEFEFEFEFEFEFEFEFEFEFEFECB
:10154000FEFEFEFEFEFEFEFEFEFEFEFEFEFEFEFEBB
:10155000FEFEFEFEFEFEFEFEFEFEFEFEFEFEFEFEAB
:10156000FEFEFEFEFEFEFEFFFFFFFFFFFFFFFFFF92
:10157000FFFFFFFF7F7F3F0FF0FCFEFEFFFFFFFF3F
:10158000FFFFFFFFFFFFFFFF0FF717171777771713
:10159000F7D71717D7D7F7171717D75757F71717BB
:1015A00017777717F7F7F7D71717D7D7F7D717178B
:1015B000D7D7F7F71717F7F7F7F7171757D7F70F23
:1015C000FFFFFFFFFFFFFFFFFFFFFFFFFFFFFFFF2B
:1015D000FFFFFFFFFFFFFFFFFFFFFFFFFFFFFFFF1B
:1015E000FFFFFFFFFFFFFFFFFFFFFFFFFFFFFFFF0B
:1015F000FFFFFFFFFEFEFCF0FFFFFFFFFFFFFFFF0F
:10160000FFFFFFFFFFFFFFFF00FF000000030300DD
:1016100003010000010103000000010100030000BC
:10162000000303000303030300000303030100009E
:101630000101030300000101010300000101FF009B
:10164000FFFFFF000000007E6E6E0EFF0000000036
:101650007E7E7E00FF000000007E7E7E00FF000098
:1016600000007E7E7E81FFFFFFFFFFFFFFFFFFFF89
:10167000FFFFFFFFFFFFFFFFFFFFFFFFFFFFFFFF7A
:10168000FFFFFFFFFFFFFFFF00FF00000000000063
:10169000000000000000000000000000000000004A
:1016A000000000000000000000000000000000003A
:1016B0000000000000000000000000000000FF002B
:1016C000FFFFFF1D1D1D1DFDFD01FDFF01010101AE
:1016D000FDFDFD01FF01010101EDEDED03FFFFFF48
:1016E00041414141FFFFFFFFFFFFFFFFFFFFFFFF02
:1016F000FFFFFFFFFFFFFFFFFFFFFFFFFFFFFFFFFA
:10170000FFFFFFFFFFFFFFFFC0BF604040404040C2
:1017100040404040404040404040404040404040C9
:1017200040404040404040404040404040404040B9
:1017300040404040404040404040404040603F804A
:10174000FFFFFFFEFEFEFEFEFEFEFFFFFEFEFEFEB4
:10175000FEFEFEFEFFFEFEFEFEFEFEFEFFFFFFFFA4
:10176000FEFEFEFEFFFFFFFFFFFFFFFFFFFFFFFF8D
:10177000FFFFFFFFFFFFFFFFFFFFFFFFFFFFFFFF79
:10178000FFFFFFFFFFFFFFFF03FD050505DDDD0593
:10179000FD7505057575FD050505755515FD0505F1
:1017A00005DDDD05FDFDFD454545451515FD050539
:1017B000757525FD050575757505FD0505D50525A9
:1017C000FD05055575FDFD858585858585858585A1
:1017D000858585FD8585858585858585858585FDC9
:1017E000858585858585FD03FFFFFFFFFFFFFFFFE3
:1017F000FFFFFFFFFFFFFFFFFFFFFFFFFFFFFFFFF9
:10180000FFFFFFFFFFFFFFFF00FF000000000000E1
:1018100000000000000000000000000000000000C8
:1018200000000000000000000000000000000000B8
:1018300000000000000000000000000000000000A8
:101840000000000000000000000000000000000098
:101850000000000000000000000000000000000088
:10186000000000000000FF00FFFFFFFFFFFFFFFF81
:10187000FFFFFFFFFFFFFFFFFFFFFFFFFFFFFFFF78
:10188000FFFFFFFFFFFFFFFF00FF00000000000061
:101890000000000000000000000000000000000048
:1018A0000000000000000000000000000000000038
:1018B0000000000000000000000000000000000028
:1018C0000000000000000000000000000000000018
:1018D0000000000000000000000000000000000008
:1018E000000000000000FF00FFFFFFFFFFFFFFFF01
:1018F000FFFFFFFFFFFFFFFF0F3F7F7FFFFFFFFFA8
:10190000FFFFFFFFFFFFFFFFF8F7ECE8E8E8E8E87C
:10191000E8E8E8E8E8E8E8E8E8E8E8E8E8E8E8E847
:10192000E8E8E8E8E8E8E8E8E8E8E8E8E8E8E8E837
:10193000E8E8E8E8E8E8E8E8E8E8E8E8E8E8E8E827
:10194000E8E8E8E8E8E8E8E8E8E8E8E8E8E8E8E817
:10195000E8E8E8E8E8E8E8E8E8E8E8E8E8E8E8E807
:10196000E8E8E8E8E8E8F7F8FFFFFFFFFFFFFFFF20
:10197000FFFFFFFF7F7F3F0F1010FE0101010101FC
:10198000010101010101010101FE7FC0C0C0C0C011
:10199000C0C0C0C0C0C0C0C0C07F00FFFF01010107
:1019A0000101010101010101FF00007FFFC0C0C072
:1019B000C0C0C0C0C0C0C0C07F000000FFFF0101A8
:1019C00001010101010101FF00000000FFFFC0C093
:1019D000C0C0C0C0C0C0C0FF00000000FFFFFF01CA
:1019E000010101010101FF0000000000FFFFFFC035
:1019F000C0C0C0C0C0C0FF000000000000FFFFFF6B
:101A00000101010101FF00000000000000FFFFFFD5
:101A1000C0C0C0C0C0FF0000000000000000FFFF09
:101A2000FF010101FF000000000000000000FFFFB7
:101A3000FFC0C0C0FF00000000000000000000FF69
:101A4000FFFF01FF0000000000000000000000FF99
:101A5000FFFFC0FF000000000000000000000000C9
:101A6000FFFFFF0000000000000000000000000079
:101A7000FFFFFF0000000000000000000000000069
:101A800000FFFFFF00000000000000000000000059
:101A900000FFFFFF00000000000000000000000049
:101AA00000FF01FFFFFF0000000000000000000039
:101AB00000FFC0FFFFFF000000000000000000FF6B
:101AC000010101FFFFFF000000000000000000FF17
:101AD000C0C0C0FFFFFF0000000000000000FF01C9
:101AE00001010101FFFFFF00000000000000FFC036
:101AF000C0C0C0C0FFFFFF000000000000FF0101E8
:101B00000101010101FFFFFF0000000000FFC0C054
:101B1000C0C0C0C0C0FFFFFF00000000FF01010106
:101B2000010101010101FFFF00000000FFC0C0C072
:101B3000C0C0C0C0C0C0FFFF000000FF0101010124
:101B400001010101010101FFFF00007FC0C0C0C011
:101B5000C0C0C0C0C0C0C0FF7F00FE0101010101C4
:101B6000010101010101010101FE7FC0C0C0C0C02F
:101B7000C0C0C0C0C0C0C0C0C07F404000FFFFFFA9
:101B8000FFFFFFFF7F7F7F7F7F7F7F7F7F7F7F7F65
:101B90007F7F7F7F7F7F7F7F7F7F7F7F7F7F7F7F55
:101BA0007F7F7F7F7F7F7F7F7F7F7F7F7F7F7F7F45
:101BB0007F7F7F7F7FFFFFFFFEFEFCF000FFFFFFC8
:101BC000FFFFFF00FF818181F9F38181FF81819512
:101BD0009DFF8981F78189FFFD8181FDFDFF010165
:101BE00001010101010101010101010101010101E5
:101BF00001010101FF00FFFFFFFFFFFF00FFFFFFEB
:101C0000FFFFFF00FF7E4040407E7E7F5E40405EE3
:101C10005E7F40405F5F5F7F40404A4E7FFF000035
:101C200000000000000000000000000000000000B4
:101C300000000000FF00FFFFFFFFFFFF00FFFFFFAE
:101C4000FFFFFF00FF8888888888888888888888C0
:101C500088888888888888888888888888FF00009D
:101C60000000000000000000000000000000000074
:101C700000000000FF00FFFFFFFFFFFF00FFFFFF6E
:101C8000FFFFFFF0EFDCD4D4D4D4D4D4D4D4D4D454
:101C9000D4D4D4D4D4D4D4D4D4D4D4D4D4DFD0D001
:101CA000D0D0D0D0D0D0D0D0D0D0D0D0D0D0D0D034
:101CB000D0D0D0D8EFF0FFFFFFFFFFFF00FFFFFF06
:101CC000FFFFFF01FE222222220A0A7E02023A3A86
:101CD000127E02023A3A3A027E02026A02127E0240
:101CE000022A3A7E4242424242427E4242424242BC
:101CF0007E424242FE01FFFFFFFFFFFF00FFFFFFAA
:101D0000FFFFFF00FF0000000000000000000000D7
:101D100000000000000000000000000000000000C3
:101D200000000000000000000000000000000000B3
:101D300000000000FF00FFFFFFFFFFFF00FFFFFFAD
:101D4000FFFFFFFEFDFBFAFAFAFAFAFAFAFAFAFADC
:101D5000FAFAFAFAFAFAFAFAFAFAFAFAFAFAFAFAE3
:101D6000FAFAFAFAFAFAFAFAFAFAFAFAFAFAFAFAD3
:101D7000FAFAFAFBFDFEFFFF7F7F3F0F1010000015
:101D80000000000000000000000000000000000053
:101D90000000000000000000000000000000FE0144
:101DA000FFFFFFFFFF0707FFFFFFFFFF01FE7FC0F1
:101DB000DFDFDFDFDFD8D8DFDFDFDFDFC07FFE017F
:101DC000FFFFFF3333BBBBBB83FFFFFF01FE7FC0C1
:101DD000DFDFDFD0D0D7D7D7D7DFDFDFC07FFE018F
:101DE000010101010D0D4545FD01010101FE7FC00D
:101DF000C0C0C0C0CCCCC8C8CFC0C0C0C07FFE016E
:101E0000010101FDFD454545C501010101FE7FC000
:101E1000C0C0C0CFCFC8C8C8CFC0C0C0C07FFE013F
:101E200001F9F901010199998989F90101FE7FC040
:101E3000C0CFCFC0C0C0CFCFC8C8C8C0C07FFE0110
:101E40000199998989F901F9F981F90101FE7FC0A8
:101E5000C0CFCFC8C8C8C0C0C0C0CFC0C07FFE01FF
:101E600001F9F981F90101F9F989F90101FE7FC050
:101E7000C0C0C0C0CFC0C0CFCFC8CFC0C07FFE01E0
:101E800001F9F989F90101F9F989890101FE7FC098
:101E9000C0C8C8C8CFC0C0CFCFC8CFC0C07FFE01A8
:101EA000F9F901F9F989F901898989F901FE7FC0F8
:101EB000CFCFC0C8C8C8CFC0CFCFC8C8C07FFE0171
:101EC000011989F901F989F901F981F901FE7FC048
:101ED000C0CCC8CFC0CFC8CFC0C0C0CFC07FFE016C
:101EE000393909F901F9899901F989F901FE7FC0A8
:101EF000C0C0C0CFC0CFC8CFC0CFC8CFC07FFE0149
:101F0000F9017949C91989F901F9899901FE7FC057
:101F1000CFC0CCC8CFC8C8CFC0CFC8CFC07FFE19F4
:101F200089F901F909F91909F901B989F9FE7FCC93
:101F3000C8CFC0CFC8CFC0C0CFC0CFC8C87FFE01F8
:101F4000F9899901F901F981F9F981F901FE7FC057
:101F5000CFC8CFC0CFC0C0C0CFC0C0CFC07F0000EF
:101F6000000200090F0000030401000C0000000043
:101F700000000000000000000000000000F0F89CDD
:101F80008E8783878E9CF8F00000FEFF0303030317
:101F900003070EFCF80000FEFF0303030303070E14
:101FA000FCF80000FFFF00000000000000FFFF0041
:101FB00000FEFF8383838383C7EE7C380000F8FC38
:101FC0000E07030303070EFCF800003F7FE0C0800C
:101FD00080C0E07F3FFFFF01010101010101FFFF20
:101FE0000000FFFF0C0C0C0C1C3E77E3C100007FCF
:101FF000FFC0C0C0C0C0E0703F1F00001F3F70E0C6
:10200000C0C0C0E0703F1F00007FFFC1C1C1C1C19F
:10201000E3773E1C00001F3F70E0C0C0C0E0703F8F
:102020001F000000000001FFFF0100000000000091
:1020300000240027002A002D003000AED580A83FE4
:10204000D300408D142002A1C8DA1281CFD9F1DB70
:10205000402EA4A6AF04080201104080401020408A
:10206000804080080204018040201002011080108E
:102070002040402000000000250028002B002E00FA
:1020800031000404040404030405020202020403F0
:102090000202020206060606060604040202020402
:1020A00004140213021202150207020802090209AF
:1020B000010A020A010B020B0104010C01060100D6
:1020C0007215291685134418D516C92B5B2C2B15B0
:1020D000080B0002020201000904000001020200D4
:1020E0000005240010010524010101042402060555
:1020F00024060001070581031000400904010002C5
:102100000A000000070502024000000705830240A4
:1021100000000403090441726475696E6F204C4C21
:10212000430041726475696E6F204C656F6E617219
:10213000646F00120100020000004041233680005D
:10214000010102030112010002EF020140412336A6
:102150008000010102030100000000003E5B4F5BB4
:102160003E3E6B4F6B3E1C3E7C3E1C183C7E3C183A
:102170001C577D571C1C5E7F5E1C00183C1800FF1E
:10218000E7C3E7FF0018241800FFE7DBE7FF30484C
:102190003A060E2629792926407F050507407F0546
:1021A000253F5A3CE73C5A7F3E1C1C08081C1C3E3D
:1021B0007F14227F22145F5F005F5F06097F017F2B
:1021C000006689956A606060606094A2FFA29408CE
:1021D000047E040810207E201008082A1C08081C11
:1021E0002A08081E101010100C1E0C1E0C30383E51
:1021F0003830060E3E0E06000000000000005F00B2
:10220000000007000700147F147F14242A7F2A127D
:102210002313086462364956205000080703000063
:102220001C2241000041221C002A1C7F1C2A080895
:102230003E080800807030000808080808000060A8
:10224000600020100804023E5149453E00427F4094
:102250000072494949462141494D331814127F10F3
:1022600027454545393C4A4949314121110907363D
:1022700049494936464949291E00001400000040DA
:1022800034000000081422411414141414004122D4
:10229000140802015909063E415D594E7C12111283
:1022A0007C7F494949363E414141227F4141413E7F
:1022B0007F494949417F090909013E414151737FE5
:1022C0000808087F00417F41002040413F017F080E
:1022D0001422417F404040407F021C027F7F04085F
:1022E000107F3E4141413E7F090909063E4151218F
:1022F0005E7F09192946264949493203017F0103B6
:102300003F4040403F1F2040201F3F4038403F6338
:102310001408146303047804036159494D43007F92
:102320004141410204081020004141417F04020163
:102330000204404040404000030708002054547805
:10234000407F284444383844444428384444287F53
:10235000385454541800087E090218A4A49C787FAD
:102360000804047800447D40002040403D007F1078
:1023700028440000417F40007C047804787C0804F5
:1023800004783844444438FC1824241818242418A9
:10239000FC7C08040408485454542404043F442496
:1023A0003C4040207C1C2040201C3C4030403C44B1
:1023B000281028444C9090907C4464544C4400086D
:1023C000364100000077000000413608000201029B
:1023D00004023C2623263C1EA1A161123A40402063
:1023E0007A385454555921555579412154547841DE
:1023F000215554784020545579400C1E52721239A0
:102400005555555939545454593955545458000058
:10241000457C410002457D420001457C40F0292475
:1024200029F0F0282528F07C545545002054547C90
:10243000547C0A097F493249494932324848483276
:10244000324A4848303A4141217A3A4240207800A5
:102450009DA0A07D39444444393D4040403D3C244A
:10246000FF2424487E4943662B2FFC2F2BFF09298C
:10247000F620C0887E090320545479410000447D31
:10248000413048484A32384040227A007A0A0A727B
:102490007D0D19317D2629292F2826292929263025
:1024A000484D4020380808080808080808382F1048
:1024B000C8ACBA2F102834FA00007B000008142A98
:1024C000142222142A14089500220095AA0055000F
:1024D000AAAA55AA55AA000000FF00101010FF007C
:1024E000141414FF001010FF00FF1010F010F0146F
:1024F0001414FC001414F700FF0000FF00FF141474
:10250000F404FC141417101F10101F101F141414BF
:102510001F00101010F0000000001F101010101FFE
:1025200010101010F010000000FF1010101010100C
:10253000101010FF10000000FF140000FF00FF004B
:10254000001F10170000FC04F414141710171414C3
:10255000F404F40000FF00F714141414141414F716
:1025600000F7141414171410101F101F141414F46F
:10257000141010F010F000001F101F0000001F14B6
:10258000000000FC140000F010F01010FF10FF1409
:102590001414FF141010101F00000000F010FFFFB3
:1025A000FFFFFFF0F0F0F0F0FFFFFF000000000081
:1025B000FFFF0F0F0F0F0F38444438447C2A2A3E88
:1025C000147E02020606027E027E026355494163C2
:1025D0003844443C04407E201E2006027E020299BC
:1025E000A5E7A5991C2A492A1C4C7201724C304A55
:1025F0004D4D303048784830BC625A463D3E4949DE
:1026000049007E0101017E2A2A2A2A2A44445F4485
:102610004440514A444040444A51400000FF0103B5
:10262000E080FF000008086B6B083612362436067F
:102630000F090F06000018180000001010003040AD
:10264000FF0101001F01011E00191D1712003C3C73
:102650003C3C000000000000A32C11241FBECFEF63
:10266000DAE0DEBFCDBF26E0AAECB1E001C01D92EA
:10267000A23BB207E1F711E0A0E0B1E0E0E8F2E64A
:1026800002C005900D92AA3CB107D9F713E1CDE243
:10269000D3E104C02197FE010E945E30CC32D10705
:1026A000C9F70E94E62C0C943E310C940000CF92A6
:1026B000DF92EF92FF92CF93DF93E0E1F1E0CFE87A
:1026C000D6E0DE0181918D9381E0EC31F807D1F7FE
:1026D0008CE0C82ED12CE12CF12C0E94B730A70140
:1026E00096010E94DB303881FB01E157F94F808170
:1026F0008993308386E0CB39D80779F7DF91CF9182
:10270000FF90EF90DF90CF9008952F923F924F92DD
:102710005F926F927F928F929F92AF92BF92CF9271
:10272000DF92EF92FF920F931F93CF93DF9300D02E
:1027300000D000D0CDB7DEB70E94862110921506DA
:1027400010921406109213061092120610929C0614
:1027500010929B060E94571310929D0610929E069F
:1027600010929F061092A00680E090E0FC01EE55CA
:10277000F94F1082118212821382049680319105E2
:10278000A9F782EA96E09E838D83AC0134E020E0D5
:1027900080E090E0293050F4E22FF0E0E157F94F6B
:1027A0006081FA01E80FF91F60832F5F0196843082
:1027B000910581F731504C5F5F4F3111E9CF22EA2B
:1027C000222E26E0322E24E0298334E0C32ED12CA1
:1027D000E12CF12C00E010E00E94B7302B013C010D
:1027E0000E94B7304B015C01D101A00FB11FBB8328
:1027F000AA83BC91BC83C301B201A70196010E94C8
:10280000DB30762EC501B401A70196010E94DB30B2
:1028100024E0729EF0011124E60FF11DEE55F94FF0
:102820008081AA81BB818C93BC81B0830F5F1F4FD5
:102830000430110589F6E981E150E983F4E02F0EB7
:10284000311CE111C7CF20E04AE75BE160E070E0B6
:1028500080E490E00E94492198EFE92E95E0F92E5E
:1028600084EFC82E85E0D82E00E010E0D6016D91EF
:102870006D01ED81FE81E00FF11F70E0D7018C91B9
:1028800020814CE75DE190E00E9449210F5F1F4FDE
:102890000430110559F7ED81FE813496FE83ED83F6
:1028A000FFEFEF1AFF0A8D819E81825B9640C1F691
:1028B0000E9457131092A1061092E9011092EE01A6
:1028C00083E08093760626960FB6F894DEBF0FBE9F
:1028D000CDBFDF91CF911F910F91FF90EF90DF90CF
:1028E000CF90BF90AF909F908F907F906F905F90B0
:1028F0004F903F902F900895E0919C06EB3009F0A7
:1029000094C00E94571310929C0680919B068F5F83
:1029100080939B06823009F085C0E091A10642EACF
:1029200056E024E080E090E0DA01A80FB91F3C9166
:10293000E31718F4363008F0E32F01968430910540
:1029400099F721504C5F5F4F2111ECCFE093A10626
:10295000E63008F46EC08E2F90E0FC013697E93027
:10296000F10508F066C0EA5AFF4F0C945E301092F1
:10297000E9015FC081E053C061E070E080E090E079
:102980000E94C724DC01CB010196A11DB11D47C0E7
:1029900061E070E080E090E00E94C724DC01CB01A0
:1029A0000296A11DB11D3BC061E070E080E090E0A7
:1029B0000E94C724DC01CB010396A11DB11D2FC0CD
:1029C00061E070E080E090E00E94C724DC01CB0170
:1029D0000496A11DB11D23C061E070E080E090E08D
:1029E0000E94C724DC01CB010596A11DB11D17C0B3
:1029F00061E070E080E090E00E94C724DC01CB0140
:102A00000696A11DB11D0BC061E070E080E090E072
:102A10000E94C724DC01CB010796A11DB11D809344
:102A2000E90107C020918F060EC080919B0682307D
:102A300031F4E091E901F0E0E45EFE4F03C0F0E024
:102A4000E157F94F20814CE75DE16FE070E086E6E9
:102A500090E00C944921EF92FF920F931F93CF9334
:102A6000DF9381E192E00E94A12C80939C0682E199
:102A700092E00E94A12C80939B060FE816E0C3E130
:102A8000D2E0CE010E94A12CF80181938F01219602
:102A9000CF31F2E0DF07A9F782EAE82E86E0F82ED0
:102AA00010E0C0E0D0E08C2F810F90E0815E9D4F60
:102AB0000E94A12CF701EC0FFD1F80832196C430EA
:102AC000D10589F71C5F84E0E80EF11C103149F74D
:102AD00083E080937606DF91CF911F910F91FF9055
:102AE000EF9008950F93CF9300E420E848E751E179
:102AF00060E070E080E090E00E943D2081E0809303
:102B000016061092170680E10E943C21882329F0C6
:102B10008091CC01823008F487C080E80E943C217B
:102B2000882321F08091CC01811187C08091CC0154
:102B3000811117C089E190E09093130680931206EB
:102B400080E390E090931506809314068AE891E064
:102B50000E94472184E00E943C218823A9F182E061
:102B600031C08130B9F480E290E0909313068093F5
:102B7000120680E390E0909315068093140688E98E
:102B800091E00E94472184E00E943C218823E1F0EB
:102B900087E018C08230C1F489E190E09093130679
:102BA0008093120680E390E09093150680931406BC
:102BB00084EA91E00E94472184E00E943C2188231E
:102BC00019F081E080937606C091CA01C032F0F519
:102BD00000E420E848E751E160E070E080E090E048
:102BE0000E943D202C2F46EF50E068E070E080E32B
:102BF00090E00E9400202091CB014CED50E06FE26C
:102C000070E084E790E00E9400206EE170E080E0D8
:102C100090E00E948925CF5FC03219F0C093CA01AD
:102C200015C01092CA0112C08F5F8093CC018091B1
:102C3000CB018F5F8093CB0170CF81508093CC010B
:102C40008091CB0181508093CB0170CFCF910F91B8
:102C500008950F93CF93DF9300D000D0CDB7DEB7A8
:102C600000E420E848E755E160E070E080E090E0B3
:102C70000E943D2083E392E00E94C5308093A1062C
:102C8000282F4CE75DE16CE070E084E290E00E9468
:102C9000492119821A821B821C82CE0101960E9450
:102CA000CF2182E08093180684E190E09093130690
:102CB0008093120689E290E09093150680931406A3
:102CC00069817A818B819C814AE00E94EC2181E0BC
:102CD000809318068CE00E943C21811110927606A8
:102CE0000F900F900F900F90DF91CF910F9108955B
:102CF000CF92DF92EF92FF920F931F93CF93DF93C8
:102D000020E04AE75BE160E070E080E490E00E9450
:102D1000492102EA16E098EFE92E95E0F92E84EFBA
:102D2000C82E85E0D82EC0E0D0E0D6016D916D01AF
:102D3000F801EC0FFD1F70E0D7018C9120814CE76A
:102D40005DE190E00E9449212196C430D10569F7E8
:102D50000C5F1F4FBFEFEB1AFB0AE6E0023B1E07BA
:102D6000F1F681E080931606109217068CE490E04D
:102D7000909313068093120680E390E090931506DB
:102D80008093140660919D0670919E0680919F0627
:102D90009091A0064AE0DF91CF911F910F91FF9093
:102DA000EF90DF90CF900C94EC21CF93DF930E94B3
:102DB00078160E947C1440E36FE070E087E290E0B8
:102DC0000E94BB2340E36DE270E087E290E00E9446
:102DD000BB2321E049E162E170E084E290E00E94DF
:102DE000572221E049E162E170E089E590E00E942C
:102DF000572241E062E170E087E290E00E94072301
:102E000042E062E170E086E590E00E94072344E042
:102E10006AE270E086E590E00E94072348E06AE2FB
:102E200070E087E290E00E940723C8E2D0E020E053
:102E30004DE160E170E0CE010E9457222196C63537
:102E4000D105A9F726E130E041E063E170E085E5D6
:102E500090E00E94832226E130E042E063E170E0EE
:102E600088E290E00E94832281E08093160610920F
:102E70001706C0E3D0E0D0931306C093120682E198
:102E800090E0909315068093140682EB91E00E94E7
:102E90004721D0931306C09312068BE190E09093E4
:102EA00015068093140689EB91E00E944721D09388
:102EB0001306C093120684E290E090931506809367
:102EC00014068EEB91E00E94472180E10E943C2194
:102ED000882329F08091EE01823008F45AC080E8FE
:102EE0000E943C21882321F08091EE01811155C080
:102EF0008091EE01811118C088E290E09093130652
:102F00008093120682E190E0909315068093140658
:102F100083EC91E00E94472184E00E943C218823B9
:102F200009F43FC083E018C08130C9F488E290E022
:102F300090931306809312068BE190E09093150610
:102F40008093140683EC91E00E94472184E00E9464
:102F50003C21882331F186E08093760622C08230BE
:102F600001F588E290E0909313068093120684E2C4
:102F700090E0909315068093140683EC91E00E94F4
:102F8000472184E00E943C21882359F01092760664
:102F900008C08F5F8093EE01A2CF81508093EE0135
:102FA000A7CFDF91CF910895AF92BF92CF92DF92DA
:102FB000EF92FF920F931F93CF93C0E00E94781679
:102FC00098EFC92E95E0D92EA12CB12C84EFE82ED4
:102FD00085E0F82E00E010E0C8018A0D9B1DFC0181
:102FE000E752FE4F208121110FC0FC01EE55F94F31
:102FF000D7016C9170E0D6018C9120814CE75DE1A6
:1030000090E00E9449210BC0F701608170E0D60179
:103010008C912C2F48E759E190E00E9400200F5F2F
:103020001F4FBFEFEB1AFB0A04301105A9F6E4E0CD
:10303000AE0EB11CFFEFCF1ADF0A80E1A816B10473
:1030400029F60E9495216AE070E080E090E00E94FD
:103050008925CF5FC03109F0B1CF80E090E0FC015D
:10306000E752FE4F10821182128213820496803141
:103070009105A9F7CF911F910F91FF90EF90DF90ED
:10308000CF90BF90AF9008958F929F92AF92BF92D2
:10309000CF92DF92EF92FF920F931F93CF93DF9324
:1030A00000D000D0CDB7DEB70E947C1480E80E942B
:1030B0003C21882309F407C10DEC11E049ED51E0F2
:1030C00062EA76E0480191E0B3E0EB2E84E0B82EAE
:1030D000B00EFB0120E030E08191813031F4F080CE
:1030E000A2E0DA2EFD100EC006C0823059F4F08046
:1030F000A1E0FA1207C06F01B1E0CB1AD108D601E6
:10310000EC920CC0F0808F1111C0833078F06F0109
:10311000B1E0CB1AD1088F5FD6018C931082D40115
:103120009C936A01C20ED31ED6010CC081110BC044
:10313000FF2049F06F01B1E0CB1AD108D601FC9213
:103140001082D4019C932F5F3F4F2330310521F62D
:10315000BFEF8B1A9B0A4C5F5F4F6C5F7F4FB810BD
:10316000B8CF0E94D41719821A821B821C8220E0D9
:1031700080E0F80191918F01992341F0E1E0F0E0C6
:10318000EC0FFD1FE20FF11D80832F5F8F5F8430F6
:1031900081F7222309F497C030E021503109032E32
:1031A000000C440B550B60E070E0CB010E94EB2457
:1031B00080919B0670E0E0E1CE2ED12C823009F4A4
:1031C0003EC001E010E00C0F1D1F060F171FD801B5
:1031D000EC90F12CE0919C06F0E0E157F94F8091E2
:1031E000F705B601680F711DD701A850BA4F8C9131
:1031F00020814CE75DE190E00E9400200E9478165B
:103200000E9495216AE070E080E090E00E948925AC
:10321000B1E0CB1AD108D9F680919C06F701EE0FE8
:10322000FF1FEE0FFF1FEE55F94FA82FB0E0A1577B
:10323000B94F9C9193838F5F80939C063CC0EE2492
:10324000E394F12CEC0EFD1EE60EF71EF701008153
:1032500010E0E091E901F0E0E45EFE4F8091F705B7
:10326000B601680F711DD801A850BA4F8C9120810A
:103270004CE75DE190E00E9400200E9478160E94D9
:1032800095216AE070E080E090E00E948925F1E0FD
:10329000CF1AD108D9F6000F111F000F111FF80126
:1032A000EE55F94FA091E901B0E0A45EBE4F8C91BC
:1032B000838310929B061092CD011092CE01109242
:1032C000CF011092D00180E10E943C21882309F4B3
:1032D000FAC081EDE82E81E0F82E69ED71E0A701DA
:1032E00000E010E091E023E0C22E0C5F1F4FF801D8
:1032F000EE55F94F20E030E08291DF0111978130E7
:1033000029F4DC906894BB24B1F805C0823039F40C
:10331000DC90BB24B394DB1002C0C08207C0DC90F9
:103320008D110DC0833058F08F5F80831C92DA01BD
:103330009C93DB01A20FB31F13969C9308C08111CD
:1033400006C0DD2021F0D0821C92DA019C9321502E
:1033500031092D3FBFEF3B0779F64F5F5F4F6C5F41
:103360007F4F0031110509F60E94D41719821A8285
:103370001B821C8220E080E0F70191917F0199235C
:1033800041F0E1E0F0E0EC0FFD1FE20FF11D808362
:103390002F5F8F5F843081F7222309F494C030E0DF
:1033A00021503109032E000C440B550B60E070E0F6
:1033B000CB010E94EB2480919B06C62ED12C82303B
:1033C00039F481E090E08C0F9D1FC80ED91E3EC0DD
:1033D000A1E0B0E0AC0FBD1FCA0EDB1ED601EC9120
:1033E000EE2EF12CE0919C06F0E0E157F94F609150
:1033F000F40570E0601B710BD701A850BA4F8C9197
:1034000020814CE75DE190E00E9400200E94781648
:103410000E9495216AE070E080E090E00E9489259A
:1034200001501109D9F680919C06F701EE0FFF1F9C
:10343000EE0FFF1FEE55F94FA82FB0E0A157B94F7F
:103440009C9190838F5F80939C0635C0D601EC9150
:10345000EE2EF12CE091E901F0E0E45EFE4F609188
:10346000F40570E0601B710BD701A850BA4F8C9126
:1034700020814CE75DE190E00E9400200E947816D8
:103480000E9495216AE070E080E090E00E9489252A
:1034900001501109D9F6F701EE0FFF1FEE0FFF1FC4
:1034A000EE55F94FA091E901B0E0A45EBE4F8C91BA
:1034B000808310929B061092D1011092D20110923B
:1034C000D3011092D40180E20E943C21882309F4A8
:1034D00015C169EDE62E61E0F62E60E070E091E046
:1034E00053E06C5F7F4FFB01EE55F94F05ED11E0A6
:1034F000580120E030E06F01B4E0CB1AD108D601CA
:103500008C914081813019F4423041F404C0823002
:1035100029F4413019F4D6015C9307C084130DC01F
:10352000833058F08F5FD6018C931082D5019C9325
:103530006701C20ED31ED60108C0811107C0442303
:1035400029F0D6014C931082D5019C932F5F3F4FF9
:103550003196BFEFAB1ABB0A2430310561F6E4E0C7
:10356000EE0EF11C6C30710509F0BBCF0E94D41730
:1035700019821A821B821C8220E080E0D8019D9172
:103580008D01992341F0E1E0F0E0EC0FFD1FE20F27
:10359000F11D80832F5F8F5F843081F7222309F430
:1035A000ADC030E021503109032E000C440B550B07
:1035B00060E070E0CB010E94EB2480919B0670E0FC
:1035C00050E1E52EF12C01E010E00C0F1D1F060F5D
:1035D000171F823009F446C0F801C080D12CE09159
:1035E0009C06F0E0E157F94FD601AC50BA4F6C9110
:1035F00070E08091FB0520814CE75DE1D701A80FC9
:10360000B11DCD010E94002042E4A42EB12C20E087
:1036100040E460E070E0C5010E945722BFEFAB1AA2
:10362000BB0AE2E5AE16B10491F70E9478160E943B
:1036300095216AE070E080E090E00E948925F1E049
:10364000EF1AF10849F680919C06F601EE55F94F04
:10365000A82FB0E0A157B94F9C9194878F5F8093BA
:103660009C0644C0D801CC90D12CE091E901F0E057
:10367000E45EFE4FD601AC50BA4F6C9170E0809181
:10368000FB0520814CE75DE1F701E80FF11DCF015B
:103690000E94002032E4A32EB12C20E040E460E040
:1036A00070E0C5010E945722FFEFAF1ABF0A82E502
:1036B000A816B10491F70E9478160E9495216AE03D
:1036C00070E080E090E00E94892591E0E91AF1081D
:1036D00049F6D601AE55B94FE091E901F0E0E45E5C
:1036E000FE4F80811C968C9310929B061092D50100
:1036F0001092D6011092D7011092D80180E40E9456
:103700003C21882309F4F6C065EE71E08EEAE82ECC
:1037100086E0F82E91E023E0C22E0AEE11E0A80127
:10372000F70120E030E08081DF011497813029F437
:10373000DC906894BB24B1F805C0823039F4DC9089
:10374000BB24B394DB1002C0C08207C0DC908D1193
:103750000BC0833048F08F5F80831C92DA019C930A
:10376000DB01A20FB31F07C0811106C0DD2021F0CD
:10377000D0821C92DA019C932F5F3F4F31964F5FAE
:103780005F4F2430310579F664507109B4E0EB1ACB
:10379000F108E1E0693D7E0709F0BFCF0E94D41730
:1037A00019821A821B821C8220E080E0D8019D9140
:1037B0008D01992341F0E1E0F0E0EC0FFD1FE20FF5
:1037C000F11D80832F5F8F5F843081F7222309F4FE
:1037D00091C030E021503109032E000C440B550BF1
:1037E00060E070E0CB010E94EB2480919B0670E0CA
:1037F000823009F43DC020E1E22EF12C01E010E01E
:103800000C0F1D1F060F171FF801C080D12CE0916F
:103810009C06F0E0E157F94FD601AC50BA4F6C91DD
:1038200070E08091F80590E020814CE75DE18E1911
:103830009F090E9400200E9478160E9495216AE04C
:1038400070E080E090E00E948925F1E0EF1AF10835
:10385000D9F680919C06F601EE55F94FA82FB0E0FD
:10386000A157B94F9C9190838F5F80939C063AC07B
:1038700090E1C92ED12C01E010E00C0F1D1F060FA6
:10388000171FD801EC90F12CE091E901F0E0E45E23
:10389000FE4FD701AC50BA4F6C9170E08091F805A3
:1038A00090E020814CE75DE18C199D090E94002089
:1038B0000E9478160E9495216AE070E080E090E016
:1038C0000E948925B1E0CB1AD108D9F6D701AE55AF
:1038D000B94FE091E901F0E0E45EFE4F80818C9306
:1038E00010929B061092EA011092EB011092EC01EB
:1038F0001092ED0184E00E943C21882319F084E0BD
:10390000809376060E94781642EA56E0A4E060E0D2
:1039100070E0CB0120E030E0FA01E20FF31FE0811C
:10392000B4E0EB9FF0011124E95DFE4FC080D1802F
:10393000E280F3806C0D7D1D8E1D9F1D2F5F3F4F1C
:103940002430310549F7A1504C5F5F4FA111E2CF00
:1039500060939D0670939E0680939F069093A006A9
:1039600021E020931606109217062CE430E03093E5
:1039700013062093120620E330E0309315062093BF
:1039800014064AE00E94EC2189EAE82E86E0F82E2F
:1039900040E0F70133972FEA36E090E087010450CA
:1039A0001109433031F1933069F1BF01645071095D
:1039B000DB018C916F5F7F4F813029F4DB015C91DB
:1039C000523041F448C0823061F4DB015C915130E7
:1039D00029F441C05081523021F43DC05081513012
:1039E000D1F1DB015C91851302C08330A0F55081D9
:1039F00016C09330C1F0B90161507109DB018C919F
:103A0000D90103C0D8018C91D7015C91813019F4A0
:103A1000523029F420C0823011F45130E1F0851386
:103A200002C08330C0F4BF0164507109DB018C9186
:103A3000882389F09F5F31962F5F3F4F943009F0C4
:103A4000B0CF4F5FB4E0EB0EF11C443009F0A1CFD2
:103A500085E0809376060F900F900F900F90DF9186
:103A6000CF911F910F91FF90EF90DF90CF90BF907B
:103A7000AF909F908F900895EF92FF920F931F93B6
:103A8000CF93DF931F92CDB7DEB77C01FC0100819D
:103A90001181C80169830E94C5306981681719F0D6
:103AA000C8010E94CD30C7010F90DF91CF911F91C7
:103AB0000F91FF90EF9008952F923F924F925F9257
:103AC0006F927F928F929F92AF92BF92CF92DF922E
:103AD000EF92FF920F931F93CF93DF9300D000D00C
:103AE000CDB7DEB74A013901F02E4C2DA02E000FC4
:103AF000BB088C010A0D1B1D101611060CF0CBC162
:103B0000803891050CF0C7C19B012E0D311DE7FCDB
:103B10003A95121613060CF0BEC1603471050CF014
:103B2000BAC18114910409F4B6C19B0177FF04C0A6
:103B300022273327261B370B2770FB0177FD37968B
:103B400053E0F595E7955A95E1F73E2F77FF07C0CB
:103B5000222329F03FEF3E0F58E0521B252F97FFFD
:103B600005C0EE27FF27E81BF90B02C0E0E0F0E0FC
:103B7000003811051CF050E8581B01C05F2D5E1B7A
:103B8000632F032E000C770B3F3F1CF4062F00958C
:103B900001C000E01E2D177817FF03C01150186FE9
:103BA0001F5FDD24D39411160CF0D12C1E2DE7FCE1
:103BB000195FE12EE594E594E594ED0C6E0D711D11
:103BC000693071051CF068E0E62EE31AE01A300F48
:103BD000632F70E83703800D911D11248E0F9F1FF6
:103BE0007F2D7003800111240E0F1F1F800E911E68
:103BF0006114710419F0D301A00FB11FE1E0F0E0EE
:103C00003F01022E02C0660C771C0A94E2F7433093
:103C100009F4FAC090F44130C9F0423009F03BC1D8
:103C20004FEF469DD001479DB00D1124A095B09552
:103C3000BC83AB837C813E0D2BC04A3F29F04B3FB8
:103C400009F029C13E0D87C03E0D52C03E0DC6C0D1
:103C5000F401EC0DFD1DE491E69D2001E79D500C63
:103C600011245A82498267FD05C0F80140814A2328
:103C7000442A4082211115C0FFEFCF1ADF0A0F5FDF
:103C80001F4FC51628F36F5F8A0C9B1C80589F4FEF
:103C9000631709F400C18C010C501E4FC12CD12CAC
:103CA000F0CF67304CF7F801E058FF4F40814723D1
:103CB000FA804F294083E0CFF401E00FF11FE49137
:103CC000E69D6001E79DD00C1124DA82C98267FD70
:103CD00003C04C91C42ACC92211113C00F5F1F4F17
:103CE0001196051748F36F5F8A0C9B1C80589F4FF5
:103CF000631709F4D0C0DC01AC50BE4F00E010E007
:103D0000F0CF67305CF7FD01E058FF4F70814A81CA
:103D1000472B4083E3CFF401EC0DFD1DE491E69DBC
:103D2000D001E79DB00D1124BA83A98367FD05C0BA
:103D3000A095F8014081A423A083211115C0FFEFB5
:103D4000CF1ADF0A0F5F1F4FC51628F36F5F8A0C6B
:103D50009B1C80589F4F631709F49DC08C010C5029
:103D60001E4FC12CD12CF0CF67304CF7F801E05832
:103D7000FF4F4A814095708147234083E0CFFD018A
:103D8000E00FF11FE491E69D2001E79D500C112406
:103D9000409450945C824B82F401E00FF11FE49157
:103DA000E69D1001E79D300C11243A82298267FDBF
:103DB00005C0F6014081442224282082211118C028
:103DC0000F5F1F4FFFEFCF1ADF0A0517C0F26F5FBB
:103DD0008A0C9B1CAA0DBB1D80589F4F631709F4CA
:103DE0005AC0FC01EC50FE4F6F0100E010E0EDCF37
:103DF000673034F7F601E058FF4F70814C8147235C
:103E00007A81472B4083DCCF652F70E0800E911EB6
:103E1000DC01AC50BE4F8C589D4F00E810E0061BF3
:103E2000170BA61AB70AAA0CBB1C6B817C81E9810F
:103E3000FA81F52ED12CAF015F2CCE2CF401CF935B
:103E4000DF93C82FD92F45916591222361F0469DBC
:103E5000402D512D669D602D37302CF4D880109464
:103E6000D120D52AD992DC9033231AF06095D6223E
:103E7000D42ADD92FA9439F7EA9451F0F52C33956F
:103E80001124EA0DF11DA00FB11DC00FD11DDBCF14
:103E9000DF91CF9111240F900F900F900F90DF9131
:103EA000CF911F910F91FF90EF90DF90CF90BF9037
:103EB000AF909F908F907F906F905F904F903F90CA
:103EC0002F900895009769F0FC0101900020E9F718
:103ED0003197AF01481B590BBC018CEF95E00C9456
:103EE0002E2480E090E008958F929F92AF92BF922F
:103EF000CF92DF92EF92FF920F931F93CF93DF93B6
:103F00005C016B018A0180910701882309F45EC07E
:103F10008091F201882309F459C08091F00180FF5B
:103F200005C08091E00082608093E000E8018AEFA4
:103F3000F82E93E0E92E2FE3822E3AE3932E20977A
:103F400009F43DC08FB7F894E092E9009091E80041
:103F500095FF06C09091F200282D291B922F01C0D9
:103F600090E08FBF91110AC0FA94FF2079F161E0CF
:103F700070E080E090E00E948925E1CF292F30E0B9
:103F8000C217D3070CF49C2F8FB7F894E092E90086
:103F90002091E80025FF11C0292F30E0C21BD30B70
:103FA000F601915020F041914093F100FACFC20EFA
:103FB000D31E9091E80095FF13C08FBFC0CF5D98CE
:103FC00084E68093EF011016110644F081E090E042
:103FD000F5019383828380E090E005C0C80103C0AF
:103FE0009092E800EACFDF91CF911F910F91FF905F
:103FF000EF90DF90CF90BF90AF909F908F900895FB
:10400000CF92DF92EF920F93CF93DF93411551053B
:1040100069F1FA0104913196E4904E5F5F4F2223DB
:10402000F9F0C02FD0E0AE2DA695A695A695EA2F63
:10403000F0E0A1E0B0E03E2D377011F4A0E0B0E078
:10404000AE0FBF1FCA9F6001CB9FD00CDA9FD00C70
:1040500011242C9DF0012D9DF00D11244E0F5F1F9A
:1040600022E0C22E20E030E00E945C1DDF91CF9163
:104070000F91EF90DF90CF9008952F923F924F9243
:104080005F926F927F928F929F92AF92BF92CF92E8
:10409000DF92EF92FF920F931F93CF93DF93CDB7F1
:1040A000DEB728970FB6F894DEBF0FBECDBF5A011A
:1040B000822E912C9C01280D391D37FDC4C08038FB
:1040C00091050CF0C0C09B01200F311D37FDBBC016
:1040D000603471050CF0B7C0AB0177FF04C0442712
:1040E0005527461B570B477055279B0177FF02C08A
:1040F000295F3F4FE3E035952795EA95E1F777FF94
:1041000008C02150310968E070E0DB01A41BB50B49
:10411000AD01602F66956695669570E0077011F0A9
:104120006F5F7F4FDB01A20FB31FBA83A9833901F1
:104130007694762C662477946794680E791EE12C29
:10414000F12C00E010E02301B0E84B0E511C68E0B8
:1041500070E0DB01A41BB50BBC83AB8369817A8162
:104160002617370709F46FC02830310509F46BC0F2
:104170002F3FBFEF3B070CF45BC0B201600F711F14
:10418000DB01AC50BE4FBE83AD83D801A60DB71D79
:10419000AC50BE4F6C0160E070E0681579050CF022
:1041A00047C0E0E8CE16D10409F442C0D7FC34C0C1
:1041B0002F3FFFEF3F0709F442C0FB01EE0DFF1D4B
:1041C000EA0DFB1DE491042E01C0EE0F0A94EAF7FC
:1041D0003C90E329EC9341155105F1F0273031056E
:1041E000D9F0FB01EE0DFF1DEA0DFB1DE4912E2E13
:1041F000312CF1010B8002C0F595E7950A94E2F7A6
:10420000F887EF83ED81FE813080EF81F885E32927
:104210001F01ED81FE8120826F5F7F4FED81FE8166
:104220003196FE83ED83FFEFCF1ADF0A1196B5CFEB
:104230002F5F3F4F00581F4FE80CF91C8FCF4115DF
:10424000510579F6E9CF28960FB6F894DEBF0FBE78
:10425000CDBFDF91CF911F910F91FF90EF90DF9035
:10426000CF90BF90AF909F908F907F906F905F9016
:104270004F903F902F90089520910606282329F40F
:1042800090910506982381E009F480E008950C944C
:10429000621FCF92DF92EF920F93CF93DF9341157E
:1042A000510569F1FA0104913196E4904E5F5F4F38
:1042B0002223F9F0C02FD0E0AE2DA695A695A695A5
:1042C000EA2FF0E0A1E0B0E03E2D377011F4A0E05D
:1042D000B0E0AE0FBF1FCA9F6001CB9FD00CDA9F2A
:1042E000D00C11242C9DF0012D9DF00D11244E0FAA
:1042F0005F1F2AEFC22E20E030E00E945C1DDF919C
:10430000CF910F91EF90DF90CF90089520E084EF50
:1043100091E0B22FB111BFEFFC010024B193B19332
:10432000B193B1930394D1F70895EF92FF920F9355
:104330001F93CF9300E810E0C0E0E12CF12C0E9425
:104340002A2680E10E94542A82E00E94542A8C2F5F
:10435000806B0E94542A0E944226F701EC50FE4FC7
:1043600080818EBDC70101967C01801791074CF4B6
:10437000FC01EC50FE4F20810DB407FEFDCF2EBD99
:10438000F2CF0DB407FEFDCFCF5F00581F4FC830EE
:10439000B1F6CF911F910F91FF90EF900895EF929A
:1043A000FF920F931F93CF93DF937C018C01CFE299
:1043B000D2E0CE010E94C530F80181938F01219691
:1043C000C333F2E0DF07A9F7C701DF91CF911F9157
:1043D0000F91FF90EF9008958F929F92AF92BF92AE
:1043E0000F931F93CF93DF93CDB7DEB7A1970FB68F
:1043F000F894DEBF0FBECDBF19A2423008F44AE0E8
:104400008E010F5D1F4F842E912CA12CB12CA50184
:1044100094010E940D31E62FB901CA010150110922
:10442000EA3014F4E05D01C0E95CD801EC93232B81
:10443000242B252B61F7C8010E94621FA1960FB69D
:10444000F894DEBF0FBECDBFDF91CF911F910F91CA
:10445000BF90AF909F908F900895CF92DF92EF9290
:10446000FF920F931F93CF93DF9300D0CDB7DEB7AA
:104470006C017C010FE212E0F70161917F011A8368
:104480000983CE0101960E943C1D0F5F1F4F03332D
:10449000F2E01F0789F7C6010F900F90DF91CF91CF
:1044A0001F910F91FF90EF90DF90CF900895DF92D2
:1044B000EF92FF920F931F93CF93DF937C01D22E45
:1044C0008B01040F111DEB0177FF0EC0C0E0D0E09F
:1044D0000BC0C417D5077CF42D2DAE01B70180E0C9
:1044E00096E00E94952A2196A801013411058CF3CB
:1044F00040E450E0EECFDF91CF911F910F91FF90FC
:10450000EF90DF9008952F923F924F925F926F92BB
:104510007F928F929F92AF92BF92CF92DF92EF9253
:10452000FF920F931F93CF93DF936C015B01422E99
:10453000EE24E394F12C00E010E0C3E0D0E09AEF29
:10454000892E99249A942EEF622E77247A94842FC0
:104550008170282E33243394340C4270542E0F5F14
:104560001F4F82E0E80EF11C6E0C7F1C2220B9F078
:104570004C2F440F430D20E0B5016C1B7D0BC60191
:10458000800F911F0E94572220E0442D4E0DB5014F
:10459000601B710BC6018C0F9D1F0E945722552076
:1045A000B9F04C2F440F430D20E0B5016C1B7D0B7F
:1045B000C601801B910B0E94572220E0442D4E0D16
:1045C000B501601B710BC6018C1B9D0B0E9457220D
:1045D0000C171D074CF477FCC2CF219782E0880EA0
:1045E000911C680C791CBBCFDF91CF911F910F916B
:1045F000FF90EF90DF90CF90BF90AF909F908F9003
:104600007F906F905F904F903F902F9008952F92E2
:104610003F924F925F926F927F928F929F92AF9252
:10462000BF92CF92DF92EF92FF920F931F93CF939F
:10463000DF937C016B0166246394712C00E010E031
:10464000C3E0D0E09AEF892E99249A942EEFA22EFF
:10465000BB24BA94842F8470282E842F8270482E15
:10466000842F8870382E4170542E0F5F1F4F82E0C8
:10467000680E711CA60CB71C2220B1F021E0A60127
:104680004C0F5D1FB701600F711F80E096E00E9424
:10469000952A21E0A601400F511FB7016C0F7D1F25
:1046A00080E096E00E94952A4420B1F021E0A60126
:1046B0004C1B5D0BB701600F711F80E096E00E94FC
:1046C000952A21E0A601401B510BB7016C0F7D1FFD
:1046D00080E096E00E94952A3320B1F021E0A60107
:1046E000400F511FB7016C1B7D0B80E096E00E94CC
:1046F000952A21E0A6014C0F5D1FB701601B710BCD
:1047000080E096E00E94952A5520B1F021E0A601B4
:10471000401B510BB7016C1B7D0B80E096E00E94A3
:10472000952A21E0A6014C1B5D0BB701601B710BA4
:1047300080E096E00E94952A0C171D074CF4B7FC08
:1047400094CF219782E0880E911CA80CB91C8DCFC4
:10475000DF91CF911F910F91FF90EF90DF90CF905D
:10476000BF90AF909F908F907F906F905F904F9091
:104770003F902F9008959C01240F311D12161306AF
:1047800074F5803891055CF5FC0197FF02C0E0E00C
:10479000F0E02138310514F020E830E02E1BAB01A9
:1047A0004770552781E001C0880F4A95EAF777FFE7
:1047B00002C0695F7F4F93E0759567959A95E1F721
:1047C0007695762F662777956795E60FF71FEC505D
:1047D000FE4F215020F09081982B9193FACF0895AD
:1047E000FC018091F201811103C08FEF9FEF0895CA
:1047F0009FB7F89482E08093E9002091F20030E0C6
:104800001216130614F421E030E02115310559F099
:10481000289884E68093F1018091F1008083809153
:10482000F200882319F09FBFC90108958BE6809399
:10483000E800F9CF80911E0681110DC082E08093BF
:104840001A0684E080931B0610921D0610921C0627
:1048500081E080931E068AE196E00895CF92DF9270
:10486000EF92FF920F931F93CF93DF936C017A0126
:104870008B01C0E0D0E0CE15DF0589F0D8016D9145
:104880008D01D601ED91FC910190F081E02DC601E2
:104890000995892B11F47E0102C02196ECCFC70146
:1048A000DF91CF911F910F91FF90EF90DF90CF900C
:1048B0000895CF93DF9390E0FC01EB5AFF4D2491D4
:1048C000FC01EE57FF4D8491882361F190E0880F41
:1048D000991FFC01E35DFF4DC591D491FC01EC589B
:1048E000FF4DA591B491611109C09FB7F8948881DB
:1048F000209582238883EC912E230BC0623061F4D3
:104900009FB7F8943881822F809583238883EC9118
:104910002E2B2C939FBF06C08FB7F894E8812E2BC7
:1049200028838FBFDF91CF9108953FB7F89480918E
:10493000780690917906A0917A06B0917B0626B50B
:10494000A89B05C02F3F19F00196A11DB11D3FBFC7
:10495000BA2FA92F982F8827820F911DA11DB11D55
:10496000BC01CD0142E0660F771F881F991F4A9551
:10497000D1F7089583B7817F83BF83B7816083BFF9
:10498000889583B78E7F83BF08950E946430CF934C
:10499000DF9300D000D0CDB7DEB76115710581057A
:1049A000910579F09B01AC0169833A834B835C8369
:1049B0000E94B73029813A814B815C810E94DB30B3
:1049C00003C060E070E0CB010F900F900F900F904C
:1049D000DF91CF910895CF92DF92EF92FF920F93E4
:1049E0001F93621773078407950784F489019A015E
:1049F0006B017C01C901B8016C197D098E099F0901
:104A00000E94C7246C0D7D1D8E1D9F1D1F910F914F
:104A1000FF90EF90DF90CF900895362F90E0FC014B
:104A2000E25AF04E4491FC01EB5AFF4D2491FC01F7
:104A3000EE57FF4D8491882309F451C04423E1F1DE
:104A400050E0FA013197EF30F105B0F5E15AFF4F30
:104A50000C945E30909180009F7707C09091800009
:104A60009F7D03C090918000977F9093800024C029
:104A700094B59F7702C094B59F7D94BD1DC0909161
:104A800090009F7707C0909190009F7D03C0909108
:104A90009000977F909390000FC09091C0009F77F7
:104AA00003C09091C0009F7D9093C00005C090917D
:104AB000C200977F9093C200E82FF0E0EE0FFF1F37
:104AC000EC58FF4DA591B4918FB7F894EC9131114A
:104AD00003C020952E2301C02E2B2C938FBF089549
:104AE0001F93CF93DF931F92CDB7DEB7162F682F9A
:104AF00089E049830E940D25612F8AE00E940D25DF
:104B00004981642F8BE00F90DF91CF911F910C941E
:104B10000D258F929F92AF92BF92CF92DF92EF922C
:104B2000FF926B017C010E9495244B015C01C11432
:104B3000D104E104F104F1F00E949524DC01CB01E1
:104B400088199909AA09BB09883E9340A105B105B6
:104B500070F321E0C21AD108E108F10888EE880E4E
:104B600083E0981EA11CB11CC114D104E104F1041E
:104B700019F7DDCFFF90EF90DF90CF90BF90AF900F
:104B80009F908F9008951F920F920FB60F9211244D
:104B90002F933F938F939F93AF93BF9380918406FE
:104BA00090918506A0918606B09187063091770690
:104BB00023E0230F2D3720F40196A11DB11D05C060
:104BC00026E8230F0296A11DB11D2093770680933E
:104BD000840690938506A0938606B09387068091FD
:104BE000780690917906A0917A06B0917B0601969D
:104BF000A11DB11D8093780690937906A0937A0643
:104C0000B0937B06BF91AF919F918F913F912F9170
:104C10000F900FBE0F901F9018958FB12CB193B1CC
:104C200030E02095309520743327A90123E0559575
:104C300047952A95E1F7292F30E02095309520718E
:104C400033273595279535952795242B8095807F9B
:104C5000822B0895E0918206F091830690818091E5
:104C60008106982B9083A0917F06B09180062C91AD
:104C700090917E06909592239C93908180958923B4
:104C800080830895E0917F06F09180069081809165
:104C90007E06892B8083E0918206F09183069081C5
:104CA000809181068095892380830895CF93DF9337
:104CB0001F92CDB7DEB76983DC01ED91FC910280D4
:104CC000F381E02D41E050E0BE016F5F7F4F099519
:104CD0000F90DF91CF91089583E08093E900809158
:104CE000F200882319F08AE38093E8000895FC011C
:104CF0008485958597FD0BC09FB7F89482E08093DB
:104D0000E9008091F2009FBF90E0019608959FB75F
:104D1000F89482E08093E9008091F2009FBF90E0D8
:104D2000089540918D0650918E0620918B0630910A
:104D30008C0642175307B4F49091E8009570E1F3A4
:104D40009091E80092FD19C08093F10080918D064A
:104D500090918E0601968F739927892B19F48EEF07
:104D60008093E80080918D0690918E060196909335
:104D70008E0680938D0681E0089580E00895CF929D
:104D8000DF92EF92FF920F931F93CF93DF931F92C7
:104D9000CDB7DEB7182F062FE42E862F880F8E5F33
:104DA00099830E94912683E00E949126F12EC12EC4
:104DB0009981D92E8C2D8F19801798F4F601E7FE72
:104DC00002C0849101C080810E949126182F80E04A
:104DD0000E9491268123FFEFCF1ADF0A8111EACFCB
:104DE00001C081E00F90DF91CF911F910F91FF9053
:104DF000EF90DF90CF900895DF92EF92FF920F93A4
:104E00001F93CF93DF93D82E8A017B01E40EF51E0A
:104E1000EB01CE15DF0571F0D7FE03C0FE018491D2
:104E200001C088810E94912621968111F2CF8FEFD7
:104E30009FEF01C0C801DF91CF911F910F91FF90AB
:104E4000EF90DF900895615030F02091F100FC0167
:104E500020830196F8CF289884E68093F101089585
:104E6000CF93DF931F92CDB7DEB7FC018485958584
:104E700097FD05C02FEF3FEF358724870BC0CE018C
:104E800001960E94F023019719F4898190E002C0F5
:104E90008FEF9FEF0F90DF91CF9108950F931F93A6
:104EA000CF93DF931F92CDB7DEB78C01FC018485D1
:104EB000958597FF0EC0CE0101960E94F0230197C1
:104EC00019F4298130E002C02FEF3FEFF801358758
:104ED0002487F801848595850F90DF91CF911F91EC
:104EE0000F9108950F931F93CF93DF931F92CDB728
:104EF000DEB782E0898342E450E060ED70E280E852
:104F00000E94FC260E941A24DC0112960D911C912D
:104F100013970115110569F0D801ED91FC910280FC
:104F2000F381E02DBE016F5F7F4FC801099597FFA8
:104F300007C089810F90DF91CF911F910F91089544
:104F4000F80100851185E5CF1F920F920FB60F92E1
:104F500011248F939F938091E1009091E100937FC2
:104F60009093E10083FF0FC01092E90091E09093CD
:104F7000EB001092EC0092E39093ED001092F2019E
:104F800098E09093F00082FF20C093E09093E900B6
:104F90009091F200992319F09AE39093E800909190
:104FA000EF01992339F09091EF0191509093EF0127
:104FB000992389F19091F101992339F09091F101B0
:104FC00091509093F101992341F184FF10C0809199
:104FD000E2008E7E81608093E2008091E1008F7E0E
:104FE0008093E1008091F0018E7E806111C080FF8E
:104FF00016C08091E2008E7E80618093E2008091F5
:10500000E1008E7E8093E1008091F0018E7E8160D0
:105010008093F00104C05D9ACDCF289AD6CF9F919E
:105020008F910F900FBE0F901F9018951F920F92A7
:105030000FB60F921124CF92DF92EF92FF920F934F
:105040001F932F933F934F935F936F937F938F9310
:105050009F93AF93BF93EF93FF93CF93DF93CDB71E
:10506000DEB76C97DEBFCDBF1092E9008091E800FB
:1050700083FFFAC168E0CE0145960E94232782EFA4
:105080008093E8008D8987FF05C09091E80090FF2C
:10509000FCCF03C09EEF9093E800982F907609F024
:1050A000C6C09E892F89188D91110CC0803829F4B3
:1050B000809189068093F10002C01092F100109255
:1050C000F10047C1422F50E0512B913051F4811132
:1050D00040C14130510509F03CC1809189068D7F66
:1050E0000BC0933061F4811134C14130510509F096
:1050F00030C1809189068260809389062AC19530EB
:1051000041F48091E80080FFFCCF20682093E30009
:1051100020C1963009F05FC0EB8CFC8C1092E90046
:1051200010928E0610928D06123091F510928C0618
:1051300010928B060E94722799E0BE016F5F7F4F2D
:10514000DB01E92F1D92EA95E9F799831A8391E033
:105150009E8390EA98879AEF998720918D063091E7
:105160008E06275F3F4F3C832B838D831092E9008F
:1051700010928E0610928D06F0928C06E0928B06AD
:1051800049E050E080E00E94FC260E947227E1C0C6
:10519000F0928C06E0928B060E941A24DC01129693
:1051A000ED90FC901397E114F10409F4C0C0D7010D
:1051B000ED91FC910480F581E02DBE016B5E7F4F87
:1051C000C7010995009719F00CF0C3C0C6C0F701DC
:1051D000E084F184E8CF973009F4BFC0983021F41F
:1051E00081E08093F100B5C0993009F0B2C08370BE
:1051F00009F0B3C0E4E8F1E081E021E036E390811A
:10520000992361F08093E9002093EB0091919093B2
:10521000EC003093ED008F5F873089F78EE7809345
:10522000EA001092EA008F898093F20192C08B8D80
:105230009C8D1092E90010928E0610928D0690932C
:105240008C0680938B06898D811156C08E899D892D
:10525000913A59F4813209F080C047E050E060E0B3
:1052600071E080E00E94FC2674C0913209F075C0A4
:10527000833289F4888D90E0982F88272F89822B9C
:10528000A0E0B0E08093080190930901A0930A0187
:10529000B0930B015EC0803269F48091E80082FF18
:1052A000FCCF67E080E091E00E9423278BEF8093A2
:1052B000E80006C0823209F04CC08F898093070154
:1052C00080918806882319F0EEEFFAE002C0E0E052
:1052D000F8E08091000190910101A0910201B0914C
:1052E0000301803B9440A105B10509F088C080917D
:1052F000070180FFA0C083C00E941A24DC0112961F
:105300000D911C9113970115110539F1D801ED91FB
:10531000FC910190F081E02DBE016B5E7F4FC801D2
:105320000995811116C0F80100851185ECCF113067
:10533000C1F0133091F48F89882309F455C082306D
:10534000E9F440E860E182E291E20E94BF2688230E
:1053500021F08EEF8093E80087C081E28093EB001C
:1053600083C08B8D9C8D089711F410938A068091D1
:105370008A06811136C063E371E238C0813029F4B6
:1053800040E86BE086E191E2E0CF833031F70E94A4
:105390001A24DC011296ED90FC9013978E010F5F9A
:1053A0001F4F6801E114F10479F0D701ED91FC91F0
:1053B0000680F781E02DB801C7010995080F111D7E
:1053C000F701E084F184EECFD8011C92F601019040
:1053D0000020E9F73197BF016C197D0940E0C60153
:1053E000B4CF65E471E202C062E171E2611571055A
:1053F00009F4B3CFFB01449150E080E833CF0FB6FE
:10540000F894A89580916000886180936000109264
:1054100060000FBEA895EE3F2AE0F20739F08091B8
:10542000FE0A9091FF0A9183808393CF1092FF0A26
:105430001092FE0A8ECFEE3F8AE0F80731F08081AD
:1054400091819093FF0A8093FE0A87E797E7918303
:1054500080839BE088E10FB6F894A8958093600064
:105460000FBE9093600075CF6C960FB6F894DEBFB8
:105470000FBECDBFDF91CF91FF91EF91BF91AF9163
:105480009F918F917F916F915F914F913F912F915C
:105490001F910F91FF90EF90DF90CF900F900FBE74
:1054A0000F901F90189508958EBD00000DB407FE53
:1054B000FDCF8EB508950F931F93CF93DF9300D048
:1054C0001F92CDB7DEB7182F062F61E08BE04B831C
:1054D0000E940D2568EC70E080E090E00E94892534
:1054E00060E0802F0E940D2582E090E09A838983FE
:1054F0004B81642FCE0101960E943C1D64EF71E048
:1055000080E090E00E94892561E0802F0E940D25B7
:105510000E940D2681238117D9F30F900F900F90D1
:10552000DF91CF911F910F9108956038710518F5A3
:105530004034510500F5E42FE695E695E695F0E058
:1055400047705527F695FE2FEE27F795E7956E0FD6
:105550007F1FFB01EC50FE4F81E090E001C0880FFF
:105560004A95EAF7222319F09081892B03C0809590
:1055700090818923808308952F923F924F925F926A
:105580006F927F928F929F92AF92BF92CF92DF9253
:10559000EF92FF920F931F93CF93DF93CDB7DEB7B8
:1055A0002A970FB6F894DEBF0FBECDBFFC016A305C
:1055B00069F4248D808D918D38E0239F800D911D9D
:1055C0001124918F808F178A168AB0C06D3009F42C
:1055D000ADC09A878987E48C338D828D8983208C36
:1055E000318C0689178900381105C4F0A985BA8560
:1055F0005C962C915C97422F50E056968D919C9131
:105600005797B6E02B9F800D911D1124E985FA85EF
:10561000978B868B258D211173C088C0F0E42F16DF
:10562000310424F7C80125E0E29E800D911D11246C
:1056300018161906DCF68E2D90E09B838A83C10133
:10564000A8E0EA9E800D911D11241816190674F623
:1056500025E0629FF0011124FD83EC83C12CD12C45
:1056600089859A8504969F838E8395E0C916D10417
:1056700041F0EC81FD81EC0DFD1DE95AFE4DF490E9
:1056800001C0F12C310188E0482EF0FC02C0532EFD
:1056900001C0598051100CC0A9813A1309C0F69479
:1056A0004A94EA81FB816E0E7F1E4110EECF1BC033
:1056B00058018A2D801B8E1590F74301882D86197D
:1056C0008E1568F4252DA401B5018E819F81388740
:1056D0000E94952AFFEF8F1A9F0A3885EFCF2FEF90
:1056E000A21AB20AE6CF8FEFC81AD80AAA81BB81E4
:1056F0000A0F1B1FB6E0CB16D10409F0B6CF76CF48
:105700006AEF64039001659F300D112420583F4FCC
:10571000281739075CF4A985BA85ED91FC9111979A
:105720000190F081E02D6AE0CD01099581E090E0E3
:105730002A960FB6F894DEBF0FBECDBFDF91CF9192
:105740001F910F91FF90EF90DF90CF90BF90AF909F
:105750009F908F907F906F905F904F903F902F9091
:1057600008950F931F93CF93DF9300D0CDB7DEB78B
:105770008B01FB0160819A838983CE0101960E948F
:105780003C1DC8010F900F90DF91CF911F910F9199
:105790000895EF92FF920F931F93CF93DF9300D062
:1057A00000D0CDB7DEB70E94781601E410E021E00A
:1057B00046E260E070E0C8010E9457220F5F1F4F71
:1057C0000B371105A1F71092160611E0109317067A
:1057D00089E4E82EF12CF0921306E092120683E0A1
:1057E00090E0909315068093140682E0809318064B
:1057F0008FE991E00E944721F0921306E092120691
:1058000084E190E0909315068093140685EC91E076
:105810000E944721109318062091A10642EA56E003
:1058200034E080E090E0FA01E80FF91F608126176C
:1058300008F4262F019684309105A9F731504C5F6A
:105840005F4F3111EECF2093A10619821A821B827D
:105850001C82CE0101960E94CF2140919D0650915D
:105860009E0660919F067091A00689819A81AB8106
:10587000BC8184179507A607B70750F48DE996E019
:105880000E942D2261EA76E083E392E00E94B12B30
:105890008CE00E943C218111109276060F900F90AF
:1058A0000F900F90DF91CF911F910F91FF90EF908C
:1058B00008950C94CD30EF92FF920F931F93CF93E6
:1058C000DF9360919C0681E192E00E94592C6091E7
:1058D0009B0682E192E00E94592C0FE816E0C3E19A
:1058E000D2E0F80161918F01CE010E94592C2196DE
:1058F000CF31F2E0DF07A9F782EAE82E86E0F82E42
:1059000010E0C0E0D0E0F701EC0FFD1F8C2F810FFD
:1059100090E06081815E9D4F0E94592C2196C43099
:10592000D10589F71C5F84E0E80EF11C103149F7BE
:1059300010927606DF91CF911F910F91FF90EF901B
:1059400008950C94C530E6E2F6E01382128288EEE8
:1059500093E0A0E0B0E084839583A683B78387E6D5
:1059600091E0918380838FEF9FEF95878487ECEFA1
:10597000F5E0138212821186128680E183871086F9
:105980001782108A118A128A138A148A27E731E053
:105990003183208321E831E035832483178A168AF6
:1059A000118E108E91E0928F138E948F158EE8EFEA
:1059B000F5E01082818320E2228390E39383E4EF79
:1059C000F5E010828183228393830895CF93DF9340
:1059D00000D000D0CDB7DEB7789484B5826084BDA6
:1059E00084B5816084BD85B5826085BD85B58160E3
:1059F00085BD80916E00816080936E001092810061
:105A0000809181008260809381008091810081601B
:105A100080938100809180008160809380008091DC
:105A200091008260809391008091910081608093C9
:105A30009100809190008160809390008091C100DE
:105A400084608093C1008091C10082608093C10016
:105A50008091C10081608093C1008091C30081600A
:105A60008093C3008091C00082608093C0008091C9
:105A7000C20081608093C20080917A00846080932C
:105A80007A0080917A00826080937A0080917A0017
:105A9000816080937A0080917A00806880937A0098
:105AA0001092F201109289061092F0018091D700B5
:105AB00081608093D70080EA8093D80089B58061A7
:105AC00089BD89B5826089BD09B400FEFDCF61E062
:105AD00070E080E090E00E9489258091D8008F7C62
