:100000000C946C120C9494120C9494120C94941200
:100010000C9494120C9494120C9494120C949412C8
:100020000C9494120C9494120C94C1290C94332ABD
:100030000C9494120C9494120C9494120C949412A8
:100040000C9494120C9494120C9494120C94941298
:100050000C9494120C9494120C9494120C94191EF7
:100060000C9494120C9494120C9494120C94941278
:100070000C9494120C9494120C9494120C94941268
:100080000C94111F0C9494120C9494120C949412CE
:100090000C9494120C9494120C9494120C94941248
:1000A0000C9494120C9494120C949412521D551D9D
:1000B000441D481D4C1D761D761D761D591D5D1D68
:1000C000611D671D6B1D761D711D08080000000075
:1000D000000000000000300020100000048000003C
:1000E00020000200081408E2451228100C0E6AF6DF
:1000F000B09060001EB3DFDFB3935F0E00CF30031C
:1001000004186483AA15BF007F4340404040407FED
:1001100000BF15AA3FBF20A120A020A020A020A0A2
:1001200020A03FBF6DFBBF57EDBDDBEE8040608080
:10013000640CF040092A12242748B3CC3C08C4B60A
:10014000249248178E556892640CF142092A1224B1
:100150002748B3CC0000000000403FFFB0536C8242
:10016000640CF1423F08C4B6249248037EE15C422D
:100170003925510A3D7F8000000000003E08C4B4CC
:10018000209000005EE15C423925510A00F804E647
:10019000A26202C220075409A80950130686868C61
:1001A0001CF8F0005017A223A07F7F00AA54FE0283
:1001B000FA0A0A0A0A0A0AFA02FE54AAFEFE0626E9
:1001C00086462606060606060606FEFE6FDFB8B75A
:1001D000B7B7B7B7B7B7B7B7B7B7B7B7B7B7B7B7AF
:1001E000B7B8DF6FFFFFFFFFFF00FFFFE3E3E3E3CD
:1001F000C307FEFCE3E3E3E3E3E3E3E3FCFE07C35F
:10020000E3E3E3E3FFFF00FFFFFFFFFF1010000049
:10021000C020F010F010F010F020C08000000000AE
:100220003F203F203F203F203F203F1000000000A4
:10023000000000000000000000FCFC0000000000C6
:100240000000000000000000003F3F000000000030
:10025000000000000000000000000000000000009E
:10026000181818181818181818181818000000006E
:1002700000FCFC0000000000000000000000000086
:10028000003F3F00000000000000000000001010D0
:10029000FFFFFFFFFFFFFFFFFFFFFFFFFFFFFFFF6E
:1002A000FFFFFFFFFFFFFFFFFFFFFFFFFFFFFFFF5E
:1002B000080800080C7E7E0C0800000203BFBF0384
:1002C00002000080C0E7E7C08000002030F9F9306C
:1002D0002000001818187E3C18001800181818186C
:1002E0007E3C7E3C18000018181818187E3C180038
:1002F00000180010307E7E3010000040C0FDFDC0B0
:100300004000000103E7E703010000040C9F9F0C7D
:10031000040000183C7E181818003C7E18181818A5
:1003200000181818180000183C7E180000183C7EB1
:1003300018180808FFFFFFFFFFFFFFFF08083C7EBB
:1003400066FFDBFFBDFFBDFFDBFF66FF3C7E003CC1
:100350003C7E42FFBDFFC3FF7EFF3C7E003C0000B1
:10036000007E7EFFDBFFFFFF7EFF007E00000000BF
:10037000000000FFFFFFFFFF00FF00000000000083
:10038000007E7EFFFFFFDBFF7EFF007E0000003C63
:100390003C7E7EFFC3FFBDFF42FF3C7E003C1E3F14
:1003A000317F61FFC2FFC2FF61FF317F1E3F001E30
:1003B0001E3F21FFC2FFE1FF3FFF1E3F001E000066
:1003C000003E3EFFC3FFFFFF3EFF003E0000000077
:1003D000000000FFFFFFFFFF00FF00000000000023
:1003E000003E3EFFFFFFC3FF3EFF003E0000001E39
:1003F0001E3F3FFFE1FFC2FF21FF1E3F001E1C10FA
:10040000000000F8F8FC04FE02FFFAFF22FF22FFC2
:10041000FAFF02FFFAFFAAFFAAFF8AFF02FFFAFF14
:1004200082FF82FF82FF02FFFAFF2AFF2AFF3AFFC4
:1004300002FF04FEF8FC00F80006060F091F040F77
:100440000207020702070207020702070207020764
:100450000207020702070207020702070207020754
:10046000020702070207020702070103000100005A
:10047000101004C62E1FEFDE4FD7DE6FE7DE3C10F4
:10048000E00000000D0C615B52A3A3525B610C0DF8
:100490000000088C5C3EDEBC9EAEBCDECEBC78208C
:1004A000C00000010C0C635754A7A75457630C0CF1
:1004B0000100088C5C3EDEBC9EAEBCDECEBC78206B
:1004C000C00000011818435755A7A75557431818DF
:1004D000010004C62E1FEFDECFD7DEEFE7DE3C10B3
:1004E000E00000001918415B53A3A3535B411819A6
:1004F00000001010DEFFFFFFFFFFFFFFFFFFFFFF09
:10050000FEFCF0E0013F3F7FFFFFFFFFFFFFFFFF2B
:100510007F3F3F03101000008080803C6767AFB9C9
:10052000B99F4B8C000000030103B9DDBC0B091B14
:10053000BDDDE303000000008080803C6767AFB949
:10054000B99F4B8C00000003010301BDDCAB011B14
:100550009DEDD30300000000808080BC27A7CFD989
:10056000D99FCB8C000000030103011CBCC11C1DE2
:10057000ECE0010100000080C0C0C05C33B3D7DCF8
:10058000DC97DB9A00000001000100001CA1DC1DCB
:10059000ECE00101000000C060E0405C39B1D3DF55
:1005A000DC9CDB9A0000000000000C5D6C35001D37
:1005B0001CECE10100000080C0C080BC6667AFB9E0
:1005C000B9BF5798000000010019BCDCB403011B3F
:1005D000BDDDE30300000000808000709E9E32724B
:1005E0007E6EB61000000003113BB9DDA80613377C
:1005F000BBDBE20300000000000000709E9E327230
:100600007E6EB610000000060317B9DDA80603379A
:10061000BBDBE2030000008C4B9FB9B9AF67673CBE
:100620008080800000000003E3DDBD1B090BBCDD02
:10063000B90301030000008C4B9FB9B9AF67673C59
:100640008080800000000003D3ED9D1B01ABDCBD6A
:10065000010301030000008CCB9FD9D9CFA727BC91
:10066000808080000000000101E0EC1D1CC1BC1C6A
:10067000010301030000009ADB97DCDCD7B3335C95
:10068000C0C0C0800000000101E0EC1DDCA11C0026
:10069000000100010000009ADB9CDCDFD3B1395C73
:1006A00040E060C000000001E1EC1C1D00356C5D05
:1006B0000C0000000000009857BFB9B9AF6766BCD6
:1006C00080C0C08000000003E3DDBD1B0103B4DC7B
:1006D000BC19000100000010B66E7E72329E9E7042
:1006E0000080800000000003E2DBBB371306A8DDBA
:1006F000B93B110300000010B66E7E72329E9E70F0
:100700000000000000000003E2DBBB370306A8DDA9
:10071000B917030600001010C0E0F0F0FCFFFFFF67
:10072000FFFFFFFFFFFF9E00071F3FFFFFFFFFFFD1
:10073000FFFFFFFFFFF703009EFFFFFFFFFFFFFF2D
:10074000FFFFFCF0F0E0C00003F7FFFFFFFFFFFF3B
:10075000FFFFFFFF3F1F07000208030310100E07F3
:100760000F3ABC3EDECEBEBE3EBC3A0F070E0000C6
:1007700000000D1A53136BBBBA75180000001E0F52
:10078000071DDE1FEFE7DFDF1FDE1D070F1E000066
:100790000000366D6909355D5D3A0C0000000E07FA
:1007A0000F3ABC3EDECEBEBE3EBC3A0F070E000086
:1007B00000006D5A13136BBBBA75180000001E0FB2
:1007C000071DDE1FEFE7DFDF1FDE1D070F1E000026
:1007D0000000366D6909355D5D3A0C0000000000CF
:1007E0000C3E3FCFDEBE3EBEBC7E770F070E0060E4
:1007F00090B87B136B6B2A331D00000000000000D3
:10080000061F9FE7EFDF1FDFDE3F3B070F1E0030B5
:10081000485C3D09155555590E00000000000000C8
:100820000C3E3FCFDEBE3EBEBC7E770F070E0060A3
:1008300090B87B132B2B2A335D6000000000000072
:10084000061F9FE7EFDF1FDFDE3F3B070F1E003075
:10085000485C3D09155555590E0000000000000088
:10086000003CCE1EBEBE7E7E7E7B0707030618249C
:100870003C3C436A2B331A4D00000000000000008E
:10088000001EE70FDFDF3FBF3E3B07070E000C12E5
:100890001E1E011555596D060000000000000000E5
:1008A000003CCE1EBEBE7E7E7E7B0707030618245C
:1008B0003C3C432A2B335A6D4000000000000000EE
:1008C000001EE70FDFDF3FBF3E3B07070E000C12A5
:1008D0001E1E011555596D060000000000000000A5
:1008E0000038DC3C76EEEEECC2FEFE0E0C000000A2
:1008F0000E1C1B52590415450901000000000000A0
:10090000001CEE1EB36FEFDDC3FE7E0E1C00000068
:10091000070E0D296C420A220C00000000000000A6
:100920000038DC3C76EEEEECC2FEFE0E0C00000061
:100930000E1C5B52190415656901000000000000DF
:10094000001CEE1EB36FEFDDC3FE7E0E1C00000028
:10095000070E0D296C420A220C00000000001C0E3C
:100960001EDEECFEFEFEFEFEFEECDE1E0E1C000099
:1009700000050B2305656565230B050000003C1E83
:100980001EE6FFFFFFFFFFFFFFFFE61E1E3C00000D
:10099000000205112A0A6A723105020000001C0ECD
:1009A0001EDEECFEFEFEFEFEFEECDE1E0E1C000059
:1009B00000050B6365551525230B050000003C1E43
:1009C0001EE6FFFFFFFFFFFFFFFFE61E1E3C0000CD
:1009D000000205112A0A6A72310502000000000CAB
:1009E0000EFEFEC2ECEEEE763CDC380000000000AD
:1009F0000000010945150459521B1C0E0000001C83
:100A00000E7EFEC3DDEF6FB31EEE1C000000000083
:100A10000000000C220A426C290D0E070000000C99
:100A20000EFEFEC2ECEEEE763CDC3800000000006C
:100A30000000016965150419525B1C0E0000001CC2
:100A40000E7EFEC3DDEF6FB31EEE1C000000000043
:100A50000000000C220A426C290D0E07000006035C
:100A600007077B7E7E7EBEBE1ECE3C0000000000DF
:100A7000000000004D1A332B6A433C3C2418000E42
:100A800007073B3EBF3FDFDF0FE71E00000000000F
:100A900000000000066D595515011E1E120C0603BC
:100AA00007077B7E7E7EBEBE1ECE3C00000000009F
:100AB000000000406D5A332B2A433C3C2418000EA2
:100AC00007073B3EBF3FDFDF0FE71E0000000000CF
:100AD00000000000066D595515011E1E120C0E0770
:100AE0000F777EBCBE3EBEDECF3F3E0C0000000056
:100AF0000000001D332A6B6B137BB89060001E0F43
:100B0000073B3FDEDF1FDFEFE79F1F06000000000F
:100B10000000000E59555515093D5C4830000E0780
:100B20000F777EBCBE3EBEDECF3F3E0C0000000015
:100B30000000605D332A2B2B137BB89060001E0FE2
:100B4000073B3FDEDF1FDFEFE79F1F0600000000CF
:100B50000000000E59555515093D5C483000101035
:100B60003F1F7FFFFFFFFFFFFFFFFFFFFF7F1F3FD5
:100B70000000007FFFFFFFFFFFFFFFFF7F1C000063
:100B8000000E7FFFFFFFFFFFFFFFFFFFFFFF1F3F85
:100B900070F8FCFFFFFFFFFFFFFFFFFF600000009A
:100BA00000003EFFFFFFFFFFFFFFFFFF7F0F1F1F44
:100BB0003E7F7FFFFFFFFFFFFFFFEFC00000000051
:100BC0000000BCFEFFFFFFFFFFFFFFFFFFFF3E3CFB
:100BD000000F1F7FFFFFFFFFFFFFFFEF010000007F
:100BE0007E3FFFFFFFFFFFFFFFFFFFFFFFFF3F7E97
:100BF0000000070F7FFFFFFFFFFF7F3F0F07000091
:100C00003C3EFFFFFFFFFFFFFFFFFFFFFEBC0000BA
:100C100000000001EFFFFFFFFFFFFFFF7F1F0F003E
:100C20001F1F0F7FFFFFFFFFFFFFFFFFFF3E0000C3
:100C300000000000C0EFFFFFFFFFFFFFFF7F7F3ED0
:100C40003F1FFFFFFFFFFFFFFFFFFFFFFF7F0E00C4
:100C500000000060FFFFFFFFFFFFFFFFFFFCF870D9
:100C600009080006060F0F1F1F3F227F113F091FB3
:100C7000060F00060006060F0F1F1F3F3E7F1F3F97
:100C80000F1F060F00060012127F4FFF53FF1F7F3A
:100C900053FF4EFF107E0010003E3E7F41FF55FF88
:100CA0005DFF7FFF49FF77FF49FF7FFF41FF7FFF28
:100CB0007DFF41FF7DFF3E7F003E0000003E3E7F06
:100CC0007FFF41FF41FF41FF7FFF41FF41FF41FFA8
:100CD0007FFF41FF41FF41FF7FFF3E7F003E00005D
:100CE00009080006060F0F1F1F3F227F113F091F33
:100CF000060F00060006060F0F1F1F3F3E7F1F3F17
:100D00000F1F060F00060012127F4FFF53FF1F7FB9
:100D100053FF4EFF107E0010003E3E7F41FF55FF07
:100D20005DFF7FFF49FF77FF49FF7FFF41FF7FFFA7
:100D30007DFF41FF7DFF3E7F003E0000003E3E7F85
:100D40007FFF41FF41FF41FF7FFF41FF41FF41FF27
:100D50007FFF41FF41FF41FF7FFF3E7F003E0000DC
:100D60000208020700070000000200090F0000034C
:100D70000401000C00000000000000000000000062
:100D80000000000000F0F89C8E8783878E9CF8F0AE
:100D90000000FEFF0303030303070EFCF80000FE40
:100DA000FF0303030303070EFCF80000FFFF00002E
:100DB0000000000000FFFF0000FEFF8383838383A9
:100DC000C7EE7C380000F8FC0E07030303070EFC97
:100DD000F800003F7FE0C08080C0E07F3FFFFF0160
:100DE000010101010101FFFF0000FFFF0C0C0C0CD1
:100DF0001C3E77E3C100007FFFC0C0C0C0C0E070F0
:100E00003F1F00001F3F70E0C0C0C0E0703F1F00E8
:100E1000007FFFC1C1C1C1C1E3773E1C00001F3F7D
:100E200070E0C0C0C0E0703F1F000000000001FF84
:100E3000FF0100000000000000240027002A002D10
:100E4000003000AED580A83FD300408D142002A111
:100E5000C8DA1281CFD9F1DB402EA4A6AF04080274
:100E60000110408040102040804080080204018032
:100E7000402010020110801020404020000000009F
:100E8000250028002B002E00310004040404040374
:100E9000040502020202040302020202060606061A
:100EA00006060404020202040414021302120215CC
:100EB0000207020802090209010A020A010B020BD9
:100EC0000104010C01060100B324962531257C2480
:100ED000FB243526F42C3B2DC21243284C25360822
:100EE000F0FF19191F0F00F8FF19F9FF0780FEFF27
:100EF000D9D90160C6CFF9730160C6CFF97301007B
:100F000000000080FE3F3CFFC30180FEFFD9D901F5
:100F10000083FF7C0F038D2C79256A10C0F0FCFE46
:100F20007E1FCFCFDFCFC6C2000000E0F8FFFF1F5B
:100F3000FFFFFFF8000000F8FFFFFFFFFFFE80E06B
:100F4000FC7FFFFFFFFF1F0000F8FFFFFFDFCFCF99
:100F50004F070000000000C0F0FCFE3E1F0F0FFF17
:100F6000FEFEF800FFFFFFFFFF00E0FEFFFF3F0F68
:100F700001F8FFFFFFDFCFCF4F0700F8FFFFFFFFB4
:100F80008F8FFFFFFE7C1F3F7FFFF8F2F3FFFF7F95
:100F90001F80E0FCFFFF3F1F1CFCFFFFFFFF0080E6
:100FA000FEFFFF7F01FFFFFF7F0FC3FFFFFFFF0378
:100FB0000080FEFFFFFFF7F3F3F3000000000000E6
:100FC000001F7F7FFFF0F0F87C7F3F0F03001FFFC3
:100FD000FFFFFFFFFF3F07010080FEFFFFFFF7F36A
:100FE000F3F300C0FEFFFFFF070FFFFFFFFDC00090
:100FF0003A1000F0FFFFFFFF8F8FFFFFFE7C000025
:10100000E0F8FFFF1FFFFFFFF8000080FFFFFF7FFA
:101010000100F8FFFFFF3F0100F8FEFEFFCF8F1F2A
:101020000F0602F8FFFFFFDFCFCF4F07FCFFFFFFE8
:101030001F070707070381E0FCFFFF3F1F1CFCFFA2
:10104000FFFFFF00003F7FFFFFF0F0FE7F7F3F07C5
:101050004070F8F0F1F3FF7F7F1F0080FEFFFFFF7D
:10106000F7F3F3F300000620C49434044CF8FFFFB8
:1010700000F80C07FF7F0003CEF8080A0B080C07E6
:101080003E2000000000000000F84C043494C4E44A
:10109000E4E46424AC28282C242464E4E4ECECE4A8
:1010A000242CE8E8E82828E82828EC242424242C08
:1010B0007CEC2424E4E42424E4642C2CE42464EC78
:1010C000000000000080C0474CD0803FFFFF87B386
:1010D00038B9D9410000183838B387FFFFFFF8E06E
:1010E000838F83E0F8FF8080FF8181E3C1889CFFCC
:1010F000C0809F9F80C0FFCC88F88382C6FFF0F835
:10110000C09EBFBF3C3898CC073071C0C0437260EE
:101110004C5E525E4C6072434040F1FF80809F9F66
:10112000FFC1C08E80A0FF8080F6F0F0FFF3F3FED9
:10113000FE8E82F0F8FFB0B6B68080FF000101019C
:1011400001000000030604040404003E7F411C3E2D
:101150007F7F7F7F6341633E00040C08080C0C080E
:1011600008181018080808080808080808080808D7
:10117000080808080808080808080B0B0B0B0B0BDD
:101180000B0B0B060606060606060B000000000009
:1011900000000B000000010000000B000100000037
:1011A00001000B000000010000000B000100000026
:1011B00004000B000000010000000B0B0B0B0B0BDD
:1011C0000B0B0606060606060606000000000000D9
:1011D000000003000000010000000000010000000A
:1011E00001000100000001000000000001000000FB
:1011F000010001000000030000000B0B0B0B0B0BA8
:101200000B0B060606060606060B00000000000093
:10121000000B010000000100000B000004000000B2
:10122000000B010000000100000B000001000000A5
:10123000000B010000000100000B0B00010000008A
:1012400001000B000000010000000B000100000085
:1012500001000B000000030000000B000100000073
:1012600001000B000000010000000B000100000065
:1012700001000B0000000100000000000100000060
:10128000010001000000010000000000010000005A
:10129000010001000000010000000000010000004A
:1012A0000100010000000100000000000300000038
:1012B000010001000000010000000000010000002A
:1012C000000B010000000100000B00000100000401
:1012D000000B010000000100000B000001000000F5
:1012E000000B030000000100000B000001000000E3
:1012F000000B010000000100000B0B0001000000CA
:1013000001000B000000010000000B0001000000C4
:1013100001000B000000040000000B0001000000B1
:1013200001000B000000010000000B0000000000A5
:1013300000000B0B0B0B0B0B0B0B00000100000054
:101340000100010000000100000000000100000099
:101350000300010000000100000000000100000087
:10136000010001000000010000000000000000007A
:1013700000000B0B0B0B0B0B0B0B00000100000014
:10138000000B010000000100000B00000100000044
:10139000000B010000000100000B00000100000034
:1013A000000B010000000100000B00000000000025
:1013B000000B0B0B0B0B0B0B0B0B000001000000C9
:1013C0000100010000000100000000000C0E1216D8
:1013D000010001000D0F13170000000001101400A0
:1013E00001000100001115000000000001000000D4
:1013F00003000100000001000000020202020202DC
:10140000020202181A0202181A0202191B02021919
:101410001B02020202020202020202020202050290
:10142000020202181A0202181A0202191B020219F9
:101430001B0202020202020202020B0B0B0B0B0B3D
:101440000B0B06060606060606060202020202024A
:10145000020202020202020202020202020202026C
:10146000020202181A0202181A0202191B020219B9
:101470001B02020202020202020202020202020233
:10148000020202181A0202181A0202191B02021999
:101490001B02020302020203020202020202020211
:1014A000020202020202020202020202020202021C
:1014B00002020B0B0B0B0B0B0B0B020202020202C4
:1014C00002020102030202020402020202020202FA
:1014D00002020202020202020202020202020202EC
:1014E00002030205020202020202020202020402D6
:1014F00002020202020202020202000001000000D7
:10150000000B010000000100000B00000C0E121681
:10151000000B01000D0F1317000B00000110140049
:10152000000B010000111500000B0000010000007D
:10153000000B010000000100000B0B0B0B0B0B0B51
:101540000B0B0626252525252406002727272323E0
:1015500023000127272723232300002021212121E5
:101560002200011C1D1E1F1E1F00000708090A097A
:101570000A00010000000100000001111112395F92
:101580004FF539544445678777780111111235FFBB
:10159000399E02470145677777780111111235FFAF
:1015A0004FFE0244404E677777780BBB11123DAD7A
:1015B0000F253DAA64856CCC77780F1BB1F2393DBD
:1015C000D595390BB295677CC778011111123D3F53
:1015D00002DE3A673EDE6CCC77780F1211F234945B
:1015E000449E0114911267787778011111123F24FB
:1015F00040F5348BB64567777778011111123F14A7
:101600002425394684856777777801111112301FB8
:10161000F195397777856777777802F2F2F2344E71
:10162000444E3E444E45687878780011111231F3EB
:10163000F0F53673467E677776780011111233F62F
:101640008F2536777885677777780F0F0F123434C8
:101650003445313442AE677768C80111111268F120
:10166000F29E3447789E677777780F0F0F023737EF
:10167000373E3949494E677777780810E0FC3E0FCE
:10168000070FFFFE3F7FF8F0F0F87F1F00001CFE01
:10169000FFFF00000000E0FFFF7F6000001C1E074E
:1016A00083C7FF7EF0FCEEE7E3617070000E0F87EA
:1016B000C3E7BF1E70F8F8F0E0F17F3FC0F0FC8F89
:1016C00083FFFEC003030303FFFF7F0000FEFEC78E
:1016D000C7C7C78378F8F0E0E0F17F3FE0F8BCCE01
:1016E000C7C380003F7FF1E0E0F17F3F0E0F0F079F
:1016F000C7F37F0F0000F0FE1F030000007CFEE731
:10170000C3E77F3E3E7FF3E1E1F37F3EFCFE8F07C0
:10171000078FFEFC0001C3E3733D1F070808007C30
:101720007CFEFEFFC7FFE3FF7FFF3E7F003E000021
:10173000000606CFC6FFFFFFFFFF07FF000700C040
:10174000C0E6E6FFF7FFFBFFDFFF0EDF000E000045
:10175000004242E7E7FFDBFFFFFF7EFF007E006005
:1017600060F878FE7EFFE7FFFFFF67FF006700007D
:10177000005050FFDFFFDFFFFBFF73FF00730070BF
:1017800070F8F8FECEFFCFFF7FFF79FF0079008071
:1017900080C3C3F7F3FF7FFF1F7F071F00070070A1
:1017A00070FFFEFFDFFFCBFFFFFF7EFF007E00002C
:1017B000009E9EFFDFFFF3FF3FFF1E3F001E03085A
:1017C000000E000D000F020A080E0A00181B000888
:1017D0000A02000A021E1E00000A00080A00252054
:1017E0003E3C1C0C0683C1E1F1F1F1F1F1E1C3864D
:1017F0000E1E3C70F0F0F0F0F0E000000000000081
:101800000000000000FE83001E3F7FFFFFC18C062A
:10181000064E7C3983FF7E7C68C0810347CF9C3CA9
:1018200078C08000000000000000C06123060C1892
:1018300030612367EF4F0F1F3F7120081C3EFCF9FA
:10184000F0F0FCFEFCF8F0E143860C38F0000006F6
:101850000C183060C08000000002060C1803063C23
:1018600078F2E7CF9FBFBF9FCF6733190C0683E0A5
:10187000387FC0803E40FFFFFFFFFFFFFFFFFFFFFD
:10188000FFFFFFFFFFFFFFFFFFFF7F3FFFFFFFFFA8
:101890007F3F9FC7FFFFFFFFFFFFFFFFFFFFFFFF30
:1018A000FFFFFFFFFFFFFFFFFFFF00FFFFFFFFFF47
:1018B000FF0000FFFFFFFFFFFFFFFFFFFF7F7F7FB6
:1018C0007F7F7F6FE763613486F3FB791DFCFEFF4A
:1018D000FFFF3F8FFFFFFFFFFF3F80C71FFFFFFF9F
:1018E000FFFFFFFFFFFF1FC3F8FFFFFFFF1F01C048
:1018F0007C073FFFFFFFFF7F1F03F8FEF7735919B7
:101900008BC2C6FCF03A8BE1F8FCFFFF3F8FE3F09F
:10191000FCF9FBF3E7E370707363604FCF8F8F2F99
:10192000EFE70398FE7F3F9FCF6330180E03000060
:1019300000818791FCFEF0F8F9F3E7EECCDCD90FDB
:1019400087E3F87E3F9FCFE7F3F8FEFFCF8F0F1FAF
:101950001F3D3C3878787CEFE6F0FCFFFFFF8338D2
:10196000ECC4C6C2C3C18080808000000000F8E3E0
:101970008F3FFFFFFFFF7F7F3F0F87C1CC0673F9CB
:10198000FCFEFFFFFFFFFFFFFFFFFFFFFFFFFEFE6D
:10199000FCFCFCFCFCFFFFFFFFFF7F7F3F9ECCE1D8
:1019A000F3FFFFFF7F3FBFBFBFBFBFBEFFFFFFFE15
:1019B000F8F3E7CF9E3E7F3F1F0F0F07040133E789
:1019C000CF9F3F7FFFFFFFFFFFFFFFFFFFFF7F7FF7
:1019D0007F773783E3F3F3F9FCFFFFFFFFFFFFFFA0
:1019E000FFE04C1D1D0D05010180F9F3F7EFCFDF7E
:1019F000BFBF3F7F7EFCFCF8F8F8F8F8FCFF7F1FC4
:101A0000C7D0DEDC9DB9BB3B7B79FDFCFEFFFFFF51
:101A1000FFFFFFFFFFFFFFFF7F3F1F0F070381C097
:101A2000C06030386CC68381FFFFFFFFFFFFFFFF00
:101A3000FFFFFFFFFFFFFFFFFFFFFFFEFEFFFFFFB8
:101A4000FFFFFFFFFFFFFFFEFEFCFDF9F3F77F3F07
:101A50001F0F07030180C07038180C070301000036
:101A60000000000001032C081F1F1F1F1F0707078E
:101A70001F1F1F011C14151D011F1F03070F1F1F10
:101A80001E001C14151D011F1F1E1E1F1F1F1F01DE
:101A90001D14141C20284040404040404000FFFFDF
:101AA000FFFF833BFB9396F6E6ECECECECCC0C6C86
:101AB000ECECECEC2C2CFEF2F2FE028822007FFF14
:101AC000FFFFFFFCE10D7D4D4D7D7D7D7DFDFDFC2E
:101AD000FFFFFFFFFFFFFFFFFFFFFEF8E28820830D
:101AE0001FFF8F8380808080800080E0F8E0830F7C
:101AF0003FFFFF7F7FFF4F49494F4F4FCFCF6E28AA
:101B000062C8C24842480208031EFFFFFFFFFFFEF3
:101B1000380803020203000000000E1B3166C68075
:101B2000D060311B0E00E0A3E300013F3F3F3330A4
:101B3000303030181878EC8C38F01858D8D8D8D8FD
:101B4000D8D8D8D8D8D8D8D8D8D8D8D89838F0E0D5
:101B500000000080C0E07F7F7C610000E007FFFFA5
:101B6000FFFFFFFFFFF7F7F7F7F7F7F7C70600FFED
:101B7000E0781EC7F1FCFEF8E08038FFFFFEE00FC2
:101B8000FF3F3FFFFFFFFFFDFDFDFD7D7D7C797386
:101B9000610C7F7F7F7F030101C1701F073FFF80C2
:101BA000818181818180C0C0C0C0C0C0C0E060664A
:101BB00066607F404040F8FC6701000303000101BC
:101BC00001F1F9FDFDFD3D3C3CFCFCF8F00000FCA2
:101BD000FCFCFCFC1C1C7030B098D8D8D8D8D8D8E5
:101BE000D8D8D8D898B8307060C0800000C0F0381D
:101BF00098D8D8D89830FEFFFF7F1F070301010156
:101C000081E3FFFFFFFFE7E7FE38033F8FE3F8FEC6
:101C1000FFFFFFFFFFFF7F1F0707070707C7FFFF44
:101C20007F7FFFFFFF3F0F0300E0F8FEFFFFFFFF96
:101C30003F0F071F7FFF40707C7CFC808383838382
:101C400082828383808080E038F8E0808080808298
:101C50008EB8E08080E13CFCFCF8710101E1F9FD07
:101C6000FD3D1D1D9DBDBCBCB880010101010107EA
:101C700067610131797960C0603098CCE673393D95
:101C800065E5FD01FF9E1C38F0E0C000404040408B
:101C9000404040404040FEFCFEFFFFFFFFFEFCE4F2
:101CA000E6FF3F80FFFFFFFFFFFFFFFF0088228866
:101CB0002200FEF2F2FEFFFF7F3F1FFFFFFFFFFF4C
:101CC000FF7F00FFFFFFFFFFFFFFFF0120882208CB
:101CD000E0FFFFFFFFFFC18080C0E0C3C387840C2B
:101CE0000F003F7FFFFFFFFFFFFF0F00024842484A
:101CF0004F4F4F49494F3F0F0F0F07E3A7E7070724
:101D00000F0E0E1C1C191B1F1F1F000606705070A3
:101D10000000000000004020FFFFFF0707E7E76723
:101D20006767676767E7E70707FFFF9F9FFFFF8713
:101D300087FFFF6767E7E7FFFF9F9F67679F9FE753
:101D4000E76767E7E7FFFF0707E7E7676767676733
:101D500067E7E70707FFFFFFFFFFFF00007F7F60E8
:101D600060606060607F7F0000FFFF1919818179EA
:101D7000799F9F1818F9F901019F9F7E7E818161EB
:101D800061E6E60101FFFF00007F7F606060606048
:101D9000607F7F0000FFFFFFFFFFFFE6E6E6E6E66D
:101DA000E6060686867E7E666687878686E1E11879
:101DB00018E1E19E9E87876666797918186767FE45
:101DC000FE8181989887879E9E86861E1EE6E6FE87
:101DD000FEE6E69E9EFFFFFFFFFFFF99991919019E
:101DE000018080FFFF98986666E7E7E7E767676628
:101DF000667F7F61618787606060601E1E8686994E
:101E000099818179791F1F9F9F81819898E7E707C2
:101E100007F9F99F9FFFFFFFFFFFFF1919808086D9
:101E2000861919E1E1E7E766660707F9F918181E50
:101E30001EE0E09E9E1F1F7E7E60608080E7E77947
:101E400079999998989E9E1F1F79799F9F1F1F06C9
:101E500006F9F99F9FFFFFFFFFFFFF60607F7F6133
:101E6000616666616167676666E0E001011E1E8665
:101E7000867F7F6161F8F8E6E67E7E1919E7E77EE6
:101E80007E19190707E7E76666E0E001011E1E06F6
:101E90000681818787FFFFFFFFFFFF0000FEFE0630
:101EA0000606060606FEFE0000FFFF060686861FE3
:101EB0001FE0E09E9E1F1F191960601E1E8787800D
:101EC000809898E0E0070766660707606000006694
:101ED0006601018787FFFFFFFFFFFFE0E0E7E7E61E
:101EE000E6E6E6E6E6E7E7E0E0FFFFE0E0FFFFE04A
:101EF000E0FFFFE1E1F8F8E6E6F8F8F8F8E7E7FFD9
:101F0000FFE7E7F9F9FEFEF8F8E0E0E6E6E0E0E6F4
:101F1000E6F8F8FFFFFFFFFF10081F09091F001F69
:101F20000909170001011F01000A15081F111111ED
:101F3000001F11111F001F11110E001F1515110098
:101F40000A39208E5951D78600001F0505C100DFD0
:101F50005050DF005F51D11FC05F45C50740C744E7
:101F60001C070000002020F8202000000000B8A876
:101F7000A8E8000808F80800F888A8E8834644C5DF
:101F8000810000C244444700C74444C700C54547D8
:101F900040074242C54004C74440C00040C0400022
:101FA000C00000C000C040404000C0000000000071
:101FB0000000000000E3961475610000870404F43B
:101FC00000F70202F700755555D7001010F71010F2
:101FD0000711F11100F4274480F6010106000705FE
:101FE000F5141017047444C07000F09090703865B8
:101FF000455D1800002041417D007D45457D00552F
:10200000557D017C24245D00447C450101000100D4
:1020100000000100010101010001010101000000B7
:10202000010000010000010620C49434044CF8FFB4
:10203000FF00F80C07FF7F0003CEF8080A0B080C1E
:10204000073E2000000000000000F84C043494C457
:10205000E4E4E46424AC28282C242464E4E4ECECD8
:10206000E4242CE8E8E82828E82828EC2424242480
:102070002C7CEC2424E4E42424E4642C2CE4246468
:10208000EC000000000080C0474CD0803FFFFF877D
:10209000B338B9D9410000183838B387FFFFFFF8CB
:1020A000E0838F83E0F8FF8080FF8181E3C1889C1B
:1020B000FFC0809F9F80C0FFCC88F88382C6FFF05E
:1020C000F8C09EBFBF3C3898CC073071C0C0437287
:1020D000604C5E525E4C6072434040F1FF80809FD6
:1020E0009FFFC1C08E80A0FF8080F6F0F0FFF3F369
:1020F000FEFE8E82F0F8FFB0B6B68080FF000101D0
:102100000101000000030604040404003E7F411C9A
:102110003E7F7F7F7F6341633E00040C08080C0C08
:102120000808181018080808080808080808080807
:1021300008080808080808080808081D08FF81BDE5
:102140008989BD81BDADADA581BDA1AF81BD95D54D
:10215000DDC1FFFFFFFFFFFFFFFFFF81BD95D5DD65
:1021600081BDA1AF81BD9595BD81DD91B19DC1FFBF
:10217000FFFFFFFFFFFFFFFF81A5BDA581BD899187
:10218000BD81BD9595C581BDA5A5BD81FFFFFFFFA3
:10219000FFFFFFFFFF81BDA5A5A581BDA5A5BD8151
:1021A000BD8991BD81BD95D5C1FFFFFFFFFFFFFF39
:1021B000FFFF81ADADADB581BD959581A59989A58F
:1021C00081FFFFFFFFFFFFFFFFFFFFFFFFFFFF811B
:1021D000BDA5A5BD81BD959581BD959581FFFFFFED
:1021E000FFFFFFFFFFFFFFFFFFFFFFFF81BDA5A573
:1021F000BD81BD8991BD81FFFFFFFFFFFFFFFFFF95
:10220000FFFFFFFFFFFFFFFF0808000000000000C6
:102210000000080B00020202010009040000010294
:10222000020000052400100105240101010424021C
:10223000060524060001070581031000400904017A
:1022400000020A00000007050202400000070583A3
:10225000024000000403090441726475696E6F2036
:102260004C4C430041726475696E6F204C656F6E13
:102270006172646F001201000200000040412336C9
:102280008000010102030112010002EF020140413E
:1022900023368000010102030138171500170A00D8
:1022A0001202023E17130737001F020015220A26EA
:1022B0001E370D3800190D3E1C2414121E300D0758
:1022C0000005152B00040302000A141D002C1C003D
:1022D0001C2C0A181E1D0C3200021C3E1C24092452
:1022E0000035161E1E1A0B3E16071838000B173E37
:1022F0001C0E1800123B020D1E111102003C023090
:102300001E3C1C1A0014142300030503003B1C2C64
:102310001E090B000B3215000611073B0038160290
:102320001E1804000E22141500150C191E1C141B77
:102330000033183E1C3B1C00033B023E0203050019
:102340001C1802111E20190A000B1403002602009B
:102350001B02123E1C02023E042311131E0C0D3EF2
:102360000C170A2B003C1C00072B1B1F0014062611
:102370001E1F0F1A1E1F0C0C00021C3E1C1F0B08F8
:1023800000021C3E1C0A022A1E19030A0006193A02
:10239000002C1C3B003B021200181D040C2F0B02EA
:1023A0001C3A1C1F1903063C020C122D0C2610109F
:1023B000163204021C38192F0913173C0208101C8E
:1023C0000E370E06022C02021B12123B0F02092DC1
:1023D0000A0B171C143C0202022102021C3B1B2A9E
:1023E0000A040A1F1214142E1B0805341423141097
:1023F0000A3A02391B130A25033B02020A38022952
:102400001C02022802171C3C1C2A0A020215142472
:102410001C3C023313230C021C0202120205021D93
:102420001C33172602370F180A2C0A020502122243
:1024300002021C1D0C3C1C0202341000F8FFFFFFBE
:102440007F0100000000F8FFFFFFDFCFCF4F070044
:10245000FFFFFFFFFF00E0FEFFFF3F0F01F8FFFF60
:10246000FFDFCFCF4F0700F8FFFFFF7F010000FE27
:10247000FFFFFFFFF0F0F01080FEFFFFFFF7F3F328
:10248000F30000001FFFFFFFFFFFFF3F0701008079
:10249000FEFFFFFFF7F3F3F30080FEFFFFFFFFF007
:1024A000F0F0102208C0FFD9D9FF77007CFFC3E10C
:1024B0007F1F80FE0F3FF8FE1F007CFFC3C07C3FE4
:1024C0000160C6CFF97301D12C8D2CA62C8D2C70F8
:1024D0002C8D2C832D002D3111241FBECFEFDAE07F
:1024E000DEBFCDBF27E0A2E4B1E001C01D92A6305F
:1024F000B207E1F711E0A0E0B1E0E0E2F6E602C0E9
:1025000005900D92A234B107D9F712E1CCE6D2E1E1
:1025100004C02197FE010E94C831CB36D107C9F70C
:102520000E94512E0C940E330C9400000F93DC018A
:1025300017968C911797882311F1ED91FC911197C3
:10254000CB01820F911D27FD9A95E817F907BCF47E
:102550003F96E617F7079CF012968D919C91139782
:102560009A01200F311D07FD3A95821793073CF41D
:102570009C01215F3F4F81E0241735070CF480E078
:102580000F9108952F923F924F925F926F927F9298
:102590008F929F92AF92BF92CF92DF92EF92FF9273
:1025A0000F931F93CF93DF93CDB7DEB768970FB626
:1025B000F894DEBF0FBECDBF80913A0690913B06E6
:1025C00064EB70E00E94A0318C01892B09F05CC0A3
:1025D0000E94213220ED31E040E050E00E94AB3219
:1025E0006B017C0120E1C20ED11CE11CF11C0E9498
:1025F000213220ED30E040E050E00E94AB322B0170
:102600003C0130E1430E511C611C711C809124027D
:1026100090912502AC0140585109C416D5067CF0B2
:1026200080589F4F8C159D0554F080912602909103
:102630002702AC0140545109441655061CF4E6E942
:10264000F1E00CC0805C9F4F84159505C4F31CC05D
:102650000F5F1F4F399600311105B1F08081811154
:10266000F7CF89E0809FF001819FF00D1124E157A1
:10267000FE4F148281E087831582D182C08253820B
:10268000428282E0868310860E94711F8C708C309B
:1026900019F48AE080931F0280912E02843218F090
:1026A00081E080932D021A821982109121020E94EA
:1026B000711FEE24E39485FFE12C0E94711F5524C5
:1026C000539486FF512C0E94711F082F001F002772
:1026D000001F0E94711FFF24F39484FFF12C0E94BD
:1026E000711F4424439483FF412C0E94711F51E0C9
:1026F0005B8382FF1B82011106C0F11006C0EE2031
:1027000031F08E2D05C0802F03C08F2D01C0852D87
:102710008093200280912B02882319F081508093AE
:102720002B02011102C0FF2021F0E1106AC25110FA
:1027300068C280912302882319F08150809323027C
:10274000EE2011F08FEF03C0552011F081E08A8355
:102750002A818091240290912502820F911D27FDEC
:102760009A9590932502809324029E012E5F3F4FFD
:1027700041E066E272E084E292E00E940A239E0158
:102780002E5F3F4F41E066E272E084E292E00E94F9
:102790006823002311F08FEF03C0FF2011F081E0C8
:1027A000898329818091260290912702820F911DB1
:1027B00027FD9A9590932702809326029E012F5F12
:1027C0003F4F40E066E272E084E292E00E940A231A
:1027D0009E012F5F3F4F40E066E272E084E292E0AC
:1027E0000E94682380902602909027026090240225
:1027F000709025027CEEA72E76E0B72EE8EE2E2E06
:10280000E6E03E2E6101A301405F5F4F9401205F2F
:102810003F4F71E0D5018C918823B1F1F6018081A1
:1028200091818417950784F50F968615970564F1B5
:1028300082819381821793073CF50F96881599053D
:102840001CF1D5011C9284E992E02C8B3D8B4F8BBF
:10285000588F7E8B0E9496208091BE069091BF0675
:102860008C509E4F9093BF068093BE0680E090E010
:102870002C893D894F89588D7E89FC01E851F94F9B
:102880006481662309F49EC1F5E0AF0EB11C85E0BA
:10289000C80ED11C91E0C91697E0D90609F0BACF4D
:1028A0008091B906A0902402B09025028090260263
:1028B000909027028823E9F08091B5069091B606A2
:1028C0009501215F3F4F281739079CF00F968A1515
:1028D0009B057CF08091B7069091B8069401215F2A
:1028E0003F4F281739072CF00F96881599050CF0E3
:1028F00071C163ED662E66E0762EAFECB6E0BE8366
:10290000AD836D019501215F3F4F3C872B87A4016B
:10291000415F5F4F5A874987D3012C91222389F168
:10292000F601808191814B855C85481759074CF1F0
:102930000F968A159B052CF18281938149855A85D2
:1029400048175907F4F00F9688159905D4F02230EE
:1029500041F484E992E00E94962082E00E94E42201
:102960000EC080E793E00E9496208091BE06909171
:10297000BF068C599F4F9093BF068093BE06D3012C
:102980001C92B8E06B0E711CE8E0CE0ED11CF7EE85
:10299000CF16F6E0DF0609F0BFCF41101FC0EE20D2
:1029A00031F0011112C0FF2091F011E017C0552045
:1029B00031F001110EC0FF2071F017E00FC00111BE
:1029C0000CC0FF2059F010E009C013E007C012E06E
:1029D00005C015E003C016E001C014E01093210209
:1029E0005B81552311F0442009F010FF10932A0257
:1029F00080913A0690913B0683709927892BF1F4D8
:102A000080912E02823018F0815080932E020E9415
:102A1000711F83FF05C080912D02811105C0DEC0AA
:102A20000E94711F82FDF7CF80912D02882389F0CB
:102A300090912C0281E0892780932C025B815523A1
:102A400029F080912D02811144C007C04110F9CFB7
:102A500040C05B81552309F4D8C0809123028111C5
:102A600038C02091260230912702409124025091D3
:102A700025028091210290E0FC013696E770FF2745
:102A8000EE5EFE4F6081FC01EE5EFE4F7081E9E478
:102A9000F1E080E090E0A081A111A6C0A7E0A89F8E
:102AA000F001A99FF00D1124ED5BFE4F475F5F4FD2
:102AB00051834083255F3F4F338322837483658333
:102AC00081E0868388EB91E00E9496208AE08093E3
:102AD000230280912D02882349F080912E028230BA
:102AE00028F410922D0281E080932C0280913A0606
:102AF00090913B0666E070E00E94A031892B21F4A2
:102B000080912002811177C080912202843010F0E0
:102B1000109222028091BE069091BF0618161906E7
:102B2000C4F405979093BF068093BE068091C006BB
:102B30009091C106A091C206B091C3060596A11D51
:102B4000B11D8093C0069093C106A093C206B093B6
:102B5000C30680912902882319F0815080932902AD
:102B600080912A0290E0FC01EE5EFE4F2081A09150
:102B70002402B0912502D897E4E02E02A00DB11DE9
:102B80001124FC013696E770FF27EE5EFE4F808130
:102B900060912602709127026C517109F4E08F0256
:102BA000600D711D112420916D0130916E01A217ED
:102BB000B30774F141E02A173B070CF040E0CD0168
:102BC000D90128C005968931910509F056CE709338
:102BD000B9065ACE86E080931F028BCE80912E02DA
:102BE0008E5F80932E0220CF019637968630910516
:102BF00009F051CF6BCF809122028F5F8093220228
:102C000083CF84E080932B0294CD411026CF61CFF7
:102C1000C9014FEF042E000C550B8A1B9B0BFC01C6
:102C2000EE0FFF1F8E0F9F1F97FD0F96F4E09595F7
:102C30008795FA95E1F70196489FF001499FF00DBD
:102C4000589FF00D1124E20FF31F20916F01309176
:102C500070016217730744F041E0261737070CF044
:102C600040E0CB01B90102C0C9014FEFF7FF02C03C
:102C7000E0E0F0E0E138A1E0FA0714F0E0E8F1E08C
:102C8000F0936E01E0936D01042E000C550B861B32
:102C9000970BBC01660F771F860F971F97FD0F9646
:102CA00064E0959587956A95E1F70196489FB00194
:102CB000499F700D589F700D1124260F371F37FF45
:102CC00002C020E030E0213C310514F020EC30E07F
:102CD0003093700120936F0189E4C82E81E0D82ED3
:102CE000E3E4F1E0FC87EB877F0115E0D6018C91EE
:102CF000882309F4DCC0F60132978081F701408017
:102D00005180480E511C87FD5A9451824082F60131
:102D100031978081D70112968D909C901397880EE1
:102D2000911C87FD9A9413969C928E9212975FE85D
:102D3000652E51E0752EA12CB12C02E022E0A401F9
:102D4000B201C3010E949612882309F468C0F601FB
:102D50001082F9E0FA9DC001FB9D900D11249C01A9
:102D600021573E4F5901D90116968C9116978150E3
:102D700016968C9381114BC08CED90E00E949620AA
:102D8000F501108717828091BE069091BF068C597D
:102D90009F4F9093BF068093BE06828193812081CE
:102DA00031814091D306442359F04091DB064423FE
:102DB00051F04091E30641113DC0E2E0F0E005C072
:102DC000E0E0F0E002C0E1E0F0E043E0EE0FFF1FE2
:102DD0004A95E1F7E153F94F41E0478316822C5FB2
:102DE0003F4F318320830496938382838091E7064B
:102DF000A82FB0E0A65EBE4F9C9194838F5F8A306F
:102E000018F48093E70616C01092E70613C0D901A4
:102E100018961C9380E892E00E9496200BC0BFEFAA
:102E2000AB1ABB0AE9E06E0E711CF0E1AF16B104FB
:102E300009F083CFD70112966D917C91139777FF9C
:102E400002C0695F7F4F33E0759567953A95E1F76A
:102E5000F7018081918197FD079623E095958795ED
:102E60002A95E1F70E946B288B3010F0D6011C9256
:102E7000F7016081718120916D0130916E016217BF
:102E800073079CF04281538180916F019091700192
:102E90004817590754F020583F4F261737072CF092
:102EA000805C9F4F8417950714F4D6011C92B7E0FD
:102EB000CB0ED11CE7E0EE0EF11CFDE6EF16F1E0C3
:102EC000FF0609F013CFB6E9CB2EB1E0DB2E2FE8D9
:102ED00031E03C832B8313E9A12E11E0B12E79015F
:102EE00003E0402E512CD6018C91882309F4E4C0D4
:102EF0001A82198280913A0690913B06B2010E9493
:102F0000A031892B09F0D1C0F701808191812091F6
:102F10002402309125028217930714F421E004C0A3
:102F20002817390714F42FEF2A83D70112962D9111
:102F30003C911397409126025091270224173507A0
:102F400014F441E004C04217530714F44FEF4983CF
:102F50008115B2E09B0708F0ADC02F3F310511F09D
:102F600008F0A8C02A8127FF04C0F601329710821A
:102F700006C0222321F031E0F60132973083820F20
:102F8000911D27FD9A95D7018D939D933D019E013B
:102F90002E5F3F4F41E0BD01C7010E940A23809090
:102FA000240290902502409126025091270200E1D0
:102FB00020E1B401C7010E9496128823B1F08A81F2
:102FC00018163CF4B0E18B1A9108F70191828082C7
:102FD00008C0882331F0F0E18F0E911CD7018D924B
:102FE0009C928FEF0E94E4221A829E012E5F3F4F37
:102FF00041E0B301C7010E9468232981F701828162
:103000009381820F911D27FD9A95938382839E0160
:103010002F5F3F4F40E0B301C7010E940A23809019
:10302000260290902702609124027091250200E10F
:1030300020E1A401C7010E9496128823C1F0898172
:1030400018164CF4F0E18F1A9108D70113969C9250
:103050008E92129708C0882331F0B0E18B0E911C3C
:10306000F701938282828FEF0E94E42219829E01EF
:103070002F5F3F4F40E0B301C7010E9468238A8160
:10308000811103C08981882371F080913A0680FD07
:1030900004C0D5018C918F5F8C93F50180818830BD
:1030A00020F0108202C0D5011C92F6013197808178
:1030B000811102C0F6011082F9E0CF0ED11C29E087
:1030C000E20EF11C39E0A30EB11C4FE1E41642E020
:1030D000F40609F008CF80913A0690913B066AE029
:1030E00070E00E94A031892B29F4809142018F5F0A
:1030F0008093420180914201843010F0109242018D
:10310000E0906F01F090700100916D0110916E01DF
:10311000C801F3E096958795FA95E1F79A87898734
:10312000680197E0C922DD244701A3E096948794C3
:10313000AA95E1F75701A7E0AA22BB24712C472CDE
:10314000512CC114D10419F480E190E002C081E156
:1031500090E048165906C4F553E0440C551C5A95A6
:10316000E1F74C185D08612CE985FA85E70DF11D42
:10317000FE87ED87462D50E0A114B10419F488E0D4
:1031800090E002C089E090E048175907DCF4BA01EA
:10319000680D791D8D859E854F8B588F0E946B28F9
:1031A0004F89588DBA01E3E0660F771FEA95E1F782
:1031B0006A197B09282F4AEC50E0C2010E94D822EC
:1031C0006394D8CF7394BBCF8091B906882309F458
:1031D00081C08091BC06811107C08091BD06882303
:1031E00019F081508093BD068091BD06811106C003
:1031F0008FEF0E94E4228FEF8093BD0680913A0604
:1032000090913B066AE070E00E94A031892B61F446
:103210008091BB068F5F8093BB068091BC0688239C
:1032200019F081508093BC068091BC06813019F45E
:103230008FEF0E94E4228091BB06843010F0109240
:10324000BB06E12CF12C00E010E0A0906F01B090E3
:103250007001C0906D01D0906E016091B7067091C1
:10326000B8066A197B09600F711F8091B5069091AD
:10327000B6068C199D0920E042E353E08E0D9F1D98
:103280000E94DE222091BA06220F220F8091BB06F7
:10329000280F6091B7067091B8066A197B09600F14
:1032A000711F8091B5069091B6068C199D0940EB6F
:1032B00052E08E0D9F1D0E94D822085F1F4F0031E3
:1032C000110519F6F8E0EF0EF11C20E1E216F10409
:1032D00021F1B9CF6091B7067091B8066E197F09D8
:1032E0008091B5069091B60620E04EE852E0801B32
:1032F000910B0E94DE226091B7067091B8066E199C
:103300007F098091B5069091B6062091BA064CE0EF
:1033100052E0801B910B0E94D82226EDC22E26E09F
:10332000D22E04ED16E035EDE32E36E0F32E46E026
:10333000A42EB12C9924939420913A0690913B06A7
:10334000822FB5010E94A031892B41F4D7019C91B5
:103350009F5F9C93F80190819F5F908320FD05C043
:10336000D7018C918A3108F0DAC2F7018081F80127
:1033700031978F3108F01082D8018C91863008F097
:103380001C928081882319F1F60190819923F9F02C
:1033900090E00197282F220F820F880FD8012C91DF
:1033A000280FED81FE816281738180916F01909180
:1033B0007001681B790B80819181E0916D01F09122
:1033C0006E014CE353E08E1B9F0B0E940423F8E038
:1033D000CF0ED11C2D813E81285F3F4F3E832D8330
:1033E000085F1F4F38E0E30EF11C4D815E81475EA0
:1033F000564009F0A1CF80913A0690913B066EE1CC
:1034000070E00E94A031892B31F49091000181E09D
:10341000892780930001D10114968C9114978823F9
:10342000E9F1E0906F01F090700100916D01109151
:103430006E0112966D917C9113976E197F098D9193
:103440009C9120E042EF54E0801B910B0E94DE2211
:10345000F101628173816E197F09808191812091D0
:10346000420140E754E0801B910B0E94D8228091DA
:103470000001882399F0D10112966D917C911397E8
:10348000695071096E197F098D919C91409620E0D9
:103490004EEF53E0801B910B0E940423B5E02B0EEE
:1034A000311CE1E02E16E7E03E0609F0B4CF97E9C3
:1034B000E92E91E0F92EF70131979081D7018C9197
:1034C0009923D9F1882311F081508C93F7018081E1
:1034D0008370823008F01CC1AB81BC810D911C91BE
:1034E000119780916D0190916E01081B190B129636
:1034F000CD90DC90139780916F0190917001C81A64
:10350000D90A5701B3E0AB1AB108F501208146E1B1
:1035100057E0B601C8010E94DE22D5018C91F70167
:1035200034972081B8E08B9F200D112444E155E0B1
:10353000B601C8010E94D822EBC0882309F4E8C074
:103540008150F7018083AB81BC811296AD90BC9015
:10355000139720916F0130917001A21AB30A2501CF
:10356000B8E04B0E511CEB81FC81C080D1802091D2
:103570006D0130916E01C21AD30A3601F8E06F0E68
:10358000711C06E010E0081B1109000F10E08824F0
:103590008394912C801A910A88279927801B910B7C
:1035A0009C01220F331F3A872987A201400F511F28
:1035B00021E0B30187E396E00E940C27A201401BA3
:1035C000510B21E0B30187E396E00E940C27B30181
:1035D000600F711F21E0A20187E396E00E940C2793
:1035E000B301601B710B21E0A20187E396E00E940A
:1035F0000C27160139E0230E311CA601495F5F4FED
:103600005E834D831E861D8681E090E0988B8F87B8
:10361000D501AC19BD09BB8BAA8B2D853E85201722
:1036200031070CF075C097FC09C001501109E985FC
:10363000FA853296FA87E9878E0E9F1E2D853E8584
:103640002F5F3F4F3E872D874F8558894E5F5F4FD5
:10365000588B4F87840E951E21E06201C00ED11E4B
:10366000A601B10187E396E00E940C2721E0A601A4
:103670006D817E8187E396E00E940C2721E0620144
:10368000C01AD10AA601B10187E396E00E940C2777
:1036900021E0A6016D817E8187E396E00E940C27E0
:1036A000CA88DB88C20CD31C21E0A6015301A00EFE
:1036B000B11EB50187E396E00E940C2721E0A60128
:1036C0006301C01AD10AB60187E396E00E940C2775
:1036D0008A899B89AD81BE818A0F9B1F98878F83C2
:1036E00021E0AC01B50187E396E00E940C2721E0C0
:1036F0004F815885B60187E396E00E940C27BFEF03
:103700002B1A3B0AED81FE813197FE83ED8385CF35
:103710004B815C81475F5F4F5C834B8359E0E50ED3
:10372000F11C8B819C818F51924009F0C4CEEB85B6
:10373000FC858681882309F18081918120916D012A
:1037400030916E01821B930B6281738120916F0116
:1037500030917001AC01415051094F37510568F467
:10376000621B730B9B01215031092F33310528F463
:1037700020E048E557E00E94D8222B853C85295F50
:103780003F4F3C872B872D56314089F68091290287
:103790008770843088F5E0906F01F090700100919F
:1037A0006D0110916E0160912602709127026E19D1
:1037B0007F098091240290912502209121024EE5FB
:1037C0005BE0801B910B0E94DE2220912102220FE0
:1037D000220F80912202280F609126027091270209
:1037E0006E197F0980912402909125024CE557E0E3
:1037F000801B910B0E94D82221E041E060E086E529
:103800000E94332710E080912802181778F4812F46
:10381000869520E040E65CE060E070E0AAE08A9FE8
:10382000C00111240E9404231F5FEDCF10E080919E
:1038300028028695181768F421E040E65CE060E015
:1038400070E0BAE01B9FC00111240E9404231F5F97
:10385000EECF10E020E030E080E0F901E851F94FD0
:10386000948191118F5F2B5F3F4F29313105A9F76B
:10387000181770F4E9E01E9FC001112422E040EE09
:103880005CE060E070E088960E9404231F5FE2CF56
:1038900081112EC080910001882391F023E040EE39
:1038A0005CE060E070E08DE290E00E94042324E0A0
:1038B00040EE5CE060E070E086E390E00E9404236C
:1038C00025E040EE5CE060E070E081E490E00E9482
:1038D000042326E040EE5CE060E070E08AE490E0E3
:1038E0000E94042320E040E061E084E40E9433274A
:1038F00080912C028823C1F080912E0239893817DB
:1039000098F420E040E65DE067E070E0F9898F2FF1
:1039100090E00E94042329892F5F298BEDCFF601C7
:1039200080818925808321CD68960FB6F894DEBF0B
:103930000FBECDBFDF91CF911F910F91FF90EF9000
:10394000DF90CF90BF90AF909F908F907F906F90BF
:103950005F904F903F902F900895CF92DF92EF921B
:10396000FF920F931F93CF93DF936C017A018B012A
:10397000C0E0D0E0CE15DF0589F0D8016D918D0152
:10398000D601ED91FC910190F081E02DC6010995E1
:10399000892B11F47E0102C02196ECCFC701DF9183
:1039A000CF911F910F91FF90EF90DF90CF900895EE
:1039B0003FB7F89480917C0190917D01A0917E01A8
:1039C000B0917F0126B5A89B05C02F3F19F0019645
:1039D000A11DB11D3FBFBA2FA92F982F8827820F95
:1039E000911DA11DB11DBC01CD0142E0660F771FE5
:1039F000881F991F4A95D1F7089580913402E0916C
:103A00003202F0913302882349F0CF01029690935D
:103A1000330280933202859194910895CF010296EA
:103A2000909333028093320280819181089583B70D
:103A3000817F83BF83B7816083BF889583B78E7F83
:103A400083BF08958091710108950E94CE31362F71
:103A500090E0FC01EA59F24F4491FC01E35AF14F26
:103A60002491FC01E657F14F8491882309F451C059
:103A70004423E1F150E0FA013197EF30F105B0F560
:103A8000EA5AFF4F0C94C831909180009F7707C08D
:103A9000909180009F7D03C090918000977F9093CC
:103AA000800024C094B59F7702C094B59F7D94BDDB
:103AB0001DC0909190009F7707C0909190009F7DCE
:103AC00003C090919000977F909390000FC09091C9
:103AD000C0009F7703C09091C0009F7D9093C0006D
:103AE00005C09091C200977F9093C200E82FF0E04C
:103AF000EE0FFF1FE458F14FA591B4918FB7F894E2
:103B0000EC91311103C020952E2301C02E2B2C9354
:103B10008FBF08951F93CF93DF931F92CDB7DEB76A
:103B2000162F682F89E049830E94271D612F8AE0A4
:103B30000E94271D4981642F8BE00F90DF91CF9168
:103B40001F910C94271DCF93DF9390E0FC01E35A63
:103B5000F14F2491FC01E657F14F8491882361F1E4
:103B600090E0880F991FFC01EB5CF14FC591D49157
:103B7000FC01E458F14FA591B491611109C09FB7C0
:103B8000F8948881209582238883EC912E230BC0A2
:103B9000623061F49FB7F8943881822F8095832337
:103BA0008883EC912E2B2C939FBF06C08FB7F8947F
:103BB000E8812E2B28838FBFDF91CF9108958F92BC
:103BC0009F92AF92BF92CF92DF92EF92FF926B01E2
:103BD0007C010E94D81C4B015C01C114D104E1049A
:103BE000F104F1F00E94D81CDC01CB01881999097D
:103BF000AA09BB09883E9340A105B10570F321E0F5
:103C0000C21AD108E108F10888EE880E83E0981EF8
:103C1000A11CB11CC114D104E104F10419F7DDCFDA
:103C2000FF90EF90DF90CF90BF90AF909F908F90DC
:103C300008951F920F920FB60F9211242F933F9366
:103C40008F939F93AF93BF93809187019091880149
:103C5000A0918901B0918A0130917B0123E0230F6B
:103C60002D3720F40196A11DB11D05C026E8230FB4
:103C70000296A11DB11D20937B0180938701909333
:103C80008801A0938901B0938A0180917C01909171
:103C90007D01A0917E01B0917F010196A11DB11D12
:103CA00080937C0190937D01A0937E01B0937F016E
:103CB000BF91AF919F918F913F912F910F900FBE28
:103CC0000F901F901895CF92DF92EF92FF920F9373
:103CD0001F93CF93DF930E94FD1C811520E892076C
:103CE00061F4809171008D7F80937100109291003A
:103CF00046984798109274018BC021E0209374017C
:103D0000813020E8920751F4809130029091310285
:103D100090933302809332020E94FD1C97FD05C0F0
:103D200020917301222309F43FC0209172012111D7
:103D30003BC021E020937501EC01DF77209769F407
:103D400081E08093760146983FE9C32E3FE0D32E71
:103D5000E12CF12CCAEFD0E014C08E0120E030E05D
:103D600060E472E48FE090E0A90198010E94AB3218
:103D700069017A0181E0C81AD108E108F1081092BE
:103D80007601E0913506F09136060995811103C060
:103D900081E080937601809175018823B9F180914B
:103DA0007601811133C003C010927501C5CF4699C9
:103DB0002DC0479A0E94FD1C009771F09C01DE0106
:103DC0000E94FF32DC01CB0129E0B595A7959795BC
:103DD00087952A95D1F703C08FEF9FEFDC011092F2
:103DE00090002AE020939100D0929900C092980010
:103DF0008093770190937801A0937901B0937A0131
:103E00008091710082608093710002C04798D2CF88
:103E1000DF91CF911F910F91FF90EF90DF90CF90A6
:103E200008951F920F920FB60F9211242F933F9374
:103E30004F935F936F937F938F939F93AF93BF93B2
:103E4000EF93FF938091770190917801A091790190
:103E5000B0917A01892B8A2B8B2B81F1809176018D
:103E600081110BC098B180E4892788B980917501D0
:103E7000882319F088B1805888B980917701909192
:103E80007801A0917901B0917A01181619061A06E5
:103E90001B06B4F48091770190917801A09179018B
:103EA000B0917A010197A109B109809377019093AC
:103EB0007801A0937901B0937A0102C00E94631E39
:103EC000FF91EF91BF91AF919F918F917F916F91F2
:103ED0005F914F913F912F910F900FBE0F901F90C8
:103EE00018958FB12CB193B130E0209530952074A6
:103EF0003327A90123E0559547952A95E1F7292F06
:103F000030E02095309520713327359527953595EC
:103F10002795242B8095807F822B0895E091850141
:103F2000F0918601908180918401982B9083A091DB
:103F30008201B09183012C919091810190959223FF
:103F40009C9390818095892380830895E0918201DC
:103F5000F0918301908180918101892B8083E09190
:103F60008501F0918601908180918401809589235B
:103F7000808308958EBD00000DB407FEFDCF8EB581
:103F800008958F929F92AF92BF92CF92DF92EF925D
:103F9000FF920F931F93CF93DF935C016B018A0114
:103FA00080910801882309F45EC080918E018823E6
:103FB00009F459C080918C0180FF05C08091E00018
:103FC00082608093E000E8018AEFF82E93E0E92E0A
:103FD0002FE3822E3AE3932E209709F43DC08FB74A
:103FE000F894E092E9009091E80095FF06C0909166
:103FF000F200282D291B922F01C090E08FBF911154
:104000000AC0FA94FF2079F161E070E080E090E06E
:104010000E94DF1DE1CF292F30E0C217D3070CF437
:104020009C2F8FB7F894E092E9002091E80025FFDB
:1040300011C0292F30E0C21BD30BF601915020F0A4
:1040400041914093F100FACFC20ED31E9091E80047
:1040500095FF13C08FBFC0CF5D9884E680938B011E
:104060001016110644F081E090E0F50193838283FD
:1040700080E090E005C0C80103C09092E800EACF5C
:10408000DF91CF911F910F91FF90EF90DF90CF9034
:10409000BF90AF909F908F90089520E085E392E0CD
:1040A000B22FB111BFEFFC010024B193B193B193D2
:1040B000B1930394D1F70895EF92FF920F931F935A
:1040C000CF9300E810E0C0E0E12CF12C0E948E1F9D
:1040D00080E10E94BA1F82E00E94BA1F8C2F806B81
:1040E0000E94BA1F0E94A61FF701EB5CFD4F808162
:1040F0008EBDC70101967C01801791074CF4FC012D
:10410000EB5CFD4F20810DB407FEFDCF2EBDF2CF3D
:104110000DB407FEFDCFCF5F00581F4FC830B1F67A
:10412000CF911F910F91FF90EF9008959C01E1E7CF
:10413000F0E090819D7F908310923402E5EAF6E0F2
:10414000F0933302E0933202F0933102E0933002B5
:104150003183208384E190E09383828380E090E840
:10416000958384830C94631E6F927F928F929F92AB
:10417000AF92BF92CF92DF92EF92FF920F931F9375
:10418000CF93DF9300D000D0CDB7DEB76C015A01DA
:104190004115510509F4F9C1FA0114913196549170
:1041A000F2E0AF0EB11C222319F1E12FF0E0852FD0
:1041B000869586958695E82EF12C81E090E0352F46
:1041C000377011F480E090E08E0D9F1DE89F700124
:1041D000E99FF00CF89FF00C1124033011F4EE0C61
:1041E000FF1C2E9DC0012F9D900D1124A80EB91EFD
:1041F0000F3F09F402E0E12E012E000CFF08C6017A
:104200008E0D9F1D181619060CF0BFC120E8C216AE
:10421000D1040CF0BAC19B01250F311D57FD3A9511
:10422000121613060CF0B1C1603471050CF0ADC16B
:10423000A114B10409F4A9C19B0177FF04C022278E
:104240003327261B370B422F4770942EFB0177FD37
:10425000379623E0F595E7952A95E1F72E2F77FF1E
:1042600007C0992029F02FEF2E0F38E03919932E2F
:10427000D7FE05C0662477246C187D0802C0612C27
:10428000712C803891051CF030E83C1901C0312FA9
:104290003619822F022E000C990B2F3F1CF4482F49
:1042A000409501C040E0652F677867FF03C061500B
:1042B000686F6F5FE1E016160CF0E0E057FD595FA4
:1042C0005595559555955E0F850F911D099714F0DD
:1042D00058E0521B952F941B240FB60150E825037C
:1042E000600D711D1124660D771D1403F00111245A
:1042F000E60DF71DA5014E0F5F1FCC24C394D12CF2
:10430000092C02C0CC0CDD1C0A94E2F7033009F43E
:10431000F8C098F40130E1F0023009F036C18FEFB7
:104320008C9D80018D9D100D1124009510951C838E
:104330000B838C80792E720E2AC00A3F31F00B3F1E
:1043400009F023C1B92EB20E83C0B92EB20E4EC0F1
:10435000892E820EC0C0FA01E80FF91FE491EC9D8E
:104360005001ED9DB00C1124BA82A98227FD04C032
:10437000EC91E023AE2AAC92911012C001961196F6
:10438000831748F32F5F4E0D5F1D60587F4F271531
:1043900009F4FBC0DB01AB5CBD4F80E090E0F0CFE7
:1043A000273064F7FD01E058FF4FB080B820AA80A5
:1043B000BA28B082E3CFFA01E80FF91FE491EC9D2F
:1043C0008001ED9D100D11241A83098327FD03C080
:1043D000EC910E2B0C93911012C00196119683173D
:1043E00050F32F5F4E0D5F1D60587F4F2B1509F462
:1043F000CCC0DB01AB5CBD4F80E090E0F0CF27305C
:1044000064F78D0100581F4FF801A080FA81AF2A90
:10441000F801A082E2CFFA01E00FF11FE491EC9DD8
:10442000C001ED9D900D11249A83898327FD04C05E
:1044300080959C9189238C93911013C00F5F1F4F1F
:104440001196031740F32F5F4E0D5F1D60587F4F8D
:104450002B1509F49AC0DB01AB5CBD4F00E010E006
:10446000F0CF27305CF7FD01E058FF4F8A8180953F
:10447000908189238083E2CFFD01E00FF11FE49159
:10448000EC9DC001ED9D900D1124809590959C832D
:104490008B83FA01E00FF11FE491EC9D3001ED9D5B
:1044A000700C11247A82698227FD05C0F501908184
:1044B0008923682A6082911018C00F5F1F4FFFEF99
:1044C000AF1ABF0A0317C0F22F5F4E0D5F1DAE0D6E
:1044D000BF1D60587F4F281509F457C0CB018B5C76
:1044E0009D4F5C0100E010E0EDCF273034F7F5017F
:1044F000E058FF4F90818C8189239A81892B80839A
:10450000DCCF032F10E0E40FF51FDB01AB5CBD4FE8
:104510006B547D4F40E850E0401B510BE01AF10A0C
:10452000EE0CFF1C0B811C81A980BA8080E0732EE9
:10453000892ECF93DF93C62FD72FA5900591992071
:1045400061F0AC9CA02CB12C0C9D002D27302CF4DC
:104550008881109481218B2989938C9122231AF0D0
:10456000009580238A298D933A9539F79A9551F0D1
:10457000372D23951124EE0DF11DA40FB11DC40F8D
:10458000D11DDBCFDF91CF9111240F900F900F90B1
:104590000F90DF91CF911F910F91FF90EF90DF90DF
:1045A000CF90BF90AF909F908F907F906F90089525
:1045B0000F930AEF0E94B4200F9108950F930BEF11
:1045C0000E94B4200F9108959091290291111BC06F
:1045D00090912802980F9093280287FF07C08CE3E0
:1045E0008093290280E793E00E9496208091280220
:1045F000893020F088E0809328020895811103C05B
:1046000089E080931F0208950F9303E00E94B42075
:104610000F9108956F927F928F929F92AF92BF9267
:10462000CF92DF92EF92FF920F931F93CF93DF937E
:104630007C016B01142F5901CFE8D1E0F601808095
:104640009180F7016080718000E120E1A401B30155
:10465000CE010E949612882339F1888199816816CB
:10466000790629F42A813B8182169306E9F0F50147
:104670002081112349F0121614F4409703C022231D
:1046800089F04096F7010CC0121624F48A819B81B0
:10469000409705C0222331F08A819B814096F60124
:1046A00091838083F50110822996F2E0CF31DF07F4
:1046B00029F6DF91CF911F910F91FF90EF90DF903E
:1046C000CF90BF90AF909F908F907F906F90089504
:1046D0002F923F924F925F926F927F928F929F9212
:1046E000AF92BF92CF92DF92EF92FF920F931F9300
:1046F000CF93DF9300D01F92CDB7DEB75C016B0183
:104700003901FC0100811181C8018770992731E0CE
:10471000892B09F430E0F601808191818770992717
:1047200021E0892B09F420E017FF02C0095F1F4F29
:10473000E3E015950795EA95E1F77801FFEFEF1AA9
:10474000FF0AF3E0EE0CFF1CFA95E1F7232E312C63
:10475000422E512CF5018081918197FD079623E02F
:10476000959587952A95E1F70296820D931D081776
:1047700019070CF061C0F6018081918197FD0796C1
:104780009C0173E0359527957A95E1F73B832A8361
:10479000470138E1831A9108F6018081918197FDE4
:1047A000079633E0959587953A95E1F70296840D43
:1047B000951D2A813B8128173907C4F56A817B81C1
:1047C000C80149830E946B282A813B812F5F3F4F9C
:1047D00049818B3040F1F3018081442361F087FFF0
:1047E00004C0F501F182E0821CC08823D1F0F501FC
:1047F0009182808216C087FF07C0C90163E0880FDD
:10480000991F6A95E1F70AC0882359F08A819B8134
:1048100053E0880F991F5A95E1F74097F60191836D
:104820008083F30110823B832A83B6CF0F5F1F4F33
:1048300038E0E30EF11C8ECF0F900F900F90DF91B8
:10484000CF911F910F91FF90EF90DF90CF90BF908D
:10485000AF909F908F907F906F905F904F903F9020
:104860002F90089520913D06282329F490913C062D
:10487000982381E009F480E00895FC0180918E0185
:10488000811103C08FEF9FEF08959FB7F89482E0E6
:104890008093E9002091F20030E01216130614F420
:1048A00021E030E02115310559F0289884E6809305
:1048B0008D018091F10080838091F200882319F0AE
:1048C0009FBFC90108958BE68093E800F9CF8091DE
:1048D0004D0681110DC082E08093490684E08093EB
:1048E0004A0610924C0610924B0681E080934D06CA
:1048F00089E496E0089508951092C5061092C406C2
:104900001092C0061092C1061092C2061092C30601
:1049100086E080931F021092BF061092BE06E0E26E
:10492000F2E0118285E0808711868AE0838381E04E
:1049300084871586168608958091C7068F5F8093B9
:10494000C706873140F08091C6068F5F8093C60608
:1049500086E18093C7068091C606863018F085E010
:104960008093C60608950F931F93CF9300E010E045
:10497000C0E02C2F44E95AE16AE070E0C8010E94CF
:10498000D822CF5F005E1F4FC43099F720E046E683
:104990005AE162E370E08BE290E00E94D8228091BD
:1049A000C6068F5F853B18F48093C60605C010923B
:1049B000C60681E080931F02CF911F910F91089549
:1049C00020E044E758E160E070E080E090E00E9481
:1049D000D82220E04EED57E160E270E08EE390E0F7
:1049E0000E94D82220E041E450E260E070E082E4DE
:1049F00090E00C94D82220E041E450E260E070E0C6
:104A00008EE190E00E94D82220E047E250E260E090
:104A100070E08CE590E00E94D82220E041E45FE164
:104A200061E270E080E390E00E94D82220E04AE258
:104A30005FE161E270E086E190E00E94D82220E030
:104A400048E15FE16FE270E08BE190E00E94D822E4
:104A50008CE00E943224882319F081E080931F02A9
:104A6000089520E046E15DE160E070E080E290E0E2
:104A70000E94D82221E046E15DE160E270E080E240
:104A800090E00E94D8228CE00E943224882319F002
:104A900081E080931F02089520E040E850E160E04B
:104AA00070E08EE190E00E94D82220E046E650E1DE
:104AB00060E070E08CE590E00E94D82220E040EFBA
:104AC0005FE068E270E085E290E00E94D8228CE02E
:104AD0000E943224882361F088E080931F0220E046
:104AE0004AE15FE060E270E086E190E00C94D82259
:104AF000089580913A0690913B066EE170E00E9425
:104B0000A031892B31F49091B30681E089278093FD
:104B1000B3068CE00E943224882339F081E0809330
:104B20001F021092B4061092B3060895AF92BF927E
:104B3000CF92DF92EF92FF920F931F93CF93DF9369
:104B40000E94E024E12CF12CCFE7D0E0C090C70612
:104B5000D12CCE018C199D0902E020E048E052E200
:104B600069E170E08E0D9F1D0E94B42028E0E20EE6
:104B7000F11C38E1E316F10449F7C0910901C23094
:104B800049F420E048E052E269E170E082E690E01A
:104B90000E94B42089E1E82EF12C02E010E0AC2E56
:104BA000B12C80E890E0FC01EC19FD096F012EEFBB
:104BB000200F0A151B0529F04BE351E2B701C6018E
:104BC00009C08091C6064BE351E2B701F601E81B2C
:104BD000F109CF010E94D8220F5F1F4FF9E0EF0EBD
:104BE000F11C0630110519F780E10E943224882358
:104BF00011F0C53010F180E80E943224882321F0A2
:104C0000809109018330F8F48CE00E9432248823DB
:104C100041F01092C6061092C70680910901809358
:104C20001F02DF91CF911F910F91FF90EF90DF90C6
:104C3000CF90BF90AF900C949C24CF5FC09309019C
:104C40001092C606D8CF8150809309011092C606F3
:104C5000DBCF61E085E00E94A31D61E083E00E945C
:104C6000A31D81E0809371010895CF92DF92EF92AE
:104C7000FF920F93CF93DF931F92CDB7DEB70E94C1
:104C8000E024C12CD12C8FE7E82EF12C8091C706AF
:104C90009701281B3109C90102E020E048E052E2F7
:104CA00069E170E08C0D9D1D0E94B42038E0C30EB8
:104CB000D11C88E1C816D10449F780E10E94322452
:104CC000882321F00E9429261092C60680E80E94BF
:104CD0003224882361F01092710160E085E00E9427
:104CE000A31D60E083E00E94A31D1092C6068CE025
:104CF0000E9432248823A9F01092C6061092C7069B
:104D00006091710182E090E069830E94953269812F
:104D1000681721F082E090E00E949D3281E080934C
:104D20001F028091C70620E830E07901E81AF108F7
:104D300024E04BE351E269E170E0C7010E94D82210
:104D400080917101882381F025E04BE351E262E21A
:104D500070E0C7010E94D8228091C60626E04BE38E
:104D600051E26BE270E00FC026E04BE351E26BE2F0
:104D700070E0C7010E94D8228091C60625E04BE36F
:104D800051E262E270E0F701E81BF109CF010E94F5
:104D9000D8220F90DF91CF910F91FF90EF90DF908D
:104DA000CF900C949C240F931F93CF93DF931F926B
:104DB000CDB7DEB7182F062F61E08BE049830E9444
:104DC000271D68EC70E080E090E00E94DF1D60E04D
:104DD000802F0E94271D82E090E00E949532498139
:104DE000481729F0642F82E090E00E949D3264EF22
:104DF00071E080E090E00E94DF1D61E0802F0E9462
:104E0000271D0E94711F81238117D9F30F90DF9115
:104E1000CF911F910F9108956038710518F54034B6
:104E2000510500F5E42FE695E695E695F0E047702C
:104E30005527F695FE2FEE27F795E7956E0F7F1F06
:104E4000FB01EB5CFD4F81E090E001C0880F4A95CB
:104E5000EAF7222319F09081892B03C08095908175
:104E60008923808308956F927F928F929F92AF9251
:104E7000BF92CF92DF92EF92FF920F931F93CF9347
:104E8000DF93CDB7DEB72B970FB6F894DEBF0FBE1A
:104E9000CDBFF82EE62E742E213071F1C8F02230ED
:104EA00009F043C08091C4064AE08E010F5F1F4F96
:104EB000B80190E02B870E942F32F801019000206A
:104EC000E9F73197E01BF10B8E2E2B85022F2CC0BA
:104ED0008091BC064AE08E010F5F1F4FB80190E041
:104EE0000E942F32F80101900020E9F73197E01B72
:104EF000F10B8E2E03E018C06091C0067091C106C0
:104F00008091C2069091C3062AE08E010F5F1F4F69
:104F1000A8010E943A32F80101900020E9F7319788
:104F2000E01BF10B8E2E06E00E1B912C002E000CC8
:104F3000110BCE2CD12CAF2CB12C892D90E08017E9
:104F400091077CF521E07216D9F0721670F032E00C
:104F5000731225C020E04AE756E1B601C5013AE0E8
:104F6000939E800D911D112418C0880F991F880FE2
:104F7000991F20E04EEB57E1B6018A0D9B1D0DC035
:104F800020E04CE157E1B601C50137E0939E800D6A
:104F9000911D11240E94042302C00E94D8229394E0
:104FA000CCCF8F2D90E06801CC0CDD1CCC0CDD1C2F
:104FB000C80ED91E27E0209F5001219FB00C11245C
:104FC000A80EB91E4AE0409F9001419F300D112468
:104FD0008901080F191F612C082C000C9908F12C6D
:104FE000862D90E088159905CCF5E1E0F0E0EC0F16
:104FF000FD1FE80FF91F208121331CF020532A30B8
:1050000008F020E031E07316C9F0731668F082E012
:10501000781222C04AE756E1B701C8013AE0639E20
:10502000800D911D112416C0880F991F880F991F9C
:105030004EEB57E1B7018C0D9D1D0CC04CE157E1C3
:10504000B701C50137E0639E800D911D11240E94B8
:10505000042302C00E94D8226394C2CF2B960FB6BD
:10506000F894DEBF0FBECDBFDF91CF911F910F919E
:10507000FF90EF90DF90CF90BF90AF909F908F9078
:105080007F906F900895E091B406F0E0EE0FFF1F5F
:10509000EA5EF04F85919491FC01099520E04AE188
:1050A0005FE068E070E080E190E00E94D82221E0BB
:1050B00042E060E284E20E9433278091B3068823B5
:1050C00049F020E04EED5EE068E370E085E290E0BC
:1050D0000C94D8220895FC01A3E0F695E795AA95D3
:1050E000E1F79B01287F3327E20FF31FF695E79541
:1050F0002091C50630E1239FE00DF11D1124E659F2
:10510000FA4E249130E0AC014870552783FD03C06E
:10511000EFEFF0E002C0EFE0F0E02E233F23452B5D
:1051200011F444E001C040E0FB01E770FF2753E0C9
:10513000EE0FFF1F5A95E1F787709927E80FF91FC7
:1051400002C0359527954A95E2F766E0220F331F96
:105150006A95E1F7E20FF31FE658FE4E8491089539
:10516000CF93DF931F92CDB7DEB76983DC01ED915A
:10517000FC910280F381E02D41E050E0BE016F5FC1
:105180007F4F09950F90DF91CF91089583E0809331
:10519000E9008091F200882319F08AE38093E80007
:1051A0000895FC018485958597FD0BC09FB7F89401
:1051B00082E08093E9008091F2009FBF90E0019629
:1051C00008959FB7F89482E08093E9008091F200FF
:1051D0009FBF90E008954091CD065091CE0620915A
:1051E000CB063091CC0642175307B4F49091E800F7
:1051F0009570E1F39091E80092FD19C08093F10061
:105200008091CD069091CE0601968F739927892BB8
:1052100019F48EEF8093E8008091CD069091CE0630
:1052200001969093CE068093CD0681E0089580E0AC
:105230000895DF92EF92FF920F931F93CF93DF9326
:10524000D82E8A017B01E40EF51EEB01CE15DF0599
:1052500071F0D7FE03C0FE01849101C088810E94D5
:10526000EB2821968111F2CF8FEF9FEF01C0C8018B
:10527000DF91CF911F910F91FF90EF90DF900895F4
:10528000615030F02091F100FC0120830196F8CFAD
:10529000289884E680938D010895CF93DF931F9221
:1052A000CDB7DEB7FC018485958597FD05C02FEF4E
:1052B0003FEF358724870BC0CE0101960E943D2425
:1052C000019719F4898190E002C08FEF9FEF0F9052
:1052D000DF91CF9108950F931F93CF93DF931F9288
:1052E000CDB7DEB78C01FC018485958597FF0EC094
:1052F000CE0101960E943D24019719F4298130E0E6
:1053000002C02FEF3FEFF80135872487F80184852D
:1053100095850F90DF91CF911F910F9108950F9375
:105320001F93CF93DF931F92CDB7DEB782E08983BF
:1053300042E450E062E172E280E80E9419290E9492
:105340006724DC0112960D911C911397011511052C
:1053500069F0D801ED91FC910280F381E02DBE014E
:105360006F5F7F4FC801099597FF07C089810F9034
:10537000DF91CF911F910F910895F801008511855C
:10538000E5CF1F920F920FB60F9211248F939F9328
:105390008091E1009091E100937F9093E10083FF81
:1053A0000FC01092E90091E09093EB001092EC0096
:1053B00092E39093ED0010928E0198E09093F000AC
:1053C00082FF20C093E09093E9009091F20099232E
:1053D00019F09AE39093E80090918B01992339F0AA
:1053E00090918B01915090938B01992389F1909129
:1053F0008D01992339F090918D01915090938D01F9
:10540000992341F184FF10C08091E2008E7E81607B
:105410008093E2008091E1008F7E8093E100809193
:105420008C018E7E806111C080FF16C08091E200E9
:105430008E7E80618093E2008091E1008E7E809379
:10544000E10080918C018E7E816080938C0104C08C
:105450005D9ACDCF289AD6CF9F918F910F900FBE96
:105460000F901F9018951F920F920FB60F92112454
:10547000CF92DF92EF92FF920F931F932F933F9360
:105480004F935F936F937F938F939F93AF93BF934C
:10549000EF93FF93CF93DF93CDB7DEB76C97DEBF6B
:1054A000CDBF1092E9008091E80083FFFAC168E067
:1054B000CE0145960E94402982EF8093E8008D89B5
:1054C00087FF05C09091E80090FFFCCF03C09EEFDE
:1054D0009093E800982F907609F0C6C09E892F8996
:1054E000188D91110CC0803829F48091C9068093E1
:1054F000F10002C01092F1001092F10047C1422F5A
:1055000050E0512B913051F4811140C1413051058F
:1055100009F03CC18091C9068D7F0BC0933061F4C6
:10552000811134C14130510509F030C18091C90663
:1055300082608093C9062AC1953041F48091E800C9
:1055400080FFFCCF20682093E30020C1963009F053
:105550005FC0EB8CFC8C1092E9001092CE0610928A
:10556000CD06123091F51092CC061092CB060E9417
:105570008F2999E0BE016F5F7F4FDB01E92F1D92FC
:10558000EA95E9F799831A8391E09E8390EA9887D8
:105590009AEF99872091CD063091CE06275F3F4F35
:1055A0003C832B838D831092E9001092CE061092DB
:1055B000CD06F092CC06E092CB0649E050E080E0C8
:1055C0000E9419290E948F29E1C0F092CC06E09236
:1055D000CB060E946724DC011296ED90FC90139795
:1055E000E114F10409F4C0C0D701ED91FC910480ED
:1055F000F581E02DBE016B5E7F4FC70109950097D5
:1056000019F00CF0C3C0C6C0F701E084F184E8CF04
:10561000973009F4BFC0983021F481E08093F10005
:10562000B5C0993009F0B2C0837009F0B3C0EBE3A4
:10563000F1E081E021E036E39081992361F08093ED
:10564000E9002093EB0091919093EC003093ED00F2
:105650008F5F873089F78EE78093EA001092EA0027
:105660008F8980938E0192C08B8D9C8D1092E90062
:105670001092CE061092CD069093CC068093CB0666
:10568000898D811156C08E899D89913A59F4813254
:1056900009F080C047E050E061E071E080E00E94E6
:1056A000192974C0913209F075C0833289F4888D4C
:1056B00090E0982F88272F89822BA0E0B0E080937C
:1056C0000A0190930B01A0930C01B0930D015EC0F1
:1056D000803269F48091E80082FFFCCF67E081E0CE
:1056E00091E00E9440298BEF8093E80006C082324F
:1056F00009F04CC08F89809308018091C8068823E7
:1057000019F0EEEFFAE002C0E0E0F8E0809101016C
:1057100090910201A0910301B0910401803B94405B
:10572000A105B10509F088C08091080180FFA0C0E3
:1057300083C00E946724DC0112960D911C9113977F
:105740000115110539F1D801ED91FC910190F0811D
:10575000E02DBE016B5E7F4FC8010995811116C017
:10576000F80100851185ECCF1130C1F0133091F4B0
:105770008F89882309F455C08230E9F440E860E15C
:1057800084E692E20E946331882321F08EEF8093B9
:10579000E80087C081E28093EB0083C08B8D9C8DF5
:1057A000089711F41093CA068091CA06811136C079
:1057B00065E772E238C0813029F440E86BE088E5A3
:1057C00092E2E0CF833031F70E946724DC01129629
:1057D000ED90FC9013978E010F5F1F4F6801E1144D
:1057E000F10479F0D701ED91FC910680F781E02D6D
:1057F000B801C7010995080F111DF701E084F18474
:10580000EECFD8011C92F60101900020E9F7319704
:10581000BF016C197D0940E0C601B4CF67E872E2B0
:1058200002C064E572E26115710509F4B3CFFB01B2
:10583000449150E080E833CF0FB6F894A89580915A
:105840006000886180936000109260000FBEA89590
:10585000EE3F2AE0F20739F08091FE0A9091FF0AAC
:105860009183808393CF1092FF0A1092FE0A8ECF0D
:10587000EE3F8AE0F80731F0808191819093FF0A32
:105880008093FE0A87E797E7918380839BE088E116
:105890000FB6F894A895809360000FBE90936000B7
:1058A00075CF6C960FB6F894DEBF0FBECDBFDF91FB
:1058B000CF91FF91EF91BF91AF919F918F917F9188
:1058C0006F915F914F913F912F911F910F91FF9099
:1058D000EF90DF90CF900F900FBE0F901F90189514
:1058E0001092050781E08093040780910207909150
:1058F00003078B3191055CF4049690930307809322
:1059000002078091010784508093010708958091D8
:10591000B4068F5F8093B406089580913A06909103
:105920003B0683709927892B29F48091C6068F5FE7
:105930008093C6068091C606893038F08091B406FF
:105940008F5F8093B4061092C60608958091BC06BE
:105950008823B9F081508093BC068091C006909155
:10596000C106A091C206B091C3060596A11DB11D46
:105970008093C0069093C106A093C206B093C3065D
:1059800008958091C406813430F48091B4068F5F0D
:105990008093B406089589E080931F021092B406A4
:1059A00008958CEC9FEF909303078093020784EA9D
:1059B000809301078091C406823058F081E0809383
:1059C0000507109204071092B3068091B4068F5F0A
:1059D00008C01092050781E0809304071092B30677
:1059E00084E08093B40608951092EC061092F106BC
:1059F0001092F6061092FB06109200071092D30642
:105A00001092DB061092E30680E090E0FC01E15783
:105A1000FE4F1782099680399105C1F78091C5061E
:105A20008F5F90E0019760E170E00E94B4318F5F7A
:105A30008093C5068091C4068F5F8093C406109240
:105A4000E7061092B4061092C60687E080931F0204
:105A50000895E091C406F0E03197EE0FFF1FEE0FBE
:105A6000FF1FE80FF11DE756FD4D849128E0829F4E
:105A7000C00111240895E091B406F0E0EE0FFF1F7D
:105A8000E953FB4D85919491FC010995809105079F
:105A90008823A9F020E043EA54E260E170E080E26C
:105AA00090E00E94D82220E041E060E18EE40E9474
:105AB000332721E042E064E284E20E9433278091B0
:105AC00004078823F9F020E049E354E268E170E03C
:105AD00080910207909103070E94D8228091B3061B
